:1002000050C7000078C7000076C7000074C7000020
:1002100072C7000070C700006EC700006CC7000006
:100220000C94921D68C7000066C7000064C70000F8
:1002300062C7000060C700005EC700005CC7000026
:100240005AC7000058C7000056C7000054C7000036
:1002500052C700000C94ED1C0C94E81C0C94F21C8A
:100260000C94891D48C700000C94E01D44C7000091
:1002700042C7000040C700000C948C1D0C945B1D0D
:100280003AC7000038C7000036C700000C94831D31
:1002900032C7000030C700002EC700002CC7000086
:1002A0002AC7000028C7000026C7000024C7000096
:1002B00022C700000C948F1D0C94861D1CC70000E3
:1002C0001AC7000018C7000016C7000014C70000B6
:1002D00012C700000C94E01C0C94DB1C0C94E51C71
:1002E0000AC7000008C7000006C7000004C70000D6
:1002F00002C7000005A84CCDB2D44EB93836A902C9
:100300000C50B9918688083CA6AAAA2ABE00000013
:10031000803F4E414E494E495459494E46CDCCCC72
:100320003D0AD7233C17B7D13877CC2B329595E6C9
:10033000241FB14F0A000020410000C84200401CA9
:100340004620BCBE4CCA1B0E5AAEC59D744E6F20D3
:10035000454550524F4D20636F6E666967004C6F84
:100360006164656420454550524F4D20636F6E6651
:100370006967005265666572656E636520766F6CAD
:10038000746167652063616C6962726174696F6E24
:100390003A20002000204E6F64653A20002047720A
:1003A0006F75703A20003931354D487A003836384B
:1003B0004D487A003433334D487A002046726571D7
:1003C0003A200052464D3639435720004F70656E33
:1003D000456E657267794D6F6E69746F722E6F72BC
:1003E0006700656D6F6E547820563420434D20436E
:1003F0006F6E74696E756F7573204D6F6E69746F73
:1004000072696E672056004A534F4E20466F726DD8
:100410006174204F6666004A534F4E20466F726DDE
:100420006174206F6E005246206F6666005246204F
:100430006F6E0074656D705F656E61626C65203D06
:10044000200070756C736520706572696F64203D63
:10045000200070756C736573203D200064617461C9
:100460006C6F67203D200069364C656164203D203B
:1004700000693643616C203D200069354C6561643C
:10048000203D2000693543616C203D200069344CDB
:10049000656164203D2000693443616C203D20008B
:1004A00069334C656164203D2000693343616C20F1
:1004B0003D200069324C656164203D200069324373
:1004C000616C203D200069314C656164203D200055
:1004D000693143616C203D2000617373756D656403
:1004E00056203D20007643616C203D200043616C26
:1004F0006962726174696F6E3A002064426D002C0B
:1005000020002C204E6F64652000204D487A2C205E
:1005100047726F7570200042616E642000536574ED
:1005200074696E67733A000A00202868696464651C
:100530006E292E00206279746573002C204461744A
:10054000612073697A653A2000205369676E61748F
:100550007572653A20004E6F206461746120626C90
:100560006F636B20666F756E64202D204545505279
:100570004F4D206170706561727320746F206265E9
:1005800020666F726D617474656420746F204F45CE
:100590004D205374616E64617264206275742075BD
:1005A0006E757365642E000A002062797465732C81
:1005B000206E6F7420666F726D6174746564207450
:1005C0006F204F454D205374616E64617264005317
:1005D000697A653A2000446F6E652E204E6577205B
:1005E000636F6E66696720736176656420746F203F
:1005F000454550524F4D00536176696E672E2E2E41
:1006000000536B657463682077696C6C206E6F773C
:100610002072657374617274207573696E672064EB
:10062000656661756C7420636F6E6669672E005233
:100630006573657474696E672E2E2E0020000A4162
:100640007661696C61626C6520636F6D6D616E646B
:10065000733A0A6C09092D206C69737420746865FB
:100660002073657474696E67730A7209092D2072AC
:100670006573746F726520736B657463682064655D
:100680006661756C74730A7309092D207361766550
:100690002073657474696E677320746F20454550CC
:1006A000524F4D0A7609092D2073686F77206669CD
:1006B000726D776172652076657273696F6E0A7A02
:1006C00009092D207A65726F20656E657267792041
:1006D00076616C7565730A7809092D2065786974EF
:1006E0002C206C6F636B20616E6420636F6E746985
:1006F0006E75650A3F09092D2073686F772074684D
:100700006973207465787420616761696E0A0A777D
:100710003C783E09092D207475726E2052464D209A
:10072000576972656C6573732064617461206F66CC
:10073000663A2078203D2030206F72206F6E3A207C
:1007400078203D20310A623C6E3E09092D207365F8
:100750007420722E662E2062616E64206E203D2011
:10076000612073696E676C65206E756D6572616C72
:100770003A2034203D203433334D487A2C20382021
:100780003D203836384D487A2C2039203D203931EB
:10079000354D487A20286D617920726571756972CE
:1007A00065206861726477617265206368616E6755
:1007B00065290A703C6E6E3E09092D207365742010
:1007C00074686520722E662E20706F7765722E20F9
:1007D0006E6E202D20616E20696E746567657220D3
:1007E00030202D20333120726570726573656E7410
:1007F000696E67202D31382064426D20746F202B84
:1008000031332064426D2E2044656661756C743A04
:1008100020323520282B372064426D290A673C6E30
:100820006E6E3E092D20736574204E6574776F726D
:100830006B2047726F757020206E6E6E202D2061C8
:100840006E20696E746567657220284F454D20647F
:10085000656661756C74203D20323130290A6E3C2A
:100860006E6E3E09092D20736574206E6F646520DD
:100870004944206E3D20616E20696E746567657223
:1008800020287374616E64617264206E6F646520E9
:100890006964732061726520312E2E3630290A0A70
:1008A000643C78782E783E092D2078782E78203D8B
:1008B000206120666C6F6174696E6720706F696E6D
:1008C00074206E756D62657220666F722074686543
:1008D00020646174616C6F6767696E672070657210
:1008E000696F640A633C6E3E09092D206E203D202D
:1008F0003020666F72204F46462C206E203D2031FE
:1009000020666F72204F4E2C20656E61626C6520F0
:10091000766F6C746167652C2063757272656E7496
:10092000202620706F77657220666163746F722075
:1009300076616C75657320746F2073657269616C84
:10094000206F757470757420666F722063616C69B6
:1009500062726174696F6E2E200A6A3C6E3E0909EC
:100960002D207475726E204A534F4E205365726964
:10097000616C20666F726D6174206F6E2028312962
:10098000206F72206F6666202830292E0A663C7818
:10099000783E09092D207878203D20746865206C08
:1009A000696E65206672657175656E637920696E22
:1009B00020487A3A206E6F726D616C6C792065699F
:1009C00074686572203530206F722036300A6B3CB7
:1009D000783E203C79792E793E203C7A7A2E7A3EF8
:1009E0000A09092D2043616C696272617465206196
:1009F0006E20616E616C6F67756520696E707574CD
:100A0000206368616E6E656C3A0A090920207820BF
:100A10003D20612073696E676C65206E756D65722F
:100A2000616C3A2030203D20766F6C7461676520E0
:100A300063616C6962726174696F6E2C2031203D54
:100A4000206374312063616C6962726174696F6ED6
:100A50002C2032203D206374322063616C69627205
:100A60006174696F6E2C206574630A09092020790E
:100A7000792E79203D206120666C6F6174696E6704
:100A800020706F696E74206E756D62657220666F7E
:100A9000722074686520766F6C746167652F63756A
:100AA0007272656E742063616C6962726174696FE1
:100AB0006E20636F6E7374616E740A090920207A68
:100AC0007A2E7A203D206120666C6F6174696E67B2
:100AD00020706F696E74206E756D62657220666F2E
:100AE00072207468652070686173652063616C6949
:100AF00062726174696F6E20666F722074686973C8
:100B000020632E742E20287A206973206E6F742043
:100B10006E65656465642C206F722069676E6F7204
:100B2000656420696620737570706C6965642C203B
:100B30007768656E2078203D2030290A0909202039
:100B4000652E672E206B30203235362E380A090983
:100B5000202020202020206B312039302E392032D7
:100B60002E30300A613C78782E783E092D20787836
:100B70002E78203D206120666C6F6174696E67205D
:100B8000706F696E74206E756D62657220666F722B
:100B90002074686520617373756D656420766F6C71
:100BA00074616765206966206E6F20612E632E2058
:100BB00069732064657465637465640A6D3C783E8E
:100BC000203C79793E092D206D6574657220707521
:100BD0006C736520636F756E74696E673A0A0909F4
:100BE00020202078203D203020666F72204F46461E
:100BF0002C2078203D203120666F72204F4E2C2013
:100C00003C79793E203D20616E20696E7465676590
:100C10007220666F72207468652070756C73652031
:100C20006D696E696D756D20706572696F6420699C
:100C30006E206D732E202879206973206E6F7420CA
:100C40006E65656465642C206F722069676E6F72D3
:100C50006564207768656E2078203D2030290A740D
:100C600030203C793E092D207475726E2074656DBC
:100C70007065726174757265206D656173757265FA
:100C80006D656E74206F6E206F72206F66663A20FD
:100C900079203D203020666F72204F46462C207907
:100CA000203D203120666F72204F4E0A743C783E02
:100CB000203C79793E203C79793E203C79793E2070
:100CC0003C79793E203C79793E203C79793E203C44
:100CD00079793E203C79793E0A09092D20636861C3
:100CE0006E676520612074656D70657261747572E0
:100CF000652073656E736F7227732061646472651B
:100D00007373206F7220706F736974696F6E3A0A23
:100D10000909202078203D20612073696E676C6589
:100D2000206E756D6572616C3A2074686520706F15
:100D3000736974696F6E206F6620746865207365CF
:100D40006E736F7220696E20746865206C697374AD
:100D50002028312D6261736564290A0909202079F0
:100D600079203D20382068657861646563696D612C
:100D70006C20627974657320726570726573656E3C
:100D800074696E67207468652073656E736F72276F
:100D90007320616464726573730A0909202020203E
:100DA000652E672E2020323820383120343320330E
:100DB000312030372030302030302044390A0909C2
:100DC00020204E2E422E2053656E736F7273204387
:100DD000414E4E4F542062652061646465642E0A62
:100DE00000456E657267792076616C756573207356
:100DF000657420746F207A65726F00436F6E74693A
:100E00006E75696E672E2E2E005246206F66660044
:100E10005246206F6E00456D6F6E547856342056E2
:100E2000002064426D0070203D20004E6F646520FC
:100E3000006F666600206D730050756C7365733AC1
:100E400020002000200043616C3A206B0047726F45
:100E500075702000467265713A200020730064614D
:100E600074616C6F6720706572696F643A2000204E
:100E70004D487A00005EBCE2613FDD83C29C7E206B
:100E8000A3FD1F41009D23BE46DB65F88C11AF32E8
:100E9000CA57E9742C7066363A002C7066353A00F1
:100EA0002C7066343A002C7066333A002C7066322F
:100EB0003A002C7066313A002C49363A002C4935FC
:100EC0003A002C49343A002C49333A002C49323A42
:100ED000002C49313A002C70756C73653A002C5423
:100EE000333A002C54323A002C54313A002C453617
:100EF0003A002C45353A002C45343A002C45333A1B
:100F0000002C45323A002C45313A002C50363A003C
:100F10002C50353A002C50343A002C50333A002CE7
:100F200050323A002C50313A002C56726D733A0010
:100F30004D53473A007D002C2270756C7365223A40
:100F4000002C225433223A002C225432223A002C14
:100F5000225431223A002C224536223A002C2245D6
:100F600035223A002C224534223A002C22453322E5
:100F70003A002C224532223A002C224531223A00F6
:100F80002C225036223A002C225035223A002C22B4
:100F90005034223A002C225033223A002C22503274
:100FA000223A002C225031223A002C2256726D73C4
:100FB000223A007B224D5347223A002056004143FB
:100FC000206D697373696E67202D204170706172A6
:100FD000656E7420506F7765722063616C63206565
:100FE0006E61626C65642C20617373756D696E67E8
:100FF000200041432070726573656E74202D20526D
:1010000065616C20506F7765722063616C63206549
:101010006E61626C65640020656E61626C65642E51
:101020000054656D7065726174757265206D6561DF
:10103000737572656D656E742069730053656E73A8
:101040006F72206D6179206E6F7420626520726509
:101050006C6961626C6500200030002C2077697437
:1010600068206164647265737365732E2E2E00545C
:10107000656D70657261747572652053656E736F0E
:10108000727320666F756E64203D20000A000008B0
:101090000A400CFFC000C000000201040603000368
:1010A000292311241FBECFEFCDBFDFE7DEBF11E440
:1010B000A0E0B0E4E6EDF1E800E00BBF02C007906D
:1010C0000D92AC3BB107D9F727E4ACEBB1E401C01A
:1010D0001D92A936B207E1F718E0C1E5D8E004C0D7
:1010E0002197FE010E94B140C035D107C9F70E9487
:1010F00032250C94E94084C82D9808952D9A0895BE
:101100000000809364098091630987FFFCCF809180
:1011100064090895CF932D98F3DF80E0F1DFC82FA5
:10112000EDDF8C2FCF910895CF93C62F2D98806837
:10113000E7DF8C2FE5DFCF91E1CFCF93909166472A
:10114000981791F0C82F81E0E5DF837E682F6C2B24
:1011500081E0EADF80916647811104C087E2DADF2F
:1011600087FFF8CFC0936647CF910895CF93DF9361
:10117000EC018881882321F06981D6DF2296F9CF9E
:10118000DF91CF910895893260F590E0FC01E75D31
:10119000FE4BE081EF3F29F180509F4BDC018C91A9
:1011A00090E0DC01AA0FBB1FA05BBF4B2D913C91CF
:1011B00021153105B1F04E2F50E0440F551F240F7B
:1011C000351FD9016D937C93E05FA5E0880F991FCF
:1011D000AA95E1F7E80FF0E0FC5F8081887F8260EC
:1011E00080830895CF93DF93282F30E09FEF8932DB
:1011F00020F5E901C952DF4B98819F3FE9F0F901E1
:10120000E050FF4BA08140E2A49FD0011124BC5FBD
:10121000F901E75DFE4BE081E830C0F5AD01405FCC
:101220005F4FE40FF52FF11D4FB7F89412969C9382
:101230009081977F90834FBF9881909357468932D2
:1012400040F520503F4BF9018081F4E08F9FC001B1
:1012500011248093584690935946109262461092FA
:101260006446109263461092614610926046109256
:101270005F4610925E4610925D4610925C46109258
:101280005B4610925A46DF91CF910895F0E0E0E07E
:10129000CBCF8CEF93E0DDCF90915746E09158464D
:1012A000F0915946292F209580FF15C0F89481812F
:1012B000822381838081892B808380E58A95F1F761
:1012C0008181982B91837894A9E4B1E01197F1F78B
:1012D00000C000000895F894818182238183808179
:1012E000892B8083A5E8B1E01197F1F700C00000D9
:1012F0008181982B91837894B8E2BA95F1F708959B
:1013000080915746E0915846F0915946F894908163
:10131000982B90832181382F30952323218398E1C6
:101320009A95F1F790819323908390E59A95F1F740
:1013300092817894EDE3F1E03197F1F700C000007D
:10134000982381E009F480E00895FF920F931F93A2
:10135000CF93DF93F82E062FC8E0D0E011E081E0B4
:101360009F2D912309F480E097DF110F2197B9F7A2
:10137000011116C0F894E0915846F09159469081B9
:1013800080915746809589238083E0915846F0915B
:10139000594691818091574680958923818378941D
:1013A000DF91CF911F910F91FF9008958091574643
:1013B000E0915846F0915946F8949081282F209555
:1013C0009223908378943DE7315059F190E19A95BA
:1013D000F1F792819823C1F3F8949181922391833C
:1013E0009081982B90837894AFE3BBE01197F1F74D
:1013F00000C00000F894908192239083A3EAB1E0AA
:101400001197F1F700C000009281982381E009F064
:1014100080E07894EBE9F9E03197F1F700C0000043
:10142000089580E00895AF92BF92CF92DF92EF923D
:10143000FF920F931F93CF93DF936C017B018B017E
:10144000040F151FEB015E01AE18BF08C017D107CE
:1014500059F06991D601ED91FC910190F081E02D58
:10146000C6010995892B79F7C501DF91CF911F91AD
:101470000F91FF90EF90DF90CF90BF90AF900895C5
:10148000FC0155894689252F30E0842F90E0821B8E
:10149000930B541710F0CF96089501970895FC010F
:1014A00093898489981761F0A489AE0FBF2FB11D6D
:1014B00057968C9194899F5F9F73948B90E00895C9
:1014C0008FEF9FEF0895FC0193898489981731F07D
:1014D0008489E80FF11D878990E008958FEF9FEFD1
:1014E0000895FC0193892489892F90E0805C9F4FA7
:1014F000821B91098F7399270895CF93DF93EC0195
:10150000E881F9810680F781E02D0995EC85FD855C
:10151000868116828581158280E484838C898B8BF9
:101520001A8ADF91CF9108958F929F92AF92BF92C6
:10153000FF920F931F93CF93DF938C014A015B01BE
:10154000D22FC32FDC0152968C91529780FF07C097
:10155000ED91FC910288F389E02DC8010995D11124
:1015600001C0D3E0FD2EE894F2F8DC2FD095D07CBA
:10157000B1E68B16B3EE9B06B6E1AB06B10428F0DC
:10158000D260B694A7949794879460E078ED88EB46
:1015900095E0A50194010E94593EC901203431050E
:1015A00010F480E490E03C2F3B72D7FD30684D2F63
:1015B000487C30FD41605FB7F894D8011C96ED91EE
:1015C000FC911682F7828087918735FF8FC04F7715
:1015D00081E084878FEF85873F7D3583D683F8014F
:1015E0002189C08986859785FC0133E0239FE00D22
:1015F000F11D1124659174912C1708F059C0272F03
:1016000046FF76C0793288F430E0F901E952FF4BA9
:10161000A081AF3F51F020503F4BF901308120E2D3
:10162000329FF0011124FC5FA18347FF2AC021E013
:10163000270F293230F530E0F901E952FF4BD08114
:10164000DF3FF9F0F901E050FF4BA081F0E2AF9FDE
:10165000D0011124BC5F275D3E4BF9011081F0E001
:10166000E0E0183030F49D01205F3F4FF901E10FB9
:10167000F11D3FB7F8941296DC93208128602083F7
:101680003FBF40FF15C023E0270F293288F430E028
:10169000F901E952FF4B40814F3F51F020503F4B41
:1016A000D901EC91B0E2EB9FF0011124FC5F418382
:1016B000FC0123E0C29FE00DF11D1124319625911C
:1016C0003491F901FF27EE51FA4F9081832F8095D5
:1016D0008923682B60835FBFDF91CF911F910F91AA
:1016E000FF90BF90AF909F908F900895148674CF15
:1016F000342F307509F499CF793208F096CF30E065
:10170000F901E952FF4BD081DF3F09F48ECFF90197
:10171000E050FF4BA081E0E2AE9FD0011124BC5FFE
:10172000275D3E4BF9011081F0E0E0E0183030F425
:101730009D01205F3F4FF901E10FF11D3FB7F89484
:101740001296DC932081286020833FBF6ECFFC017E
:101750000FB607FE04C0809111018823A9F0A4856B
:10176000B58514968C91149785FF0EC0958986894E
:10177000981739F015968C9115978F7D15968C9347
:101780000895E8940C94FD1C08950F931F93CF9334
:10179000DF93EC018A89982F91609A8B2D899E891D
:1017A00029130AC0EC85FD85948195FF05C081FD54
:1017B0000DC080E4848312C0062F1D891F5F1F7334
:1017C0008E89811315C0CE01C2DFFACF85818F7754
:1017D000806490E49483EC85FD858583EC85FD85AC
:1017E000628381E090E0DF91CF911F910F91089586
:1017F000ED89EC0FFD2FF11DE95AFF4F00831D8B82
:10180000EC85FD858A8981FF09C085818F77806697
:1018100090E49483EC85FD858583E3CF85818062A8
:10182000FBCFEF92FF920F931F93CF93DF938C0127
:101830007B01D0E0C0E0F701EC0FFD1F649166234F
:1018400031F0C801A2DF892B11F02196F4CFCE012F
:10185000DF91CF911F910F91FF90EF900895682F26
:101860008CE195E492CFCF93DF93EC018A8980FFDE
:101870000BC0EC85FD85858185FD03C0848186FDD7
:1018800003C0CE0164DFF5CFDF91CF91089581E0F1
:1018900008959FB7F894E0912A0BF0912B0B80915B
:1018A000260B209101433091024340910343509114
:1018B00004439FBF80FF08C0EC3E8CE2F80720F491
:1018C0002F5F3F4F4F4F5F4F0F01169407941694B1
:1018D00007941694079416940794F00116940794AD
:1018E000E00DF11D16940794102C1694011816940F
:1018F000010C169401181694010C169401181694F4
:101900001694010C1124E019F109A8EEB3E00E942D
:10191000493E6E0F7F1F811D911D08958F929F92EA
:10192000AF92BF92CF92DF92EF92FF926B017C0158
:10193000B0DF4B015C01C114D104E104F104B1F04A
:10194000A8DF681979098A099B09683E73408105F7
:10195000910588F321E0C21AD108E108F10888EE68
:10196000880E83E0981EA11CB11CE5CFFF90EF907C
:10197000DF90CF90BF90AF909F908F9008952FB73A
:10198000F8946091014370910243809103439091D8
:1019900004432FBF08950F931F93CF93DF93EC0160
:1019A000EEDF609324457093254580932645909300
:1019B00027458CE195E473DD97FF21C0E0DF0091BE
:1019C0002445109125452091264530912745601BDF
:1019D000710B820B930B00912045109121452091B2
:1019E000224530912345601771078207930708F35A
:1019F00090E080E0DF91CF911F910F91089588834F
:101A000081E090E0F7CF0F931F93B9DF60932445F7
:101A10007093254580932645909327458CE195E466
:101A200052DD97FF1CC0ABDF009124451091254586
:101A30002091264530912745601B710B820B930B3B
:101A40000091204510912145209122453091234558
:101A5000601771078207930708F38FEF9FEF1F91BD
:101A60000F910895CF92DF92EF92FF92CF93CBDF49
:101A7000FC0197FD4BC08D32910521F0C0970A976C
:101A800008F03EC0C12CD12C7601C0E0E130F10558
:101A9000D1F0ED32F105C1F1CF01C0970A9798F46A
:101AA000AAE0B0E0A70196010E94493E6F01FF0F36
:101AB000EE08FF08C60ED71EE81EF91E80E3C81AFE
:101AC000D108E108F1088CE195E4E9DC9CDFFC0138
:101AD000C0970A97D8F2E130F105C1F2CC2341F06A
:101AE000F094E094D094C094C11CD11CE11CF11C72
:101AF000C701B601CF91FF90EF90DF90CF9008958E
:101B00008CE195E4CCDCB3CFC1E0DDCFC12CD12C8E
:101B10007601EECFCF92DF92EF92FF920F931F9359
:101B2000CF93DF93082F10E096E1899FE001112405
:101B3000C759D94B8E819F81A885B985892B8A2B5E
:101B40008B2B99F11CDFCA88DB88EC88FD886C1927
:101B50007D098E099F09CE80DF80E884F984C6164E
:101B6000D706E806F90658F48E859F85A889B989B5
:101B70000196A11DB11D8E879F87A88BB98BFFDEB3
:101B800026E1209FF001219FF00D1124E759F94B28
:101B9000628B738B848B958BDF91CF911F910F910B
:101BA000FF90EF90DF90CF9008958E859F85A88954
:101BB000B9890196A11DB11D8E879F87A88BB98B0E
:101BC000EBCF80E0A7CF81E0A5CFCF92DF92EF925D
:101BD000FF920F931F93CF93DF9380911A4090E071
:101BE00025E0959587952A95E1F7809590958370E6
:101BF0009927C0EFD2E002C0D595C7958A95E2F744
:101C00002091444030914540DE010E94C04028E1CF
:101C10003CEF4FEF5FEF0E942D3E80912342909169
:101C200024420197280F391F2093254230932642E2
:101C300020E030E04AE754E4609128407091294068
:101C400080912A4090912B400E94763D0E945F3FF8
:101C50008E01DD0F220B330B6B017C01C01AD10A00
:101C6000E20AF30AA7019601A8EEB3E00E94493EFA
:101C700068587341810991092091184030911940A9
:101C8000032E000C440B550B0E94593E20931F421B
:101C9000309320424093214250932242DF91CF91D2
:101CA0001F910F91FF90EF90DF90CF900895CF920A
:101CB000DF92EF92FF926B017C01C0922840D0929C
:101CC0002940E0922A40F0922B406091444070916C
:101CD000454090E080E00E94153DA70196010E94DA
:101CE000763D0E945F3F609323427093244220E040
:101CF00034E244E759E4C701B6010E94763D6B0126
:101D00007C016091184070911940072E000C880BDF
:101D1000990B0E94173D9B01AC01C701B6010E94BF
:101D2000F23E0E945F3F6093514370935243809311
:101D3000534390935443FF90EF90DF90CF9045CF63
:101D4000EF92FF920F931F93CF93DF93E0911D4289
:101D5000CE2FD0E07E01EE0CFF1CEE0CFF1CD70155
:101D6000A45DBF4B4D935D936D937C931397B70127
:101D70006050704CDB010D931D932D933C93139792
:101D80009E01275D3B4B91E0D9019C93A82FB0E0C9
:101D9000AE58BB4BEC93EF5FE0931D42F0E0E45E86
:101DA000FF4B8083DF91CF911F910F91FF90EF90B8
:101DB0000895DC01ED91FC91F170FC5E8081089545
:101DC000CF92DF92EF92FF920F931F93CF93DF9307
:101DD00000D0CDB7DEB76C017C0103E010E00983D1
:101DE0001A83CE010196E5DFF70181937F010F5F32
:101DF0001F4F0730110599F7C6010F900F90DF9123
:101E0000CF911F910F91FF90EF90DF90CF900895A9
:101E10000F931F93CF93DF9300D000D0CDB7DEB7E1
:101E20008C0119821A82CE010196C3DF8F34F9F436
:101E300081E090E089839A83CE010196BADF8534F0
:101E4000B1F482E090E089839A83CE010196B1DFFC
:101E50008D3469F481E00115110551F0CE01019630
:101E6000AFDF81E02B813C812017310709F080E052
:101E70002496CDBFDEBFDF91CF911F910F910895C2
:101E80001F93CF93DF93EC01162F93DF8117B1F0EF
:101E90009FB780910210282F227081FDFACFF8940D
:101EA0008DE984BF2093001023E184BF20930010AC
:101EB000E881F981F170FC5E10839FBFCE01DF9154
:101EC000CF911F910895CF92DF92EF92FF920F93DF
:101ED0001F93CF93DF9300D0CDB7DEB76C017C01A9
:101EE00003E010E009831A83F70161917F01CE01BD
:101EF0000196C6DF0F5F1F4F0730110599F7C60126
:101F00000F900F90DF91CF911F910F91FF90EF9065
:101F1000DF90CF9008950F931F93CF93DF9300D05E
:101F2000CDB7DEB70091B9461091BA468091BB4655
:101F30009091BC46081719079CF4C80195718983D4
:101F40009A836FEFCE0101969BDF1092B5461092F7
:101F5000B6468091B3469091B446080F191FE6CF5C
:101F60000F900F90DF91CF911F910F9108958627C9
:101F7000682F62956827062E669566956025062E61
:101F8000669560256770082E892F6695079467957A
:101F9000902D862706946795902586270895DC0165
:101FA000ED91FC910088F189E02D23E030E0099467
:101FB000FB0101900020E9F73197AF01461B570B59
:101FC00032CA6115710509F0F3CF90E080E0089501
:101FD0008F929F92AF92BF92EF92FF920F931F93B7
:101FE000CF93DF93CDB7DEB7A197CDBFDEBF7C0126
:101FF000FA01CB0119A2223008F42AE08E010F5D0C
:102000001F4F822E912CB12CA12CBF01A501940150
:102010000E94593EF901CA016A30CCF4605DD801D2
:102020006E938D01232B242B252B79F7BD01C7013E
:10203000C8DFA196CDBFDEBFDF91CF911F910F9179
:10204000FF90EF90BF90AF909F908F900895695C44
:10205000E6CF6CE671E4ACCF0F931F93CF93DF9381
:10206000EC01DFDB8C01CE01F4DF800F911FDF91EB
:10207000CF911F910F910895CF92DF92EF92FF922F
:10208000CF93DF93AB01BC0177FF19C06A017C01DC
:102090008DE2E5DBEC0144275527BA014C195D09B7
:1020A0006E097F092AE08CE195E492DF8C0F9D1F79
:1020B000DF91CF91FF90EF90DF90CF9008952AE0CD
:1020C0008CE195E4DF91CF91FF90EF90DF90CF907E
:1020D0007FCFBC01990F880B990BCECFCF93DF93A5
:1020E000F8DFEC018CE195E4B4DF8C0F9D1FDF91EC
:1020F000CF9108954F925F926F927F928F929F92AD
:10210000AF92BF92CF92DF92EF92FF920F931F9305
:10211000CF936B017C01742EAC019B010E94624045
:102120006FE671E4811126C046015701E894B7F8C3
:102130002FEF3FEF4FE75FE7C501B4010E94624018
:1021400081110CC02FEF3FEF4FE75FE7C501B401EE
:102150000E94113D63E771E4181664F02FEF3FEF22
:102160004FE75FE4C701B6010E9416401816A4F4B9
:1021700067E771E48CE195E4CF911F910F91FF9097
:10218000EF90DF90CF90BF90AF909F908F907F9017
:102190006F905F904F900CCF2FEF3FEF4FE75FECCA
:1021A000C701B6010E94113D87FDE2CF20E030E07B
:1021B000A901C701B6010E94113D10E000E087FFB0
:1021C00007C08DE24CDB8C01F7FAF094F7F8F0943D
:1021D000C0E060E070E080E09FE37C1641F020E02A
:1021E00030E040E251E40E94F23ECF5FF6CFA7011B
:1021F00096010E948B3E2B013C010E945F3F4B01E8
:102200005C012AE0BC01A4018CE195E4E1DE7C01E3
:10221000E00EF11ECC23C9F1C501B4010E94153DA9
:102220009B01AC01C301B2010E948A3E4B015C01DB
:102230006BE771E48CE195E4BBDEE80EF91EC1505A
:1022400020F120E030E040E251E4C501B4010E94F9
:10225000763D2B013C010E945F3F4B01B12CA12C2C
:102260002AE0B501A4018CE195E4B2DEE80EF91E86
:10227000C501B4010E94153D9B01AC01C301B2012F
:102280000E948A3E4B015C01DACFC701CF911F91BA
:102290000F91FF90EF90DF90CF90BF90AF909F9005
:1022A0008F907F906F905F904F900895CF93DF93C2
:1022B00021DFEC018CE195E4CCDE8C0F9D1FDF91DA
:1022C000CF91089517CFAF92BF92CF92DF92EF9246
:1022D000FF920F931F93CF93DF9300D0CDB7DEB75C
:1022E0006C015B0110E000E00A151B05BCF57801EC
:1022F000EC0CFD1C85E1F822E982FA82CE01019600
:1023000058DD803110F480E3AADA0F5F1F4FE982B5
:10231000FA82CE0101964DDD482F50E070E060E07A
:1023200020E18CE195E454DE65E871E48CE195E40C
:102330003FDEC80187709927892B29F465E871E48D
:102340008CE195E435DEC8018F709927892B61F601
:102350006CE870E18CE195E464DAC6CF0F900F90E1
:10236000DF91CF911F910F91FF90EF90DF90CF9071
:10237000BF90AF900895CF92DF92EF92FF920F93AC
:102380001F93CF93DF936FE670E183EB95E449DA17
:1023900040911B4550E070E060E02AE083EB95E45B
:1023A00017DE62E871E483EB95E402DE40915E4063
:1023B00050E070E060E02AE083EB95E409DE809174
:1023C0001B45882309F453C06BE570E183EB95E46A
:1023D00043DE10E000E080911B458017110609F0F4
:1023E0000CF445C0680183E0CC0CDD1C8A95E1F754
:1023F000F12CE12CC0911945D0911A45CC0DDD1D71
:10240000CE0DDF1D8881803128F469E570E183EB12
:1024100095E407DA488150E070E060E020E183EB6A
:1024200095E4D6DD67E570E183EB95E4FAD98FEFAB
:10243000E81AF80A88E0E816F104E1F6E091194597
:10244000F0911A45EC0DFD1D8681833029F46CE373
:1024500070E183EB95E4E5D983EB95E4FADD65E083
:1024600070E080E090E05ADA0F5F1F4FB4CF83EB4B
:1024700095E4EFDD61E270E183EB95E4D2D98091E0
:1024800018456DE771E4882311F06EE671E483EB83
:1024900095E497DD67E170E183EB95E4DDDD83EBA7
:1024A00095E4D7DD65E070E080E090E0DF91CF91CA
:1024B0001F910F91FF90EF90DF90CF902FCADF9286
:1024C000EF92FF920F931F93CF93DF932091644677
:1024D000211106C0E92ED82E0E94D60981110FC005
:1024E00010926246109264461092634680E0DF913B
:1024F000CF911F910F91FF90EF90DF90089560E0D2
:1025000080EF0E94A509D1E000E0F12CC1E00E941B
:102510008009182F0E9480091130E1F48130C9F53B
:10252000C134F0F2F0926246F11003C081E0809372
:10253000644680915A46882399F2AAE5B6E4ED2DC7
:10254000FE2DCF0108962D912193E817F907D9F7B1
:1025500081E0CDCFE02FF0E0181311C080916246EA
:10256000C817A8F4DF01A95AB94B13968C918D2393
:1025700081F410E0C93010F4C0936346FC2EE95A90
:10258000F94B83819D2F9095892383830AC08C13F7
:10259000F0CFE02FF0E0E95AF94B83818D2B838354
:1025A00011E0812F0E944C09CF5FDD0F11F40F5F06
:1025B000D1E0083008F4ABCFB3CF6DE175E08CE12A
:1025C00095E44ADD67E175E08CE195E42AD98091D4
:1025D000BD468B3209F45AC1863509F45AC18B3590
:1025E00009F45AC190E080E074DD6AE075E08CE1A6
:1025F00095E417D94091BE4650E070E060E02AE0D3
:102600008CE195E4E5DC62E075E08CE195E409D9C4
:102610008091BF468F7390E05CDD6FEF74E08CE1DA
:1026200095E4FFD88091C1468251990B52DD6AEF43
:1026300074E08CE195E410DD6DEE74E08CE195E4DE
:102640000BDD65EE74E08CE195E4EBD86091C24659
:102650007091C3468091C4469091C54642E050E0D7
:1026600025DE69ED74E08CE195E4DBD86091C64627
:102670007091C7468091C8469091C94642E050E0AB
:1026800015DE60ED74E08CE195E4CBD86091CE4628
:102690007091CF468091D0469091D14642E050E073
:1026A00005DE66EC74E08CE195E4BBD86091D2461F
:1026B0007091D3468091D4469091D54642E050E047
:1026C000F5DD6DEB74E08CE195E4ABD86091D64616
:1026D0007091D7468091D8469091D94642E050E01B
:1026E000E5DD63EB74E08CE195E49BD86091DA461C
:1026F0007091DB468091DC469091DD4642E050E0EF
:10270000D5DD6AEA74E08CE195E48BD86091DE4611
:102710007091DF468091E0469091E14642E050E0C2
:10272000C5DD60EA74E08CE195E47BD86091E24617
:102730007091E3468091E4469091E54642E050E096
:10274000B5DD67E974E08CE195E46BD86091E6460D
:102750007091E7468091E8469091E94642E050E06A
:10276000A5DD6DE874E08CE195E45BD86091EA4604
:102770007091EB468091EC469091ED4642E050E03E
:1027800095DD64E874E08CE195E44BD86091EE4609
:102790007091EF468091F0469091F14642E050E012
:1027A00085DD6AE774E08CE195E43BD86091F24600
:1027B0007091F3468091F4469091F54642E050E0E6
:1027C00075DD61E774E08CE195E42BD86091F64605
:1027D0007091F7468091F8469091F94642E050E0BA
:1027E00065DD67E674E08CE195E41BD86091FA46FC
:1027F0007091FB468091FC469091FD4642E050E08E
:1028000055DD6CE574E08CE195E40BD86091FE46F3
:102810007091FF46809100479091014742E050E05F
:1028200045DD62E574E08CE195E40E94110C809135
:10283000024790E053DC62E474E08CE195E40E948E
:10284000110C809103479091044748DC8091C04669
:1028500066E274E0882311F06DE274E08CE195E4A7
:10286000FBDB63E374E08CE195E40E94110C809142
:10287000054790E033DC80911F4767E074E08823D0
:1028800011F067E174E08CE195E4E6CB81EB91E037
:10289000ABCE84E693E0A8CE83E993E0A5CE0F9378
:1028A0001F93CF93DF93893208F07CC090E0DC0166
:1028B000A952BF4B2C912F3F09F474C08C010050DA
:1028C0001F4BE801E881D0E2ED9FF0011124FC5F8D
:1028D000611133C0268330812323AC01475D5E4BF9
:1028E000211111C0EA012881309749F1283038F5CB
:1028F0007096E20FF11D3FB7F8942081611122C05C
:10290000277F20833FBFFA0130813F3F09F44AC04F
:10291000E8012881363058F53091E605432F47709D
:10292000241312C0EC91E53008F0EE0F8091010AFB
:10293000E095E823E093010A35C02583CCCFF0E091
:10294000E0E0D9CF2860DDCF387169F4213079F427
:10295000EC91E53008F0EE0F8091410AE095E82314
:10296000E093410A1FC0383111F4263089F38255B3
:102970009F4BFC01808185FF13C030E1839FF001F4
:102980001124F75F91819770973061F4EC91853253
:1029900070F4803298F48830E1F2803121F202C084
:1029A0008111F4CFDF91CF911F910F910895803461
:1029B00071F08038B9F71092A006F4CF90E1899FAA
:1029C000F0011124F75F81818F7E8183EBCF8091AD
:1029D000920B8E2339F3C0E22C9F900111243C5FAF
:1029E000E83030F5205F3F4FE20FF32FF11D4FB776
:1029F000F8949091800B9E7F9093800B90918E0B1A
:102A000090FFFCCF2091920B90E08095909530E064
:102A10008223932328ED24BF8093920B8091800B17
:102A200081608093800B80818F7780834FBFBACF86
:102A3000F0E0E0E0DCCF0F931F93CF93DF93CDB7AF
:102A4000DEB72897CDBFDEBF2091194530911A45DA
:102A5000232B31F02091074330910843232B61F45D
:102A60001092184510921B452896CDBFDEBFDF910E
:102A7000CF911F910F910895182F80915F400E9470
:102A8000F20810931845112309F495C020E030E0B6
:102A900040E85FE3609128407091294080912A408E
:102AA00090912B400E94113D87FF03C08FE18093DE
:102AB0001A4000911A4090915E40E0910743F091D6
:102AC000084380E020E335E7981721F02193319304
:102AD0008F5FFACF1092624610926446109263465E
:102AE000109261461092604610925F4610925E46C8
:102AF00010925D4610925C4610925B4610925A46C8
:102B000010921B45CE010196DADC882349F08981B9
:102B10008832C1F780911B458F5F80931B45F2CFB0
:102B200080915E4090911B45891710F480931B455E
:102B3000E0911945F0911A4580818832A1F010E0AA
:102B400080911B45181778F428E0129FC0011124CA
:102B50002091194530911A45820F931FB0DC8823CC
:102B600011F01F5FEDCF0E94D60960E08CEC0E944F
:102B7000A50960E08EE40E94A50960E080E00E9463
:102B8000A50960E080E00E94A50960E0802F0E9416
:102B9000A5090E94D60960E08CEC0E94A50961E0BD
:102BA00088E40E94A50964E170E080E090E00E9462
:102BB0008E0C0BD859CF8091274087FDFACF8932F0
:102BC000A4F4282F082E000C330BF901E952FF4B17
:102BD00090819F3F51F020503F4BD901EC91B0E2E2
:102BE000EB9FF0011124FC5F918360E058DE80913F
:102BF00027408932F0F690E0FC01E952FF4B20813A
:102C00002F3FB9F2FC01E050FF4BA081E0E2AE9F04
:102C1000D0011124BC5F875D9E4BFC013081F0E048
:102C2000E0E0383028F4CD014096FC01E30FF11DBF
:102C30009FB7F89412962C938081877F80839FBFE3
:102C4000B8CF0F931F93CF93DF93CDB7DEB72C97F9
:102C5000CDBFDEBF681BF1F0062F10E0682F70E0DB
:102C600068527B4BA801CE0101960E94DA40E1E058
:102C7000F0E0EC0FFD1FE00FF11F1082CE01019676
:102C80000E94773B2C96CDBFDEBFDF91CF911F9185
:102C90000F91089590E080E0F5CF0F931F93CF93AD
:102CA000DF93CDB7DEB72C97CDBFDEBF681BF1F049
:102CB000062F10E0682F70E068527B4BA801CE0110
:102CC00001960E94DA40E1E0F0E0EC0FFD1FE00F1A
:102CD000F11F1082CE0101960E94743B2C96CDBF4D
:102CE000DEBFDF91CF911F910F91089560E070E0FA
:102CF000CB01F4CF4F925F926F927F928F929F920F
:102D0000AF92BF92CF92DF92EF92FF92CF93DF9379
:102D1000C82FE0901840F0901940609144407091A5
:102D2000454090E080E00E94153D2B013C018091E0
:102D30004A4090914B4001968E9DB0018F9D700D41
:102D40009E9D700D1124072E000C880B990B0E947C
:102D5000173D2BED3FE049EC50E40E94763DA30186
:102D600092010E94763D20E034E244E759E40E945B
:102D7000F23E4B015C01D0E0CE0101968E9DB00188
:102D80008F9D700D9E9D700D1124072E000C880BD9
:102D9000990B0E94173DA30192010E94763D20E00D
:102DA00034E244E759E40E94F23E6B017C01CC0F0F
:102DB000DD1FCC0FDD1FFE01E050F04C20E030E0C5
:102DC00044EB53E460817181828193810E94F23EE1
:102DD0009B01AC01C701B6010E948B3E2BED3FE089
:102DE00049EC50E40E94763D2B013C010E941A40C0
:102DF0006B017C01C501B4010E941A409B01AC012A
:102E0000C701B6010E94F23E6B017C01FE01EF5D3D
:102E1000FC4BC082D182E282F382C301B2010E94E4
:102E2000EF3E2B013C01C501B4010E94EF3E9B0126
:102E3000AC01C75CDC4BC701B6010E94763D9B012B
:102E4000AC01C301B2010E948A3E688379838A8300
:102E50009B83DF91CF91FF90EF90DF90CF90BF9059
:102E6000AF909F908F907F906F905F904F9008955C
:102E7000CF938093444090934540BC0190E080E024
:102E80000E94153D209128403091294040912A40D0
:102E900050912B400E94763D0E945F3F60932342F9
:102EA000709324420E94E50DC0E080914A409091C9
:102EB0004B40C817190624F48C2F1CDFCF5FF5CFC9
:102EC000CF9108954F925F926F927F92AF92BF928F
:102ED000CF92DF92EF92FF920F931F93CF93DF93E6
:102EE000E82FCB01BA0168017901F0E0EE58FB4B05
:102EF000108124E0129FE0011124FE01E45DFF4BEC
:102F00005F01209123403091244040912540509111
:102F100026400E94763D2B013C01609167467091EE
:102F2000684690E080E00E94153D9B01AC01C30122
:102F3000B2010E94F23EF501608371838283938324
:102F4000C050D04CC882D982EA82FB82812FDF91A7
:102F5000CF911F910F91FF90EF90DF90CF90BF9096
:102F6000AF907F906F905F904F90C4CE2F923F9222
:102F70004F925F926F927F928F929F92AF92BF9289
:102F8000CF92DF92EF92FF920F931F93CF93DF9335
:102F9000CDB7DEB72697CDBFDEBF84E08093210496
:102FA00061E08AE07CDC9FB7F89480E180930204C2
:102FB000809114048860809314049FBF9FB7F89495
:102FC00080E2809302048091150488608093150448
:102FD0009FBF40E052EC61E070E08CE195E40E941C
:102FE000CF0F8091080484FD05C08091BF468F5F9C
:102FF0008093BF4662EE73E08CE195E40E94110C71
:1030000068E971E48CE195E40E94E10F6CEC73E0F7
:103010008CE195E421D886E190E00E94080F882396
:1030200041F1CE0101960E94E00E09811A8117FD3F
:1030300020C0680123E0C20ED11C3DEBE32E36E434
:10304000F32E87E090E05C013FEFA31AB30A8D8373
:103050009E83CE0105960E94D90EF70181937F01D0
:10306000C501AC14BD0478F36EE573E004301105BE
:1030700011F46DE473E08CE195E40E942C109DDA6C
:103080008091C046882309F45AC063EC73E08CE158
:1030900095E40E94110C6BEB73E08CE195E40E94C7
:1030A000110C8091BD468B3231F464EB73E08CE1FE
:1030B00095E40E94110C8091BD46863531F46DEA8D
:1030C00073E08CE195E40E94110C8091BD468B3534
:1030D00031F466EA73E08CE195E40E94110C6DE92D
:1030E00073E08CE195E40E94110C4091BE4650E0E3
:1030F00070E060E02AE08CE195E40E94E80F65E969
:1031000073E08CE195E40E94110C4091BF4650E0C1
:1031100070E060E02AE08CE195E40E94E80F63E94A
:1031200073E08CE195E40E942C1060EA71E48CE17C
:1031300095E40E94D80F8CE195E40E9429108091BB
:10314000080485FD03C081E080931C428091C04645
:10315000882309F4D0C021E0209365471091BE4632
:103160008091BF4680936347F0E11F9FC001112407
:10317000812734E0839FA00111248427807C8093E1
:10318000644780E2809321042093410484E080938B
:1031900041040E947E088091E405837F8093E405CA
:1031A00080916109846080936109809160098162E6
:1031B000809360090E94BF0C6B017C016AEA8FE278
:1031C0000E9494088FE20E948A088A3A59F00E946D
:1031D000BF0C6C197D098E099F0962337105810549
:1031E000910560F30E94BF0C6B017C0165E58FE2E5
:1031F0000E9494088FE20E948A08853559F00E9447
:10320000BF0C6C197D098E099F0962337105810518
:10321000910560F380916547813009F0EAC181E949
:1032200090E40E94B60881E990E40E94B6086CE63A
:1032300087E00E94940860E888E00E94940860E0BB
:1032400089E00E949408612F80E30E94940869E954
:1032500081E10E94940884E00E949D080E94BF0CB6
:103260006B017C0187E20E948A0887FD0BC00E94E7
:10327000BF0C6C197D098E099F09623371058105A8
:10328000910580F30E94BF0C809165478130E9F081
:1032900084E00E949D080E947C088EEB0E948008BA
:1032A00007E811E4F80181918F010E948008F1E4A0
:1032B00007391F07B9F70E947E088DE30E948A082C
:1032C000682F61608DE30E9494082091BF4634E12D
:1032D000239F8001112460E070E0CB0101151105EE
:1032E00041F00E941F3B9801110F440B550B0E94A7
:1032F0002D3E0E948E0C8EE0809305068091030681
:10330000809303061092B00086E08093020681E06D
:1033100080930006809100068093000687E08093EA
:10332000080660E070E0CB0150E040E021E020932F
:103330000A0630910D0630FFFCCF4A30510544F0AB
:10334000E0911006F09111066E0F7F1F811D911DF7
:103350004F5F5F4F4A31E7E25E0749F70E94153D34
:1033600020E030E44CE156E40E94F23E20E030EFF1
:103370004FE755E40E94F23E9B01AC0166E676E61B
:1033800086E69FE30E94F23E6B017C0163E773E0F7
:103390008CE195E40E94110C44E050E0C701B601B5
:1033A0000E9456118CE090E08093604090936140C1
:1033B0008DE190E0809318409093194080E090E177
:1033C000809367469093684680E890E080936546D6
:1033D00090936646C0922340D0922440E0922540CC
:1033E000F09226408091C2469091C346A091C44677
:1033F000B091C54610921C40809346409093474040
:10340000A0934840B09349400091D2461091D346D2
:103410002091D4463091D5464091CE465091CF462A
:103420006091D0467091D14683E00E94A00E009139
:10343000DA461091DB462091DC463091DD46409122
:10344000D6465091D7466091D8467091D94684E0CF
:103450000E94A00E0091E2461091E3462091E446BE
:103460003091E5464091DE465091DF466091E0465E
:103470007091E14685E00E94A00E0091EA4610910D
:10348000EB462091EC463091ED464091E646509156
:10349000E7466091E8467091E94686E00E94A00EFA
:1034A0000091F2461091F3462091F4463091F54692
:1034B0004091EE465091EF466091F0467091F14692
:1034C00088E00E94A00E0091FA461091FB462091E0
:1034D000FC463091FD464091F6465091F74660918A
:1034E000F8467091F94689E00E94A00E80911C4236
:1034F000882319F08CE390E0BBDC6091FE4670916C
:10350000FF4680910047909101470E94570E80919D
:10351000C6469091C746A091C846B091C9468093CF
:103520004C4090934D40A0934E40B0934F408091BB
:1035300002478093694681E080936A4686E08093E3
:103540006D4680936E468091034790910447092E03
:10355000000CAA0BBB0B80936F4690937046A09310
:103560007146B09372468CE080935F408BE080930D
:10357000274088E08093210461E08BE090D98FE5BB
:1035800080931A4086E097E48093194590931A45FA
:10359000109206478EE994E4809307439093084382
:1035A00083E080935E40E090B546F090B646E1142B
:1035B000F10409F4AAC087010F5F1F4F25E9C22E4D
:1035C00026E4D22E8091B3469091B4468E0D9F1D75
:1035D00008171907C4F4C801957189839A83CE012D
:1035E00001960E94D90EF60181936F010F5F1F4F64
:1035F000E9CF823009F01BCE86E690E40E94B6083F
:1036000086E690E412CE0091954610919646209160
:103610009746309198468091994690919A46A0910C
:103620009B46B0919C4640909D4650909E4660902F
:103630009F467090A0468090A1469090A246A09090
:10364000A346B090A4462090A5463090A646F0919F
:10365000A746E091A846C090A946D090AA46E0901F
:10366000AB46F090AC46722D632DAF0100933D4404
:1036700010933E4420933F44309340448093414410
:1036800090934244A0934344B093444440924544B1
:103690005092464460924744709248448092494414
:1036A00090924A44A0924B44B0924C4420924D4494
:1036B00030924E44F0934F44E0935044C0925144B2
:1036C000D0925244E0925344F09254447093734623
:1036D00060937446509375464093764680910547B3
:1036E000AAD980911D42882341F1282F30E02093F0
:1036F0004A4030934B408F5F90E08630F0F4FC01FD
:10370000E75DFB4B10820196F8CF00E010E09801D6
:1037100080E090E0DC01412C512C3201812C912C75
:103720005401212C312CF0E0E0E0C12CD12C7601A9
:1037300070E060E050E040E099CF4090234050902E
:1037400024406090254070902640609167467091BB
:10375000684690E080E00E94153D4B015C0120919D
:103760004640309147404091484050914940C30104
:10377000B2010E94763DA50194010E94F23E609341
:1037800046407093474080934840909349408CE274
:10379000E82E80E4F82E99E0C92E93E4D92E10E0AB
:1037A00000E080914A4090914B400817190714F5AA
:1037B000F70121913191419151917F011F01F4E075
:1037C0002F1A3108C301B2010E94763DA501940170
:1037D0000E94F23EF1016083718382839383802F84
:1037E00089DAF60111921192119211926F010F5F15
:1037F0001F4FD7CF81EE9DE080936B4690936C4630
:1038000083EE9DE0809381469093824681E0809391
:103810001B401092FC421092FD421092FE42109208
:10382000FF429EE090930506909103069093030655
:103830001092B00096E0909302068093000690915B
:103840000006909300069091000692609093000607
:103850001092080690910C06916090930C0680934C
:103860000A067894C0902840D0902940E0902A40E1
:10387000F0902B40609144407091454090E080E092
:103880000E94153DA70196010E94763D0E945F3F70
:10389000609323427093244210922F4420E034E23C
:1038A00044E759E4C701B6010E94763D6B017C01F3
:1038B0006091184070911940072E000C880B990BED
:1038C0000E94173D9B01AC01C701B6010E94F23E68
:1038D0000E945F3F609351437093524380935343E0
:1038E0009093544309E616E4F12CF8018081882373
:1038F000A1F18481893228F590E0FC01E952FF4B67
:1039000020812F3FF1F0FC01E050FF4BA081F0E25D
:10391000AF9FD0011124BC5F875D9E4BFC013081BD
:10392000F0E0E0E0383028F4CD014096FC01E30FF0
:10393000F11D9FB7F89412962C9380818860808344
:103940009FBF63EE7DE080918446F11004C061EE7C
:103950007DE080916E460E94C3080A5E1F4FF1E031
:10396000FF1226C01092A4441092A5441092A644BF
:103970001092A7440E94BB1160E070E080E090E4E8
:103980000E94570E2696CDBFDEBFDF91CF911F91CB
:103990000F91FF90EF90DF90CF90BF90AF909F90EE
:1039A0008F907F906F905F904F903F902F900895F1
:1039B000FF24F3949ACFEF93FF93ECE1F5E415C065
:1039C000EF93FF93ECE1F5E43FC0EF93E0E660C0D6
:1039D000EF93FF93E3EBF5E408C0EF93FF93E3EB82
:1039E000F5E432C0EF93E0E053C02F932FB72F934D
:1039F0008F939F93AF93BF936894CF93DF9320E00F
:103A0000C485D8E09689DF01A90FB21FA95ABF4F1C
:103A10008C9120E42C838A839F5F9F738D812589FD
:103A2000291302C08F7D8D83968BDF91CF9116F085
:103A30000C94C40BBF91AF919F918F912F912FBF89
:103A40002F91FF91EF9118952F932FB72F938F936D
:103A50009F93CF93DF93C485D8E08981988181FDBE
:103A60000DC0C38981E08C0F8F732489281731F032
:103A7000CE0FDF2F20E0D21F9F8B838BDF91CF9162
:103A80009F918F912F912FBF2F91FF91EF911895BB
:103A9000FF938F938FB78F93F8E08081848187FFA6
:103AA000FCCF85818F7B806885838F918FBF8F91BD
:103AB000FF91EF9118951F920F920FB60F9211245C
:103AC0008F939F93AF93BF93809101439091024353
:103AD000A0910343B09104430196A11DB11D8093B1
:103AE000014390930243A0930343B093044381E0C6
:103AF0008093260BBF91AF919F918F910F900FBE36
:103B00000F901F9018950F930AE00FC00F9308E0D5
:103B10000CC00F9306E009C00F9304E006C00F939A
:103B200002E003C00F9300E000C00F920FB60F92A7
:103B30000BB60F921F921124FF921F932F933F9366
:103B40004F935F936F937F938F939F93AF93BF93A5
:103B5000CF93DF93EF93FF93A0E5B0E4A00FB11DE7
:103B6000CD91DC91000F0D5FA02FB0E0FC9010977D
:103B700061F01F2D169518F041F02296FBCFE991C8
:103B8000F9913097B9F30995F5CFA02FB0E0FC92E9
:103B9000FF91EF91DF91CF91BF91AF919F918F9165
:103BA0007F916F915F914F913F912F911F91FF9066
:103BB0001F900F900BBE0F900FBE0F900F91189596
:103BC0001F920F920FB60F9211240BB60F922F92E5
:103BD0003F924F925F926F927F928F929F92AF929D
:103BE000BF92CF92DF92EF92FF920F931F932F938A
:103BF0003F934F935F936F937F938F939F93AF9375
:103C0000BF93CF93DF93EF93FF9381E080930D06F3
:103C10004090100650901106C0910043E2E0EC0F76
:103C200020914A4030914B40E217130621F01CF0DE
:103C3000E1E0EC0FE21BF0E0E45EFF4B808180935B
:103C400008068091FC429091FD42A091FE42B09105
:103C5000FF420196A11DB11D8093FC429093FD424D
:103C6000A093FE42B093FF42C1113DC48091FA423D
:103C70009091FB428093F8429093F942809167467D
:103C80009091684696958795481A590A4092FA424B
:103C90005092FB428091F6429091F742AC015695CA
:103CA000479556954795841B950BA20157FE04C076
:103CB0004427552744195509840F951F8093F642D0
:103CC0009093F742E0916546F091664641E0E8172F
:103CD000F90708F040E040935544141415040CF023
:103CE0008EC041E050E04093F4425093F542A091E1
:103CF000F442B091F5424091DE425091DF42A41768
:103D0000B50709F481C060911E426F5F60931E4247
:103D100060911E42633030F010921E42A093E04248
:103D2000B093E14260912942611110922942609062
:103D3000E0427090E142E817F90708F06BC281E0B9
:103D40006816710409F0C2C14130510509F4C4C1BB
:103D50008091274290912842019680932742909328
:103D6000284240911B40442309F471C00A9708F48B
:103D70006EC010921B401092274210922842C2EA55
:103D8000D2E4A2E7B2E462E472E44AE252E490E0F0
:103D900080E082179307DCF5188219821A821B8251
:103DA0001C821D821E821F8228961C9211961C92D4
:103DB000119712961C92129713961C9213971496B1
:103DC0001C92149715961C92159716961C9216978E
:103DD00017961C9217971896FB0110821182128277
:103DE00013821482158216821782685F7F4FFA0150
:103DF0001192119211921192AF010196CACF1092B5
:103E0000F4421092F54273CF10921E4281CF10926D
:103E1000E6421092E7421092E8421092E942109274
:103E2000EA421092EB421092EC421092ED42109254
:103E3000E2421092E3421092E4421092E542109264
:103E4000F0421092F1421092F2421092F3428091AD
:103E50002742909128424091254250912642841752
:103E6000950739F440911B40411103C041E0409354
:103E7000304440912342509124428417950708F41E
:103E80002BC180911B40811127C1109227421092B3
:103E90002842C2EAD2E4A2E7B2E412E4212E12E4FC
:103EA000312E6AE272E450E040E0421753070CF012
:103EB0009BC088809980AA80BB80CC80DD80EE800A
:103EC000FF802896CA01E3E0880F991FEA95E1F781
:103ED0008C0107501C4BF80180829182A282B38230
:103EE000C482D582E682F7828C9011969C901197BD
:103EF0001296AC9012971396BC9013971496CC9090
:103F000014971596DC9015971696EC9016971796C1
:103F1000FC90179718968C0107531C4BF801808270
:103F20009182A282B382C482D582E682F7828E0118
:103F300008501109F8011082118212821382148232
:103F40001582168217828D0108501109F80110821E
:103F50001182128213821482158216821782F10155
:103F600080809180A280B380C480D580E680F78075
:103F7000F8E02F0E311C8C0107561C4BF801808293
:103F80009182A282B382C482D582E682F7828101C5
:103F900008501109F80110821182128213821482D2
:103FA000158216821782FB0181909190A190B190A9
:103FB000BF0175016401FF0CCC08DC2C7601875928
:103FC0009C4BFC0180829182A282B382C482C58212
:103FD000C682C782CB010497FC0110821182128233
:103FE00013824F5F5F4F61CF8091E2429091E34235
:103FF000A091E442B091E542AC01BD01770F440BC2
:10400000542FBA018093554390935643A09357433E
:10401000B09358434093594340935A4340935B4372
:1040200040935C437091E6426091E7425091E842D0
:104030004091E9423091EA422091EB429091EC426A
:104040008091ED4270936143609362435093634368
:104050004093644330936543209366439093674352
:10406000809368431092E6421092E7421092E84231
:104070001092E9421092EA421092EB421092EC4206
:104080001092ED421092E2421092E3421092E4420A
:104090001092E5428091F0429091F142A091F2425B
:1040A000B091F34280935D4390935E43A0935F434E
:1040B000B09360431092F0421092F1421092F2429B
:1040C0001092F34281E080932F4406C0452B21F0EB
:1040D0001092EE421092EF428091F0429091F142A4
:1040E000A091F242B091F3420196A11DB11D8093BF
:1040F000F0429093F142A093F242B093F342809148
:10410000EE429091EF4201968093EE429093EF42FF
:104110009201D2010E94BA406B017C01FF0CCC08D5
:10412000DC2C76019B01AC016C2D7C2D8C2D9C2D03
:10413000A090E642B090E742C090E842D090E942B9
:10414000E090EA42F090EB420091EC421091ED4297
:104150000E94C6402093E6423093E7424093E842F3
:104160005093E9426093EA427093EB428093EC42B1
:104170009093ED42C201550CAA0BBB0B4091E24259
:104180005091E3426091E4427091E542840F951FA3
:10419000A61FB71F8093E2429093E342A093E442AC
:1041A000B093E5426092DE427092DF42809100431C
:1041B0008F5F8093004320914A4030914B4082179B
:1041C000130619F014F010920043FF91EF91DF9164
:1041D000CF91BF91AF919F918F917F916F915F919F
:1041E0004F913F912F911F910F91FF90EF90DF9092
:1041F000CF90BF90AF909F908F907F906F905F9087
:104200004F903F902F900F900BBE0F900FBE0F90CE
:104210001F9018954091FC425091FD426091FE42E2
:104220007091FF4280911F4290912042A0912142C3
:10423000B091224284179507A607B70748F48091EA
:104240000643811105C081E080933044809306438A
:104250004091FC425091FD426091FE427091FF42BC
:104260008091514390915243A0915343B091544354
:1042700084179507A607B70708F02ECF1092FC42C7
:104280001092FD421092FE421092FF4281E0809314
:104290001B401092274210922842C2EAD2E412E751
:1042A000212E12E4312EE2E4F2E46AE272E450E0FC
:1042B00040E0421753070CF0C5C0CA01A3E0880FC5
:1042C000991FAA95E1F78C0107501C4BD8011C924D
:1042D00011961C92119712961C92129713961C928B
:1042E000139714961C92149715961C921597169670
:1042F0001C92169717961C928C0107531C4BD801E1
:104300001C9211961C92119712961C92129713965A
:104310001C92139714961C92149715961C9215973D
:1043200016961C92169717961C92188219821A825A
:104330001B821C821D821E821F822896D1011C9224
:1043400011961C92119712961C92129713961C921A
:10435000139714961C92149715961C9215971696FF
:104360001C92169717961C92B8E02B0E311C808079
:104370009180A280B380C480D580E680F780389693
:104380008C0107561C4BD8018C9211969C92119768
:104390001296AC9212971396BC9213971496CC92E5
:1043A00014971596DC9215971696EC921697179619
:1043B000FC927F01B8E0EB1AF108D7011C9211962C
:1043C0001C92119712961C92129713961C92139797
:1043D00014961C92149715961C92159716961C927B
:1043E000169717961C92DB018D909D90AD90BD9015
:1043F000BD0175016401FF0CCC08DC2C76018759E6
:104400009C4BDC018C9211969C9211971296AC9267
:1044100012971396BC9213971496CC9214971596F4
:10442000CC9215971696CC9216971796CC92CB01F4
:104430000497DC011D921D921D921C9213974F5FF1
:104440005F4F37CF7091E6426091E7425091E8426A
:104450004091E9423091EA422091EB429091EC4246
:104460008091ED4270936143609362435093634344
:10447000409364433093654320936643909367432E
:10448000809368431092E6421092E7421092E8420D
:104490001092E9421092EA421092EB421092EC42E2
:1044A0001092ED428091E2429091E342A091E44269
:1044B000B091E542AC01BD01770F440B542FBA0116
:1044C0008093554390935643A0935743B0935843DA
:1044D0004093594340935A4340935B4340935C431A
:1044E000D1CD1082B0C0D0E02C173D070CF45ECEC9
:1044F0002197FE01E75DFB4B1E01220C331CB6E049
:104500004B16510474F381E080838091674690914B
:10451000684696958795F101EE52FD4B608071805B
:10452000681A790A4E0133E0880C991C3A95E1F734
:10453000F401EE55FD4BA091F842B091F942930180
:104540000E94BA406B017C01FF0CCC08DC2C760188
:104550009B01AC016C2D7C2D8C2D9C2DA080B180FD
:10456000C280D380E480F580068117810E94C64016
:104570002083318342835383648375838683978347
:10458000F401EE58FD4BA091FA42B091FB42930129
:104590000E94BA406B017C01FF0CCC08DC2C760138
:1045A0009B01AC016C2D7C2D8C2D9C2DA080B180AD
:1045B000C280D380E480F580068117810E94C640C6
:1045C00020833183428353836483758386839783F7
:1045D000F401EE5BFD4B9301D3010E94BA406B01E5
:1045E0007C01FF0CCC08DC2C76019B01AC016C2D0E
:1045F0007C2D8C2D9C2DA080B180C280D380E48046
:10460000F580068117810E94C64020833183428352
:1046100053836483758386839783CC0FDD1FCC0F10
:10462000DD1FC65DDD4BC301770CAA0BBB0B4881B8
:1046300059816A817B81840F951FA61FB71F8883CC
:104640009983AA83BB83F101EE52FD4B40825182D4
:10465000ADCDCF92DF92EF92FF920F931F93CF9346
:10466000DF9300D0CDB7DEB710921E4510921F45E4
:10467000F8EECF2EF3E0DF2EE12CF12CC092204596
:10468000D0922145E0922245F092234546E551E43F
:1046900040931C4550931D4580E698E08093284543
:1046A000909329458EE890E180932A4590932B457D
:1046B00082E080932C4510922D4510922E45109249
:1046C000B5451092B645C092B745D092B845E09234
:1046D000B945F092BA454093B3455093B44540E094
:1046E00058E04093BF455093C04547E950E140939F
:1046F000C1455093C2458093C3451092C445109262
:10470000C54540E05BE167EB70E080E08F5F86309D
:1047100011F487E00BC07695679557954795413022
:1047200099E059079DE36907710580F794E090933C
:104730005646482F4095242F217030E044E0220F48
:10474000331F4A95E1F731E08162822B8093554611
:1047500040E459E040934A4650934B4690934D466F
:1047600086E080934E461092504610925146109229
:10477000694610926A4623E020936D4630936E4658
:104780008EE690E0A0E0B0E080936F469093704694
:10479000A0937146B093724610927346109274467D
:1047A000109275461092764610927746109278468F
:1047B0001092794610927A4610927F461092804667
:1047C0002093834630938446809385469093864613
:1047D000A0938746B09388461092894610928A46E5
:1047E00010928B4610928C4610928D4610928E46F7
:1047F00010928F461092904681E090E000906040C9
:1048000002C0880F991F0A94E2F78093674690933D
:10481000684655E0969587955A95E1F780936546E9
:104820009093664680915F400E94F2088EEF90E080
:104830008093B7469093B8468DE190E08093B3465D
:104840009093B4468DE090E08093B1469093B24649
:1048500086E890E08093B9469093BA468FEF91E056
:104860008093BB469093BC461092B5461092B646D4
:1048700006E810E009831A83CE0101960E94D90E42
:1048800078019DE1E90EF11C8F3F09F4E3C000932C
:10489000B5461093B6468FEFE81681E0F8065CF453
:1048A000E982FA82CE0101960E94D90E8F3F09F467
:1048B000CDC00E948B0F82E0809365478BE280938E
:1048C000BD4682ED8093BE468FE08093BF4621E0D7
:1048D0002093C04689E18093C1468AE097EFA9E41E
:1048E000B4E48093C2469093C346A093C446B09369
:1048F000C54680E090E0A0E7B3E48093C64690937D
:10490000C746A093C846B093C94680E090E0A8E4AB
:10491000B2E48093CA469093CB46A093CC46B09322
:10492000CD4686E696E2A6E9B3E48093CE46909320
:10493000CF46A093D046B093D1468DEC9CECACE42E
:10494000B0E48093D2469093D346A093D446B093DC
:10495000D54646E656E266E173E44093D646509368
:10496000D7466093D8467093D9468093DA469093A1
:10497000DB46A093DC46B093DD464093DE46509381
:10498000DF466093E0467093E1468093E246909361
:10499000E346A093E446B093E54641E75DE360E774
:1049A00072E44093E6465093E7466093E84670937E
:1049B000E9468093EA469093EB46A093EC46B09389
:1049C000ED464093EE465093EF466093F046709369
:1049D000F1468093F2469093F346A093F446B09349
:1049E000F5464093F6465093F7466093F846709329
:1049F000F9468093FA469093FB46A093FC46B09309
:104A0000FD468DEC9CECACE1B1E48093FE469093C6
:104A1000FF46A0930047B09301472093024784E6E6
:104A200090E08093034790930447209305471092AA
:104A30001E4710921F470F900F90DF91CF911F914B
:104A40000F91FF90EF90DF90CF9008959DE1E90ED8
:104A5000F11C21CF87018FEFE81681E0F80609F0FD
:104A600009CF29CFCF93DF93CDB7DEB7CB5BD10989
:104A7000CDBFDEBF88ED94E284BF9093680021E053
:104A80002093030A8EEF8093260A8093270A9BE0E7
:104A90009093000A32E03093E6052093430A809316
:104AA000660A8093670A9093400A9093E705E0E0D6
:104AB000FBE027E09EEF85E02183948715868083C5
:104AC0007096E0343BE0F307B9F72FEF3FE0209317
:104AD000AA0B3093AB0B90E89093820B1092810B52
:104AE0002BEF33E02093AE0B3093AF0B91E7909315
:104AF000800B809302069EE09093050690E69093CB
:104B00000306809300068091B000887F85608093C3
:104B1000B0008091B200887F85608093B2008FEDF5
:104B20009EE280932C0B90932D0B81E08093250BBC
:104B30001092210B83E08093200B78940E94B6178B
:104B40001E0145E3240E311CBE01665F7F4F6FAB33
:104B500078AF8CE195E40E94710A892B09F498C022
:104B60008CE195E40E944F0AD09005438A3009F009
:104B70006EC5AD2DB0E0A852BB4B1C92E091D8445D
:104B8000EF53EC3308F07CC00E2E000CFF0BE55306
:104B9000FA4D0C94B1400E2B40264026402640266C
:104BA00040264026402640264026402640264026D5
:104BB00040264026402640264026402640264026C5
:104BC00040264026402640264026402640264026B5
:104BD00040264026402640264026402607263326EB
:104BE000FF2614271D27342740262029EF264F278C
:104BF000B428BD28202940263A29402650297F295B
:104C0000502A4026B02ABC2AD22A4026D92A72E04D
:104C1000D71236C089ED94E40E94773B843071F45A
:104C20008BE28093BD4681EB91E00E9469106FE6B4
:104C30007EE08CE195E40E942C1022C0883069F05F
:104C4000893029F01092BD4690E080E0EECF8BE5F0
:104C50008093BD4683E993E0E8CF86E58093BD4627
:104C600084E693E0E2CF82E0D8120AC089ED94E4B2
:104C70000E94773B019709F0AFC081E080931E4707
:104C800080E4A8EDB4E41D928A95E9F710920543FB
:104C900080913044882369F1109230448091184506
:104CA000882339F18091274087FD19C08932A4F407
:104CB000282F082E000C330BF901E952FF4B90818D
:104CC0009F3F51F020503F4BD901EC91B0E2EB9F58
:104CD000F0011124FC5F918361E00E944F140E9457
:104CE000D60960E08CEC0E94A50961E084E40E9492
:104CF000A50980912F44882311F40C943738109221
:104D00002F44F89420914A4030914B4090E080E04D
:104D1000821793070CF0A8C4FC01E75DFB4B4081B0
:104D2000411158C0FC0173E0EE0FFF1F7A95E1F7C7
:104D3000DF01A750BC4B1C9211961C921197129642
:104D40001C92129713961C92139714961C92149708
:104D500015961C92159716961C92169717961C92EC
:104D6000DF01A753BC4B1C9211961C92119712960F
:104D70001C92129713961C92139714961C921497D8
:104D800015961C92159716961C92169717961C92BC
:104D9000DF01A756BC4B1C9211961C9211971296DC
:104DA0001C92129713961C92139714961C921497A8
:104DB00015961C92159716961C92169717961C928C
:104DC000E759FC4B108211821282138214821582E1
:104DD0001682178201969CCF10921E4751CF92E007
:104DE000D9124ECF89ED94E40E94773B019721F4CC
:104DF00081E080931F4744CF10921F4741CF89ED38
:104E000094E40E94743B6B017C016EE57EE08CE1D2
:104E100095E40E94110C42E050E0C701B6010E94E7
:104E200062116BE57EE005CF8AE08C9369ED74E456
:104E30008CE195E40E94E10F23CFA3E0DA1220CFAA
:104E400089ED94E40E94743B0E945A3F6B01CB01B0
:104E50000E94381764E57EE08CE195E40E94110C15
:104E6000C6010E946E100CCF89ED94E40E94773B3E
:104E70008093BE466DE47EE08CE195E40E94110CC7
:104E80004091BE4650E070E060E02AE08CE195E49D
:104E90000E94E80F8CE195E40E942910F1CE60E2B7
:104EA00070E088ED94E40E94CF40009711F40C94D8
:104EB000C23A8C01085D1444C801992760E270E091
:104EC00087529B4B0E94CF40CC24C394C00E0097C6
:104ED00011F40C94C93AFC01E85DF4445F01602FC1
:104EE00081E00E9421167C016A2D8C2D0E944D16B6
:104EF0002B013C016D2D81E08A0D0E944D162196FB
:104F00006CAF7DAF8EAF9FAF2197F7E0EF16F10446
:104F100008F038C0F701E157F84D0C94B1409627DE
:104F2000E8270A282C284E28702892282091234010
:104F3000309124404091254050912640C301B20158
:104F40000E94763D4B015C01609167467091684616
:104F500090E080E00E94153D9B01AC01C501B401C9
:104F60000E94F23E609346407093474080934840D1
:104F7000909349404092C2465092C3466092C446C4
:104F80007092C54666E47EE08CE195E40E94110CC7
:104F9000C7010E94691064E47EE08CE195E40E9400
:104FA000110C42E050E0C301B2010E94621162E4C0
:104FB0007EE08CE195E40E94110C42E050E02196E5
:104FC0006CAD7DAD8EAD9FAD21970E94561158CE30
:104FD00021960CAD1DAD2EAD3FAD2197B301A201C1
:104FE00083E00E9462174092CE465092CF46609274
:104FF000D0467092D14621968CAC9DACAEACBFAC85
:1050000021978092D2469092D346A092D446B092F5
:10501000D546B8CF21960CAD1DAD2EAD3FAD219735
:10502000B301A20184E00E9462174092D6465092DA
:10503000D7466092D8467092D9462196ACACBDACAA
:10504000CEACDFAC2197A092DA46B092DB46C0929C
:10505000DC46D092DD4696CF21960CAD1DAD2EAD2F
:105060003FAD2197B301A20185E00E9462174092F3
:10507000DE465092DF466092E0467092E14621960D
:105080008CAC9DACAEACBFAC21978092E2469092C6
:10509000E346A092E446B092E54674CF21960CAD6B
:1050A0001DAD2EAD3FAD2197B301A20186E00E9458
:1050B00062174092E6465092E7466092E846709248
:1050C000E9462196ACACBDACCEACDFAC2197A0924A
:1050D000EA46B092EB46C092EC46D092ED4652CFF3
:1050E00021960CAD1DAD2EAD3FAD2197B301A201B0
:1050F00088E00E9462174092EE465092EF4660921E
:10510000F0467092F14621968CAC9DACAEACBFAC33
:1051100021978092F2469092F346A092F446B09284
:10512000F54630CF21960CAD1DAD2EAD3FAD21978C
:10513000B301A20189E00E9462174092F6465092A4
:10514000F7466092F8467092F9462196ACACBDAC39
:10515000CEACDFAC2197A092FA46B092FB46C0924B
:10516000FC46D092FD460ECFBB24B394DB1088CD15
:105170000E94DD120E94BB1183CD60E270E088EDD9
:1051800094E40E94CF400097F9F46D2D81E00E94D5
:1051900021168C010115110571F10130110599F1EC
:1051A00069E37EE08CE195E40E94110C61E37EE00E
:1051B000012B09F43ECD42E050E0C301B2010E9450
:1051C000621165E37EE035CD9C01285D34447901B0
:1051D000622F81E00E9421168C016D2D81E08E0DE1
:1051E0000E942116BC01990F880B990B0E94173D54
:1051F0002B013C01CFCF1092694681E080936A4633
:1052000010920247CDCFC301B2010E945A3F6B01F9
:10521000072E000CEE08FF08C0926F46D092704631
:10522000E0927146F092724621E020936946209305
:105230006A46209302476093034770930447B0CFB8
:1052400089ED94E40E94773B882389F09927803484
:10525000910514F08FE390E08093BF466BE27EE00F
:105260008CE195E40E94110C4091BF460BCE81E089
:1052700090E0F2CF89ED94E40E94773B8F718093A8
:10528000C14666E27EE08CE195E40E94110C8091BB
:10529000C1468251990B0E94691061E27EE0C9CC3F
:1052A00031E0D312EDCC6FE276E08CE195E40E9420
:1052B0002C1086E190E00E94080F882389F0CE012F
:1052C00001960E94E00E89819A8197FD09C091950F
:1052D0008195910989839A83CE0101960E94630F7B
:1052E00061E076E08CE195E40E942C1068EC70E0BF
:1052F00080E090E00E948E0C0C940000C1CC41E054
:10530000D412BECC67EF75E08CE195E40E942C10BE
:1053100086E190E00E94080F811128C019821A824C
:105320006FE4CE0101960E94400F81E090E08983F6
:105330009A8365E4CE0101960E94400F82E090E0DE
:1053400089839A836DE4CE0101960E94400F03E0A9
:1053500010E009831A836FEFCE0101960E94400F7F
:105360000F5F1F4F011552E0150799F787E690E090
:1053700089839A8386E190E08B839C83CE0101969A
:105380000E94630F0DEB16E487E090E0D8016D9169
:105390008D017C01BFEFEB1AFB0A8DAB9EABC10107
:1053A0000E94400FC7018A36910581F790E080E0A6
:1053B0000E94080F811122C06FEC75E08CE195E42A
:1053C0000E94110C2AE040E052E060E070E08CE1C5
:1053D00095E40E94E80F69EA75E08CE195E40E948B
:1053E0002C1060E072E090E080E00E94631167EAB8
:1053F00075E08CE195E40E94110C0EC0CE0101967F
:105400000E94E00E8B819C81019669F466E575E04F
:105410008CE195E40E942C108CE195E40E94291007
:1054200066ED75E006CC69E475E08CE195E40E94D8
:10543000110C4B815C8170E060E02AE08CE195E426
:105440000E94E80F09811A8117FF03C01195019589
:105450001109045011096BE375E08CE195E40E9499
:10546000110CC8010E94691064E375E08CE195E4B9
:105470000E94110C89819A8197FF06C069E275E04C
:105480008CE195E40E94110C8CE195E40E942910B6
:10549000B80187E090E00E94631167E275E0A9CF50
:1054A0000E94320D6B01CB01892B71F40E94320DE9
:1054B00021E0672B682B692B09F420E02093054736
:1054C000822F0E941B15DCCB6430710508F0D8CB0D
:1054D000C1010E94CB0C10E000E0C1010E94CB0C86
:1054E000892B49F1083038F58DA9803221F08D30B3
:1054F00011F08A3051F4E1E0F0E0EC0FFD1FE00F15
:10550000F11D10830F5F10E0E8CF1295107F90ED32
:10551000980F9A3030F09FEB980F963020F499EC6A
:10552000980F190FDACF9FE9980F963010F499EA87
:10553000F7CF90E0F6CFDE011196F3E0CC0CDD1C46
:10554000FA95E1F790E080E02D91FC01EC0DFD1D56
:10555000E250F94B2083019688309105A9F790CB52
:10556000F1E0DF128DCB66E17EE08CE195E40E94F4
:10557000110C68E971E45CCCE2E08E2ED81080CB8F
:105580001092C0468091D944813319F481E0809310
:10559000C0468091C04660E17EE081114ACB69E05F
:1055A0007EE047CB992493946BEF7DE0D91068CBD4
:1055B00040CBAA24A394DA1063CB61EE7DE08CE1AA
:1055C00095E40E942C100E948B0F10923D44109283
:1055D0003E4410923F441092404410924144109235
:1055E0004244109243441092444410924544109215
:1055F00046441092474410924844109249441092F5
:105600004A4410924B4410924C44109273461092AC
:105610007446109275461092764632CBBB24B394F2
:10562000DB102ECB0EE316E0F801F490FF2061F0C2
:10563000FAE0FF1203C08DE00E942F0C8F2D0E9414
:105640002F0C0F5F1F4FF0CF6CE376E0F2CABFE381
:10565000BD1508F41DCBED2DF0E0E852FB4B808327
:10566000D394D092054314CB49E6C42E46E4D42EFD
:1056700010E000E0EE24E394F12C66E1B62EF60192
:105680008181882309F476C080818823C9F18481CF
:10569000893228F590E0FC01E952FF4B40814F3FF1
:1056A000F1F0FC01E050FF4B2081F0E22F9F9001D0
:1056B00011243C5F875D9E4BDC018C91F0E0E0E0C3
:1056C000883020F4F9017096E80FF11D9FB7F89427
:1056D000D90112964C938081886080839FBF61EED0
:1056E0007DE080916E460115110521F063EE7DE0AD
:1056F000809184460E94C3083DC001E010E0BFCF06
:1057000085818932A0F590E0FC01E75DFE4B2081A8
:105710002F3F69F180509F4BDC018C91E82FE2957F
:10572000EE0FE07EE20FF0E0E05FFB4F9081917FB3
:10573000908390E0FC01B4E0EE0FFF1FBA95E1F713
:10574000422F50E0470102C0880C991C2A95E2F7CD
:105750008382880F991FFC01E05BFF4B440F551FAC
:105760000190F081E02DE40FF51F10821182D60127
:1057700011961C92B09EF001B19EF00D11249F0174
:105780002759394BF90186859785A089B189892BDD
:105790008A2B8B2BC1F04685578560897189F6016C
:1057A00082859385A485B585840F951FA61FB71F95
:1057B00082879387A487B587D9011E961D921D9273
:1057C0001D921C925197B6E1CB0ED11C01301105F0
:1057D00009F093CF789420916143309162434091D6
:1057E0006343509164436091654370916643809137
:1057F00067439091684380905D4390905E43A09092
:105800005F43B09060431091554300915643C09060
:1058100057432696CFAE2697D09058436296DFAE78
:105820006297E09059436496EFAE6497F0905A43C4
:105830006696FFAE6697C0905B436896CFAE68975A
:10584000D0905C436A96DFAE6A97E09055436E96BF
:10585000EFAE6E97F0905643A296FFAEA297C0901F
:105860005743A496CFAEA497D0905843A896DFAEE6
:10587000A897E0905943AC96EFAEAC97F0905A439E
:10588000E096FFAEE097C0905B43E296CFAEE29722
:10589000D0905C432E96DFAE2E97C0905D43D090A3
:1058A0005E43E0905F43F0906043C9AEDAAEEBAE8A
:1058B000FCAEC0905D43D0905E43E0905F43F090BB
:1058C00060432596CCAEDDAEEEAEFFAE25970E94CE
:1058D0008F3F6B017C01C501B4010E94173D9B0104
:1058E000AC01C701B6010E94F23E6B017C01212F81
:1058F000302F26964FAD269762965FAD62976496DD
:105900006FAD649766967FAD669768968FAD689722
:105910006A969FAD6A970E948B3F4B015C016E9621
:105920002FAD6E97A2963FADA297A4964FADA497C8
:10593000A8965FADA897AC966FADAC97E0967FAD9B
:10594000E097E2968FADE2972E969FAD2E970E943C
:105950008B3F9B01AC01C501B4010E94763D4B0118
:105960005C0169AD7AAD8BAD9CAD0E94173D9B018A
:10597000AC01C501B4010E94F23E4B015C012596C9
:105980006CAD7DAD8EAD9FAD25970E94173D9B01FF
:10599000AC01C501B4010E94F23E9B01AC01C701FC
:1059A000B6010E948A3E0E9424408090464090901A
:1059B0004740A0904840B09049406D968CAE9DAE57
:1059C000AEAEBFAE6D97A50194010E94763DA19643
:1059D0006CAF7DAF8EAF9FAFA1976093564470932D
:1059E00057448093584490935944A0904A40B090B3
:1059F0004B40A396AEAEBFAEA39780905D43909010
:105A00005E43A0905F43B0906043609151437091BA
:105A1000524380915343909154430E94153D6B0132
:105A20007C01A396AEADBFADA3971196A5019401DD
:105A30000E94533E0E94173D9B01AC01C701B60175
:105A40000E94F23EA7966CAF7DAF8EAF9FAFA79737
:105A5000B0905544C957DF4FB882C758D040C09066
:105A60004C40D0904D40E0904E40F0904F40C85791
:105A7000DF4FC882D982EA82FB82C858D04080902A
:105A8000284090902940A0902A40B0902B40AF969B
:105A90008CAE9DAEAEAEBFAEAF972DE334E4639651
:105AA0002EAF3FAF639749E053E465964EAF5FAFCB
:105AB000659761E374E427966EAF7FAF279786E81A
:105AC00094E489AF9AAFA9E3B3E4E396AEAFBFAF76
:105AD000E397E1E2F3E4E196EEAFFFAFE1972CE26A
:105AE00030E467962EAF3FAF67974AE554E4699676
:105AF0004EAF5FAF699723961EAE1FAE2397A39656
:105B00008EAC9FACA3972396AEACBFAC2397A814E2
:105B1000B9040CF0FEC49501A3E0220F331FAA952F
:105B2000E1F7D901A750BC4BBC90C457DF4FB882F6
:105B3000CC58D0401196CC901197C357DF4FC882F4
:105B4000CD58D0401296DC901297C257DF4FD882C2
:105B5000CE58D0401396EC901397C157DF4FE88290
:105B6000CF58D0401496FC901497C057DF4FF8825E
:105B7000C059D04015968C901597CF56DF4F88822C
:105B8000C159D04016969C901697CE56DF4F9882FA
:105B9000C259D0401796AC90CD56DF4FA882C3595A
:105BA000D040E396AEADBFADE397CD90DD90ED90E4
:105BB000FD90E396AEAFBFAFE3972D96CCAEDDAED2
:105BC000EEAEFFAE2D97D901A753BC4B8C90CC56AF
:105BD000DF4F8882C459D04011969C901197CB56C4
:105BE000DF4F9882C559D0401296AC901297CA5692
:105BF000DF4FA882C659D0401396BC901397C95660
:105C0000DF4FB882C759D0401496CC901497C8562D
:105C1000DF4FC882C859D0401596DC901597C756FB
:105C2000DF4FD882C959D0401696EC901697C656C9
:105C3000DF4FE882CA59D0401796FC90C556DF4F17
:105C4000F882CB59D040E196AEADBFADE1978D90D3
:105C50009D90AD90BD90E196AEAFBFAFE197E79656
:105C60008CAE9DAEAEAEBFAEE79780905D43909098
:105C70005E43A0905F43B0906043EB968CAE9DAEC8
:105C8000AEAEBFAEEB9790905543C456DF4F9882AF
:105C9000CC59D040A0905643C356DF4FA882CD596F
:105CA000D040B0905743C256DF4FB882CE59D04053
:105CB000C0905843C156DF4FC882CF59D040D090D2
:105CC0005943C056DF4FD882C05AD040E0905A4363
:105CD000CF55DF4FE882C15AD040F0905B43CE559C
