:10020000DCC6000004C7000002C700000C94FC1C00
:10021000FEC60000FCC60000FAC60000F8C60000DA
:100220000C943B1DF4C60000F2C60000F0C60000AE
:10023000EEC60000ECC60000EAC60000E8C60000FA
:10024000E6C60000E4C60000E2C60000E0C600000A
:10025000DEC600000C948E1C0C94891C0C94931C1C
:100260000C94321DD4C600000C94891DD0C6000029
:10027000CEC60000CCC600000C94351D0C94041DA5
:10028000C6C60000C4C60000C2C600000C942C1DE7
:10029000BEC60000BCC60000BAC60000B8C600005A
:1002A000B6C60000B4C60000B2C60000B0C600006A
:1002B000AEC600000C94381D0C942F1DA8C600007B
:1002C000A6C60000A4C60000A2C60000A0C600008A
:1002D0009EC600000C94811C0C947C1C0C94861C03
:1002E00096C6000094C6000092C6000090C60000AA
:1002F0008EC6000005A84CCDB2D44EB93836A9023E
:100300000C50B9918688083CA6AAAA2ABE00000013
:10031000803F4E414E494E495459494E46CDCCCC72
:100320003D0AD7233C17B7D13877CC2B329595E6C9
:10033000241FB14F0A000020410000C84200401CA9
:100340004620BCBE4CCA1B0E5AAEC59D744E6F20D3
:10035000454550524F4D20636F6E666967004C6F84
:100360006164656420454550524F4D20636F6E6651
:100370006967004E6F2074656D7065726174757287
:10038000652073656E736F72732064657465637442
:1003900065642C2064697361626C696E67207465A2
:1003A0006D7065726174757265005265666572651F
:1003B0006E636520766F6C746167652063616C693C
:1003C00062726174696F6E3A20002000204E6F6483
:1003D000653A20002047726F75703A200039313538
:1003E0004D487A003836384D487A003433334D481A
:1003F0007A0020467265713A200052464D363943E4
:100400005720004F70656E456E657267794D6F6E4F
:1004100069746F722E6F726700656D6F6E5478200D
:10042000563420434D20436F6E74696E756F75733B
:10043000204D6F6E69746F72696E672056004A5363
:100440004F4E20466F726D6174204F6666004A53AE
:100450004F4E20466F726D6174206F6E00524620C1
:100460006F6666005246206F6E0074656D705F6542
:100470006E61626C65203D200070756C7365207044
:100480006572696F64203D200070756C7365732020
:100490003D2000646174616C6F67203D2000693607
:1004A0004C656164203D2000693643616C203D202D
:1004B0000069354C656164203D2000693543616CFD
:1004C000203D200069344C656164203D2000693482
:1004D00043616C203D200069334C656164203D2000
:1004E00000693343616C203D200069324C656164D2
:1004F000203D2000693243616C203D200069314C71
:10050000656164203D2000693143616C203D20001D
:10051000617373756D656456203D20007643616C90
:10052000203D200043616C6962726174696F6E3AAC
:10053000002064426D002C20002C204E6F6465204A
:1005400000204D487A2C2047726F75702000426160
:100550006E64200053657474696E67733A000A0014
:10056000202868696464656E292E002062797465AC
:1005700073002C20446174612073697A653A20000D
:10058000205369676E61747572653A20004E6F2062
:100590006461746120626C6F636B20666F756E645A
:1005A000202D20454550524F4D206170706561727D
:1005B0007320746F20626520666F726D617474655C
:1005C0006420746F204F454D205374616E646172D6
:1005D000642062757420756E757365642E000A0060
:1005E0002062797465732C206E6F7420666F726D53
:1005F000617474656420746F204F454D205374619D
:100600006E646172640053697A653A2000446F6ECB
:10061000652E204E657720636F6E66696720736173
:1006200076656420746F20454550524F4D005361EC
:1006300076696E672E2E2E00536B65746368207783
:10064000696C6C206E6F77207265737461727420B0
:100650007573696E672064656661756C7420636F7D
:100660006E6669672E00526573657474696E672ED5
:100670002E2E0020000A417661696C61626C652053
:10068000636F6D6D616E64733A0A6C09092D206C9D
:10069000697374207468652073657474696E677318
:1006A0000A7209092D20726573746F726520736B6D
:1006B000657463682064656661756C74730A730998
:1006C000092D20736176652073657474696E677394
:1006D00020746F20454550524F4D0A7609092D2050
:1006E00073686F77206669726D77617265207665D1
:1006F0007273696F6E0A7A09092D207A65726F200C
:10070000656E657267792076616C7565730A780924
:10071000092D20657869742C206C6F636B20616EE5
:100720006420636F6E74696E75650A3F09092D2038
:1007300073686F77207468697320746578742061BA
:100740006761696E0A0A773C783E09092D20747545
:10075000726E2052464D20576972656C6573732026
:1007600064617461206F66663A2078203D203020F5
:100770006F72206F6E3A2078203D20310A623C6E05
:100780003E09092D2073657420722E662E20626149
:100790006E64206E203D20612073696E676C652059
:1007A0006E756D6572616C3A2034203D20343333B0
:1007B0004D487A2C2038203D203836384D487A2C48
:1007C0002039203D203931354D487A20286D617916
:1007D00020726571756972652068617264776172F3
:1007E00065206368616E6765290A703C6E6E3E091C
:1007F000092D207365742074686520722E662E2082
:10080000706F7765722E206E6E202D20616E2069CC
:100810006E74656765722030202D2033312072653B
:1008200070726573656E74696E67202D313820644F
:10083000426D20746F202B31332064426D2E204492
:10084000656661756C743A20323520282B37206438
:10085000426D290A673C6E6E6E3E092D20736574E9
:10086000204E6574776F726B2047726F7570202011
:100870006E6E6E202D20616E20696E7465676572E4
:1008800020284F454D2064656661756C74203D20BD
:10089000323130290A6E3C6E6E3E09092D20736597
:1008A00074206E6F6465204944206E3D20616E2087
:1008B000696E746567657220287374616E64617215
:1008C00064206E6F646520696473206172652031F5
:1008D0002E2E3630290A0A643C78782E783E092D6F
:1008E0002078782E78203D206120666C6F617469D5
:1008F0006E6720706F696E74206E756D6265722010
:10090000666F722074686520646174616C6F6767DC
:10091000696E6720706572696F640A633C6E3E0998
:10092000092D206E203D203020666F72204F4646F4
:100930002C206E203D203120666F72204F4E2C20DF
:10094000656E61626C6520766F6C746167652C20E2
:1009500063757272656E74202620706F77657220E1
:10096000666163746F722076616C75657320746F55
:100970002073657269616C206F7574707574206680
:100980006F722063616C6962726174696F6E2E2090
:100990000A6A3C6E3E09092D207475726E204A5316
:1009A0004F4E2053657269616C20666F726D617481
:1009B000206F6E20283129206F72206F66662028F4
:1009C00030292E0A663C78783E09092D2078782057
:1009D0003D20746865206C696E652066726571756E
:1009E000656E637920696E20487A3A206E6F726D69
:1009F000616C6C7920656974686572203530206F90
:100A0000722036300A6B3C783E203C79792E793E54
:100A1000203C7A7A2E7A3E0A09092D2043616C69BE
:100A2000627261746520616E20616E616C6F6775C2
:100A30006520696E707574206368616E6E656C3ACE
:100A40000A0909202078203D20612073696E676CB7
:100A500065206E756D6572616C3A2030203D2076A0
:100A60006F6C746167652063616C6962726174693F
:100A70006F6E2C2031203D206374312063616C69DE
:100A800062726174696F6E2C2032203D2063743273
:100A90002063616C6962726174696F6E2C20657489
:100AA000630A0909202079792E79203D206120668A
:100AB0006C6F6174696E6720706F696E74206E75FB
:100AC0006D62657220666F722074686520766F6C47
:100AD000746167652F63757272656E742063616CF3
:100AE0006962726174696F6E20636F6E7374616E98
:100AF000740A090920207A7A2E7A203D2061206626
:100B00006C6F6174696E6720706F696E74206E75AA
:100B10006D62657220666F7220746865207068610E
:100B200073652063616C6962726174696F6E2066BF
:100B30006F72207468697320632E742E20287A20C7
:100B40006973206E6F74206E65656465642C206F18
:100B5000722069676E6F72656420696620737570B4
:100B6000706C6965642C207768656E2078203D2064
:100B700030290A09092020652E672E206B3020328B
:100B800035362E380A0909202020202020206B31FC
:100B90002039302E3920322E30300A613C78782EC0
:100BA000783E092D2078782E78203D206120666CD3
:100BB0006F6174696E6720706F696E74206E756DF9
:100BC00062657220666F7220746865206173737548
:100BD0006D656420766F6C74616765206966206E50
:100BE0006F20612E632E20697320646574656374C1
:100BF00065640A6D3C783E203C79793E092D206D74
:100C0000657465722070756C736520636F756E74A2
:100C1000696E673A0A090920202078203D2030209B
:100C2000666F72204F46462C2078203D203120668A
:100C30006F72204F4E2C203C79793E203D20616E12
:100C400020696E746567657220666F7220746865CE
:100C50002070756C7365206D696E696D756D20709F
:100C60006572696F6420696E206D732E202879206B
:100C70006973206E6F74206E65656465642C206FE7
:100C8000722069676E6F726564207768656E207880
:100C9000203D2030290A743C783E09092D207475C6
:100CA000726E2074656D7065726174757265206D09
:100CB0006561737572656D656E74206F6E206F72FD
:100CC000206F663A2078203D2030206F72206F6EB2
:100CD0003A2078203D20310A00456E657267792000
:100CE00076616C7565732073657420746F207A6506
:100CF000726F00436F6E74696E75696E672E2E2E6B
:100D0000005246206F6666005246206F6E00456DA9
:100D10006F6E5478563420560054656D706572615C
:100D200074757265206F66660054656D70657261DA
:100D300074757265206F6E002064426D0070203DF6
:100D400020004E6F646520006F666600206D7300A2
:100D500050756C7365733A20002000200043616C6D
:100D60003A206B0047726F75702000467265713AC9
:100D70002000207300646174616C6F67207065727D
:100D8000696F643A2000204D487A00005EBCE26141
:100D90003FDD83C29C7E20A3FD1F41009D23BE46F4
:100DA000DB65F88C11AF32CA57E9742C7066363A9D
:100DB000002C7066353A002C7066343A002C706650
:100DC000333A002C7066323A002C7066313A002CAF
:100DD00049363A002C49353A002C49343A002C491E
:100DE000333A002C49323A002C49313A002C7075C4
:100DF0006C73653A002C54333A002C54323A002C70
:100E000054313A002C45363A002C45353A002C45F1
:100E1000343A002C45333A002C45323A002C453107
:100E20003A002C50363A002C50353A002C50343AC7
:100E3000002C50333A002C50323A002C50313A00FA
:100E40002C56726D733A004D53473A007D002C22A8
:100E500070756C7365223A002C225433223A002CB0
:100E6000225432223A002C225431223A002C2245BC
:100E700036223A002C224535223A002C22453422D3
:100E80003A002C224533223A002C224532223A00E5
:100E90002C224531223A002C225036223A002C22B4
:100EA0005035223A002C225034223A002C22503362
:100EB000223A002C225032223A002C225031223A7F
:100EC000002C2256726D73223A007B224D5347222A
:100ED0003A002056004143206D697373696E6720A4
:100EE0002D204170706172656E7420506F7765724D
:100EF0002063616C6320656E61626C65642C2061A7
:100F00007373756D696E672000414320707265735D
:100F1000656E74202D205265616C20506F7765726C
:100F20002063616C6320656E61626C65640020659E
:100F30006E61626C65642E0054656D7065726174DB
:100F4000757265206D6561737572656D656E74206F
:100F500069730053656E736F72206D6179206E6FD7
:100F6000742062652072656C6961626C65002000A6
:100F700030002C2077697468206164647265737333
:100F800065732E2E2E0054656D70657261747572D6
:100F9000652053656E736F727320666F756E642083
:100FA0003D20000A0000080A400CFFC000C000FFFE
:100FB000FF010406030003004E2311241FBECFEFE0
:100FC000CDBFDFE7DEBF11E4A0E0B0E4ECE7F0E87E
:100FD00000E00BBF02C007900D92A437B107D9F70C
:100FE00027E4A4E7B1E401C01D92A434B207E1F7FD
:100FF00017E0CDEDD7E004C02197FE010E94044028
:10100000CC3DD107C9F70E9455250C943C40F8C847
:10101000CF93DF93282F30E09FEF893220F5E9014D
:10102000CD51DF4B98819F3FE9F0F901E654FF4B2A
:10103000A08140E2A49FD0011124BC5FF901EF56CA
:10104000FF4BE081E830C0F5AD01405F5F4FE40F3A
:10105000F52FF11D4FB7F89412969C939081977FCE
:1010600090834FBF988190937946893240F52654FA
:101070003F4BF9018081F4E08F9FC00111248093E0
:101080007A4690937B461092844610928646109240
:1010900085461092834610928246109281461092A5
:1010A000804610927F4610927E4610927D461092A6
:1010B0007C46DF91CF910895F0E0E0E0CBCF8CEF5C
:1010C00093E0DDCF90917946E0917A46F0917B46AE
:1010D000292F209580FF15C0F89481818223818378
:1010E0008081892B808380E58A95F1F78181982B17
:1010F00091837894A9E4B1E01197F1F700C0000062
:101100000895F8948181822381838081892B808353
:10111000A5E8B1E01197F1F700C000008181982B9C
:1011200091837894B8E2BA95F1F708958091794661
:10113000E0917A46F0917B46F8949081982B9083C9
:101140002181382F30952323218398E19A95F1F757
:1011500090819323908390E59A95F1F7928178940A
:10116000EDE3F1E03197F1F700C00000982381E052
:1011700009F480E00895FF920F931F93CF93DF93BC
:10118000F82E062FC8E0D0E011E081E09F2D9123DA
:1011900009F480E097DF110F2197B9F7011116C00C
:1011A000F894E0917A46F0917B469081809179465F
:1011B000809589238083E0917A46F0917B469181E6
:1011C000809179468095892381837894DF91CF91AE
:1011D0001F910F91FF90089580917946E0917A4692
:1011E000F0917B46F8949081282F2095922390834C
:1011F00078943DE7315059F190E19A95F1F7928159
:101200009823C1F3F8949181922391839081982B34
:1012100090837894AFE3BBE01197F1F700C0000032
:10122000F894908192239083A3EAB1E01197F1F7AB
:1012300000C000009281982381E009F080E078945A
:10124000EBE9F9E03197F1F700C00000089580E084
:101250000895893260F590E0FC01EF56FF4BE08184
:10126000EF3F29F186549F4BDC018C9190E0DC012B
:10127000AA0FBB1FAE5ABF4B2D913C9121153105D2
:10128000B1F04E2F50E0440F551F240F351FD901E8
:101290006D937C93E05FA5E0880F991FAA95E1F715
:1012A000E80FF0E0FC5F8081887F82608083089592
:1012B0002D9A08950000809364098091630987FF47
:1012C000FCCF809164090895CF93C62F2D98806834
:1012D000F1DF8C2FEFDFCF91EBCFCF932D98EADFAB
:1012E00080E0E8DFC82FE4DF8C2FCF910895CF9303
:1012F00090913745981791F0C82F81E0EEDF837EFB
:10130000682F6C2B81E0E0DF80913745811104C0AC
:1013100087E2E3DF87FFF8CFC0933745CF91089589
:101320001092F6441092F4441092F5441092F24454
:101330001092F3441092F1441092F04488E2CDDF11
:1013400082FF06C08DE3C9DF682F64608DE3BCDFD8
:1013500080E1CDCFAF92BF92CF92DF92EF92FF921A
:101360000F931F93CF93DF936C017B018B01040FCD
:10137000151FEB015E01AE18BF08C017D10759F069
:101380006991D601ED91FC910190F081E02DC601AB
:101390000995892B79F7C501DF91CF911F910F91A5
:1013A000FF90EF90DF90CF90BF90AF900895FC0139
:1013B00055894689252F30E0842F90E0821B930BBE
:1013C000541710F0CF96089501970895FC01938962
:1013D0008489981761F0A489AE0FBF2FB11D57966D
:1013E0008C9194899F5F9F73948B90E008958FEF09
:1013F0009FEF0895FC0193898489981731F08489BF
:10140000E80FF11D878990E008958FEF9FEF089511
:10141000FC0193892489892F90E0805C9F4F821B77
:1014200091098F7399270895CF93DF93EC01E88199
:10143000F9810680F781E02D0995EC85FD8586818F
:1014400016828581158280E484838C898B8B1A8A2D
:10145000DF91CF9108958F929F92AF92BF92FF92AA
:101460000F931F93CF93DF938C014A015B01D22F1F
:10147000C32FDC0152968C91529780FF07C0ED91EB
:10148000FC910288F389E02DC8010995D11101C0B2
:10149000D3E0FD2EE894F2F8DC2FD095D07CB1E6B5
:1014A0008B16B3EE9B06B6E1AB06B10428F0D26012
:1014B000B694A7949794879460E078ED88EB95E0D4
:1014C000A50194010E94AC3DC9012034310510F4FE
:1014D00080E490E03C2F3B72D7FD30684D2F487C74
:1014E00030FD41605FB7F894D8011C96ED91FC91F6
:1014F0001682F7828087918735FF8FC04F7781E012
:1015000084878FEF85873F7D3583D683F8012189D6
:10151000C08986859785FC0133E0239FE00DF11D8E
:101520001124659174912C1708F059C0272F46FF9C
:1015300076C0793288F430E0F901ED51FF4BA0819B
:10154000AF3F51F026543F4BF901308120E2329FEA
:10155000F0011124FC5FA18347FF2AC021E0270F7F
:10156000293230F530E0F901ED51FF4BD081DF3FFA
:10157000F9F0F901E654FF4BA081F0E2AF9FD001F2
:101580001124BC5F2F563F4BF9011081F0E0E0E0E1
:10159000183030F49D01205F3F4FF901E10FF11D3C
:1015A0003FB7F8941296DC932081286020833FBFD8
:1015B00040FF15C023E0270F293288F430E0F901FD
:1015C000ED51FF4B40814F3F51F026543F4BD90125
:1015D000EC91B0E2EB9FF0011124FC5F4183FC0130
:1015E00023E0C29FE00DF11D112431962591349125
:1015F000F901FF27EE51FA4F9081832F80958923BF
:10160000682B60835FBFDF91CF911F910F91FF9097
:10161000BF90AF909F908F900895148674CF342F11
:10162000307509F499CF793208F096CF30E0F9019E
:10163000ED51FF4BD081DF3F09F48ECFF901E65425
:10164000FF4BA081E0E2AE9FD0011124BC5F2F567A
:101650003F4BF9011081F0E0E0E0183030F49D01DB
:10166000205F3F4FF901E10FF11D3FB7F89412964B
:10167000DC932081286020833FBF6ECFFC010FB632
:1016800007FE04C0809111018823A9F0A485B585C7
:1016900014968C91149785FF0EC0958986899817AA
:1016A00039F015968C9115978F7D15968C9308952A
:1016B000E8940C949E1C08950F931F93CF93DF938F
:1016C000EC018A89982F91609A8B2D899E89291324
:1016D0000AC0EC85FD85948195FF05C081FD0DC094
:1016E00080E4848312C0062F1D891F5F1F738E89BB
:1016F000811315C0CE01C2DFFACF85818F77806458
:1017000090E49483EC85FD858583EC85FD8562837B
:1017100081E090E0DF91CF911F910F910895ED89C5
:10172000EC0FFD2FF11DE95AFF4F00831D8BEC8557
:10173000FD858A8981FF09C085818F77806690E465
:101740009483EC85FD858583E3CF85818062FBCF23
:10175000EF92FF920F931F93CF93DF938C017B0146
:10176000D0E0C0E0F701EC0FFD1F6491662331F07B
:10177000C801A2DF892B11F02196F4CFCE01DF91B1
:10178000CF911F910F91FF90EF900895682F8EE3F6
:1017900095E492CFCF93DF93EC018A8980FF0BC051
:1017A000EC85FD85858185FD03C0848186FD03C0B0
:1017B000CE0164DFF5CFDF91CF91089581E00895E8
:1017C0000F98079A20E533EC93E0179A44E1F9016A
:1017D0003197F1F74150D9F7482F179AF90131970E
:1017E000F1F7179A59E0F9013197F1F75150D9F70C
:1017F000415099F7915049F7E7CF9FB7F894E0919E
:101800002A0BF0912B0B8091260B2091E94230910D
:10181000EA424091EB425091EC429FBF80FF08C0EA
:10182000EC3E8CE2F80720F42F5F3F4F4F4F5F4FA5
:101830000F0116940794169407941694079416941F
:101840000794F00116940794E00DF11D1694079487
:10185000102C169401181694010C16940118169465
:10186000010C1694011816941694010C1124E01919
:10187000F109A8EEB3E00E949C3D6E0F7F1F811D11
:10188000911D08958F929F92AF92BF92CF92DF9257
:10189000EF92FF926B017C01B0DF4B015C01C11440
:1018A000D104E104F104B1F0A8DF681979098A09CB
:1018B0009B09683E73408105910588F321E0C21AB7
:1018C000D108E108F10888EE880E83E0981EA11C7B
:1018D000B11CE5CFFF90EF90DF90CF90BF90AF901D
:1018E0009F908F9008952FB7F8946091E94270917E
:1018F000EA428091EB429091EC422FBF0895CF9243
:10190000DF92EF92FF920F931F93CF93DF93082FF5
:1019100010E096E1899FE0011124C557D94B8E81D3
:101920009F81A885B985892B8A2B8B2B99F1DBDFC9
:10193000CA88DB88EC88FD886C197D098E099F09AF
:10194000CE80DF80E884F984C616D706E806F9065B
:1019500058F48E859F85A889B9890196A11DB11D6E
:101960008E879F87A88BB98BBEDF26E1209FF00171
:10197000219FF00D1124E557F94B628B738B848BFB
:10198000958BDF91CF911F910F91FF90EF90DF909A
:10199000CF9008958E859F85A889B9890196A11D4C
:1019A000B11D8E879F87A88BB98BEBCF80E0A7CF27
:1019B00081E0A5CFCF92DF92EF92FF920F931F931A
:1019C000CF93DF9380911C4090E025E0959587951B
:1019D0002A95E1F78095909583709927C0EFD2E022
:1019E00002C0D595C7958A95E2F72091464030917F
:1019F0004740DE010E94134028E13CEF4FEF5FEFCC
:101A00000E94803D8091DB419091DC410197280F3D
:101A1000391F2093DD413093DE4120E030E04AE77A
:101A200054E460912A4070912B4080912C40909119
:101A30002D400E94C93C0E94B23E8E01DD0F220B58
:101A4000330B6B017C01C01AD10AE20AF30AA70129
:101A50009601A8EEB3E00E949C3D6858734181094D
:101A600091090E94683C20911840309119404091A2
:101A70001A4050911B400E94453E0E94B23E609326
:101A8000D7417093D8418093D9419093DA41DF9147
:101A9000CF911F910F91FF90EF90DF90CF9008951D
:101AA000CF92DF92EF92FF926B017C01C0922A40AD
:101AB000D0922B40E0922C40F0922D406091464015
:101AC0007091474090E080E00E94683CA701960139
:101AD0000E94C93C0E94B23E6093DB417093DC419E
:101AE00020E034E244E759E4C701B6010E94C93C52
:101AF000209118403091194040911A4050911B405C
:101B00000E94453E0E94B23E6093694370936A43CF
:101B100080936B4390936C43FF90EF90DF90CF9056
:101B200049CFEF92FF920F931F93CF93DF93E091F2
:101B3000D541CE2FD0E07E01EE0CFF1CEE0CFF1C39
:101B4000D701A25DBF4B4D935D936D937C9313972B
:101B5000B7016050704CDB010D931D932D933C93A6
:101B600013979E012F5B3B4B91E0D9019C93A82FCB
:101B7000B0E0A657BB4BEC93EF5FE093D541F0E0AC
:101B8000E25EFF4B8083DF91CF911F910F91FF9019
:101B9000EF900895DC01ED91FC91F170FC5E808185
:101BA0000895CF92DF92EF92FF920F931F93CF93FE
:101BB000DF9300D0CDB7DEB76C017C0103E010E00D
:101BC00009831A83CE010196E5DFF70181937F0136
:101BD0000F5F1F4F0730110599F7C6010F900F9047
:101BE000DF91CF911F910F91FF90EF90DF90CF90F9
:101BF00008950F931F93CF93DF9300D000D0CDB7FC
:101C0000DEB78C0119821A82CE010196C3DF8F34B0
:101C1000F9F481E090E089839A83CE010196BADFDE
:101C20008534B1F482E090E089839A83CE010196F5
:101C3000B1DF8D3469F481E00115110551F0CE0159
:101C40000196AFDF81E02B813C812017310709F03D
:101C500080E02496CDBFDEBFDF91CF911F910F9121
:101C600008951F93CF93DF93EC01162F93DF811715
:101C7000B1F09FB780910210282F227081FDFACF1A
:101C8000F8948DE984BF2093001023E184BF209352
:101C90000010E881F981F170FC5E10839FBFCE01D6
:101CA000DF91CF911F910895CF92DF92EF92FF9233
:101CB0000F931F93CF93DF9300D0CDB7DEB76C01A6
:101CC0007C0103E010E009831A83F70161917F0131
:101CD000CE010196C6DF0F5F1F4F0730110599F740
:101CE000C6010F900F90DF91CF911F910F91FF9040
:101CF000EF90DF90CF9008950F931F93CF93DF93D2
:101D000000D0CDB7DEB70091DB461091DC46809164
:101D1000DD469091DE46081719079CF4C8019571BD
:101D200089839A836FEFCE0101969BDF1092D7468D
:101D30001092D8468091D5469091D646080F191F2B
:101D4000E6CF0F900F90DF91CF911F910F910895E3
:101D5000DC01ED91FC910088F189E02D23E030E079
:101D60000994FB0101900020E9F73197AF01461B70
:101D7000570BF0CA6115710509F0F3CF90E080E0D0
:101D800008958F929F92AF92BF92EF92FF920F931E
:101D90001F93CF93DF93CDB7DEB7A197CDBFDEBF43
:101DA0007C01FA01CB0119A2223008F42AE08E014D
:101DB0000F5D1F4F822E912CB12CA12CBF01A501CC
:101DC00094010E94AC3DF901CA016A30CCF4605D17
:101DD000D8016E938D01232B242B252B79F7BD0180
:101DE000C701C8DFA196CDBFDEBFDF91CF911F91A4
:101DF0000F91FF90EF90BF90AF909F908F900895BC
:101E0000695CE6CF66E271E4ACCF0F931F93CF938A
:101E1000DF93EC019DDC8C01CE01F4DF800F911F7C
:101E2000DF91CF911F910F910895CF92DF92EF92A2
:101E3000FF92CF93DF93AB01BC0177FF19C06A011A
:101E40007C018DE2A3DCEC0144275527BA014C1933
:101E50005D096E097F092AE08EE395E492DF8C0F1D
:101E60009D1FDF91CF91FF90EF90DF90CF9008956D
:101E70002AE08EE395E4DF91CF91FF90EF90DF9021
:101E8000CF907FCFBC01990F880B990BCECFCF930A
:101E9000DF93F8DFEC018EE395E4B4DF8C0F9D1F38
:101EA000DF91CF9108954F925F926F927F928F92C0
:101EB0009F92AF92BF92CF92DF92EF92FF920F93D9
:101EC0001F93CF936B017C01742EAC019B010E9488
:101ED000B53F69E271E4811126C046015701E894DB
:101EE000B7F82FEF3FEF4FE75FE7C501B4010E945E
:101EF000B53F81110CC02FEF3FEF4FE75FE7C50102
:101F0000B4010E94643C6DE271E4181664F02FEF96
:101F10003FEF4FE75FE4C701B6010E94693F181623
:101F2000A4F461E371E48EE395E4CF911F910F91E6
:101F3000FF90EF90DF90CF90BF90AF909F908F90E9
:101F40007F906F905F904F900CCF2FEF3FEF4FE758
:101F50005FECC701B6010E94643C87FDE2CF20E040
:101F600030E0A901C701B6010E94643C10E000E026
:101F700087FF07C08DE20ADC8C01F7FAF094F7F8CE
:101F8000F094C0E060E070E080E09FE37C1641F0F8
:101F900020E030E040E251E40E94453ECF5FF6CFC2
:101FA000A70196010E94DE3D2B013C010E94B23E3A
:101FB0004B015C012AE0BC01A4018EE395E4E1DE63
:101FC0007C01E00EF11ECC23C9F1C501B4010E94D1
:101FD000683C9B01AC01C301B2010E94DD3D4B0195
:101FE0005C0165E371E48EE395E4BBDEE80EF91E67
:101FF000C15020F120E030E040E251E4C501B401DD
:102000000E94C93C2B013C010E94B23E4B01B12C05
:10201000A12C2AE0B501A4018EE395E4B2DEE80E1E
:10202000F91EC501B4010E94683C9B01AC01C301CB
:10203000B2010E94DD3D4B015C01DACFC701CF91B7
:102040001F910F91FF90EF90DF90CF90BF90AF90D6
:102050009F908F907F906F905F904F900895CF9357
:10206000DF9321DFEC018EE395E4CCDE8C0F9D1F26
:10207000DF91CF91089517CFAF92BF92CF92DF92A9
:10208000EF92FF920F931F93CF93DF9300D0CDB7C2
:10209000DEB76C015B0110E000E00A151B05BCF522
:1020A0007801EC0CFD1C85E1F822E982FA82CE0170
:1020B000019670DD803110F480E368DB0F5F1F4F05
:1020C000E982FA82CE01019665DD482F50E070E08A
:1020D00060E020E18EE395E454DE6FE371E48EE38B
:1020E00095E43FDEC80187709927892B29F46FE3B7
:1020F00071E48EE395E435DEC8018F709927892B52
:1021000061F663EA7FE08EE395E422DBC6CF0F90B1
:102110000F90DF91CF911F910F91FF90EF90DF9083
:10212000CF90BF90AF900895DF92EF92FF920F9300
:102130001F93CF93DF9320918646211105C0E92E8E
:10214000D82E4AD881110FC010928446109286462C
:102150001092854680E0DF91CF911F910F91FF9003
:10216000EF90DF90089560E080EF05D8D1E000E0C7
:10217000F12CC1E00E949608182F0E949608113099
:10218000E1F48130C9F5C134F8F2F0928446F110DF
:1021900003C081E08093864680917C468823A1F22B
:1021A000ACE7B6E4ED2DFE2DCF0108962D912193DD
:1021B000E817F907D9F781E0CECFE02FF0E0181348
:1021C00011C080918446C817A8F4DF01A758B94B05
:1021D00013968C918D2381F410E0C93010F4C093D4
:1021E0008546FC2EE758F94B83819D2F90958923D6
:1021F00083830AC08C13F0CFE02FF0E0E758F94B4F
:1022000083818D2B838311E0812F0E946208CF5F31
:10221000DD0F11F40F5FD1E0083008F4ABCFB3CF7E
:10222000CF92DF92EF92FF920F931F93CF93DF93A2
:1022300066E87FE085ED95E48BDA40913D4550E01E
:1022400070E060E02AE085ED95E49BDD6CE371E4ED
:1022500085ED95E486DD4091604050E070E060E0FF
:102260002AE085ED95E48DDD80913D45882309F4D4
:1022700053C062E77FE085ED95E4C7DD10E000E044
:1022800080913D458017110609F00CF445C06801A6
:1022900083E0CC0CDD1C8A95E1F7F12CE12CC09198
:1022A0003B45D0913C45CC0DDD1DCE0DDF1D888119
:1022B000803128F460E77FE085ED95E449DA4881D4
:1022C00050E070E060E020E185ED95E45ADD6EE6D7
:1022D0007FE085ED95E43CDA8FEFE81AF80A88E0B4
:1022E000E816F104E1F6E0913B45F0913C45EC0D38
:1022F000FD1D8681833029F463E57FE085ED95E45B
:1023000027DA85ED95E47EDD65E070E080E090E021
:10231000B9DA0F5F1F4FB4CF85ED95E473DD68E345
:102320007FE085ED95E414DA80913A4567E371E446
:10233000882311F068E271E485ED95E41BDD6EE21F
:102340007FE085ED95E461DD85ED95E45BDD65E09D
:1023500070E080E090E0DF91CF911F910F91FF90AE
:10236000EF90DF90CF908ECA0F931F93CF93DF93A0
:1023700080913745803109F070C088E20E946D0974
:1023800082FF43C084E00E9477092D9880E00E947C
:102390005A0980E00E945A09D82FC82F833408F0C8
:1023A000C2E4C093F14480E00E945A09082F80E003
:1023B0000E945A09182F80E00E945A09282F30E005
:1023C000A90196E0440F551F9A95E1F744275370F1
:1023D000402B4093F2445093F344322F222722277C
:1023E0003370212B2093F4443093F5449091384579
:1023F0009417150611F0452B11F4D330B8F4109250
:10240000F1440E9458090E9490098091374580311B
:1024100021F58091F144882311F184E00E9477092D
:1024200081E0DF91CF911F910F910895C350C09328
:10243000F64480788093F044D0E0DC1728F480E004
:102440000E945A09DF5FF9CF0E94580980E10E947B
:10245000770984E20E946D09D8CF0E94900980E03C
:10246000E0CF64E575E08EE395E4CFDC6EE475E0E3
:102470008EE395E46DD98091DF468B3209F457C124
:10248000863509F457C18B3509F457C190E080E0D7
:10249000F9DC61E475E08EE395E45AD94091E046B9
:1024A00050E070E060E02AE08EE395E46ADC69E3E6
:1024B00075E08EE395E44CD98091E1468F7390E00E
:1024C000E1DC66E375E08EE395E442D98091E34672
:1024D0008251990BD7DC61E375E08EE395E495DCDE
:1024E00064E275E08EE395E490DC6CE175E08EE3E8
:1024F00095E42ED96091E4467091E5468091E646D8
:102500009091E74642E050E0AADD60E175E08EE39D
:1025100095E41ED96091E8467091E9468091EA46BB
:102520009091EB4642E050E09ADD67E075E08EE383
:1025300095E40ED96091F0467091F1468091F24693
:102540009091F34642E050E08ADD6DEF74E08EE357
:1025500095E4FED86091F4467091F5468091F64678
:102560009091F74642E050E07ADD64EF74E08EE34C
:1025700095E4EED86091F8467091F9468091FA465C
:102580009091FB4642E050E06ADD6AEE74E08EE333
:1025900095E4DED86091FC467091FD468091FE4640
:1025A0009091FF4642E050E05ADD61EE74E08EE328
:1025B00095E4CED860910047709101478091024721
:1025C0009091034742E050E04ADD67ED74E08EE30E
:1025D00095E4BED860910447709105478091064705
:1025E0009091074742E050E03ADD6EEC74E08EE3F4
:1025F00095E4AED8609108477091094780910A47E9
:1026000090910B4742E050E02ADD64EC74E08EE3E9
:1026100095E49ED860910C4770910D4780910E47CC
:1026200090910F4742E050E01ADD6BEB74E08EE3CF
:1026300095E48ED8609110477091114780911247B0
:102640009091134742E050E00ADD61EB74E08EE3C5
:1026500095E47ED860911447709115478091164794
:102660009091174742E050E0FADC68EA74E08EE3AC
:1026700095E46ED8609118477091194780911A4778
:1026800090911B4742E050E0EADC6EE974E08EE393
:1026900095E45ED860911C4770911D4780911E475C
:1026A00090911F4742E050E0DADC63E974E08EE38A
:1026B00095E44ED860912047709121478091224740
:1026C0009091234742E050E0CADC69E874E08EE371
:1026D00095E43ED88091244790E0D9DB69E774E027
:1026E0008EE395E435D88091254790912647CFDB3E
:1026F0008091E2466DE574E0882311F064E674E0B1
:102700008EE395E482DB6AE674E08EE395E420D8FC
:102710008091274790E0BBDB809141476EE374E0F6
:10272000882311F06EE474E08EE395E46ECB81EBC8
:1027300091E0AECE84E693E0ABCE83E993E0A8CE01
:102740000F931F93CF93DF93893208F07CC090E002
:10275000DC01AD51BF4B2C912F3F09F474C08C01AB
:1027600006541F4BE801E881D0E2ED9FF0011124EF
:10277000FC5F611133C0268330812323AC014F56A7
:102780005F4B211111C0EA012881309749F12830AF
:1027900038F57096E20FF11D3FB7F8942081611172
:1027A00022C0277F20833FBFFA0130813F3F09F4D9
:1027B0004AC0E8012881363058F53091E605432FAC
:1027C0004770241312C0EC91E53008F0EE0F8091B1
:1027D000010AE095E823E093010A35C02583CCCFB8
:1027E000F0E0E0E0D9CF2860DDCF387169F4213026
:1027F00079F4EC91E53008F0EE0F8091410AE09514
:10280000E823E093410A1FC0383111F4263089F3E0
:1028100088599F4BFC01808185FF13C030E1839F65
:10282000F0011124F75F91819770973061F4EC917A
:10283000853270F4803298F48830E1F2803121F2F0
:1028400002C08111F4CFDF91CF911F910F910895B4
:10285000803471F08038B9F71092A006F4CF90E17F
:10286000899FF0011124F75F81818F7E8183EBCFF7
:102870008091920B8E2339F3C0E22C9F900111249A
:102880003C5FE83030F5205F3F4FE20FF32FF11D42
:102890004FB7F8949091800B9E7F9093800B90910E
:1028A0008E0B90FFFCCF2091920B90E0809590953D
:1028B00030E08223932328ED24BF8093920B8091F4
:1028C000800B81608093800B80818F7780834FBFE6
:1028D000BACFF0E0E0E0DCCF0F931F93CF93DF930C
:1028E000CDB7DEB72897CDBFDEBF20913B453091F5
:1028F0003C45232B31F02091EF423091F042232BC5
:1029000061F410923A4510923D452896CDBFDEBF46
:10291000DF91CF911F910F910895182F8091614001
:102920000E94080810933A45112309F496C020E04C
:1029300030E040E85FE360912A4070912B40809145
:102940002C4090912D400E94643C87FF03C08FE192
:1029500080931C4000911C4090916040E091EF42B8
:10296000F091F04280E020E335E7981721F02193C1
:1029700031938F5FFACF1092844610928646109260
:10298000854610928346109282461092814610929C
:10299000804610927F4610927E4610927D4610929D
:1029A0007C4610923D45CE010196BEDB882349F05E
:1029B00089818832C1F780913D458F5F80933D4585
:1029C000F2CF8091604090913D45891710F480933B
:1029D0003D45E0913B45F0913C4580818832A1F036
:1029E00010E080913D45181778F428E0129FC0014F
:1029F000112420913B4530913C45820F931F94DB7D
:102A0000882311F01F5FEDCF0E94EC0860E08CEC92
:102A10000E94BB0860E08EE40E94BB0860E080E09A
:102A20000E94BB0860E080E00E94BB0860E0802F4D
:102A30000E94BB080E94EC0860E08CEC0E94BB087E
:102A400061E088E40E94BB0864E170E080E090E00F
:102A50000E94420C0E94DA0C58CF8091294087FDD9
:102A6000F9CF8932A4F4282F082E000C330BF9017A
:102A7000ED51FF4B90819F3F51F026543F4BD901C0
:102A8000EC91B0E2EB9FF0011124FC5F918360E0D8
:102A900057DE809129408932E8F690E0FC01ED5143
:102AA000FF4B20812F3FB1F2FC01E654FF4BA08188
:102AB000E0E2AE9FD0011124BC5F8F569F4BFC011A
:102AC0003081F0E0E0E0383028F4CD014096FC01A0
:102AD000E30FF11D9FB7F89412962C938081877FA6
:102AE00080839FBFB7CF0F931F93CF93DF93CDB753
:102AF000DEB72C97CDBFDEBF681BF1F0062F10E0CC
:102B0000682F70E069507B4BA801CE0101960E94AE
:102B10002D40E1E0F0E0EC0FFD1FE00FF11F10820F
:102B2000CE0101960E94CA3A2C96CDBFDEBFDF913E
:102B3000CF911F910F91089590E080E0F5CF0F9312
:102B40001F93CF93DF93CDB7DEB72C97CDBFDEBFFA
:102B5000681BF1F0062F10E0682F70E069507B4B86
:102B6000A801CE0101960E942D40E1E0F0E0EC0FBB
:102B7000FD1FE00FF11F1082CE0101960E94C73A9F
:102B80002C96CDBFDEBFDF91CF911F910F9108959D
:102B900060E070E0CB01F4CF4F925F926F927F9232
:102BA0008F929F92AF92BF92CF92DF92EF92FF925D
:102BB000CF93DF93C82F8090184090901940A09039
:102BC0001A40B0901B40609146407091474090E0A1
:102BD00080E00E94683C6B017C0160914C407091E8
:102BE0004D406F5F7F4F072E000C880B990B0E94A2
:102BF0006A3CA50194010E94C93C2BED3FE049ECE1
:102C000050E40E94C93CA70196010E94C93C20E003
:102C100034E244E759E40E94453E2B013C01D0E0F8
:102C2000BE016F5F7F4F072E000C880B990B0E942F
:102C30006A3CA50194010E94C93CA70196010E942B
:102C4000C93C20E034E244E759E40E94453E6B0170
:102C50007C01CC0FDD1FCC0FDD1FFE01E050F04CDE
:102C600020E030E044EB53E4608171818281938104
:102C70000E94453E9B01AC01C701B6010E94DE3DAA
:102C80002BED3FE049EC50E40E94C93C4B015C0154
:102C90000E946D3F6B017C01C301B2010E946D3F38
:102CA0009B01AC01C701B6010E94453E6B017C014E
:102CB000FE01E75CFC4BC082D182E282F382C50157
:102CC000B4010E94423E4B015C01C301B2010E946B
:102CD000423E9B01AC01CF5ADC4BC701B6010E94BA
:102CE000C93C9B01AC01C501B4010E94DD3D688374
:102CF00079838A839B83DF91CF91FF90EF90DF9060
:102D0000CF90BF90AF909F908F907F906F905F908B
:102D10004F900895CF938093464090934740BC01D5
:102D200090E080E00E94683C20912A4030912B4046
:102D300040912C4050912D400E94C93C0E94B23ECF
:102D40006093DB417093DC410E94DA0CC0E080911B
:102D50004C4090914D40C817190624F48C2F1CDF6D
:102D6000CF5FF5CFCF9108954F925F926F927F9290
:102D7000AF92BF92CF92DF92EF92FF920F931F9389
:102D8000CF93DF93E82FCB01BA0168017901F0E01E
:102D9000E657FB4B108124E0129FE0011124FE0155
:102DA000E25DFF4B5F01209125403091264040912C
:102DB0002740509128400E94C93C2B013C01609162
:102DC000894670918A4690E080E00E94683C9B01B1
:102DD000AC01C301B2010E94453EF50160837183DD
:102DE00082839383C050D04CC882D982EA82FB820E
:102DF000812FDF91CF911F910F91FF90EF90DF9086
:102E0000CF90BF90AF907F906F905F904F90C4CE67
:102E10002F923F924F925F926F927F928F929F92EA
:102E2000AF92BF92CF92DF92EF92FF920F931F93D8
:102E3000CF93DF93CDB7DEB7E797CDBFDEBF84E09A
:102E40008093210461E08AE07BDC9FB7F89480E105
:102E500080930204809114048860809314049FBFBF
:102E60009FB7F89480E280930204809115048860F3
:102E7000809315049FBF40E052EC61E070E08EE368
:102E800095E40E94A80E8091080485FD05C08091FC
:102E9000E1468F5F8093E14669E174E08EE395E45B
:102EA0000E94A80B62E571E48EE395E40E94BA0EDD
:102EB00063E074E08EE395E40E94050F86E190E004
:102EC0000E94F90D882341F1CE0101960E94D10D97
:102ED00009811A8117FD20C0680123E0C20ED11CB0
:102EE0003FEDE32E36E4F32E87E090E05C013FEF08
:102EF000A31AB30A8EA79FA7CE018E960E94CA0D71
:102F0000D7018D937D01C501AC14BD0478F36EE546
:102F100073E00430110511F46DE473E08EE395E481
:102F20000E94050F9EDA8091E246882309F45AC078
:102F30006AEF73E08EE395E40E94A80B62EF73E002
:102F40008EE395E40E94A80B8091DF468B3231F42A
:102F50006BEE73E08EE395E40E94A80B8091DF4650
:102F6000863531F464EE73E08EE395E40E94A80B9D
:102F70008091DF468B3531F46DED73E08EE395E49F
:102F80000E94A80B64ED73E08EE395E40E94A80B09
:102F90004091E04650E070E060E02AE08EE395E486
:102FA0000E94C10E6CEC73E08EE395E40E94A80BC6
:102FB0004091E14650E070E060E02AE08EE395E465
:102FC0000E94C10E6AEC73E08EE395E40E94050F47
:102FD0006AE571E48EE395E40E94B10E8EE395E418
:102FE0000E94020F8091080484FD03C081E0809359
:102FF000D4418091E246882309F4FFC01091E04655
:103000008091E146809338451092394580E2809363
:10301000210481E08093410484E0809341040E9474
:1030200058098091E405837F8093E40580916109CC
:103030008460809361098091600981628093600956
:103040000E94730C6B017C016AEA8FE20E946409A2
:103050008FE20E946D098A3A59F00E94730C6C1934
:103060007D098E099F09623371058105910560F321
:103070000E94730C6B017C0165E58FE20E9464097C
:103080008FE20E946D09853559F00E94730C6C190E
:103090007D098E099F09623371058105910560F3F1
:1030A000FE0133968BE2DF011D928A95E9F781E0FC
:1030B000898384E08A8322E02B8393E09D832E839F
:1030C0008F8380E4888725E029879A8796E09B870D
:1030D00093E39C8797E09D872CE62E8728E02F8737
:1030E000888B29E0298B29E12B8B22E42C8B35E27C
:1030F0003D8B8E8B86E28F8B988F88E2898F90E153
:103100009A8F89E28B8F8CED8C8F8EE28D8F88E881
:103110008E8F8FE28F8F8DE288A380E389A337E3C0
:103120003BA330E93CA338E33DA32EA32CE32FA31C
:103130002FE828A72DE329A79AA79FE69BA78CA78E
:103140001AA38E010F5F1F4FF8018081882331F091
:1031500061810E9464090E5F1F4FF6CF69E981E12A
:103160000E94640984E00E9477090E94730C6B013D
:103170007C0187E20E946D0987FD0BC00E94730CE1
:103180006C197D098E099F096233710581059105CE
:1031900080F30E94730C84E00E9477092D988EEBD7
:1031A0000E945A0901E411E4D8018D918D010E9419
:1031B0005A09B1E401351B07B9F70E9458098DE39C
:1031C0000E946D09682F61608DE30E94640920915F
:1031D000E146E4E12E9F8001112460E070E0CB0124
:1031E0000115110541F00E94723A9801110F440B2C
:1031F000550B0E94803D0E94420C8EE08093050694
:1032000080910306809303061092B00086E08093BD
:10321000020681E0809300068091000680930006FC
:1032200087E08093080660E070E0CB0150E040E06A
:1032300021E020930A0630910D0630FFFCCF4A3082
:10324000510544F0E0911006F09111066E0F7F1FBA
:10325000811D911D4F5F5F4F4A31F7E25F0749F7CC
:103260000E94683C20E030E44CE156E40E94453E78
:1032700020E030EF4FE755E40E94453E9B01AC0152
:1032800066E676E686E69FE30E94453E6B017C019A
:103290006AEA73E08EE395E40E94A80B44E050E0F4
:1032A000C701B6010E942F108CE090E0809362402D
:1032B000909363408EEF94E5ADE1B2E480931840C3
:1032C00090931940A0931A40B0931B4080E090E186
:1032D0008093894690938A4680E890E08093874661
:1032E00090938846C0922540D0922640E092274095
:1032F000F09228408091E4469091E546A091E64600
:10330000B091E74610921E40809348409093494008
:10331000A0934A40B0934B400091F4461091F5467B
:103320002091F6463091F7464091F0465091F14693
:103330006091F2467091F34683E00E94910D0091F6
:10334000FC461091FD462091FE463091FF4640918B
:10335000F8465091F9466091FA467091FB4684E038
:103360000E94910D00910447109105472091064756
:1033700030910747409100475091014760910247C3
:103380007091034785E00E94910D00910C471091C8
:103390000D4720910E4730910F47409108475091BB
:1033A000094760910A4770910B4786E00E94910D92
:1033B00000911447109115472091164730911747F7
:1033C00040911047509111476091124770911347F7
:1033D00088E00E94910D00911C4710911D4720919B
:1033E0001E4730911F4740911847509119476091EF
:1033F0001A4770911B4789E00E94910D8091D4413A
:10340000882319F08CE390E085DC6091204770916F
:10341000214780912247909123470E94500D80912F
:10342000E8469091E946A091EA46B091EB46809338
:103430004E4090934F40A0935040B09351408091A4
:10344000244780938B4681E080938C4686E080936E
:103450008F46809390468091254790912647092E6C
:10346000000CAA0BBB0B8093914690939246A093BD
:103470009346B09394468CE0809361408BE08093B8
:10348000294088E08093210461E08BE059D98FE5E1
:1034900080931C4088E297E480933B4590933C45A1
:1034A0001092284786EB94E48093EF429093F04289
:1034B00083E080936040E090D746F090D846E114D6
:1034C000F10409F4B5C087010F5F1F4F27EBC22E2F
:1034D00026E4D22E8091D5469091D6468E0D9F1D22
:1034E0000817190774F4C801957189839A83CE016E
:1034F00001960E94CA0DD6018D936D010F5F1F4F7B
:10350000E9CF4090B7465090B8466090B946709069
:10351000BA468090BB469090BC46A090BD46B09005
:10352000BE46C090BF46D090C046E090C146F090E5
:10353000C2460091C3461091C4462091C5463091C1
:10354000C6464091C7465091C8466091C9467091A1
:10355000CA468091CB469091CC46A091CD46B09181
:10356000CE468CAB9DABAEABBFAB8091CF469091BE
:10357000D046A091D146B091D24688AB99ABAAABC8
:10358000BBAB40925544509256446092574470925F
:1035900058448092594490925A44A0925B44B0920D
:1035A0005C44C0925D44D0925E44E0925F44F092ED
:1035B00060440093614410936244209363443093C9
:1035C00064444093654450936644609367447093A9
:1035D00068448CA99DA9AEA9BFA980936944909322
:1035E0006A44A0936B44B0936C4488A999A9AAA992
:1035F000BBA98093954690939646A0939746B09327
:1036000098468091274768D98091D541882341F118
:10361000282F30E020934C4030934D408F5F90E056
:103620008630F0F4FC01EF5BFB4B10820196F8CF83
:10363000412C512C3201812C912C5401C12CD12CC4
:10364000760100E010E0980140E050E0BA011CAAC9
:103650001DAA1EAA1FAA18AA19AA1AAA1BAA91CFA4
:103660004090254050902640609027407090284020
:103670006091894670918A4690E080E00E94683CA3
:103680004B015C01209148403091494040914A40B3
:1036900050914B40C301B2010E94C93CA501940165
:1036A0000E94453E609348407093494080934A4051
:1036B00090934B408EE2E82E80E4F82E91EFC92ED5
:1036C00092E4D92E10E000E080914C4090914D4062
:1036D0000817190714F5D7012D913D914D915D9172
:1036E0007D011D01B4E02B1A3108C301B2010E9413
:1036F000C93CA50194010E94453EF101608371839C
:1037000082839383802F48DAD6011D921D921D92E9
:103710001D926D010F5F1F4FD7CF86ED9CE0809308
:103720008D4690938E4688ED9CE08093A3469093BF
:10373000A44681E080931D401092E4421092E5423D
:103740001092E6421092E7429EE090930506909117
:103750000306909303061092B00098E0909302063F
:1037600080930006909100069093000690910006C9
:103770009260909300061092080690910C0691605A
:1037800090930C0680930A067894C0902A40D090BB
:103790002B40E0902C40F0902D406091464070917D
:1037A000474090E080E00E94683CA70196010E949B
:1037B000C93C0E94B23E6093DB417093DC411092A1
:1037C000474420E034E244E759E4C701B6010E94CF
:1037D000C93C209118403091194040911A405091B5
:1037E0001B400E94453E0E94B23E60936943709325
:1037F0006A4380936B4390936C430BE816E4F12C7F
:10380000F80180818823A1F18481893228F590E034
:10381000FC01ED51FF4B20812F3FF1F0FC01E654FC
:10382000FF4BA081F0E2AF9FD0011124BC5F8F5607
:103830009F4BFC013081F0E0E0E0383028F4CD010E
:103840004096FC01E30FF11D9FB7F89412962C935C
:103850008081886080839FBF68ED7CE08091A64670
:10386000F11004C066ED7CE0809190460E94290929
:103870000A5E1F4FF1E0FF1239C01092BC44109253
:10388000BD441092BE441092BF440E94101180911A
:103890003A45882371F180913D4590E0892B51F4A0
:1038A00063E773E08EE395E40E94050F10922747CB
:1038B00080E012D860E070E080E090E40E94500D5B
:1038C000E796CDBFDEBFDF91CF911F910F91FF90A3
:1038D000EF90DF90CF90BF90AF909F908F907F90B0
:1038E0006F905F904F903F902F900895FF24F39436
:1038F00087CF90E080E0D2CFEF93FF93EEE3F5E443
:1039000015C0EF93FF93EEE3F5E43FC0EF93E0E6DD
:1039100060C0EF93FF93E5EDF5E408C0EF93FF93EC
:10392000E5EDF5E432C0EF93E0E053C02F932FB7FD
:103930002F938F939F93AF93BF936894CF93DF930D
:1039400020E0C485D8E09689DF01A90FB21FA95AEB
:10395000BF4F8C9120E42C838A839F5F9F738D815E
:103960002589291302C08F7D8D83968BDF91CF919E
:1039700016F00C945B0BBF91AF919F918F912F919B
:103980002FBF2F91FF91EF9118952F932FB72F9362
:103990008F939F93CF93DF93C485D8E089819881DB
:1039A00081FD0DC0C38981E08C0F8F732489281796
:1039B00031F0CE0FDF2F20E0D21F9F8B838BDF9162
:1039C000CF919F918F912F912FBF2F91FF91EF91C9
:1039D0001895FF938F938FB78F93F8E08081848140
:1039E00087FFFCCF85818F7B806885838F918FBF18
:1039F0008F91FF91EF9118951F920F920FB60F9232
:103A0000112484E00E94E00B1F920F920FB60F92D8
:103A100011248F939F93AF93BF938091E94290912C
:103A2000EA42A091EB42B091EC420196A11DB11D7A
:103A30008093E9429093EA42A093EB42B093EC4228
:103A400081E08093260BBF91AF919F918F910F9052
:103A50000FBE0F901F9018950F930AE00FC00F93A1
:103A600008E00CC00F9306E009C00F9304E006C005
:103A70000F9302E003C00F9300E000C00F920FB657
:103A80000F920BB60F921F921124FF921F932F9348
:103A90003F934F935F936F937F938F939F93AF93D6
:103AA000BF93CF93DF93EF93FF93A2E5B0E4A00F12
:103AB000B11DCD91DC91000F0D5FA02FB0E0FC9007
:103AC000109761F01F2D169518F041F02296FBCF4C
:103AD000E991F9913097B9F30995F5CFA02FB0E0AE
:103AE000FC92FF91EF91DF91CF91BF91AF919F91A8
:103AF0008F917F916F915F914F913F912F911F9186
:103B0000FF901F900F900BBE0F900FBE0F900F9164
:103B100018951F920F920FB60F9211240BB60F92A9
:103B20002F923F924F925F926F927F928F929F92CD
:103B3000AF92BF92CF92DF92EF92FF920F931F93BB
:103B40002F933F934F935F936F937F938F939F93A5
:103B5000AF93BF93EF93FF93CF93DF9300D000D049
:103B6000CDB7DEB781E080930D06409010065090EF
:103B700011062091E8422983E22FEE5F00914C402C
:103B800010914D40E017110619F014F0E150E01BC0
:103B9000F0E0E25EFF4B8081809308068091E44272
:103BA0009091E542A091E642B091E7420196A11DB5
:103BB000B11D8093E4429093E542A093E642B09316
:103BC000E742398131116EC48091E2429091E34223
:103BD0008093E0429093E1428091894690918A4699
:103BE00096958795F201E81BF90BE983FA83E09338
:103BF000E242F093E3428091DE429091DF429C01E9
:103C00003695279536952795821B930B9F01F7FFD5
:103C100003C0319521953109820F931F8093DE42B5
:103C20009093DF42609187467091884621E0681743
:103C3000790708F020E020936D44E981FA811E168F
:103C40001F060CF0A1C021E030E02093DC4230934D
:103C5000DD42E091DC42F091DD422091C64230919C
:103C6000C742E217F30709F494C04091D6414F5F71
:103C70004093D6414091D641433030F01092D64126
:103C8000E093C842F093C9424091E1414111109242
:103C9000E1412090C8423090C9426817790708F086
:103CA000AEC2F1E02F16310409F001C22130310516
:103CB00009F403C28091DF419091E0410196809325
:103CC000DF419093E04120911D40222309F484C0FC
:103CD0000A9708F481C010921D401092DF411092A3
:103CE000E0412AE532E48AE292E4AAEFB1E462EE2E
:103CF00071E4F6E9EF2EF2E4FF2E50E040E04017C9
:103D000051070CF049C0F90110821182128213820E
:103D10001482158216821782285F3F4FFC011082A1
:103D200011821282138214821582168217820896DB
:103D30001C9211961C92119712961C921297139630
:103D40001C92139714961C92149715961C92159713
:103D500016961C92169717961C9217971896FB01A9
:103D60001192119211921192BF01F70110821182EA
:103D7000128213821482158216821782F8E0EF0EE7
:103D8000F11C4F5F5F4FBBCF1092DC421092DD42BF
:103D900060CF1092D6416ECF1092CE421092CF4299
:103DA0001092D0421092D1421092D2421092D3423D
:103DB0001092D4421092D5421092CA421092CB4235
:103DC0001092CC421092CD421092D8421092D94219
:103DD0001092DA421092DB428091DF419091E041F3
:103DE0002091DD413091DE418217930739F4209113
:103DF0001D40211103C021E0209348442091DB4164
:103E00003091DC418217930708F457C180911D401F
:103E1000811153C11092DF411092E0414AE552E412
:103E20002AE232E4AAEFB1E4E2EECE2EE1E4DE2EA5
:103E300086E992E48B839C83F12CE12CE016F10659
:103E40000CF0C3C0FA01408051806280738084808E
:103E50009580A680B780485F5F4FC70163E0880FF9
:103E6000991F6A95E1F7BC016F5E7B4BFB014082B5
:103E700051826282738284829582A682B782F9011E
:103E8000408051806280738084809580A680B78056
:103E9000285F3F4FBC016F517C4BFB014082518238
:103EA0006282738284829582A682B782BA01685048
:103EB0007109FB0110821182128213821482158211
:103EC00016821782B90168507109FB0110821182B4
:103ED0001282138214821582168217824C901196D8
:103EE0005C90119712966C90129713967C90139792
:103EF00014968C90149715969C9015971696AC90E6
:103F000016971796BC9017971896BC016F547C4B68
:103F1000FB01408251826282738284829582A682F2
:103F2000B782BD0168507109FB01108211821282B3
:103F300013821482158216821782F6018190919065
:103F4000A190B1906F0124013501770C4408542CE5
:103F50003201BC016F577C4BFB0180829182A282AF
:103F6000B3824482458246824782B6016450710919
:103F7000FB011082118212821382EB81FC8160802E
:103F8000718082809380A480B58076816781389625
:103F9000EB83FC83875F9C4BFC0160827182828291
:103FA0009382A482B582768367838B819C810897F4
:103FB000FC011082118212821382148215821682F1
:103FC0001782FFEFEF1AFF0A39CF8091CA42909112
:103FD000CB42A091CC42B091CD42AC01BD01770F54
:103FE000440B542FBA0180936D4390936E43A0937A
:103FF0006F43B09370434093714340937243409337
:104000007343409374437091CE426091CF4250917C
:10401000D0424091D1423091D2422091D3429091EE
:10402000D4428091D5427093794360937A43509300
:104030007B4340937C4330937D4320937E43909316
:104040007F43809380431092CE421092CF421092D1
:10405000D0421092D1421092D2421092D34210928A
:10406000D4421092D5421092CA421092CB42109282
:10407000CC421092CD428091D8429091D942A091E9
:10408000DA42B091DB428093754390937643A093DC
:104090007743B09378431092D8421092D94210924D
:1040A000DA421092DB4281E08093474406C0232B22
:1040B00021F01092D6421092D7428091D84290912E
:1040C000D942A091DA42B091DB420196A11DB11D07
:1040D0008093D8429093D942A093DA42B093DB42C6
:1040E0008091D6429091D74201968093D642909388
:1040F000D74229813A81D9010E940D406B017C0190
:10410000FF0CCC08DC2C76019B01AC016C2D7C2DC6
:104110008C2D9C2DA090CE42B090CF42C090D0422A
:10412000D090D142E090D242F090D3420091D4425C
:104130001091D5420E9419402093CE423093CF4235
:104140004093D0425093D1426093D2427093D34275
:104150008093D4429093D542CD01BB0FAA0BBB0BE9
:104160004091CA425091CB426091CC427091CD4275
:10417000840F951FA61FB71F8093CA429093CB420E
:10418000A093CC42B093CD422092C6423092C74217
:104190008091E8428F5F8093E84220914C403091BB
:1041A0004D408217130619F014F01092E84224963D
:1041B000CDBFDEBFDF91CF91FF91EF91BF91AF9166
:1041C0009F918F917F916F915F914F913F912F912F
:1041D0001F910F91FF90EF90DF90CF90BF90AF9025
:1041E0009F908F907F906F905F904F903F902F9017
:1041F0000F900BBE0F900FBE0F901F90189540911F
:10420000E4425091E5426091E6427091E74280912C
:10421000D7419091D841A091D941B091DA4184170A
:104220009507A607B70748F48091EE42811105C0B3
:1042300081E0809348448093EE424091E442509163
:10424000E5426091E6427091E74280916943909126
:104250006A43A0916B43B0916C4384179507A607FE
:10426000B70708F02ACF1092E4421092E54210926C
:10427000E6421092E74281E080931D401092DF41B8
:104280001092E0414AE552E42AE232E4AAEFB1E4B6
:10429000E2EECE2EE1E4DE2E86E992E48B839C836F
:1042A000F12CE12CE016F1060CF0ABC0C70163E085
:1042B000880F991F6A95E1F7BC016F5E7B4BFB018C
:1042C0001082118212821382148215821682178242
:1042D000BC016F517C4BFB01108211821282138250
:1042E0001482158216821782FA01108211821282BC
:1042F00013821482158216821782485F5F4FF9017C
:104300001082118212821382148215821682178201
:10431000285F3F4F4C9011965C90119712966C90CD
:10432000129713967C90139714968C901497159669
:104330009C9015971696AC9016971796BC90179769
:104340001896BC016F547C4BFB0140825182628203
:10435000738284829582A682B782BD0168507109FA
:10436000FB0110821182128213821482158216823E
:104370001782F60181909190A190B1906F01240174
:104380003501770C4408542C3201BC016F577C4B2B
:10439000FB0180829182A282B3824482458246825E
:1043A0004782B60164507109FB01108211821282AA
:1043B0001382EB81FC816080718082809380A48075
:1043C000B580768167813896EB83FC83875F9C4B51
:1043D000FC016082718282829382A482B58276839C
:1043E00067838B819C810897FC0110821182128265
:1043F00013821482158216821782FFEFEF1AFF0ACA
:1044000051CF7091CE426091CF425091D0424091B5
:10441000D1423091D2422091D3429091D4428091A6
:10442000D5427093794360937A4350937B43409392
:104430007C4330937D4320937E4390937F438093CE
:1044400080431092CE421092CF421092D0421092EE
:10445000D1421092D2421092D3421092D442109282
:10446000D5428091CA429091CB42A091CC42B0916A
:10447000CD42AC01BD01770F440B542FBA0180939C
:104480006D4390936E43A0936F43B09370434093FA
:104490007143409372434093734340937443E3CD1D
:1044A0001082F6C03981232F30E029833A83021726
:1044B00013070CF46DCEE981FA813197E983FA8311
:1044C000EF5BFB4B29803A80220C331C26E042161E
:1044D000510434F381E08083F101E657FD4B6080A5
:1044E000718089809A8083E0880C991C8A95E1F715
:1044F000D401AA56BD4B972D990F990B9301492FC3
:10450000592F692F792F892FAC901196BC90119754
:104510001296CC9012971396DC9013971496EC9009
:1045200014971596FC90159716960C91169717965A
:104530001C9117970E9419402C9311963C93119748
:1045400012964C93129713965C93139714966C9350
:10455000149715967C93159716968C931697179625
:104560009C938091894690918A4696958795681A82
:10457000790AF401E65AFD4BA091E042B091E14284
:1045800093010E940D406B017C01FF0CCC08DC2CD8
:1045900076019B01AC016C2D7C2D8C2D9C2DA08077
:1045A000B180C280D380E480F580068117810E94AB
:1045B00019402083318342835383648375838683C8
:1045C0009783F401E65DFD4BA091E242B091E34296
:1045D00093010E940D406B017C01FF0CCC08DC2C88
:1045E00076019B01AC016C2D7C2D8C2D9C2DA08027
:1045F000B180C280D380E480F580068117810E945B
:104600001940208331834283538364837583868377
:104610009783F401E650FE4B9301D3010E940D40B5
:104620006B017C01FF0CCC08DC2C76019B01AC01FA
:104630006C2D7C2D8C2D9C2DA080B180C280D380D0
:10464000E480F580068117810E9419402083318320
:10465000428353836483758386839783E981FA81D8
:10466000EE0FFF1FEE0FFF1FEE51FE4BE983FA83A3
:10467000C301770CAA0BBB0B40815181628173810E
:10468000840F951FA61FB71F80839183A283B383D6
:10469000F101E657FD4B408251827ACDCF92DF92F5
:1046A000EF92FF920F931F93CF93DF9300D0CDB77C
:1046B000DEB71092404510924145F8EECF2EF3E060
:1046C000DF2EE12CF12CC0924245D0924345E0927E
:1046D0004445F092454540E151E440933E455093B6
:1046E0003F4580E698E080934A4590934B4585EAA4
:1046F0009FE080934C4590934D4582E080934E45DA
:1047000010924F45109250451092D7451092D845BF
:10471000C092D945D092DA45E092DB45F092DC4573
:104720004093D5455093D64540E058E04093E1454D
:104730005093E2454EEA5FE04093E3455093E445F1
:104740008093E54581E08093E6451092E74540E09F
:104750005BE167EB70E080E08F5F863011F487E00B
:104760000BC07695679557954795413099E0590765
:104770009DE36907710580F794E090937846482F90
:104780004095242F217030E044E0220F331F4A95DA
:10479000E1F731E08162822B8093774640E459E073
:1047A00040936C4650936D4690936F4686E080939D
:1047B0007046109272461092734610928B46109279
:1047C0008C4623E020938F46309390468EE690E00F
:1047D000A0E0B0E08093914690939246A0939346D8
:1047E000B093944610929546109296461092974632
:1047F000109298461092994610929A4610929B46B3
:1048000010929C461092A1461092A2462093A54673
:104810003093A6468093A7469093A846A093A946B6
:10482000B093AA461092AB461092AC461092AD4699
:104830001092AE461092AF461092B0461092B1461A
:104840001092B24681E090E00090624002C0880F72
:10485000991F0A94E2F78093894690938A4655E01F
:10486000969587955A95E1F7809387469093884669
:10487000809161400E9408088EEF90E08093D946B5
:104880009093DA468DE190E08093D5469093D6469A
:104890008DE090E08093D3469093D44684E890E0F6
:1048A0008093DB469093DC468DEF91E08093DD466C
:1048B0009093DE461092D7461092D84604E810E056
:1048C00009831A83CE0101960E94CA0D78019DE1E9
:1048D000E90EF11C8F3F09F4E0C00093D746109316
:1048E000D8468DEFE81681E0F8065CF4E982FA829A
:1048F000CE0101960E94CA0D8F3F09F4CAC00E94E2
:104900007C0E8BE28093DF4682ED8093E04681E16E
:104910008093E14621E02093E24689E18093E346DB
:104920008AE097EFA9E4B4E48093E4469093E546E7
:10493000A093E646B093E74680E090E0A0E7B3E4BA
:104940008093E8469093E946A093EA46B093EB46FD
:1049500080E090E0A8E4B2E48093EC469093ED46CA
:10496000A093EE46B093EF4686E696E2A6E9B3E45E
:104970008093F0469093F146A093F246B093F346AD
:104980008DEC9CECACE4B0E48093F4469093F54657
:10499000A093F646B093F74646E656E266E173E426
:1049A0004093F8465093F9466093FA467093FB465D
:1049B0008093FC469093FD46A093FE46B093FF463D
:1049C0004093004750930147609302477093034719
:1049D0008093044790930547A0930647B0930747F9
:1049E00041E75DE360E772E440930847509309476D
:1049F00060930A4770930B4780930C4790930D4741
:104A0000A0930E47B0930F47409310475093114720
:104A10006093124770931347809314479093154700
:104A2000A0931647B09317474093184750931947E0
:104A300060931A4770931B4780931C4790931D47C0
:104A4000A0931E47B0931F478DEC9CECACE1B1E402
:104A50008093204790932147A0932247B093234708
:104A60002093244784E690E080932547909326473F
:104A70002093274710924047109241470F900F9084
:104A8000DF91CF911F910F91FF90EF90DF90CF902A
:104A900008959DE1E90EF11C24CF87018DEFE81602
:104AA00081E0F80609F00CCF2CCFCF93DF93CDB780
:104AB000DEB7C95BD109CDBFDEBF88ED21E030E0B4
:104AC00084BF2093620091E084BF909363009DE2D5
:104AD00084BF9093800093E084BF9093600080E057
:104AE00090E22091650020FDCEC021E02093030AD2
:104AF0008EEF8093260A8093270A9BE09093000A0A
:104B000032E03093E6052093430A8093660A80934F
:104B1000670A9093400A9093E705E0E0FBE027E006
:104B20009EEF85E021839487158680837096E0341C
:104B30003BE0F307B9F72FEF3FE02093AA0B309348
:104B4000AB0B90E89093820B1092810B2EEF30E02C
:104B50002093AE0B3093AF0B98ED24E194BF2093DC
:104B6000680091E19093800B809302069EE0909301
:104B7000050690E690930306809300068091B000AE
:104B8000887F85608093B0008091B200887F8560C7
:104B90008093B2008FED9EE280932C0B90932D0BAF
:104BA00081E08093250B1092210B83E08093200BF2
:104BB00078940E940817AE014B5C5F4F4FAB58AF23
:104BC000BE01665F7F4F69AF7AAF8EE395E40E94C6
:104BD000080A892B09F49EC08EE395E40E94E60939
:104BE000D090ED428A3009F0FBC4AD2DB0E0A95061
:104BF000BB4B1C92E091F744EF53EC3308F082C0BA
:104C00000E2E000CFF0BE95FF94D0C940440D82ADE
:104C10008226822682268226822682268226822654
:104C20008226822682268226822682268226822644
:104C30008226822682268226822682268226822634
:104C40008226822682268226822682268226822624
:104C50008226822649267526412756275F277627F2
:104C60008226442931279127DA28E22844298226FE
:104C70005E2982267429A329752A82268E2A9B2AD8
:104C8000B12A8226B82A019709F02BCF83E00E942F
:104C9000E00B72E0D71236C088EF94E40E94CA3A63
:104CA000843071F48BE28093DF4681EB91E00E94C7
:104CB000420F66E87DE08EE395E40E94050F22C076
:104CC000883069F0893029F01092DF4690E080E06A
:104CD000EECF8BE58093DF4683E993E0E8CF86E56E
:104CE0008093DF4684E693E0E2CF82E0D8120AC0E8
:104CF00088EF94E40E94CA3A019709F0AFC081E0BE
:104D00008093404780E4A7EFB4E41D928A95E9F7C9
:104D10001092ED4280914844882369F110924844F2
:104D200080913A45882339F18091294087FD19C047
:104D30008932A4F4282F082E000C330BF901ED5111
:104D4000FF4B90819F3F51F026543F4BD901EC918E
:104D5000B0E2EB9FF0011124FC5F918361E00E94BF
:104D6000A0130E94EC0860E08CEC0E94BB0861E09C
:104D700084E40E94BB0880914744882311F40C947A
:104D80009D3710924744F89420914C4030914D400B
:104D900090E080E0821793070CF02FC4FC01EF5BDA
:104DA000FB4B4081411158C0FC01B3E0EE0FFF1FE7
:104DB000BA95E1F7DF01AF5EBB4B1C9211961C92D6
:104DC000119712961C92129713961C921397149691
:104DD0001C92149715961C92159716961C9216976E
:104DE00017961C92DF01AF51BC4B1C9211961C927E
:104DF000119712961C92129713961C921397149661
:104E00001C92149715961C92159716961C9216973D
:104E100017961C92DF01AF54BC4B1C9211961C924A
:104E2000119712961C92129713961C921397149630
:104E30001C92149715961C92159716961C9216970D
:104E400017961C92EF57FC4B10821182128213822C
:104E5000148215821682178201969CCF10924047C9
:104E600051CF92E0D9124ECF88EF94E40E94CA3A13
:104E7000019721F481E08093414744CF109241474C
:104E800041CF88EF94E40E94C73A6B017C0165E74B
:104E90007DE08EE395E40E94A80B42E050E0C7015C
:104EA000B6010E943B1062E77DE005CF8AE08C935B
:104EB00068EF74E48EE395E40E94BA0E23CFA3E07A
:104EC000DA1220CF88EF94E40E94C73A0E94AD3EE8
:104ED0006B01CB010E948A166BE67DE08EE395E4C0
:104EE0000E94A80BC6010E94470F0CCF88EF94E4E4
:104EF0000E94CA3A8093E04664E67DE08EE395E442
:104F00000E94A80B4091E04650E070E060E02AE08B
:104F10008EE395E40E94C10E8EE395E40E94020F99
:104F2000F1CE60E270E087EF94E40E9422400097A7
:104F300011F40C94223A8C01075F1444C80199279C
:104F400060E270E088509B4B0E942240CC24C394C6
:104F5000C00E009711F40C94153AFC01E75FF4447D
:104F60005F01602F81E00E9473157C016A2D8C2DFA
:104F70000E949F152B013C016D2D81E08A0D0E943E
:104F80009F156BAF7CAF8DAF9EAFF7E0EF16F104CE
:104F900008F038C0F701E153F84D0C940440D627CF
:104FA00026284428622880289E28BC282091254055
:104FB000309126404091274050912840C301B201D2
:104FC0000E94C93C4B015C016091894670918A4600
:104FD00090E080E00E94683C9B01AC01C501B401F7
:104FE0000E94453E609348407093494080934A40F8
:104FF00090934B404092E4465092E5466092E646DC
:105000007092E7466DE57DE08EE395E40E94A80B83
:10501000C7010E94420F6BE57DE08EE395E40E949C
:10502000A80B42E050E0C301B2010E943B1069E5C9
:105030007DE08EE395E40E94A80B42E050E06BAD6A
:105040007CAD8DAD9EAD0E942F105CCE0BAD1CAD26
:105050002DAD3EADB301A20183E00E94B416409293
:10506000F0465092F1466092F2467092F3462BADB4
:105070003CAD4DAD5EAD2093F4463093F546409384
:10508000F6465093F746BECF0BAD1CAD2DAD3EADF1
:10509000B301A20184E00E94B4164092F8465092F7
:1050A000F9466092FA467092FB464BAD5CAD6DAD31
:1050B0007EAD4093FC465093FD466093FE46709350
:1050C000FF46A0CF0BAD1CAD2DAD3EADB301A2018F
:1050D00085E00E94B41640920047509201476092CA
:1050E0000247709203476BAD7CAD8DAD9EAD609372
:1050F000044770930547809306479093074782CFF4
:105100000BAD1CAD2DAD3EADB301A20186E00E94FA
:10511000B416409208475092094760920A4770922D
:105120000B478BAD9CADADADBEAD80930C4790935E
:105130000D47A0930E47B0930F4764CF0BAD1CAD46
:105140002DAD3EADB301A20188E00E94B41640929D
:1051500010475092114760921247709213472BAD3F
:105160003CAD4DAD5EAD2093144730931547409351
:1051700016475093174746CF0BAD1CAD2DAD3EAD36
:10518000B301A20189E00E94B416409218475092E0
:10519000194760921A4770921B474BAD5CAD6DADDD
:1051A0007EAD40931C4750931D4760931E477093FC
:1051B0001F4728CF51E0D512A5CD0E9431120E9481
:1051C0001011A0CD60E270E087EF94E40E942240CD
:1051D0000097F9F46D2D81E00E9473158C01011583
:1051E000110569F10130110591F160E57DE08EE373
:1051F00095E40E94A80B68E47DE0012B09F45BCDE7
:1052000042E050E0C301B2010E943B106CE47DE03B
:1052100052CDBC01675F74447B0181E00E9473152D
:105220008C016D2D81E08E0D0E947315BC01990FCC
:10523000880B990B0E946A3C2B013C01D0CF109245
:105240008B4681E080938C4610922447CECFC301D9
:10525000B2010E94AD3E6B01072E000CEE08FF0864
:10526000C0929146D0929246E0929346F092944634
:1052700021E020938B4620938C4620932447609313
:10528000254770932647B1CF88EF94E40E94CA3A2D
:10529000882389F099278034910514F08FE390E0FA
:1052A0008093E14662E47DE08EE395E40E94A80BE2
:1052B0004091E14629CE81E090E0F2CF88EF94E47E
:1052C0000E94CA3A8F718093E3466DE37DE08EE3DE
:1052D00095E40E94A80B8091E3468251990B0E94AD
:1052E000420F68E37DE0E7CC71E0D7120BCD66E6B4
:1052F00076E08EE395E40E94050F86E190E00E943F
:10530000F90D882389F0CE0101960E94D10D898183
:105310009A8197FD09C091958195910989839A8316
:10532000CE0101960E94540E68E376E08EE395E488
:105330000E94050F68EC70E080E090E00E94420C53
:105340000C940000DFCC81E0D812DCCC6EE276E079
:105350008EE395E40E94050F86E190E00E94F90D2E
:10536000811128C019821A826FE4CE0101960E9431
:10537000310E81E090E089839A8365E4CE01019645
:105380000E94310E82E090E089839A836DE4CE0121
:1053900001960E94310E03E010E009831A836FEF3B
:1053A000CE0101960E94310E0F5F1F4F011592E052
:1053B000190799F787E690E089839A8386E190E060
:1053C0008B839C83CE0101960E94540E0FED16E450
:1053D00087E090E0D8016D918D017C01BFEFEB1A61
:1053E000FB0A8DAB9EABCE01C5960E94310EC70164
:1053F0008A36910579F790E080E00E94F90D8111DD
:1054000022C066E076E08EE395E40E94A80B2AE0D5
:1054100040E052E060E070E08EE395E40E94C10E4F
:1054200060EE75E08EE395E40E94050F60E072E0A7
:1054300090E080E00E943C106EED75E08EE395E414
:105440000E94A80B0EC0CE0101960E94D10D8B8147
:105450009C81019669F46DE875E08EE395E40E9405
:10546000050F8EE395E40E94020F6DE076E023CCF9
:1054700060E875E08EE395E40E94A80B4B815C81A7
:1054800070E060E02AE08EE395E40E94C10E09819D
:105490001A8117FF03C011950195110904501109D4
:1054A00062E775E08EE395E40E94A80BC8010E94B4
:1054B000420F6BE675E08EE395E40E94A80B8981AC
:1054C0009A8197FF06C060E675E08EE395E40E943E
:1054D000A80B8EE395E40E94020FB80187E090E0EC
:1054E0000E943C106EE575E0A9CFF2E0DF120ACC15
:1054F000109227478091F844813319F481E080931A
:105500002747809127470E946C148091274769E2C2
:105510007DE08111D0CB69E17DE0CDCB22242394C5
:10552000D210F0CB6EE07DE08EE395E40E94A80BF4
:1055300062E571E4BFCC12E0312ED310E3CB1092C0
:10554000E2468091F844813319F481E08093E24689
:105550008091E24668E07DE08111ADCB61E07DE0C5
:10556000AACBCC24C39463EF7CE0DC10CBCBA3CBE1
:10557000EE24E394DE10C6CB69ED7CE08EE395E487
:105580000E94050F0E947C0EE5E5F4E41192119251
:10559000119211922DE634E42E173F07B9F71092BD
:1055A0009546109296461092974610929846AACB2E
:1055B00031E0D312A7CB05E716E0F801F490FF2005
:1055C00061F0FAE0FF1203C08DE00E94C60B8F2D40
:1055D0000E94C60B0F5F1F4FF0CF63E776E06BCBE7
:1055E000BFE3BD1508F496CBED2DF0E0E950FB4B81
:1055F0008083D394D092ED428DCB0BE816E4F12C4E
:10560000E12CCC24C394D12CA6E1BA2EF8018181DF
:10561000882309F477C080818823D1F1848189327D
:1056200028F590E0FC01ED51FF4B40814F3FF1F038
:10563000FC01E654FF4B2081F0E22F9F90011124E2
:105640003C5F8F569F4BDC018C91F0E0E0E08830AE
:1056500020F4F9017096E80FF11D9FB7F894D90175
:1056600012964C938081886080839FBF66ED7CE0BA
:1056700080919046E114F10421F068ED7CE0809186
:10568000A6460E9429093EC0EE24E394F12CBECF29
:1056900085818932A0F590E0FC01EF56FF4B208117
:1056A0002F3F69F186549F4BDC018C91E82FE295E6
:1056B000EE0FE07EE20FF0E0E05FFB4F9081917F24
:1056C000908390E0FC0134E0EE0FFF1F3A95E1F784
:1056D000422F50E0160102C0220C331C2A95E2F73B
:1056E0002382880F991FFC01EE5AFF4B440F551F70
:1056F0000190F081E02DE40FF51F10821182D80196
:1057000011961C92BE9CF001BF9CF00D11249F01CC
:105710002557394BF90186859785A089B189892B51
:105720008A2B8B2BC1F04685578560897189F801DA
:1057300082859385A485B585840F951FA61FB71F05
:1057400082879387A487B587D9011E961D921D92E3
:105750001D921C9251970A5E1F4FEA94EF2809F0A0
:1057600093CF78942091794330917A4340917B4351
:1057700050917C4360917D4370917E4380917F4343
:10578000909180438090754390907643A0907743AA
:10579000B090784310916D4300916E4330906F4309
:1057A00020907043C09071436096CFAE6097D090C8
:1057B00072436296DFAE6297E09073436496EFAEF9
:1057C0006497F09074432C96FFAE2C97C0906D4375
:1057D0006696CFAE6697D0906E436A96DFAE6A97B4
:1057E000E0906F436E96EFAE6E97F0907043A09688
:1057F000FFAEA097C0907143A496CFAEA497D0906F
:105800007243A896DFAEA897E0907343AC96EFAED4
:10581000AC97F0907443AE96FFAEAE97C0907543D0
:10582000D0907643E0907743F09078432396CCAEC7
:10583000DDAEEEAEFFAE2397C0907543D0907643B9
:10584000E0907743F09078432796CCAEDDAEEEAE95
:10585000FFAE27970E94E23E6B017C01C501B401B7
:105860000E946A3C9B01AC01C701B6010E94453E03
:105870006B017C01212F302F432D522D60966FAD8F
:10588000609762967FAD629764968FAD64972C9611
:105890009FAD2C970E94DE3E4B015C0166962FADBA
:1058A00066976A963FAD6A976E964FAD6E97A096D3
:1058B0005FADA097A4966FADA497A8967FADA8976B
:1058C000AC968FADAC97AE969FADAE970E94DE3E84
:1058D0009B01AC01C501B4010E94C93C4B015C01B4
:1058E00023966CAD7DAD8EAD9FAD23970E946A3C33
:1058F0009B01AC01C501B4010E94453E4B015C0116
:1059000027966CAD7DAD8EAD9FAD27970E946A3C0A
:105910009B01AC01C501B4010E94453E9B01AC0155
:10592000C701B6010E94DD3D0E94773FC09048400C
:10593000D0904940E0904A40F0904B406996CCAE00
:10594000DDAEEEAEFFAE6997A70196010E94C93C9D
:105950006D966CAF7DAF8EAF9FAF6D9760936E44C9
:1059600070936F448093704490937144E0904C40E6
:10597000F0904D406F96EEAEFFAE6F9780907543FE
:1059800090907643A0907743B090784360916943BC
:1059900070916A4380916B4390916C430E94683C84
:1059A0006B017C016F96AEADBFAD6F971196A501EF
:1059B00094010E94A63D0E946A3C9B01AC01C70174
:1059C000B6010E94453EA3966CAF7DAF8EAF9FAFF0
:1059D000A397F0906D44CB57DF4FF882C558D04065
:1059E000C0904E40D0904F40E0905040F0905140D9
:1059F000CA57DF4FC882D982EA82FB82C658D0409C
:105A0000C0902A40D0902B40E0902C40F0902D4048
:105A1000AB96CCAEDDAEEEAEFFAEAB9725E534E493
:105A200063962EAF3FAF639741EF52E461964EAF5E
:105A30005FAF619769E474E425966EAF7FAF2597F9
:105A40008EE994E421968EAF9FAF2197A1E5B3E450
:105A5000AD96AEAFBFAFAD97E9E3F3E4E196EEAF3D
:105A6000FFAFE1972EE230E465962EAF3FAF65972A
:105A700042E754E4AF964EAF5FAFAF97312C212C85
:105A80006F96CEACDFAC6F972C143D040CF0EDC4D8
:105A9000810183E0000F111F8A95E1F7F801EF5EA5
:105AA000FB4BD080C657DF4FD882CA58D040E18028
:105AB000C557DF4FE882CB58D040F280C457DF4F44
:105AC000F882CC58D040C380C357DF4FC882CD582E
:105AD000D040D480C257DF4FD882CE58D040E58026
:105AE000C157DF4FE882CF58D040F680C057DF4F14
:105AF000F882C059D040C780CF56DF4FC882C15905
:105B0000D040AD96AEADBFADAD97CD90DD90ED90F0
:105B1000FD90AD96AEAFBFAFAD972B96CCAEDDAEE0
:105B2000EEAEFFAE2B97F801EF51FC4BC080CE5686
:105B3000DF4FC882C259D040D180CD56DF4FD882C6
:105B4000C359D040E280CC56DF4FE882C459D040E0
:105B5000F380CB56DF4FF882C559D040C480CA5677
:105B6000DF4FC882C659D040D580C956DF4FD88292
:105B7000C759D040E680C856DF4FE882C859D040A8
:105B8000F780C756DF4FF882C959D040E196AEADD5
:105B9000BFADE197CD90DD90ED90FD90E196AEAF79
:105BA000BFAFE197E596CCAEDDAEEEAEFFAEE597CA
:105BB000C0907543D0907643E0907743F09078435F
:105BC000E996CCAEDDAEEEAEFFAEE997D0906D4378
:105BD000C656DF4FD882CA59D040E0906E43C556B2
:105BE000DF4FE882CB59D040F0906F43C456DF4F6F
:105BF000F882CC59D040C0907043C356DF4FC88262
:105C0000CD59D040D0907143C256DF4FD882CE5983
:105C1000D040E0907243C156DF4FE882CF59D04068
:105C2000F0907343C056DF4FF882C05AD040C09006
:105C30007443CF55DF4FC882C15AD04098012F57C7
:105C40003C4B7901D901BC91CE55DF4FB883C25A84
:105C5000D040F901F181CD55DF4FF883C35AD040D0
:105C6000D9011296BC91CC55DF4FB883C45AD040AD
:105C7000F901F381CB55DF4FF883C55AD040D901E4
:105C80001496BC91CA55DF4FB883C65AD040F9016B
:105C9000F581C955DF4FF883C75AD040D901169610
:105CA000BC91C855DF4FB883C85AD040F901F7817D
:105CB000C755DF4FF883C95AD040209175433091C2
:105CC00076434091774350917843ED962CAF3DAFAA
:105CD0004EAF5FAFED974091754350917643609121
