:10020000E4C600000CC700000AC7000008C70000D1
:1002100006C7000004C7000002C7000000C70000B6
:100220000C947018FCC60000FAC60000F8C6000066
:10023000F6C60000F4C60000F2C60000F0C60000DA
:10024000EEC60000ECC60000EAC60000E8C60000EA
:10025000E6C600000C94CB170C94C6170C94D0176C
:100260000C946718DCC600000C94BE18D8C60000B9
:10027000D6C60000D4C600000C946A180C94391835
:10028000CEC60000CCC60000CAC600000C9461189F
:10029000C6C60000C4C60000C2C60000C0C600003A
:1002A000BEC60000BCC60000BAC60000B8C600004A
:1002B000B6C600000C946D180C946418B0C600000B
:1002C000AEC60000ACC60000AAC60000A8C600006A
:1002D000A6C600000C94BE170C94B9170C94C31753
:1002E0009EC600009CC600009AC6000098C600008A
:1002F00096C6000005A84CCDB2D44EB93836A90236
:100300000C50B9918688083CA6AAAA2ABE00000013
:10031000803F4E414E494E495459494E46CDCCCC72
:100320003D0AD7233C17B7D13877CC2B329595E6C9
:10033000241FB14F0A000020410000C84200401CA9
:100340004620BCBE4CCA1B0E5AAEC59D74524620F8
:100350006F6666005246206F6E0074656D705F6553
:100360006E61626C65203D200070756C7365207055
:100370006572696F64203D200070756C7365732031
:100380003D2000646174616C6F67203D2000693618
:100390004C656164203D2000693643616C203D203E
:1003A0000069354C656164203D2000693543616C0E
:1003B000203D200069344C656164203D2000693493
:1003C00043616C203D200069334C656164203D2011
:1003D00000693343616C203D200069324C656164E3
:1003E000203D2000693243616C203D200069314C82
:1003F000656164203D2000693143616C203D20002F
:10040000617373756D656456203D20007643616CA1
:10041000203D200043616C6962726174696F6E3ABD
:10042000002064426D002C20002C204E6F6465205B
:1004300000204D487A2C2047726F75702000426171
:100440006E64200053657474696E67733A004E6F72
:1004500020454550524F4D20636F6E666967004CD2
:100460006F6164656420454550524F4D20636F6E47
:10047000666967002000204E6F64653A20002047BF
:10048000726F75703A20003931354D487A00383630
:10049000384D487A003433334D487A00204672652F
:1004A000713A200052464D3639435720004F70654F
:1004B0006E456E657267794D6F6E69746F722E6FDF
:1004C000726700656D6F6E547820563420434D205E
:1004D000436F6E74696E756F7573204D6F6E6974BE
:1004E0006F72696E672056000A002028686964648C
:1004F000656E292E00206279746573002C2044619A
:1005000074612073697A653A2000205369676E61CF
:10051000747572653A20004E6F20646174612062C8
:100520006C6F636B20666F756E64202D204545509F
:10053000524F4D206170706561727320746F20623C
:100540006520666F726D617474656420746F204FEE
:10055000454D205374616E6461726420627574202D
:10056000756E757365642E000A0020627974657378
:100570002C206E6F7420666F726D617474656420D8
:10058000746F204F454D205374616E646172640036
:1005900053697A653A2000446F6E652E204E657768
:1005A00020636F6E66696720736176656420746F7F
:1005B00020454550524F4D00536176696E672E2E8F
:1005C0002E00536B657463682077696C6C206E6FC6
:1005D000772072657374617274207573696E672019
:1005E00064656661756C7420636F6E6669672E0062
:1005F000526573657474696E672E2E2E0020000A92
:10060000417661696C61626C6520636F6D6D616ECE
:1006100064733A0A6C09092D206C6973742074683C
:10062000652073657474696E67730A7209092D20F9
:10063000726573746F726520736B65746368206490
:10064000656661756C74730A7309092D2073617690
:10065000652073657474696E677320746F204545F7
:1006600050524F4D0A7609092D2073686F77206626
:1006700069726D776172652076657273696F6E0A53
:100680007A09092D207A65726F20656E6572677927
:100690002076616C7565730A7809092D2065786983
:1006A000742C206C6F636B20616E6420636F6E74BA
:1006B000696E75650A3F09092D2073686F7720748C
:1006C000686973207465787420616761696E0A0ACD
:1006D000773C783E09092D207475726E2052464D84
:1006E00020576972656C6573732064617461206F53
:1006F00066663A2078203D2030206F72206F6E3A77
:100700002078203D20310A623C6E3E09092D20737D
:10071000657420722E662E2062616E64206E203D0C
:1007200020612073696E676C65206E756D657261FE
:100730006C3A2034203D203433334D487A2C203815
:10074000203D203836384D487A2C2039203D20393C
:1007500031354D487A20286D61792072657175694F
:100760007265206861726477617265206368616E8A
:100770006765290A703C6E6E3E09092D2073657409
:100780002074686520722E662E20706F7765722E39
:10079000206E6E202D20616E20696E746567657213
:1007A0002030202D20333120726570726573656EA4
:1007B00074696E67202D31382064426D20746F207B
:1007C0002B31332064426D2E2044656661756C7454
:1007D0003A20323520282B372064426D290A673CA5
:1007E0006E6E6E3E092D20736574204E6574776FB2
:1007F000726B2047726F757020206E6E6E202D20F8
:10080000616E20696E746567657220284F454D20C2
:1008100064656661756C74203D20323130290A6E42
:100820003C6E6E3E09092D20736574206E6F646501
:10083000204944206E3D20616E20696E74656765B5
:100840007220287374616E64617264206E6F6465D7
:10085000206964732061726520312E2E3630290A9A
:100860000A643C78782E783E092D2078782E7820FE
:100870003D206120666C6F6174696E6720706F69DE
:100880006E74206E756D62657220666F722074687A
:100890006520646174616C6F6767696E672070655D
:1008A00072696F640A633C6E3E09092D206E203D1B
:1008B000203020666F72204F46462C206E203D204F
:1008C0003120666F72204F4E2C20656E61626C6520
:1008D00020766F6C746167652C2063757272656E2B
:1008E00074202620706F77657220666163746F7262
:1008F0002076616C75657320746F20736572696111
:100900006C206F757470757420666F722063616CF3
:100910006962726174696F6E2E200A663C78783E57
:1009200009092D207878203D20746865206C696E57
:1009300065206672657175656E637920696E204801
:100940007A3A206E6F726D616C6C7920656974689B
:100950006572203530206F722036300A6B3C783E4D
:10096000203C79792E793E203C7A7A2E7A3E0A090B
:10097000092D2043616C69627261746520616E208B
:10098000616E616C6F67756520696E707574206348
:1009900068616E6E656C3A0A0909202078203D2056
:1009A000612073696E676C65206E756D6572616C30
:1009B0003A2030203D20766F6C746167652063615A
:1009C0006C6962726174696F6E2C2031203D206306
:1009D00074312063616C6962726174696F6E2C207E
:1009E00032203D206374322063616C6962726174ED
:1009F000696F6E2C206574630A0909202079792EAD
:100A000079203D206120666C6F6174696E6720708B
:100A10006F696E74206E756D62657220666F7220EC
:100A200074686520766F6C746167652F6375727288
:100A3000656E742063616C6962726174696F6E20A7
:100A4000636F6E7374616E740A090920207A7A2EBE
:100A50007A203D206120666C6F6174696E6720703A
:100A60006F696E74206E756D62657220666F72209C
:100A70007468652070686173652063616C69627277
:100A80006174696F6E20666F722074686973206389
:100A90002E742E20287A206973206E6F74206E6564
:100AA000656465642C206F722069676E6F7265647F
:100AB00020696620737570706C6965642C20776896
:100AC000656E2078203D2030290A09092020652EF6
:100AD000672E206B30203235362E380A0909202047
:100AE00020202020206B312039302E3920322E302A
:100AF000300A613C78782E783E092D2078782E785F
:100B0000203D206120666C6F6174696E6720706F94
:100B1000696E74206E756D62657220666F722074E6
:100B2000686520617373756D656420766F6C7461A0
:100B30006765206966206E6F20612E632E206973C1
:100B40002064657465637465640A6D3C783E203C7E
:100B500079793E092D206D657465722070756C730E
:100B60006520636F756E74696E673A0A0909202003
:100B70002078203D203020666F72204F46462C2082
:100B800078203D203120666F72204F4E2C203C791A
:100B9000793E203D20616E20696E74656765722024
:100BA000666F72207468652070756C7365206D695E
:100BB0006E696D756D20706572696F6420696E2055
:100BC0006D732E202879206973206E6F74206E65F6
:100BD000656465642C206F722069676E6F7265644E
:100BE000207768656E2078203D2030290A743020F7
:100BF0003C793E092D207475726E2074656D7065A8
:100C0000726174757265206D6561737572656D656D
:100C10006E74206F6E206F72206F66663A207920A6
:100C20003D203020666F72204F46462C2079203DB3
:100C3000203120666F72204F4E0A743C783E203C73
:100C400079793E203C79793E203C79793E203C7987
:100C5000793E203C79793E203C79793E203C797977
:100C60003E203C79793E0A09092D206368616E6750
:100C70006520612074656D706572617475726520A0
:100C800073656E736F72277320616464726573732A
:100C9000206F7220706F736974696F6E3A0A090968
:100CA000202078203D20612073696E676C65206E7E
:100CB000756D6572616C3A2074686520706F736938
:100CC00074696F6E206F66207468652073656E733B
:100CD0006F7220696E20746865206C6973742028B7
:100CE000312D6261736564290A0909202079792010
:100CF0003D20382068657861646563696D616C20AA
:100D0000627974657320726570726573656E74695B
:100D10006E67207468652073656E736F7227732029
:100D2000616464726573730A090920202020652EAE
:100D3000672E2020323820383120343320333120C0
:100D400030372030302030302044390A0909202043
:100D50004E2E422E2053656E736F72732043414EA8
:100D60004E4F542062652061646465642E0A00451C
:100D70006E657267792076616C7565732073657432
:100D800020746F207A65726F00436F6E74696E75A0
:100D9000696E672E2E2E005246206F666600524600
:100DA000206F6E00456D6F6E5478563334434D207E
:100DB00052464D36396E20436F6E74696E756F758D
:100DC00073204D6F6E69746F72696E6720560020D4
:100DD00064426D0070203D20004E6F646520006FFE
:100DE000666600206D730050756C7365733A200061
:100DF0002000200043616C3A206B0047726F7570D1
:100E00002000467265713A200020730064617461AD
:100E10006C6F6720706572696F643A2000204D48DE
:100E20007A00005EBCE2613FDD83C29C7E20A3FDB0
:100E30001F41009D23BE46DB65F88C11AF32CA57B7
:100E4000E9742C7066363A002C7066353A002C70C6
:100E500066343A002C7066333A002C7066323A00E1
:100E60002C7066313A002C49363A002C49353A004C
:100E70002C49343A002C49333A002C49323A002CA0
:100E800049313A002C70756C73653A002C54333A32
:100E9000002C54323A002C54313A002C45363A009A
:100EA0002C45353A002C45343A002C45333A002C79
:100EB00045323A002C45313A002C50363A002C503D
:100EC000353A002C50343A002C50333A002C503232
:100ED0003A002C50313A002C56726D733A004D5343
:100EE000473A002056004143206D697373696E676D
:100EF000202D204170706172656E7420506F77658F
:100F0000722063616C6320656E61626C65642C2085
:100F1000617373756D696E6720004143207072655F
:100F200073656E74202D205265616C20506F77655B
:100F3000722063616C6320656E61626C6564002081
:100F4000656E61626C65642E0054656D70657261DA
:100F500074757265206D6561737572656D656E740B
:100F60002069730053656E736F72206D6179206E16
:100F70006F742062652072656C6961626C65002027
:100F80000030002C20776974682061646472657396
:100F90007365732E2E2E0054656D706572617475C5
:100FA00072652053656E736F727320666F756E6421
:100FB000203D20000A0000080A400CFFC000C000CD
:100FC0000002010406030003071E11241FBECFEF19
:100FD000CDBFDFE7DEBF11E4A0E0B0E4EEE4FEE762
:100FE00000E00BBF02C007900D92A237B107D9F7FE
:100FF00026E4A2E7B1E401C01D92A13EB207E1F7E9
:1010000017E0C5EED7E004C02197FE010E94ED3E37
:10101000C43ED107C9F70E940B200C94253FF0C8AD
:10102000893260F590E0FC01EF51FF4BE081EF3F2A
:1010300029F188549F4BDC018C9190E0DC01AA0FD0
:10104000BB1FA05BBF4B2D913C9121153105B1F029
:101050004E2F50E0440F551F240F351FD9016D93BB
:101060007C93E05FA5E0880F991FAA95E1F7E80F50
:10107000F0E0FC5F8081887F826080830895CF9359
:10108000DF93282F30E09FEF893220F5E901C15727
:10109000DF4B98819F3FE9F0F901E854FF4BA081B5
:1010A00040E2A49FD0011124BC5FF901EF51FF4B36
:1010B000E081E830C0F5AD01405F5F4FE40FF52FF0
:1010C000F11D4FB7F89412969C939081977F90836F
:1010D0004FBF988190931746893240F528543F4B73
:1010E000F9018081F4E08F9FC0011124809318469C
:1010F000909319461092224610922446109223464D
:10110000109221461092204610921F4610921E46C1
:1011100010921D4610921C4610921B4610921A46C1
:10112000DF91CF910895F0E0E0E0CBCF8CEF93E03A
:10113000DDCF90911746E0911846F0911946292F7E
:10114000209580FF15C0F89481818223818380815E
:10115000892B808380E58A95F1F78181982B918393
:101160007894A9E4B1E01197F1F700C00000089568
:10117000F8948181822381838081892B8083A5E8F3
:10118000B1E01197F1F700C000008181982B9183A5
:101190007894B8E2BA95F1F7089580911746E091F6
:1011A0001846F0911946F8949081982B90832181EC
:1011B000382F30952323218398E19A95F1F7908178
:1011C0009323908390E59A95F1F792817894EDE3DB
:1011D000F1E03197F1F700C00000982381E009F4B5
:1011E00080E00895FF920F931F93CF93DF93F82E23
:1011F000062FC8E0D0E011E081E09F2D912309F493
:1012000080E097DF110F2197B9F7011116C0F8940C
:10121000E0911846F091194690818091174680958B
:1012200089238083E0911846F0911946918180913D
:1012300017468095892381837894DF91CF911F9100
:101240000F91FF90089580911746E0911846F09114
:101250001946F8949081282F2095922390837894B2
:101260003DE7315059F190E19A95F1F79281982339
:10127000C1F3F8949181922391839081982B90836C
:101280007894AFE3BBE01197F1F700C00000F89449
:10129000908192239083A3EAB1E01197F1F700C007
:1012A00000009281982381E009F080E07894EBE9D6
:1012B000F9E03197F1F700C00000089580E008954B
:1012C0002D9A08950000809364098091630987FF37
:1012D000FCCF8091640908952D980895CF93C62F6F
:1012E0002D988068EFDF8C2FEDDFCF91E9CFCF9382
:1012F0002D98E8DF80E0E6DFC82FE2DF8C2FCF916A
:101300000895CF939091D544981791F0C82F81E01C
:10131000EEDF837E682F6C2B81E0E0DF8091D54487
:10132000811104C087E2E3DF87FFF8CFC093D54483
:10133000CF91089510929444109292441092934445
:10134000109290441092914410928F4410928E44C7
:1013500088E2CDDF82FF06C08DE3C9DF682F6460BD
:101360008DE3BCDF80E1CDCFAF92BF92CF92DF9211
:10137000EF92FF920F931F93CF93DF936C017B014A
:101380008B01040F151FEB015E01AE18BF08C017DB
:10139000D10759F06991D601ED91FC910190F0814E
:1013A000E02DC6010995892B79F7C501DF91CF9111
:1013B0001F910F91FF90EF90DF90CF90BF90AF9073
:1013C0000895FC0155894689252F30E0842F90E04F
:1013D000821B930B541710F0CF9608950197089530
:1013E000FC0193898489981761F0A489AE0FBF2FFF
:1013F000B11D57968C9194899F5F9F73948B90E059
:1014000008958FEF9FEF0895FC01938984899817C1
:1014100031F08489E80FF11D878990E008958FEFFE
:101420009FEF0895FC0193892489892F90E0805CC7
:101430009F4F821B91098F7399270895CF93DF9354
:10144000EC01E881F9810680F781E02D0995EC85B2
:10145000FD85868116828581158280E484838C894E
:101460008B8B1A8ADF91CF9108958F929F92AF92C2
:10147000BF92FF920F931F93CF93DF938C014A018A
:101480005B01D22FC32FDC0152968C91529780FFC3
:1014900007C0ED91FC910288F389E02DC801099500
:1014A000D11101C0D3E0FD2EE894F2F8DC2FD095E5
:1014B000D07CB1E68B16B3EE9B06B6E1AB06B10469
:1014C00028F0D260B694A7949794879460E078ED62
:1014D00088EB95E0A50194010E94953CC901203458
:1014E000310510F480E490E03C2F3B72D7FD30686A
:1014F0004D2F487C30FD41605FB7F894D8011C96B1
:10150000ED91FC911682F7828087918735FF8FC01D
:101510004F7781E084878FEF85873F7D3583D68342
:10152000F8012189C08986859785FC0133E0239FD6
:10153000E00DF11D1124659174912C1708F059C02C
:10154000272F46FF76C0793288F430E0F901E15761
:10155000FF4BA081AF3F51F028543F4BF901308140
:1015600020E2329FF0011124FC5FA18347FF2AC0D3
:1015700021E0270F293230F530E0F901E157FF4B28
:10158000D081DF3FF9F0F901E854FF4BA081F0E290
:10159000AF9FD0011124BC5F2F513F4BF901108147
:1015A000F0E0E0E0183030F49D01205F3F4FF9019A
:1015B000E10FF11D3FB7F8941296DC93208128606B
:1015C00020833FBF40FF15C023E0270F293288F456
:1015D00030E0F901E157FF4B40814F3F51F0285473
:1015E0003F4BD901EC91B0E2EB9FF0011124FC5F7D
:1015F0004183FC0123E0C29FE00DF11D11243196CF
:1016000025913491F901FF27EE51FA4F9081832FF4
:1016100080958923682B60835FBFDF91CF911F91F5
:101620000F91FF90BF90AF909F908F900895148678
:1016300074CF342F307509F499CF793208F096CFF2
:1016400030E0F901E157FF4BD081DF3F09F48ECF45
:10165000F901E854FF4BA081E0E2AE9FD0011124D4
:10166000BC5F2F513F4BF9011081F0E0E0E01830F2
:1016700030F49D01205F3F4FF901E10FF11D3FB7AD
:10168000F8941296DC932081286020833FBF6ECFB0
:10169000FC010FB607FE04C0809111018823A9F058
:1016A000A485B58514968C91149785FF0EC09589F5
:1016B0008689981739F015968C9115978F7D159618
:1016C0008C930895E8940C94DB1708950F931F935F
:1016D000CF93DF93EC018A89982F91609A8B2D89A3
:1016E0009E8929130AC0EC85FD85948195FF05C06C
:1016F00081FD0DC080E4848312C0062F1D891F5F09
:101700001F738E89811315C0CE01C2DFFACF858188
:101710008F77806490E49483EC85FD858583EC85E8
:10172000FD85628381E090E0DF91CF911F910F9161
:101730000895ED89EC0FFD2FF11DE95AFF4F00834D
:101740001D8BEC85FD858A8981FF09C085818F7796
:10175000806690E49483EC85FD858583E3CF858165
:101760008062FBCF682F8CED94E4B0CFEF92FF92B4
:101770000F931F93CF93DF938C017B01D0E0C0E0E8
:10178000F701EC0FFD1F6491662331F0C8019EDF65
:10179000892B11F02196F4CFCE01DF91CF911F91CB
:1017A0000F91FF90EF900895CF93DF93EC018A891A
:1017B00080FF0BC0EC85FD85858185FD03C084819C
:1017C00086FD03C0CE0164DFF5CFDF91CF91089590
:1017D00081E008959FB7F894E0912A0BF0912B0BCC
:1017E0008091260B2091AF423091B0424091B1429E
:1017F0005091B2429FBF80FF08C0EC3E8CE2F807D8
:1018000020F42F5F3F4F4F4F5F4F0F011694079407
:10181000169407941694079416940794F00116945E
:101820000794E00DF11D16940794102C16940118DE
:101830001694010C169401181694010C16940118B4
:1018400016941694010C1124E019F109A8EEB3E0E6
:101850000E94853C6E0F7F1F811D911D08958F9200
:101860009F92AF92BF92CF92DF92EF92FF926B0165
:101870007C01B0DF4B015C01C114D104E104F1042F
:10188000B1F0A8DF681979098A099B09683E73409D
:101890008105910588F321E0C21AD108E108F10819
:1018A00088EE880E83E0981EA11CB11CE5CFFF9046
:1018B000EF90DF90CF90BF90AF909F908F90089562
:1018C0002FB7F8946091AF427091B0428091B142CD
:1018D0009091B2422FBF08950F931F93CF93DF9340
:1018E000EC01EEDF6093E4447093E5448093E644BA
:1018F0009093E7448CED94E473DD97FF21C0E0DF23
:101900000091E4441091E5442091E6443091E7448D
:10191000601B710B820B930B0091E0441091E1442A
:101920002091E2443091E3446017710782079307E6
:1019300008F390E080E0DF91CF911F910F9108951F
:10194000888381E090E0F7CF0F931F93B9DF609316
:10195000E4447093E5448093E6449093E7448CED2F
:1019600094E452DD97FF1CC0ABDF0091E44410917A
:10197000E5442091E6443091E744601B710B820BF3
:10198000930B0091E0441091E1442091E2443091A6
:10199000E344601771078207930708F38FEF9FEF07
:1019A0001F910F910895CF92DF92EF92FF92CF9304
:1019B000CBDFFC0197FD4BC08D32910521F0C09724
:1019C0000A9708F03EC0C12CD12C7601C0E0E1306E
:1019D000F105D1F0ED32F105C1F1CF01C0970A97C1
:1019E00098F4AAE0B0E0A70196010E94853C6F013F
:1019F000FF0FEE08FF08C60ED71EE81EF91E80E393
:101A0000C81AD108E108F1088CED94E4E9DC9CDF08
:101A1000FC01C0970A97D8F2E130F105C1F2CC235E
:101A200041F0F094E094D094C094C11CD11CE11C0E
:101A3000F11CC701B601CF91FF90EF90DF90CF90DE
:101A400008958CED94E4CCDCB3CFC1E0DDCFC12CA4
:101A5000D12C7601EECFCF92DF92EF92FF920F93CF
:101A60001F93CF93DF93082F10E096E1899FE00149
:101A70001124C75DD94B8E819F81A885B985892B9B
:101A80008A2B8B2B99F11CDFCA88DB88EC88FD88B8
:101A90006C197D098E099F09CE80DF80E884F98466
:101AA000C616D706E806F90658F48E859F85A889DC
:101AB000B9890196A11DB11D8E879F87A88BB98B0F
:101AC000FFDE26E1209FF001219FF00D1124E75D4C
:101AD000F94B628B738B848B958BDF91CF911F9128
:101AE0000F91FF90EF90DF90CF9008958E859F85A6
:101AF000A889B9890196A11DB11D8E879F87A88BE2
:101B0000B98BEBCF80E0A7CF81E0A5CFCF92DF925A
:101B1000EF92FF920F931F93CF93DF9380911F401B
:101B200090E025E0959587952A95E1F78095909529
:101B300083709927C0EFD2E002C0D595C7958A95EA
:101B4000E2F72091444030914540DE010E94FC3E86
:101B500028E13CEF4FEF5FEF0E94693C8091B74274
:101B60009091B8420197280F391F2093D7413093A5
:101B7000D84120E030E04AE754E460912840709179
:101B8000294080912A4090912B400E94B23B0E94B4
:101B90009B3D8E01DD0F220B330B6B017C01C01AC4
:101BA000D10AE20AF30AA7019601A8EEB3E00E9467
:101BB000853C6858734181099109209121403091F9
:101BC0002240032E000C440B550B0E94953C2093A1
:101BD000D3413093D4414093D5415093D641DF91C6
:101BE000CF911F910F91FF90EF90DF90CF900895CC
:101BF000CF92DF92EF92FF926B017C01C09228405E
:101C0000D0922940E0922A40F0922B4060914440CB
:101C10007091454090E080E00E94513BA701960101
:101C20000E94B23B0E949B3D6093B7427093B842C2
:101C300020E034E244E759E4C701B6010E94B23B18
:101C40006B017C016091214070912240072E000CB5
:101C5000880B990B0E94533B9B01AC01C701B60155
:101C60000E942E3D0E949B3D609307437093084362
:101C70008093094390930A43FF90EF90DF90CF90B9
:101C800045CFEF92FF920F931F93CF93DF93E09195
:101C9000B942CE2FD0E07E01EE0CFF1CEE0CFF1CF3
:101CA000D701A45DBF4B4D935D936D937C931397C8
:101CB000B7016050704CDB010D931D932D933C9345
:101CC00013979E0121523C4B91E0D9019C93A82F80
:101CD000B0E0A85DBB4BEC93EF5FE093B942F0E05E
:101CE000E85EFF4B8083DF91CF911F910F91FF90B2
:101CF000EF900895DC01ED91FC91F170FC5E808124
:101D00000895CF92DF92EF92FF920F931F93CF939C
:101D1000DF9300D0CDB7DEB76C017C0103E010E0AB
:101D200009831A83CE010196E5DFF70181937F01D4
:101D30000F5F1F4F0730110599F7C6010F900F90E5
:101D4000DF91CF911F910F91FF90EF90DF90CF9097
:101D500008950F931F93CF93DF9300D000D0CDB79A
:101D6000DEB78C0119821A82CE010196C3DF8F344F
:101D7000F9F481E090E089839A83CE010196BADF7D
:101D80008534B1F482E090E089839A83CE01019694
:101D9000B1DF8D3469F481E00115110551F0CE01F8
:101DA0000196AFDF81E02B813C812017310709F0DC
:101DB00080E02496CDBFDEBFDF91CF911F910F91C0
:101DC00008951F93CF93DF93EC01162F93DF8117B4
:101DD000B1F09FB780910210282F227081FDFACFB9
:101DE000F8948DE984BF2093001023E184BF2093F1
:101DF0000010E881F981F170FC5E10839FBFCE0175
:101E0000DF91CF911F910895CF92DF92EF92FF92D1
:101E10000F931F93CF93DF9300D0CDB7DEB76C0144
:101E20007C0103E010E009831A83F70161917F01CF
:101E3000CE010196C6DF0F5F1F4F0730110599F7DE
:101E4000C6010F900F90DF91CF911F910F91FF90DE
:101E5000EF90DF90CF9008950F931F93CF93DF9370
:101E600000D0CDB7DEB70091794610917A468091C7
:101E70007B4690917C46081719079CF4C801957120
:101E800089839A836FEFCE0101969BDF109275468E
:101E9000109276468091734690917446080F191FF0
:101EA000E6CF0F900F90DF91CF911F910F91089582
:101EB000DC01ED91FC910088F189E02D23E030E018
:101EC0000994FB0101900020E9F73197AF01461B0F
:101ED000570B4ACA6115710509F0F3CF90E080E015
:101EE00008958F929F92AF92BF92EF92FF920F93BD
:101EF0001F93CF93DF93CDB7DEB7A197CDBFDEBFE2
:101F00007C01FA01CB0119A2223008F42AE08E01EB
:101F10000F5D1F4F822E912CB12CA12CBF01A5016A
:101F200094010E94953CF901CA016A30CCF4605DCD
:101F3000D8016E938D01232B242B252B79F7BD011E
:101F4000C701C8DFA196CDBFDEBFDF91CF911F9142
:101F50000F91FF90EF90BF90AF909F908F9008955A
:101F6000695CE6CF64E271E4ACCF0F931F93CF932B
:101F7000DF93EC01FBDB8C01CE01F4DF800F911FBE
:101F8000DF91CF911F910F910895CF92DF92EF9241
:101F9000FF92CF93DF93AB01BC0177FF19C06A01B9
:101FA0007C018DE2DFDBEC0144275527BA014C1997
:101FB0005D096E097F092AE08CED94E492DF8C0FB5
:101FC0009D1FDF91CF91FF90EF90DF90CF9008950C
:101FD0002AE08CED94E4DF91CF91FF90EF90DF90B9
:101FE000CF907FCFBC01990F880B990BCECFCF93A9
:101FF000DF93F8DFEC018CED94E4B4DF8C0F9D1FD0
:10200000DF91CF9108954F925F926F927F928F925E
:102010009F92AF92BF92CF92DF92EF92FF920F9377
:102020001F93CF936B017C01742EAC019B010E9426
:102030009E3E67E271E4811126C046015701E89493
:10204000B7F82FEF3FEF4FE75FE7C501B4010E94FC
:102050009E3E81110CC02FEF3FEF4FE75FE7C501B8
:10206000B4010E944D3B6BE271E4181664F02FEF4F
:102070003FEF4FE75FE4C701B6010E94523E1816DA
:10208000A4F46FE271E48CED94E4CF911F910F9171
:10209000FF90EF90DF90CF90BF90AF909F908F9088
:1020A0007F906F905F904F900CCF2FEF3FEF4FE7F7
:1020B0005FECC701B6010E944D3B87FDE2CF20E0F7
:1020C00030E0A901C701B6010E944D3B10E000E0DD
:1020D00087FF07C08DE246DB8C01F7FAF094F7F832
:1020E000F094C0E060E070E080E09FE37C1641F097
:1020F00020E030E040E251E40E942E3DCF5FF6CF79
:10210000A70196010E94C73C2B013C010E949B3D08
:102110004B015C012AE0BC01A4018CED94E4E1DEFA
:102120007C01E00EF11ECC23C9F1C501B4010E946F
:10213000513B9B01AC01C301B2010E94C63C4B0163
:102140005C0163E371E48CED94E4BBDEE80EF91E00
:10215000C15020F120E030E040E251E4C501B4017B
:102160000E94B23B2B013C010E949B3D4B01B12CD4
:10217000A12C2AE0B501A4018CED94E4B2DEE80EB6
:10218000F91EC501B4010E94513B9B01AC01C30182
:10219000B2010E94C63C4B015C01DACFC701CF916E
:1021A0001F910F91FF90EF90DF90CF90BF90AF9075
:1021B0009F908F907F906F905F904F900895CF93F6
:1021C000DF9321DFEC018CED94E4CCDE8C0F9D1FBE
:1021D000DF91CF91089517CFAF92BF92CF92DF9248
:1021E000EF92FF920F931F93CF93DF9300D0CDB761
:1021F000DEB76C015B0110E000E00A151B05BCF5C1
:102200007801EC0CFD1C85E1F822E982FA82CE010E
:10221000019670DD803110F480E3A4DA0F5F1F4F68
:10222000E982FA82CE01019665DD482F50E070E028
:1022300060E020E18CED94E454DE6DE371E48CED1C
:1022400094E43FDEC80187709927892B29F46DE358
:1022500071E48CED94E435DEC8018F709927892BE9
:1022600061F664EB7FE08CED94E480DAC6CF0F90EA
:102270000F90DF91CF911F910F91FF90EF90DF9022
:10228000CF90BF90AF900895CF92DF92EF92FF92E0
:102290000F931F93CF93DF9367E97FE083E795E484
:1022A00065DA4091DB4450E070E060E02AE083E7CB
:1022B00095E417DE6AE371E483E795E402DE40917A
:1022C0005E4050E070E060E02AE083E795E409DEDC
:1022D0008091DB44882309F453C063E87FE083E7FF
:1022E00095E443DE10E000E08091DB4480171106A6
:1022F00009F00CF445C0680183E0CC0CDD1C8A9524
:10230000E1F7F12CE12CC091D944D091DA44CC0D05
:10231000DD1DCE0DDF1D8881803128F461E87FE06E
:1023200083E795E423DA488150E070E060E020E143
:1023300083E795E4D6DD6FE77FE083E795E416DA7F
:102340008FEFE81AF80A88E0E816F104E1F6E09168
:10235000D944F091DA44EC0DFD1D8681833029F4D7
:1023600064E67FE083E795E401DA83E795E4FADD4C
:1023700065E070E080E090E072DA0F5F1F4FB4CF4D
:1023800083E795E4EFDD69E47FE083E795E4EED948
:102390008091D84465E371E4882311F066E271E42A
:1023A00083E795E497DD6FE37FE083E795E4DDDD88
:1023B00083E795E4D7DD65E070E080E090E0DF91B1
:1023C000CF911F910F91FF90EF90DF90CF9047CA70
:1023D000DF92EF92FF920F931F93CF93DF932091A1
:1023E0002446211106C0E92ED82E0E94230981110E
:1023F0000FC010922246109224461092234680E08D
:10240000DF91CF911F910F91FF90EF90DF90089592
:1024100060E080EF0E94F208D1E000E0F12CC1E022
:102420000E94CD08182F0E94CD081130E1F48130B0
:10243000C9F5C134F0F2F0922246F11003C081E0F8
:102440008093244680911A46882399F2AAE1B6E443
:10245000ED2DFE2DCF0108962D912193E817F90758
:10246000D9F781E0CDCFE02FF0E0181311C08091B3
:102470002246C817A8F4DF01A95EB94B13968C91C8
:102480008D2381F410E0C93010F4C0932346FC2E54
:10249000E95EF94B83819D2F9095892383830AC040
:1024A0008C13F0CFE02FF0E0E95EF94B83818D2BA8
:1024B000838311E0812F0E949908CF5FDD0F11F413
:1024C0000F5FD1E0083008F4ABCFB3CF0F931F9369
:1024D000CF93DF938091D544803109F071C088E2B9
:1024E0000E94770982FF44C084E00E9481090E9413
:1024F0006C0980E00E94620980E00E946209D82F86
:10250000C82F833408F0C2E4C0938F4480E00E9457
:102510006209082F80E00E946209182F80E00E9463
:102520006209282F30E0A90196E0440F551F9A95C3
:10253000E1F744275370402B4093904450939144CB
:10254000322F222722273370212B2093924430935D
:1025500093449091D6449417150611F0452B11F42D
:10256000D330B8F410928F440E9460090E949A09F7
:102570008091D544803121F580918F44882311F1D9
:1025800084E00E94810981E0DF91CF911F910F913A
:102590000895C350C0939444807880938E44D0E0D3
:1025A000DC1728F480E00E946209DF5FF9CF0E9407
:1025B000600980E10E94810984E20E947709D8CFF6
:1025C0000E949A0980E0E0CF64E474E08CED94E42A
:1025D000CCDC6EE374E08CED94E4C8D880917D4649
:1025E0008B3209F455C1863509F455C18B3509F490
:1025F00055C190E080E0F6DC61E374E08CED94E49A
:10260000B5D840917E4650E070E060E02AE08CED65
:1026100094E467DC69E274E08CED94E4A7D88091DF
:102620007F468F7390E0DEDC66E274E08CED94E42C
:102630009DD8809181468251990BD4DC61E274E08F
:102640008CED94E492DC64E174E08CED94E48DDC38
:102650006CE074E08CED94E489D8609182467091CE
:102660008346809184469091854642E050E0A7DD04
:1026700060E074E08CED94E479D8609186467091C6
:102680008746809188469091894642E050E097DDE8
:1026900067EF73E08CED94E469D860918E46709199
:1026A0008F46809190469091914642E050E087DDC0
:1026B0006DEE73E08CED94E459D860919246709180
:1026C0009346809194469091954642E050E077DDA4
:1026D00064EE73E08CED94E449D860919646709175
:1026E0009746809198469091994642E050E067DD88
:1026F0006AED73E08CED94E439D860919A4670915C
:102700009B4680919C4690919D4642E050E057DD6B
:1027100061ED73E08CED94E429D860919E46709150
:102720009F468091A0469091A14642E050E047DD4F
:1027300067EC73E08CED94E419D86091A246709137
:10274000A3468091A4469091A54642E050E037DD33
:102750006EEB73E08CED94E409D86091A64670911D
:10276000A7468091A8469091A94642E050E027DD17
:1027700064EB73E08CED94E40E94B60B6091AA4682
:102780007091AB468091AC469091AD4642E050E0EE
:1027900016DD6BEA73E08CED94E40E94B60B609159
:1027A000AE467091AF468091B0469091B14642E0FE
:1027B00050E005DD61EA73E08CED94E40E94B60B15
:1027C0006091B2467091B3468091B4469091B546FF
:1027D00042E050E0F4DC68E973E08CED94E40E94A0
:1027E000B60B6091B6467091B7468091B84690910D
:1027F000B94642E050E0E3DC6EE873E08CED94E42F
:102800000E94B60B6091BA467091BB468091BC465F
:102810009091BD4642E050E0D2DC63E873E08CED7D
:1028200094E40E94B60B6091BE467091BF468091C1
:10283000C0469091C14642E050E0C1DC69E773E0D8
:102840008CED94E40E94B60B8091C24690E0CFDB01
:1028500069E673E08CED94E40E94B60B8091C34668
:102860009091C446C4DB809180466DE473E0882378
:1028700011F064E573E08CED94E477DB6AE573E0D6
:102880008CED94E40E94B60B8091C54690E0AFCBEE
:1028900081EB91E0B0CE84E693E0ADCE83E993E0A6
:1028A000AACE0F931F93CF93DF93893208F07CC099
:1028B00090E0DC01A157BF4B2C912F3F09F474C06D
:1028C0008C0108541F4BE801E881D0E2ED9FF00134
:1028D0001124FC5F611133C0268330812323AC01B6
:1028E0004F515F4B211111C0EA012881309749F106
:1028F000283038F57096E20FF11D3FB7F89420812B
:10290000611122C0277F20833FBFFA0130813F3F02
:1029100009F44AC0E8012881363058F53091E605BF
:10292000432F4770241312C0EC91E53008F0EE0FEE
:102930008091010AE095E823E093010A35C02583E0
:10294000CCCFF0E0E0E0D9CF2860DDCF387169F47A
:10295000213079F4EC91E53008F0EE0F8091410AD6
:10296000E095E823E093410A1FC0383111F4263086
:1029700089F38A599F4BFC01808185FF13C030E1A8
:10298000839FF0011124F75F91819770973061F474
:10299000EC91853270F4803298F48830E1F2803125
:1029A00021F202C08111F4CFDF91CF911F910F91DD
:1029B0000895803471F08038B9F71092A006F4CFF2
:1029C00090E1899FF0011124F75F81818F7E8183DF
:1029D000EBCF8091920B8E2339F3C0E22C9F9001B4
:1029E00011243C5FE83030F5205F3F4FE20FF32FBA
:1029F000F11D4FB7F8949091800B9E7F9093800BC0
:102A000090918E0B90FFFCCF2091920B90E08095DF
:102A1000909530E08223932328ED24BF8093920B7E
:102A20008091800B81608093800B80818F77808381
:102A30004FBFBACFF0E0E0E0DCCF0F931F93CF930E
:102A4000DF93CDB7DEB72897CDBFDEBF2091D94445
:102A50003091DA44232B31F02091BD423091BE42B7
:102A6000232B61F41092D8441092DB442896CDBFFA
:102A7000DEBFDF91CF911F910F910895182F8091A4
:102A80005F400E943F081093D844112309F496C078
:102A900020E030E040E85FE36091284070912940F9
:102AA00080912A4090912B400E944D3B87FF03C0AC
:102AB0008FE180931F4000911F4090915E40E09114
:102AC000BD42F091BE4280E020E335E7981721F047
:102AD000219331938F5FFACF1092224610922446B1
:102AE00010922346109221461092204610921F46C3
:102AF00010921E4610921D4610921C4610921B46C4
:102B000010921A461092DB44CE01019661DC8823B4
:102B100049F089818832C1F78091DB448F5F8093CF
:102B2000DB44F2CF80915E409091DB44891710F432
:102B30008093DB44E091D944F091DA44808188327B
:102B4000A1F010E08091DB44181778F428E0129F80
:102B5000C00111242091D9443091DA44820F931F8F
:102B600037DC882311F01F5FEDCF0E94230960E05E
:102B70008CEC0E94F20860E08EE40E94F20860E0B3
:102B800080E00E94F20860E080E00E94F20860E0CD
:102B9000802F0E94F2080E94230960E08CEC0E94C2
:102BA000F20861E088E40E94F20864E170E080E0ED
:102BB00090E00E942F0C0E94860D58CF80912740F4
:102BC00087FDF9CF8932A4F4282F082E000C330B8F
:102BD000F901E157FF4B90819F3F51F028543F4B43
:102BE000D901EC91B0E2EB9FF0011124FC5F9183DD
:102BF00060E057DE809127408932E8F690E0FC01E2
:102C0000E157FF4B20812F3FB1F2FC01E854FF4B0D
:102C1000A081E0E2AE9FD0011124BC5F8F519F4B99
:102C2000FC013081F0E0E0E0383028F4CD0140963E
:102C3000FC01E30FF11D9FB7F89412962C9380814D
:102C4000877F80839FBFB7CF0F931F93CF93DF936F
:102C5000CDB7DEB72C97CDBFDEBF681BF1F0062FD6
:102C600010E0682F70E06B567B4BA801CE010196F7
:102C70000E94163FE1E0F0E0EC0FFD1FE00FF11FB6
:102C80001082CE0101960E94B3392C96CDBFDEBFD3
:102C9000DF91CF911F910F91089590E080E0F5CFE3
:102CA0000F931F93CF93DF93CDB7DEB72C97CDBF94
:102CB000DEBF681BF1F0062F10E0682F70E06B5646
:102CC0007B4BA801CE0101960E94163FE1E0F0E0A7
:102CD000EC0FFD1FE00FF11F1082CE0101960E9444
:102CE000B0392C96CDBFDEBFDF91CF911F910F91F0
:102CF000089560E070E0CB01F4CF4F925F926F9245
:102D00007F928F929F92AF92BF92CF92DF92EF927B
:102D1000FF92CF93DF93C82FE0902140F0902240A4
:102D2000609144407091454090E080E00E94513BAA
:102D30002B013C0180914A4090914B4001968E9D21
:102D4000B0018F9D700D9E9D700D1124072E000CFB
:102D5000880B990B0E94533B2BED3FE049EC50E46C
:102D60000E94B23BA30192010E94B23B20E034E2F8
:102D700044E759E40E942E3D4B015C01D0E0CE01B6
:102D800001968E9DB0018F9D700D9E9D700D11243A
:102D9000072E000C880B990B0E94533BA301920154
:102DA0000E94B23B20E034E244E759E40E942E3D09
:102DB0006B017C01CC0FDD1FCC0FDD1FFE01E0504D
:102DC000F04C20E030E044EB53E46081718182817B
:102DD00093810E942E3D9B01AC01C701B6010E9468
:102DE000C73C2BED3FE049EC50E40E94B23B2B0185
:102DF0003C010E94563E6B017C01C501B4010E945A
:102E0000563E9B01AC01C701B6010E942E3D6B01ED
:102E10007C01FE01E952FD4BC082D182E282F38245
:102E2000C301B2010E942B3D2B013C01C501B4013D
:102E30000E942B3D9B01AC01C151DD4BC701B60186
:102E40000E94B23B9B01AC01C301B2010E94C63C8F
:102E5000688379838A839B83DF91CF91FF90EF9082
:102E6000DF90CF90BF90AF909F908F907F906F90AA
:102E70005F904F900895CF93809344409093454046
:102E8000BC0190E080E00E94513B209128403091AD
:102E9000294040912A4050912B400E94B23B0E9411
:102EA0009B3D6093B7427093B8420E94860DC0E08C
:102EB00080914A4090914B40C817190624F48C2FFA
:102EC0001CDFCF5FF5CFCF9108954F925F926F9245
:102ED0007F92AF92BF92CF92DF92EF92FF920F93C9
:102EE0001F93CF93DF93E82FCB01BA0168017901DB
:102EF000F0E0E85DFB4B108124E0129FE00111241B
:102F0000FE01E45DFF4B5F0120912340309124409E
:102F100040912540509126400E94B23B2B013C013C
:102F2000609127467091284690E080E00E94513BD6
:102F30009B01AC01C301B2010E942E3DF5016083EB
:102F4000718382839383C050D04CC882D982EA8235
:102F5000FB82812FDF91CF911F910F91FF90EF9016
:102F6000DF90CF90BF90AF907F906F905F904F9029
:102F7000C4CEEF93FF93ECEDF4E415C0EF93FF9311
:102F8000ECEDF4E43FC0EF93E0E660C0EF93FF9315
:102F9000E3E7F5E408C0EF93FF93E3E7F5E432C01D
:102FA000EF93E0E053C02F932FB72F938F939F930E
:102FB000AF93BF936894CF93DF9320E0C485D8E0AC
:102FC0009689DF01A90FB21FA95ABF4F8C9120E447
:102FD0002C838A839F5F9F738D812589291302C06B
:102FE0008F7D8D83968BDF91CF9116F00C94650BBE
:102FF000BF91AF919F918F912F912FBF2F91FF91F3
:10300000EF9118952F932FB72F938F939F93CF9373
:10301000DF93C485D8E08981988181FD0DC0C38983
:1030200081E08C0F8F732489281731F0CE0FDF2FAA
:1030300020E0D21F9F8B838BDF91CF919F918F9147
:103040002F912FBF2F91FF91EF911895FF938F93A1
:103050008FB78F93F8E08081848187FFFCCF8581D3
:103060008F7B806885838F918FBF8F91FF91EF91C8
:1030700018951F920F920FB60F9211248F939F9362
:10308000AF93BF938091AF429091B042A091B14273
:10309000B091B2420196A11DB11D8093AF429093B1
:1030A000B042A093B142B093B24281E08093260B2C
:1030B000BF91AF919F918F910F900FBE0F901F9076
:1030C00018950F930AE00FC00F9308E00CC00F9300
:1030D00006E009C00F9304E006C00F9302E003C0AE
:1030E0000F9300E000C00F920FB60F920BB60F9235
:1030F0001F921124FF921F932F933F934F935F933F
:103100006F937F938F939F93AF93BF93CF93DF93EF
:10311000EF93FF93A0E5B0E4A00FB11DCD91DC913A
:10312000000F0D5FA02FB0E0FC90109761F01F2DF5
:10313000169518F041F02296FBCFE991F99130975E
:10314000B9F30995F5CFA02FB0E0FC92FF91EF9174
:10315000DF91CF91BF91AF919F918F917F916F91AF
:103160005F914F913F912F911F91FF901F900F9072
:103170000BBE0F900FBE0F900F9118951F920F92DC
:103180000FB60F9211240BB60F922F923F924F92CF
:103190005F926F927F928F929F92AF92BF92CF92E7
:1031A000DF92EF92FF920F931F932F933F934F93D2
:1031B0005F936F937F938F939F93AF93BF93CF93BF
:1031C000DF93EF93FF9381E080930D06409010060C
:1031D00050901106C091AE42E2E0EC0F20914A40BF
:1031E00030914B40E217130621F01CF0E1E0EC0FA8
:1031F000E21BF0E0E85EFF4B80818093080680913F
:10320000B3429091B442A091B542B091B6420196BA
:10321000A11DB11D8093B3429093B442A093B542D7
:10322000B093B642C1113DC48091AC429091AD4281
:103230008093AA429093AB42809127469091284672
:1032400096958795481A590A4092AC425092AD42E1
:103250008091A8429091A942AC0156954795569508
:103260004795841B950BA20157FE04C044275527A0
:1032700044195509840F951F8093A8429093A94241
:10328000E0912546F091264641E0E817F90708F05D
:1032900040E040930B44141415040CF08EC041E040
:1032A00050E04093A6425093A742A091A642B0910D
:1032B000A7424091904250919142A417B50709F45A
:1032C00081C06091D2416F5F6093D2416091D241E1
:1032D000633030F01092D241A0939242B093934267
:1032E0006091DB4161111092DB41609092427090DD
:1032F0009342E817F90708F06BC281E06816710481
:1033000009F0C2C14130510509F4C4C18091D941CD
:103310009091DA4101968093D9419093DA4140919E
:103320002040442309F471C00A9708F46EC010923B
:1033300020401092D9411092DA41C4E5D2E4A4E2CF
:10334000B2E464EF71E44CED51E490E080E0821768
:103350009307DCF5188219821A821B821C821D8257
:103360001E821F8228961C9211961C92119712960B
:103370001C92129713961C92139714961C921497F2
:1033800015961C92159716961C92169717961C92D6
:1033900017971896FB0110821182128213821482F1
:1033A000158216821782685F7F4FFA01119211927F
:1033B00011921192AF010196CACF1092A6421092BB
:1033C000A74273CF1092D24181CF109298421092AF
:1033D000994210929A4210929B4210929C421092F3
:1033E0009D4210929E4210929F42109294421092DF
:1033F000954210929642109297421092A2421092D9
:10340000A3421092A4421092A5428091D94190917A
:10341000DA414091D7415091D8418417950739F44A
:1034200040912040411103C041E04093E643409168
:10343000B7425091B8428417950708F42BC1809188
:103440002040811127C11092D9411092DA41C4E580
:10345000D2E4A4E2B2E414EF212E11E4312E6CED9B
:1034600071E450E040E0421753070CF09BC08880A5
:103470009980AA80BB80CC80DD80EE80FF8028967A
:10348000CA01E3E0880F991FEA95E1F78C01015525
:103490001C4BF80180829182A282B382C482D582C1
:1034A000E682F7828C9011969C9011971296AC90C0
:1034B00012971396BC9013971496CC901497159668
:1034C000DC9015971696EC9016971796FC90179728
:1034D00018968C0101581C4BF80180829182A282BF
:1034E000B382C482D582E682F7828E010850110928
:1034F000F8011082118212821382148215821682C0
:1035000017828D0108501109F80110821182128270
:1035100013821482158216821782F10180809180B5
:10352000A280B380C480D580E680F780F8E02F0EBB
:10353000311C8C01015B1C4BF80180829182A282BC
:10354000B382C482D582E682F782810108501109D4
:10355000F80110821182128213821482158216825F
:103560001782FB0181909190A190B190BF017501EC
:103570006401FF0CCC08DC2C7601815E9C4BFC01C5
:1035800080829182A282B382C482C582C682C782AF
:10359000CB010497FC0110821182128213824F5FCB
:1035A0005F4F61CF8091944290919542A091964255
:1035B000B0919742AC01BD01770F440B542FBA0173
:1035C00080930B4390930C43A0930D43B0930E4311
:1035D00040930F4340931043409311434093124351
:1035E000709198426091994250919A4240919B42C9
:1035F00030919C4220919D4290919E4280919F42A9
:1036000070931743609318435093194340931A43A0
:1036100030931B4320931C4390931D4380931E4380
:10362000109298421092994210929A4210929B42A4
:1036300010929C4210929D4210929E4210929F4284
:103640001092944210929542109296421092974294
:103650008091A2429091A342A091A442B091A54230
:103660008093134390931443A0931543B093164350
:103670001092A2421092A3421092A4421092A5422C
:1036800081E08093E54306C0452B21F01092A042D3
:103690001092A1428091A2429091A342A091A44293
:1036A000B091A5420196A11DB11D8093A2429093B5
:1036B000A342A093A442B093A5428091A0429091CE
:1036C000A14201968093A0429093A1429201D2011F
:1036D0000E94F63E6B017C01FF0CCC08DC2C7601CD
:1036E0009B01AC016C2D7C2D8C2D9C2DA0909842C3
:1036F000B0909942C0909A42D0909B42E0909C42F8
:10370000F0909D4200919E4210919F420E94023F84
:10371000209398423093994240939A4250939B420F
:1037200060939C4270939D4280939E4290939F42EF
:10373000C201550CAA0BBB0B40919442509195428B
:103740006091964270919742840F951FA61FB71FF4
:103750008093944290939542A0939642B09397425F
:1037600060929042709291428091AE428F5F8093BE
:10377000AE4220914A4030914B408217130619F017
:1037800014F01092AE42FF91EF91DF91CF91BF9173
:10379000AF919F918F917F916F915F914F913F91E9
:1037A0002F911F910F91FF90EF90DF90CF90BF90DE
:1037B000AF909F908F907F906F905F904F903F90D1
:1037C0002F900F900BBE0F900FBE0F901F9018956B
:1037D0004091B3425091B4426091B5427091B6426B
:1037E0008091D3419091D441A091D541B091D641DF
:1037F00084179507A607B70748F48091BC4281114A
:1038000005C081E08093E6438093BC424091B3427F
:103810005091B4426091B5427091B6428091074395
:1038200090910843A0910943B0910A4384179507EA
:10383000A607B70708F02ECF1092B3421092B442F9
:103840001092B5421092B64281E0809320401092CF
:10385000D9411092DA41C4E5D2E414E2212E12E4F7
:10386000312EE4EFF1E46CED71E450E040E04217FA
:1038700053070CF0C5C0CA01A3E0880F991FAA9591
:10388000E1F78C0101551C4BD8011C9211961C923A
:10389000119712961C92129713961C9213971496D6
:1038A0001C92149715961C92159716961C921697B3
:1038B00017961C928C0101581C4BD8011C92119632
:1038C0001C92119712961C92129713961C921397A2
:1038D00014961C92149715961C92159716961C9286
:1038E000169717961C92188219821A821B821C82C4
:1038F0001D821E821F822896D1011C9211961C9255
:10390000119712961C92129713961C921397149665
:103910001C92149715961C92159716961C92169742
:1039200017961C92B8E02B0E311C80809180A280EB
:10393000B380C480D580E680F78038968C01015B27
:103940001C4BD8018C9211969C9211971296AC92B6
:1039500012971396BC9213971496CC9214971596BF
:10396000DC9215971696EC9216971796FC927F01AB
:10397000B8E0EB1AF108D7011C9211961C9211972E
:1039800012961C92129713961C92139714961C92DF
:10399000149715961C92159716961C9216971796C3
:1039A0001C92DB018D909D90AD90BD90BD01750185
:1039B0006401FF0CCC08DC2C7601815E9C4BDC01A1
:1039C0008C9211969C9211971296AC921297139624
:1039D000BC9213971496CC9214971596CC92159787
:1039E0001696CC9216971796CC92CB010497DC01D1
:1039F0001D921D921D921C9213974F5F5F4F37CF00
:103A0000709198426091994250919A4240919B42A4
:103A100030919C4220919D4290919E4280919F4284
:103A200070931743609318435093194340931A437C
:103A300030931B4320931C4390931D4380931E435C
:103A4000109298421092994210929A4210929B4280
:103A500010929C4210929D4210929E4210929F4260
:103A60008091944290919542A0919642B091974254
:103A7000AC01BD01770F440B542FBA0180930B4367
:103A800090930C43A0930D43B0930E4340930F4388
:103A9000409310434093114340931243D1CD108281
:103AA000B0C0D0E02C173D070CF45ECE2197FE018C
:103AB000E152FC4B1E01220C331CB6E04B165104A4
:103AC00074F381E0808380912746909128469695F3
:103AD0008795F101EC57FD4B60807180681A790A77
:103AE0004E0133E0880C991C3A95E1F7F401EC5A49
:103AF000FD4BA091AA42B091AB4293010E94F63EC9
:103B00006B017C01FF0CCC08DC2C76019B01AC0125
:103B10006C2D7C2D8C2D9C2DA080B180C280D380FB
:103B2000E480F580068117810E94023F2083318363
:103B3000428353836483758386839783F401EC5DAA
:103B4000FD4BA091AC42B091AD4293010E94F63E74
:103B50006B017C01FF0CCC08DC2C76019B01AC01D5
:103B60006C2D7C2D8C2D9C2DA080B180C280D380AB
:103B7000E480F580068117810E94023F2083318313
:103B8000428353836483758386839783F401EC5067
:103B9000FE4B9301D3010E94F63E6B017C01FF0CAA
:103BA000CC08DC2C76019B01AC016C2D7C2D8C2D7E
:103BB0009C2DA080B180C280D380E480F5800681F6
:103BC00017810E94023F20833183428353836483A1
:103BD000758386839783CC0FDD1FCC0FDD1FC45206
:103BE000DE4BC301770CAA0BBB0B488159816A815C
:103BF0007B81840F951FA61FB71F88839983AA8393
:103C0000BB83F101EC57FD4B40825182ADCDCF9289
:103C1000DF92EF92FF920F931F93CF93DF9300D029
:103C2000CDB7DEB71092DE441092DF44F8EECF2E0F
:103C3000F3E0DF2EE12CF12CC092E044D092E1447D
:103C4000E092E244F092E3444EE051E44093DC44DD
:103C50005093DD4480E698E08093E8449093E944F3
:103C600086EB9FE08093EA449093EB4482E080935C
:103C7000EC441092ED441092EE441092754510926F
:103C80007645C0927745D0927845E0927945F0929A
:103C90007A45409373455093744540E058E0409313
:103CA0007F45509380454FEB5FE0409381455093B3
:103CB000824580938345109284451092854540E06B
:103CC0005BE167EB70E080E08F5F863011F487E0A6
:103CD0000BC07695679557954795413099E0590700
:103CE0009DE36907710580F794E090931646482F8D
:103CF0004095242F217030E044E0220F331F4A9575
:103D0000E1F731E08162822B8093154640E459E06F
:103D100040930A4650930B4690930D4686E080935D
:103D20000E4610921046109211461092294610929B
:103D30002A4623E020932D4630932E468EE690E0CF
:103D4000A0E0B0E080932F4690933046A093314698
:103D5000B093324610923346109234461092354654
:103D600010923646109237461092384610923946D5
:103D700010923A4610923F46109240462093434696
:103D8000309344468093454690934646A0934746D9
:103D9000B09348461092494610924A4610924B46BC
:103DA00010924C4610924D4610924E4610924F463D
:103DB0001092504681E090E00090604002C0880F71
:103DC000991F0A94E2F7809327469093284655E07E
:103DD000969587955A95E1F78093254690932646C8
:103DE00080915F400E943F088EEF90E0809377467D
:103DF000909378468DE190E080937346909374465B
:103E00008DE090E0809371469093724686E890E052
:103E10008093794690937A468FEF91E080937B462A
:103E200090937C46109275461092764606E810E014
:103E300009831A83CE0101960E947A0E78019DE1D2
:103E4000E90EF11C8F3F09F4DEC000937546109314
:103E500076468FEFE81681E0F8065CF4E982FA8294
:103E6000CE0101960E947A0E8F3F09F4C8C00E94CD
:103E70002C0F8BE280937D4682ED80937E468FE00F
:103E800080937F4621E02093804689E1809381469C
:103E90008AE097EFA9E4B4E4809382469093834646
:103EA000A0938446B093854680E090E0A0E7B3E419
:103EB0008093864690938746A0938846B093894620
:103EC00080E090E0A8E4B2E480938A4690938B4629
:103ED000A0938C46B0938D4686E696E2A6E9B3E4BD
:103EE00080938E4690938F46A0939046B0939146D0
:103EF0008DEC9CECACE4B0E48093924690939346B6
:103F0000A0939446B093954646E656E266E173E484
:103F1000409396465093974660939846709399467F
:103F200080939A4690939B46A0939C46B0939D465F
:103F300040939E4650939F466093A0467093A1463F
:103F40008093A2469093A346A093A446B093A5461F
:103F500041E75DE360E772E44093A6465093A746CD
:103F60006093A8467093A9468093AA469093AB4667
:103F7000A093AC46B093AD464093AE465093AF4647
:103F80006093B0467093B1468093B2469093B34627
:103F9000A093B446B093B5464093B6465093B74607
:103FA0006093B8467093B9468093BA469093BB46E7
:103FB000A093BC46B093BD468DEC9CECACE1B1E463
:103FC0008093BE469093BF46A093C046B093C1462F
:103FD0002093C24684E690E08093C3469093C44603
:103FE0002093C5461092DE460F900F90DF91CF913F
:103FF0001F910F91FF90EF90DF90CF9008959DE17A
:10400000E90EF11C26CF87018FEFE81681E0F80654
:1040100009F00ECF2ECFCF93DF93CDB7DEB7C95BBC
:10402000D109CDBFDEBF88ED94E284BF90936800D4
:1040300021E02093030A8EEF8093260A8093270ABB
:104040009BE09093000A32E03093E6052093430A08
:104050008093660A8093670A9093400A9093E705DD
:10406000E0E0FBE027E09EEF85E021839487158662
:1040700080837096E0343BE0F307B9F72FEF3FE021
:104080002093AA0B3093AB0B90E89093820B109285
:10409000810B2BEF33E02093AE0B3093AF0B91E706
:1040A0009093800B809302069EE09093050690E625
:1040B00090930306809300068091B000887F85600E
:1040C0008093B0008091B200887F85608093B200B9
:1040D0008FED9EE280932C0B90932D0B81E08093CB
:1040E000250B1092210B83E08093200B789484E0C1
:1040F0008093210461E08AE00E9451149FB7F894F4
:1041000080E18093020480911404886080931404F9
:104110009FBF9FB7F89480E28093020480911504BA
:104120008860809315049FBF40E052EC61E070E02E
:104130008CED94E40E94580F83E090E00E94F70F0A
:104140008091080484FD05C080917F468F5F809335
:104150007F4663EC74E08CED94E40E94B60B60E55E
:1041600071E48CED94E40E946A0F6DEA74E08CEDCA
:1041700094E40E94B50F85E190E00E94A90E882387
:1041800041F1CE0101960E94810E09811A8117FD2D
:1041900020C0680143E0C40ED11C4DE7E42E46E484
:1041A000F42E87E090E05C015FEFA51AB50A8DABB5
:1041B0009EABCE01C5960E947A0ED7018D937D01EC
:1041C000C501AC14BD0478F36FE574E0043011054B
:1041D00011F46EE474E08CED94E40E94B50F0E943B
:1041E000E41280918046882309F45AC064EA74E09E
:1041F0008CED94E40E94B60B6CE974E08CED94E4D1
:104200000E94B60B80917D468B3231F465E974E0F3
:104210008CED94E40E94B60B80917D46863531F496
:104220006EE874E08CED94E40E94B60B80917D46BC
:104230008B3531F467E874E08CED94E40E94B60BA2
:104240006EE774E08CED94E40E94B60B40917E46DC
:1042500050E070E060E02AE08CED94E40E94710F81
:1042600066E774E08CED94E40E94B60B40917F46C3
:1042700050E070E060E02AE08CED94E40E94710F61
:1042800064E774E08CED94E40E94B50F68E571E496
:104290008CED94E40E94610F8CED94E40E94B20FC7
:1042A0008091080485FD03C081E08093BA4280912B
:1042B0008046882309F403C110917E4680917F4691
:1042C0008093D6441092D74480E28093210481E009
:1042D0008093410484E0809341040E9460098091AE
:1042E000E405837F8093E405809161098460809375
:1042F0006109809160098162809360090E94600C6D
:104300006B017C016AEA8FE20E946E098FE20E94D3
:1043100077098A3A59F00E94600C6C197D098E0960
:104320009F09623371058105910560F30E94600C5D
:104330006B017C0165E58FE20E946E098FE20E94AD
:104340007709853559F00E94600C6C197D098E093A
:104350009F09623371058105910560F3FE01339673
:104360008BE2DF011D928A95E9F781E0898384E081
:104370008A8322E02B8393E09D832E838F8380E4C6
:10438000888725E029879A8796E09B8793E39C8717
:1043900097E09D872CE62E8728E02F87888B29E0E1
:1043A000298B29E12B8B22E42C8B35E23D8B8E8BE4
:1043B00086E28F8B988F88E2898F90E19A8F89E2CD
:1043C0008B8F8CED8C8F8EE28D8F88E88E8F8FE2B5
:1043D0008F8F8DE288A380E389A337E33BA330E985
:1043E0003CA338E33DA32EA32CE32FA32FE828A75B
:1043F0002DE329A79AA79FE69BA78CA71AA38E0156
:104400000F5F1F4FF8018081882331F061810E9486
:104410006E090E5F1F4FF6CF69E981E10E946E09B8
:1044200084E00E9481090E94600C6B017C0187E29C
:104430000E94770987FD0BC00E94600C6C197D09F2
:104440008E099F09623371058105910580F30E94F1
:10445000600C84E00E9481090E946C098EEB0E942E
:1044600062090FE311E43FE4E32E31E4F32ED801B7
:104470008D918D010E946209E016F106C1F70E943C
:1044800060098DE30E947709682F61608DE30E94C7
:104490006E0980917F46B4E18B9FC00111246C01AD
:1044A000092E000CEE08FF08892B09F435C10E9483
:1044B0005B39A70196010E94693C0E942F0C8CE099
:1044C00090E080936040909361408DE190E0809314
:1044D00021409093224080E090E180932746909382
:1044E000284680E890E080932546909326468FE604
:1044F00092E1A3E8BFE38093234090932440A093EC
:104500002540B09326408091824690918346A091A9
:104510008446B0918546109218408093464090930F
:104520004740A0934840B093494000919246109173
:104530009346209194463091954640918E465091F5
:104540008F46609190467091914683E00E94410EA3
:1045500000919A4610919B4620919C4630919D4631
:104560004091964650919746609198467091994631
:1045700084E00E94410E0091A2461091A346209132
:10458000A4463091A54640919E4650919F46609129
:10459000A0467091A14685E00E94410E0091AA4676
:1045A0001091AB462091AC463091AD464091A64665
:1045B0005091A7466091A8467091A94686E00E9456
:1045C000410E0091B2461091B3462091B44630910D
:1045D000B5464091AE465091AF466091B04670915D
:1045E000B14688E00E94410E0091BA461091BB4648
:1045F0002091BC463091BD464091B6465091B74699
:104600006091B8467091B94689E00E94410E809150
:10461000BA42882321F08CE390E00E943B1760911E
:10462000BE467091BF468091C0469091C1460E949F
:10463000F80D8091864690918746A0918846B0916A
:10464000894680934C4090934D40A0934E40B09348
:104650004F408091C2468093294681E080932A464C
:1046600086E080932D4680932E468091C34690919C
:10467000C446092E000CAA0BBB0B80932F469093C7
:104680003046A0933146B09332468CE080935F4031
:104690008BE08093274088E08093210461E08BE0E9
:1046A0000E9451148FE580931F4086EC96E480931E
:1046B000D9449093DA441092C64684E594E48093FA
:1046C000BD429093BE4283E080935E40C0907546A9
:1046D000D0907646C114D10409F4A5C086010F5FBD
:1046E0001F4F25E5E22E26E4F22E8091734690912D
:1046F00074468C0D9D1D0817190794F4C801957117
:1047000089839A83CE0101960E947A0EF7018193E4
:104710007F010F5F1F4FE9CF60E070E0CB01CDCE8E
:104720000091554610915646209157463091584673
:104730008091594690915A46A0915B46B0915C4653
:1047400040905D4650905E4660905F467090604637
:104750008090614690906246A0906346B090644617
:104760002090654630906646F0916746E091684635
:10477000C0906946D0906A46E0906B46F0906C46D7
:10478000722D632DAF010093F3431093F4432093F4
:10479000F5433093F6438093F7439093F843A09307
:1047A000F943B093FA434092FB435092FC4360922A
:1047B000FD437092FE438092FF4390920044A0928A
:1047C0000144B09202442092034430920444F09396
:1047D0000544E0930644C0920744D0920844E09216
:1047E0000944F0920A4470933346609334465093E0
:1047F0003546409336468091C5460E941D158091EE
:10480000B942882341F1282F30E020934A40309369
:104810004B408F5F90E08630F0F4FC01E152FC4B9E
:1048200010820196F8CF70E060E050E040E0C12CCB
:10483000D12C7601212C312CF0E0E0E0812C912C60
:104840005401412C512C320180E090E0DC0100E069
:1048500010E0980198CF4090234050902440609001
:10486000254070902640609127467091284690E040
:1048700080E00E94513B4B015C0120914640309109
:1048800047404091484050914940C301B2010E94C5
:10489000B23BA50194010E942E3D60934640709367
:1048A000474080934840909349408FEBC82E82E464
:1048B000D82E9CE2E92E90E4F92E10E000E08091E1
:1048C0004A4090914B4008171907FCF4D7012D91ED
:1048D0003D914D915C91C301B2010E94B23BA50193
:1048E00094010E942E3DF7016193719381939193FE
:1048F0007F01802F0E947D16D6011D921D921D9270
:104900001D926D010F5F1F4FDACF82E89DE080930B
:104910002B4690932C4684E89DE0809341469093EB
:10492000424681E0809320401092B3421092B442FC
:104930001092B5421092B6429EE090930506909177
:104940000306909303061092B00096E0909302063F
:1049500080930006909100069093000690910006C7
:104960009260909300061092080690910C06916058
:1049700090930C0680930A067894C0902840D090BB
:104980002940E0902A40F0902B4060914440709183
:10499000454090E080E00E94513BA70196010E94B3
:1049A000B23B0E949B3D6093B7427093B842109215
:1049B000E54320E034E244E759E4C701B6010E9430
:1049C000B23B6B017C016091214070912240072E27
:1049D000000C880B990B0E94533B9B01AC01C70153
:1049E000B6010E942E3D0E949B3D60930743709349
:1049F00008438093094390930A4309E216E4F12C9B
:104A0000F80180818823A9F18481E82FF0E08932C0
:104A100020F5DF01A157BF4B2C912F3FF1F0DF01B3
:104A2000A854BF4B8C9130E2839FC00111249C5F3E
:104A3000EF51FF4BE081E83008F09AC0AC01405FD5
:104A40005F4FE40FF52FF11D3FB7F894DC0112968C
:104A50002C938081886080833FBF64E87DE08091F3
:104A60004446F11004C062E87DE080912E460E9429
:104A700010080A5E1F4FB1E0FB1277C010925A4433
:104A800010925B4410925C4410925D440E94441169
:104A900060E070E080E090E40E94F80D1E01E5E324
:104AA0002E0E311C9E01265F3F4F2FAB38AF8CED91
:104AB00094E40E94120A892B09F49EC08CED94E4C0
:104AC0000E94F009D090BB428A3009F098C5AD2D04
:104AD000B0E0AB56BB4B1C92E0919544EF53EC33E6
:104AE00008F082C00E2E000CFF0BE758FA4D0C9414
:104AF000ED3EE62AF425F425F425F425F425F425E5
:104B0000F425F425F425F425F425F425F425F425DD
:104B1000F425F425F425F425F425F425F425F425CD
:104B2000F425F425F425F425F425F425F425F425BD
:104B3000F425F425F425F425BB25E725A326B8267E
:104B4000C126D826F425F828F425F32686288F28B0
:104B5000F828F4251229F42528295729282AF4258C
:104B6000882A942AAA2AF425B12AFF24F39448CF4C
:104B7000F0E0E0E069CF32E0D31236C086E994E499
:104B80000E94B3398430E9F08830A9F0893069F0A7
:104B900010927D4690E080E00E94F20F6DE17EE091
:104BA0008CED94E40E94B50F1FC08BE580937D4689
:104BB00083E993E0F1CF86E580937D4684E693E038
:104BC000EBCF8BE280937D4681EB91E0E5CF42E035
:104BD000D4120AC086E994E40E94B339019709F01F
:104BE000AFC081E08093DE4680E4A5E9B4E41D9285
:104BF0008A95E9F71092BB428091E643882369F1D8
:104C00001092E6438091D844882339F1809127405F
:104C100087FD19C08932A4F4282F082E000C330B0D
:104C2000F901E157FF4B90819F3F51F028543F4BD2
:104C3000D901EC91B0E2EB9FF0011124FC5F91836C
:104C400061E00E9451140E94230960E08CEC0E94F4
:104C5000F20861E084E40E94F2088091E543882331
:104C600011F40C94C6371092E543F89420914A4011
:104C700030914B4090E080E0821793070CF0CCC459
:104C8000FC01E152FC4B4081411158C0FC01B3E0F2
:104C9000EE0FFF1FBA95E1F7DF01A155BC4B1C9247
:104CA00011961C92119712961C92129713961C92B1
:104CB000139714961C92149715961C921597169696
:104CC0001C92169717961C92DF01A158BC4B1C92A0
:104CD00011961C92119712961C92129713961C9281
:104CE000139714961C92149715961C921597169666
:104CF0001C92169717961C92DF01A15BBC4B1C926D
:104D000011961C92119712961C92129713961C9250
:104D1000139714961C92149715961C921597169635
:104D20001C92169717961C92E15EFC4B1082118222
:104D300012821382148215821682178201969CCFEA
:104D40001092DE4651CF86E994E40E94B0396B019F
:104D50007C016CE07EE08CED94E40E94B60B42E0B6
:104D600050E0C701B6010E94EB1069E07EE018CF69
:104D70008AE08C9366E974E48CED94E40E946A0FF7
:104D800033CF53E0D51230CF86E994E40E94B03996
:104D90000E94963D6B01CB010E943B1762E07EE0D2
:104DA0008CED94E40E94B60BC6010E94F70F1CCF55
:104DB00086E994E40E94B33980937E466BEF7DE0F0
:104DC0008CED94E40E94B60B40917E4650E070E07A
:104DD00060E02AE08CED94E40E94710F8CED94E485
:104DE0000E94B20F01CF60E270E085E994E40E9476
:104DF0000B3F009711F40C94FC388C0105591444B6
:104E0000C801992760E270E08A569B4B0E940B3FD5
:104E1000CC24C394C00E009711F40C940339BC0148
:104E2000655974445B01602F81E00E9424167C0167
:104E30006A2D8C2D0E94501669AF7AAF8BAF9CAF54
:104E40006D2D81E08A0D0E94501621966CAF7DAFCA
:104E50008EAF9FAF219777E0E716F10408F03EC0D0
:104E6000F701EB5CF84D0C94ED3E3C279627BE27EE
:104E7000E6270E2836285E282091234030912440D2
:104E8000409125405091264069AD7AAD8BAD9CADE7
:104E90000E94B23B4B015C0160912746709128460D
:104EA00090E080E00E94513B9B01AC01C501B40140
:104EB0000E942E3D60934640709347408093484047
:104EC0009093494049AC5AAC6BAC7CAC4092824662
:104ED00050928346609284467092854664EF7DE0EE
:104EE0008CED94E40E94B60BC7010E94F20F62EFB2
:104EF0007DE08CED94E40E94B60B42E050E069AD99
:104F00007AAD8BAD9CAD0E94EB1060EF7DE08CED37
:104F100094E40E94B60B42E050E021966CAD7DAD6A
:104F20008EAD9FAD21970E94DF105ECE21960CAD15
:104F30001DAD2EAD3FAD219749AD5AAD6BAD7CADEA
:104F400083E00E94651749AC5AAC6BAC7CAC4092D4
:104F50008E4650928F46609290467092914621966E
:104F60004CAC5DAC6EAC7FAC2197409292465092B7
:104F700093466092944670929546B0CF21960CADC0
:104F80001DAD2EAD3FAD219749AD5AAD6BAD7CAD9A
:104F900084E00E94651749AC5AAC6BAC7CAC409283
:104FA00096465092974660929846709299462196FE
:104FB0004CAC5DAC6EAC7FAC219740929A4650925F
:104FC0009B4660929C4670929D4688CF21960CAD80
:104FD0001DAD2EAD3FAD219749AD5AAD6BAD7CAD4A
:104FE00085E00E94651749AC5AAC6BAC7CAC409232
:104FF0009E4650929F466092A0467092A14621968E
:105000004CAC5DAC6EAC7FAC21974092A246509206
:10501000A3466092A4467092A54660CF21960CAD3F
:105020001DAD2EAD3FAD219749AD5AAD6BAD7CADF9
:1050300086E00E94651749AC5AAC6BAC7CAC4092E0
:10504000A6465092A7466092A8467092A94621961D
:105050004CAC5DAC6EAC7FAC21974092AA465092AE
:10506000AB466092AC467092AD4638CF21960CADFF
:105070001DAD2EAD3FAD219749AD5AAD6BAD7CADA9
:1050800088E00E94651749AC5AAC6BAC7CAC40928E
:10509000AE465092AF466092B0467092B1462196AD
:1050A0004CAC5DAC6EAC7FAC21974092B246509256
:1050B000B3466092B4467092B54610CF21960CADBF
:1050C0001DAD2EAD3FAD219749AD5AAD6BAD7CAD59
:1050D00089E00E94651749AC5AAC6BAC7CAC40923D
:1050E000B6465092B7466092B8467092B94621963D
:1050F0004CAC5DAC6EAC7FAC21974092BA465092FE
:10510000BB466092BC467092BD46E8CE552453948F
:10511000D5106ACD0E94E4120E94441165CD60E270
:1051200070E085E994E40E940B3F009709F56D2D2E
:1051300081E00E9424168C010115110591F10130C6
:105140001105B9F167EE7DE08CED94E40E94B60B99
:105150006FED7DE0012B09F423CD42E050E069AD15
:105160007AAD8BAD9CAD0E94EB1063EE7DE018CD67
:105170009C01255934447901622F81E00E94241654
:105180008C016D2D81E08E0D0E942416BC01990FBB
:10519000880B990B0E94533B69AF7AAF8BAF9CAFE2
:1051A000CBCF1092294681E080932A461092C246C6
:1051B000C9CF69AD7AAD8BAD9CAD0E94963D6B01B8
:1051C000072E000CEE08FF08C0922F46D092304602
:1051D000E0923146F092324621E020932946209316
:1051E0002A462093C2466093C3467093C446AACF12
:1051F00086E994E40E94B339882389F099278034A2
:10520000910514F08FE390E080937F4669ED7DE097
:105210008CED94E40E94B60B40917F46D7CD81E09F
:1052200090E0F2CF86E994E40E94B3398F718093C5
:10523000814664ED7DE08CED94E40E94B60B809194
:1052400081468251990B0E94F20F6FEC7DE0A8CC51
:1052500031E0D312C9CC60EF75E08CED94E40E948C
:10526000B50F85E190E00E94A90E882389F0CE0158
:1052700001960E94810E89819A8197FD09C09195BE
:105280008195910989839A83CE0101960E94040F2A
:1052900062EC75E08CED94E40E94B50F68EC70E070
:1052A00080E090E00E942F0C0C9400009DCC41E027
:1052B000D4129ACC68EB75E08CED94E40E94B50FA3
:1052C00085E190E00E94A90E811128C019821A82FE
:1052D0006FE4CE0101960E94E10E81E090E08983A7
:1052E0009A8365E4CE0101960E94E10E82E090E08F
:1052F00089839A836DE4CE0101960E94E10E03E05A
:1053000010E009831A836FEFCE0101960E94E10E2F
:105310000F5F1F4F011552E0150799F786E690E0E1
:1053200089839A8385E190E08B839C83CE010196EB
:105330000E94040F0DE716E487E090E0D8016D911C
:105340008D017C01BFEFEB1AFB0A8DAB9EABC10157
:105350000E94E10EC7018936910581F790E080E057
:105360000E94A90E811122C060E975E08CED94E4E1
:105370000E94B60B2AE040E052E060E070E08CED65
:1053800094E40E94710F6AE675E08CED94E40E944B
:10539000B50F60E072E090E080E00E94EC1068E6FB
:1053A00075E08CED94E40E94B60B0EC0CE01019620
:1053B0000E94810E8B819C81019669F467E175E002
:1053C0008CED94E40E94B50F8CED94E40E94B20F32
:1053D00067E975E0E5CB6AE075E08CED94E40E9446
:1053E000B60B4B815C8170E060E02AE08CED94E4C8
:1053F0000E94710F09811A8117FF03C01195019551
:105400001109045011096CEF74E08CED94E40E94D2
:10541000B60BC8010E94F20F65EF74E08CED94E4C6
:105420000E94B60B89819A8197FF06C06AEE74E0EC
:105430008CED94E40E94B60B8CED94E40E94B20FC4
:10544000B80187E090E00E94EC1068EE74E0A9CF0C
:105450000E94D30C6B01CB01892B71F40E94D30CF9
:1054600021E0672B682B692B09F420E02093C546C7
:10547000822F0E941D15B8CB6430710508F0B4CBA3
:10548000C1010E946C0C10E000E0C1010E946C0C94
:10549000892B49F1083038F58DA9803221F08D3003
:1054A00011F08A3051F4E1E0F0E0EC0FFD1FE00F65
:1054B000F11D10830F5F10E0E8CF1295107F90ED83
:1054C000980F9A3030F09FEB980F963020F499ECBB
:1054D000980F190FDACF9FE9980F963010F499EAD8
:1054E000F7CF90E0F6CFDE01119603E0CC0CDD1C87
:1054F0000A95E1F790E080E02D91FC01EC0DFD1D97
:10550000E254F94B2083019688309105A9F76CCBC2
:10551000F1E0DF1269CB64EA7DE08CED94E40E9457
:10552000B60B60E571E428CC12E0412ED4105CCBC0
:105530001092804680919644813319F481E08093E3
:105540008046809180466EE97DE0811129CB67E934
:105550007DE026CB5524539469E87DE0D51044CBFB
:105560001FCB66246394D6103FCB6FE67DE08CEDB5
:1055700094E40E94B50F0E942C0F1092F3431092F6
:10558000F4431092F5431092F6431092F7431092B1
:10559000F8431092F9431092FA431092FB43109291
:1055A000FC431092FD431092FE431092FF43109271
:1055B000004410920144109202441092334610921B
:1055C000344610923546109236460ECB77247394AB
:1055D000D7100ACB0FEF15E0F801F490FF2061F02F
:1055E000FAE0FF1203C08DE00E94B20B8F2D0E94E3
:1055F000B20B0F5F1F4FF0CF6DEF75E0D1CABFE365
:10560000BD1508F4F9CAED2DF0E0EB56FB4B808395
:10561000D394D092BB42F0CAE9E2CE2EE6E4DE2E6D
:1056200010E000E0EE24E394F12CA6E1BA2EF6019E
:105630008181882309F476C080818823C9F184811F
:10564000893228F590E0FC01E157FF4B40814F3F44
:10565000F1F0FC01E854FF4B2081F0E22F9F900114
:1056600011243C5F8F519F4BDC018C91F0E0E0E016
:10567000883020F4F9017096E80FF11D9FB7F89477
:10568000D90112964C938081886080839FBF62E825
:105690007DE080912E460115110521F064E87DE042
:1056A000809144460E9410083DC001E010E0BFCF49
:1056B00085818932A0F590E0FC01EF51FF4B2081FC
:1056C0002F3F69F188549F4BDC018C91E82FE295C4
:1056D000EE0FE07EE20FF0E0E05FFB4F9081917F04
:1056E000908390E0FC0134E0EE0FFF1F3A95E1F764
:1056F000422F50E0270102C0440C551C2A95E2F7C6
:105700004382880F991FFC01E05BFF4B440F551F3C
:105710000190F081E02DE40FF51F10821182D60177
:1057200011961C92B09EF001B19EF00D11249F01C4
:10573000275D394BF90186859785A089B189892B29
:105740008A2B8B2BC1F04685578560897189F601BC
:1057500082859385A485B585840F951FA61FB71FE5
:1057600082879387A487B587D9011E961D921D92C3
:105770001D921C925197B6E1CB0ED11C0130110540
:1057800009F093CF789420911743309118434091BA
:10579000194350911A4360911B4370911C438091AF
:1057A0001D4390911E438090134390901443A0900A
:1057B0001543B090164310910B4300910C43409059
:1057C0000D4326964FAE269750900E432A965FAE15
:1057D0002A9760900F4360966FAE60977090104369
:1057E00062967FAE6297C09011436496CFAE649785
:1057F000D09012436696DFAE6697E0900B436896B2
:10580000EFAE6897F0900C432C96FFAE2C9740902B
:105810000D436A964FAE6A9750900E436E965FAEF8
:105820006E9760900F43A2966FAEA2977090104350
:10583000A4967FAEA497C0901143A896CFAEA89728
:10584000D0901243AC96DFAEAC974090134350908B
:1058500014436090154370901643C0901343D0904A
:105860001443E0901543F09016432596CCAEDDAE80
:10587000EEAEFFAE25970E94CB3D6B017C01C501CA
:10588000B4010E94533B9B01AC01C701B6010E94C9
:105890002E3D6B017C01212F302F26964FAD269790
:1058A0002A965FAD2A9760966FAD609762967FAD3E
:1058B000629764968FAD649766969FAD66970E94D7
:1058C000C73D4B015C0168962FAD68972C963FADA4
:1058D0002C976A964FAD6A976E965FAD6E97A296BB
:1058E0006FADA297A4967FADA497A8968FADA89709
:1058F000AC969FADAC970E94C73D9B01AC01C50122
:10590000B4010E94B23B4B015C01C301B2010E9491
:10591000533B9B01AC01C501B4010E942E3D4B01DC
:105920005C0125966CAD7DAD8EAD9FAD25970E9437
:10593000533B9B01AC01C501B4010E942E3D9B016C
:10594000AC01C701B6010E94C63C0E94603E409077
:1059500046405090474060904840709049406D9656
:105960004CAE5DAE6EAE7FAE6D97A30192010E940C
:10597000B23BA1966CAF7DAF8EAF9FAFA197609306
:105980000C4470930D4480930E4490930F446090A8
:105990004A4070904B40A3966EAE7FAEA397809026
:1059A000134390901443A0901543B0901643609118
:1059B0000743709108438091094390910A430E94E4
:1059C000513B6B017C01D3011196A50194010E940A
:1059D0008F3C0E94533B9B01AC01C701B6010E9462
:1059E0002E3DA7966CAF7DAF8EAF9FAFA7977090FF
:1059F0000B44CB57DF4F7882C558D040C0904C4005
:105A0000D0904D40E0904E40F0904F40CA57DF4F4D
:105A1000C882D982EA82FB82C658D0404090284092
:105A20005090294060902A4070902B40AF964CAE29
:105A30005DAE6EAE7FAEAF9723EF33E461962EAFCF
:105A40003FAF619747EE53E427964EAF5FAF27977E
:105A50006CE374E423966EAF7FAF23978FEE92E4EE
:105A600067968EAF9FAF6797A7EDB2E4E196AEAFB2
:105A7000BFAFE197E0E1F4E46596EEAFFFAF659765
:105A80002CE230E469962EAF3FAF69974FEB52E4BA
:105A900063964EAF5FAF63972B961EAE1FAE2B97EC
:105AA000A3964EAC5FACA3972B966EAC7FAC2B97B6
:105AB000641475040CF0E6C49301B3E0220F331FA5
:105AC000BA95E1F7D901A155BC4B7C90C657DF4F81
:105AD0007882CA58D0401196CC901197C557DF4FA5
:105AE000C882CB58D0401296DC901297C457DF4F33
:105AF000D882CC58D0401396EC901397C357DF4F01
:105B0000E882CD58D0401496FC901497C257DF4FCE
:105B1000F882CE58D04015964C901597C157DF4F5C
:105B20004882CF58D04016965C901697C057DF4FEA
:105B30005882C059D04017966C90CF56DF4F68827C
:105B4000C159D0406796AEADBFAD6797CD90DD909F
:105B5000ED90FD906796AEAFBFAF6797E596CCAE80
:105B6000DDAEEEAEFFAEE597D901A158BC4B4C902F
:105B7000CE56DF4F4882C259D04011965C901197A3
:105B8000CD56DF4F5882C359D04012966C90129771
:105B9000CC56DF4F6882C459D04013967C9013973F
:105BA000CB56DF4F7882C559D0401496CC901497CD
:105BB000CA56DF4FC882C659D0401596DC9015975B
:105BC000C956DF4FD882C759D0401696EC90169729
:105BD000C856DF4FE882C859D0401796FC90C75688
:105BE000DF4FF882C959D040E196AEADBFADE19725
:105BF0004D905D906D907D90E196AEAFBFAFE19717
:105C0000E9964CAE5DAE6EAE7FAEE9974090134321
:105C1000509014436090154370901643ED964CAE2F
:105C20005DAE6EAE7FAEED9750900B43C656DF4F24
:105C30005882CA59D04060900C43C556DF4F6882E5
:105C4000CB59D04070900D43C456DF4F7882CC5969
:105C5000D040C0900E43C356DF4FC882CD59D040CC
:105C6000D0900F43C256DF4FD882CE59D040E0903B
:105C70001043C156DF4FE882CF59D040F090114316
:105C8000C056DF4FF882C05AD04040901243CF55E3
:105C9000DF4F4882C15AD0408901015E1C4BD801B8
:105CA000BC91CE55DF4FB883C25AD040F801F18184
:105CB000CD55DF4FF883C35AD040D8011296BC911E
:105CC000CC55DF4FB883C45AD040F801F381CB558F
:105CD000DF4FF883C55AD040D8011496BC91CA55FD
