:1002000050C7000078C7000076C700000C947C1D22
:1002100072C7000070C700006EC700006CC7000006
:100220000C94BB1D68C7000066C7000064C70000CF
:1002300062C7000060C700005EC700005CC7000026
:100240005AC7000058C7000056C7000054C7000036
:1002500052C700000C940E1D0C94091D0C94131D24
:100260000C94B21D48C700000C94091E44C700003E
:1002700042C7000040C700000C94B51D0C94841DBB
:100280003AC7000038C7000036C700000C94AC1D08
:1002900032C7000030C700002EC700002CC7000086
:1002A0002AC7000028C7000026C7000024C7000096
:1002B00022C700000C94B81D0C94AF1D1CC7000091
:1002C0001AC7000018C7000016C7000014C70000B6
:1002D00012C700000C94011D0C94FC1C0C94061D0C
:1002E0000AC7000008C7000006C7000004C70000D6
:1002F00002C7000005A84CCDB2D44EB93836A902C9
:100300000C50B9918688083CA6AAAA2ABE00000013
:10031000803F4E414E494E495459494E46CDCCCC72
:100320003D0AD7233C17B7D13877CC2B329595E6C9
:10033000241FB14F0A000020410000C84200401CA9
:100340004620BCBE4CCA1B0E5AAEC59D744E6F20D3
:10035000454550524F4D20636F6E666967004C6F84
:100360006164656420454550524F4D20636F6E6651
:100370006967005265666572656E636520766F6CAD
:10038000746167652063616C6962726174696F6E24
:100390003A20002000204E6F64653A20002047720A
:1003A0006F75703A20003931354D487A003836384B
:1003B0004D487A003433334D487A002046726571D7
:1003C0003A200052464D3639435720004F70656E33
:1003D000456E657267794D6F6E69746F722E6F72BC
:1003E0006700656D6F6E547820563420434D20436E
:1003F0006F6E74696E756F7573204D6F6E69746F73
:1004000072696E672056004A534F4E20466F726DD8
:100410006174204F6666004A534F4E20466F726DDE
:100420006174206F6E005246206F6666005246204F
:100430006F6E0074656D705F656E61626C65203D06
:10044000200070756C736520706572696F64203D63
:10045000200070756C736573203D200064617461C9
:100460006C6F67203D200069364C656164203D203B
:1004700000693643616C203D200069354C6561643C
:10048000203D2000693543616C203D200069344CDB
:10049000656164203D2000693443616C203D20008B
:1004A00069334C656164203D2000693343616C20F1
:1004B0003D200069324C656164203D200069324373
:1004C000616C203D200069314C656164203D200055
:1004D000693143616C203D2000617373756D656403
:1004E00056203D20007643616C203D200043616C26
:1004F0006962726174696F6E3A002064426D002C0B
:1005000020002C204E6F64652000204D487A2C205E
:1005100047726F7570200042616E642000536574ED
:1005200074696E67733A000A00202868696464651C
:100530006E292E00206279746573002C204461744A
:10054000612073697A653A2000205369676E61748F
:100550007572653A20004E6F206461746120626C90
:100560006F636B20666F756E64202D204545505279
:100570004F4D206170706561727320746F206265E9
:1005800020666F726D617474656420746F204F45CE
:100590004D205374616E64617264206275742075BD
:1005A0006E757365642E000A002062797465732C81
:1005B000206E6F7420666F726D6174746564207450
:1005C0006F204F454D205374616E64617264005317
:1005D000697A653A2000446F6E652E204E6577205B
:1005E000636F6E66696720736176656420746F203F
:1005F000454550524F4D00536176696E672E2E2E41
:1006000000536B657463682077696C6C206E6F773C
:100610002072657374617274207573696E672064EB
:10062000656661756C7420636F6E6669672E005233
:100630006573657474696E672E2E2E0020000A4162
:100640007661696C61626C6520636F6D6D616E646B
:10065000733A0A6C09092D206C69737420746865FB
:100660002073657474696E67730A7209092D2072AC
:100670006573746F726520736B657463682064655D
:100680006661756C74730A7309092D207361766550
:100690002073657474696E677320746F20454550CC
:1006A000524F4D0A7609092D2073686F77206669CD
:1006B000726D776172652076657273696F6E0A7A02
:1006C00009092D207A65726F20656E657267792041
:1006D00076616C7565730A7809092D2065786974EF
:1006E0002C206C6F636B20616E6420636F6E746985
:1006F0006E75650A3F09092D2073686F772074684D
:100700006973207465787420616761696E0A0A777D
:100710003C783E09092D207475726E2052464D209A
:10072000576972656C6573732064617461206F66CC
:10073000663A2078203D2030206F72206F6E3A207C
:1007400078203D20310A623C6E3E09092D207365F8
:100750007420722E662E2062616E64206E203D2011
:10076000612073696E676C65206E756D6572616C72
:100770003A2034203D203433334D487A2C20382021
:100780003D203836384D487A2C2039203D203931EB
:10079000354D487A20286D617920726571756972CE
:1007A00065206861726477617265206368616E6755
:1007B00065290A703C6E6E3E09092D207365742010
:1007C00074686520722E662E20706F7765722E20F9
:1007D0006E6E202D20616E20696E746567657220D3
:1007E00030202D20333120726570726573656E7410
:1007F000696E67202D31382064426D20746F202B84
:1008000031332064426D2E2044656661756C743A04
:1008100020323520282B372064426D290A673C6E30
:100820006E6E3E092D20736574204E6574776F726D
:100830006B2047726F757020206E6E6E202D2061C8
:100840006E20696E746567657220284F454D20647F
:10085000656661756C74203D20323130290A6E3C2A
:100860006E6E3E09092D20736574206E6F646520DD
:100870004944206E3D20616E20696E746567657223
:1008800020287374616E64617264206E6F646520E9
:100890006964732061726520312E2E3630290A0A70
:1008A000643C78782E783E092D2078782E78203D8B
:1008B000206120666C6F6174696E6720706F696E6D
:1008C00074206E756D62657220666F722074686543
:1008D00020646174616C6F6767696E672070657210
:1008E000696F640A633C6E3E09092D206E203D202D
:1008F0003020666F72204F46462C206E203D2031FE
:1009000020666F72204F4E2C20656E61626C6520F0
:10091000766F6C746167652C2063757272656E7496
:10092000202620706F77657220666163746F722075
:1009300076616C75657320746F2073657269616C84
:10094000206F757470757420666F722063616C69B6
:1009500062726174696F6E2E200A6A3C6E3E0909EC
:100960002D207475726E204A534F4E205365726964
:10097000616C20666F726D6174206F6E2028312962
:10098000206F72206F6666202830292E0A663C7818
:10099000783E09092D207878203D20746865206C08
:1009A000696E65206672657175656E637920696E22
:1009B00020487A3A206E6F726D616C6C792065699F
:1009C00074686572203530206F722036300A6B3CB7
:1009D000783E203C79792E793E203C7A7A2E7A3EF8
:1009E0000A09092D2043616C696272617465206196
:1009F0006E20616E616C6F67756520696E707574CD
:100A0000206368616E6E656C3A0A090920207820BF
:100A10003D20612073696E676C65206E756D65722F
:100A2000616C3A2030203D20766F6C7461676520E0
:100A300063616C6962726174696F6E2C2031203D54
:100A4000206374312063616C6962726174696F6ED6
:100A50002C2032203D206374322063616C69627205
:100A60006174696F6E2C206574630A09092020790E
:100A7000792E79203D206120666C6F6174696E6704
:100A800020706F696E74206E756D62657220666F7E
:100A9000722074686520766F6C746167652F63756A
:100AA0007272656E742063616C6962726174696FE1
:100AB0006E20636F6E7374616E740A090920207A68
:100AC0007A2E7A203D206120666C6F6174696E67B2
:100AD00020706F696E74206E756D62657220666F2E
:100AE00072207468652070686173652063616C6949
:100AF00062726174696F6E20666F722074686973C8
:100B000020632E742E20287A206973206E6F742043
:100B10006E65656465642C206F722069676E6F7204
:100B2000656420696620737570706C6965642C203B
:100B30007768656E2078203D2030290A0909202039
:100B4000652E672E206B30203235362E380A090983
:100B5000202020202020206B312039302E392032D7
:100B60002E30300A613C78782E783E092D20787836
:100B70002E78203D206120666C6F6174696E67205D
:100B8000706F696E74206E756D62657220666F722B
:100B90002074686520617373756D656420766F6C71
:100BA00074616765206966206E6F20612E632E2058
:100BB00069732064657465637465640A6D3C783E8E
:100BC000203C79793E092D206D6574657220707521
:100BD0006C736520636F756E74696E673A0A0909F4
:100BE00020202078203D203020666F72204F46461E
:100BF0002C2078203D203120666F72204F4E2C2013
:100C00003C79793E203D20616E20696E7465676590
:100C10007220666F72207468652070756C73652031
:100C20006D696E696D756D20706572696F6420699C
:100C30006E206D732E202879206973206E6F7420CA
:100C40006E65656465642C206F722069676E6F72D3
:100C50006564207768656E2078203D2030290A740D
:100C600030203C793E092D207475726E2074656DBC
:100C70007065726174757265206D656173757265FA
:100C80006D656E74206F6E206F72206F66663A20FD
:100C900079203D203020666F72204F46462C207907
:100CA000203D203120666F72204F4E0A743C783E02
:100CB000203C79793E203C79793E203C79793E2070
:100CC0003C79793E203C79793E203C79793E203C44
:100CD00079793E203C79793E0A09092D20636861C3
:100CE0006E676520612074656D70657261747572E0
:100CF000652073656E736F7227732061646472651B
:100D00007373206F7220706F736974696F6E3A0A23
:100D10000909202078203D20612073696E676C6589
:100D2000206E756D6572616C3A2074686520706F15
:100D3000736974696F6E206F6620746865207365CF
:100D40006E736F7220696E20746865206C697374AD
:100D50002028312D6261736564290A0909202079F0
:100D600079203D20382068657861646563696D612C
:100D70006C20627974657320726570726573656E3C
:100D800074696E67207468652073656E736F72276F
:100D90007320616464726573730A0909202020203E
:100DA000652E672E2020323820383120343320330E
:100DB000312030372030302030302044390A0909C2
:100DC00020204E2E422E2053656E736F7273204387
:100DD000414E4E4F542062652061646465642E0A62
:100DE00000456E657267792076616C756573207356
:100DF000657420746F207A65726F00436F6E74693A
:100E00006E75696E672E2E2E005246206F66660044
:100E10005246206F6E00456D6F6E547856342056E2
:100E2000002064426D0070203D20004E6F646520FC
:100E3000006F666600206D730050756C7365733AC1
:100E400020002000200043616C3A206B0047726F45
:100E500075702000467265713A200020730064614D
:100E600074616C6F6720706572696F643A2000204E
:100E70004D487A00005EBCE2613FDD83C29C7E206B
:100E8000A3FD1F41009D23BE46DB65F88C11AF32E8
:100E9000CA57E9742C7066363A002C7066353A00F1
:100EA0002C7066343A002C7066333A002C7066322F
:100EB0003A002C7066313A002C49363A002C4935FC
:100EC0003A002C49343A002C49333A002C49323A42
:100ED000002C49313A002C70756C73653A002C5423
:100EE000333A002C54323A002C54313A002C453617
:100EF0003A002C45353A002C45343A002C45333A1B
:100F0000002C45323A002C45313A002C50363A003C
:100F10002C50353A002C50343A002C50333A002CE7
:100F200050323A002C50313A002C56726D733A0010
:100F30004D53473A007D002C2270756C7365223A40
:100F4000002C225433223A002C225432223A002C14
:100F5000225431223A002C224536223A002C2245D6
:100F600035223A002C224534223A002C22453322E5
:100F70003A002C224532223A002C224531223A00F6
:100F80002C225036223A002C225035223A002C22B4
:100F90005034223A002C225033223A002C22503274
:100FA000223A002C225031223A002C2256726D73C4
:100FB000223A007B224D5347223A002056004143FB
:100FC000206D697373696E67202D204170706172A6
:100FD000656E7420506F7765722063616C63206565
:100FE0006E61626C65642C20617373756D696E67E8
:100FF000200041432070726573656E74202D20526D
:1010000065616C20506F7765722063616C63206549
:101010006E61626C65640020656E61626C65642E51
:101020000054656D7065726174757265206D6561DF
:10103000737572656D656E742069730053656E73A8
:101040006F72206D6179206E6F7420626520726509
:101050006C6961626C6500200030002C2077697437
:1010600068206164647265737365732E2E2E00545C
:10107000656D70657261747572652053656E736F0E
:10108000727320666F756E64203D20000A000008B0
:101090000A400CFFC000C000FFFF0104060300036C
:1010A000522311241FBECFEFCDBFDFE7DEBF11E417
:1010B000A0E0B0E4EAEEF1E800E00BBF02C0079068
:1010C0000D92AE3BB107D9F727E4AEEBB1E401C016
:1010D0001D92AB36B207E1F718E0C1E5D8E004C0D5
:1010E0002197FE010E94BB40C035D107C9F70E947D
:1010F0005C250C94F34084C80000809364098091BF
:10110000630987FFFCCF8091640908952D98F4DF6F
:1011100080E0F2DF2D9A0895CF93C62F2D98806836
:10112000EBDF8C2FE9DF2D9ACF910895CF9390912B
:101130006847981791F0C82F81E0E8DF837E682F19
:101140006C2B81E0E9DF80916847811104C087E260
:10115000DDDF87FFF8CFC0936847CF910895CF9325
:10116000DF93EC018881882321F06981D5DF229605
:10117000F9CFDF91CF910895893260F590E0FC01BD
:10118000E55DFE4BE081EF3F29F18E5F9E4BDC0178
:101190008C9190E0DC01AA0FBB1FAE5ABF4B2D9182
:1011A0003C9121153105B1F04E2F50E0440F551FF1
:1011B000240F351FD9016D937C93E05FA5E0880F64
:1011C000991FAA95E1F7E80FF0E0FC5F8081887F26
:1011D000826080830895CF93DF93282F30E09FEFC4
:1011E000893220F5E901C752DF4B98819F3FE9F032
:1011F000F901EE5FFE4BA08140E2A49FD0011124D3
:10120000BC5FF901E55DFE4BE081E830C0F5AD0162
:10121000405F5F4FE40FF52FF11D4FB7F894129622
:101220009C939081977F90834FBF9881909359466C
:10123000893240F52E5F3E4BF9018081F4E08F9FAB
:10124000C001112480935A4690935B4610926446E5
:10125000109266461092654610926346109262465E
:10126000109261461092604610925F4610925E4660
:1012700010925D4610925C46DF91CF910895F0E0A8
:10128000E0E0CBCF8CEF93E0DDCF90915946E09139
:101290005A46F0915B46292F209580FF15C0F8949F
:1012A0008181822381838081892B808380E58A9557
:1012B000F1F78181982B91837894A9E4B1E011979B
:1012C000F1F700C000000895F894818182238183A2
:1012D0008081892B8083A5E8B1E01197F1F700C0E8
:1012E00000008181982B91837894B8E2BA95F1F748
:1012F000089580915946E0915A46F0915B46F894E2
:101300009081982B90832181382F3095232321833E
:1013100098E19A95F1F790819323908390E59A95BF
:10132000F1F792817894EDE3F1E03197F1F700C0A5
:101330000000982381E009F480E00895FF920F9364
:101340001F93CF93DF93F82E062FC8E0D0E011E073
:1013500081E09F2D912309F480E097DF110F219701
:10136000B9F7011116C0F894E0915A46F0915B4626
:10137000908180915946809589238083E0915A46D7
:10138000F0915B46918180915946809589238183B4
:101390007894DF91CF911F910F91FF9008958091E4
:1013A0005946E0915A46F0915B46F8949081282F77
:1013B00020959223908378943DE7315059F190E144
:1013C0009A95F1F792819823C1F3F8949181922331
:1013D00091839081982B90837894AFE3BBE0119731
:1013E000F1F700C00000F894908192239083A3EA63
:1013F000B1E01197F1F700C000009281982381E0DD
:1014000009F080E07894EBE9F9E03197F1F700C05A
:101410000000089580E00895AF92BF92CF92DF92CE
:10142000EF92FF920F931F93CF93DF936C017B0199
:101430008B01040F151FEB015E01AE18BF08C0172A
:10144000D10759F06991D601ED91FC910190F0819D
:10145000E02DC6010995892B79F7C501DF91CF9160
:101460001F910F91FF90EF90DF90CF90BF90AF90C2
:101470000895FC0155894689252F30E0842F90E09E
:10148000821B930B541710F0CF960895019708957F
:10149000FC0193898489981761F0A489AE0FBF2F4E
:1014A000B11D57968C9194899F5F9F73948B90E0A8
:1014B00008958FEF9FEF0895FC0193898489981711
:1014C00031F08489E80FF11D878990E008958FEF4E
:1014D0009FEF0895FC0193892489892F90E0805C17
:1014E0009F4F821B91098F7399270895CF93DF93A4
:1014F000EC01E881F9810680F781E02D0995EC8502
:10150000FD85868116828581158280E484838C899D
:101510008B8B1A8ADF91CF9108958F929F92AF9211
:10152000BF92FF920F931F93CF93DF938C014A01D9
:101530005B01D22FC32FDC0152968C91529780FF12
:1015400007C0ED91FC910288F389E02DC80109954F
:10155000D11101C0D3E0FD2EE894F2F8DC2FD09534
:10156000D07CB1E68B16B3EE9B06B6E1AB06B104B8
:1015700028F0D260B694A7949794879460E078EDB1
:1015800088EB95E0A50194010E94633EC9012034D7
:10159000310510F480E490E03C2F3B72D7FD3068B9
:1015A0004D2F487C30FD41605FB7F894D8011C9600
:1015B000ED91FC911682F7828087918735FF8FC06D
:1015C0004F7781E084878FEF85873F7D3583D68392
:1015D000F8012189C08986859785FC0133E0239F26
:1015E000E00DF11D1124659174912C1708F059C07C
:1015F000272F46FF76C0793288F430E0F901E752B0
:10160000FF4BA081AF3F51F02E5F3E4BF90130817F
:1016100020E2329FF0011124FC5FA18347FF2AC022
:1016200021E0270F293230F530E0F901E752FF4B76
:10163000D081DF3FF9F0F901EE5FFE4BA081F0E2CF
:10164000AF9FD0011124BC5F255D3E4BF901108195
:10165000F0E0E0E0183030F49D01205F3F4FF901E9
:10166000E10FF11D3FB7F8941296DC9320812860BA
:1016700020833FBF40FF15C023E0270F293288F4A5
:1016800030E0F901E752FF4B40814F3F51F02E5FB0
:101690003E4BD901EC91B0E2EB9FF0011124FC5FCD
:1016A0004183FC0123E0C29FE00DF11D112431961E
:1016B00025913491F901FF27EE51FA4F9081832F44
:1016C00080958923682B60835FBFDF91CF911F9145
:1016D0000F91FF90BF90AF909F908F9008951486C8
:1016E00074CF342F307509F499CF793208F096CF42
:1016F00030E0F901E752FF4BD081DF3F09F48ECF94
:10170000F901EE5FFE4BA081E0E2AE9FD001112413
:10171000BC5F255D3E4BF9011081F0E0E0E0183040
:1017200030F49D01205F3F4FF901E10FF11D3FB7FC
:10173000F8941296DC932081286020833FBF6ECFFF
:10174000FC010FB607FE04C0809111018823A9F0A7
:10175000A485B58514968C91149785FF0EC0958944
:101760008689981739F015968C9115978F7D159667
:101770008C930895E8940C941E1D08950F931F9365
:10178000CF93DF93EC018A89982F91609A8B2D89F2
:101790009E8929130AC0EC85FD85948195FF05C0BB
:1017A00081FD0DC080E4848312C0062F1D891F5F58
:1017B0001F738E89811315C0CE01C2DFFACF8581D8
:1017C0008F77806490E49483EC85FD858583EC8538
:1017D000FD85628381E090E0DF91CF911F910F91B1
:1017E0000895ED89EC0FFD2FF11DE95AFF4F00839D
:1017F0001D8BEC85FD858A8981FF09C085818F77E6
:10180000806690E49483EC85FD858583E3CF8581B4
:101810008062FBCFEF92FF920F931F93CF93DF93E2
:101820008C017B01D0E0C0E0F701EC0FFD1F64915B
:10183000662331F0C801A2DF892B11F02196F4CF85
:10184000CE01DF91CF911F910F91FF90EF900895FE
:10185000682F8EE195E492CFCF93DF93EC018A89D4
:1018600080FF0BC0EC85FD85858185FD03C08481EB
:1018700086FD03C0CE0164DFF5CFDF91CF910895DF
:1018800081E008950F98079A20E533EC93E0179ACA
:1018900044E1F9013197F1F74150D9F7482F179AF0
:1018A000F9013197F1F7179A59E0F9013197F1F7FA
:1018B0005150D9F7415099F7915049F7E7CF9FB769
:1018C000F894E0912A0BF0912B0B8091260B20913C
:1018D00003433091044340910543509106439FBF19
:1018E00080FF08C0EC3E8CE2F80720F42F5F3F4FEA
:1018F0004F4F5F4F0F011694079416940794169458
:10190000079416940794F00116940794E00DF11DC6
:1019100016940794102C169401181694010C169422
:1019200001181694010C1694011816941694010CC3
:101930001124E019F109A8EEB3E00E94533E6E0FA6
:101940007F1F811D911D08958F929F92AF92BF922C
:10195000CF92DF92EF92FF926B017C01B0DF4B01DF
:101960005C01C114D104E104F104B1F0A8DF6819ED
:1019700079098A099B09683E73408105910588F3BE
:1019800021E0C21AD108E108F10888EE880E83E050
:10199000981EA11CB11CE5CFFF90EF90DF90CF9077
:1019A000BF90AF909F908F9008952FB7F89460915B
:1019B00003437091044380910543909106432FBFE8
:1019C00008950F931F93CF93DF93EC01EEDF6093A5
:1019D00026457093274580932845909329458EE1AD
:1019E00095E456DD97FF21C0E0DF00912645109178
:1019F00027452091284530912945601B710B820BAA
:101A0000930B00912245109123452091244530915C
:101A10002545601771078207930708F390E080E07F
:101A2000DF91CF911F910F910895888381E090E01D
:101A3000F7CF0F931F93B9DF609326457093274527
:101A400080932845909329458EE195E435DD97FFF5
:101A50001CC0ABDF009126451091274520912845F9
:101A600030912945601B710B820B930B009122452D
:101A70001091234520912445309125456017710729
:101A80008207930708F38FEF9FEF1F910F9108953F
:101A9000CF92DF92EF92FF92CF93CBDFFC0197FDC5
:101AA0004BC08D32910521F0C0970A9708F03EC0D7
:101AB000C12CD12C7601C0E0E130F105D1F0ED323E
:101AC000F105C1F1CF01C0970A9798F4AAE0B0E000
:101AD000A70196010E94533E6F01FF0FEE08FF0819
:101AE000C60ED71EE81EF91E80E3C81AD108E10809
:101AF000F1088EE195E4CCDC9CDFFC01C0970A97ED
:101B0000D8F2E130F105C1F2CC2341F0F094E09439
:101B1000D094C094C11CD11CE11CF11CC701B601BA
:101B2000CF91FF90EF90DF90CF9008958EE195E4F4
:101B3000AFDCB3CFC1E0DDCFC12CD12C7601EECF2D
:101B4000CF92DF92EF92FF920F931F93CF93DF9389
:101B5000082F10E096E1899FE0011124C559D94B67
:101B60008E819F81A885B985892B8A2B8B2B99F132
:101B70001CDFCA88DB88EC88FD886C197D098E091A
:101B80009F09CE80DF80E884F984C616D706E80670
:101B9000F90658F48E859F85A889B9890196A11DFB
:101BA000B11D8E879F87A88BB98BFFDE26E1209F12
:101BB000F001219FF00D1124E559F94B628B738BD5
:101BC000848B958BDF91CF911F910F91FF90EF90B8
:101BD000DF90CF9008958E859F85A889B989019659
:101BE000A11DB11D8E879F87A88BB98BEBCF80E09D
:101BF000A7CF81E0A5CFCF92DF92EF92FF920F9314
:101C00001F93CF93DF9380911C4090E025E0959542
:101C100087952A95E1F78095909583709927C0EF75
:101C2000D2E002C0D595C7958A95E2F7209146404B
:101C300030914740DE010E94CA4028E13CEF4FEF5F
:101C40005FEF0E94373E8091254290912642019796
:101C5000280F391F209327423093284220E030E09C
:101C60004AE754E460912A4070912B4080912C40C7
:101C700090912D400E94803D0E94693F8E01DD0FB2
:101C8000220B330B6B017C01C01AD10AE20AF30A62
:101C9000A7019601A8EEB3E00E94533E6858734135
:101CA000810991090E941F3D2091184030911940EF
:101CB00040911A4050911B400E94FC3E0E94693F97
:101CC0006093214270932242809323429093244256
:101CD000DF91CF911F910F91FF90EF90DF90CF9008
:101CE0000895CF92DF92EF92FF926B017C01C09238
:101CF0002A40D0922B40E0922C40F0922D406091EF
:101D000046407091474090E080E00E941F3DA7014F
:101D100096010E94803D0E94693F60932542709326
:101D2000264220E034E244E759E4C701B6010E94AC
:101D3000803D209118403091194040911A405091B7
:101D40001B400E94FC3E0E94693F60935343709386
:101D500054438093554390935643FF90EF90DF9008
:101D6000CF9049CFEF92FF920F931F93CF93DF93C2
:101D7000E0911F42CE2FD0E07E01EE0CFF1CEE0C56
:101D8000FF1CD701A25DBF4B4D935D936D937C9378
:101D90001397B7016050704CDB010D931D932D9389
:101DA0003C9313979E01255D3B4B91E0D9019C9399
:101DB000A82FB0E0AC58BB4BEC93EF5FE0931F4211
:101DC000F0E0E25EFF4B8083DF91CF911F910F9196
:101DD000FF90EF900895DC01ED91FC91F170FC5EB5
:101DE00080810895CF92DF92EF92FF920F931F931D
:101DF000CF93DF9300D0CDB7DEB76C017C0103E059
:101E000010E009831A83CE010196E5DFF701819383
:101E10007F010F5F1F4F0730110599F7C6010F9023
:101E20000F90DF91CF911F910F91FF90EF90DF9076
:101E3000CF9008950F931F93CF93DF9300D000D0DE
:101E4000CDB7DEB78C0119821A82CE010196C3DFAD
:101E50008F34F9F481E090E089839A83CE01019672
:101E6000BADF8534B1F482E090E089839A83CE01B1
:101E70000196B1DF8D3469F481E00115110551F04F
:101E8000CE010196AFDF81E02B813C812017310725
:101E900009F080E02496CDBFDEBFDF91CF911F9186
:101EA0000F9108951F93CF93DF93EC01162F93DFCB
:101EB0008117B1F09FB780910210282F227081FD09
:101EC000FACFF8948DE984BF2093001023E184BFFA
:101ED00020930010E881F981F170FC5E10839FBFB0
:101EE000CE01DF91CF911F910895CF92DF92EF92B3
:101EF000FF920F931F93CF93DF9300D0CDB7DEB740
:101F00006C017C0103E010E009831A83F701619101
:101F10007F01CE010196C6DF0F5F1F4F073011050D
:101F200099F7C6010F900F90DF91CF911F910F91FC
:101F3000FF90EF90DF90CF9008950F931F93CF9372
:101F4000DF9300D0CDB7DEB70091BB461091BC4601
:101F50008091BD469091BE46081719079CF4C801B0
:101F6000957189839A836FEFCE0101969BDF109262
:101F7000B7461092B8468091B5469091B646080F84
:101F8000191FE6CF0F900F90DF91CF911F910F9106
:101F900008958627682F62956827062E66956695B0
:101FA0006025062E669560256770082E892F669538
:101FB00007946795902D8627069467959025862728
:101FC0000895DC01ED91FC910088F189E02D23E07A
:101FD00030E00994FB0101900020E9F73197AF014F
:101FE000461B570B19CA6115710509F0F3CF90E034
:101FF00080E008958F929F92AF92BF92EF92FF92EE
:102000000F931F93CF93DF93CDB7DEB7A197CDBFCB
:10201000DEBF7C01FA01CB0119A2223008F42AE0CC
:102020008E010F5D1F4F822E912CB12CA12CBF0170
:10203000A50194010E94633EF901CA016A30CCF403
:10204000605DD8016E938D01232B242B252B79F70E
:10205000BD01C701C8DFA196CDBFDEBFDF91CF9123
:102060001F910F91FF90EF90BF90AF909F908F9036
:102070000895695CE6CF6EE671E4ACCF0F931F93D1
:10208000CF93DF93EC01C6DB8C01CE01F4DF800F30
:10209000911FDF91CF911F910F910895CF92DF9201
:1020A000EF92FF92CF93DF93AB01BC0177FF19C092
:1020B0006A017C018DE2CCDBEC0144275527BA0193
:1020C0004C195D096E097F092AE08EE195E492DFE3
:1020D0008C0F9D1FDF91CF91FF90EF90DF90CF90FD
:1020E00008952AE08EE195E4DF91CF91FF90EF9083
:1020F000DF90CF907FCFBC01990F880B990BCECF8B
:10210000CF93DF93F8DFEC018EE195E4B4DF8C0F21
:102110009D1FDF91CF9108954F925F926F927F92B2
:102120008F929F92AF92BF92CF92DF92EF92FF92E7
:102130000F931F93CF936B017C01742EAC019B0115
:102140000E946C4061E771E4811126C0460157018D
:10215000E894B7F82FEF3FEF4FE75FE7C501B40111
:102160000E946C4081110CC02FEF3FEF4FE75FE7FB
:10217000C501B4010E941B3D65E771E4181664F0C7
:102180002FEF3FEF4FE75FE4C701B6010E94204009
:102190001816A4F469E771E48EE195E4CF911F91DC
:1021A0000F91FF90EF90DF90CF90BF90AF909F90F6
:1021B0008F907F906F905F904F900CCF2FEF3FEFFD
:1021C0004FE75FECC701B6010E941B3D87FDE2CFE0
:1021D00020E030E0A901C701B6010E941B3D10E0DC
:1021E00000E087FF07C08DE233DB8C01F7FAF09443
:1021F000F7F8F094C0E060E070E080E09FE37C16C8
:1022000041F020E030E040E251E40E94FC3ECF5F2C
:10221000F6CFA70196010E94953E2B013C010E943A
:10222000693F4B015C012AE0BC01A4018EE195E409
:10223000E1DE7C01E00EF11ECC23C9F1C501B40141
:102240000E941F3D9B01AC01C301B2010E94943E5C
:102250004B015C016DE771E48EE195E4BBDEE80EB5
:10226000F91EC15020F120E030E040E251E4C50108
:10227000B4010E94803D2B013C010E94693F4B014B
:10228000B12CA12C2AE0B501A4018EE195E4B2DEC7
:10229000E80EF91EC501B4010E941F3D9B01AC016F
:1022A000C301B2010E94943E4B015C01DACFC70129
:1022B000CF911F910F91FF90EF90DF90CF90BF9043
:1022C000AF909F908F907F906F905F904F90089508
:1022D000CF93DF9321DFEC018EE195E4CCDE8C0F10
:1022E0009D1FDF91CF91089517CFAF92BF92CF92EC
:1022F000DF92EF92FF920F931F93CF93DF9300D063
:10230000CDB7DEB76C015B0110E000E00A151B05DC
:10231000BCF57801EC0CFD1C85E1F822E982FA821B
:10232000CE01019658DD803110F480E391DA0F5F21
:102330001F4FE982FA82CE0101964DDD482F50E011
:1023400070E060E020E18EE195E454DE67E871E43E
:102350008EE195E43FDEC80187709927892B29F427
:1023600067E871E48EE195E435DEC8018F70992746
:10237000892B61F66CE870E18EE195E44BDAC6CF0B
:102380000F900F90DF91CF911F910F91FF90EF90E1
:10239000DF90CF90BF90AF900895CF92DF92EF92F1
:1023A000FF920F931F93CF93DF936FE670E185EB5E
:1023B00095E430DA40911D4550E070E060E02AE09D
:1023C00085EB95E417DE64E871E485EB95E402DEC5
:1023D0004091604050E070E060E02AE085EB95E4D9
:1023E00009DE80911D45882309F453C06BE570E137
:1023F00085EB95E443DE10E000E080911D458017F9
:10240000110609F00CF445C0680183E0CC0CDD1C1A
:102410008A95E1F7F12CE12CC0911B45D0911C4528
:10242000CC0DDD1DCE0DDF1D8881803128F469E5DE
:1024300070E185EB95E4EED9488150E070E060E012
:1024400020E185EB95E4D6DD67E570E185EB95E469
:10245000E1D98FEFE81AF80A88E0E816F104E1F60E
:10246000E0911B45F0911C45EC0DFD1D86818330EC
:1024700029F46CE370E185EB95E4CCD985EB95E428
:10248000FADD65E070E080E090E05EDA0F5F1F4FFC
:10249000B4CF85EB95E4EFDD61E270E185EB95E487
:1024A000B9D980911A456FE771E4882311F060E78C
:1024B00071E485EB95E497DD67E170E185EB95E4E8
:1024C000DDDD85EB95E4D7DD65E070E080E090E050
:1024D000DF91CF911F910F91FF90EF90DF90CF9000
:1024E00033CADF92EF92FF920F931F93CF93DF9344
:1024F00020916646211106C0E92ED82E0E94CF09F0
:1025000081110FC010926446109266461092654683
:1025100080E0DF91CF911F910F91FF90EF90DF90BE
:10252000089560E080EF0E949E09D1E000E0F12C68
:10253000C1E00E947909182F0E9479091130E1F455
:102540008130C9F5C134F0F2F0926446F11003C055
:1025500081E08093664680915C46882399F2ACE5E1
:10256000B6E4ED2DFE2DCF0108962D912193E817AD
:10257000F907D9F781E0CDCFE02FF0E0181311C0B3
:1025800080916446C817A8F4DF01A75AB94B139687
:102590008C918D2381F410E0C93010F4C09365460E
:1025A000FC2EE75AF94B83819D2F909589238383D5
:1025B0000AC08C13F0CFE02FF0E0E75AF94B83818B
:1025C0008D2B838311E0812F0E944509CF5FDD0FA2
:1025D00011F40F5FD1E0083008F4ABCFB3CF6DE159
:1025E00075E08EE195E44ADD67E175E08EE195E402
:1025F00011D98091BF468B3209F45BC1863509F44D
:102600005BC18B3509F45BC190E080E074DD6AE06A
:1026100075E08EE195E4FED84091C04650E070E050
:1026200060E02AE08EE195E4E5DC62E075E08EE1B1
:1026300095E4F0D88091C1468F7390E05CDD6FEF38
:1026400074E08EE195E4E6D88091C3468251990BFF
:1026500052DD6AEF74E08EE195E410DD6DEE74E01A
:102660008EE195E40BDD65EE74E08EE195E4D2D861
:102670006091C4467091C5468091C6469091C74608
:1026800042E050E025DE69ED74E08EE195E4C2D8C9
:102690006091C8467091C9468091CA469091CB46D8
:1026A00042E050E015DE60ED74E08EE195E4B2D8D2
:1026B0006091D0467091D1468091D2469091D34698
:1026C00042E050E005DE66EC74E08EE195E4A2D8CD
:1026D0006091D4467091D5468091D6469091D74668
:1026E00042E050E0F5DD6DEB74E08EE195E492D8C8
:1026F0006091D8467091D9468091DA469091DB4638
:1027000042E050E0E5DD63EB74E08EE195E482D8D1
:102710006091DC467091DD468091DE469091DF4607
:1027200042E050E0D5DD6AEA74E08EE195E472D8CB
:102730006091E0467091E1468091E2469091E346D7
:1027400042E050E0C5DD60EA74E08EE195E462D8D5
:102750006091E4467091E5468091E6469091E746A7
:1027600042E050E0B5DD67E974E08EE195E452D8CF
:102770006091E8467091E9468091EA469091EB4677
:1027800042E050E0A5DD6DE874E08EE195E442D8CA
:102790006091EC467091ED468091EE469091EF4647
:1027A00042E050E095DD64E874E08EE195E432D8D3
:1027B0006091F0467091F1468091F2469091F34617
:1027C00042E050E085DD6AE774E08EE195E422D8CE
:1027D0006091F4467091F5468091F6469091F746E7
:1027E00042E050E075DD61E774E08EE195E412D8D7
:1027F0006091F8467091F9468091FA469091FB46B7
:1028000042E050E065DD67E674E08EE195E402D8D1
:102810006091FC467091FD468091FE469091FF4686
:1028200042E050E055DD6CE574E08EE195E40E94F5
:102830000A0C609100477091014780910247909186
:10284000034742E050E044DD62E574E08EE195E448
:102850000E940A0C8091044790E052DC62E474E02C
:102860008EE195E40E940A0C8091054790910647FD
:1028700047DC8091C24666E274E0882311F06DE285
:1028800074E08EE195E4FADB63E374E08EE195E4B5
:102890000E940A0C8091074790E032DC809121472A
:1028A00067E074E0882311F067E174E08EE195E45D
:1028B000E5CB81EB91E0AACE84E693E0A7CE83E955
:1028C00093E0A4CE0F931F93CF93DF93893208F048
:1028D0007CC090E0DC01A752BF4B2C912F3F09F444
:1028E00074C08C010E5F1E4BE801E881D0E2ED9FC1
:1028F000F0011124FC5F611133C026833081232352
:10290000AC01455D5E4B211111C0EA012881309771
:1029100049F1283038F57096E20FF11D3FB7F89471
:102920002081611122C0277F20833FBFFA013081BF
:102930003F3F09F44AC0E8012881363058F530910C
:10294000E605432F4770241312C0EC91E53008F0E0
:10295000EE0F8091010AE095E823E093010A35C06B
:102960002583CCCFF0E0E0E0D9CF2860DDCF38710F
:1029700069F4213079F4EC91E53008F0EE0F8091A4
:10298000410AE095E823E093410A1FC0383111F471
:10299000263089F380559F4BFC01808185FF13C051
:1029A00030E1839FF0011124F75F91819770973098
:1029B00061F4EC91853270F4803298F48830E1F261
:1029C000803121F202C08111F4CFDF91CF911F91AC
:1029D0000F910895803471F08038B9F71092A006F5
:1029E000F4CF90E1899FF0011124F75F81818F7E00
:1029F0008183EBCF8091920B8E2339F3C0E22C9F21
:102A0000900111243C5FE83030F5205F3F4FE20F2A
:102A1000F32FF11D4FB7F8949091800B9E7F909308
:102A2000800B90918E0B90FFFCCF2091920B90E049
:102A30008095909530E08223932328ED24BF8093E6
:102A4000920B8091800B81608093800B80818F77C7
:102A500080834FBFBACFF0E0E0E0DCCF0F931F934D
:102A6000CF93DF93CDB7DEB72897CDBFDEBF2091E0
:102A70001B4530911C45232B31F0209109433091A7
:102A80000A43232B61F410921A4510921D45289693
:102A9000CDBFDEBFDF91CF911F910F910895182F09
:102AA000809161400E94EB0810931A45112309F4AC
:102AB00095C020E030E040E85FE360912A407091EB
:102AC0002B4080912C4090912D400E941B3D87FF10
:102AD00003C08FE180931C4000911C4090916040A6
:102AE000E0910943F0910A4380E020E335E798172D
:102AF00021F0219331938F5FFACF109264461092A8
:102B00006646109265461092634610926246109295
:102B100061461092604610925F4610925E46109297
:102B20005D4610925C4610921D45CE010196D9DC9F
:102B3000882349F089818832C1F780911D458F5FD4
:102B400080931D45F2CF8091604090911D4589177B
:102B500010F480931D45E0911B45F0911C45808148
:102B60008832A1F010E080911D45181778F428E014
:102B7000129FC001112420911B4530911C45820FEA
:102B8000931FAFDC882311F01F5FEDCF0E94CF09A8
:102B900060E08CEC0E949E0960E08EE40E949E0939
:102BA00060E080E00E949E0960E080E00E949E0953
:102BB00060E0802F0E949E090E94CF0960E08CECAB
:102BC0000E949E0961E088E40E949E0964E170E031
:102BD00080E090E00E94A40C0ED859CF809129404B
:102BE00087FDFACF8932A4F4282F082E000C330B6E
:102BF000F901E752FF4B90819F3F51F02E5F3E4B12
:102C0000D901EC91B0E2EB9FF0011124FC5F9183BC
:102C100060E058DE809129408932F0F690E0FC01B6
:102C2000E752FF4B20812F3FB9F2FC01EE5FFE4BD4
:102C3000A081E0E2AE9FD0011124BC5F855D9E4B78
:102C4000FC013081F0E0E0E0383028F4CD0140961E
:102C5000FC01E30FF11D9FB7F89412962C9380812D
:102C6000877F80839FBFB8CF0F931F93CF93DF934E
:102C7000CDB7DEB72C97CDBFDEBF681BF1F0062FB6
:102C800010E0682F70E066527B4BA801CE010196E0
:102C90000E94E440E1E0F0E0EC0FFD1FE00FF11FC7
:102CA0001082CE0101960E94813B2C96CDBFDEBFE3
:102CB000DF91CF911F910F91089590E080E0F5CFC3
:102CC0000F931F93CF93DF93CDB7DEB72C97CDBF74
:102CD000DEBF681BF1F0062F10E0682F70E066522F
:102CE0007B4BA801CE0101960E94E440E1E0F0E0B8
:102CF000EC0FFD1FE00FF11F1082CE0101960E9424
:102D00007E3B2C96CDBFDEBFDF91CF911F910F91FF
:102D1000089560E070E0CB01F4CF4F925F926F9224
:102D20007F928F929F92AF92BF92CF92DF92EF925B
:102D3000FF92CF93DF93C82F809018409090194056
:102D4000A0901A40B0901B4060914640709147405F
:102D500090E080E00E941F3D6B017C0160914C403F
:102D600070914D406F5F7F4F072E000C880B990BC1
:102D70000E94213DA50194010E94803D2BED3FE082
:102D800049EC50E40E94803DA70196010E94803DDD
:102D900020E034E244E759E40E94FC3E2B013C0170
:102DA000D0E0BE016F5F7F4F072E000C880B990BA0
:102DB0000E94213DA50194010E94803DA70196013A
:102DC0000E94803D20E034E244E759E40E94FC3E4A
:102DD0006B017C01CC0FDD1FCC0FDD1FFE01E0502D
:102DE000F04C20E030E044EB53E46081718182815B
:102DF00093810E94FC3E9B01AC01C701B6010E9479
:102E0000953E2BED3FE049EC50E40E94803D4B01A4
:102E10005C010E9424406B017C01C301B2010E944D
:102E200024409B01AC01C701B6010E94FC3E6B012E
:102E30007C01FE01ED5DFC4BC082D182E282F38217
:102E4000C501B4010E94F93E4B015C01C301B2010E
:102E50000E94F93E9B01AC01C55CDC4BC701B60189
:102E60000E94803D9B01AC01C501B4010E94943ECB
:102E7000688379838A839B83DF91CF91FF90EF9062
:102E8000DF90CF90BF90AF909F908F907F906F908A
:102E90005F904F900895CF93809346409093474022
:102EA000BC0190E080E00E941F3D20912A403091BB
:102EB0002B4040912C4050912D400E94803D0E941B
:102EC000693F60932542709326420E94FB0DC0E04B
:102ED00080914C4090914D40C817190624F48C2FD6
:102EE0001CDFCF5FF5CFCF9108954F925F926F9225
:102EF0007F92AF92BF92CF92DF92EF92FF920F93A9
:102F00001F93CF93DF93E82FCB01BA0168017901BA
:102F1000F0E0EC58FB4B108124E0129FE0011124FB
:102F2000FE01E25DFF4B5F0120912540309126407C
:102F300040912740509128400E94803D2B013C0148
:102F40006091694670916A4690E080E00E941F3D62
:102F50009B01AC01C301B2010E94FC3EF5016083FC
:102F6000718382839383C050D04CC882D982EA8215
:102F7000FB82812FDF91CF911F910F91FF90EF90F6
:102F8000DF90CF90BF90AF907F906F905F904F9009
:102F9000C4CE2F923F924F925F926F927F928F9208
:102FA0009F92AF92BF92CF92DF92EF92FF920F93D8
:102FB0001F93CF93DF93CDB7DEB72E97CDBFDEBF84
:102FC00084E08093210461E08AE07CDC9FB7F89480
:102FD00080E180930204809114048860809314043B
:102FE0009FBF9FB7F89480E28093020480911504FC
:102FF0008860809315049FBF40E052EC61E070E070
:103000008EE195E40E94E10F8091080485FD05C0E2
:103010008091C1468F5F8093C14662EE73E08EE17E
:1030200095E40E940A0C6AE971E48EE195E40E943D
:10303000F30F6CEC73E08EE195E420D886E190E02C
:103040000E941A0F882341F1CE0101960E94F20ED0
:1030500009811A8117FD20C0680123E0C20ED11C2E
:103060003FEBE32E36E4F32E87E090E05C013FEF88
:10307000A31AB30A8D839E83CE0105960E94EB0EA0
:10308000D7018D937D01C501AC14BD0478F36EE5C5
:1030900073E00430110511F46DE473E08EE195E402
:1030A0000E943E109CDA8091C246882309F45AC0DF
:1030B00063EC73E08EE195E40E940A0C6BEB73E025
:1030C0008EE195E40E940A0C8091BF468B3231F468
:1030D00064EB73E08EE195E40E940A0C8091BF4698
:1030E000863531F46DEA73E08EE195E40E940A0CB6
:1030F0008091BF468B3531F466EA73E08EE195E44A
:103100000E940A0C6DE973E08EE195E40E940A0CBE
:103110004091C04650E070E060E02AE08EE195E426
:103120000E94FA0F65E973E08EE195E40E940A0CB3
:103130004091C14650E070E060E02AE08EE195E405
:103140000E94FA0F63E973E08EE195E40E943E105D
:1031500062EA71E48EE195E40E94EA0F8EE195E463
:103160000E943B108091080484FD03C081E080939D
:103170001E428091C246882309F4CBC01091C046FC
:103180008091C14680936547B0E11B9FC001112427
:103190008127E4E08E9F900111248227807C809318
:1031A000664780E28093210481E08093410484E0BB
:1031B000809341042D9A8091E405837F8093E405F8
:1031C00080916109846080936109809160098162C6
:1031D000809360090E94D50C6B017C016AEA8FE242
:1031E0000E948C088FE20E9486088A3A59F00E9459
:1031F000D50C6C197D098E099F0962337105810513
:10320000910560F30E94D50C6B017C0165E58FE2AE
:103210000E948C088FE20E948608853559F00E9432
:10322000D50C6C197D098E099F09623371058105E2
:10323000910560F380916747813009F0EEC183E921
:1032400090E40E94AF0883E990E40E94AF086CE626
:1032500087E00E948C0860E888E00E948C0860E0AB
:1032600089E00E948C08612F80E30E948C0869E944
:1032700081E10E948C0884E00E9496080E94D50C8F
:103280006B017C0187E20E94860887FD0BC00E94CB
:10329000D50C6C197D098E099F0962337105810572
:1032A000910580F30E94D50C809167478130D9F059
:1032B00084E00E9496082D988EEB0E947C0809E815
:1032C00011E4D8018D918D010E947C08B1E4093987
:1032D0001B07B9F72D9A8DE30E948608682F61605D
:1032E0008DE30E948C082091C146E4E12E9F80016D
:1032F000112460E070E0CB010115110541F00E943E
:10330000293B9801110F440B550B0E94373E0E9438
:10331000A40C8EE08093050680910306809303063B
:103320001092B00086E08093020681E08093000650
:10333000809100068093000687E08093080660E095
:1033400070E0CB0150E040E021E020930A0630918C
:103350000D0630FFFCCF4A30510544F0E0911006D5
:10336000F09111066E0F7F1F811D911D4F5F5F4F02
:103370004A31F7E25F0749F70E941F3D20E030E441
:103380004CE156E40E94FC3E20E030EF4FE755E46C
:103390000E94FC3E9B01AC0166E676E686E69FE372
:1033A0000E94FC3E6B017C0163E773E08EE195E4D3
:1033B0000E940A0C44E050E0C701B6010E94681167
:1033C0008CE090E0809362409093634080E090E0D6
:1033D000ACEEB1E48093184090931940A0931A404A
:1033E000B0931B4080E090E18093694690936A46D9
:1033F00080E890E08093674690936846C0922540AD
:10340000D0922640E0922740F09228408091C44616
:103410009091C546A091C646B091C74610921E40F5
:103420008093484090934940A0934A40B0934B40CA
:103430000091D4461091D5462091D6463091D7467A
:103440004091D0465091D1466091D2467091D3467A
:1034500083E00E94B20E0091DC461091DD4620917F
:10346000DE463091DF464091D8465091D946609172
:10347000DA467091DB4684E00E94B20E0091E44689
:103480001091E5462091E6463091E7464091E046AE
:103490005091E1466091E2467091E34685E00E94DA
:1034A000B20E0091EC461091ED462091EE4630911F
:1034B000EF464091E8465091E9466091EA467091A6
:1034C000EB4686E00E94B20E0091F4461091F5465C
:1034D0002091F6463091F7464091F0465091F146E2
:1034E0006091F2467091F34688E00E94B20E00911E
:1034F000FC461091FD462091FE463091FF464091DA
:10350000F8465091F9466091FA467091FB4689E081
:103510000E94B20E80911E42882319F08CE390E045
:10352000BADC609100477091014780910247909109
:1035300003470E94710E8091C8469091C946A091A0
:10354000CA46B091CB4680934E4090934F40A09393
:103550005040B09351408091044780936B4681E086
:1035600080936C4686E080936F468093704680918E
:10357000054790910647092E000CAA0BBB0B8093C0
:10358000714690937246A0937346B09374468CE054
:10359000809361408BE08093294088E080932104F0
:1035A00061E08BE08FD98FE580931C4088E097E441
:1035B00080931B4590931C451092084780EA94E441
:1035C0008093094390930A4383E080936040E090A6
:1035D000B746F090B846E114F10409F4BFC0870182
:1035E0000F5F1F4F27E9C22E26E4D22E8091B546E9
:1035F0009091B6468E0D9F1D08171907C4F4C80197
:10360000957189839A83CE0101960E94EB0ED601B3
:103610008D936D010F5F1F4FE9CF823009F017CEF8
:1036200088E690E40E94AF0888E690E40ECE4090D1
:103630009746509098466090994670909A46809030
:103640009B4690909C46A0909D46B0909E46C09010
:103650009F46D090A046E090A146F090A2460091EF
:10366000A3461091A4462091A5463091A6464091CC
:10367000A7465091A8466091A9467091AA468091AC
:10368000AB469091AC46A091AD46B091AE468B87CB
:103690009C87AD87BE878091AF469091B046A09140
:1036A000B146B091B2468F839887A987BA87409276
:1036B0003F44509240446092414470924244809210
:1036C000434490924444A0924544B0924644C092F0
:1036D0004744D0924844E0924944F0924A440093CF
:1036E0004B4410934C4420934D4430934E444093AC
:1036F0004F445093504460935144709352448B858F
:103700009C85AD85BE858093534490935444A0938B
:103710005544B09356448F819885A985BA85809386
:10372000754690937646A0937746B09378468091FD
:10373000074794D980911F42882341F1282F30E018
:1037400020934C4030934D408F5F90E08630F0F4F2
:10375000FC01E55DFB4B10820196F8CF412C512C0A
:103760003201812C912C5401C12CD12C760100E026
:1037700010E0980140E050E0BA011B861C861D86CF
:103780001E861F82188619861A8691CF4090254082
:103790005090264060902740709028406091694684
:1037A00070916A4690E080E00E941F3D4B015C01F1
:1037B000209148403091494040914A4050914B40BF
:1037C000C301B2010E94803DA50194010E94FC3E0C
:1037D000609348407093494080934A4090934B4097
:1037E0008EE2E82E80E4F82E9BE0C92E93E4D92ED9
:1037F00010E000E080914C4090914D40081719076F
:1038000014F5D7012D913D914D915D917D011D01E3
:10381000B4E02B1A3108C301B2010E94803DA5011A
:1038200094010E94FC3EF101608371838283938343
:10383000802F73DAD6011D921D921D921D926D018B
:103840000F5F1F4FD7CF87EF9DE080936D4690931A
:103850006E4689EF9DE0809383469093844681E095
:1038600080931D401092FE421092FF42109200433E
:10387000109201439EE09093050690910306909369
:1038800003061092B00096E0909302068093000623
:10389000909100069093000690910006926090939C
:1038A00000061092080690910C06916090930C0609
:1038B00080930A067894C0902A40D0902B40E090E4
:1038C0002C40F0902D40609146407091474090E030
:1038D00080E00E941F3DA70196010E94803D0E944A
:1038E000693F60932542709326421092314420E054
:1038F00034E244E759E4C701B6010E94803D2091BB
:1039000018403091194040911A4050911B400E943C
:10391000FC3E0E94693F60935343709354438093ED
:103920005543909356430BE616E4F12CF801808141
:103930008823A1F18481893228F590E0FC01E752C7
:10394000FF4B20812F3FF1F0FC01EE5FFE4BA08189
:10395000F0E2AF9FD0011124BC5F855D9E4BFC015E
:103960003081F0E0E0E0383028F4CD014096FC01F1
:10397000E30FF11D9FB7F89412962C938081886015
:1039800080839FBF69EF7DE080918646F11004C07F
:1039900067EF7DE0809170460E94BC080A5E1F4F71
:1039A000F1E0FF1226C01092A6441092A744109294
:1039B000A8441092A9440E94CD1160E070E080E01C
:1039C00090E40E94710E2E96CDBFDEBFDF91CF91A5
:1039D0001F910F91FF90EF90DF90CF90BF90AF902D
:1039E0009F908F907F906F905F904F903F902F901F
:1039F0000895FF24F3949ACFEF93FF93EEE1F5E45B
:103A000015C0EF93FF93EEE1F5E43FC0EF93E0E6DE
:103A100060C0EF93FF93E5EBF5E408C0EF93FF93ED
:103A2000E5EBF5E432C0EF93E0E053C02F932FB7FE
:103A30002F938F939F93AF93BF936894CF93DF930C
:103A400020E0C485D8E09689DF01A90FB21FA95AEA
:103A5000BF4F8C9120E42C838A839F5F9F738D815D
:103A60002589291302C08F7D8D83968BDF91CF919D
:103A700016F00C94BD0BBF91AF919F918F912F9138
:103A80002FBF2F91FF91EF9118952F932FB72F9361
:103A90008F939F93CF93DF93C485D8E089819881DA
:103AA00081FD0DC0C38981E08C0F8F732489281795
:103AB00031F0CE0FDF2F20E0D21F9F8B838BDF9161
:103AC000CF919F918F912F912FBF2F91FF91EF91C8
:103AD0001895FF938F938FB78F93F8E0808184813F
:103AE00087FFFCCF85818F7B806885838F918FBF17
:103AF0008F91FF91EF9118951F920F920FB60F9231
:103B0000112484E00E94420C1F920F920FB60F9274
:103B100011248F939F93AF93BF9380910343909110
:103B20000443A0910543B09106430196A11DB11D28
:103B30008093034390930443A0930543B0930643BB
:103B400081E08093260BBF91AF919F918F910F9051
:103B50000FBE0F901F9018950F930AE00FC00F93A0
:103B600008E00CC00F9306E009C00F9304E006C004
:103B70000F9302E003C00F9300E000C00F920FB656
:103B80000F920BB60F921F921124FF921F932F9347
:103B90003F934F935F936F937F938F939F93AF93D5
:103BA000BF93CF93DF93EF93FF93A2E5B0E4A00F11
:103BB000B11DCD91DC91000F0D5FA02FB0E0FC9006
:103BC000109761F01F2D169518F041F02296FBCF4B
:103BD000E991F9913097B9F30995F5CFA02FB0E0AD
:103BE000FC92FF91EF91DF91CF91BF91AF919F91A7
:103BF0008F917F916F915F914F913F912F911F9185
:103C0000FF901F900F900BBE0F900FBE0F900F9163
:103C100018951F920F920FB60F9211240BB60F92A8
:103C20002F923F924F925F926F927F928F929F92CC
:103C3000AF92BF92CF92DF92EF92FF920F931F93BA
:103C40002F933F934F935F936F937F938F939F93A4
:103C5000AF93BF93CF93DF93EF93FF9381E0809374
:103C60000D064090100650901106C0910243E2E00C
:103C7000EC0F20914C4030914D40E217130621F09B
:103C80001CF0E1E0EC0FE21BF0E0E25EFF4B808114
:103C9000809308068091FE429091FF42A0910043DC
:103CA000B09101430196A11DB11D8093FE429093F6
:103CB000FF42A0930043B0930143C1113DC48091E2
:103CC000FC429091FD428093FA429093FB42809196
:103CD000694690916A4696958795481A590A409286
:103CE000FC425092FD428091F8429091F942AC0121
:103CF0005695479556954795841B950BA20157FEFF
:103D000004C04427552744195509840F951F8093F3
:103D1000F8429093F942E0916746F091684641E09D
:103D2000E817F90708F040E04093574414141504CD
:103D30000CF08EC041E050E04093F6425093F742C1
:103D4000A091F642B091F7424091E0425091E14299
:103D5000A417B50709F481C0609120426F5F60939A
:103D6000204260912042633030F010922042A093B4
:103D7000E242B093E34260912B42611110922B42D8
:103D80006090E2427090E342E817F90708F06BC2D6
:103D900081E06816710409F0C2C14130510509F48F
:103DA000C4C18091294290912A4201968093294270
:103DB00090932A4240911D40442309F471C00A9710
:103DC00008F46EC010921D401092294210922A42AF
:103DD000C4EAD2E4A4E7B2E464E472E44CE252E45C
:103DE00090E080E082179307DCF5188219821A822E
:103DF0001B821C821D821E821F8228961C92119695
:103E00001C92119712961C92129713961C9213975C
:103E100014961C92149715961C92159716961C9240
:103E2000169717961C9217971896FB01108211820D
:103E3000128213821482158216821782685F7F4F66
:103E4000FA011192119211921192AF010196CACF0B
:103E50001092F6421092F74273CF1092204281CF17
:103E60001092E8421092E9421092EA421092EB421C
:103E70001092EC421092ED421092EE421092EF42FC
:103E80001092E4421092E5421092E6421092E7420C
:103E90001092F2421092F3421092F4421092F542C4
:103EA0008091294290912A42409127425091284284
:103EB0008417950739F440911D40411103C041E03A
:103EC00040933244409125425091264284179507F1
:103ED00008F42BC180911D40811127C11092294205
:103EE00010922A42C4EAD2E4A4E7B2E414E4212EF8
:103EF00012E4312E6CE272E450E040E042175307C6
:103F00000CF09BC088809980AA80BB80CC80DD802B
:103F1000EE80FF802896CA01E3E0880F991FEA959A
:103F2000E1F78C0105501C4BF80180829182A2823E
:103F3000B382C482D582E682F7828C9011969C90DF
:103F400011971296AC9012971396BC9013971496F3
:103F5000CC9014971596DC9015971696EC901697C2
:103F60001796FC90179718968C0105531C4BF80177
:103F700080829182A282B382C482D582E682F78255
:103F80008E0108501109F8011082118212821382E9
:103F900014821582168217828D0108501109F801CA
:103FA0001082118212821382148215821682178265
:103FB000F10180809180A280B380C480D580E680AA
:103FC000F780F8E02F0E311C8C0105561C4BF801D0
:103FD00080829182A282B382C482D582E682F782F5
:103FE000810108501109F801108211821282138296
:103FF0001482158216821782FB0181909190A19004
:10400000B190BF0175016401FF0CCC08DC2C760176
:1040100085599C4BFC0180829182A282B382C4822A
:10402000C582C682C782CB010497FC01108211822F
:10403000128213824F5F5F4F61CF8091E442909173
:10404000E542A091E642B091E742AC01BD01770F95
:10405000440B542FBA018093574390935843A09335
:104060005943B0935A4340935B4340935C4340931E
:104070005D4340935E437091E8426091E942509104
:10408000EA424091EB423091EC422091ED42909116
:10409000EE428091EF427093634360936443509388
:1040A00065434093664330936743209368439093FE
:1040B000694380936A431092E8421092E942109259
:1040C000EA421092EB421092EC421092ED421092B2
:1040D000EE421092EF421092E4421092E5421092AA
:1040E000E6421092E7428091F2429091F342A09111
:1040F000F442B091F54280935F4390936043A09364
:104100006143B09362431092F2421092F3421092D4
:10411000F4421092F54281E08093314406C0452B71
:1041200021F01092F0421092F1428091F24290916F
:10413000F342A091F442B091F5420196A11DB11D48
:104140008093F2429093F342A093F442B093F542ED
:104150008091F0429091F14201968093F0429093C9
:10416000F1429201D2010E94C4406B017C01FF0C1C
:10417000CC08DC2C76019B01AC016C2D7C2D8C2DA8
:104180009C2DA090E842B090E942C090EA42D090C5
:10419000EB42E090EC42F090ED420091EE42109143
:1041A000EF420E94D0402093E8423093E94240938E
:1041B000EA425093EB426093EC427093ED4280935D
:1041C000EE429093EF42C201550CAA0BBB0B4091FB
:1041D000E4425091E5426091E6427091E742840FDB
:1041E000951FA61FB71F8093E4429093E542A093CA
:1041F000E642B093E7426092E0427092E1428091E1
:1042000002438F5F8093024320914C4030914D4098
:104210008217130619F014F010920243FF91EF91E8
:10422000DF91CF91BF91AF919F918F917F916F91CE
:104230005F914F913F912F911F910F91FF90EF90C0
:10424000DF90CF90BF90AF909F908F907F906F90B6
:104250005F904F903F902F900F900BBE0F900FBE2E
:104260000F901F9018954091FE425091FF4260912F
:104270000043709101438091214290912242A0918C
:104280002342B091244284179507A607B70748F444
:1042900080910843811105C081E08093324480936E
:1042A00008434091FE425091FF426091004370915B
:1042B00001438091534390915443A0915543B09151
:1042C000564384179507A607B70708F02ECF10921C
:1042D000FE421092FF42109200431092014381E08F
:1042E00080931D401092294210922A42C4EAD2E4DF
:1042F00014E7212E12E4312EE4E4F2E46CE272E4DD
:1043000050E040E0421753070CF0C5C0CA01A3E0DB
:10431000880F991FAA95E1F78C0105501C4BD80115
:104320001C9211961C92119712961C92129713963A
:104330001C92139714961C92149715961C9215971D
:1043400016961C92169717961C928C0105531C4BBF
:10435000D8011C9211961C92119712961C921297DA
:1043600013961C92139714961C92149715961C92F0
:10437000159716961C92169717961C9218821982FA
:104380001A821B821C821D821E821F822896D101E6
:104390001C9211961C92119712961C9212971396CA
:1043A0001C92139714961C92149715961C921597AD
:1043B00016961C92169717961C92B8E02B0E311C7D
:1043C00080809180A280B380C480D580E680F78011
:1043D00038968C0105561C4BD8018C9211969C92F4
:1043E00011971296AC9212971396BC92139714964B
:1043F000CC9214971596DC9215971696EC92169718
:104400001796FC927F01B8E0EB1AF108D7011C92D5
:1044100011961C92119712961C92129713961C9249
:10442000139714961C92149715961C92159716962E
:104430001C92169717961C92DB018D909D90AD9063
:10444000BD90BD0175016401FF0CCC08DC2C760128
:1044500085599C4BDC018C9211969C921197129677
:10446000AC9212971396BC9213971496CC92149711
:104470001596CC9215971696CC9216971796CC92C5
:10448000CB010497DC011D921D921D921C92139783
:104490004F5F5F4F37CF7091E8426091E942509192
:1044A000EA424091EB423091EC422091ED429091F2
:1044B000EE428091EF427093634360936443509364
:1044C00065434093664330936743209368439093DA
:1044D000694380936A431092E8421092E942109235
:1044E000EA421092EB421092EC421092ED4210928E
:1044F000EE421092EF428091E4429091E542A09109
:10450000E642B091E742AC01BD01770F440B542F56
:10451000BA018093574390935843A0935943B09363
:104520005A4340935B4340935C4340935D434093C5
:104530005E43D1CD1082B0C0D0E02C173D070CF403
:104540005ECE2197FE01E55DFB4B1E01220C331C64
:10455000B6E04B16510474F381E080838091694684
:1045600090916A4696958795F101EC52FD4B6080DB
:104570007180681A790A4E0133E0880C991C3A95CB
:10458000E1F7F401EC55FD4BA091FA42B091FB42EA
:1045900093010E94C4406B017C01FF0CCC08DC2C11
:1045A00076019B01AC016C2D7C2D8C2D9C2DA08067
:1045B000B180C280D380E480F580068117810E949B
:1045C000D040208331834283538364837583868301
:1045D0009783F401EC58FD4BA091FC42B091FD4251
:1045E00093010E94C4406B017C01FF0CCC08DC2CC1
:1045F00076019B01AC016C2D7C2D8C2D9C2DA08017
:10460000B180C280D380E480F580068117810E944A
:10461000D0402083318342835383648375838683B0
:104620009783F401EC5BFD4B9301D3010E94C440DE
:104630006B017C01FF0CCC08DC2C76019B01AC01EA
:104640006C2D7C2D8C2D9C2DA080B180C280D380C0
:10465000E480F580068117810E94D0402083318359
:10466000428353836483758386839783CC0FDD1FD6
:10467000CC0FDD1FC45DDD4BC301770CAA0BBB0B58
:10468000488159816A817B81840F951FA61FB71FBE
:1046900088839983AA83BB83F101EC52FD4B40824E
:1046A0005182ADCDCF92DF92EF92FF920F931F9385
:1046B000CF93DF9300D0CDB7DEB710922045109294
:1046C0002145F8EECF2EF3E0DF2EE12CF12CC09245
:1046D0002245D0922345E0922445F092254548E5B5
:1046E00051E440931E4550931F4580E698E0809327
:1046F0002A4590932B458EE890E180932C4590932A
:104700002D4582E080932E4510922F451092304522
:104710001092B7451092B845C092B945D092BA45AB
:10472000E092BB45F092BC454093B5455093B645E9
:1047300040E058E04093C1455093C24547E950E1FD
:104740004093C3455093C4458093C54581E0809311
:10475000C6451092C74540E05BE167EB70E080E042
:104760008F5F863011F487E00BC07695679557957B
:104770004795413099E059079DE36907710580F736
:1047800094E090935846482F4095242F217030E0B4
:1047900044E0220F331F4A95E1F731E08162822B1A
:1047A0008093574640E459E040934C4650934D4621
:1047B00090934F4686E08093504610925246109256
:1047C000534610926B4610926C4623E020936F463E
:1047D000309370468EE690E0A0E0B0E080937146A2
:1047E00090937246A0937346B093744610927546A8
:1047F000109276461092774610927846109279463B
:1048000010927A4610927B4610927C461092814616
:104810001092824620938546309386468093874641
:1048200090938846A0938946B0938A4610928B460F
:1048300010928C4610928D4610928E4610928F46A2
:1048400010929046109291461092924681E090E02C
:104850000090624002C0880F991F0A94E2F780938B
:10486000694690936A4655E0969587955A95E1F783
:104870008093674690936846809161400E94EB0860
:104880008EEF90E08093B9469093BA468DE190E028
:104890008093B5469093B6468EE090E08093B34601
:1048A0009093B44686E690E08093BB469093BC46D6
:1048B0008CEF91E08093BD469093BE461092B74630
:1048C0001092B84606E610E009831A83CE010196DD
:1048D0000E94EB0E78019DE1E90EF11C8F3F09F477
:1048E000E3C00093B7461093B8468CEFE81681E01A
:1048F000F8065CF4E982FA82CE0101960E94EB0E82
:104900008F3F09F4CDC00E949D0F82E080936747DE
:104910008BE28093BF4682ED8093C04681E1809315
:10492000C14621E02093C24689E18093C3468AE0D4
:1049300097EFA9E4B4E48093C4469093C546A0934E
:10494000C646B093C74680E090E0A0E7B3E480930A
:10495000C8469093C946A093CA46B093CB4680E020
:1049600090E0A8E4B2E48093CC469093CD46A09327
:10497000CE46B093CF4686E696E2A6E9B3E48093AE
:10498000D0469093D146A093D246B093D3468DECB7
:104990009CECACE4B0E48093D4469093D546A093CD
:1049A000D646B093D74646E656E266E173E44093B6
:1049B000D8465093D9466093DA467093DB4680938D
:1049C000DC469093DD46A093DE46B093DF464093ED
:1049D000E0465093E1466093E2467093E34680934D
:1049E000E4469093E546A093E646B093E74641E758
:1049F0005DE360E772E44093E8465093E9466093D4
:104A0000EA467093EB468093EC469093ED46A09374
:104A1000EE46B093EF464093F0465093F1466093D4
:104A2000F2467093F3468093F4469093F546A09334
:104A3000F646B093F7464093F8465093F946609394
:104A4000FA467093FB468093FC469093FD46A093F4
:104A5000FE46B093FF468DEC9CECACE1B1E4809354
:104A6000004790930147A0930247B09303472093D8
:104A7000044784E690E0809305479093064720938F
:104A8000074710922047109221470F900F90DF9117
:104A9000CF911F910F91FF90EF90DF90CF900895ED
:104AA0009DE1E90EF11C21CF87018CEFE81681E032
:104AB000F80609F009CF29CFCF93DF93CDB7DEB742
:104AC000C95BD109CDBFDEBF88ED21E030E084BFF6
:104AD0002093620091E084BF909363009DE284BFC5
:104AE0009093800093E084BF9093600080E090E218
:104AF0002091650020FDCDC021E02093030A8EEFB8
:104B00008093260A8093270A9BE09093000A32E064
:104B10003093E6052093430A8093660A8093670AE0
:104B20009093400A9093E705E0E0FBE027E09EEFDA
:104B300085E021839487158680837096E0343BE07E
:104B4000F307B9F72FEF3FE02093AA0B3093AB0B9D
:104B500090E89093820B1092810B2EEF30E020931F
:104B6000AE0B3093AF0B98ED24E194BF2093680017
:104B700091E19093800B809302069EE0909305064E
:104B800090E690930306809300068091B000887FA2
:104B900085608093B0008091B200887F85608093AB
:104BA000B2008FED9EE280932C0B90932D0B81E051
:104BB0008093250B1092210B83E08093200B789437
:104BC0000E94C9171E0145E3240E311CBE01665F19
:104BD0007F4F6FAB78AF8EE195E40E946A0A892B14
:104BE00009F49EC08EE195E40E94480AD0900743E4
:104BF0008A3009F05BC5AD2DB0E0A652BB4B1C92CC
:104C0000E091DA44EF53EC3308F082C00E2E000C32
:104C1000FF0BE35FF94D0C94BB403E2B88268826A2
:104C20008826882688268826882688268826882614
:104C30008826882688268826882688268826882604
:104C400088268826882688268826882688268826F4
:104C500088268826882688268826882688268826E4
:104C60004F267B2647275C2765277C2788266629D1
:104C700037279727FC280429662988268029882633
:104C80009629C529962A8826F62A022B182B8826CB
:104C90001F2B019709F02CCF83E00E94420C72E099
:104CA000D71236C08BED94E40E94813B843071F4BE
:104CB0008BE28093BF4681EB91E00E947B106FE610
:104CC0007EE08EE195E40E943E1022C0883069F0BB
:104CD000893029F01092BF4690E080E0EECF8BE55E
:104CE0008093BF4683E993E0E8CF86E58093BF4693
:104CF00084E693E0E2CF82E0D8120AC08BED94E420
:104D00000E94813B019709F0AFC081E0809320476A
:104D100080E4AAEDB4E41D928A95E9F71092074366
:104D200080913244882369F11092324480911A456F
:104D3000882339F18091294087FD19C08932A4F474
:104D4000282F082E000C330BF901E752FF4B9081FE
:104D50009F3F51F02E5F3E4BD901EC91B0E2EB9FAB
:104D6000F0011124FC5F918361E00E9462140E94B3
:104D7000CF0960E08CEC0E949E0961E084E40E940F
:104D80009E0980913144882311F40C944338109289
:104D90003144F89420914C4030914D4090E080E0B7
:104DA000821793070CF08FC4FC01E55DFB4B40813B
:104DB000411158C0FC0173E0EE0FFF1F7A95E1F737
:104DC000DF01A550BC4B1C9211961C9211971296B4
:104DD0001C92129713961C92139714961C92149778
:104DE00015961C92159716961C92169717961C925C
:104DF000DF01A553BC4B1C9211961C921197129681
:104E00001C92129713961C92139714961C92149747
:104E100015961C92159716961C92169717961C922B
:104E2000DF01A556BC4B1C9211961C92119712964D
:104E30001C92129713961C92139714961C92149717
:104E400015961C92159716961C92169717961C92FB
:104E5000E559FC4B10821182128213821482158252
:104E60001682178201969CCF1092204751CF92E074
:104E7000D9124ECF8BED94E40E94813B019721F42F
:104E800081E08093214744CF1092214741CF8BEDA1
:104E900094E40E947E3B6B017C016EE57EE08EE136
:104EA00095E40E940A0C42E050E0C701B6010E945E
:104EB00074116BE57EE005CF8AE08C936BED74E4B2
:104EC0008EE195E40E94F30F23CFA3E0DA1220CF06
:104ED0008BED94E40E947E3B0E94643F6B01CB010A
:104EE0000E944B1764E57EE08EE195E40E940A0C77
:104EF000C6010E9480100CCF8BED94E40E94813B90
:104F00008093C0466DE47EE08EE195E40E940A0C39
:104F10004091C04650E070E060E02AE08EE195E408
:104F20000E94FA0F8EE195E40E943B10F1CE60E200
:104F300070E08AED94E40E94D940009711F40C943B
:104F4000D93A8C010A5D1444C801992760E270E0E7
:104F500085529B4B0E94D940CC24C394C00E00972D
:104F600011F40C94CC3AFC01EA5DF4445F01602F2B
:104F700081E00E9434167C016A2D8C2D0E946016FF
:104F80002B013C016D2D81E08A0D0E946016219657
:104F90006CAF7DAF8EAF9FAF2197F7E0EF16F104B6
:104FA00008F038C0F701E952F84D0C94BB40DE27F9
:104FB0003028522874289628B828DA2820912540CD
:104FC000309126404091274050912840C301B201C2
:104FD0000E94803D4B015C016091694670916A4678
:104FE00090E080E00E941F3D9B01AC01C501B4012F
:104FF0000E94FC3E609348407093494080934A4031
:1050000090934B404092C4465092C5466092C6462B
:105010007092C74666E47EE08EE195E40E940A0C39
:10502000C7010E947B1064E47EE08EE195E40E945B
:105030000A0C42E050E0C301B2010E94741162E424
:105040007EE08EE195E40E940A0C42E050E0219659
:105050006CAD7DAD8EAD9FAD21970E94681158CE8D
:1050600021960CAD1DAD2EAD3FAD2197B301A20130
:1050700083E00E9475174092D0465092D1466092CC
:10508000D2467092D34621962CAD3DAD4EAD5FAD6C
:1050900021972093D4463093D5464093D6465093DB
:1050A000D746B8CF21960CAD1DAD2EAD3FAD2197A3
:1050B000B301A20184E00E9475174092D846509235
:1050C000D9466092DA467092DB4621964CAD5DADD2
:1050D0006EAD7FAD21974093DC465093DD466093E3
:1050E000DE467093DF4696CF21960CAD1DAD2EADFA
:1050F0003FAD2197B301A20185E00E947517409250
:10510000E0465092E1466092E2467092E346219674
:105110006CAD7DAD8EAD9FAD21976093E4467093ED
:10512000E5468093E6469093E74674CF21960CAD12
:105130001DAD2EAD3FAD2197B301A20186E00E94C7
:1051400075174092E8465092E9466092EA4670929E
:10515000EB4621968CAD9DADAEADBFAD2197809352
:10516000EC469093ED46A093EE46B093EF4652CFB7
:1051700021960CAD1DAD2EAD3FAD2197B301A2011F
:1051800088E00E9475174092F0465092F146609276
:10519000F2467092F34621962CAD3DAD4EAD5FAD1B
:1051A00021972093F4463093F5464093F64650936A
:1051B000F74630CF21960CAD1DAD2EAD3FAD2197FA
:1051C000B301A20189E00E9475174092F8465092FF
:1051D000F9466092FA467092FB4621964CAD5DAD61
:1051E0006EAD7FAD21974093FC465093FD46609392
:1051F000FE467093FF460ECF51E0D51289CD0E9436
:10520000EF120E94CD1184CD60E270E08AED94E44B
:105210000E94D9400097F9F46D2D81E00E94341668
:105220008C010115110569F10130110591F169E356
:105230007EE08EE195E40E940A0C61E37EE0012BA2
:1052400009F43FCD42E050E0C301B2010E94741165
:1052500065E37EE036CDBC016A5D74447B0181E08C
:105260000E9434168C016D2D81E08E0D0E94341643
:10527000BC01990F880B990B0E94213D2B013C0129
:10528000D0CF10926B4681E080936C461092044719
:10529000CECFC301B2010E94643F6B01072E000C08
:1052A000EE08FF08C0927146D0927246E0927346B3
:1052B000F092744621E020936B4620936C46209335
:1052C00004476093054770930647B1CF8BED94E494
:1052D0000E94813B882389F099278034910514F03E
:1052E0008FE390E08093C1466BE27EE08EE195E42F
:1052F0000E940A0C4091C1460DCE81E090E0F2CFB1
:105300008BED94E40E94813B8F718093C34666E2EB
:105310007EE08EE195E40E940A0C8091C3468251A2
:10532000990B0E947B1061E27EE0CBCC71E0D7123A
:10533000EFCC6FE276E08EE195E40E943E1086E1CC
:1053400090E00E941A0F882389F0CE0101960E94F6
:10535000F20E89819A8197FD09C0919581959109F5
:1053600089839A83CE0101960E94750F61E076E0F1
:105370008EE195E40E943E1068EC70E080E090E0E1
:105380000E94A40C0C940000C3CC81E0D812C0CCC5
:1053900067EF75E08EE195E40E943E1086E190E0B3
:1053A0000E941A0F811128C019821A826FE4CE015F
:1053B00001960E94520F81E090E089839A8365E410
:1053C000CE0101960E94520F82E090E089839A8379
:1053D0006DE4CE0101960E94520F03E010E00983B4
:1053E0001A836FEFCE0101960E94520F0F5F1F4F7D
:1053F000011592E0190799F787E690E089839A836F
:1054000086E190E08B839C83CE0101960E94750F0C
:105410000FEB16E487E090E0D8016D918D017C01DF
:10542000BFEFEB1AFB0A8DAB9EABC1010E94520F7E
:10543000C7018A36910581F790E080E00E941A0F3B
:10544000811122C06FEC75E08EE195E40E940A0C98
:105450002AE040E052E060E070E08EE195E40E94D6
:10546000FA0F69EA75E08EE195E40E943E1060E073
:1054700072E090E080E00E94751167EA75E08EE1CD
:1054800095E40E940A0C0EC0CE0101960E94F20E15
:105490008B819C81019669F466E575E08EE195E467
:1054A0000E943E108EE195E40E943B1066ED75E08F
:1054B00008CC69E475E08EE195E40E940A0C4B810A
:1054C0005C8170E060E02AE08EE195E40E94FA0FD2
:1054D00009811A8117FF03C0119501951109045024
:1054E00011096BE375E08EE195E40E940A0CC80196
:1054F0000E947B1064E375E08EE195E40E940A0C43
:1055000089819A8197FF06C069E275E08EE195E492
:105510000E940A0C8EE195E40E943B10B80187E0DE
:1055200090E00E94751167E275E0A9CF0E94480DD6
:105530006B01CB01892B71F40E94480D21E0672B90
:10554000682B692B09F420E020930747822F0E94E3
:105550002E15DECB6430710508F0DACBC1010E9454
:10556000E10C10E000E0C1010E94E10C892B49F13F
:10557000083038F58DA9803221F08D3011F08A3055
:1055800051F4E1E0F0E0EC0FFD1FE00FF11D10839E
:105590000F5F10E0E8CF1295107F90ED980F9A30D2
:1055A00030F09FEB980F963020F499EC980F190F7C
:1055B000DACF9FE9980F963010F499EAF7CF90E090
:1055C000F6CFDE011196F3E0CC0CDD1CFA95E1F785
:1055D00090E080E02D91F601E80FF91FE050F94BC3
:1055E0002083019688309105A9F792CBF1E0DF1274
:1055F0008FCB66E17EE08EE195E40E940A0C6AE9B9
:1056000071E45ECCE2E0CE2EDC1082CB1092C2467A
:105610008091DB44813319F481E08093C24680910C
:10562000C24660E17EE081114CCB69E07EE049CB6F
:10563000EE24E3946BEF7DE0DE106ACB42CBFF24D7
:10564000F394DF1065CB61EE7DE08EE195E40E947E
:105650003E100E949D0FEFE3F4E41192119211921B
:10566000119224E4E735F207C1F7109275461092C3
:10567000764610927746109278464ACB31E0D312A4
:1056800047CB0EE316E0F801F490FF2061F0FAE05A
:10569000FF1203C08DE00E94280C8F2D0E94280C61
:1056A0000F5F1F4FF0CF6CE376E00BCBBFE3BD1570
:1056B00008F436CBED2DF0E0E652FB4B8083D3941B
:1056C000D09207432DCB4BE6C42E46E4D42E10E0F7
:1056D00000E0EE24E394F12C66E1B62EF601818120
:1056E000882309F476C080818823C9F184818932B6
:1056F00028F590E0FC01E752FF4B40814F3FF1F06D
:10570000FC01EE5FFE4B2081F0E22F9F90011124FF
:105710003C5F855D9E4BDC018C91F0E0E0E08830E1
:1057200020F4F9017096E80FF11D9FB7F894D901A4
:1057300012964C938081886080839FBF67EF7DE0E5
:10574000809170460115110521F069EF7DE080918F
:1057500086460E94BC083DC001E010E0BFCF8581B5
:105760008932A0F590E0FC01E55DFE4B20812F3FE2
:1057700069F18E5F9E4BDC018C91E82FE295EE0F74
:10578000E07EE20FF0E0E05FFB4F9081917F90833D
:1057900090E0FC01B4E0EE0FFF1FBA95E1F7422F55
:1057A00050E0B70102C0660F771F2A95E2F76383C6
:1057B000880F991FFC01EE5AFF4B440F551F0190B3
:1057C000F081E02DE40FF51F10821182D6011196B1
:1057D0001C92B09EF001B19EF00D11249F0125593D
:1057E000394BF90186859785A089B189892B8A2B48
:1057F0008B2BC1F04685578560897189F6018285BA
:105800009385A485B585840F951FA61FB71F828732
:105810009387A487B587D9011E961D921D921D926C
:105820001C925197B6E1CB0ED11C0130110509F045
:1058300093CF7894209163433091644340916543C2
:1058400050916643609167437091684380916943CA
:1058500090916A4380905F4390906043A090614331
:10586000B09062431091574300915843C090594300
:105870002A96CFAE2A97D0905A436096DFAE6097B3
:10588000E0905B436296EFAE6297F0905C432C969B
:10589000FFAE2C97C0905D436496CFAE6497D090D6
:1058A0005E436896DFAE6897E09057436C96EFAE24
:1058B0006C97F09058436E96FFAE6E97C090594328
:1058C000A296CFAEA297D0905A43A696DFAEA697E7
:1058D000E0905B43AA96EFAEAA97F0905C43AC963B
:1058E000FFAEAC97C0905D43AE96CFAEAE97D09072
:1058F0005E43E096DFAEE097C0905F43D090604398
:10590000E0906143F0906243C9AEDAAEEBAEFCAE1C
:10591000C0905F43D0906043E0906143F090624359
:105920002596CCAEDDAEEEAEFFAE25970E94993F38
:105930006B017C01C501B4010E94213D9B01AC01BA
:10594000C701B6010E94FC3E6B017C01212F302F64
:105950002A964FAD2A9760965FAD609762966FADBD
:1059600062972C967FAD2C9764968FAD649768965E
:105970009FAD68970E94953F4B015C016C962FADDF
:105980006C976E963FAD6E97A2964FADA297A69676
:105990005FADA697AA966FADAA97AC967FADAC9770
:1059A000AE968FADAE97E0969FADE0970E94953F83
:1059B0009B01AC01C501B4010E94803D4B015C011B
:1059C00069AD7AAD8BAD9CAD0E94213D9B01AC01D0
:1059D000C501B4010E94FC3E4B015C0125966CADF3
:1059E0007DAD8EAD9FAD25970E94213D9B01AC0101
:1059F000C501B4010E94FC3E9B01AC01C701B60188
:105A00000E94943E0E942E40C0904840D090494051
:105A1000E0904A40F0904B406796CCAEDDAEEEAEE3
:105A2000FFAE6797A70196010E94803D6B966CAF11
:105A30007DAF8EAF9FAF6B9760935844709359447E
:105A400080935A4490935B44E0904C40F0904D40DA
:105A50006D96EEAEFFAE6D9780905F439090604381
:105A6000A0906143B090624360915343709154435E
:105A700080915543909156430E941F3D6B017C01DC
:105A80006D96AEADBFAD6D971196A50194010E94C4
:105A90005D3E0E94213D9B01AC01C701B6010E9401
:105AA000FC3EA1966CAF7DAF8EAF9FAFA197F090FB
:105AB0005744CB57DF4FF882C558D040C0904E4076
:105AC000D0904F40E0905040F0905140CA57DF4F87
:105AD000C882D982EA82FB82C658D040C0902A4050
:105AE000D0902B40E0902C40F0902D40A996CCAE69
:105AF000DDAEEEAEFFAEA9972FE334E463962EAF92
:105B00003FAF63974BE053E461964EAF5FAF619751
:105B100063E374E42B966EAF7FAF2B9788E894E431
:105B200089AF9AAFABE3B3E4AB96AEAFBFAFAB9781
:105B3000E3E2F3E4E196EEAFFFAFE1972EE230E46B
:105B4000AF962EAF3FAFAF974CE554E4AD964EAF56
:105B50005FAFAD9723961EAE1FAE23976D96CEAC6A
:105B6000DFAC6D972396EEACFFAC2397EC14FD04ED
:105B70000CF001C59701A3E0220F331FAA95E1F7AE
:105B8000D901A550BC4BFC90C657DF4FF882CA58CC
:105B9000D0401196CC901197C557DF4FC882CB5893
:105BA000D0401296DC901297C457DF4FD882CC5861
:105BB000D0401396EC901397C357DF4FE882CD582F
:105BC000D0401496FC901497C257DF4FF882CE58FD
:105BD000D0401596CC901597C157DF4FC882CF584B
:105BE000D0401696DC901697C057DF4FD882C05928
:105BF000D0401796EC90CF56DF4FE882C159D04085
:105C0000AB96AEADBFADAB97CD90DD90ED90FD9076
:105C1000AB96AEAFBFAFAB972996CCAEDDAEEEAED6
:105C2000FFAE2997D901A553BC4BCC90CE56DF4F80
:105C3000C882C259D0401196DC901197CD56DF4FE3
:105C4000D882C359D0401296EC901297CC56DF4FB1
:105C5000E882C459D0401396FC901397CB56DF4F7F
:105C6000F882C559D0401496CC901497CA56DF4F8D
:105C7000C882C659D0401596DC901597C956DF4F9B
:105C8000D882C759D0401696EC901697C856DF4F69
:105C9000E882C859D0401796FC90C756DF4FF8826B
:105CA000C959D040E196AEADBFADE197CD90DD9042
:105CB000ED90FD90E196AEAFBFAFE197E596CCAE2B
:105CC000DDAEEEAEFFAEE597C0905F43D09060438F
:105CD000E0906143F0906243E996CCAEDDAEEEAE6B
