:10020000DCC6000004C7000002C700000C94591CA3
:10021000FEC60000FCC60000FAC60000F8C60000DA
:100220000C94981CF4C60000F2C60000F0C6000052
:10023000EEC60000ECC60000EAC60000E8C60000FA
:10024000E6C60000E4C60000E2C60000E0C600000A
:10025000DEC600000C94EB1B0C94E61B0C94F01B08
:100260000C948F1CD4C600000C94E61CD0C6000071
:10027000CEC60000CCC600000C94921C0C94611CED
:10028000C6C60000C4C60000C2C600000C94891C8B
:10029000BEC60000BCC60000BAC60000B8C600005A
:1002A000B6C60000B4C60000B2C60000B0C600006A
:1002B000AEC600000C94951C0C948C1CA8C60000C3
:1002C000A6C60000A4C60000A2C60000A0C600008A
:1002D0009EC600000C94DE1B0C94D91B0C94E31BEF
:1002E00096C6000094C6000092C6000090C60000AA
:1002F0008EC6000005A84CCDB2D44EB93836A9023E
:100300000C50B9918688083CA6AAAA2ABE00000013
:10031000803F4E414E494E495459494E46CDCCCC72
:100320003D0AD7233C17B7D13877CC2B329595E6C9
:10033000241FB14F0A000020410000C84200401CA9
:100340004620BCBE4CCA1B0E5AAEC59D744E6F20D3
:10035000454550524F4D20636F6E666967004C6F84
:100360006164656420454550524F4D20636F6E6651
:100370006967004E6F2074656D7065726174757287
:10038000652073656E736F72732064657465637442
:1003900065642C2064697361626C696E67207465A2
:1003A0006D7065726174757265005265666572651F
:1003B0006E636520766F6C746167652063616C693C
:1003C00062726174696F6E3A20002000204E6F6483
:1003D000653A20002047726F75703A200039313538
:1003E0004D487A003836384D487A003433334D481A
:1003F0007A0020467265713A200052464D363943E4
:100400005720004F70656E456E657267794D6F6E4F
:1004100069746F722E6F726700656D6F6E5478200D
:10042000563420434D20436F6E74696E756F75733B
:10043000204D6F6E69746F72696E672056004A5363
:100440004F4E20466F726D6174204F6666004A53AE
:100450004F4E20466F726D6174206F6E00524620C1
:100460006F6666005246206F6E0074656D705F6542
:100470006E61626C65203D200070756C7365207044
:100480006572696F64203D200070756C7365732020
:100490003D2000646174616C6F67203D2000693607
:1004A0004C656164203D2000693643616C203D202D
:1004B0000069354C656164203D2000693543616CFD
:1004C000203D200069344C656164203D2000693482
:1004D00043616C203D200069334C656164203D2000
:1004E00000693343616C203D200069324C656164D2
:1004F000203D2000693243616C203D200069314C71
:10050000656164203D2000693143616C203D20001D
:10051000617373756D656456203D20007643616C90
:10052000203D200043616C6962726174696F6E3AAC
:10053000002064426D002C20002C204E6F6465204A
:1005400000204D487A2C2047726F75702000426160
:100550006E64200053657474696E67733A000A0014
:10056000202868696464656E292E002062797465AC
:1005700073002C20446174612073697A653A20000D
:10058000205369676E61747572653A20004E6F2062
:100590006461746120626C6F636B20666F756E645A
:1005A000202D20454550524F4D206170706561727D
:1005B0007320746F20626520666F726D617474655C
:1005C0006420746F204F454D205374616E646172D6
:1005D000642062757420756E757365642E000A0060
:1005E0002062797465732C206E6F7420666F726D53
:1005F000617474656420746F204F454D205374619D
:100600006E646172640053697A653A2000446F6ECB
:10061000652E204E657720636F6E66696720736173
:1006200076656420746F20454550524F4D005361EC
:1006300076696E672E2E2E00536B65746368207783
:10064000696C6C206E6F77207265737461727420B0
:100650007573696E672064656661756C7420636F7D
:100660006E6669672E00526573657474696E672ED5
:100670002E2E0020000A417661696C61626C652053
:10068000636F6D6D616E64733A0A6C09092D206C9D
:10069000697374207468652073657474696E677318
:1006A0000A7209092D20726573746F726520736B6D
:1006B000657463682064656661756C74730A730998
:1006C000092D20736176652073657474696E677394
:1006D00020746F20454550524F4D0A7609092D2050
:1006E00073686F77206669726D77617265207665D1
:1006F0007273696F6E0A7A09092D207A65726F200C
:10070000656E657267792076616C7565730A780924
:10071000092D20657869742C206C6F636B20616EE5
:100720006420636F6E74696E75650A3F09092D2038
:1007300073686F77207468697320746578742061BA
:100740006761696E0A0A773C783E09092D20747545
:10075000726E2052464D20576972656C6573732026
:1007600064617461206F66663A2078203D203020F5
:100770006F72206F6E3A2078203D20310A623C6E05
:100780003E09092D2073657420722E662E20626149
:100790006E64206E203D20612073696E676C652059
:1007A0006E756D6572616C3A2034203D20343333B0
:1007B0004D487A2C2038203D203836384D487A2C48
:1007C0002039203D203931354D487A20286D617916
:1007D00020726571756972652068617264776172F3
:1007E00065206368616E6765290A703C6E6E3E091C
:1007F000092D207365742074686520722E662E2082
:10080000706F7765722E206E6E202D20616E2069CC
:100810006E74656765722030202D2033312072653B
:1008200070726573656E74696E67202D313820644F
:10083000426D20746F202B31332064426D2E204492
:10084000656661756C743A20323520282B37206438
:10085000426D290A673C6E6E6E3E092D20736574E9
:10086000204E6574776F726B2047726F7570202011
:100870006E6E6E202D20616E20696E7465676572E4
:1008800020284F454D2064656661756C74203D20BD
:10089000323130290A6E3C6E6E3E09092D20736597
:1008A00074206E6F6465204944206E3D20616E2087
:1008B000696E746567657220287374616E64617215
:1008C00064206E6F646520696473206172652031F5
:1008D0002E2E3630290A0A643C78782E783E092D6F
:1008E0002078782E78203D206120666C6F617469D5
:1008F0006E6720706F696E74206E756D6265722010
:10090000666F722074686520646174616C6F6767DC
:10091000696E6720706572696F640A633C6E3E0998
:10092000092D206E203D203020666F72204F4646F4
:100930002C206E203D203120666F72204F4E2C20DF
:10094000656E61626C6520766F6C746167652C20E2
:1009500063757272656E74202620706F77657220E1
:10096000666163746F722076616C75657320746F55
:100970002073657269616C206F7574707574206680
:100980006F722063616C6962726174696F6E2E2090
:100990000A6A3C6E3E09092D207475726E204A5316
:1009A0004F4E2053657269616C20666F726D617481
:1009B000206F6E20283129206F72206F66662028F4
:1009C00030292E0A663C78783E09092D2078782057
:1009D0003D20746865206C696E652066726571756E
:1009E000656E637920696E20487A3A206E6F726D69
:1009F000616C6C7920656974686572203530206F90
:100A0000722036300A6B3C783E203C79792E793E54
:100A1000203C7A7A2E7A3E0A09092D2043616C69BE
:100A2000627261746520616E20616E616C6F6775C2
:100A30006520696E707574206368616E6E656C3ACE
:100A40000A0909202078203D20612073696E676CB7
:100A500065206E756D6572616C3A2030203D2076A0
:100A60006F6C746167652063616C6962726174693F
:100A70006F6E2C2031203D206374312063616C69DE
:100A800062726174696F6E2C2032203D2063743273
:100A90002063616C6962726174696F6E2C20657489
:100AA000630A0909202079792E79203D206120668A
:100AB0006C6F6174696E6720706F696E74206E75FB
:100AC0006D62657220666F722074686520766F6C47
:100AD000746167652F63757272656E742063616CF3
:100AE0006962726174696F6E20636F6E7374616E98
:100AF000740A090920207A7A2E7A203D2061206626
:100B00006C6F6174696E6720706F696E74206E75AA
:100B10006D62657220666F7220746865207068610E
:100B200073652063616C6962726174696F6E2066BF
:100B30006F72207468697320632E742E20287A20C7
:100B40006973206E6F74206E65656465642C206F18
:100B5000722069676E6F72656420696620737570B4
:100B6000706C6965642C207768656E2078203D2064
:100B700030290A09092020652E672E206B3020328B
:100B800035362E380A0909202020202020206B31FC
:100B90002039302E3920322E30300A613C78782EC0
:100BA000783E092D2078782E78203D206120666CD3
:100BB0006F6174696E6720706F696E74206E756DF9
:100BC00062657220666F7220746865206173737548
:100BD0006D656420766F6C74616765206966206E50
:100BE0006F20612E632E20697320646574656374C1
:100BF00065640A6D3C783E203C79793E092D206D74
:100C0000657465722070756C736520636F756E74A2
:100C1000696E673A0A090920202078203D2030209B
:100C2000666F72204F46462C2078203D203120668A
:100C30006F72204F4E2C203C79793E203D20616E12
:100C400020696E746567657220666F7220746865CE
:100C50002070756C7365206D696E696D756D20709F
:100C60006572696F6420696E206D732E202879206B
:100C70006973206E6F74206E65656465642C206FE7
:100C8000722069676E6F726564207768656E207880
:100C9000203D2030290A743C783E09092D207475C6
:100CA000726E2074656D7065726174757265206D09
:100CB0006561737572656D656E74206F6E206F72FD
:100CC000206F663A2078203D2030206F72206F6EB2
:100CD0003A2078203D20310A00456E657267792000
:100CE00076616C7565732073657420746F207A6506
:100CF000726F00436F6E74696E75696E672E2E2E6B
:100D0000005246206F6666005246206F6E00456DA9
:100D10006F6E5478563420560054656D706572615C
:100D200074757265206F66660054656D70657261DA
:100D300074757265206F6E002064426D0070203DF6
:100D400020004E6F646520006F666600206D7300A2
:100D500050756C7365733A20002000200043616C6D
:100D60003A206B0047726F75702000467265713AC9
:100D70002000207300646174616C6F67207065727D
:100D8000696F643A2000204D487A00005EBCE26141
:100D90003FDD83C29C7E20A3FD1F41009D23BE46F4
:100DA000DB65F88C11AF32CA57E9742C7066363A9D
:100DB000002C7066353A002C7066343A002C706650
:100DC000333A002C7066323A002C7066313A002CAF
:100DD00049363A002C49353A002C49343A002C491E
:100DE000333A002C49323A002C49313A002C7075C4
:100DF0006C73653A002C54333A002C54323A002C70
:100E000054313A002C45363A002C45353A002C45F1
:100E1000343A002C45333A002C45323A002C453107
:100E20003A002C50363A002C50353A002C50343AC7
:100E3000002C50333A002C50323A002C50313A00FA
:100E40002C56726D733A004D53473A007D002C22A8
:100E500070756C7365223A002C225433223A002CB0
:100E6000225432223A002C225431223A002C2245BC
:100E700036223A002C224535223A002C22453422D3
:100E80003A002C224533223A002C224532223A00E5
:100E90002C224531223A002C225036223A002C22B4
:100EA0005035223A002C225034223A002C22503362
:100EB000223A002C225032223A002C225031223A7F
:100EC000002C2256726D73223A007B224D5347222A
:100ED0003A002056004143206D697373696E6720A4
:100EE0002D204170706172656E7420506F7765724D
:100EF0002063616C6320656E61626C65642C2061A7
:100F00007373756D696E672000414320707265735D
:100F1000656E74202D205265616C20506F7765726C
:100F20002063616C6320656E61626C65640020659E
:100F30006E61626C65642E0054656D7065726174DB
:100F4000757265206D6561737572656D656E74206F
:100F500069730053656E736F72206D6179206E6FD7
:100F6000742062652072656C6961626C65002000A6
:100F700030002C2077697468206164647265737333
:100F800065732E2E2E0054656D70657261747572D6
:100F9000652053656E736F727320666F756E642083
:100FA0003D20000A0000080A400CFFC000C000FFFE
:100FB000FF010406030003002F2211241FBECFEF00
:100FC000CDBFDFE7DEBF11E4A0E0B0E4EAECFEE76E
:100FD00000E00BBF02C007900D92AE3BB107D9F7FE
:100FE00027E4AEEBB1E401C01D92AB36B207E1F7E6
:100FF00017E0CDEDD7E004C02197FE010E942B3F02
:10100000CC3DD107C9F70E943B240C94633FF8C83C
:101010000000809364098091630987FFFCCF809171
:10102000640908952D98F4DF80E0F2DF2D9A089589
:10103000CF93C62F2D988068EBDF8C2FE9DF2D9A98
:10104000CF910895CF9390916847981791F0C82F4A
:1010500081E0E8DF837E682F6C2B81E0E9DF8091FF
:101060006847811104C087E2DDDF87FFF8CFC093B6
:101070006847CF910895CF93DF93EC01888188234F
:1010800021F06981D5DF2296F9CFDF91CF910895C4
:10109000CF93DF93282F30E09FEF893220F5E901CD
:1010A000C752DF4B98819F3FE9F0F901EE5FFE4B9D
:1010B000A08140E2A49FD0011124BC5FF901E55D4D
:1010C000FE4BE081E830C0F5AD01405F5F4FE40FBB
:1010D000F52FF11D4FB7F89412969C939081977F4E
:1010E00090834FBF988190935946893240F52E5F87
:1010F0003E4BF9018081F4E08F9FC0011124809361
:101100005A4690935B46109264461092664610923F
:1011100065461092634610926246109261461092A4
:10112000604610925F4610925E4610925D461092A5
:101130005C46DF91CF910895F0E0E0E0CBCF8CEFFB
:1011400093E0DDCF90915946E0915A46F0915B468D
:10115000292F209580FF15C0F894818182238183F7
:101160008081892B808380E58A95F1F78181982B96
:1011700091837894A9E4B1E01197F1F700C00000E1
:101180000895F8948181822381838081892B8083D3
:10119000A5E8B1E01197F1F700C000008181982B1C
:1011A00091837894B8E2BA95F1F708958091594601
:1011B000E0915A46F0915B46F8949081982B908389
:1011C0002181382F30952323218398E19A95F1F7D7
:1011D00090819323908390E59A95F1F7928178948A
:1011E000EDE3F1E03197F1F700C00000982381E0D2
:1011F00009F480E00895FF920F931F93CF93DF933C
:10120000F82E062FC8E0D0E011E081E09F2D912359
:1012100009F480E097DF110F2197B9F7011116C08B
:10122000F894E0915A46F0915B469081809159463E
:10123000809589238083E0915A46F0915B469181A5
:10124000809159468095892381837894DF91CF914D
:101250001F910F91FF90089580915946E0915A4651
:10126000F0915B46F8949081282F209592239083EB
:1012700078943DE7315059F190E19A95F1F79281D8
:101280009823C1F3F8949181922391839081982BB4
:1012900090837894AFE3BBE01197F1F700C00000B2
:1012A000F894908192239083A3EAB1E01197F1F72B
:1012B00000C000009281982381E009F080E07894DA
:1012C000EBE9F9E03197F1F700C00000089580E004
:1012D0000895893260F590E0FC01E55DFE4BE08108
:1012E000EF3F29F18E5F9E4BDC018C9190E0DC0199
:1012F000AA0FBB1FAE5ABF4B2D913C912115310552
:10130000B1F04E2F50E0440F551F240F351FD90167
:101310006D937C93E05FA5E0880F991FAA95E1F794
:10132000E80FF0E0FC5F8081887F82608083089511
:10133000AF92BF92CF92DF92EF92FF920F931F93E3
:10134000CF93DF936C017B018B01040F151FEB0121
:101350005E01AE18BF08C017D10759F06991D601D8
:10136000ED91FC910190F081E02DC6010995892B4A
:1013700079F7C501DF91CF911F910F91FF90EF9009
:10138000DF90CF90BF90AF900895FC0155894689BA
:10139000252F30E0842F90E0821B930B541710F020
:1013A000CF96089501970895FC0193898489981731
:1013B00061F0A489AE0FBF2FB11D57968C9194890F
:1013C0009F5F9F73948B90E008958FEF9FEF089538
:1013D000FC0193898489981731F08489E80FF11D05
:1013E000878990E008958FEF9FEF0895FC0193891E
:1013F0002489892F90E0805C9F4F821B91098F7315
:1014000099270895CF93DF93EC01E881F981068055
:10141000F781E02D0995EC85FD8586811682858111
:10142000158280E484838C898B8B1A8ADF91CF911B
:1014300008958F929F92AF92BF92FF920F931F9346
:10144000CF93DF938C014A015B01D22FC32FDC01C4
:1014500052968C91529780FF07C0ED91FC910288C3
:10146000F389E02DC8010995D11101C0D3E0FD2E0B
:10147000E894F2F8DC2FD095D07CB1E68B16B3EE71
:101480009B06B6E1AB06B10428F0D260B694A794EF
:101490009794879460E078ED88EB95E0A50194013E
:1014A0000E94D33CC9012034310510F480E490E05F
:1014B0003C2F3B72D7FD30684D2F487C30FD41609A
:1014C0005FB7F894D8011C96ED91FC911682F782D3
:1014D0008087918735FF8FC04F7781E084878FEFBA
:1014E00085873F7D3583D683F8012189C08986852C
:1014F0009785FC0133E0239FE00DF11D11246591D8
:1015000074912C1708F059C0272F46FF76C0793206
:1015100088F430E0F901E752FF4BA081AF3F51F072
:101520002E5F3E4BF901308120E2329FF001112401
:10153000FC5FA18347FF2AC021E0270F293230F545
:1015400030E0F901E752FF4BD081DF3FF9F0F901BC
:10155000EE5FFE4BA081F0E2AF9FD0011124BC5F93
:10156000255D3E4BF9011081F0E0E0E0183030F4E9
:101570009D01205F3F4FF901E10FF11D3FB7F89446
:101580001296DC932081286020833FBF40FF15C066
:1015900023E0270F293288F430E0F901E752FF4BAE
:1015A00040814F3F51F02E5F3E4BD901EC91B0E2AC
:1015B000EB9FF0011124FC5F4183FC0123E0C29FFB
:1015C000E00DF11D1124319625913491F901FF2789
:1015D000EE51FA4F9081832F80958923682B608389
:1015E0005FBFDF91CF911F910F91FF90BF90AF90A0
:1015F0009F908F900895148674CF342F307509F41E
:1016000099CF793208F096CF30E0F901E752FF4BDD
:10161000D081DF3F09F48ECFF901EE5FFE4BA08150
:10162000E0E2AE9FD0011124BC5F255D3E4BF90185
:101630001081F0E0E0E0183030F49D01205F3F4F72
:10164000F901E10FF11D3FB7F8941296DC93208168
:10165000286020833FBF6ECFFC010FB607FE04C099
:10166000809111018823A9F0A485B58514968C91E9
:10167000149785FF0EC095898689981739F01596BD
:101680008C9115978F7D15968C930895E8940C9402
:10169000FB1B08950F931F93CF93DF93EC018A896F
:1016A000982F91609A8B2D899E8929130AC0EC8509
:1016B000FD85948195FF05C081FD0DC080E4848384
:1016C00012C0062F1D891F5F1F738E89811315C0DD
:1016D000CE01C2DFFACF85818F77806490E4948356
:1016E000EC85FD858583EC85FD85628381E090E056
:1016F000DF91CF911F910F910895ED89EC0FFD2F90
:10170000F11DE95AFF4F00831D8BEC85FD858A8909
:1017100081FF09C085818F77806690E49483EC8592
:10172000FD858583E3CF85818062FBCFEF92FF92B9
:101730000F931F93CF93DF938C017B01D0E0C0E028
:10174000F701EC0FFD1F6491662331F0C801A2DFA1
:10175000892B11F02196F4CFCE01DF91CF911F910B
:101760000F91FF90EF900895682F8EE195E492CF4E
:10177000CF93DF93EC018A8980FF0BC0EC85FD8558
:10178000858185FD03C0848186FD03C0CE0164DFB1
:10179000F5CFDF91CF91089581E008950F98079AD2
:1017A00020E533EC93E0179A44E1F9013197F1F722
:1017B0004150D9F7482F179AF9013197F1F7179A45
:1017C00059E0F9013197F1F75150D9F7415099F7A4
:1017D000915049F7E7CF9FB7F894E0912A0BF09129
:1017E0002B0B8091260B20910343309104434091B1
:1017F0000543509106439FBF80FF08C0EC3E8CE23A
:10180000F80720F42F5F3F4F4F4F5F4F0F011694A3
:101810000794169407941694079416940794F0016D
:1018200016940794E00DF11D16940794102C16944D
:1018300001181694010C169401181694010C1694B4
:10184000011816941694010C1124E019F109A8EE60
:10185000B3E00E94C33C6E0F7F1F811D911D089550
:101860008F929F92AF92BF92CF92DF92EF92FF92B0
:101870006B017C01B0DF4B015C01C114D104E104B8
:10188000F104B1F0A8DF681979098A099B09683E5B
:1018900073408105910588F321E0C21AD108E1085F
:1018A000F10888EE880E83E0981EA11CB11CE5CFDC
:1018B000FF90EF90DF90CF90BF90AF909F908F9070
:1018C00008952FB7F8946091034370910443809179
:1018D0000543909106432FBF0895CF92DF92EF9278
:1018E000FF920F931F93CF93DF93082F10E096E1A1
:1018F000899FE0011124C559D94B8E819F81A8850C
:10190000B985892B8A2B8B2B99F1DBDFCA88DB8881
:10191000EC88FD886C197D098E099F09CE80DF80D7
:10192000E884F984C616D706E806F90658F48E85C9
:101930009F85A889B9890196A11DB11D8E879F87B2
:10194000A88BB98BBEDF26E1209FF001219FF00D0F
:101950001124E559F94B628B738B848B958BDF9146
:10196000CF911F910F91FF90EF90DF90CF9008954E
:101970008E859F85A889B9890196A11DB11D8E8785
:101980009F87A88BB98BEBCF80E0A7CF81E0A5CF55
:10199000CF92DF92EF92FF920F931F93CF93DF933B
:1019A00080911C4090E025E0959587952A95E1F778
:1019B0008095909583709927C0EFD2E002C0D595AD
:1019C000C7958A95E2F72091464030914740DE0165
:1019D0000E943A3F28E13CEF4FEF5FEF0E94A73CA7
:1019E00080912542909126420197280F391F20931C
:1019F00027423093284220E030E04AE754E46091E7
:101A00002A4070912B4080912C4090912D400E9453
:101A1000F03B0E94D93D8E01DD0F220B330B6B0191
:101A20007C01C01AD10AE20AF30AA7019601A8EEC6
:101A3000B3E00E94C33C68587341810991090E9438
:101A40008F3B209118403091194040911A4050919D
:101A50001B400E946C3D0E94D93D609321427093CF
:101A600022428093234290932442DF91CF911F9191
:101A70000F91FF90EF90DF90CF900895CF92DF927B
:101A8000EF92FF926B017C01C0922A40D0922B40D2
:101A9000E0922C40F0922D4060914640709147407A
:101AA00090E080E00E948F3BA70196010E94F03BEE
:101AB0000E94D93D609325427093264220E034E293
:101AC00044E759E4C701B6010E94F03B2091184059
:101AD0003091194040911A4050911B400E946C3D3A
:101AE0000E94D93D60935343709354438093554370
:101AF00090935643FF90EF90DF90CF9049CFEF92B5
:101B0000FF920F931F93CF93DF93E0911F42CE2F4D
:101B1000D0E07E01EE0CFF1CEE0CFF1CD701A25D95
:101B2000BF4B4D935D936D937C931397B7016050BA
:101B3000704CDB010D931D932D933C9313979E01E5
:101B4000255D3B4B91E0D9019C93A82FB0E0AC58A8
:101B5000BB4BEC93EF5FE0931F42F0E0E25EFF4B84
:101B60008083DF91CF911F910F91FF90EF900895A7
:101B7000DC01ED91FC91F170FC5E80810895CF92C3
:101B8000DF92EF92FF920F931F93CF93DF9300D0DA
:101B9000CDB7DEB76C017C0103E010E009831A8346
:101BA000CE010196E5DFF70181937F010F5F1F4FA3
:101BB0000730110599F7C6010F900F90DF91CF9173
:101BC0001F910F91FF90EF90DF90CF9008950F93AA
:101BD0001F93CF93DF9300D000D0CDB7DEB78C0139
:101BE00019821A82CE010196C3DF8F34F9F481E0A5
:101BF00090E089839A83CE010196BADF8534B1F4EF
:101C000082E090E089839A83CE010196B1DF8D3422
:101C100069F481E00115110551F0CE010196AFDFA5
:101C200081E02B813C812017310709F080E0249668
:101C3000CDBFDEBFDF91CF911F910F9108951F930C
:101C4000CF93DF93EC01162F93DF8117B1F09FB78D
:101C500080910210282F227081FDFACFF8948DE92F
:101C600084BF2093001023E184BF20930010E881FB
:101C7000F981F170FC5E10839FBFCE01DF91CF919F
:101C80001F910895CF92DF92EF92FF920F931F93CF
:101C9000CF93DF9300D0CDB7DEB76C017C0103E0BA
:101CA00010E009831A83F70161917F01CE0101964B
:101CB000C6DF0F5F1F4F0730110599F7C6010F9060
:101CC0000F90DF91CF911F910F91FF90EF90DF90D8
:101CD000CF9008950F931F93CF93DF9300D0CDB78C
:101CE000DEB70091BB461091BC468091BD469091F5
:101CF000BE46081719079CF4C801957189839A8319
:101D00006FEFCE0101969BDF1092B7461092B84656
:101D10008091B5469091B646080F191FE6CF0F90F7
:101D20000F90DF91CF911F910F9108958627682F13
:101D300062956827062E669566956025062E66953F
:101D400060256770082E892F669507946795902DFA
:101D5000862706946795902586270895DC01ED91E6
:101D6000FC910088F189E02D23E030E00994FB012B
:101D700001900020E9F73197AF01461B570BD8CAF5
:101D80006115710509F0F3CF90E080E008958F921E
:101D90009F92AF92BF92EF92FF920F931F93CF93B8
:101DA000DF93CDB7DEB7A197CDBFDEBF7C01FA01CF
:101DB000CB0119A2223008F42AE08E010F5D1F4FDB
:101DC000822E912CB12CA12CBF01A50194010E945F
:101DD000D33CF901CA016A30CCF4605DD8016E933E
:101DE0008D01232B242B252B79F7BD01C701C8DFDB
:101DF000A196CDBFDEBFDF91CF911F910F91FF90D4
:101E0000EF90BF90AF909F908F900895695CE6CF60
:101E10006EE671E4ACCF0F931F93CF93DF93EC0189
:101E200085DC8C01CE01F4DF800F911FDF91CF9113
:101E30001F910F910895CF92DF92EF92FF92CF936F
:101E4000DF93AB01BC0177FF19C06A017C018DE211
:101E50008BDCEC0144275527BA014C195D096E094A
:101E60007F092AE08EE195E492DF8C0F9D1FDF91C0
:101E7000CF91FF90EF90DF90CF9008952AE08EE110
:101E800095E4DF91CF91FF90EF90DF90CF907FCFDF
:101E9000BC01990F880B990BCECFCF93DF93F8DF5E
:101EA000EC018EE195E4B4DF8C0F9D1FDF91CF91A3
:101EB00008954F925F926F927F928F929F92AF920E
:101EC000BF92CF92DF92EF92FF920F931F93CF9327
:101ED0006B017C01742EAC019B010E94DC3E61E72A
:101EE00071E4811126C046015701E894B7F82FEF3D
:101EF0003FEF4FE75FE7C501B4010E94DC3E81116F
:101F00000CC02FEF3FEF4FE75FE7C501B4010E9420
:101F10008B3B65E771E4181664F02FEF3FEF4FE756
:101F20005FE4C701B6010E94903E1816A4F469E769
:101F300071E48EE195E4CF911F910F91FF90EF90A6
:101F4000DF90CF90BF90AF909F908F907F906F90D9
:101F50005F904F900CCF2FEF3FEF4FE75FECC70143
:101F6000B6010E948B3B87FDE2CF20E030E0A90163
:101F7000C701B6010E948B3B10E000E087FF07C05D
:101F80008DE2F2DB8C01F7FAF094F7F8F094C0E000
:101F900060E070E080E09FE37C1641F020E030E0FC
:101FA00040E251E40E946C3DCF5FF6CFA70196015D
:101FB0000E94053D2B013C010E94D93D4B015C0173
:101FC0002AE0BC01A4018EE195E4E1DE7C01E00E93
:101FD000F11ECC23C9F1C501B4010E948F3B9B01C6
:101FE000AC01C301B2010E94043D4B015C016DE7ED
:101FF00071E48EE195E4BBDEE80EF91EC15020F1DC
:1020000020E030E040E251E4C501B4010E94F03B21
:102010002B013C010E94D93D4B01B12CA12C2AE09F
:10202000B501A4018EE195E4B2DEE80EF91EC5010A
:10203000B4010E948F3B9B01AC01C301B2010E941D
:10204000043D4B015C01DACFC701CF911F910F9185
:10205000FF90EF90DF90CF90BF90AF909F908F90C8
:102060007F906F905F904F900895CF93DF9321DF23
:10207000EC018EE195E4CCDE8C0F9D1FDF91CF91BA
:10208000089517CFAF92BF92CF92DF92EF92FF9257
:102090000F931F93CF93DF9300D0CDB7DEB76C01C2
:1020A0005B0110E000E00A151B05BCF57801EC0CA3
:1020B000FD1C85E1F822E982FA82CE01019658DD05
:1020C000803110F480E350DB0F5F1F4FE982FA820A
:1020D000CE0101964DDD482F50E070E060E020E138
:1020E0008EE195E454DE67E871E48EE195E43FDE2D
:1020F000C80187709927892B29F467E871E48EE17C
:1021000095E435DEC8018F709927892B61F663EA63
:102110007FE08EE195E40ADBC6CF0F900F90DF9150
:10212000CF911F910F91FF90EF90DF90CF90BF90D4
:10213000AF900895DF92EF92FF920F931F93CF938A
:10214000DF9320916646211105C0E92ED82E84D850
:1021500081110FC010926446109266461092654637
:1021600080E0DF91CF911F910F91FF90EF90DF9072
:10217000089560E080EF3FD8D1E000E0F12CC1E0AD
:1021800015D8182F13D81130E1F48130C9F5C134B6
:1021900008F3F0926446F11003C081E08093664634
:1021A00080915C468823B1F2ACE5B6E4ED2DFE2DBE
:1021B000CF0108962D912193E817F907D9F781E00F
:1021C000D0CFE02FF0E0181311C080916446C817FB
:1021D000A8F4DF01A75AB94B13968C918D2381F493
:1021E00010E0C93010F4C0936546FC2EE75AF94B55
:1021F00083819D2F9095892383830AC08C13F0CF10
:10220000E02FF0E0E75AF94B83818D2B838311E0B7
:10221000812F0E94A208CF5FDD0F11F40F5FD1E084
:10222000083008F4ADCFB3CFCF92DF92EF92FF9298
:102230000F931F93CF93DF9366E87FE085EB95E4E0
:1022400075DA40911D4550E070E060E02AE085EBD2
:1022500095E49DDD64E871E485EB95E488DD4091CB
:10226000604050E070E060E02AE085EB95E48FDDAF
:1022700080911D45882309F453C062E77FE085EB18
:1022800095E4C9DD10E000E080911D45801711063E
:1022900009F00CF445C0680183E0CC0CDD1C8A9584
:1022A000E1F7F12CE12CC0911B45D0911C45CC0DE0
:1022B000DD1DCE0DDF1D8881803128F460E77FE0D1
:1022C00085EB95E433DA488150E070E060E020E18E
:1022D00085EB95E45CDD6EE67FE085EB95E426DA40
:1022E0008FEFE81AF80A88E0E816F104E1F6E091C9
:1022F0001B45F0911C45EC0DFD1D8681833029F4B2
:1023000063E57FE085EB95E411DA85EB95E480DD0C
:1023100065E070E080E090E0A3DA0F5F1F4FB4CF7C
:1023200085EB95E475DD68E37FE085EB95E4FED908
:1023300080911A456FE771E4882311F060E771E43A
:1023400085EB95E41DDD6EE27FE085EB95E463DDD2
:1023500085EB95E45DDD65E070E080E090E0DF9185
:10236000CF911F910F91FF90EF90DF90CF9078CA9F
:1023700064E575E08EE195E44EDD6EE475E08EE196
:1023800095E4D4D98091BF468B3209F457C1863584
:1023900009F457C18B3509F457C190E080E078DD2E
:1023A00061E475E08EE195E4C1D94091C04650E00A
:1023B00070E060E02AE08EE195E4E9DC69E375E035
:1023C0008EE195E4B3D98091C1468F7390E060DDD2
:1023D00066E375E08EE195E4A9D98091C346825108
:1023E000990B56DD61E375E08EE195E414DD64E25E
:1023F00075E08EE195E40FDD6CE175E08EE195E42A
:1024000095D96091C4467091C5468091C646909119
:10241000C74642E050E029DE60E175E08EE195E4D8
:1024200085D96091C8467091C9468091CA469091FD
:10243000CB4642E050E019DE67E075E08EE195E4BE
:1024400075D96091D0467091D1468091D2469091D5
:10245000D34642E050E009DE6DEF74E08EE195E492
:1024600065D96091D4467091D5468091D6469091B9
:10247000D74642E050E0F9DD64EF74E08EE195E488
:1024800055D96091D8467091D9468091DA4690919D
:10249000DB4642E050E0E9DD6AEE74E08EE195E46F
:1024A00045D96091DC467091DD468091DE46909181
:1024B000DF4642E050E0D9DD61EE74E08EE195E464
:1024C00035D96091E0467091E1468091E246909165
:1024D000E34642E050E0C9DD67ED74E08EE195E44B
:1024E00025D96091E4467091E5468091E646909149
:1024F000E74642E050E0B9DD6EEC74E08EE195E431
:1025000015D96091E8467091E9468091EA4690912C
:10251000EB4642E050E0A9DD64EC74E08EE195E426
:1025200005D96091EC467091ED468091EE46909110
:10253000EF4642E050E099DD6BEB74E08EE195E40C
:10254000F5D86091F0467091F1468091F2469091F5
:10255000F34642E050E089DD61EB74E08EE195E402
:10256000E5D86091F4467091F5468091F6469091D9
:10257000F74642E050E079DD68EA74E08EE195E4E8
:10258000D5D86091F8467091F9468091FA469091BD
:10259000FB4642E050E069DD6EE974E08EE195E4CF
:1025A000C5D86091FC467091FD468091FE469091A1
:1025B000FF4642E050E059DD63E974E08EE195E4C6
:1025C000B5D8609100477091014780910247909182
:1025D000034742E050E049DD69E874E08EE195E4AC
:1025E000A5D88091044790E058DC69E774E08EE15B
:1025F00095E49CD880910547909106474EDC8091E8
:10260000C2466DE574E0882311F064E674E08EE163
:1026100095E401DC6AE674E08EE195E487D8809168
:10262000074790E03ADC809121476EE374E088230D
:1026300011F06EE474E08EE195E4EDCB81EB91E076
:10264000AECE84E693E0ABCE83E993E0A8CE0F93C1
:102650001F93CF93DF93893208F07CC090E0DC01B8
:10266000A752BF4B2C912F3F09F474C08C010E5F11
:102670001E4BE801E881D0E2ED9FF0011124FC5FE0
:10268000611133C0268330812323AC01455D5E4B4D
:10269000211111C0EA012881309749F1283038F51D
:1026A0007096E20FF11D3FB7F8942081611122C0AE
:1026B000277F20833FBFFA0130813F3F09F44AC0A2
:1026C000E8012881363058F53091E605432F4770F0
:1026D000241312C0EC91E53008F0EE0F8091010A4E
:1026E000E095E823E093010A35C02583CCCFF0E0E4
:1026F000E0E0D9CF2860DDCF387169F4213079F47A
:10270000EC91E53008F0EE0F8091410AE095E82366
:10271000E093410A1FC0383111F4263089F3805507
:102720009F4BFC01808185FF13C030E1839FF00146
:102730001124F75F91819770973061F4EC918532A5
:1027400070F4803298F48830E1F2803121F202C0D6
:102750008111F4CFDF91CF911F910F9108958034B3
:1027600071F08038B9F71092A006F4CF90E1899FFC
:10277000F0011124F75F81818F7E8183EBCF8091FF
:10278000920B8E2339F3C0E22C9F900111243C5F01
:10279000E83030F5205F3F4FE20FF32FF11D4FB7C8
:1027A000F8949091800B9E7F9093800B90918E0B6C
:1027B00090FFFCCF2091920B90E08095909530E0B7
:1027C0008223932328ED24BF8093920B8091800B6A
:1027D00081608093800B80818F7780834FBFBACFD9
:1027E000F0E0E0E0DCCF0F931F93CF93DF93CDB702
:1027F000DEB72897CDBFDEBF20911B4530911C4529
:10280000232B31F02091094330910A43232B61F4AB
:1028100010921A4510921D452896CDBFDEBFDF915C
:10282000CF911F910F910895182F809161400E94C0
:10283000480810931A45112309F495C020E030E0B0
:1028400040E85FE360912A4070912B4080912C40DA
:1028500090912D400E948B3B87FF03C08FE18093B6
:102860001C4000911C4090916040E0910943F09120
:102870000A4380E020E335E7981721F02193319354
:102880008F5FFACF109264461092664610926546AA
:102890001092634610926246109261461092604612
:1028A00010925F4610925E4610925D4610925C4612
:1028B00010921D45CE0101963DDC882349F08981A7
:1028C0008832C1F780911D458F5F80931D45F2CFFF
:1028D0008091604090911D45891710F480931D45AB
:1028E000E0911B45F0911C4580818832A1F010E0F9
:1028F00080911D45181778F428E0129FC00111241B
:1029000020911B4530911C45820F931F13DC8823B7
:1029100011F01F5FEDCF0E942C0960E08CEC0E944B
:10292000FB0860E08EE40E94FB0860E080E00E940B
:10293000FB0860E080E00E94FB0860E0802F0E94BE
:10294000FB080E942C0960E08CEC0E94FB0861E00F
:1029500088E40E94FB0864E170E080E090E00E945F
:10296000300C16D859CF8091294087FDFACF893293
:10297000A4F4282F082E000C330BF901E752FF4B6B
:1029800090819F3F51F02E5F3E4BD901EC91B0E218
:10299000EB9FF0011124FC5F918360E058DE809191
:1029A00029408932F0F690E0FC01E752FF4B20818C
:1029B0002F3FB9F2FC01EE5FFE4BA081E0E2AE9F3B
:1029C000D0011124BC5F855D9E4BFC013081F0E09D
:1029D000E0E0383028F4CD014096FC01E30FF11D12
:1029E0009FB7F89412962C938081877F80839FBF36
:1029F000B8CF0F931F93CF93DF93CDB7DEB72C974C
:102A0000CDBFDEBF681BF1F0062F10E0682F70E02D
:102A100066527B4BA801CE0101960E94543FE1E033
:102A2000F0E0EC0FFD1FE00FF11F1082CE010196C8
:102A30000E94F1392C96CDBFDEBFDF91CF911F915F
:102A40000F91089590E080E0F5CF0F931F93CF93FF
:102A5000DF93CDB7DEB72C97CDBFDEBF681BF1F09B
:102A6000062F10E0682F70E066527B4BA801CE0164
:102A700001960E94543FE1E0F0E0EC0FFD1FE00FF3
:102A8000F11F1082CE0101960E94EE392C96CDBF27
:102A9000DEBFDF91CF911F910F91089560E070E04C
:102AA000CB01F4CF4F925F926F927F928F929F9261
:102AB000AF92BF92CF92DF92EF92FF92CF93DF93CC
:102AC000C82F8090184090901940A0901A40B09064
:102AD0001B40609146407091474090E080E00E942A
:102AE0008F3B6B017C0160914C4070914D406F5F5A
:102AF0007F4F072E000C880B990B0E94913BA5017C
:102B000094010E94F03B2BED3FE049EC50E40E9421
:102B1000F03BA70196010E94F03B20E034E244E73D
:102B200059E40E946C3D2B013C01D0E0BE016F5F77
:102B30007F4F072E000C880B990B0E94913BA5013B
:102B400094010E94F03BA70196010E94F03B20E017
:102B500034E244E759E40E946C3D6B017C01CC0FE8
:102B6000DD1FCC0FDD1FFE01E050F04C20E030E017
:102B700044EB53E460817181828193810E946C3DBA
:102B80009B01AC01C701B6010E94053D2BED3FE062
:102B900049EC50E40E94F03B4B015C010E94943EE2
:102BA0006B017C01C301B2010E94943E9B01AC0108
:102BB000C701B6010E946C3D6B017C01FE01ED5D19
:102BC000FC4BC082D182E282F382C501B4010E9433
:102BD000693D4B015C01C301B2010E94693D9B014B
:102BE000AC01C55CDC4BC701B6010E94F03B9B0108
:102BF000AC01C501B4010E94043D688379838A83D6
:102C00009B83DF91CF91FF90EF90DF90CF90BF90AB
:102C1000AF909F908F907F906F905F904F900895AE
:102C2000CF938093464090934740BC0190E080E072
:102C30000E948F3B20912A4030912B4040912C40A4
:102C400050912D400E94F03B0E94D93D6093254257
:102C5000709326420E94C80CC0E080914C40909135
:102C60004D40C817190624F48C2F1CDFCF5FF5CF19
:102C7000CF9108954F925F926F927F92AF92BF92E1
:102C8000CF92DF92EF92FF920F931F93CF93DF9338
:102C9000E82FCB01BA0168017901F0E0EC58FB4B59
:102CA000108124E0129FE0011124FE01E25DFF4B40
:102CB0005F0120912540309126404091274050915E
:102CC00028400E94F03B2B013C01609169467091C5
:102CD0006A4690E080E00E948F3B9B01AC01C301FB
:102CE000B2010E946C3DF5016083718382839383FE
:102CF000C050D04CC882D982EA82FB82812FDF91FA
:102D0000CF911F910F91FF90EF90DF90CF90BF90E8
:102D1000AF907F906F905F904F90C4CE2F923F9274
:102D20004F925F926F927F928F929F92AF92BF92DB
:102D3000CF92DF92EF92FF920F931F93CF93DF9387
:102D4000CDB7DEB72E97CDBFDEBF84E080932104E0
:102D500061E08AE07CDC9FB7F89480E18093020414
:102D6000809114048860809314049FBF9FB7F894E7
:102D700080E280930204809115048860809315049A
:102D80009FBF40E052EC61E070E08EE195E40E946C
:102D9000AE0E8091080485FD05C08091C1468F5F0D
:102DA0008093C14669E174E08EE195E40E94960B40
:102DB0006AE971E48EE195E40E94C00E63E074E07C
:102DC0008EE195E428D886E190E00E94E70D882303
:102DD00041F1CE0101960E94BF0D09811A8117FDB4
:102DE00020C0680123E0C20ED11C3FEBE32E36E485
:102DF000F32E87E090E05C013FEFA31AB30A8D83C6
:102E00009E83CE0105960E94B80DD7018D937D015A
:102E1000C501AC14BD0478F36EE573E00430110510
:102E200011F46DE473E08EE195E40E940B0FA0DADB
:102E30008091C246882309F45AC06AEF73E08EE19C
:102E400095E40E94960B62EF73E08EE195E40E9498
:102E5000960B8091BF468B3231F46BEE73E08EE1BE
:102E600095E40E94960B8091BF46863531F464EE5E
:102E700073E08EE195E40E94960B8091BF468B35FE
:102E800031F46DED73E08EE195E40E94960B64EDF4
:102E900073E08EE195E40E94960B4091C04650E0AD
:102EA00070E060E02AE08EE195E40E94C70E6CECD1
:102EB00073E08EE195E40E94960B4091C14650E08C
:102EC00070E060E02AE08EE195E40E94C70E6AECB3
:102ED00073E08EE195E40E940B0F62EA71E48EE1EB
:102EE00095E40E94B70E8EE195E40E94080F809150
:102EF000080484FD03C081E080931E428091C24695
:102F0000882309F4CDC021E0209367471091C04683
:102F10008091C14680936547B0E11B9FC001112499
:102F20008127E4E08E9FA00111248427807C809378
:102F3000664780E2809321042093410484E08093DB
:102F400041042D9A8091E405837F8093E40580916C
:102F50006109846080936109809160098162809336
:102F600060090E94610C6B017C016AEA8FE20E9499
:102F700018088FE20E9412088A3A59F00E94610CE8
:102F80006C197D098E099F096233710581059105D0
:102F900060F30E94610C6B017C0165E58FE20E9489
:102FA00018088FE20E941208853559F00E94610CC2
:102FB0006C197D098E099F096233710581059105A0
:102FC00060F380916747813009F0EEC183E990E4B6
:102FD0000E943B0883E990E40E943B086CE687E08E
:102FE0000E94180860E888E00E94180860E089E004
:102FF0000E941808612F80E30E94180869E981E1A6
:103000000E94180884E00E9422080E94610C6B0153
:103010007C0187E20E94120887FD0BC00E94610CB0
:103020006C197D098E099F0962337105810591052F
:1030300080F30E94610C809167478130D9F084E071
:103040000E9422082D988EEB0E94080809E811E4DE
:10305000D8018D918D010E940808B1E409391B0740
:10306000B9F72D9A8DE30E941208682F61608DE3F5
:103070000E9418082091C146E4E12E9F800111248E
:1030800060E070E0CB010115110541F00E94993913
:103090009801110F440B550B0E94A73C0E94300C65
:1030A0008EE08093050680910306809303061092BC
:1030B000B00086E08093020681E080930006809154
:1030C00000068093000687E08093080660E070E0C9
:1030D000CB0150E040E021E020930A0630910D063C
:1030E00030FFFCCF4A30510544F0E0911006F091DA
:1030F00011066E0F7F1F811D911D4F5F5F4F4A317B
:10310000F7E25F0749F70E948F3B20E030E44CE193
:1031100056E40E946C3D20E030EF4FE755E40E94FA
:103120006C3D9B01AC0166E676E686E69FE30E9475
:103130006C3D6B017C016AEA73E08EE195E40E94CC
:10314000960B44E050E0C701B6010E9435108CE0B8
:1031500090E080936240909363408EEF94E5ADE100
:10316000B2E48093184090931940A0931A40B09312
:103170001B4080E090E18093694690936A4680E826
:1031800090E08093674690936846C0922540D09225
:103190002640E0922740F09228408091C4469091CA
:1031A000C546A091C646B091C74610921E40809376
:1031B000484090934940A0934A40B0934B400091BF
:1031C000D4461091D5462091D6463091D7464091AD
:1031D000D0465091D1466091D2467091D34683E05B
:1031E0000E947F0D0091DC461091DD462091DE4665
:1031F0003091DF464091D8465091D9466091DA46E9
:103200007091DB4684E00E947F0D0091E4461091AE
:10321000E5462091E6463091E7464091E0465091E0
:10322000E1466091E2467091E34685E00E947F0DA1
:103230000091EC461091ED462091EE463091EF461C
:103240004091E8465091E9466091EA467091EB461C
:1032500086E00E947F0D0091F4461091F546209182
:10326000F6463091F7464091F0465091F146609114
:10327000F2467091F34688E00E947F0D0091FC4673
:103280001091FD462091FE463091FF464091F84650
:103290005091F9466091FA467091FB4689E00E9490
:1032A0007F0D80911E42882319F08CE390E0B8DCFA
:1032B00060910047709101478091024790910347C8
:1032C0000E943E0D8091C8469091C946A091CA4681
:1032D000B091CB4680934E4090934F40A093504086
:1032E000B09351408091044780936B4681E0809376
:1032F0006C4686E080936F468093704680910547C8
:1033000090910647092E000CAA0BBB0B80937146C7
:1033100090937246A0937346B09374468CE080936A
:1033200061408BE08093294088E08093210461E034
:103330008BE08DD98FE580931C4088E097E48093E3
:103340001B4590931C451092084780EA94E48093B3
:10335000094390930A4383E080936040E090B7462E
:10336000F090B846E114F10409F4BFC087010F5F83
:103370001F4F27E9C22E26E4D22E8091B5469091A8
:10338000B6468E0D9F1D08171907C4F4C801957124
:1033900089839A83CE0101960E94B80DD6018D9340
:1033A0006D010F5F1F4FE9CF823009F017CE88E61D
:1033B00090E40E943B0888E690E40ECE4090974649
:1033C000509098466090994670909A4680909B469F
:1033D00090909C46A0909D46B0909E46C0909F467F
:1033E000D090A046E090A146F090A2460091A3465E
:1033F0001091A4462091A5463091A6464091A7463B
:103400005091A8466091A9467091AA468091AB461A
:103410009091AC46A091AD46B091AE468B879C870B
:10342000AD87BE878091AF469091B046A091B146DE
:10343000B091B2468F839887A987BA8740923F445C
:10344000509240446092414470924244809243447E
:1034500090924444A0924544B0924644C09247445E
:10346000D0924844E0924944F0924A4400934B443D
:1034700010934C4420934D4430934E4440934F441A
:103480005093504460935144709352448B859C8573
:10349000AD85BE858093534490935444A093554486
:1034A000B09356448F819885A985BA8580937546D7
:1034B00090937646A0937746B093784680910747DD
:1034C00092D980911F42882341F1282F30E0209328
:1034D0004C4030934D408F5F90E08630F0F4FC011B
:1034E000E55DFB4B10820196F8CF412C512C320147
:1034F000812C912C5401C12CD12C760100E010E0DC
:10350000980140E050E0BA011B861C861D861E868D
:103510001F82188619861A8691CF409025405090B8
:1035200026406090274070902840609169467091D5
:103530006A4690E080E00E948F3B4B015C01209145
:1035400048403091494040914A4050914B40C3011E
:10355000B2010E94F03BA50194010E946C3D609372
:1035600048407093494080934A4090934B408EE28C
:10357000E82E80E4F82E9BE0C92E93E4D92E10E0CB
:1035800000E080914C4090914D400817190714F5C8
:10359000D7012D913D914D915D917D011D01B4E0CB
:1035A0002B1A3108C301B2010E94F03BA50194011E
:1035B0000E946C3DF1016083718382839383802F2D
:1035C00071DAD6011D921D921D921D926D010F5F41
:1035D0001F4FD7CF84EC9CE080936D4690936E464E
:1035E00086EC9CE0809383469093844681E08093B0
:1035F0001D401092FE421092FF4210920043109222
:1036000001439EE090930506909103069093030674
:103610001092B00098E0909302068093000690917B
:103620000006909300069091000692609093000629
:103630001092080690910C06916090930C0680936E
:103640000A067894C0902A40D0902B40E0902C40FD
:10365000F0902D40609146407091474090E080E0AE
:103660000E948F3BA70196010E94F03B0E94D93D2A
:1036700060932542709326421092314420E034E258
:1036800044E759E4C701B6010E94F03B209118407D
:103690003091194040911A4050911B400E946C3D5E
:1036A0000E94D93D60935343709354438093554394
:1036B000909356430BE616E4F12CF80180818823A1
:1036C000A1F18481893228F590E0FC01E752FF4B9B
:1036D00020812F3FF1F0FC01EE5FFE4BA081F0E274
:1036E000AF9FD0011124BC5F855D9E4BFC013081F2
:1036F000F0E0E0E0383028F4CD014096FC01E30F23
:10370000F11D9FB7F89412962C9380818860808376
:103710009FBF66EC7CE080918646F11004C064ECAB
:103720007CE0809170460E9469090A5E1F4FF1E0BB
:10373000FF1239C01092A6441092A7441092A844D8
:103740001092A9440E94141180911A45882371F1A6
:1037500080911D4590E0892B51F463E773E08EE181
:1037600095E40E940B0F1092074780E03CD860E080
:1037700070E080E090E40E943E0D2E96CDBFDEBF4B
:10378000DF91CF911F910F91FF90EF90DF90CF903D
:10379000BF90AF909F908F907F906F905F904F9071
:1037A0003F902F900895FF24F39487CF90E080E01E
:1037B000D2CFEF93FF93EEE1F5E415C0EF93FF93C3
:1037C000EEE1F5E43FC0EF93E0E660C0EF93FF93D6
:1037D000E5EBF5E408C0EF93FF93E5EBF5E432C0C9
:1037E000EF93E0E053C02F932FB72F938F939F93C6
:1037F000AF93BF936894CF93DF9320E0C485D8E064
:103800009689DF01A90FB21FA95ABF4F8C9120E4FE
:103810002C838A839F5F9F738D812589291302C022
:103820008F7D8D83968BDF91CF9116F00C94490B91
:10383000BF91AF919F918F912F912FBF2F91FF91AA
:10384000EF9118952F932FB72F938F939F93CF932B
:10385000DF93C485D8E08981988181FD0DC0C3893B
:1038600081E08C0F8F732489281731F0CE0FDF2F62
:1038700020E0D21F9F8B838BDF91CF919F918F91FF
:103880002F912FBF2F91FF91EF911895FF938F9359
:103890008FB78F93F8E08081848187FFFCCF85818B
:1038A0008F7B806885838F918FBF8F91FF91EF9180
:1038B00018951F920F920FB60F92112484E00E9468
:1038C000CE0B1F920F920FB60F9211248F939F93DE
:1038D000AF93BF938091034390910443A09105431C
:1038E000B09106430196A11DB11D809303439093AF
:1038F0000443A0930543B093064381E08093260BD5
:10390000BF91AF919F918F910F900FBE0F901F901D
:1039100018950F930AE00FC00F9308E00CC00F93A7
:1039200006E009C00F9304E006C00F9302E003C055
:103930000F9300E000C00F920FB60F920BB60F92DC
:103940001F921124FF921F932F933F934F935F93E6
:103950006F937F938F939F93AF93BF93CF93DF9397
:10396000EF93FF93A2E5B0E4A00FB11DCD91DC91E0
:10397000000F0D5FA02FB0E0FC90109761F01F2D9D
:10398000169518F041F02296FBCFE991F991309706
:10399000B9F30995F5CFA02FB0E0FC92FF91EF911C
:1039A000DF91CF91BF91AF919F918F917F916F9157
:1039B0005F914F913F912F911F91FF901F900F901A
:1039C0000BBE0F900FBE0F900F9118951F920F9284
:1039D0000FB60F9211240BB60F922F923F924F9277
:1039E0005F926F927F928F929F92AF92BF92CF928F
:1039F000DF92EF92FF920F931F932F933F934F937A
:103A00005F936F937F938F939F93AF93BF93CF9366
:103A1000DF93EF93FF9381E080930D0640901006B3
:103A200050901106C0910243E2E0EC0F20914C400F
:103A300030914D40E217130621F01CF0E1E0EC0F4D
:103A4000E21BF0E0E25EFF4B8081809308068091EC
:103A5000FE429091FF42A0910043B0910143019634
:103A6000A11DB11D8093FE429093FF42A09300439D
:103A7000B0930143C1113DC48091FC429091FD423D
:103A80008093FA429093FB428091694690916A46F6
:103A900096958795481A590A4092FC425092FD42E9
:103AA0008091F8429091F942AC0156954795569510
:103AB0004795841B950BA20157FE04C04427552748
:103AC00044195509840F951F8093F8429093F94249
:103AD000E0916746F091684641E0E817F90708F081
:103AE00040E040935744141415040CF08EC041E09C
:103AF00050E04093F6425093F742A091F642B091C5
:103B0000F7424091E0425091E142A417B50709F411
:103B100081C0609120426F5F60932042609120429B
:103B2000633030F010922042A093E242B093E3421F
:103B300060912B42611110922B426090E242709092
:103B4000E342E817F90708F06BC281E068167104D8
:103B500009F0C2C14130510509F4C4C18091294224
:103B600090912A4201968093294290932A42409153
:103B70001D40442309F471C00A9708F46EC01092E6
:103B80001D401092294210922A42C4EAD2E4A4E7CE
:103B9000B2E464E472E44CE252E490E080E0821724
:103BA0009307DCF5188219821A821B821C821D82FF
:103BB0001E821F8228961C9211961C9211971296B3
:103BC0001C92129713961C92139714961C9214979A
:103BD00015961C92159716961C92169717961C927E
:103BE00017971896FB011082118212821382148299
:103BF000158216821782685F7F4FFA011192119227
:103C000011921192AF010196CACF1092F642109212
:103C1000F74273CF1092204281CF1092E842109267
:103C2000E9421092EA421092EB421092EC4210925A
:103C3000ED421092EE421092EF421092E442109246
:103C4000E5421092E6421092E7421092F242109240
:103C5000F3421092F4421092F542809129429091E1
:103C60002A4240912742509128428417950739F4FF
:103C700040911D40411103C041E0409332444091C6
:103C80002542509126428417950708F42BC1809154
:103C90001D40811127C11092294210922A42C4EA84
:103CA000D2E4A4E7B2E414E4212E12E4312E6CE253
:103CB00072E450E040E0421753070CF09BC088804C
:103CC0009980AA80BB80CC80DD80EE80FF80289622
:103CD000CA01E3E0880F991FEA95E1F78C010550CE
:103CE0001C4BF80180829182A282B382C482D58269
:103CF000E682F7828C9011969C9011971296AC9068
:103D000012971396BC9013971496CC90149715960F
:103D1000DC9015971696EC9016971796FC901797CF
:103D200018968C0105531C4BF80180829182A28267
:103D3000B382C482D582E682F7828E0108501109CF
:103D4000F801108211821282138214821582168267
:103D500017828D0108501109F80110821182128218
:103D600013821482158216821782F101808091805D
:103D7000A280B380C480D580E680F780F8E02F0E63
:103D8000311C8C0105561C4BF80180829182A28265
:103D9000B382C482D582E682F7828101085011097C
:103DA000F801108211821282138214821582168207
:103DB0001782FB0181909190A190B190BF01750194
:103DC0006401FF0CCC08DC2C760185599C4BFC016E
:103DD00080829182A282B382C482C582C682C78257
:103DE000CB010497FC0110821182128213824F5F73
:103DF0005F4F61CF8091E4429091E542A091E6420D
:103E0000B091E742AC01BD01770F440B542FBA01CA
:103E10008093574390935843A0935943B0935A4388
:103E200040935B4340935C4340935D4340935E43C8
:103E30007091E8426091E9425091EA424091EB4230
:103E40003091EC422091ED429091EE428091EF4210
:103E50007093634360936443509365434093664318
:103E600030936743209368439093694380936A43F8
:103E70001092E8421092E9421092EA421092EB420C
:103E80001092EC421092ED421092EE421092EF42EC
:103E90001092E4421092E5421092E6421092E742FC
:103EA0008091F2429091F342A091F442B091F54298
:103EB00080935F4390936043A0936143B0936243C8
:103EC0001092F2421092F3421092F4421092F54294
:103ED00081E08093314406C0452B21F01092F042DE
:103EE0001092F1428091F2429091F342A091F442FB
:103EF000B091F5420196A11DB11D8093F2429093BD
:103F0000F342A093F442B093F5428091F042909135
:103F1000F14201968093F0429093F1429201D201D6
:103F20000E94343F6B017C01FF0CCC08DC2C760135
:103F30009B01AC016C2D7C2D8C2D9C2DA090E8421A
:103F4000B090E942C090EA42D090EB42E090EC425F
:103F5000F090ED420091EE421091EF420E94403FFE
:103F60002093E8423093E9424093EA425093EB4277
:103F70006093EC427093ED428093EE429093EF4257
:103F8000C201550CAA0BBB0B4091E4425091E54293
:103F90006091E6427091E742840F951FA61FB71FFC
:103FA0008093E4429093E542A093E642B093E742C7
:103FB0006092E0427092E142809102438F5F809371
:103FC000024320914C4030914D408217130619F066
:103FD00014F010920243FF91EF91DF91CF91BF91C6
:103FE000AF919F918F917F916F915F914F913F9191
:103FF0002F911F910F91FF90EF90DF90CF90BF9086
:10400000AF909F908F907F906F905F904F903F9078
:104010002F900F900BBE0F900FBE0F901F90189512
:104020004091FE425091FF426091004370910143E4
:104030008091214290912242A0912342B09124424A
:1040400084179507A607B70748F4809108438111A4
:1040500005C081E080933244809308434091FE4242
:104060005091FF426091004370910143809153430E
:1040700090915443A0915543B091564384179507AE
:10408000A607B70708F02ECF1092FE421092FF420B
:10409000109200431092014381E080931D401092E2
:1040A000294210922A42C4EAD2E414E7212E12E4F3
:1040B000312EE4E4F2E46CE272E450E040E04217B6
:1040C00053070CF0C5C0CA01A3E0880F991FAA9539
:1040D000E1F78C0105501C4BD8011C9211961C92E3
:1040E000119712961C92129713961C92139714967E
:1040F0001C92149715961C92159716961C9216975B
:1041000017961C928C0105531C4BD8011C921196DA
:104110001C92119712961C92129713961C92139749
:1041200014961C92149715961C92159716961C922D
:10413000169717961C92188219821A821B821C826B
:104140001D821E821F822896D1011C9211961C92FC
:10415000119712961C92129713961C92139714960D
:104160001C92149715961C92159716961C921697EA
:1041700017961C92B8E02B0E311C80809180A28093
:10418000B380C480D580E680F78038968C010556D0
:104190001C4BD8018C9211969C9211971296AC925E
:1041A00012971396BC9213971496CC921497159667
:1041B000DC9215971696EC9216971796FC927F0153
:1041C000B8E0EB1AF108D7011C9211961C921197D6
:1041D00012961C92129713961C92139714961C9287
:1041E000149715961C92159716961C92169717966B
:1041F0001C92DB018D909D90AD90BD90BD0175012D
:104200006401FF0CCC08DC2C760185599C4BDC0149
:104210008C9211969C9211971296AC9212971396CB
:10422000BC9213971496CC9214971596CC9215972E
:104230001696CC9216971796CC92CB010497DC0178
:104240001D921D921D921C9213974F5F5F4F37CFA7
:104250007091E8426091E9425091EA424091EB420C
:104260003091EC422091ED429091EE428091EF42EC
:1042700070936343609364435093654340936643F4
:1042800030936743209368439093694380936A43D4
:104290001092E8421092E9421092EA421092EB42E8
:1042A0001092EC421092ED421092EE421092EF42C8
:1042B0008091E4429091E542A091E642B091E742BC
:1042C000AC01BD01770F440B542FBA0180935743C3
:1042D00090935843A0935943B0935A4340935B4300
:1042E00040935C4340935D4340935E43D1CD108245
:1042F000B0C0D0E02C173D070CF45ECE2197FE0134
:10430000E55DFB4B1E01220C331CB6E04B1651043D
:1043100074F381E080838091694690916A46969516
:104320008795F101EC52FD4B60807180681A790A23
:104330004E0133E0880C991C3A95E1F7F401EC55F5
:10434000FD4BA091FA42B091FB4293010E94343F91
:104350006B017C01FF0CCC08DC2C76019B01AC01CD
:104360006C2D7C2D8C2D9C2DA080B180C280D380A3
:10437000E480F580068117810E94403F20833183CD
:10438000428353836483758386839783F401EC5857
:10439000FD4BA091FC42B091FD4293010E94343F3D
:1043A0006B017C01FF0CCC08DC2C76019B01AC017D
:1043B0006C2D7C2D8C2D9C2DA080B180C280D38053
:1043C000E480F580068117810E94403F208331837D
:1043D000428353836483758386839783F401EC5B04
:1043E000FD4B9301D3010E94343F6B017C01FF0C14
:1043F000CC08DC2C76019B01AC016C2D7C2D8C2D26
:104400009C2DA080B180C280D380E480F58006819D
:1044100017810E94403F208331834283538364830A
:10442000758386839783CC0FDD1FCC0FDD1FC45DA2
:10443000DD4BC301770CAA0BBB0B488159816A8104
:104440007B81840F951FA61FB71F88839983AA833A
:10445000BB83F101EC52FD4B40825182ADCDCF9236
:10446000DF92EF92FF920F931F93CF93DF9300D0D1
:10447000CDB7DEB71092204510922145F8EECF2E31
:10448000F3E0DF2EE12CF12CC0922245D09223459F
:10449000E0922445F092254548E551E440931E45BD
:1044A00050931F4580E698E080932A4590932B45D2
:1044B00085EA9FE080932C4590932D4582E0809380
:1044C0002E4510922F45109230451092B74510920C
:1044D000B845C092B945D092BA45E092BB45F0923A
:1044E000BC454093B5455093B64540E058E04093F5
:1044F000C1455093C2454EEA5FE04093C345509397
:10450000C4458093C54581E08093C6451092C74558
:1045100040E05BE167EB70E080E08F5F863011F494
:1045200087E00BC07695679557954795413099E0A0
:1045300059079DE36907710580F794E09093584609
:10454000482F4095242F217030E044E0220F331F84
:104550004A95E1F731E08162822B8093574640E42F
:1045600059E040934C4650934D4690934F4686E019
:1045700080935046109252461092534610926B46CA
:1045800010926C4623E020936F46309370468EE67F
:1045900090E0A0E0B0E08093714690937246A093C3
:1045A0007346B093744610927546109276461092F8
:1045B0007746109278461092794610927A46109279
:1045C0007B4610927C461092814610928246209340
:1045D0008546309386468093874690938846A0937D
:1045E0008946B0938A4610928B4610928C46109260
:1045F0008D4610928E4610928F46109290461092E1
:1046000091461092924681E090E00090624002C094
:10461000880F991F0A94E2F78093694690936A463F
:1046200055E0969587955A95E1F780936746909364
:104630006846809161400E9448088EEF90E0809328
:10464000B9469093BA468DE190E08093B546909339
:10465000B6468EE090E08093B3469093B4468EE6E3
:1046600090E08093BB469093BC4684E092E08093B8
:10467000BD469093BE461092B7461092B8460EE6DD
:1046800010E009831A83CE0101960E94B80D7801CB
:104690009DE1E90EF11C8F3F09F4E5C00093B74698
:1046A0001093B84684E0E81682E0F8066CF4C7017F
:1046B000957189839A83CE0101960E94B80D8F3F30
:1046C00009F4CDC00E946A0E82E0809367478BE2B6
:1046D0008093BF4682ED8093C04681E18093C146BE
:1046E00021E02093C24689E18093C3468AE097EF98
:1046F000A9E4B4E48093C4469093C546A093C6460B
:10470000B093C74680E090E0A0E7B3E48093C8464A
:104710009093C946A093CA46B093CB4680E090E000
:10472000A8E4B2E48093CC469093CD46A093CE46C5
:10473000B093CF4686E696E2A6E9B3E48093D046EE
:104740009093D146A093D246B093D3468DEC9CEC87
:10475000ACE4B0E48093D4469093D546A093D6467B
:10476000B093D74646E656E266E173E44093D846F6
:104770005093D9466093DA467093DB468093DC46CB
:104780009093DD46A093DE46B093DF464093E0462B
:104790005093E1466093E2467093E3468093E4468B
:1047A0009093E546A093E646B093E74641E75DE384
:1047B00060E772E44093E8465093E9466093EA4626
:1047C0007093EB468093EC469093ED46A093EE46B3
:1047D000B093EF464093F0465093F1466093F24613
:1047E0007093F3468093F4469093F546A093F64673
:1047F000B093F7464093F8465093F9466093FA46D3
:104800007093FB468093FC469093FD46A093FE4632
:10481000B093FF468DEC9CECACE1B1E48093004793
:1048200090930147A0930247B09303472093044716
:1048300084E690E0809305479093064720930747CE
:1048400010922047109221470F900F90DF91CF9147
:104850001F910F91FF90EF90DF90CF9008959DE111
:10486000E90EF11C1FCF870184E0E81682E0F8060C
:1048700009F007CF29CFCF93DF93CDB7DEB7C95B60
:10488000D109CDBFDEBF88ED21E030E084BF2093A9
:10489000620091E084BF909363009DE284BF909397
:1048A000800093E084BF9093600080E090E22091CC
:1048B000650020FDCEC021E02093030A8EEF809397
:1048C000260A8093270A9BE09093000A32E03093F7
:1048D000E6052093430A8093660A8093670A9093C3
:1048E000400A9093E705E0E0FBE027E09EEF85E0DB
:1048F00021839487158680837096E0343BE0F3072C
:10490000B9F72FEF3FE02093AA0B3093AB0B90E861
:104910009093820B1092810B2EEF30E02093AE0B20
:104920003093AF0B98ED24E194BF2093680091E1A0
:104930009093800B809302069EE09093050690E68C
:1049400090930306809300068091B000887F856075
:104950008093B0008091B200887F85608093B20020
:104960008FED9EE280932C0B90932D0B81E0809332
:10497000250B1092210B83E08093200B78940E94EA
:104980008E16AE014B5C5F4F4FAB58AFBE01665FFA
:104990007F4F69AF7AAF8EE195E40E94F609892BCB
:1049A00009F49EC08EE195E40E94D409D09007439B
:1049B0008A3009F0FAC4AD2DB0E0A652BB4B1C9270
:1049C000E091DA44EF53EC3308F082C00E2E000C75
:1049D000FF0BE351FB4D0C942B3FBD296825682547
:1049E000682568256825682568256825682568255F
:1049F000682568256825682568256825682568254F
:104A0000682568256825682568256825682568253E
:104A1000682568256825682568256825682568252E
:104A20002F255B2527263C2645265C2668252A2837
:104A300017267726C027C8272A28682544286825EE
:104A40005A2889285B29682574298129972968258E
:104A50009E29019709F02BCF83E00E94CE0B72E0D4
:104A6000D71236C08BED94E40E94F139843071F492
:104A70008BE28093BF4681EB91E00E94480F66E88D
:104A80007DE08EE195E40E940B0F22C0883069F032
:104A9000893029F01092BF4690E080E0EECF8BE5A0
:104AA0008093BF4683E993E0E8CF86E58093BF46D5
:104AB00084E693E0E2CF82E0D8120AC08BED94E462
:104AC0000E94F139019709F0AFC081E0809320473F
:104AD00080E4AAEDB4E41D928A95E9F710920743A9
:104AE00080913244882369F11092324480911A45B2
:104AF000882339F18091294087FD19C08932A4F4B7
:104B0000282F082E000C330BF901E752FF4B908140
:104B10009F3F51F02E5F3E4BD901EC91B0E2EB9FED
:104B2000F0011124FC5F918361E00E9427130E9431
:104B30002C0960E08CEC0E94FB0861E084E40E9498
:104B4000FB0880913144882311F40C94B136109203
:104B50003144F89420914C4030914D4090E080E0F9
:104B6000821793070CF02EC4FC01E55DFB4B4081DE
:104B7000411158C0FC01B3E0EE0FFF1FBA95E1F7F9
:104B8000DF01A550BC4B1C9211961C9211971296F6
:104B90001C92129713961C92139714961C921497BA
:104BA00015961C92159716961C92169717961C929E
:104BB000DF01A553BC4B1C9211961C9211971296C3
:104BC0001C92129713961C92139714961C9214978A
:104BD00015961C92159716961C92169717961C926E
:104BE000DF01A556BC4B1C9211961C921197129690
:104BF0001C92129713961C92139714961C9214975A
:104C000015961C92159716961C92169717961C923D
:104C1000E559FC4B10821182128213821482158294
:104C20001682178201969CCF1092204751CF92E0B6
:104C3000D9124ECF8BED94E40E94F139019721F403
:104C400081E08093214744CF1092214741CF8BEDE3
:104C500094E40E94EE396B017C0165E77DE08EE112
:104C600095E40E94960B42E050E0C701B6010E9415
:104C7000411062E77DE005CF8AE08C936BED74E430
:104C80008EE195E40E94C00E23CFA3E0DA1220CF7C
:104C90008BED94E40E94EE390E94D43D6B01CB0170
:104CA0000E9410166BE67DE08EE195E40E94960B63
:104CB000C6010E944D0F0CCF8BED94E40E94F13998
:104CC0008093C04664E67DE08EE195E40E94960BF9
:104CD0004091C04650E070E060E02AE08EE195E44B
:104CE0000E94C70E8EE195E40E94080FF1CE60E2AB
:104CF00070E08AED94E40E94493F009711F40C940F
:104D000049398C010A5D1444C801992760E270E0BA
:104D100085529B4B0E94493FCC24C394C00E009700
:104D200011F40C943C39FC01EA5DF4445F01602FFE
:104D300081E00E94F9147C016A2D8C2D0E942515BA
:104D40002B013C016D2D81E08A0D0E9425156BAF72
:104D50007CAF8DAF9EAFF7E0EF16F10408F038C0DE
:104D6000F701EB54F94D0C942B3FBC260C272A2756
:104D7000482766278427A227209125403091264086
:104D80004091274050912840C301B2010E94F03B5E
:104D90004B015C016091694670916A4690E080E049
:104DA0000E948F3B9B01AC01C501B4010E946C3D88
:104DB000609348407093494080934A4090934B40A1
:104DC0004092C4465092C5466092C6467092C7460D
:104DD0006DE57DE08EE195E40E94960BC7010E948F
:104DE000480F6BE57DE08EE195E40E94960B42E072
:104DF00050E0C301B2010E94411069E57DE08EE1FF
:104E000095E40E94960B42E050E06BAD7CAD8DAD19
:104E10009EAD0E9435105CCE0BAD1CAD2DAD3EADF0
:104E2000B301A20183E00E943A164092D04650920C
:104E3000D1466092D2467092D3462BAD3CAD4DAD7B
:104E40005EAD2093D4463093D5464093D6465093DA
:104E5000D746BECF0BAD1CAD2DAD3EADB301A2010B
:104E600084E00E943A164092D8465092D946609209
:104E7000DA467092DB464BAD5CAD6DAD7EAD4093D6
:104E8000DC465093DD466093DE467093DF46A0CF4C
:104E90000BAD1CAD2DAD3EADB301A20185E00E946E
:104EA0003A164092E0465092E1466092E246709295
:104EB000E3466BAD7CAD8DAD9EAD6093E4467093E3
:104EC000E5468093E6469093E74682CF0BAD1CAD56
:104ED0002DAD3EADB301A20186E00E943A1640928C
:104EE000E8465092E9466092EA467092EB468BADF6
:104EF0009CADADADBEAD8093EC469093ED46A093D6
:104F0000EE46B093EF4664CF0BAD1CAD2DAD3EAD7C
:104F1000B301A20188E00E943A164092F0465092F6
:104F2000F1466092F2467092F3462BAD3CAD4DAD2A
:104F30005EAD2093F4463093F5464093F646509389
:104F4000F74646CF0BAD1CAD2DAD3EADB301A20172
:104F500089E00E943A164092F8465092F9466092D3
:104F6000FA467092FB464BAD5CAD6DAD7EAD4093A5
:104F7000FC465093FD466093FE467093FF4628CF53
:104F800051E0D512A5CD0E94B8110E941411A0CDF8
:104F900060E270E08AED94E40E94493F0097F9F4E2
:104FA0006D2D81E00E94F9148C010115110569F144
:104FB0000130110591F160E57DE08EE195E40E94FC
:104FC000960B68E47DE0012B09F45BCD42E050E0F4
:104FD000C301B2010E9441106CE47DE052CDBC01DE
:104FE0006A5D74447B0181E00E94F9148C016D2D8F
:104FF00081E08E0D0E94F914BC01990F880B990B6A
:105000000E94913B2B013C01D0CF10926B4681E076
:1050100080936C4610920447CECFC301B2010E9428
:10502000D43D6B01072E000CEE08FF08C0927146BC
:10503000D0927246E0927346F092744621E020933B
:105040006B4620936C46209304476093054770930A
:105050000647B1CF8BED94E40E94F139882389F0A3
:1050600099278034910514F08FE390E08093C14636
:1050700062E47DE08EE195E40E94960B4091C1468A
:1050800029CE81E090E0F2CF8BED94E40E94F139DB
:105090008F718093C3466DE37DE08EE195E40E94BD
:1050A000960B8091C3468251990B0E94480F68E38A
:1050B0007DE0E7CC71E0D7120BCD66E676E08EE1BD
:1050C00095E40E940B0F86E190E00E94E70D882393
:1050D00089F0CE0101960E94BF0D89819A8197FDCA
:1050E00009C091958195910989839A83CE01019692
:1050F0000E94420E68E376E08EE195E40E940B0F79
:1051000068EC70E080E090E00E94300C0C940000AD
:10511000DFCC81E0D812DCCC6EE276E08EE195E463
:105120000E940B0F86E190E00E94E70D811128C0DC
:1051300019821A826FE4CE0101960E941F0E81E04F
:1051400090E089839A8365E4CE0101960E941F0E48
:1051500082E090E089839A836DE4CE0101960E94FB
:105160001F0E03E010E009831A836FEFCE01019652
:105170000E941F0E0F5F1F4F011592E0190799F74C
:1051800087E690E089839A8386E190E08B839C8315
:10519000CE0101960E94420E0FEB16E487E090E0EC
:1051A000D8016D918D017C01BFEFEB1AFB0A8DAB2D
:1051B0009EABCE01C5960E941F0EC7018A3691058F
:1051C00079F790E080E00E94E70D811122C066E04F
:1051D00076E08EE195E40E94960B2AE040E052E0F2
:1051E00060E070E08EE195E40E94C70E60EE75E02D
:1051F0008EE195E40E940B0F60E072E090E080E0A9
:105200000E9442106EED75E08EE195E40E94960BCF
:105210000EC0CE0101960E94BF0D8B819C8101962C
:1052200069F46DE875E08EE195E40E940B0F8EE164
:1052300095E40E94080F6DE076E023CC60E875E00D
:105240008EE195E40E94960B4B815C8170E060E0FA
:105250002AE08EE195E40E94C70E09811A8117FFAA
:1052600003C01195019511090450110962E775E019
:105270008EE195E40E94960BC8010E94480F6BE6F0
:1052800075E08EE195E40E94960B89819A8197FFE3
:1052900006C060E675E08EE195E40E94960B8EE113
:1052A00095E40E94080FB80187E090E00E94421048
:1052B0006EE575E0A9CFF2E0DF120ACC1092074745
:1052C0008091DB44813319F481E08093074780911A
:1052D00007470E94F3138091074769E27DE081113F
:1052E000D0CB69E17DE0CDCB22242394D210F0CB4A
:1052F0006EE07DE08EE195E40E94960B6AE971E430
:10530000BFCC12E0312ED310E3CB1092C246809175
:10531000DB44813319F481E08093C2468091C24618
:1053200068E07DE08111ADCB61E07DE0AACBCC24CB
:10533000C39463EF7CE0DC10CBCBA3CBEE24E394EF
:10534000DE10C6CB69ED7CE08EE195E40E940B0F88
:105350000E946A0EEFE3F4E41192119211921192FD
:1053600024E4E735F207C1F71092754610927646AD
:105370001092774610927846ABCB31E0D312A8CB8F
:1053800005E716E0F801F490FF2061F0FAE0FF1263
:1053900003C08DE00E94B40B8F2D0E94B40B0F5FF1
:1053A0001F4FF0CF63E776E06CCBBFE3BD1508F489
:1053B00097CBED2DF0E0E652FB4B8083D394D09257
:1053C00007438ECBEBE6CE2EE6E4DE2E10E000E0C7
:1053D000EE24E394F12CA6E1BA2EF6018181882314
:1053E00009F476C080818823C9F18481893228F547
:1053F00090E0FC01E752FF4B40814F3FF1F0FC0190
:10540000EE5FFE4B2081F0E22F9F900111243C5F64
:10541000855D9E4BDC018C91F0E0E0E0883020F46B
:10542000F9017096E80FF11D9FB7F894D901129613
:105430004C938081886080839FBF64EC7CE0809186
:1054400070460115110521F066EC7CE080918646DE
:105450000E9469093DC001E010E0BFCF858189321B
:10546000A0F590E0FC01E55DFE4B20812F3F69F146
:105470008E5F9E4BDC018C91E82FE295EE0FE07E73
:10548000E20FF0E0E05FFB4F9081917F908390E02E
:10549000FC0134E0EE0FFF1F3A95E1F7422F50E098
:1054A000170102C0220C331C2A95E2F72382880FD1
:1054B000991FFC01EE5AFF4B440F551F0190F081DC
:1054C000E02DE40FF51F10821182D60111961C9277
:1054D000B09EF001B19EF00D11249F012559394B6A
:1054E000F90186859785A089B189892B8A2B8B2B19
:1054F000C1F04685578560897189F601828593855B
:10550000A485B585840F951FA61FB71F8287938733
:10551000A487B587D9011E961D921D921D921C92DB
:105520005197B6E1CB0ED11C0130110509F093CF94
:105530007894209163433091644340916543509146
:10554000664360916743709168438091694390918D
:105550006A4380905F4390906043A0906143B09015
:105560006243109157430091584330905943209023
:105570005A43C0905B436096CFAE6097D0905C4337
:105580006296DFAE6297E0905D436496EFAE6497FB
:10559000F0905E436696FFAE6697C09057436A965A
:1055A000CFAE6A97D09058436E96DFAE6E97E0907C
:1055B0005943A096EFAEA097F0905A43A496FFAE41
:1055C000A497C0905B43A896CFAEA897D0905C43B9
:1055D0002C96DFAE2C97E0905D43AC96EFAEAC9787
:1055E000F0905E43AE96FFAEAE97C0905F43D09012
:1055F0006043E0906143F09062432396CCAEDDAE11
:10560000EEAEFFAE2397C0905F43D0906043E09032
:105610006143F09062432796CCAEDDAEEEAEFFAEB6
:1056200027970E94093E6B017C01C501B4010E94CD
:10563000913B9B01AC01C701B6010E946C3D6B011F
:105640007C01212F302F432D522D60966FAD609736
:1056500062967FAD629764968FAD649766969FADB4
:1056600066970E94053E4B015C016A962FAD6A97D2
:105670006E963FAD6E97A0964FADA097A4965FAD86
:10568000A497A8966FADA8972C967FAD2C97AC9653
:105690008FADAC97AE969FADAE970E94053E9B0135
:1056A000AC01C501B4010E94F03B4B015C012396A3
:1056B0006CAD7DAD8EAD9FAD23970E94913B9B015C
:1056C000AC01C501B4010E946C3D4B015C01279601
:1056D0006CAD7DAD8EAD9FAD27970E94913B9B0138
:1056E000AC01C501B4010E946C3D9B01AC01C70136
:1056F000B6010E94043D0E949E3EC0904840D0905A
:105700004940E0904A40F0904B406996CCAEDDAE07
:10571000EEAEFFAE6997A70196010E94F03B6D9631
:105720006CAF7DAF8EAF9FAF6D9760935844709311
:10573000594480935A4490935B44E0904C40F090DD
:105740004D406F96EEAEFFAE6F9780905F439090A6
:105750006043A0906143B090624360915343709165
:10576000544380915543909156430E948F3B6B0167
:105770007C016F96AEADBFAD6F971196A5019401F8
:105780000E94CD3C0E94913B9B01AC01C701B60138
:105790000E946C3DA3966CAF7DAF8EAF9FAFA39779
:1057A000F0905744CB57DF4FF882C558D040C09097
:1057B0004E40D0904F40E0905040F0905140CA573A
:1057C000DF4FC882D982EA82FB82C658D040C0909F
:1057D0002A40D0902B40E0902C40F0902D40AB968A
:1057E000CCAEDDAEEEAEFFAEAB972FE334E4619608
:1057F0002EAF3FAF61974BE053E463964EAF5FAF80
:10580000639763E374E425966EAF7FAF259788E8CE
:1058100094E421968EAF9FAF2197ABE3B3E4AF96AC
:10582000AEAFBFAFAF97E3E2F3E4AD96EEAFFFAF3D
:10583000AD972EE230E4E1962EAF3FAFE1974CE515
:1058400054E465964EAF5FAF6597312C212C6F966F
:10585000CEACDFAC6F972C143D040CF004C5910165
:10586000B3E0220F331FBA95E1F7D901A550BC4B25
:10587000DC90C657DF4FD882CA58D0401196EC90C2
:105880001197C557DF4FE882CB58D0401296FC9055
:105890001297C457DF4FF882CC58D0401396CC9063
:1058A0001397C357DF4FC882CD58D0401496DC9071
:1058B0001497C257DF4FD882CE58D0401596EC903F
:1058C0001597C157DF4FE882CF58D0401696FC900D
:1058D0001697C057DF4FF882C059D0401796CC902A
:1058E000CF56DF4FC882C159D040AF96AEADBFADE5
:1058F000AF97CD90DD90ED90FD90AF96AEAFBFAF7E
:10590000AF972B96CCAEDDAEEEAEFFAE2B97D901A6
:10591000A553BC4BCC90CE56DF4FC882C259D04065
:105920001196DC901197CD56DF4FD882C359D040E5
:105930001296EC901297CC56DF4FE882C459D040B3
:105940001396FC901397CB56DF4FF882C559D04081
:105950001496CC901497CA56DF4FC882C659D040CF
:105960001596DC901597C956DF4FD882C759D0409D
:105970001696EC901697C856DF4FE882C859D0406B
:105980001796FC90C756DF4FF882C959D040AD96A4
:10599000AEADBFADAD97CD90DD90ED90FD90AD96E5
:1059A000AEAFBFAFAD97E596CCAEDDAEEEAEFFAE1F
:1059B000E597C0905F43D0906043E0906143F090E2
:1059C0006243E996CCAEDDAEEEAEFFAEE997D09085
:1059D0005743C656DF4FD882CA59D040E09058434B
:1059E000C556DF4FE882CB59D040F0905943C4569A
:1059F000DF4FF882CC59D040C0905A43C356DF4F96
:105A0000C882CD59D040D0905B43C256DF4FD88278
:105A1000CE59D040E0905C43C156DF4FE882CF5969
:105A2000D040F0905D43C056DF4FF882C05AD0405E
:105A3000C0905E43CF55DF4FC882C15AD040890124
:105A400005591C4BD801BC91CE55DF4FB883C25AC3
:105A5000D040F801F181CD55DF4FF883C35AD040D3
:105A6000D8011296BC91CC55DF4FB883C45AD040B0
:105A7000F801F381CB55DF4FF883C55AD040D801E8
:105A80001496BC91CA55DF4FB883C65AD040F8016E
:105A9000F581C955DF4FF883C75AD040D801169613
:105AA000BC91C855DF4FB883C85AD040F801F78180
:105AB000C755DF4FF883C95AD040C0905F43D0909C
:105AC0006043E0906143F0906243ED96CCAEDDAE72
:105AD000EEAEFFAEED97C0905F43D0906043E09094
:105AE0006143F0906243C358DF4FC882D982EA8293
:105AF000FB82CD57D040E196AEADBFADE197CD90E2
:105B0000DD90ED90FD90E196AEAFBFAFE197A79627
:105B1000CCAEDDAEEEAEFFAEA797F901E556FC4B7D
:105B20002081318142815381648175818681978191
:105B300080905F4390906043A0906143B090624337
:105B4000F801F081C655DF4FF883CA5AD040D8011A
:105B50001196BC91C555DF4FB883CB5AD040F801A0
:105B6000F281C455DF4FF883CC5AD040D801139648
:105B7000BC91C355DF4FB883CD5AD040F801F481B2
:105B8000C255DF4FF883CE5AD040D8011596BC914C
:105B9000C155DF4FB883CF5AD040F801F681C055C8
:105BA000DF4FF883C05BD040D8011796BC91CF542B
:105BB000DF4FB883C15BD040F801F081CE54DF4F96
:105BC000F883C25BD040D8011196BC91CD54DF4F11
:105BD000B883C35BD040F801F281CC54DF4FF88327
:105BE000C45BD040D8011396BC91CB54DF4FB8832F
:105BF000C55BD040F801F481CA54DF4FF883C65B1F
:105C0000D040D8011596BC91C954DF4FB883C75B0B
:105C1000D040F801F681C854DF4FF883C85BD0400C
:105C2000D8011796BC91C754DF4FB883C95BD040E9
:105C3000C0905F43D0906043E0906143F090624336
:105C40002F96CCAEDDAEEEAEFFAE2F97C0905F4389
:105C5000D0906043E0906143F0906243CF57DF4FB4
:105C6000C882D982EA82FB82C158D0400E94093E94
:105C70006B017C01C501B4010E94913B9B01AC0109
:105C8000C701B6010E946C3D6B017C01C655DF4F18
:105C90002881CA5AD040C555DF4F3881CB5AD040F1
:105CA000C455DF4F4881CC5AD040C355DF4F58818F
:105CB000CD5AD040C255DF4F6881CE5AD040C15531
:105CC000DF4F7881CF5AD040C055DF4F8881C05B0D
:105CD000D040CF54DF4F9881C15BD0400E94053E39
