:1002000050C7000078C7000076C7000074C7000020
:1002100072C7000070C700006EC700006CC7000006
:100220000C94381E68C7000066C7000064C7000051
:1002300062C7000060C700005EC700005CC7000026
:100240005AC7000058C7000056C7000054C7000036
:1002500052C700000C94931D0C948E1D0C94981D95
:100260000C942F1E48C700000C94861E44C7000043
:1002700042C7000040C700000C94321E0C94011EBF
:100280003AC7000038C7000036C700000C94291E8A
:1002900032C7000030C700002EC700002CC7000086
:1002A0002AC7000028C7000026C7000024C7000096
:1002B00022C700000C94351E0C942C1E1CC7000095
:1002C0001AC7000018C7000016C7000014C70000B6
:1002D00012C700000C94861D0C94811D0C948B1D7C
:1002E0000AC7000008C7000006C7000004C70000D6
:1002F00002C7000005A84CCDB2D44EB93836A902C9
:100300000C50B9918688083CA6AAAA2ABE00000013
:10031000803F4E414E494E495459494E46CDCCCC72
:100320003D0AD7233C17B7D13877CC2B329595E6C9
:10033000241FB14F0A000020410000C84200401CA9
:100340004620BCBE4CCA1B0E5AAEC59D744E6F20D3
:10035000454550524F4D20636F6E666967004C6F84
:100360006164656420454550524F4D20636F6E6651
:100370006967005265666572656E636520766F6CAD
:10038000746167652063616C6962726174696F6E24
:100390003A20002000204E6F64653A20002047720A
:1003A0006F75703A20003931354D487A003836384B
:1003B0004D487A003433334D487A002046726571D7
:1003C0003A200052464D3639435720004F70656E33
:1003D000456E657267794D6F6E69746F722E6F72BC
:1003E0006700656D6F6E547820563420434D20436E
:1003F0006F6E74696E756F7573204D6F6E69746F73
:1004000072696E672056004A534F4E20466F726DD8
:100410006174204F6666004A534F4E20466F726DDE
:100420006174206F6E005246206F6666005246204F
:100430006F6E0074656D705F656E61626C65203D06
:10044000200070756C736520706572696F64203D63
:10045000200070756C736573203D200064617461C9
:100460006C6F67203D200069364C656164203D203B
:1004700000693643616C203D200069354C6561643C
:10048000203D2000693543616C203D200069344CDB
:10049000656164203D2000693443616C203D20008B
:1004A00069334C656164203D2000693343616C20F1
:1004B0003D200069324C656164203D200069324373
:1004C000616C203D200069314C656164203D200055
:1004D000693143616C203D2000617373756D656403
:1004E00056203D20007643616C203D200043616C26
:1004F0006962726174696F6E3A002064426D002C0B
:1005000020002C204E6F64652000204D487A2C205E
:1005100047726F7570200042616E642000536574ED
:1005200074696E67733A000A00202868696464651C
:100530006E292E00206279746573002C204461744A
:10054000612073697A653A2000205369676E61748F
:100550007572653A20004E6F206461746120626C90
:100560006F636B20666F756E64202D204545505279
:100570004F4D206170706561727320746F206265E9
:1005800020666F726D617474656420746F204F45CE
:100590004D205374616E64617264206275742075BD
:1005A0006E757365642E000A002062797465732C81
:1005B000206E6F7420666F726D6174746564207450
:1005C0006F204F454D205374616E64617264005317
:1005D000697A653A2000446F6E652E204E6577205B
:1005E000636F6E66696720736176656420746F203F
:1005F000454550524F4D00536176696E672E2E2E41
:1006000000536B657463682077696C6C206E6F773C
:100610002072657374617274207573696E672064EB
:10062000656661756C7420636F6E6669672E005233
:100630006573657474696E672E2E2E0020000A4162
:100640007661696C61626C6520636F6D6D616E646B
:10065000733A0A6C09092D206C69737420746865FB
:100660002073657474696E67730A7209092D2072AC
:100670006573746F726520736B657463682064655D
:100680006661756C74730A7309092D207361766550
:100690002073657474696E677320746F20454550CC
:1006A000524F4D0A7609092D2073686F77206669CD
:1006B000726D776172652076657273696F6E0A7A02
:1006C00009092D207A65726F20656E657267792041
:1006D00076616C7565730A7809092D2065786974EF
:1006E0002C206C6F636B20616E6420636F6E746985
:1006F0006E75650A3F09092D2073686F772074684D
:100700006973207465787420616761696E0A0A777D
:100710003C783E09092D207475726E2052464D209A
:10072000576972656C6573732064617461206F66CC
:10073000663A2078203D2030206F72206F6E3A207C
:1007400078203D20310A623C6E3E09092D207365F8
:100750007420722E662E2062616E64206E203D2011
:10076000612073696E676C65206E756D6572616C72
:100770003A2034203D203433334D487A2C20382021
:100780003D203836384D487A2C2039203D203931EB
:10079000354D487A20286D617920726571756972CE
:1007A00065206861726477617265206368616E6755
:1007B00065290A703C6E6E3E09092D207365742010
:1007C00074686520722E662E20706F7765722E20F9
:1007D0006E6E202D20616E20696E746567657220D3
:1007E00030202D20333120726570726573656E7410
:1007F000696E67202D31382064426D20746F202B84
:1008000031332064426D2E2044656661756C743A04
:1008100020323520282B372064426D290A673C6E30
:100820006E6E3E092D20736574204E6574776F726D
:100830006B2047726F757020206E6E6E202D2061C8
:100840006E20696E746567657220284F454D20647F
:10085000656661756C74203D20323130290A6E3C2A
:100860006E6E3E09092D20736574206E6F646520DD
:100870004944206E3D20616E20696E746567657223
:1008800020287374616E64617264206E6F646520E9
:100890006964732061726520312E2E3630290A0A70
:1008A000643C78782E783E092D2078782E78203D8B
:1008B000206120666C6F6174696E6720706F696E6D
:1008C00074206E756D62657220666F722074686543
:1008D00020646174616C6F6767696E672070657210
:1008E000696F640A633C6E3E09092D206E203D202D
:1008F0003020666F72204F46462C206E203D2031FE
:1009000020666F72204F4E2C20656E61626C6520F0
:10091000766F6C746167652C2063757272656E7496
:10092000202620706F77657220666163746F722075
:1009300076616C75657320746F2073657269616C84
:10094000206F757470757420666F722063616C69B6
:1009500062726174696F6E2E200A6A3C6E3E0909EC
:100960002D207475726E204A534F4E205365726964
:10097000616C20666F726D6174206F6E2028312962
:10098000206F72206F6666202830292E0A663C7818
:10099000783E09092D207878203D20746865206C08
:1009A000696E65206672657175656E637920696E22
:1009B00020487A3A206E6F726D616C6C792065699F
:1009C00074686572203530206F722036300A6B3CB7
:1009D000783E203C79792E793E203C7A7A2E7A3EF8
:1009E0000A09092D2043616C696272617465206196
:1009F0006E20616E616C6F67756520696E707574CD
:100A0000206368616E6E656C3A0A090920207820BF
:100A10003D20612073696E676C65206E756D65722F
:100A2000616C3A2030203D20766F6C7461676520E0
:100A300063616C6962726174696F6E2C2031203D54
:100A4000206374312063616C6962726174696F6ED6
:100A50002C2032203D206374322063616C69627205
:100A60006174696F6E2C206574630A09092020790E
:100A7000792E79203D206120666C6F6174696E6704
:100A800020706F696E74206E756D62657220666F7E
:100A9000722074686520766F6C746167652F63756A
:100AA0007272656E742063616C6962726174696FE1
:100AB0006E20636F6E7374616E740A090920207A68
:100AC0007A2E7A203D206120666C6F6174696E67B2
:100AD00020706F696E74206E756D62657220666F2E
:100AE00072207468652070686173652063616C6949
:100AF00062726174696F6E20666F722074686973C8
:100B000020632E742E20287A206973206E6F742043
:100B10006E65656465642C206F722069676E6F7204
:100B2000656420696620737570706C6965642C203B
:100B30007768656E2078203D2030290A0909202039
:100B4000652E672E206B30203235362E380A090983
:100B5000202020202020206B312039302E392032D7
:100B60002E30300A613C78782E783E092D20787836
:100B70002E78203D206120666C6F6174696E67205D
:100B8000706F696E74206E756D62657220666F722B
:100B90002074686520617373756D656420766F6C71
:100BA00074616765206966206E6F20612E632E2058
:100BB00069732064657465637465640A6D3C783E8E
:100BC000203C79793E092D206D6574657220707521
:100BD0006C736520636F756E74696E673A0A0909F4
:100BE00020202078203D203020666F72204F46461E
:100BF0002C2078203D203120666F72204F4E2C2013
:100C00003C79793E203D20616E20696E7465676590
:100C10007220666F72207468652070756C73652031
:100C20006D696E696D756D20706572696F6420699C
:100C30006E206D732E202879206973206E6F7420CA
:100C40006E65656465642C206F722069676E6F72D3
:100C50006564207768656E2078203D2030290A740D
:100C600030203C793E092D207475726E2074656DBC
:100C70007065726174757265206D656173757265FA
:100C80006D656E74206F6E206F72206F66663A20FD
:100C900079203D203020666F72204F46462C207907
:100CA000203D203120666F72204F4E0A743C783E02
:100CB000203C79793E203C79793E203C79793E2070
:100CC0003C79793E203C79793E203C79793E203C44
:100CD00079793E203C79793E0A09092D20636861C3
:100CE0006E676520612074656D70657261747572E0
:100CF000652073656E736F7227732061646472651B
:100D00007373206F7220706F736974696F6E3A0A23
:100D10000909202078203D20612073696E676C6589
:100D2000206E756D6572616C3A2074686520706F15
:100D3000736974696F6E206F6620746865207365CF
:100D40006E736F7220696E20746865206C697374AD
:100D50002028312D6261736564290A0909202079F0
:100D600079203D20382068657861646563696D612C
:100D70006C20627974657320726570726573656E3C
:100D800074696E67207468652073656E736F72276F
:100D90007320616464726573730A0909202020203E
:100DA000652E672E2020323820383120343320330E
:100DB000312030372030302030302044390A0909C2
:100DC00020204E2E422E2053656E736F7273204387
:100DD000414E4E4F542062652061646465642E0A62
:100DE00000456E657267792076616C756573207356
:100DF000657420746F207A65726F00436F6E74693A
:100E00006E75696E672E2E2E005246206F66660044
:100E10005246206F6E00456D6F6E547856342056E2
:100E2000002064426D0070203D20004E6F646520FC
:100E3000006F666600206D730050756C7365733AC1
:100E400020002000200043616C3A206B0047726F45
:100E500075702000467265713A200020730064614D
:100E600074616C6F6720706572696F643A2000204E
:100E70004D487A00005EBCE2613FDD83C29C7E206B
:100E8000A3FD1F41009D23BE46DB65F88C11AF32E8
:100E9000CA57E9742C7066363A002C7066353A00F1
:100EA0002C7066343A002C7066333A002C7066322F
:100EB0003A002C7066313A002C49363A002C4935FC
:100EC0003A002C49343A002C49333A002C49323A42
:100ED000002C49313A002C70756C73653A002C5423
:100EE000333A002C54323A002C54313A002C453617
:100EF0003A002C45353A002C45343A002C45333A1B
:100F0000002C45323A002C45313A002C50363A003C
:100F10002C50353A002C50343A002C50333A002CE7
:100F200050323A002C50313A002C56726D733A0010
:100F30004D53473A007D002C2270756C7365223A40
:100F4000002C225433223A002C225432223A002C14
:100F5000225431223A002C224536223A002C2245D6
:100F600035223A002C224534223A002C22453322E5
:100F70003A002C224532223A002C224531223A00F6
:100F80002C225036223A002C225035223A002C22B4
:100F90005034223A002C225033223A002C22503274
:100FA000223A002C225031223A002C2256726D73C4
:100FB000223A007B224D5347223A002056004143FB
:100FC000206D697373696E67202D204170706172A6
:100FD000656E7420506F7765722063616C63206565
:100FE0006E61626C65642C20617373756D696E67E8
:100FF000200041432070726573656E74202D20526D
:1010000065616C20506F7765722063616C63206549
:101010006E61626C65640020656E61626C65642E51
:101020000054656D7065726174757265206D6561DF
:10103000737572656D656E742069730053656E73A8
:101040006F72206D6179206E6F7420626520726509
:101050006C6961626C6500200030002C2077697437
:1010600068206164647265737365732E2E2E00545C
:10107000656D70657261747572652053656E736F0E
:10108000727320666F756E64203D20000A000008B0
:101090000A400CFFC000C000000201040603000368
:1010A000CF2311241FBECFEFCDBFDFE7DEBF11E49A
:1010B000A0E0B0E4E4ECF2E800E00BBF02C007906F
:1010C0000D92A237B107D9F726E4A2E7B1E401C037
:1010D0001D92A23EB207E1F718E0C1E5D8E004C0D6
:1010E0002197FE010E942841C035D107C9F70E940F
:1010F000D5250C94604184C8893260F590E0FC01EC
:10110000EF51FF4BE081EF3F29F188549F4BDC0109
:101110008C9190E0DC01AA0FBB1FA05BBF4B2D910F
:101120003C9121153105B1F04E2F50E0440F551F71
:10113000240F351FD9016D937C93E05FA5E0880FE4
:10114000991FAA95E1F7E80FF0E0FC5F8081887FA6
:10115000826080830895CF93DF93282F30E09FEF44
:10116000893220F5E901C157DF4B98819F3FE9F0B3
:10117000F901E854FF4BA08140E2A49FD001112463
:10118000BC5FF901EF51FF4BE081E830C0F5AD01E4
:10119000405F5F4FE40FF52FF11D4FB7F8941296A3
:1011A0009C939081977F90834FBF9881909317462F
:1011B000893240F528543F4BF9018081F4E08F9F3C
:1011C000C00111248093184690931946109222462C
:1011D00010922446109223461092214610922046E7
:1011E00010921F4610921E4610921D4610921C46E9
:1011F00010921B4610921A46DF91CF910895F0E0AD
:10120000E0E0CBCF8CEF93E0DDCF90911746E091FB
:101210001846F0911946292F209580FF15C0F894A3
:101220008181822381838081892B808380E58A95D7
:10123000F1F78181982B91837894A9E4B1E011971B
:10124000F1F700C000000895F89481818223818322
:101250008081892B8083A5E8B1E01197F1F700C068
:1012600000008181982B91837894B8E2BA95F1F7C8
:10127000089580911746E0911846F0911946F89428
:101280009081982B90832181382F309523232183BF
:1012900098E19A95F1F790819323908390E59A9540
:1012A000F1F792817894EDE3F1E03197F1F700C026
:1012B0000000982381E009F480E00895FF920F93E5
:1012C0001F93CF93DF93F82E062FC8E0D0E011E0F4
:1012D00081E09F2D912309F480E097DF110F219782
:1012E000B9F7011116C0F894E0911846F09119462B
:1012F000908180911746809589238083E0911846DC
:10130000F0911946918180911746809589238183B8
:101310007894DF91CF911F910F91FF900895809164
:101320001746E0911846F0911946F8949081282FBD
:1013300020959223908378943DE7315059F190E1C4
:101340009A95F1F792819823C1F3F89491819223B1
:1013500091839081982B90837894AFE3BBE01197B1
:10136000F1F700C00000F894908192239083A3EAE3
:10137000B1E01197F1F700C000009281982381E05D
:1013800009F080E07894EBE9F9E03197F1F700C0DB
:101390000000089580E008952D9A0895000080933C
:1013A00064098091630987FFFCCF809164090895E7
:1013B0002D980895CF93C62F2D988068EFDF8C2F3E
:1013C000EDDFCF91E9CFCF932D98E8DF80E0E6DF26
:1013D000C82FE2DF8C2FCF910895CF939091D54401
:1013E000981791F0C82F81E0EEDF837E682F6C2B79
:1013F00081E0E0DF8091D544811104C087E2E3DF22
:1014000087FFF8CFC093D544CF91089510929444AC
:1014100010929244109293441092904410929144EE
:1014200010928F4410928E4488E2CDDF82FF06C076
:101430008DE3C9DF682F64608DE3BCDF80E1CDCF31
:10144000AF92BF92CF92DF92EF92FF920F931F93D2
:10145000CF93DF936C017B018B01040F151FEB0110
:101460005E01AE18BF08C017D10759F06991D601C7
:10147000ED91FC910190F081E02DC6010995892B39
:1014800079F7C501DF91CF911F910F91FF90EF90F8
:10149000DF90CF90BF90AF900895FC0155894689A9
:1014A000252F30E0842F90E0821B930B541710F00F
:1014B000CF96089501970895FC0193898489981720
:1014C00061F0A489AE0FBF2FB11D57968C919489FE
:1014D0009F5F9F73948B90E008958FEF9FEF089527
:1014E000FC0193898489981731F08489E80FF11DF4
:1014F000878990E008958FEF9FEF0895FC0193890D
:101500002489892F90E0805C9F4F821B91098F7303
:1015100099270895CF93DF93EC01E881F981068044
:10152000F781E02D0995EC85FD8586811682858100
:10153000158280E484838C898B8B1A8ADF91CF910A
:1015400008958F929F92AF92BF92FF920F931F9335
:10155000CF93DF938C014A015B01D22FC32FDC01B3
:1015600052968C91529780FF07C0ED91FC910288B2
:10157000F389E02DC8010995D11101C0D3E0FD2EFA
:10158000E894F2F8DC2FD095D07CB1E68B16B3EE60
:101590009B06B6E1AB06B10428F0D260B694A794DE
:1015A0009794879460E078ED88EB95E0A50194012D
:1015B0000E94D03EC9012034310510F480E490E04F
:1015C0003C2F3B72D7FD30684D2F487C30FD416089
:1015D0005FB7F894D8011C96ED91FC911682F782C2
:1015E0008087918735FF8FC04F7781E084878FEFA9
:1015F00085873F7D3583D683F8012189C08986851B
:101600009785FC0133E0239FE00DF11D11246591C6
:1016100074912C1708F059C0272F46FF76C07932F5
:1016200088F430E0F901E157FF4BA081AF3F51F062
:1016300028543F4BF901308120E2329FF001112400
:10164000FC5FA18347FF2AC021E0270F293230F534
:1016500030E0F901E157FF4BD081DF3FF9F0F901AC
:10166000E854FF4BA081F0E2AF9FD0011124BC5F92
:101670002F513F4BF9011081F0E0E0E0183030F4D9
:101680009D01205F3F4FF901E10FF11D3FB7F89435
:101690001296DC932081286020833FBF40FF15C055
:1016A00023E0270F293288F430E0F901E157FF4B9E
:1016B00040814F3F51F028543F4BD901EC91B0E2AB
:1016C000EB9FF0011124FC5F4183FC0123E0C29FEA
:1016D000E00DF11D1124319625913491F901FF2778
:1016E000EE51FA4F9081832F80958923682B608378
:1016F0005FBFDF91CF911F910F91FF90BF90AF908F
:101700009F908F900895148674CF342F307509F40C
:1017100099CF793208F096CF30E0F901E157FF4BCD
:10172000D081DF3F09F48ECFF901E854FF4BA0814F
:10173000E0E2AE9FD0011124BC5F2F513F4BF90175
:101740001081F0E0E0E0183030F49D01205F3F4F61
:10175000F901E10FF11D3FB7F8941296DC93208157
:10176000286020833FBF6ECFFC010FB607FE04C088
:10177000809111018823A9F0A485B58514968C91D8
:10178000149785FF0EC095898689981739F01596AC
:101790008C9115978F7D15968C930895E8940C94F1
:1017A000A31D08950F931F93CF93DF93EC018A89B4
:1017B000982F91609A8B2D899E8929130AC0EC85F8
:1017C000FD85948195FF05C081FD0DC080E4848373
:1017D00012C0062F1D891F5F1F738E89811315C0CC
:1017E000CE01C2DFFACF85818F77806490E4948345
:1017F000EC85FD858583EC85FD85628381E090E045
:10180000DF91CF911F910F910895ED89EC0FFD2F7E
:10181000F11DE95AFF4F00831D8BEC85FD858A89F8
:1018200081FF09C085818F77806690E49483EC8581
:10183000FD858583E3CF85818062FBCFEF92FF92A8
:101840000F931F93CF93DF938C017B01D0E0C0E017
:10185000F701EC0FFD1F6491662331F0C801A2DF90
:10186000892B11F02196F4CFCE01DF91CF911F91FA
:101870000F91FF90EF900895682F8CED94E492CF34
:10188000CF93DF93EC018A8980FF0BC0EC85FD8547
:10189000858185FD03C0848186FD03C0CE0164DFA0
:1018A000F5CFDF91CF91089581E008959FB7F89427
:1018B000E0912A0BF0912B0B8091260B2091B742DF
:1018C0003091B8424091B9425091BA429FBF80FFD7
:1018D00008C0EC3E8CE2F80720F42F5F3F4F4F4FDB
:1018E0005F4F0F011694079416940794169407946B
:1018F00016940794F00116940794E00DF11D1694C8
:101900000794102C169401181694010C16940118C3
:101910001694010C1694011816941694010C1124B7
:10192000E019F109A8EEB3E00E94C03E6E0F7F1FE0
:10193000811D911D08958F929F92AF92BF92CF9279
:10194000DF92EF92FF926B017C01B0DF4B015C01F3
:10195000C114D104E104F104B1F0A8DF68197909D8
:101960008A099B09683E73408105910588F321E04F
:10197000C21AD108E108F10888EE880E83E0981EAB
:10198000A11CB11CE5CFFF90EF90DF90CF90BF90EE
:10199000AF909F908F9008952FB7F8946091B742C1
:1019A0007091B8428091B9429091BA422FBF089588
:1019B0000F931F93CF93DF93EC01EEDF6093E4442A
:1019C0007093E5448093E6449093E7448CED94E46F
:1019D00073DD97FF21C0E0DF0091E4441091E544FE
:1019E0002091E6443091E744601B710B820B930B0E
:1019F0000091E0441091E1442091E2443091E344AD
:101A0000601771078207930708F390E080E0DF9189
:101A1000CF911F910F910895888381E090E0F7CFD7
:101A20000F931F93B9DF6093E4447093E544809370
:101A3000E6449093E7448CED94E452DD97FF1CC09C
:101A4000ABDF0091E4441091E5442091E6443091ED
:101A5000E744601B710B820B930B0091E0441091E3
:101A6000E1442091E2443091E3446017710782071A
:101A7000930708F38FEF9FEF1F910F910895CF9277
:101A8000DF92EF92FF92CF93CBDFFC0197FD4BC02B
:101A90008D32910521F0C0970A9708F03EC0C12C05
:101AA000D12C7601C0E0E130F105D1F0ED32F10545
:101AB000C1F1CF01C0970A9798F4AAE0B0E0A7015E
:101AC00096010E94C03E6F01FF0FEE08FF08C60E90
:101AD000D71EE81EF91E80E3C81AD108E108F108F4
:101AE0008CED94E4E9DC9CDFFC01C0970A97D8F206
:101AF000E130F105C1F2CC2341F0F094E094D094B0
:101B0000C094C11CD11CE11CF11CC701B601CF91CE
:101B1000FF90EF90DF90CF9008958CED94E4CCDCB3
:101B2000B3CFC1E0DDCFC12CD12C7601EECFCF9267
:101B3000DF92EF92FF920F931F93CF93DF93082FC3
:101B400010E096E1899FE0011124C75DD94B8E8199
:101B50009F81A885B985892B8A2B8B2B99F11CDF56
:101B6000CA88DB88EC88FD886C197D098E099F097D
:101B7000CE80DF80E884F984C616D706E806F90629
:101B800058F48E859F85A889B9890196A11DB11D3C
:101B90008E879F87A88BB98BFFDE26E1209FF001FF
:101BA000219FF00D1124E75DF94B628B738B848BC1
:101BB000958BDF91CF911F910F91FF90EF90DF9068
:101BC000CF9008958E859F85A889B9890196A11D1A
:101BD000B11D8E879F87A88BB98BEBCF80E0A7CFF5
:101BE00081E0A5CFCF92DF92EF92FF920F931F93E8
:101BF000CF93DF9380911A4090E025E095958795EB
:101C00002A95E1F78095909583709927C0EFD2E0EF
:101C100002C0D595C7958A95E2F72091444030914E
:101C20004540DE010E94374128E13CEF4FEF5FEF76
:101C30000E94A43E8091D9419091DA410197280FEA
:101C4000391F2093DB413093DC4120E030E04AE74C
:101C500054E4609128407091294080912A409091ED
:101C60002B400E94ED3D0E94D63F8E01DD0F220BDE
:101C7000330B6B017C01C01AD10AE20AF30AA701F7
:101C80009601A8EEB3E00E94C03E685873418109F6
:101C900091092091184030911940032E000C440BFB
:101CA000550B0E94D03E2093D5413093D6414093AE
:101CB000D7415093D841DF91CF911F910F91FF9061
:101CC000EF90DF90CF900895CF92DF92EF92FF9246
:101CD0006B017C01C0922840D0922940E0922A40BA
:101CE000F0922B40609144407091454090E080E03C
:101CF0000E948C3DA70196010E94ED3D0E94D63FB7
:101D00006093D9417093DA4120E034E244E759E42A
:101D1000C701B6010E94ED3D6B017C016091184046
:101D200070911940072E000C880B990B0E948E3D74
:101D30009B01AC01C701B6010E94693F0E94D63FDA
:101D400060930743709308438093094390930A4339
:101D5000FF90EF90DF90CF9045CFEF92FF920F93DF
:101D60001F93CF93DF93E091D341CE2FD0E07E013C
:101D7000EE0CFF1CEE0CFF1CD701A45DBF4B4D9376
:101D80005D936D937C931397B7016050704CDB01AA
:101D90000D931D932D933C9313979E0121523C4B21
:101DA00091E0D9019C93A82FB0E0A85DBB4BEC93C8
:101DB000EF5FE093D341F0E0E45EFF4B8083DF917F
:101DC000CF911F910F91FF90EF900895DC01ED915D
:101DD000FC91F170FC5E80810895CF92DF92EF92CA
:101DE000FF920F931F93CF93DF9300D0CDB7DEB751
:101DF0006C017C0103E010E009831A83CE01019697
:101E0000E5DFF70181937F010F5F1F4F0730110559
:101E100099F7C6010F900F90DF91CF911F910F910D
:101E2000FF90EF90DF90CF9008950F931F93CF9383
:101E3000DF9300D000D0CDB7DEB78C0119821A82B3
:101E4000CE010196C3DF8F34F9F481E090E08983FD
:101E50009A83CE010196BADF8534B1F482E090E036
:101E600089839A83CE010196B1DF8D3469F481E0D4
:101E70000115110551F0CE010196AFDF81E02B81F4
:101E80003C812017310709F080E02496CDBFDEBFEA
:101E9000DF91CF911F910F9108951F93CF93DF93FF
:101EA000EC01162F93DF8117B1F09FB780910210DC
:101EB000282F227081FDFACFF8948DE984BF2093FA
:101EC000001023E184BF20930010E881F981F170B4
:101ED000FC5E10839FBFCE01DF91CF911F910895CB
:101EE000CF92DF92EF92FF920F931F93CF93DF93E6
:101EF00000D0CDB7DEB76C017C0103E010E00983B0
:101F00001A83F70161917F01CE010196C6DF0F5F51
:101F10001F4F0730110599F7C6010F900F90DF9101
:101F2000CF911F910F91FF90EF90DF90CF90089588
:101F30000F931F93CF93DF9300D0CDB7DEB70091FF
:101F4000794610917A4680917B4690917C4608179D
:101F500019079CF4C801957189839A836FEFCE01AC
:101F600001969BDF109275461092764680917346DB
:101F700090917446080F191FE6CF0F900F90DF91D4
:101F8000CF911F910F910895DC01ED91FC91008894
:101F9000F189E02D23E030E00994FB01019000205D
:101FA000E9F73197AF01461B570B4ACA6115710516
:101FB00009F0F3CF90E080E008958F929F92AF9266
:101FC000BF92EF92FF920F931F93CF93DF93CDB702
:101FD000DEB7A197CDBFDEBF7C01FA01CB0119A20C
:101FE000223008F42AE08E010F5D1F4F822E912CC3
:101FF000B12CA12CBF01A50194010E94D03EF90192
:10200000CA016A30CCF4605DD8016E938D01232B38
:10201000242B252B79F7BD01C701C8DFA196CDBFC1
:10202000DEBFDF91CF911F910F91FF90EF90BF9096
:10203000AF909F908F900895695CE6CF64E271E461
:10204000ACCF0F931F93CF93DF93EC01F7DB8C01A1
:10205000CE01F4DF800F911FDF91CF911F910F917F
:102060000895CF92DF92EF92FF92CF93DF93AB016F
:10207000BC0177FF19C06A017C018DE2FDDBEC0138
:1020800044275527BA014C195D096E097F092AE0DA
:102090008CED94E492DF8C0F9D1FDF91CF91FF9028
:1020A000EF90DF90CF9008952AE08CED94E4DF91DB
:1020B000CF91FF90EF90DF90CF907FCFBC01990F31
:1020C000880B990BCECFCF93DF93F8DFEC018CED2B
:1020D00094E4B4DF8C0F9D1FDF91CF9108954F9250
:1020E0005F926F927F928F929F92AF92BF92CF92A8
:1020F000DF92EF92FF920F931F93CF936B017C01BE
:10210000742EAC019B010E94D94067E271E48111F9
:1021100026C046015701E894B7F82FEF3FEF4FE78D
:102120005FE7C501B4010E94D94081110CC02FEFB7
:102130003FEF4FE75FE7C501B4010E94883D6BE2C6
:1021400071E4181664F02FEF3FEF4FE75FE4C7012B
:10215000B6010E948D401816A4F46FE271E48CED74
:1021600094E4CF911F910F91FF90EF90DF90CF906B
:10217000BF90AF909F908F907F906F905F904F90A7
:102180000CCF2FEF3FEF4FE75FECC701B6010E9486
:10219000883D87FDE2CF20E030E0A901C701B6010C
:1021A0000E94883D10E000E087FF07C08DE264DBFD
:1021B0008C01F7FAF094F7F8F094C0E060E070E07A
:1021C00080E09FE37C1641F020E030E040E251E403
:1021D0000E94693FCF5FF6CFA70196010E94023FA0
:1021E0002B013C010E94D63F4B015C012AE0BC015F
:1021F000A4018CED94E4E1DE7C01E00EF11ECC2321
:10220000C9F1C501B4010E948C3D9B01AC01C30121
:10221000B2010E94013F4B015C0163E371E48CED6C
:1022200094E4BBDEE80EF91EC15020F120E030E05E
:1022300040E251E4C501B4010E94ED3D2B013C0197
:102240000E94D63F4B01B12CA12C2AE0B501A4017C
:102250008CED94E4B2DEE80EF91EC501B4010E94D3
:102260008C3D9B01AC01C301B2010E94013F4B01B7
:102270005C01DACFC701CF911F910F91FF90EF90D2
:10228000DF90CF90BF90AF909F908F907F906F9096
:102290005F904F900895CF93DF9321DFEC018CED99
:1022A00094E4CCDE8C0F9D1FDF91CF91089517CF62
:1022B000AF92BF92CF92DF92EF92FF920F931F9354
:1022C000CF93DF9300D0CDB7DEB76C015B0110E098
:1022D00000E00A151B05BCF57801EC0CFD1C85E13E
:1022E000F822E982FA82CE01019670DD803110F485
:1022F00080E3C2DA0F5F1F4FE982FA82CE010196B6
:1023000065DD482F50E070E060E020E18CED94E462
:1023100054DE6DE371E48CED94E43FDEC801877018
:102320009927892B29F46DE371E48CED94E435DE73
:10233000C8018F709927892B61F66CE870E18CEDEC
:1023400094E47CDAC6CF0F900F90DF91CF911F916C
:102350000F91FF90EF90DF90CF90BF90AF900895D6
:10236000CF92DF92EF92FF920F931F93CF93DF9361
:102370006FE670E183E795E461DA4091DB4450E079
:1023800070E060E02AE083E795E417DE6AE371E439
:1023900083E795E402DE40915E4050E070E060E04B
:1023A0002AE083E795E409DE8091DB44882309F481
:1023B00053C06BE570E183E795E443DE10E000E095
:1023C0008091DB448017110609F00CF445C06801C8
:1023D00083E0CC0CDD1C8A95E1F7F12CE12CC09157
:1023E000D944D091DA44CC0DDD1DCE0DDF1D88819E
:1023F000803128F469E570E183E795E41FDA4881CC
:1024000050E070E060E020E183E795E4D6DD67E529
:1024100070E183E795E412DA8FEFE81AF80A88E0B2
:10242000E816F104E1F6E091D944F091DA44EC0DBC
:10243000FD1D8681833029F46CE370E183E795E428
:10244000FDD983E795E4FADD65E070E080E090E097
:1024500072DA0F5F1F4FB4CF83E795E4EFDD61E2DF
:1024600070E183E795E4EAD98091D84465E371E4AB
:10247000882311F066E271E483E795E497DD67E174
:1024800070E183E795E4DDDD83E795E4D7DD65E082
:1024900070E080E090E0DF91CF911F910F91FF906D
:1024A000EF90DF90CF9047CADF92EF92FF920F93A9
:1024B0001F93CF93DF9320912446211106C0E92E6C
:1024C000D82E0E948F0981110FC0109222461092BF
:1024D00024461092234680E0DF91CF911F910F9107
:1024E000FF90EF90DF90089560E080EF0E945E091A
:1024F000D1E000E0F12CC1E00E943909182F0E94C0
:1025000039091130E1F48130C9F5C134F0F2F092AB
:102510002246F11003C081E08093244680911A4640
:10252000882399F2AAE1B6E4ED2DFE2DCF0108969D
:102530002D912193E817F907D9F781E0CDCFE02F4E
:10254000F0E0181311C080912246C817A8F4DF01EB
:10255000A95EB94B13968C918D2381F410E0C9309C
:1025600010F4C0932346FC2EE95EF94B83819D2F26
:102570009095892383830AC08C13F0CFE02FF0E07D
:10258000E95EF94B83818D2B838311E0812F0E94BB
:102590000509CF5FDD0F11F40F5FD1E0083008F4BB
:1025A000ABCFB3CF0F931F93CF93DF938091D544DD
:1025B000803109F071C088E20E94E30982FF44C0C3
:1025C00084E00E94ED090E94D80980E00E94CE09B3
:1025D00080E00E94CE09D82FC82F833408F0C2E4CF
:1025E000C0938F4480E00E94CE09082F80E00E94B3
:1025F000CE09182F80E00E94CE09282F30E0A901D3
:1026000096E0440F551F9A95E1F744275370402BED
:102610004093904450939144322F222722273370C5
:10262000212B20939244309393449091D644941755
:10263000150611F0452B11F4D330B8F410928F44E5
:102640000E94CC090E94060A8091D544803121F570
:1026500080918F44882311F184E00E94ED0981E08C
:10266000DF91CF911F910F910895C350C09394446F
:10267000807880938E44D0E0DC1728F480E00E94BC
:10268000CE09DF5FF9CF0E94CC0980E10E94ED09FD
:1026900084E20E94E309D8CF0E94060A80E0E0CFDE
:1026A0006DE175E08CED94E4CCDC67E175E08CEDD8
:1026B00094E4C4D880917D468B3209F460C186359C
:1026C00009F460C18B3509F460C190E080E0F6DC6C
:1026D0006AE075E08CED94E4B1D840917E4650E01C
:1026E00070E060E02AE08CED94E467DC62E075E085
:1026F0008CED94E4A3D880917F468F7390E0DEDC6C
:102700006FEF74E08CED94E499D88091814682510A
:10271000990BD4DC6AEF74E08CED94E492DC6DEEFE
:1027200074E08CED94E48DDC65EE74E08CED94E463
:1027300085D86091824670918346809184469091BD
:10274000854642E050E0A7DD69ED74E08CED94E44D
:1027500075D86091864670918746809188469091A1
:10276000894642E050E097DD60ED74E08CED94E442
:1027700065D860918E4670918F4680919046909179
:10278000914642E050E087DD66EC74E08CED94E425
:1027900055D860919246709193468091944690915D
:1027A000954642E050E077DD6DEB74E08CED94E40B
:1027B00045D8609196467091974680919846909141
:1027C000994642E050E067DD63EB74E08CED94E401
:1027D00035D860919A4670919B4680919C46909125
:1027E0009D4642E050E057DD6AEA74E08CED94E4E7
:1027F00025D860919E4670919F468091A046909109
:10280000A14642E050E047DD60EA74E08CED94E4DC
:1028100015D86091A2467091A3468091A4469091EC
:10282000A54642E050E037DD67E974E08CED94E4C2
:1028300005D86091A6467091A7468091A8469091D0
:10284000A94642E050E027DD6DE874E08CED94E4A9
:102850000E941E0C6091AA467091AB468091AC46D6
:102860009091AD4642E050E016DD64E874E08CEDF6
:1028700094E40E941E0C6091AE467091AF46809128
:10288000B0469091B14642E050E005DD6AE774E061
:102890008CED94E40E941E0C6091B2467091B34698
:1028A0008091B4469091B54642E050E0F4DC61E797
:1028B00074E08CED94E40E941E0C6091B646709119
:1028C000B7468091B8469091B94642E050E0E3DCCB
:1028D00067E674E08CED94E40E941E0C6091BA46A9
:1028E0007091BB468091BC469091BD4642E050E05D
:1028F000D2DC6CE574E08CED94E40E941E0C6091D7
:10290000BE467091BF468091C0469091C14642E05C
:1029100050E0C1DC62E574E08CED94E40E941E0C92
:102920008091C24690E0CFDB62E474E08CED94E4E9
:102930000E941E0C8091C3469091C446C4DB8091D6
:10294000804666E274E0882311F06DE274E08CED5D
:1029500094E477DB63E374E08CED94E40E941E0C56
:102960008091C54690E0AFDB8091DF4667E074E080
:10297000882311F067E174E08CED94E462CB81EB85
:1029800091E0A5CE84E693E0A2CE83E993E09FCECA
:102990000F931F93CF93DF93893208F07CC090E0B0
:1029A000DC01A157BF4B2C912F3F09F474C08C015F
:1029B00008541F4BE801E881D0E2ED9FF00111249B
:1029C000FC5F611133C0268330812323AC014F515A
:1029D0005F4B211111C0EA012881309749F128305D
:1029E00038F57096E20FF11D3FB7F8942081611120
:1029F00022C0277F20833FBFFA0130813F3F09F487
:102A00004AC0E8012881363058F53091E605432F59
:102A10004770241312C0EC91E53008F0EE0F80915E
:102A2000010AE095E823E093010A35C02583CCCF65
:102A3000F0E0E0E0D9CF2860DDCF387169F42130D3
:102A400079F4EC91E53008F0EE0F8091410AE095C1
:102A5000E823E093410A1FC0383111F4263089F38E
:102A60008A599F4BFC01808185FF13C030E1839F11
:102A7000F0011124F75F91819770973061F4EC9128
:102A8000853270F4803298F48830E1F2803121F29E
:102A900002C08111F4CFDF91CF911F910F91089562
:102AA000803471F08038B9F71092A006F4CF90E12D
:102AB000899FF0011124F75F81818F7E8183EBCFA5
:102AC0008091920B8E2339F3C0E22C9F9001112448
:102AD0003C5FE83030F5205F3F4FE20FF32FF11DF0
:102AE0004FB7F8949091800B9E7F9093800B9091BC
:102AF0008E0B90FFFCCF2091920B90E080959095EB
:102B000030E08223932328ED24BF8093920B8091A1
:102B1000800B81608093800B80818F7780834FBF93
:102B2000BACFF0E0E0E0DCCF0F931F93CF93DF93B9
:102B3000CDB7DEB72897CDBFDEBF2091D944309105
:102B4000DA44232B31F02091BD423091BE42232B39
:102B500061F41092D8441092DB442896CDBFDEBFBA
:102B6000DF91CF911F910F910895182F80915F40B1
:102B70000E94AB081093D844112309F496C020E0BA
:102B800030E040E85FE360912840709129408091F7
:102B90002A4090912B400E94883D87FF03C08FE11F
:102BA00080931A4000911A4090915E40E091BD429E
:102BB000F091BE4280E020E335E7981721F02193A1
:102BC00031938F5FFACF10922246109224461092D2
:102BD0002346109221461092204610921F461092D2
:102BE0001E4610921D4610921C4610921B461092D3
:102BF0001A461092DB44CE01019656DC882349F038
:102C000089818832C1F78091DB448F5F8093DB44F8
:102C1000F2CF80915E409091DB44891710F480934D
:102C2000DB44E091D944F091DA4480818832A1F00C
:102C300010E08091DB44181778F428E0129FC0015F
:102C400011242091D9443091DA44820F931F2CDC57
:102C5000882311F01F5FEDCF0E948F0960E08CEC9C
:102C60000E945E0960E08EE40E945E0960E080E000
:102C70000E945E0960E080E00E945E0960E0802FB3
:102C80000E945E090E948F0960E08CEC0E945E0940
:102C900061E088E40E945E0964E170E080E090E019
:102CA0000E949B0C0E94F20D58CF8091274087FD17
:102CB000F9CF8932A4F4282F082E000C330BF90128
:102CC000E157FF4B90819F3F51F028543F4BD90172
:102CD000EC91B0E2EB9FF0011124FC5F918360E086
:102CE00057DE809127408932E8F690E0FC01E157F9
:102CF000FF4B20812F3FB1F2FC01E854FF4BA08134
:102D0000E0E2AE9FD0011124BC5F8F519F4BFC01CC
:102D10003081F0E0E0E0383028F4CD014096FC014D
:102D2000E30FF11D9FB7F89412962C938081877F53
:102D300080839FBFB7CF0F931F93CF93DF93CDB700
:102D4000DEB72C97CDBFDEBF681BF1F0062F10E079
:102D5000682F70E06B567B4BA801CE0101960E9454
:102D60005141E1E0F0E0EC0FFD1FE00FF11F108298
:102D7000CE0101960E94EE3B2C96CDBFDEBFDF91C7
:102D8000CF911F910F91089590E080E0F5CF0F93C0
:102D90001F93CF93DF93CDB7DEB72C97CDBFDEBFA8
:102DA000681BF1F0062F10E0682F70E06B567B4B2C
:102DB000A801CE0101960E945141E1E0F0E0EC0F44
:102DC000FD1FE00FF11F1082CE0101960E94EB3B28
:102DD0002C96CDBFDEBFDF91CF911F910F9108954B
:102DE00060E070E0CB01F4CF4F925F926F927F92E0
:102DF0008F929F92AF92BF92CF92DF92EF92FF920B
:102E0000CF93DF93C82FE0901840F0901940609165
:102E100044407091454090E080E00E948C3D2B0141
:102E20003C0180914A4090914B4001968E9DB001AB
:102E30008F9D700D9E9D700D1124072E000C880B28
:102E4000990B0E948E3D2BED3FE049EC50E40E942F
:102E5000ED3DA30192010E94ED3D20E034E244E704
:102E600059E40E94693F4B015C01D0E0CE0101961C
:102E70008E9DB0018F9D700D9E9D700D1124072EAB
:102E8000000C880B990B0E948E3DA30192010E94B9
:102E9000ED3D20E034E244E759E40E94693F6B01D4
:102EA0007C01CC0FDD1FCC0FDD1FFE01E050F04C8C
:102EB00020E030E044EB53E46081718182819381B2
:102EC0000E94693F9B01AC01C701B6010E94023F0D
:102ED0002BED3FE049EC50E40E94ED3D2B013C011D
:102EE0000E9491406B017C01C501B4010E94914098
:102EF0009B01AC01C701B6010E94693F6B017C01D7
:102F0000FE01E952FD4BC082D182E282F382C3010D
:102F1000B2010E94663F2B013C01C501B4010E9431
:102F2000663F9B01AC01C151DD4BC701B6010E9458
:102F3000ED3D9B01AC01C301B2010E94013F6883DA
:102F400079838A839B83DF91CF91FF90EF90DF900D
:102F5000CF90BF90AF909F908F907F906F905F9039
:102F60004F900895CF938093444090934540BC0187
:102F700090E080E00E948C3D2091284030912940D3
:102F800040912A4050912B400E94ED3D0E94D63F37
:102F90006093D9417093DA410E94F20DC0E08091B4
:102FA0004A4090914B40C817190624F48C2F1CDF1F
:102FB000CF5FF5CFCF9108954F925F926F927F923E
:102FC000AF92BF92CF92DF92EF92FF920F931F9337
:102FD000CF93DF93E82FCB01BA0168017901F0E0CC
:102FE000E85DFB4B108124E0129FE0011124FE01FB
:102FF000E45DFF4B5F0120912340309124404091DC
:103000002540509126400E94ED3D2B013C016091EE
:1030100027467091284690E080E00E948C3D9B01FD
:10302000AC01C301B2010E94693FF5016083718365
:1030300082839383C050D04CC882D982EA82FB82BB
:10304000812FDF91CF911F910F91FF90EF90DF9033
:10305000CF90BF90AF907F906F905F904F90C4CE15
:103060002F923F924F925F926F927F928F929F9298
:10307000AF92BF92CF92DF92EF92FF920F931F9386
:10308000CF93DF93CDB7DEB7AF97CDBFDEBF84E080
:103090008093210461E08AE07BDC9FB7F89480E1B3
:1030A00080930204809114048860809314049FBF6D
:1030B0009FB7F89480E280930204809115048860A1
:1030C000809315049FBF40E052EC61E070E08CED0E
:1030D00094E40E94C40F8091080484FD05C080918F
:1030E0007F468F5F80937F4662EE73E08CED94E4C1
:1030F0000E941E0C60E571E48CED94E40E94D60FF2
:103100006CEC73E08CED94E40E94211086E190E079
:103110000E94150F882341F1CE0101960E94ED0E09
:1031200009811A8117FD20C0680123E0C20ED11C5D
:103130004DE7E42E46E4F42E87E090E05C013FEF9B
:10314000A31AB30A8EA79FA7CE018E960E94E60E01
:10315000D7018D937D01C501AC14BD0478F36EE5F4
:1031600073E00430110511F46DE473E08CED94E428
:103170000E94211095DA80918046882309F45AC074
:1031800063EC73E08CED94E40E941E0C6BEB73E037
:103190008CED94E40E941E0C80917D468B3231F4BC
:1031A00064EB73E08CED94E40E941E0C80917D46EC
:1031B000863531F46DEA73E08CED94E40E941E0CC8
:1031C00080917D468B3531F466EA73E08CED94E4B2
:1031D0000E941E0C6DE973E08CED94E40E941E0CBD
:1031E00040917E4650E070E060E02AE08CED94E48F
:1031F0000E94DD0F65E973E08CED94E40E941E0CE3
:1032000040917F4650E070E060E02AE08CED94E46D
:103210000E94DD0F63E973E08CED94E40E942110BD
:1032200068E571E48CED94E40E94CD0F8CED94E49C
:103230000E941E108091080485FD03C081E08093E8
:10324000D24180918046882309F403C110917E46C3
:1032500080917F468093D6441092D74480E2809339
:10326000210481E08093410484E0809341040E9422
:10327000CC098091E405837F8093E4058091610906
:103280008460809361098091600981628093600904
:103290000E94CC0C6B017C016AEA8FE20E94DA0981
:1032A0008FE20E94E3098A3A59F00E94CC0C6C1913
:1032B0007D098E099F09623371058105910560F3CF
:1032C0000E94CC0C6B017C0165E58FE20E94DA095B
:1032D0008FE20E94E309853559F00E94CC0C6C19ED
:1032E0007D098E099F09623371058105910560F39F
:1032F000FE0133968BE2DF011D928A95E9F781E0AA
:10330000898384E08A8322E02B8393E09D832E834C
:103310008F8380E4888725E029879A8796E09B87BA
:1033200093E39C8797E09D872CE62E8728E02F87E4
:10333000888B29E0298B29E12B8B22E42C8B35E229
:103340003D8B8E8B86E28F8B988F88E2898F90E100
:103350009A8F89E28B8F8CED8C8F8EE28D8F88E82F
:103360008E8F8FE28F8F8DE288A380E389A337E36E
:103370003BA330E93CA338E33DA32EA32CE32FA3CA
:103380002FE828A72DE329A79AA79FE69BA78CA73C
:103390001AA38E010F5F1F4FF8018081882331F03F
:1033A00061810E94DA090E5F1F4FF6CF69E981E162
:1033B0000E94DA0984E00E94ED090E94CC0C6B01A6
:1033C0007C0187E20E94E30987FD0BC00E94CC0CC0
:1033D0006C197D098E099F0962337105810591057C
:1033E00080F30E94CC0C84E00E94ED090E94D80971
:1033F0008EEB0E94CE090FE311E43FE4E32E31E4AB
:10340000F32ED8018D918D010E94CE09E016F106B0
:10341000C1F70E94CC098DE30E94E309682F616027
:103420008DE30E94DA0920917F46B4E12B9F800151
:10343000112460E070E0CB010115110541F00E94FC
:10344000963B9801110F440B550B0E94A43E0E941D
:103450009B0C8EE080930506809103068093030603
:103460001092B00086E08093020681E0809300060F
:10347000809100068093000687E08093080660E054
:1034800070E0CB0150E040E021E020930A0630914B
:103490000D0630FFFCCF4A30510544F0E091100694
:1034A000F09111066E0F7F1F811D911D4F5F5F4FC1
:1034B0004A31E7E25E0749F70E948C3D20E030E4A4
:1034C0004CE156E40E94693F20E030EF4FE755E4BD
:1034D0000E94693F9B01AC0166E676E686E69FE3C3
:1034E0000E94693F6B017C0163E773E08CED94E41B
:1034F0000E941E0C44E050E0C701B6010E944B112F
:103500008CE090E080936040909361408DE190E08A
:10351000809318409093194080E090E18093274673
:103520009093284680E890E0809325469093264625
:10353000C0922340D0922440E0922540F092264051
:103540008091824690918346A0918446B0918546B1
:1035500010921C408093464090934740A09348406F
:10356000B093494000919246109193462091944621
:103570003091954640918E4650918F46609190468D
:103580007091914683E00E94AD0E00919A46109191
:103590009B4620919C4630919D4640919646509185
:1035A0009746609198467091994684E00E94AD0ECE
:1035B0000091A2461091A3462091A4463091A546C1
:1035C00040919E4650919F466091A0467091A146C1
:1035D00085E00E94AD0E0091AA461091AB46209165
:1035E000AC463091AD464091A6465091A7466091B9
:1035F000A8467091A94686E00E94AD0E0091B246A1
:103600001091B3462091B4463091B5464091AE46F4
:103610005091AF466091B0467091B14688E00E94EB
:10362000AD0E0091BA461091BB462091BC46309138
:10363000BD464091B6465091B7466091B8467091EC
:10364000B94689E00E94AD0E8091D241882319F0DD
:103650008CE390E087DC6091BE467091BF4680911C
:10366000C0469091C1460E94640E8091864690911A
:103670008746A0918846B091894680934C409093AC
:103680004D40A0934E40B0934F408091C2468093EE
:10369000294681E080932A4686E080932D468093D8
:1036A0002E468091C3469091C446092E000CAA0B69
:1036B000BB0B80932F4690933046A0933146B09336
:1036C00032468CE080935F408BE08093274088E017
:1036D0008093210461E08BE05BD98FE580931A40F1
:1036E00086EC96E48093D9449093DA441092C646CF
:1036F00084E594E48093BD429093BE4283E080933E
:103700005E40E0907546F0907646E114F10409F4CD
:10371000A0C087010F5F1F4F25E5C22E26E4D22EE1
:1037200080917346909174468E0D9F1D081719075E
:1037300074F4C801957189839A83CE0101960E9421
:10374000E60ED6018D936D010F5F1F4FE9CF0091FB
:1037500055461091564620915746309158468091D3
:10376000594690915A46A0915B46B0915C46409074
:103770005D4650905E4660905F46709060468090D7
:10378000614690906246A0906346B0906446209057
:10379000654630906646F0916746E0916846C09075
:1037A0006946D0906A46E0906B46F0906C46722D68
:1037B000632DAF010093F3431093F4432093F5433B
:1037C0003093F6438093F7439093F843A093F943E3
:1037D000B093FA434092FB435092FC436092FD4306
:1037E0007092FE438092FF4390920044A092014465
:1037F000B09202442092034430920444F093054472
:10380000E0930644C0920744D0920844E0920944F1
:10381000F0920A4470933346609334465093354691
:10382000409336468091C5467FD98091D341882305
:1038300041F1282F30E020934A4030934B408F5F76
:1038400090E08630F0F4FC01E152FC4B10820196CE
:10385000F8CF00E010E0980180E090E0DC01412C1E
:10386000512C3201812C912C5401212C312CF0E06F
:10387000E0E0C12CD12C760170E060E050E040E047
:1038800099CF409023405090244060902540709004
:103890002640609127467091284690E080E00E9483
:1038A0008C3D4B015C012091464030914740409156
:1038B000484050914940C301B2010E94ED3DA5012D
:1038C00094010E94693F6093464070934740809303
:1038D0004840909349408CE2E82E80E4F82E9FEB1C
:1038E000C92E92E4D92E10E000E080914A409091D8
:1038F0004B40081719071CF5F701219131914191AF
:1039000051917F011F01F4E02F1A3108C301B20168
:103910000E94ED3DA50194010E94693FD1016D9384
:103920007D938D939C931397802F5EDAF60111920D
:103930001192119211926F010F5F1F4FD6CF8EEE31
:103940009DE080932B4690932C4680EF9DE08093E2
:1039500041469093424681E080931B401092B242D0
:103960001092B3421092B4421092B5429EE09093EE
:10397000050690910306909303061092B00096E01E
:1039800090930206809300069091000690930006A3
:103990009091000692609093000610920806909114
:1039A0000C06916090930C0680930A067894C09060
:1039B0002840D0902940E0902A40F0902B40609120
:1039C00044407091454090E080E00E948C3DA7010A
:1039D00096010E94ED3D0E94D63F6093D9417093BD
:1039E000DA411092E54320E034E244E759E4C701AC
:1039F000B6010E94ED3D6B017C0160911840709111
:103A00001940072E000C880B990B0E948E3D9B01DC
:103A1000AC01C701B6010E94693F0E94D63F609386
:103A20000743709308438093094390930A4309E244
:103A300016E4F12CD8018C918823A9F114968C916D
:103A4000893228F590E0FC01E157FF4B20812F3FA0
:103A5000F1F0FC01E854FF4BA081E0E2AE9FD00101
:103A60001124BC5F8F519F4BFC013081F0E0E0E0FE
:103A7000383028F4CD014096FC01E30FF11D9FB7CB
:103A8000F89412962C938081886080839FBF60EFAA
:103A90007DE080914446F11004C06EEE7DE080919F
:103AA0002E460E947C080A5E1F4FF1E0FF1226C0DE
:103AB00010925A4410925B4410925C4410925D4400
:103AC0000E94B01160E070E080E090E40E94640E1B
:103AD000AF96CDBFDEBFDF91CF911F910F91FF90C9
:103AE000EF90DF90CF90BF90AF909F908F907F909E
:103AF0006F905F904F903F902F900895FF24F39424
:103B000099CFEF93FF93ECEDF4E415C0EF93FF939F
:103B1000ECEDF4E43FC0EF93E0E660C0EF93FF9379
:103B2000E3E7F5E408C0EF93FF93E3E7F5E432C081
:103B3000EF93E0E053C02F932FB72F938F939F9372
:103B4000AF93BF936894CF93DF9320E0C485D8E010
:103B50009689DF01A90FB21FA95ABF4F8C9120E4AB
:103B60002C838A839F5F9F738D812589291302C0CF
:103B70008F7D8D83968BDF91CF9116F00C94D10BB6
:103B8000BF91AF919F918F912F912FBF2F91FF9157
:103B9000EF9118952F932FB72F938F939F93CF93D8
:103BA000DF93C485D8E08981988181FD0DC0C389E8
:103BB00081E08C0F8F732489281731F0CE0FDF2F0F
:103BC00020E0D21F9F8B838BDF91CF919F918F91AC
:103BD0002F912FBF2F91FF91EF911895FF938F9306
:103BE0008FB78F93F8E08081848187FFFCCF858138
:103BF0008F7B806885838F918FBF8F91FF91EF912D
:103C000018951F920F920FB60F9211248F939F93C6
:103C1000AF93BF938091B7429091B842A091B942BF
:103C2000B091BA420196A11DB11D8093B742909305
:103C3000B842A093B942B093BA4281E08093260B78
:103C4000BF91AF919F918F910F900FBE0F901F90DA
:103C500018950F930AE00FC00F9308E00CC00F9364
:103C600006E009C00F9304E006C00F9302E003C012
:103C70000F9300E000C00F920FB60F920BB60F9299
:103C80001F921124FF921F932F933F934F935F93A3
:103C90006F937F938F939F93AF93BF93CF93DF9354
:103CA000EF93FF93A0E5B0E4A00FB11DCD91DC919F
:103CB000000F0D5FA02FB0E0FC90109761F01F2D5A
:103CC000169518F041F02296FBCFE991F9913097C3
:103CD000B9F30995F5CFA02FB0E0FC92FF91EF91D9
:103CE000DF91CF91BF91AF919F918F917F916F9114
:103CF0005F914F913F912F911F91FF901F900F90D7
:103D00000BBE0F900FBE0F900F9118951F920F9240
:103D10000FB60F9211240BB60F922F923F924F9233
:103D20005F926F927F928F929F92AF92BF92CF924B
:103D3000DF92EF92FF920F931F932F933F934F9336
:103D40005F936F937F938F939F93AF93BF93CF9323
:103D5000DF93EF93FF9381E080930D064090100670
:103D600050901106C091B642E2E0EC0F20914A401B
:103D700030914B40E217130621F01CF0E1E0EC0F0C
:103D8000E21BF0E0E45EFF4B8081809308068091A7
:103D9000B2429091B342A091B442B091B542019623
:103DA000A11DB11D8093B2429093B342A093B4423F
:103DB000B093B542C1113DC48091B0429091B142DF
:103DC0008093AE429093AF428091274690912846CF
:103DD00096958795481A590A4092B0425092B1423E
:103DE0008091AC429091AD42AC0156954795569565
:103DF0004795841B950BA20157FE04C04427552705
:103E000044195509840F951F8093AC429093AD429D
:103E1000E0912546F091264641E0E817F90708F0C1
:103E200040E040930B44141415040CF08EC041E0A4
:103E300050E04093AA425093AB42A091AA42B09165
:103E4000AB424091944250919542A417B50709F4B2
:103E500081C06091D4416F5F6093D4416091D4413F
:103E6000633030F01092D441A0939642B0939742C1
:103E70006091DF4161111092DF4160909642709035
:103E80009742E817F90708F06BC281E068167104E1
:103E900009F0C2C14130510509F4C4C18091DD412E
:103EA0009091DE4101968093DD419093DE414091F7
:103EB0001B40442309F471C00A9708F46EC01092A5
:103EC0001B401092DD411092DE41C8E5D2E4A8E229
:103ED000B2E468EF71E440EE51E490E080E08217D4
:103EE0009307DCF5188219821A821B821C821D82BC
:103EF0001E821F8228961C9211961C921197129670
:103F00001C92129713961C92139714961C92149756
:103F100015961C92159716961C92169717961C923A
:103F200017971896FB011082118212821382148255
:103F3000158216821782685F7F4FFA0111921192E3
:103F400011921192AF010196CACF1092AA4210921B
:103F5000AB4273CF1092D44181CF10929C42109209
:103F60009D4210929E4210929F421092A042109247
:103F7000A1421092A2421092A34210929842109233
:103F8000994210929A4210929B421092A64210922D
:103F9000A7421092A8421092A9428091DD419091CF
:103FA000DE414091DB415091DC418417950739F4A3
:103FB00040911B40411103C041E04093E6434091D2
:103FC000D9415091DA418417950708F42BC18091AB
:103FD0001B40811127C11092DD411092DE41C8E5DE
:103FE000D2E4A8E2B2E418EF212E11E4312E60EE03
:103FF00071E450E040E0421753070CF09BC088800A
:104000009980AA80BB80CC80DD80EE80FF802896DE
:10401000CA01E3E0880F991FEA95E1F78C01015589
:104020001C4BF80180829182A282B382C482D58225
:10403000E682F7828C9011969C9011971296AC9024
:1040400012971396BC9013971496CC9014971596CC
:10405000DC9015971696EC9016971796FC9017978C
:1040600018968C0101581C4BF80180829182A28223
:10407000B382C482D582E682F7828E01085011098C
:10408000F801108211821282138214821582168224
:1040900017828D0108501109F801108211821282D5
:1040A00013821482158216821782F101808091801A
:1040B000A280B380C480D580E680F780F8E02F0E20
:1040C000311C8C01015B1C4BF80180829182A28221
:1040D000B382C482D582E682F78281010850110939
:1040E000F8011082118212821382148215821682C4
:1040F0001782FB0181909190A190B190BF01750151
:104100006401FF0CCC08DC2C7601815E9C4BFC0129
:1041100080829182A282B382C482C582C682C78213
:10412000CB010497FC0110821182128213824F5F2F
:104130005F4F61CF8091984290919942A0919A42AD
:10414000B0919B42AC01BD01770F440B542FBA01D3
:1041500080930B4390930C43A0930D43B0930E4375
:1041600040930F43409310434093114340931243B5
:1041700070919C4260919D4250919E4240919F421D
:104180003091A0422091A1429091A2428091A342FD
:1041900070931743609318435093194340931A4305
:1041A00030931B4320931C4390931D4380931E43E5
:1041B00010929C4210929D4210929E4210929F42F9
:1041C0001092A0421092A1421092A2421092A342D9
:1041D000109298421092994210929A4210929B42E9
:1041E0008091A6429091A742A091A842B091A94285
:1041F0008093134390931443A0931543B0931643B5
:104200001092A6421092A7421092A8421092A94280
:1042100081E08093E54306C0452B21F01092A44233
:104220001092A5428091A6429091A742A091A842E7
:10423000B091A9420196A11DB11D8093A642909311
:10424000A742A093A842B093A9428091A442909122
:10425000A54201968093A4429093A5429201D20177
:104260000E9431416B017C01FF0CCC08DC2C7601F3
:104270009B01AC016C2D7C2D8C2D9C2DA0909C4223
:10428000B0909D42C0909E42D0909F42E090A0424C
:10429000F090A1420091A2421091A3420E943D41A0
:1042A00020939C4230939D4240939E4250939F4264
:1042B0006093A0427093A1428093A2429093A34244
:1042C000C201550CAA0BBB0B4091984250919942E8
:1042D00060919A4270919B42840F951FA61FB71F51
:1042E0008093984290939942A0939A42B0939B42B4
:1042F00060929442709295428091B6428F5F809313
:10430000B64220914A4030914B408217130619F073
:1043100014F01092B642FF91EF91DF91CF91BF91CF
:10432000AF919F918F917F916F915F914F913F914D
:104330002F911F910F91FF90EF90DF90CF90BF9042
:10434000AF909F908F907F906F905F904F903F9035
:104350002F900F900BBE0F900FBE0F901F901895CF
:104360004091B2425091B3426091B4427091B542D3
:104370008091D5419091D641A091D741B091D8413B
:1043800084179507A607B70748F48091BC428111AE
:1043900005C081E08093E6438093BC424091B242E5
:1043A0005091B3426091B4427091B54280910743FD
:1043B00090910843A0910943B0910A43841795074F
:1043C000A607B70708F02ECF1092B2421092B34260
:1043D0001092B4421092B54281E080931B4010923B
:1043E000DD411092DE41C8E5D2E418E2212E12E44C
:1043F000312EE8EFF1E460EE71E450E040E0421766
:1044000053070CF0C5C0CA01A3E0880F991FAA95F5
:10441000E1F78C0101551C4BD8011C9211961C929E
:10442000119712961C92129713961C92139714963A
:104430001C92149715961C92159716961C92169717
:1044400017961C928C0101581C4BD8011C92119696
:104450001C92119712961C92129713961C92139706
:1044600014961C92149715961C92159716961C92EA
:10447000169717961C92188219821A821B821C8228
:104480001D821E821F822896D1011C9211961C92B9
:10449000119712961C92129713961C9213971496CA
:1044A0001C92149715961C92159716961C921697A7
:1044B00017961C92B8E02B0E311C80809180A28050
:1044C000B380C480D580E680F78038968C01015B8C
:1044D0001C4BD8018C9211969C9211971296AC921B
:1044E00012971396BC9213971496CC921497159624
:1044F000DC9215971696EC9216971796FC927F0110
:10450000B8E0EB1AF108D7011C9211961C92119792
:1045100012961C92129713961C92139714961C9243
:10452000149715961C92159716961C921697179627
:104530001C92DB018D909D90AD90BD90BD017501E9
:104540006401FF0CCC08DC2C7601815E9C4BDC0105
:104550008C9211969C9211971296AC921297139688
:10456000BC9213971496CC9214971596CC921597EB
:104570001696CC9216971796CC92CB010497DC0135
:104580001D921D921D921C9213974F5F5F4F37CF64
:1045900070919C4260919D4250919E4240919F42F9
:1045A0003091A0422091A1429091A2428091A342D9
:1045B00070931743609318435093194340931A43E1
:1045C00030931B4320931C4390931D4380931E43C1
:1045D00010929C4210929D4210929E4210929F42D5
:1045E0001092A0421092A1421092A2421092A342B5
:1045F0008091984290919942A0919A42B0919B42A9
:10460000AC01BD01770F440B542FBA0180930B43CB
:1046100090930C43A0930D43B0930E4340930F43EC
:10462000409310434093114340931243D1CD1082E5
:10463000B0C0D0E02C173D070CF45ECE2197FE01F0
:10464000E152FC4B1E01220C331CB6E04B16510408
:1046500074F381E080838091274690912846969557
:104660008795F101E857FD4B60807180681A790ADF
:104670004E0133E0880C991C3A95E1F7F401E85AB1
:10468000FD4BA091AE42B091AF4293010E943141E7
:104690006B017C01FF0CCC08DC2C76019B01AC018A
:1046A0006C2D7C2D8C2D9C2DA080B180C280D38060
:1046B000E480F580068117810E943D41208331838B
:1046C000428353836483758386839783F401E85D13
:1046D000FD4BA091B042B091B14293010E94314193
:1046E0006B017C01FF0CCC08DC2C76019B01AC013A
:1046F0006C2D7C2D8C2D9C2DA080B180C280D38010
:10470000E480F580068117810E943D41208331833A
:10471000428353836483758386839783F401E850CF
:10472000FE4B9301D3010E9431416B017C01FF0CD0
:10473000CC08DC2C76019B01AC016C2D7C2D8C2DE2
:104740009C2DA080B180C280D380E480F58006815A
:1047500017810E943D4120833183428353836483C8
:10476000758386839783CC0FDD1FCC0FDD1FC0526E
:10477000DE4BC301770CAA0BBB0B488159816A81C0
:104780007B81840F951FA61FB71F88839983AA83F7
:10479000BB83F101E857FD4B40825182ADCDCF92F2
:1047A000DF92EF92FF920F931F93CF93DF9300D08E
:1047B000CDB7DEB71092DE441092DF44F8EECF2E74
:1047C000F3E0DF2EE12CF12CC092E044D092E144E2
:1047D000E092E244F092E3444EE051E44093DC4442
:1047E0005093DD4480E698E08093E8449093E94458
:1047F0008EE890E18093EA449093EB4482E08093CA
:10480000EC441092ED441092EE44109275451092D3
:104810007645C0927745D0927845E0927945F092FE
:104820007A45409373455093744540E058E0409377
:104830007F455093804547E950E14093814550932F
:10484000824580938345109284451092854540E0CF
:104850005BE167EB70E080E08F5F863011F487E00A
:104860000BC07695679557954795413099E0590764
:104870009DE36907710580F794E090931646482FF1
:104880004095242F217030E044E0220F331F4A95D9
:10489000E1F731E08162822B8093154640E459E0D4
:1048A00040930A4650930B4690930D4686E08093C2
:1048B0000E46109210461092114610922946109200
:1048C0002A4623E020932D4630932E468EE690E034
:1048D000A0E0B0E080932F4690933046A0933146FD
:1048E000B0933246109233461092344610923546B9
:1048F000109236461092374610923846109239463A
:1049000010923A4610923F461092404620934346FA
:10491000309344468093454690934646A09347463D
:10492000B09348461092494610924A4610924B4620
:1049300010924C4610924D4610924E4610924F46A1
:104940001092504681E090E00090604002C0880FD5
:10495000991F0A94E2F7809327469093284655E0E2
:10496000969587955A95E1F780932546909326462C
:1049700080915F400E94AB088EEF90E08093774675
:10498000909378468DE190E08093734690937446BF
:104990008DE090E0809371469093724686E890E0B7
:1049A0008093794690937A468FEF91E080937B468F
:1049B00090937C46109275461092764606E810E079
:1049C00009831A83CE0101960E94E60E78019DE1CB
:1049D000E90EF11C8F3F09F4E0C000937546109377
:1049E00076468FEFE81681E0F8065CF4E982FA82F9
:1049F000CE0101960E94E60E8F3F09F4CAC00E94C4
:104A0000980F8BE280937D4682ED80937E468FE007
:104A100080937F4621E02093804689E18093814600
:104A20008AE097EFA9E4B4E48093824690938346AA
:104A3000A0938446B093854680E090E0A0E7B3E47D
:104A40008093864690938746A0938846B093894684
:104A500080E090E0A8E4B2E480938A4690938B468D
:104A6000A0938C46B0938D4686E696E2A6E9B3E421
:104A700080938E4690938F46A0939046B093914634
:104A80008DEC9CECACE4B0E480939246909393461A
:104A9000A0939446B093954646E656E266E173E4E9
:104AA00040939646509397466093984670939946E4
:104AB00080939A4690939B46A0939C46B0939D46C4
:104AC00040939E4650939F466093A0467093A146A4
:104AD0008093A2469093A346A093A446B093A54684
:104AE00041E75DE360E772E44093A6465093A74632
:104AF0006093A8467093A9468093AA469093AB46CC
:104B0000A093AC46B093AD464093AE465093AF46AB
:104B10006093B0467093B1468093B2469093B3468B
:104B2000A093B446B093B5464093B6465093B7466B
:104B30006093B8467093B9468093BA469093BB464B
:104B4000A093BC46B093BD468DEC9CECACE1B1E4C7
:104B50008093BE469093BF46A093C046B093C14693
:104B60002093C24684E690E08093C3469093C44667
:104B70002093C5461092DE461092DF460F900F90AC
:104B8000DF91CF911F910F91FF90EF90DF90CF9029
:104B900008959DE1E90EF11C24CF87018FEFE816FF
:104BA00081E0F80609F00CCF2CCFCF93DF93CDB77F
:104BB000DEB7CB5BD109CDBFDEBF88ED94E284BF09
:104BC0009093680021E02093030A8EEF8093260AD9
:104BD0008093270A9BE09093000A32E03093E60529
:104BE0002093430A8093660A8093670A9093400A51
:104BF0009093E705E0E0FBE027E09EEF85E021836E
:104C00009487158680837096E0343BE0F307B9F70C
:104C10002FEF3FE02093AA0B3093AB0B90E89093DB
:104C2000820B1092810B2BEF33E02093AE0B30936D
:104C3000AF0B91E79093800B809302069EE09093D8
:104C4000050690E690930306809300068091B000DD
:104C5000887F85608093B0008091B200887F8560F6
:104C60008093B2008FED9EE280932C0B90932D0BDE
:104C700081E08093250B1092210B83E08093200B21
:104C800078940E9430181E0145E3240E311CBE01A9
:104C9000665F7F4F6FAB78AF8CED94E40E947E0A25
:104CA000892B09F498C08CED94E40E945C0AD090A2
:104CB000BB428A3009F06EC5AD2DB0E0AB56BB4BA0
:104CC0001C92E0919544EF53EC3308F07CC00E2E1B
:104CD000000CFF0BE259F94D0C942841B12BE3264F
:104CE000E326E326E326E326E326E326E326E3267C
:104CF000E326E326E326E326E326E326E326E3266C
:104D0000E326E326E326E326E326E326E326E3265B
:104D1000E326E326E326E326E326E326E326E3264B
:104D2000E326AA26D626A227B727C027D727E32619
:104D3000C3299227F22757296029C329E326DD29B1
:104D4000E326F329222AF32AE326532B5F2B752B24
:104D5000E3267C2B72E0D71236C086E994E40E94E9
:104D6000EE3B843071F48BE280937D4681EB91E0E1
:104D70000E945E106FE67EE08CED94E40E942110AC
:104D800022C0883069F0893029F010927D4690E089
:104D900080E0EECF8BE580937D4683E993E0E8CF1A
:104DA00086E580937D4684E693E0E2CF82E0D812E8
:104DB0000AC086E994E40E94EE3B019709F0AFC077
:104DC00081E08093DE4680E4A5E9B4E41D928A95F3
:104DD000E9F71092BB428091E643882369F1109273
:104DE000E6438091D844882339F18091274087FD9C
:104DF00019C08932A4F4282F082E000C330BF901B6
:104E0000E157FF4B90819F3F51F028543F4BD90110
:104E1000EC91B0E2EB9FF0011124FC5F918361E023
:104E20000E94C8140E948F0960E08CEC0E945E0909
:104E300061E084E40E945E098091E543882311F4D7
:104E40000C94C2381092E543F89420914A40309176
:104E50004B4090E080E0821793070CF0A8C4FC015F
:104E6000E152FC4B4081411158C0FC0173E0EE0F50
:104E7000FF1F7A95E1F7DF01A155BC4B1C921196FB
:104E80001C92119712961C92129713961C921397CC
:104E900014961C92149715961C92159716961C92B0
:104EA000169717961C92DF01A158BC4B1C921196C5
:104EB0001C92119712961C92129713961C9213979C
:104EC00014961C92149715961C92159716961C9280
:104ED000169717961C92DF01A15BBC4B1C92119692
:104EE0001C92119712961C92129713961C9213976C
:104EF00014961C92149715961C92159716961C9250
:104F0000169717961C92E15EFC4B1082118212825A
:104F10001382148215821682178201969CCF1092FA
:104F2000DE4651CF92E0D9124ECF86E994E40E943A
:104F3000EE3B019721F481E08093DF4644CF10924D
:104F4000DF4641CF86E994E40E94EB3B6B017C0194
:104F50006EE57EE08CED94E40E941E0C42E050E091
:104F6000C701B6010E9457116BE57EE005CF8AE0CC
:104F70008C9366E974E48CED94E40E94D60F23CF01
:104F8000A3E0DA1220CF86E994E40E94EB3B0E9472
:104F9000D13F6B01CB010E94B21764E57EE08CED3E
:104FA00094E40E941E0CC6010E9463100CCF86E997
:104FB00094E40E94EE3B80937E466DE47EE08CEDAF
:104FC00094E40E941E0C40917E4650E070E060E048
:104FD0002AE08CED94E40E94DD0F8CED94E40E94B5
:104FE0001E10F1CE60E270E085E994E40E94464133
:104FF000009711F40C94393B8C0105591444C801F5
:10500000992760E270E08A569B4B0E944641CC246F
:10501000C394C00E009711F40C94403BFC01E55979
:10502000F4445F01602F81E00E949B167C016A2D91
:105030008C2D0E94C7162B013C016D2D81E08A0D3D
:105040000E94C71621966CAF7DAF8EAF9FAF2197A0
:10505000F7E0EF16F10408F038C0F701EE5CF74D09
:105060000C94284139288B28AD28CF28F128132902
:105070003529209123403091244040912540509182
:105080002640C301B2010E94ED3D4B015C016091DD
:1050900027467091284690E080E00E948C3D9B015D
:1050A000AC01C501B4010E94693F60934640709312
:1050B00047408093484090934940409282465092A6
:1050C0008346609284467092854666E47EE08CED6D
:1050D00094E40E941E0CC7010E945E1064E47EE00E
:1050E0008CED94E40E941E0C42E050E0C301B2013A
:1050F0000E94571162E47EE08CED94E40E941E0C45
:1051000042E050E021966CAD7DAD8EAD9FAD219714
:105110000E944B1158CE21960CAD1DAD2EAD3FAD6A
:105120002197B301A20183E00E94DC1740928E46D2
:1051300050928F46609290467092914621968CAC28
:105140009DACAEACBFAC21978092924690929346B4
:10515000A0929446B0929546B8CF21960CAD1DAD65
:105160002EAD3FAD2197B301A20184E00E94DC1770
:105170004092964650929746609298467092994611
:105180002196ACACBDACCEACDFAC2197A0929A46D8
:10519000B0929B46C0929C46D0929D4696CF219657
:1051A0000CAD1DAD2EAD3FAD2197B301A20185E041
:1051B0000E94DC1740929E4650929F466092A04605
:1051C0007092A14621968CAC9DACAEACBFAC219741
:1051D0008092A2469092A346A092A446B092A54681
:1051E00074CF21960CAD1DAD2EAD3FAD2197B3010F
:1051F000A20186E00E94DC174092A6465092A74684
:105200006092A8467092A9462196ACACBDACCEACDB
:10521000DFAC2197A092AA46B092AB46C092AC46B2
:10522000D092AD4652CF21960CAD1DAD2EAD3FAD07
:105230002197B301A20188E00E94DC174092AE469C
:105240005092AF466092B0467092B14621968CACB7
:105250009DACAEACBFAC21978092B2469092B34663
:10526000A092B446B092B54630CF21960CAD1DAD9C
:105270002EAD3FAD2197B301A20189E00E94DC175A
:105280004092B6465092B7466092B8467092B94680
:105290002196ACACBDACCEACDFAC2197A092BA46A7
:1052A000B092BB46C092BC46D092BD460ECFBB2446
:1052B000B394DB1088CD0E9450130E94B01183CDAF
:1052C00060E270E085E994E40E9446410097F9F4B9
:1052D0006D2D81E00E949B168C010115110571F165
:1052E0000130110599F169E37EE08CED94E40E94B0
:1052F0001E0C61E37EE0012B09F43ECD42E050E05C
:10530000C301B2010E94571165E37EE035CD9C01D7
:10531000255934447901622F81E00E949B168C014B
:105320006D2D81E08E0D0E949B16BC01990F880B9C
:10533000990B0E948E3D2B013C01CFCF1092294644
:1053400081E080932A461092C246CDCFC301B201BC
:105350000E94D13F6B01072E000CEE08FF08C0929F
:105360002F46D0923046E0923146F092324621E00C
:105370002093294620932A462093C2466093C34631
:105380007093C446B0CF86E994E40E94EE3B882334
:1053900089F099278034910514F08FE390E0809391
:1053A0007F466BE27EE08CED94E40E941E0C4091FF
:1053B0007F460BCE81E090E0F2CF86E994E40E9434
:1053C000EE3B8F718093814666E27EE08CED94E443
:1053D0000E941E0C809181468251990B0E945E10A2
:1053E00061E27EE0C9CC31E0D312EDCC6FE276E031
:1053F0008CED94E40E94211086E190E00E94150F4C
:10540000882389F0CE0101960E94ED0E89819A8150
:1054100097FD09C091958195910989839A83CE0161
:1054200001960E94700F61E076E08CED94E40E949A
:10543000211068EC70E080E090E00E949B0C0C94DE
:105440000000C1CC41E0D412BECC67EF75E08CED1A
:1054500094E40E94211086E190E00E94150F8111D2
:1054600028C019821A826FE4CE0101960E944D0F66
:1054700081E090E089839A8365E4CE0101960E94E1
:105480004D0F82E090E089839A836DE4CE0101960E
:105490000E944D0F03E010E009831A836FEFCE01E5
:1054A00001960E944D0F0F5F1F4F011552E0150727
:1054B00099F787E690E089839A8386E190E08B8371
:1054C0009C83CE0101960E94700F0DE716E487E0E1
:1054D00090E0D8016D918D017C01BFEFEB1AFB0AC2
:1054E0008DAB9EABC1010E944D0FC7018A3691055D
:1054F00081F790E080E00E94150F811122C06FECCF
:1055000075E08CED94E40E941E0C2AE040E052E02D
:1055100060E070E08CED94E40E94DD0F69EA75E0D4
:105520008CED94E40E94211060E072E090E080E055
:105530000E94581167EA75E08CED94E40E941E0CFD
:105540000EC0CE0101960E94ED0E8B819C810196CA
:1055500069F466E575E08CED94E40E9421108CED11
:1055600094E40E941E1066ED75E006CC69E475E0D7
:105570008CED94E40E941E0C4B815C8170E060E035
:105580002AE08CED94E40E94DD0F09811A8117FF57
:1055900003C0119501951109045011096BE375E0E1
:1055A0008CED94E40E941E0CC8010E945E1064E31E
:1055B00075E08CED94E40E941E0C89819A8197FF1E
:1055C00006C069E275E08CED94E40E941E0C8CED3F
:1055D00094E40E941E10B80187E090E00E945811E8
:1055E00067E275E0A9CF0E943F0D6B01CB01892BCB
:1055F00071F40E943F0D21E0672B682B692B09F4A1
:1056000020E02093C546822F0E949415DCCB6430A5
:10561000710508F0D8CBC1010E94D80C10E000E061
:10562000C1010E94D80C892B49F1083038F58DA9A9
:10563000803221F08D3011F08A3051F4E1E0F0E059
:10564000EC0FFD1FE00FF11D10830F5F10E0E8CF9E
:105650001295107F90ED980F9A3030F09FEB980FD5
:10566000963020F499EC980F190FDACF9FE9980F34
:10567000963010F499EAF7CF90E0F6CFDE0111965C
:10568000F3E0CC0CDD1CFA95E1F790E080E02D9181
:10569000FC01EC0DFD1DE254F94B2083019688308E
:1056A0009105A9F790CBF1E0DF128DCB66E17EE0AA
:1056B0008CED94E40E941E0C60E571E45CCCE2E0A9
:1056C0008E2ED81080CB10928046809196448133E4
:1056D00019F481E0809380468091804660E17EE00D
:1056E00081114ACB69E07EE047CB992493946BEF1C
:1056F0007DE0D91068CB40CBAA24A394DA1063CB09
:1057000061EE7DE08CED94E40E9421100E94980FE0
:105710001092F3431092F4431092F5431092F64323
:105720001092F7431092F8431092F9431092FA4303
:105730001092FB431092FC431092FD431092FE43E3
:105740001092FF43109200441092014410920244C0
:1057500010923346109234461092354610923646D7
:1057600032CBBB24B394DB102ECB0EE316E0F80152
:10577000F490FF2061F0FAE0FF1203C08DE00E9478
:105780003C0C8F2D0E943C0C0F5F1F4FF0CF6CE341
:1057900076E0F2CABFE3BD1508F41DCBED2DF0E0B5
:1057A000EB56FB4B8083D394D092BB4214CB49E29F
:1057B000C42E46E4D42E10E000E0EE24E394F12C55
:1057C00066E1B62EF6018181882309F476C08081D6
:1057D0008823C9F18481893228F590E0FC01E157E2
:1057E000FF4B40814F3FF1F0FC01E854FF4B20811B
:1057F000F0E22F9F900111243C5F8F519F4BDC0101
:105800008C91F0E0E0E0883020F4F9017096E80F28
:10581000F11D9FB7F894D90112964C93808188604E
:1058200080839FBF6EEE7DE080912E4601151105AD
:1058300021F060EF7DE0809144460E947C083DC0ED
:1058400001E010E0BFCF85818932A0F590E0FC0136
:10585000EF51FF4B20812F3F69F188549F4BDC01B2
:105860008C91E82FE295EE0FE07EE20FF0E0E05F32
:10587000FB4F9081917F908390E0FC01B4E0EE0FAC
:10588000FF1FBA95E1F7422F50E0470102C0880C94
:10589000991C2A95E2F78382880F991FFC01E05B2F
:1058A000FF4B440F551F0190F081E02DE40FF51FD1
:1058B00010821182D60111961C92B09EF001B19E09
:1058C000F00D11249F01275D394BF90186859785DD
:1058D000A089B189892B8A2B8B2BC1F046855785EE
:1058E00060897189F60182859385A485B585840FC9
:1058F000951FA61FB71F82879387A487B587D901F5
:105900001E961D921D921D921C925197B6E1CB0ED0
:10591000D11C0130110509F093CF789420911743E1
:10592000309118434091194350911A4360911B43A1
:1059300070911C4380911D4390911E4380901343AE
:1059400090901443A0901543B090164310910B43D0
:1059500000910C43C0900D432696CFAE2697D09071
:105960000E436296DFAE6297E0900F436496EFAE0F
:105970006497F09010436696FFAE6697C09011430F
:105980006A96CFAE6A97D09012436E96DFAE6E974E
:10599000E0900B43A096EFAEA097F0900C43A49636
:1059A000FFAEA497C0900D43A896CFAEA897D09015
:1059B0000E43AC96DFAEAC97E0900F43AE96EFAEE1
:1059C000AE97F0901043E096FFAEE097C090114381
:1059D000E296CFAEE297D09012432E96DFAE2E978E
:1059E000C0901343D0901443E0901543F0901643B9
:1059F000C9AEDAAEEBAEFCAEC0901343D090144308
:105A0000E0901543F09016432596CCAEDDAEEEAE99
:105A1000FFAE25970E9406406B017C01C501B401D1
:105A20000E948E3D9B01AC01C701B6010E94693FF7
:105A30006B017C01212F302F26964FAD2697629661
:105A40005FAD629764966FAD649766967FAD66971B
:105A50006A968FAD6A976E969FAD6E970E940240D0
:105A60004B015C01A0962FADA097A4963FADA497E3
:105A7000A8964FADA897AC965FADAC97AE966FADBC
:105A8000AE97E0967FADE097E2968FADE2972E96C7
:105A90009FAD2E970E9402409B01AC01C501B4014D
:105AA0000E94ED3D4B015C0169AD7AAD8BAD9CADC3
:105AB0000E948E3D9B01AC01C501B4010E94693F6B
:105AC0004B015C0125966CAD7DAD8EAD9FAD2597EC
:105AD0000E948E3D9B01AC01C501B4010E94693F4B
:105AE0009B01AC01C701B6010E94013F0E949B408F
:105AF0008090464090904740A0904840B0904940E8
:105B000069968CAE9DAEAEAEBFAE6997A50194010D
:105B10000E94ED3D6D966CAF7DAF8EAF9FAF6D97E0
:105B200060930C4470930D4480930E4490930F4403
:105B3000A0904A40B0904B406F96AEAEBFAE6F970C
:105B40008090134390901443A0901543B090164357
:105B500060910743709108438091094390910A43F3
:105B60000E948C3D6B017C016F96AEADBFAD6F970F
:105B70001196A50194010E94CA3E0E948E3D9B0190
:105B8000AC01C701B6010E94693FA3966CAF7DAF1F
:105B90008EAF9FAFA397B0900B44C957DF4FB88229
:105BA000C758D040C0904C40D0904D40E0904E40FF
:105BB000F0904F40C857DF4FC882D982EA82FB82FB
:105BC000C858D0408090284090902940A0902A400A
:105BD000B0902B40AB968CAE9DAEAEAEBFAEAB9749
:105BE00023EF33E463962EAF3FAF63974FEB52E45E
:105BF00065964EAF5FAF659767EE73E423966EAF21
:105C00007FAF23978CE394E489AF9AAFAFEEB2E411
:105C1000AD96AEAFBFAFAD97E7EDF2E4E396EEAF72
:105C2000FFAFE3972CE230E4E1962EAF3FAFE19770
:105C300040E154E4AF964EAF5FAFAF9727961EAEEC
:105C40001FAE27976F968EAC9FAC6F972796AEAC22
:105C5000BFAC2797A814B9040CF0FEC49501A3E0CB
:105C6000220F331FAA95E1F7D901A155BC4BBC9077
:105C7000C457DF4FB882CC58D0401196CC901197C2
:105C8000C357DF4FC882CD58D0401296DC90129790
:105C9000C257DF4FD882CE58D0401396EC9013975E
:105CA000C157DF4FE882CF58D0401496FC9014972C
:105CB000C057DF4FF882C059D04015968C90159789
:105CC000CF56DF4F8882C159D04016969C901697C8
:105CD000CE56DF4F9882C259D0401796AC90CD5621
