:10020000DCC6000004C7000002C700000C94591CA3
:10021000FEC60000FCC60000FAC60000F8C60000DA
:100220000C94981CF4C60000F2C60000F0C6000052
:10023000EEC60000ECC60000EAC60000E8C60000FA
:10024000E6C60000E4C60000E2C60000E0C600000A
:10025000DEC600000C94EB1B0C94E61B0C94F01B08
:100260000C948F1CD4C600000C94E61CD0C6000071
:10027000CEC60000CCC600000C94921C0C94611CED
:10028000C6C60000C4C60000C2C600000C94891C8B
:10029000BEC60000BCC60000BAC60000B8C600005A
:1002A000B6C60000B4C60000B2C60000B0C600006A
:1002B000AEC600000C94951C0C948C1CA8C60000C3
:1002C000A6C60000A4C60000A2C60000A0C600008A
:1002D0009EC600000C94DE1B0C94D91B0C94E31BEF
:1002E00096C6000094C6000092C6000090C60000AA
:1002F0008EC6000005A84CCDB2D44EB93836A9023E
:100300000C50B9918688083CA6AAAA2ABE00000013
:10031000803F4E414E494E495459494E46CDCCCC72
:100320003D0AD7233C17B7D13877CC2B329595E6C9
:10033000241FB14F0A000020410000C84200401CA9
:100340004620BCBE4CCA1B0E5AAEC59D744E6F20D3
:10035000454550524F4D20636F6E666967004C6F84
:100360006164656420454550524F4D20636F6E6651
:100370006967004E6F2074656D7065726174757287
:10038000652073656E736F72732064657465637442
:1003900065642C2064697361626C696E67207465A2
:1003A0006D7065726174757265005265666572651F
:1003B0006E636520766F6C746167652063616C693C
:1003C00062726174696F6E3A20002000204E6F6483
:1003D000653A20002047726F75703A200039313538
:1003E0004D487A003836384D487A003433334D481A
:1003F0007A0020467265713A200052464D363943E4
:100400005720004F70656E456E657267794D6F6E4F
:1004100069746F722E6F726700656D6F6E5478200D
:10042000563420434D20436F6E74696E756F75733B
:10043000204D6F6E69746F72696E672056004A5363
:100440004F4E20466F726D6174204F6666004A53AE
:100450004F4E20466F726D6174206F6E00524620C1
:100460006F6666005246206F6E0074656D705F6542
:100470006E61626C65203D200070756C7365207044
:100480006572696F64203D200070756C7365732020
:100490003D2000646174616C6F67203D2000693607
:1004A0004C656164203D2000693643616C203D202D
:1004B0000069354C656164203D2000693543616CFD
:1004C000203D200069344C656164203D2000693482
:1004D00043616C203D200069334C656164203D2000
:1004E00000693343616C203D200069324C656164D2
:1004F000203D2000693243616C203D200069314C71
:10050000656164203D2000693143616C203D20001D
:10051000617373756D656456203D20007643616C90
:10052000203D200043616C6962726174696F6E3AAC
:10053000002064426D002C20002C204E6F6465204A
:1005400000204D487A2C2047726F75702000426160
:100550006E64200053657474696E67733A000A0014
:10056000202868696464656E292E002062797465AC
:1005700073002C20446174612073697A653A20000D
:10058000205369676E61747572653A20004E6F2062
:100590006461746120626C6F636B20666F756E645A
:1005A000202D20454550524F4D206170706561727D
:1005B0007320746F20626520666F726D617474655C
:1005C0006420746F204F454D205374616E646172D6
:1005D000642062757420756E757365642E000A0060
:1005E0002062797465732C206E6F7420666F726D53
:1005F000617474656420746F204F454D205374619D
:100600006E646172640053697A653A2000446F6ECB
:10061000652E204E657720636F6E66696720736173
:1006200076656420746F20454550524F4D005361EC
:1006300076696E672E2E2E00536B65746368207783
:10064000696C6C206E6F77207265737461727420B0
:100650007573696E672064656661756C7420636F7D
:100660006E6669672E00526573657474696E672ED5
:100670002E2E0020000A417661696C61626C652053
:10068000636F6D6D616E64733A0A6C09092D206C9D
:10069000697374207468652073657474696E677318
:1006A0000A7209092D20726573746F726520736B6D
:1006B000657463682064656661756C74730A730998
:1006C000092D20736176652073657474696E677394
:1006D00020746F20454550524F4D0A7609092D2050
:1006E00073686F77206669726D77617265207665D1
:1006F0007273696F6E0A7A09092D207A65726F200C
:10070000656E657267792076616C7565730A780924
:10071000092D20657869742C206C6F636B20616EE5
:100720006420636F6E74696E75650A3F09092D2038
:1007300073686F77207468697320746578742061BA
:100740006761696E0A0A773C783E09092D20747545
:10075000726E2052464D20576972656C6573732026
:1007600064617461206F66663A2078203D203020F5
:100770006F72206F6E3A2078203D20310A623C6E05
:100780003E09092D2073657420722E662E20626149
:100790006E64206E203D20612073696E676C652059
:1007A0006E756D6572616C3A2034203D20343333B0
:1007B0004D487A2C2038203D203836384D487A2C48
:1007C0002039203D203931354D487A20286D617916
:1007D00020726571756972652068617264776172F3
:1007E00065206368616E6765290A703C6E6E3E091C
:1007F000092D207365742074686520722E662E2082
:10080000706F7765722E206E6E202D20616E2069CC
:100810006E74656765722030202D2033312072653B
:1008200070726573656E74696E67202D313820644F
:10083000426D20746F202B31332064426D2E204492
:10084000656661756C743A20323520282B37206438
:10085000426D290A673C6E6E6E3E092D20736574E9
:10086000204E6574776F726B2047726F7570202011
:100870006E6E6E202D20616E20696E7465676572E4
:1008800020284F454D2064656661756C74203D20BD
:10089000323130290A6E3C6E6E3E09092D20736597
:1008A00074206E6F6465204944206E3D20616E2087
:1008B000696E746567657220287374616E64617215
:1008C00064206E6F646520696473206172652031F5
:1008D0002E2E3630290A0A643C78782E783E092D6F
:1008E0002078782E78203D206120666C6F617469D5
:1008F0006E6720706F696E74206E756D6265722010
:10090000666F722074686520646174616C6F6767DC
:10091000696E6720706572696F640A633C6E3E0998
:10092000092D206E203D203020666F72204F4646F4
:100930002C206E203D203120666F72204F4E2C20DF
:10094000656E61626C6520766F6C746167652C20E2
:1009500063757272656E74202620706F77657220E1
:10096000666163746F722076616C75657320746F55
:100970002073657269616C206F7574707574206680
:100980006F722063616C6962726174696F6E2E2090
:100990000A6A3C6E3E09092D207475726E204A5316
:1009A0004F4E2053657269616C20666F726D617481
:1009B000206F6E20283129206F72206F66662028F4
:1009C00030292E0A663C78783E09092D2078782057
:1009D0003D20746865206C696E652066726571756E
:1009E000656E637920696E20487A3A206E6F726D69
:1009F000616C6C7920656974686572203530206F90
:100A0000722036300A6B3C783E203C79792E793E54
:100A1000203C7A7A2E7A3E0A09092D2043616C69BE
:100A2000627261746520616E20616E616C6F6775C2
:100A30006520696E707574206368616E6E656C3ACE
:100A40000A0909202078203D20612073696E676CB7
:100A500065206E756D6572616C3A2030203D2076A0
:100A60006F6C746167652063616C6962726174693F
:100A70006F6E2C2031203D206374312063616C69DE
:100A800062726174696F6E2C2032203D2063743273
:100A90002063616C6962726174696F6E2C20657489
:100AA000630A0909202079792E79203D206120668A
:100AB0006C6F6174696E6720706F696E74206E75FB
:100AC0006D62657220666F722074686520766F6C47
:100AD000746167652F63757272656E742063616CF3
:100AE0006962726174696F6E20636F6E7374616E98
:100AF000740A090920207A7A2E7A203D2061206626
:100B00006C6F6174696E6720706F696E74206E75AA
:100B10006D62657220666F7220746865207068610E
:100B200073652063616C6962726174696F6E2066BF
:100B30006F72207468697320632E742E20287A20C7
:100B40006973206E6F74206E65656465642C206F18
:100B5000722069676E6F72656420696620737570B4
:100B6000706C6965642C207768656E2078203D2064
:100B700030290A09092020652E672E206B3020328B
:100B800035362E380A0909202020202020206B31FC
:100B90002039302E3920322E30300A613C78782EC0
:100BA000783E092D2078782E78203D206120666CD3
:100BB0006F6174696E6720706F696E74206E756DF9
:100BC00062657220666F7220746865206173737548
:100BD0006D656420766F6C74616765206966206E50
:100BE0006F20612E632E20697320646574656374C1
:100BF00065640A6D3C783E203C79793E092D206D74
:100C0000657465722070756C736520636F756E74A2
:100C1000696E673A0A090920202078203D2030209B
:100C2000666F72204F46462C2078203D203120668A
:100C30006F72204F4E2C203C79793E203D20616E12
:100C400020696E746567657220666F7220746865CE
:100C50002070756C7365206D696E696D756D20709F
:100C60006572696F6420696E206D732E202879206B
:100C70006973206E6F74206E65656465642C206FE7
:100C8000722069676E6F726564207768656E207880
:100C9000203D2030290A743C783E09092D207475C6
:100CA000726E2074656D7065726174757265206D09
:100CB0006561737572656D656E74206F6E206F72FD
:100CC000206F663A2078203D2030206F72206F6EB2
:100CD0003A2078203D20310A00456E657267792000
:100CE00076616C7565732073657420746F207A6506
:100CF000726F00436F6E74696E75696E672E2E2E6B
:100D0000005246206F6666005246206F6E00456DA9
:100D10006F6E5478563420560054656D706572615C
:100D200074757265206F66660054656D70657261DA
:100D300074757265206F6E002064426D0070203DF6
:100D400020004E6F646520006F666600206D7300A2
:100D500050756C7365733A20002000200043616C6D
:100D60003A206B0047726F75702000467265713AC9
:100D70002000207300646174616C6F67207065727D
:100D8000696F643A2000204D487A00005EBCE26141
:100D90003FDD83C29C7E20A3FD1F41009D23BE46F4
:100DA000DB65F88C11AF32CA57E9742C7066363A9D
:100DB000002C7066353A002C7066343A002C706650
:100DC000333A002C7066323A002C7066313A002CAF
:100DD00049363A002C49353A002C49343A002C491E
:100DE000333A002C49323A002C49313A002C7075C4
:100DF0006C73653A002C54333A002C54323A002C70
:100E000054313A002C45363A002C45353A002C45F1
:100E1000343A002C45333A002C45323A002C453107
:100E20003A002C50363A002C50353A002C50343AC7
:100E3000002C50333A002C50323A002C50313A00FA
:100E40002C56726D733A004D53473A007D002C22A8
:100E500070756C7365223A002C225433223A002CB0
:100E6000225432223A002C225431223A002C2245BC
:100E700036223A002C224535223A002C22453422D3
:100E80003A002C224533223A002C224532223A00E5
:100E90002C224531223A002C225036223A002C22B4
:100EA0005035223A002C225034223A002C22503362
:100EB000223A002C225032223A002C225031223A7F
:100EC000002C2256726D73223A007B224D5347222A
:100ED0003A002056004143206D697373696E6720A4
:100EE0002D204170706172656E7420506F7765724D
:100EF0002063616C6320656E61626C65642C2061A7
:100F00007373756D696E672000414320707265735D
:100F1000656E74202D205265616C20506F7765726C
:100F20002063616C6320656E61626C65640020659E
:100F30006E61626C65642E0054656D7065726174DB
:100F4000757265206D6561737572656D656E74206F
:100F500069730053656E736F72206D6179206E6FD7
:100F6000742062652072656C6961626C65002000A6
:100F700030002C2077697468206164647265737333
:100F800065732E2E2E0054656D70657261747572D6
:100F9000652053656E736F727320666F756E642083
:100FA0003D20000A0000080A400CFFC000C000FFFE
:100FB000FF01040603000300AB2211241FBECFEF84
:100FC000CDBFDFE7DEBF11E4A0E0B0E4EEE8FFE76D
:100FD00000E00BBF02C007900D92AE3BB107D9F7FE
:100FE00027E4AEEBB1E401C01D92AB3CB207E1F7E0
:100FF00017E0CDEDD7E004C02197FE010E948D3FA0
:10100000CC3DD107C9F70E94B5240C94C53FF8C860
:101010000000809364098091630987FFFCCF809171
:10102000640908952D98F4DF80E0F2DF2D9A089589
:10103000CF93C62F2D988068EBDF8C2FE9DF2D9A98
:10104000CF910895CF939091C847981791F0C82FEA
:1010500081E0E8DF837E682F6C2B81E0E9DF8091FF
:10106000C847811104C087E2DDDF87FFF8CFC09356
:10107000C847CF910895CF93DF93EC0188818823EF
:1010800021F06981D5DF2296F9CFDF91CF910895C4
:10109000CF93DF93282F30E09FEF893220F5E901CD
:1010A000C752DF4B98819F3FE9F0F901EE5FFE4B9D
:1010B000A08140E2A49FD0011124BC5FF901E55D4D
:1010C000FE4BE081E830C0F5AD01405F5F4FE40FBB
:1010D000F52FF11D4FB7F89412969C939081977F4E
:1010E00090834FBF98819093B946893240F52E5F27
:1010F0003E4BF9018081F4E08F9FC0011124809361
:10110000BA469093BB461092C4461092C6461092BF
:10111000C5461092C3461092C2461092C146109224
:10112000C0461092BF461092BE461092BD46109225
:10113000BC46DF91CF910895F0E0E0E0CBCF8CEF9B
:1011400093E0DDCF9091B946E091BA46F091BB466D
:10115000292F209580FF15C0F894818182238183F7
:101160008081892B808380E58A95F1F78181982B96
:1011700091837894A9E4B1E01197F1F700C00000E1
:101180000895F8948181822381838081892B8083D3
:10119000A5E8B1E01197F1F700C000008181982B1C
:1011A00091837894B8E2BA95F1F708958091B946A1
:1011B000E091BA46F091BB46F8949081982B9083C9
:1011C0002181382F30952323218398E19A95F1F7D7
:1011D00090819323908390E59A95F1F7928178948A
:1011E000EDE3F1E03197F1F700C00000982381E0D2
:1011F00009F480E00895FF920F931F93CF93DF933C
:10120000F82E062FC8E0D0E011E081E09F2D912359
:1012100009F480E097DF110F2197B9F7011116C08B
:10122000F894E091BA46F091BB4690818091B9461E
:10123000809589238083E091BA46F091BB469181E5
:101240008091B9468095892381837894DF91CF91ED
:101250001F910F91FF9008958091B946E091BA4691
:10126000F091BB46F8949081282F2095922390838B
:1012700078943DE7315059F190E19A95F1F79281D8
:101280009823C1F3F8949181922391839081982BB4
:1012900090837894AFE3BBE01197F1F700C00000B2
:1012A000F894908192239083A3EAB1E01197F1F72B
:1012B00000C000009281982381E009F080E07894DA
:1012C000EBE9F9E03197F1F700C00000089580E004
:1012D0000895893260F590E0FC01E55DFE4BE08108
:1012E000EF3F29F18E5F9E4BDC018C9190E0DC0199
:1012F000AA0FBB1FAE5ABF4B2D913C912115310552
:10130000B1F04E2F50E0440F551F240F351FD90167
:101310006D937C93E05FA5E0880F991FAA95E1F794
:10132000E80FF0E0FC5F8081887F82608083089511
:10133000AF92BF92CF92DF92EF92FF920F931F93E3
:10134000CF93DF936C017B018B01040F151FEB0121
:101350005E01AE18BF08C017D10759F06991D601D8
:10136000ED91FC910190F081E02DC6010995892B4A
:1013700079F7C501DF91CF911F910F91FF90EF9009
:10138000DF90CF90BF90AF900895FC0155894689BA
:10139000252F30E0842F90E0821B930B541710F020
:1013A000CF96089501970895FC0193898489981731
:1013B00061F0A489AE0FBF2FB11D57968C9194890F
:1013C0009F5F9F73948B90E008958FEF9FEF089538
:1013D000FC0193898489981731F08489E80FF11D05
:1013E000878990E008958FEF9FEF0895FC0193891E
:1013F0002489892F90E0805C9F4F821B91098F7315
:1014000099270895CF93DF93EC01E881F981068055
:10141000F781E02D0995EC85FD8586811682858111
:10142000158280E484838C898B8B1A8ADF91CF911B
:1014300008958F929F92AF92BF92FF920F931F9346
:10144000CF93DF938C014A015B01D22FC32FDC01C4
:1014500052968C91529780FF07C0ED91FC910288C3
:10146000F389E02DC8010995D11101C0D3E0FD2E0B
:10147000E894F2F8DC2FD095D07CB1E68B16B3EE71
:101480009B06B6E1AB06B10428F0D260B694A794EF
:101490009794879460E078ED88EB95E0A50194013E
:1014A0000E94353DC9012034310510F480E490E0FC
:1014B0003C2F3B72D7FD30684D2F487C30FD41609A
:1014C0005FB7F894D8011C96ED91FC911682F782D3
:1014D0008087918735FF8FC04F7781E084878FEFBA
:1014E00085873F7D3583D683F8012189C08986852C
:1014F0009785FC0133E0239FE00DF11D11246591D8
:1015000074912C1708F059C0272F46FF76C0793206
:1015100088F430E0F901E752FF4BA081AF3F51F072
:101520002E5F3E4BF901308120E2329FF001112401
:10153000FC5FA18347FF2AC021E0270F293230F545
:1015400030E0F901E752FF4BD081DF3FF9F0F901BC
:10155000EE5FFE4BA081F0E2AF9FD0011124BC5F93
:10156000255D3E4BF9011081F0E0E0E0183030F4E9
:101570009D01205F3F4FF901E10FF11D3FB7F89446
:101580001296DC932081286020833FBF40FF15C066
:1015900023E0270F293288F430E0F901E752FF4BAE
:1015A00040814F3F51F02E5F3E4BD901EC91B0E2AC
:1015B000EB9FF0011124FC5F4183FC0123E0C29FFB
:1015C000E00DF11D1124319625913491F901FF2789
:1015D000EE51FA4F9081832F80958923682B608389
:1015E0005FBFDF91CF911F910F91FF90BF90AF90A0
:1015F0009F908F900895148674CF342F307509F41E
:1016000099CF793208F096CF30E0F901E752FF4BDD
:10161000D081DF3F09F48ECFF901EE5FFE4BA08150
:10162000E0E2AE9FD0011124BC5F255D3E4BF90185
:101630001081F0E0E0E0183030F49D01205F3F4F72
:10164000F901E10FF11D3FB7F8941296DC93208168
:10165000286020833FBF6ECFFC010FB607FE04C099
:10166000809111018823A9F0A485B58514968C91E9
:10167000149785FF0EC095898689981739F01596BD
:101680008C9115978F7D15968C930895E8940C9402
:10169000FB1B08950F931F93CF93DF93EC018A896F
:1016A000982F91609A8B2D899E8929130AC0EC8509
:1016B000FD85948195FF05C081FD0DC080E4848384
:1016C00012C0062F1D891F5F1F738E89811315C0DD
:1016D000CE01C2DFFACF85818F77806490E4948356
:1016E000EC85FD858583EC85FD85628381E090E056
:1016F000DF91CF911F910F910895ED89EC0FFD2F90
:10170000F11DE95AFF4F00831D8BEC85FD858A8909
:1017100081FF09C085818F77806690E49483EC8592
:10172000FD858583E3CF85818062FBCFEF92FF92B9
:101730000F931F93CF93DF938C017B01D0E0C0E028
:10174000F701EC0FFD1F6491662331F0C801A2DFA1
:10175000892B11F02196F4CFCE01DF91CF911F910B
:101760000F91FF90EF900895682F8EE795E492CF48
:10177000CF93DF93EC018A8980FF0BC0EC85FD8558
:10178000858185FD03C0848186FD03C0CE0164DFB1
:10179000F5CFDF91CF91089581E008950F98079AD2
:1017A00020E533EC93E0179A44E1F9013197F1F722
:1017B0004150D9F7482F179AF9013197F1F7179A45
:1017C00059E0F9013197F1F75150D9F7415099F7A4
:1017D000915049F7E7CF9FB7F894E0912A0BF09129
:1017E0002B0B8091260B2091334330913443409151
:1017F0003543509136439FBF80FF08C0EC3E8CE2DA
:10180000F80720F42F5F3F4F4F4F5F4F0F011694A3
:101810000794169407941694079416940794F0016D
:1018200016940794E00DF11D16940794102C16944D
:1018300001181694010C169401181694010C1694B4
:10184000011816941694010C1124E019F109A8EE60
:10185000B3E00E94253D6E0F7F1F811D911D0895ED
:101860008F929F92AF92BF92CF92DF92EF92FF92B0
:101870006B017C01B0DF4B015C01C114D104E104B8
:10188000F104B1F0A8DF681979098A099B09683E5B
:1018900073408105910588F321E0C21AD108E1085F
:1018A000F10888EE880E83E0981EA11CB11CE5CFDC
:1018B000FF90EF90DF90CF90BF90AF909F908F9070
:1018C00008952FB7F8946091334370913443809119
:1018D0003543909136432FBF0895CF92DF92EF9218
:1018E000FF920F931F93CF93DF93082F10E096E1A1
:1018F000899FE0011124C553D94B8E819F81A88512
:10190000B985892B8A2B8B2B99F1DBDFCA88DB8881
:10191000EC88FD886C197D098E099F09CE80DF80D7
:10192000E884F984C616D706E806F90658F48E85C9
:101930009F85A889B9890196A11DB11D8E879F87B2
:10194000A88BB98BBEDF26E1209FF001219FF00D0F
:101950001124E553F94B628B738B848B958BDF914C
:10196000CF911F910F91FF90EF90DF90CF9008954E
:101970008E859F85A889B9890196A11DB11D8E8785
:101980009F87A88BB98BEBCF80E0A7CF81E0A5CF55
:10199000CF92DF92EF92FF920F931F93CF93DF933B
:1019A00080911C4090E025E0959587952A95E1F778
:1019B0008095909583709927C0EFD2E002C0D595AD
:1019C000C7958A95E2F72091464030914740DE0165
:1019D0000E949C3F28E13CEF4FEF5FEF0E94093DE2
:1019E00080912542909126420197280F391F20931C
:1019F00027423093284220E030E04AE754E46091E7
:101A00002A4070912B4080912C4090912D400E9453
:101A1000523C0E943B3E8E01DD0F220B330B6B01CB
:101A20007C01C01AD10AE20AF30AA7019601A8EEC6
:101A3000B3E00E94253D68587341810991090E94D5
:101A4000F13B209118403091194040911A4050913B
:101A50001B400E94CE3D0E943B3E6093214270930A
:101A600022428093234290932442DF91CF911F9191
:101A70000F91FF90EF90DF90CF900895CF92DF927B
:101A8000EF92FF926B017C01C0922A40D0922B40D2
:101A9000E0922C40F0922D4060914640709147407A
:101AA00090E080E00E94F13BA70196010E94523C29
:101AB0000E943B3E609325427093264220E034E230
:101AC00044E759E4C701B6010E94523C20911840F6
:101AD0003091194040911A4050911B400E94CE3DD8
:101AE0000E943B3E6093B3437093B4438093B543ED
:101AF0009093B643FF90EF90DF90CF9049CFEF9255
:101B0000FF920F931F93CF93DF93E0911F42CE2F4D
:101B1000D0E07E01EE0CFF1CEE0CFF1CD701A25D95
:101B2000BF4B4D935D936D937C931397B7016050BA
:101B3000704CDB010D931D932D933C9313979E01E5
:101B400025573B4B91E0D9019C93A82FB0E0AC52B4
:101B5000BB4BEC93EF5FE0931F42F0E0E25EFF4B84
:101B60008083DF91CF911F910F91FF90EF900895A7
:101B7000DC01ED91FC91F170FC5E80810895CF92C3
:101B8000DF92EF92FF920F931F93CF93DF9300D0DA
:101B9000CDB7DEB76C017C0103E010E009831A8346
:101BA000CE010196E5DFF70181937F010F5F1F4FA3
:101BB0000730110599F7C6010F900F90DF91CF9173
:101BC0001F910F91FF90EF90DF90CF9008950F93AA
:101BD0001F93CF93DF9300D000D0CDB7DEB78C0139
:101BE00019821A82CE010196C3DF8F34F9F481E0A5
:101BF00090E089839A83CE010196BADF8534B1F4EF
:101C000082E090E089839A83CE010196B1DF8D3422
:101C100069F481E00115110551F0CE010196AFDFA5
:101C200081E02B813C812017310709F080E0249668
:101C3000CDBFDEBFDF91CF911F910F9108951F930C
:101C4000CF93DF93EC01162F93DF8117B1F09FB78D
:101C500080910210282F227081FDFACFF8948DE92F
:101C600084BF2093001023E184BF20930010E881FB
:101C7000F981F170FC5E10839FBFCE01DF91CF919F
:101C80001F910895CF92DF92EF92FF920F931F93CF
:101C9000CF93DF9300D0CDB7DEB76C017C0103E0BA
:101CA00010E009831A83F70161917F01CE0101964B
:101CB000C6DF0F5F1F4F0730110599F7C6010F9060
:101CC0000F90DF91CF911F910F91FF90EF90DF90D8
:101CD000CF9008950F931F93CF93DF9300D0CDB78C
:101CE000DEB700911B4710911C4780911D479091D2
:101CF0001E47081719079CF4C801957189839A83B8
:101D00006FEFCE0101969BDF109217471092184794
:101D10008091154790911647080F191FE6CF0F9035
:101D20000F90DF91CF911F910F9108958627682F13
:101D300062956827062E669566956025062E66953F
:101D400060256770082E892F669507946795902DFA
:101D5000862706946795902586270895DC01ED91E6
:101D6000FC910088F189E02D23E030E00994FB012B
:101D700001900020E9F73197AF01461B570BD8CAF5
:101D80006115710509F0F3CF90E080E008958F921E
:101D90009F92AF92BF92EF92FF920F931F93CF93B8
:101DA000DF93CDB7DEB7A197CDBFDEBF7C01FA01CF
:101DB000CB0119A2223008F42AE08E010F5D1F4FDB
:101DC000822E912CB12CA12CBF01A50194010E945F
:101DD000353DF901CA016A30CCF4605DD8016E93DB
:101DE0008D01232B242B252B79F7BD01C701C8DFDB
:101DF000A196CDBFDEBFDF91CF911F910F91FF90D4
:101E0000EF90BF90AF909F908F900895695CE6CF60
:101E10006EE671E4ACCF0F931F93CF93DF93EC0189
:101E200085DC8C01CE01F4DF800F911FDF91CF9113
:101E30001F910F910895CF92DF92EF92FF92CF936F
:101E4000DF93AB01BC0177FF19C06A017C018DE211
:101E50008BDCEC0144275527BA014C195D096E094A
:101E60007F092AE08EE795E492DF8C0F9D1FDF91BA
:101E7000CF91FF90EF90DF90CF9008952AE08EE70A
:101E800095E4DF91CF91FF90EF90DF90CF907FCFDF
:101E9000BC01990F880B990BCECFCF93DF93F8DF5E
:101EA000EC018EE795E4B4DF8C0F9D1FDF91CF919D
:101EB00008954F925F926F927F928F929F92AF920E
:101EC000BF92CF92DF92EF92FF920F931F93CF9327
:101ED0006B017C01742EAC019B010E943E3F61E7C7
:101EE00071E4811126C046015701E894B7F82FEF3D
:101EF0003FEF4FE75FE7C501B4010E943E3F81110C
:101F00000CC02FEF3FEF4FE75FE7C501B4010E9420
:101F1000ED3B65E771E4181664F02FEF3FEF4FE7F4
:101F20005FE4C701B6010E94F23E1816A4F469E707
:101F300071E48EE795E4CF911F910F91FF90EF90A0
:101F4000DF90CF90BF90AF909F908F907F906F90D9
:101F50005F904F900CCF2FEF3FEF4FE75FECC70143
:101F6000B6010E94ED3B87FDE2CF20E030E0A90101
:101F7000C701B6010E94ED3B10E000E087FF07C0FB
:101F80008DE2F2DB8C01F7FAF094F7F8F094C0E000
:101F900060E070E080E09FE37C1641F020E030E0FC
:101FA00040E251E40E94CE3DCF5FF6CFA7019601FB
:101FB0000E94673D2B013C010E943B3E4B015C01AE
:101FC0002AE0BC01A4018EE795E4E1DE7C01E00E8D
:101FD000F11ECC23C9F1C501B4010E94F13B9B0164
:101FE000AC01C301B2010E94663D4B015C016DE78B
:101FF00071E48EE795E4BBDEE80EF91EC15020F1D6
:1020000020E030E040E251E4C501B4010E94523CBE
:102010002B013C010E943B3E4B01B12CA12C2AE03C
:10202000B501A4018EE795E4B2DEE80EF91EC50104
:10203000B4010E94F13B9B01AC01C301B2010E94BB
:10204000663D4B015C01DACFC701CF911F910F9123
:10205000FF90EF90DF90CF90BF90AF909F908F90C8
:102060007F906F905F904F900895CF93DF9321DF23
:10207000EC018EE795E4CCDE8C0F9D1FDF91CF91B4
:10208000089517CFAF92BF92CF92DF92EF92FF9257
:102090000F931F93CF93DF9300D0CDB7DEB76C01C2
:1020A0005B0110E000E00A151B05BCF57801EC0CA3
:1020B000FD1C85E1F822E982FA82CE01019658DD05
:1020C000803110F480E350DB0F5F1F4FE982FA820A
:1020D000CE0101964DDD482F50E070E060E020E138
:1020E0008EE795E454DE67E871E48EE795E43FDE21
:1020F000C80187709927892B29F467E871E48EE776
:1021000095E435DEC8018F709927892B61F663EA63
:102110007FE08EE795E40ADBC6CF0F900F90DF914A
:10212000CF911F910F91FF90EF90DF90CF90BF90D4
:10213000AF900895DF92EF92FF920F931F93CF938A
:10214000DF932091C646211105C0E92ED82E84D8F0
:1021500081110FC01092C4461092C6461092C54617
:1021600080E0DF91CF911F910F91FF90EF90DF9072
:10217000089560E080EF3FD8D1E000E0F12CC1E0AD
:1021800015D8182F13D81130E1F48130C9F5C134B6
:1021900008F3F092C446F11003C081E08093C64674
:1021A0008091BC468823B1F2ACEBB6E4ED2DFE2D58
:1021B000CF0108962D912193E817F907D9F781E00F
:1021C000D0CFE02FF0E0181311C08091C446C8179B
:1021D000A8F4DF01A754B94B13968C918D2381F499
:1021E00010E0C93010F4C093C546FC2EE754F94BFB
:1021F00083819D2F9095892383830AC08C13F0CF10
:10220000E02FF0E0E754F94B83818D2B838311E0BD
:10221000812F0E94A208CF5FDD0F11F40F5FD1E084
:10222000083008F4ADCFB3CFCF92DF92EF92FF9298
:102230000F931F93CF93DF9366E87FE085E196E4E9
:1022400075DA40917D4550E070E060E02AE085E17C
:1022500096E49DDD64E871E485E196E488DD4091D3
:10226000604050E070E060E02AE085E196E48FDDB8
:1022700080917D45882309F453C062E77FE085E1C2
:1022800096E4C9DD10E000E080917D4580171106DD
:1022900009F00CF445C0680183E0CC0CDD1C8A9584
:1022A000E1F7F12CE12CC0917B45D0917C45CC0D20
:1022B000DD1DCE0DDF1D8881803128F460E77FE0D1
:1022C00085E196E433DA488150E070E060E020E197
:1022D00085E196E45CDD6EE67FE085E196E426DA52
:1022E0008FEFE81AF80A88E0E816F104E1F6E091C9
:1022F0007B45F0917C45EC0DFD1D8681833029F4F2
:1023000063E57FE085E196E411DA85E196E480DD1E
:1023100065E070E080E090E0A3DA0F5F1F4FB4CF7C
:1023200085E196E475DD68E37FE085E196E4FED91A
:1023300080917A456FE771E4882311F060E771E4DA
:1023400085E196E41DDD6EE27FE085E196E463DDE4
:1023500085E196E45DDD65E070E080E090E0DF918E
:10236000CF911F910F91FF90EF90DF90CF9078CA9F
:1023700064E575E08EE795E44EDD6EE475E08EE78A
:1023800095E4D4D980911F478B3209F457C1863523
:1023900009F457C18B3509F457C190E080E078DD2E
:1023A00061E475E08EE795E4C1D94091204750E0A3
:1023B00070E060E02AE08EE795E4E9DC69E375E02F
:1023C0008EE795E4B3D9809121478F7390E060DD6B
:1023D00066E375E08EE795E4A9D9809123478251A1
:1023E000990B56DD61E375E08EE795E414DD64E258
:1023F00075E08EE795E40FDD6CE175E08EE795E41E
:1024000095D96091244770912547809126479091F6
:10241000274742E050E029DE60E175E08EE795E471
:1024200085D9609128477091294780912A479091DA
:102430002B4742E050E019DE67E075E08EE795E457
:1024400075D96091304770913147809132479091B2
:10245000334742E050E009DE6DEF74E08EE795E42B
:1024600065D9609134477091354780913647909196
:10247000374742E050E0F9DD64EF74E08EE795E421
:1024800055D9609138477091394780913A4790917A
:102490003B4742E050E0E9DD6AEE74E08EE795E408
:1024A00045D960913C4770913D4780913E4790915E
:1024B0003F4742E050E0D9DD61EE74E08EE795E4FD
:1024C00035D9609140477091414780914247909142
:1024D000434742E050E0C9DD67ED74E08EE795E4E4
:1024E00025D9609144477091454780914647909126
:1024F000474742E050E0B9DD6EEC74E08EE795E4CA
:1025000015D9609148477091494780914A47909109
:102510004B4742E050E0A9DD64EC74E08EE795E4BF
:1025200005D960914C4770914D4780914E479091ED
:102530004F4742E050E099DD6BEB74E08EE795E4A5
:10254000F5D86091504770915147809152479091D2
:10255000534742E050E089DD61EB74E08EE795E49B
:10256000E5D86091544770915547809156479091B6
:10257000574742E050E079DD68EA74E08EE795E481
:10258000D5D8609158477091594780915A4790919A
:102590005B4742E050E069DD6EE974E08EE795E468
:1025A000C5D860915C4770915D4780915E4790917E
:1025B0005F4742E050E059DD63E974E08EE795E45F
:1025C000B5D8609160477091614780916247909162
:1025D000634742E050E049DD69E874E08EE795E446
:1025E000A5D88091644790E058DC69E774E08EE7F5
:1025F00095E49CD880916547909166474EDC809128
:1026000022476DE574E0882311F064E674E08EE7FC
:1026100095E401DC6AE674E08EE795E487D8809162
:10262000674790E03ADC809181476EE374E088234D
:1026300011F06EE474E08EE795E4EDCB81EB91E070
:10264000AECE84E693E0ABCE83E993E0A8CE0F93C1
:102650001F93CF93DF93893208F07CC090E0DC01B8
:10266000A752BF4B2C912F3F09F474C08C010E5F11
:102670001E4BE801E881D0E2ED9FF0011124FC5FE0
:10268000611133C0268330812323AC01455D5E4B4D
:10269000211111C0EA012881309749F1283038F51D
:1026A0007096E20FF11D3FB7F8942081611122C0AE
:1026B000277F20833FBFFA0130813F3F09F44AC0A2
:1026C000E8012881363058F53091E605432F4770F0
:1026D000241312C0EC91E53008F0EE0F8091010A4E
:1026E000E095E823E093010A35C02583CCCFF0E0E4
:1026F000E0E0D9CF2860DDCF387169F4213079F47A
:10270000EC91E53008F0EE0F8091410AE095E82366
:10271000E093410A1FC0383111F4263089F3805507
:102720009F4BFC01808185FF13C030E1839FF00146
:102730001124F75F91819770973061F4EC918532A5
:1027400070F4803298F48830E1F2803121F202C0D6
:102750008111F4CFDF91CF911F910F9108958034B3
:1027600071F08038B9F71092A006F4CF90E1899FFC
:10277000F0011124F75F81818F7E8183EBCF8091FF
:10278000920B8E2339F3C0E22C9F900111243C5F01
:10279000E83030F5205F3F4FE20FF32FF11D4FB7C8
:1027A000F8949091800B9E7F9093800B90918E0B6C
:1027B00090FFFCCF2091920B90E08095909530E0B7
:1027C0008223932328ED24BF8093920B8091800B6A
:1027D00081608093800B80818F7780834FBFBACFD9
:1027E000F0E0E0E0DCCF0F931F93CF93DF93CDB702
:1027F000DEB72897CDBFDEBF20917B4530917C4569
:10280000232B31F02091394330913A43232B61F44B
:1028100010927A4510927D452896CDBFDEBFDF919C
:10282000CF911F910F910895182F809161400E94C0
:10283000480810937A45112309F495C020E030E050
:1028400040E85FE360912A4070912B4080912C40DA
:1028500090912D400E94ED3B87FF03C08FE1809354
:102860001C4000911C4090916040E0913943F091F0
:102870003A4380E020E335E7981721F02193319324
:102880008F5FFACF1092C4461092C6461092C5468A
:102890001092C3461092C2461092C1461092C04692
:1028A0001092BF461092BE461092BD461092BC4692
:1028B00010927D45CE0101963DDC882349F0898147
:1028C0008832C1F780917D458F5F80937D45F2CF3F
:1028D0008091604090917D45891710F480937D45EB
:1028E000E0917B45F0917C4580818832A1F010E039
:1028F00080917D45181778F428E0129FC0011124BB
:1029000020917B4530917C45820F931F13DC8823F7
:1029100011F01F5FEDCF0E942C0960E08CEC0E944B
:10292000FB0860E08EE40E94FB0860E080E00E940B
:10293000FB0860E080E00E94FB0860E0802F0E94BE
:10294000FB080E942C0960E08CEC0E94FB0861E00F
:1029500088E40E94FB0864E170E080E090E00E945F
:10296000300C16D859CF8091294087FDFACF893293
:10297000A4F4282F082E000C330BF901E752FF4B6B
:1029800090819F3F51F02E5F3E4BD901EC91B0E218
:10299000EB9FF0011124FC5F918360E058DE809191
:1029A00029408932F0F690E0FC01E752FF4B20818C
:1029B0002F3FB9F2FC01EE5FFE4BA081E0E2AE9F3B
:1029C000D0011124BC5F855D9E4BFC013081F0E09D
:1029D000E0E0383028F4CD014096FC01E30FF11D12
:1029E0009FB7F89412962C938081877F80839FBF36
:1029F000B8CF0F931F93CF93DF93CDB7DEB72C974C
:102A0000CDBFDEBF681BF1F0062F10E0682F70E02D
:102A1000665C7A4BA801CE0101960E94B63FE1E0C8
:102A2000F0E0EC0FFD1FE00FF11F1082CE010196C8
:102A30000E94533A2C96CDBFDEBFDF91CF911F91FC
:102A40000F91089590E080E0F5CF0F931F93CF93FF
:102A5000DF93CDB7DEB72C97CDBFDEBF681BF1F09B
:102A6000062F10E0682F70E0665C7A4BA801CE015B
:102A700001960E94B63FE1E0F0E0EC0FFD1FE00F91
:102A8000F11F1082CE0101960E94503A2C96CDBFC4
:102A9000DEBFDF91CF911F910F91089560E070E04C
:102AA000CB01F4CF4F925F926F927F928F929F9261
:102AB000AF92BF92CF92DF92EF92FF92CF93DF93CC
:102AC000C82F8090184090901940A0901A40B09064
:102AD0001B40609146407091474090E080E00E942A
:102AE000F13B6B017C0160914C4070914D406F5FF8
:102AF0007F4F072E000C880B990B0E94F33BA5011A
:102B000094010E94523C2BED3FE049EC50E40E94BE
:102B1000523CA70196010E94523C20E034E244E777
:102B200059E40E94CE3D2B013C01D0E0BE016F5F15
:102B30007F4F072E000C880B990B0E94F33BA501D9
:102B400094010E94523CA70196010E94523C20E051
:102B500034E244E759E40E94CE3D6B017C01CC0F86
:102B6000DD1FCC0FDD1FFE01E050F04C20E030E017
:102B700044EB53E460817181828193810E94CE3D58
:102B80009B01AC01C701B6010E94673D2BED3FE000
:102B900049EC50E40E94523C4B015C010E94F63E1D
:102BA0006B017C01C301B2010E94F63E9B01AC01A6
:102BB000C701B6010E94CE3D6B017C01FE01ED57BD
:102BC000FC4BC082D182E282F382C501B4010E9433
:102BD000CB3D4B015C01C301B2010E94CB3D9B0187
:102BE000AC01C556DC4BC701B6010E94523C9B01AB
:102BF000AC01C501B4010E94663D688379838A8374
:102C00009B83DF91CF91FF90EF90DF90CF90BF90AB
:102C1000AF909F908F907F906F905F904F900895AE
:102C2000CF938093464090934740BC0190E080E072
:102C30000E94F13B20912A4030912B4040912C4042
:102C400050912D400E94523C0E943B3E6093254291
:102C5000709326420E94C80CC0E080914C40909135
:102C60004D40C817190624F48C2F1CDFCF5FF5CF19
:102C7000CF9108954F925F926F927F92AF92BF92E1
:102C8000CF92DF92EF92FF920F931F93CF93DF9338
:102C9000E82FCB01BA0168017901F0E0EC52FB4B5F
:102CA000108124E0129FE0011124FE01E25DFF4B40
:102CB0005F0120912540309126404091274050915E
:102CC00028400E94523C2B013C016091C946709102
:102CD000CA4690E080E00E94F13B9B01AC01C30139
:102CE000B2010E94CE3DF50160837183828393839C
:102CF000C050D04CC882D982EA82FB82812FDF91FA
:102D0000CF911F910F91FF90EF90DF90CF90BF90E8
:102D1000AF907F906F905F904F90C4CE2F923F9274
:102D20004F925F926F927F928F929F92AF92BF92DB
:102D3000CF92DF92EF92FF920F931F93CF93DF9387
:102D4000CDB7DEB72E97CDBFDEBF84E080932104E0
:102D500061E08AE07CDC9FB7F89480E18093020414
:102D6000809114048860809314049FBF9FB7F894E7
:102D700080E280930204809115048860809315049A
:102D80009FBF40E052EC61E070E08EE795E40E9466
:102D9000AE0E8091080485FD05C0809121478F5FAC
:102DA0008093214769E174E08EE795E40E94960BD9
:102DB0006AE971E48EE795E40E94C00E63E074E076
:102DC0008EE795E428D886E190E00E94E70D8823FD
:102DD00041F1CE0101960E94BF0D09811A8117FDB4
:102DE00020C0680123E0C20ED11C3FE1E32E37E48E
:102DF000F32E87E090E05C013FEFA31AB30A8D83C6
:102E00009E83CE0105960E94B80DD7018D937D015A
:102E1000C501AC14BD0478F36EE573E00430110510
:102E200011F46DE473E08EE795E40E940B0FA0DAD5
:102E300080912247882309F45AC06AEF73E08EE735
:102E400095E40E94960B62EF73E08EE795E40E9492
:102E5000960B80911F478B3231F46BEE73E08EE757
:102E600095E40E94960B80911F47863531F464EEFD
:102E700073E08EE795E40E94960B80911F478B3597
:102E800031F46DED73E08EE795E40E94960B64EDEE
:102E900073E08EE795E40E94960B4091204750E046
:102EA00070E060E02AE08EE795E40E94C70E6CECCB
:102EB00073E08EE795E40E94960B4091214750E025
:102EC00070E060E02AE08EE795E40E94C70E6AECAD
:102ED00073E08EE795E40E940B0F62EA71E48EE7DF
:102EE00095E40E94B70E8EE795E40E94080F80914A
:102EF000080484FD03C081E080931E428091224734
:102F0000882309F4CDC021E02093C74710912047C2
:102F1000809121478093C547B0E11B9FC0011124D8
:102F20008127E4E08E9FA00111248427807C809378
:102F3000C64780E2809321042093410484E080937B
:102F400041042D9A8091E405837F8093E40580916C
:102F50006109846080936109809160098162809336
:102F600060090E94610C6B017C016AEA8FE20E9499
:102F700018088FE20E9412088A3A59F00E94610CE8
:102F80006C197D098E099F096233710581059105D0
:102F900060F30E94610C6B017C0165E58FE20E9489
:102FA00018088FE20E941208853559F00E94610CC2
:102FB0006C197D098E099F096233710581059105A0
:102FC00060F38091C747813009F0EEC183E990E456
:102FD0000E943B0883E990E40E943B086CE687E08E
:102FE0000E94180860E888E00E94180860E089E004
:102FF0000E941808612F80E30E94180869E981E1A6
:103000000E94180884E00E9422080E94610C6B0153
:103010007C0187E20E94120887FD0BC00E94610CB0
:103020006C197D098E099F0962337105810591052F
:1030300080F30E94610C8091C7478130D9F084E011
:103040000E9422082D988EEB0E94080809E811E4DE
:10305000D8018D918D010E940808B1E409391B0740
:10306000B9F72D9A8DE30E941208682F61608DE3F5
:103070000E94180820912147E4E12E9F800111242D
:1030800060E070E0CB010115110541F00E94FB39B1
:103090009801110F440B550B0E94093D0E94300C02
:1030A0008EE08093050680910306809303061092BC
:1030B000B00086E08093020681E080930006809154
:1030C00000068093000687E08093080660E070E0C9
:1030D000CB0150E040E021E020930A0630910D063C
:1030E00030FFFCCF4A30510544F0E0911006F091DA
:1030F00011066E0F7F1F811D911D4F5F5F4F4A317B
:10310000F7E25F0749F70E94F13B20E030E44CE131
:1031100056E40E94CE3D20E030EF4FE755E40E9498
:10312000CE3D9B01AC0166E676E686E69FE30E9413
:10313000CE3D6B017C016AEA73E08EE795E40E9464
:10314000960B44E050E0C701B6010E9435108CE0B8
:1031500090E080936240909363408EEF94E5ADE100
:10316000B2E48093184090931940A0931A40B09312
:103170001B4080E090E18093C9469093CA4680E866
:1031800090E08093C7469093C846C0922540D09265
:103190002640E0922740F092284080912447909169
:1031A0002547A0912647B091274710921E40809353
:1031B000484090934940A0934A40B0934B400091BF
:1031C0003447109135472091364730913747409129
:1031D000304750913147609132477091334783E0D7
:1031E0000E947F0D00913C4710913D4720913E4742
:1031F00030913F47409138475091394760913A4765
:1032000070913B4784E00E947F0D009144471091EC
:10321000454720914647309147474091404750915C
:103220004147609142477091434785E00E947F0D7E
:1032300000914C4710914D4720914E4730914F4798
:10324000409148475091494760914A4770914B4798
:1032500086E00E947F0D00915447109155472091C0
:103260005647309157474091504750915147609190
:1032700052477091534788E00E947F0D00915C4750
:1032800010915D4720915E4730915F4740915847CC
:103290005091594760915A4770915B4789E00E946D
:1032A0007F0D80911E42882319F08CE390E0B8DCFA
:1032B0006091604770916147809162479091634748
:1032C0000E943E0D8091284790912947A0912A475E
:1032D000B0912B4780934E4090934F40A093504025
:1032E000B0935140809164478093CB4681E08093B6
:1032F000CC4686E08093CF468093D0468091654748
:1033000090916647092E000CAA0BBB0B8093D14607
:103310009093D246A093D346B093D4468CE080934A
:1033200061408BE08093294088E08093210461E034
:103330008BE08DD98FE580931C4088E697E48093DD
:103340007B4590937C451092684780E095E480939C
:10335000394390933A4383E080936040E09017476D
:10336000F0901847E114F10409F4BFC087010F5F22
:103370001F4F27EFC22E26E4D22E80911547909141
:1033800016478E0D9F1D08171907C4F4C8019571C3
:1033900089839A83CE0101960E94B80DD6018D9340
:1033A0006D010F5F1F4FE9CF823009F017CE88E61D
:1033B00090E40E943B0888E690E40ECE4090F746E9
:1033C0005090F8466090F9467090FA468090FB461F
:1033D0009090FC46A090FD46B090FE46C090FF46FF
:1033E000D0900047E0900147F090024700910347DA
:1033F00010910447209105473091064740910747B7
:10340000509108476091094770910A4780910B4796
:1034100090910C47A0910D47B0910E478B879C87E8
:10342000AD87BE8780910F4790911047A0911147BB
:10343000B09112478F839887A987BA8740929F449B
:103440005092A0446092A1447092A2448092A344FE
:103450009092A444A092A544B092A644C092A744DE
:10346000D092A844E092A944F092AA440093AB44BD
:103470001093AC442093AD443093AE444093AF449A
:103480005093B0446093B1447093B2448B859C8553
:10349000AD85BE858093B3449093B444A093B54466
:1034A000B093B6448F819885A985BA858093D54617
:1034B0009093D646A093D746B093D846809167475D
:1034C00092D980911F42882341F1282F30E0209328
:1034D0004C4030934D408F5F90E08630F0F4FC011B
:1034E000E557FB4B10820196F8CF412C512C32014D
:1034F000812C912C5401C12CD12C760100E010E0DC
:10350000980140E050E0BA011B861C861D861E868D
:103510001F82188619861A8691CF409025405090B8
:10352000264060902740709028406091C946709175
:10353000CA4690E080E00E94F13B4B015C01209183
:1035400048403091494040914A4050914B40C3011E
:10355000B2010E94523CA50194010E94CE3D6093AD
:1035600048407093494080934A4090934B408EE28C
:10357000E82E80E4F82E9BE3C92E93E4D92E10E0C8
:1035800000E080914C4090914D400817190714F5C8
:10359000D7012D913D914D915D917D011D01B4E0CB
:1035A0002B1A3108C301B2010E94523CA5019401BB
:1035B0000E94CE3DF1016083718382839383802FCB
:1035C00071DAD6011D921D921D921D926D010F5F41
:1035D0001F4FD7CF84EC9CE08093CD469093CE468E
:1035E00086EC9CE08093E3469093E44681E08093F0
:1035F0001D4010922E4310922F4310923043109290
:1036000031439EE090930506909103069093030644
:103610001092B00098E0909302068093000690917B
:103620000006909300069091000692609093000629
:103630001092080690910C06916090930C0680936E
:103640000A067894C0902A40D0902B40E0902C40FD
:10365000F0902D40609146407091474090E080E0AE
:103660000E94F13BA70196010E94523C0E943B3E02
:1036700060932542709326421092914420E034E2F8
:1036800044E759E4C701B6010E94523C209118401A
:103690003091194040911A4050911B400E94CE3DFC
:1036A0000E943B3E6093B3437093B4438093B54311
:1036B0009093B6430BEC16E4F12CF801808188233B
:1036C000A1F18481893228F590E0FC01E752FF4B9B
:1036D00020812F3FF1F0FC01EE5FFE4BA081F0E274
:1036E000AF9FD0011124BC5F855D9E4BFC013081F2
:1036F000F0E0E0E0383028F4CD014096FC01E30F23
:10370000F11D9FB7F89412962C9380818860808376
:103710009FBF66EC7CE08091E646F11004C064EC4B
:103720007CE08091D0460E9469090A5E1F4FF1E05B
:10373000FF1239C0109206451092074510920845B5
:10374000109209450E94141180917A45882371F1E5
:1037500080917D4590E0892B51F463E773E08EE71B
:1037600095E40E940B0F1092674780E03CD860E020
:1037700070E080E090E40E943E0D2E96CDBFDEBF4B
:10378000DF91CF911F910F91FF90EF90DF90CF903D
:10379000BF90AF909F908F907F906F905F904F9071
:1037A0003F902F900895FF24F39487CF90E080E01E
:1037B000D2CFEF93FF93EEE7F5E415C0EF93FF93BD
:1037C000EEE7F5E43FC0EF93E0E660C0EF93FF93D0
:1037D000E5E1F6E408C0EF93FF93E5E1F6E432C0DB
:1037E000EF93E0E053C02F932FB72F938F939F93C6
:1037F000AF93BF936894CF93DF9320E0C485D8E064
:103800009689DF01A90FB21FA95ABF4F8C9120E4FE
:103810002C838A839F5F9F738D812589291302C022
:103820008F7D8D83968BDF91CF9116F00C94490B91
:10383000BF91AF919F918F912F912FBF2F91FF91AA
:10384000EF9118952F932FB72F938F939F93CF932B
:10385000DF93C485D8E08981988181FD0DC0C3893B
:1038600081E08C0F8F732489281731F0CE0FDF2F62
:1038700020E0D21F9F8B838BDF91CF919F918F91FF
:103880002F912FBF2F91FF91EF911895FF938F9359
:103890008FB78F93F8E08081848187FFFCCF85818B
:1038A0008F7B806885838F918FBF8F91FF91EF9180
:1038B00018951F920F920FB60F92112484E00E9468
:1038C000CE0B1F920F920FB60F9211248F939F93DE
:1038D000AF93BF938091334390913443A09135438C
:1038E000B09136430196A11DB11D8093334390934F
:1038F0003443A0933543B093364381E08093260B45
:10390000BF91AF919F918F910F900FBE0F901F901D
:1039100018950F930AE00FC00F9308E00CC00F93A7
:1039200006E009C00F9304E006C00F9302E003C055
:103930000F9300E000C00F920FB60F920BB60F92DC
:103940001F921124FF921F932F933F934F935F93E6
:103950006F937F938F939F93AF93BF93CF93DF9397
:10396000EF93FF93A2E5B0E4A00FB11DCD91DC91E0
:10397000000F0D5FA02FB0E0FC90109761F01F2D9D
:10398000169518F041F02296FBCFE991F991309706
:10399000B9F30995F5CFA02FB0E0FC92FF91EF911C
:1039A000DF91CF91BF91AF919F918F917F916F9157
:1039B0005F914F913F912F911F91FF901F900F901A
:1039C0000BBE0F900FBE0F900F9118951F920F9284
:1039D0000FB60F9211240BB60F922F923F924F9277
:1039E0005F926F927F928F929F92AF92BF92CF928F
:1039F000DF92EF92FF920F931F932F933F934F937A
:103A00005F936F937F938F939F93AF93BF93EF9346
:103A1000FF93CF93DF9300D000D0CDB7DEB781E026
:103A200080930D064090100650901106209132436D
:103A30002983E22FEE5F00914C4010914D40E0173A
:103A4000110619F014F0E150E01BF0E0E25EFF4BCC
:103A500080818093080680912E4390912F43A091FE
:103A60003043B09131430196A11DB11D80932E4387
:103A700090932F43A0933043B09331433981311158
:103A80006EC480912C4390912D4380932A43909350
:103A90002B438091C9469091CA4696958795F2012D
:103AA000E81BF90BE983FA83E0932C43F0932D4351
:103AB00080912843909129439C013695279536950E
:103AC0002795821B930B9F01F7FF03C0319521952A
:103AD0003109820F931F809328439093294360916B
:103AE000C7467091C84621E06817790708F020E0C2
:103AF0002093B744E981FA811E161F060CF0A1C07D
:103B000021E030E02093264330932743E091264381
:103B1000F09127432091104330911143E217F307AE
:103B200009F494C0409120424F5F4093204240915D
:103B30002042433030F010922042E0931243F09341
:103B4000134340912B42411110922B42209012437B
:103B5000309013436817790708F0AEC2F1E02F16D2
:103B6000310409F001C22130310509F403C280910A
:103B7000294290912A4201968093294290932A42A9
:103B800020911D40222309F484C00A9708F481C0C3
:103B900010921D401092294210922A4224EA32E4E7
:103BA00084E792E4A4E4B2E46CE272E4F0EEEF2E77
:103BB000F2E4FF2E50E040E0401751070CF049C0FE
:103BC000F9011082118212821382148215821682E8
:103BD0001782285F3F4FFC011082118212821382EC
:103BE000148215821682178208961C9211961C92D6
:103BF000119712961C92129713961C921397149673
:103C00001C92149715961C92159716961C9216974F
:103C100017961C9217971896FB0111921192119208
:103C20001192BF01F7011082118212821382148255
:103C3000158216821782F8E0EF0EF11C4F5F5F4F7E
:103C4000BBCF109226431092274360CF10922042A0
:103C50006ECF109218431092194310921A4310928B
:103C60001B4310921C4310921D4310921E4310924E
:103C70001F43109214431092154310921643109252
:103C80001743109222431092234310922443109220
:103C900025438091294290912A42209127423091D8
:103CA00028428217930739F420911D40211103C047
:103CB00021E02093924420912542309126428217A0
:103CC000930708F457C180911D40811153C1109290
:103CD000294210922A4244EA52E424E732E4A4E45E
:103CE000B2E4ECE2CE2EE2E4DE2E80EE92E48B83B0
:103CF0009C83F12CE12CE016F1060CF0C3C0FA0114
:103D0000408051806280738084809580A680B780D7
:103D1000485F5F4FC70163E0880F991F6A95E1F71D
:103D2000BC01655A7B4BFB014082518262827382E7
:103D300084829582A682B782F90140805180628098
:103D4000738084809580A680B780285F3F4FBC0138
:103D5000655D7B4BFB01408251826282738284826B
:103D60009582A682B782BA0168507109FB01108260
:103D70001182128213821482158216821782B9016F
:103D800068507109FB011082118212821382148221
:103D90001582168217824C9011965C90119712969C
:103DA0006C90129713967C90139714968C9014979E
:103DB00015969C9015971696AC9016971796BC90F2
:103DC00017971896BC0165507C4BFB0140825182CD
:103DD0006282738284829582A682B782BD01685016
:103DE0007109FB01108211821282138214821582E2
:103DF00016821782F60181909190A190B1906F0187
:103E000024013501770C4408542C3201BC01655360
:103E10007C4BFB0180829182A282B38244824582E4
:103E200046824782B60164507109FB0110821182FB
:103E300012821382EB81FC8160807180828093808A
:103E4000A480B580768167813896EB83FC838D5A98
:103E50009C4BFC016082718282829382A482B58233
:103E6000768367838B819C810897FC011082118285
:103E7000128213821482158216821782FFEFEF1AC4
:103E8000FF0A39CF8091144390911543A0911643B6
:103E9000B0911743AC01BD01770F440B542FBA0109
:103EA0008093B7439093B843A093B943B093BA4378
:103EB0004093BB434093BC434093BD434093BE43B8
:103EC000709118436091194350911A4340911B43DC
:103ED00030911C4320911D4390911E4380911F43BC
:103EE0007093C3436093C4435093C5434093C64308
:103EF0003093C7432093C8439093C9438093CA43E8
:103F0000109218431092194310921A4310921B43B7
:103F100010921C4310921D4310921E4310921F4397
:103F200010921443109215431092164310921743A7
:103F30008091224390912343A0912443B091254343
:103F40008093BF439093C043A093C143B093C243B7
:103F5000109222431092234310922443109225433F
:103F600081E08093914406C0232B21F010922043DE
:103F7000109221438091224390912343A0912443A6
:103F8000B09125430196A11DB11D809322439093CA
:103F90002343A0932443B0932543809120439091E1
:103FA00021430196809320439093214329813A81B4
:103FB000D9010E94963F6B017C01FF0CCC08DC2CE0
:103FC00076019B01AC016C2D7C2D8C2D9C2DA0903D
:103FD0001843B0901943C0901A43D0901B43E0900F
:103FE0001C43F0901D4300911E4310911F430E94FB
:103FF000A23F209318433093194340931A435093A0
:104000001B4360931C4370931D4380931E43909306
:104010001F43CD01BB0FAA0BBB0B40911443509122
:1040200015436091164370911743840F951FA61F87
:10403000B71F8093144390931543A0931643B093F6
:1040400017432092104330921143809132438F5F87
:104050008093324320914C4030914D40821713069B
:1040600019F014F0109232432496CDBFDEBFDF91D9
:10407000CF91FF91EF91BF91AF919F918F917F91E0
:104080006F915F914F913F912F911F910F91FF90F1
:10409000EF90DF90CF90BF90AF909F908F907F90E8
:1040A0006F905F904F903F902F900F900BBE0F90AE
:1040B0000FBE0F901F90189540912E4350912F43A3
:1040C000609130437091314380912142909122421E
:1040D000A0912342B091244284179507A607B70701
:1040E00048F480913843811105C081E08093924467
:1040F0008093384340912E4350912F436091304339
:10410000709131438091B3439091B443A091B543F2
:10411000B091B64384179507A607B70708F02ACFD2
:1041200010922E4310922F4310923043109231433D
:1041300081E080931D401092294210922A4244EA65
:1041400052E424E732E4A4E4B2E4ECE2CE2EE2E46A
:10415000DE2E80EE92E48B839C83F12CE12CE01622
:10416000F1060CF0ABC0C70163E0880F991F6A9598
:10417000E1F7BC01655A7B4BFB0110821182128270
:1041800013821482158216821782BC01655D7B4BF7
:10419000FB01108211821282138214821582168210
:1041A0001782FA0110821182128213821482158200
:1041B00016821782485F5F4FF901108211821282C6
:1041C00013821482158216821782285F3F4F4C900B
:1041D00011965C90119712966C90129713967C90A2
:1041E000139714968C90149715969C901597169685
:1041F000AC9016971796BC9017971896BC0165500F
:104200007C4BFB0140825182628273828482958260
:10421000A682B782BD0168507109FB01108211822C
:10422000128213821482158216821782F6018190FF
:104230009190A190B1906F0124013501770C440851
:10424000542C3201BC0165537C4BFB01808291826E
:10425000A282B3824482458246824782B60164507C
:104260007109FB011082118212821382EB81FC81A1
:104270006080718082809380A480B5807681678120
:104280003896EB83FC838D5A9C4BFC0160827182D3
:1042900082829382A482B582768367838B819C819C
:1042A0000897FC01108211821282138214821582F7
:1042B00016821782FFEFEF1AFF0A51CF7091184351
:1042C0006091194350911A4340911B4330911C4314
:1042D00020911D4390911E4380911F437093C343CF
:1042E0006093C4435093C5434093C6433093C74340
:1042F0002093C8439093C9438093CA4310921843B4
:104300001092194310921A4310921B4310921C43AF
:1043100010921D4310921E4310921F43809114432C
:1043200090911543A0911643B0911743AC01BD0184
:10433000770F440B542FBA018093B7439093B8433F
:10434000A093B943B093BA434093BB434093BC435B
:104350004093BD434093BE43E3CD1082F6C0398104
:10436000232F30E029833A83021713070CF46DCE14
:10437000E981FA813197E983FA83E557FB4B29807C
:104380003A80220C331C26E04216510434F381E0BB
:104390008083F101EC52FD4B6080718089809A80AE
:1043A00083E0880C991C8A95E1F7D401A052BD4B9B
:1043B000972D990F990B9301492F592F692F792F19
:1043C000892FAC901196BC9011971296CC901297B1
:1043D0001396DC9013971496EC9014971596FC9016
:1043E000159716960C91169717961C9117970E9481
:1043F000A23F2C9311963C93119712964C931297CF
:1044000013965C93139714966C93149715967C935C
:10441000159716968C93169717969C938091C9467C
:104420009091CA4696958795681A790AF401EC55D9
:10443000FD4BA0912A43B0912B4393010E94963FDC
:104440006B017C01FF0CCC08DC2C76019B01AC01DC
:104450006C2D7C2D8C2D9C2DA080B180C280D380B2
:10446000E480F580068117810E94A23F208331837A
:10447000428353836483758386839783F401EC5866
:10448000FD4BA0912C43B0912D4393010E94963F88
:104490006B017C01FF0CCC08DC2C76019B01AC018C
:1044A0006C2D7C2D8C2D9C2DA080B180C280D38062
:1044B000E480F580068117810E94A23F208331832A
:1044C000428353836483758386839783F401EC5B13
:1044D000FD4B9301D3010E94963F6B017C01FF0CC1
:1044E000CC08DC2C76019B01AC016C2D7C2D8C2D35
:1044F0009C2DA080B180C280D380E480F5800681AD
:1045000017810E94A23F20833183428353836483B7
:10451000758386839783E981FA81EE0FFF1FEE0F83
:10452000FF1FE45DFD4BE983FA83C301770CAA0BFF
:10453000BB0B4081518162817381840F951FA61F3F
:10454000B71F80839183A283B383F101EC52FD4BAB
:10455000408251827ACDCF92DF92EF92FF920F93F9
:104560001F93CF93DF9300D0CDB7DEB71092804575
:1045700010928145F8EECF2EF3E0DF2EE12CF12CE6
:10458000C0928245D0928345E0928445F092854561
:1045900048E551E440937E4550937F4580E698E09E
:1045A00080938A4590938B4585EA9FE080938C4564
:1045B00090938D4582E080938E4510928F451092A6
:1045C00090451092174610921846C0921946D09204
:1045D0001A46E0921B46F0921C46409315465093B3
:1045E000164640E058E040932146509322464EEA5A
:1045F0005FE040932346509324468093254681E014
:10460000809326461092274640E05BE167EB70E01E
:1046100080E08F5F863011F487E00BC07695679558
:1046200057954795413099E059079DE36907710512
:1046300080F794E09093B846482F4095242F21703E
:1046400030E044E0220F331F4A95E1F731E0816208
:10465000822B8093B74640E459E04093AC46509398
:10466000AD469093AF4686E08093B0461092B24636
:104670001092B3461092CB461092CC4623E0209382
:10468000CF463093D0468EE690E0A0E0B0E0809335
:10469000D1469093D246A093D346B093D44610927D
:1046A000D5461092D6461092D7461092D846109210
:1046B000D9461092DA461092DB461092DC461092F0
:1046C000E1461092E2462093E5463093E646809319
:1046D000E7469093E846A093E946B093EA461092E5
:1046E000EB461092EC461092ED461092EE46109278
:1046F000EF461092F0461092F1461092F24681E099
:1047000090E00090624002C0880F991F0A94E2F77F
:104710008093C9469093CA4655E0969587955A95D9
:10472000E1F78093C7469093C846809161400E940C
:1047300048088EEF90E08093194790931A478DE1D7
:1047400090E080931547909316478DE090E080931A
:1047500013479093144784E890E080931B4790930D
:104760001C478DEF91E080931D4790931E47109258
:1047700017471092184704E810E009831A83CE0106
:1047800001960E94B80D78019DE1E90EF11C8F3F62
:1047900009F4E3C000931747109318478DEFE8160C
:1047A00081E0F8065CF4E982FA82CE0101960E946B
:1047B000B80D8F3F09F4CDC00E946A0E82E080934D
:1047C000C7478BE280931F4782ED8093204781E1AA
:1047D0008093214721E02093224789E1809323475A
:1047E0008AE097EFA9E4B4E48093244790932547A7
:1047F000A0932647B093274780E090E0A0E7B3E47A
:104800008093284790932947A0932A47B0932B473A
:1048100080E090E0A8E4B2E480932C4790932D4789
:10482000A0932E47B0932F4786E696E2A6E9B3E41D
:104830008093304790933147A0933247B0933347EA
:104840008DEC9CECACE4B0E4809334479093354716
:10485000A0933647B093374746E656E266E173E4E5
:10486000409338475093394760933A4770933B479A
:1048700080933C4790933D47A0933E47B0933F477A
:10488000409340475093414760934247709343475A
:104890008093444790934547A0934647B09347473A
:1048A00041E75DE360E772E440934847509349472E
:1048B00060934A4770934B4780934C4790934D4782
:1048C000A0934E47B0934F47409350475093514762
:1048D0006093524770935347809354479093554742
:1048E000A0935647B0935747409358475093594722
:1048F00060935A4770935B4780935C4790935D4702
:10490000A0935E47B0935F478DEC9CECACE1B1E4C3
:104910008093604790936147A0936247B093634749
:104920002093644784E690E08093654790936647C0
:104930002093674710928047109281470F900F9005
:10494000DF91CF911F910F91FF90EF90DF90CF906B
:1049500008959DE1E90EF11C21CF87018DEFE81646
:1049600081E0F80609F009CF29CFCF93DF93CDB7C7
:10497000DEB7C95BD109CDBFDEBF88ED21E030E0F5
:1049800084BF2093620091E084BF909363009DE216
:1049900084BF9093800093E084BF9093600080E098
:1049A00090E22091650020FDCEC021E02093030A13
:1049B0008EEF8093260A8093270A9BE09093000A4B
:1049C00032E03093E6052093430A8093660A809391
:1049D000670A9093400A9093E705E0E0FBE027E048
:1049E0009EEF85E021839487158680837096E0345E
:1049F0003BE0F307B9F72FEF3FE02093AA0B30938A
:104A0000AB0B90E89093820B1092810B2EEF30E06D
:104A10002093AE0B3093AF0B98ED24E194BF20931D
:104A2000680091E19093800B809302069EE0909342
:104A3000050690E690930306809300068091B000EF
:104A4000887F85608093B0008091B200887F856008
:104A50008093B2008FED9EE280932C0B90932D0BF0
:104A600081E08093250B1092210B83E08093200B33
:104A700078940E948E16AE014B5C5F4F4FAB58AFDF
:104A8000BE01665F7F4F69AF7AAF8EE795E40E9403
:104A9000F609892B09F49EC08EE795E40E94D4099B
:104AA000D09037438A3009F0FBC4AD2DB0E0A65C4E
:104AB000BA4B1C92E0913A45EF53EC3308F082C0B8
:104AC0000E2E000CFF0BE959FA4D0C948D3F382A3D
:104AD000E225E225E225E225E225E225E225E2259E
:104AE000E225E225E225E225E225E225E225E2258E
:104AF000E225E225E225E225E225E225E225E2257E
:104B0000E225E225E225E225E225E225E225E2256D
:104B1000E225E225A925D525A126B626BF26D6263B
:104B2000E225A4289126F1263A284228A428E22545
:104B3000BE28E225D4280329D529E225EE29FB2920
:104B4000112AE225182A019709F02BCF83E00E9451
:104B5000CE0B72E0D71236C08BE395E40E94533A35
:104B6000843071F48BE280931F4781EB91E00E94C7
:104B7000480F66E87DE08EE795E40E940B0F22C0A7
:104B8000883069F0893029F010921F4790E080E06A
:104B9000EECF8BE580931F4783E993E0E8CF86E56E
:104BA00080931F4784E693E0E2CF82E0D8120AC0E8
:104BB0008BE395E40E94533A019709F0AFC081E07E
:104BC0008093804780E4AAE3B5E41D928A95E9F7D3
:104BD0001092374380919244882369F11092924455
:104BE00080917A45882339F18091294087FD19C049
:104BF0008932A4F4282F082E000C330BF901E75258
:104C0000FF4B90819F3F51F02E5F3E4BD901EC91BD
:104C1000B0E2EB9FF0011124FC5F918361E00E9400
:104C200027130E942C0960E08CEC0E94FB0861E0D5
:104C300084E40E94FB0880919144882311F40C9431
:104C4000133710929144F89420914C4030914D408C
:104C500090E080E0821793070CF02FC4FC01E55729
:104C6000FB4B4081411158C0FC01B3E0EE0FFF1F28
:104C7000BA95E1F7DF01A55ABB4B1C9211961C9225
:104C8000119712961C92129713961C9213971496D2
:104C90001C92149715961C92159716961C921697AF
:104CA00017961C92DF01A55DBB4B1C9211961C92BE
:104CB000119712961C92129713961C9213971496A2
:104CC0001C92149715961C92159716961C9216977F
:104CD00017961C92DF01A550BC4B1C9211961C929A
:104CE000119712961C92129713961C921397149672
:104CF0001C92149715961C92159716961C9216974F
:104D000017961C92E553FC4B10821182128213827B
:104D1000148215821682178201969CCF10928047CA
:104D200051CF92E0D9124ECF8BE395E40E94533AD3
:104D3000019721F481E08093814744CF109281470D
:104D400041CF8BE395E40E94503A6B017C0165E70B
:104D50007DE08EE795E40E94960B42E050E0C701AB
:104D6000B6010E94411062E77DE005CF8AE08C9396
:104D70006BE375E48EE795E40E94C00E23CFA3E0B9
:104D8000DA1220CF8BE395E40E94503A0E94363E1F
:104D90006B01CB010E9410166BE67DE08EE795E477
:104DA0000E94960BC6010E944D0F0CCF8BE395E439
:104DB0000E94533A8093204764E67DE08EE795E4B5
:104DC0000E94960B4091204750E070E060E02AE09E
:104DD0008EE795E40E94C70E8EE795E40E94080FC7
:104DE000F1CE60E270E08AE395E40E94AB3F009769
:104DF00011F40C94AB398C010A531544C80199275E
:104E000060E270E0855C9A4B0E94AB3FCC24C39477
:104E1000C00E009711F40C949E39FC01EA53F5443E
:104E20005F01602F81E00E94F9147C016A2D8C2DB6
:104E30000E9425152B013C016D2D81E08A0D0E94F9
:104E400025156BAF7CAF8DAF9EAFF7E0EF16F10489
:104E500008F038C0F701E15DF84D0C948D3F36271E
:104E60008627A427C227E027FE271C28209125405B
:104E7000309126404091274050912840C301B20113
:104E80000E94523C4B015C016091C9467091CA4638
:104E900090E080E00E94F13B9B01AC01C501B401B0
:104EA0000E94CE3D609348407093494080934A40B1
:104EB00090934B404092244750922547609226475A
:104EC000709227476DE57DE08EE795E40E94960B92
:104ED000C7010E94480F6BE57DE08EE795E40E94D4
:104EE000960B42E050E0C301B2010E94411069E517
:104EF0007DE08EE795E40E94960B42E050E06BADBA
:104F00007CAD8DAD9EAD0E9435105CCE0BAD1CAD61
:104F10002DAD3EADB301A20183E00E943A1640924E
:104F200030475092314760923247709233472BADF1
:104F30003CAD4DAD5EAD2093344730933547409343
:104F4000364750933747BECF0BAD1CAD2DAD3EADB0
:104F5000B301A20184E00E943A1640923847509271
:104F6000394760923A4770923B474BAD5CAD6DADAF
:104F70007EAD40933C4750933D4760933E477093CE
:104F80003F47A0CF0BAD1CAD2DAD3EADB301A2018F
:104F900085E00E943A164092404750924147609205
:104FA0004247709243476BAD7CAD8DAD9EAD609333
:104FB000444770934547809346479093474782CF35
:104FC0000BAD1CAD2DAD3EADB301A20186E00E943C
:104FD0003A16409248475092494760924A47709229
:104FE0004B478BAD9CADADADBEAD80934C47909320
:104FF0004D47A0934E47B0934F4764CF0BAD1CADC8
:105000002DAD3EADB301A20188E00E943A16409258
:1050100050475092514760925247709253472BAD80
:105020003CAD4DAD5EAD2093544730935547409312
:1050300056475093574746CF0BAD1CAD2DAD3EADF7
:10504000B301A20189E00E943A164092584750925B
:10505000594760925A4770925B474BAD5CAD6DAD5E
:105060007EAD40935C4750935D4760935E4770937D
:105070005F4728CF51E0D512A5CD0E94B8110E94FC
:105080001411A0CD60E270E08AE395E40E94AB3F8A
:105090000097F9F46D2D81E00E94F9148C0101153F
:1050A000110569F10130110591F160E57DE08EE7B0
:1050B00095E40E94960B68E47DE0012B09F45BCD3A
:1050C00042E050E0C301B2010E9441106CE47DE077
:1050D00052CDBC016A5375447B0181E00E94F914F2
:1050E0008C016D2D81E08E0D0E94F914BC01990F89
:1050F000880B990B0E94F33B2B013C01D0CF1092FF
:10510000CB4681E08093CC4610926447CECFC3015A
:10511000B2010E94363E6B01072E000CEE08FF081C
:10512000C092D146D092D246E092D346F092D44675
:1051300021E02093CB462093CC4620936447609394
:10514000654770936647B1CF8BE395E40E94533A6D
:10515000882389F099278034910514F08FE390E03B
:105160008093214762E47DE08EE795E40E94960BF0
:105170004091214729CE81E090E0F2CF8BE395E486
:105180000E94533A8F71809323476DE37DE08EE751
:1051900095E40E94960B809123478251990B0E94BF
:1051A000480F68E37DE0E7CC71E0D7120BCD66E6EF
:1051B00076E08EE795E40E940B0F86E190E00E9476
:1051C000E70D882389F0CE0101960E94BF0D8981E9
:1051D0009A8197FD09C091958195910989839A8358
:1051E000CE0101960E94420E68E376E08EE795E4D8
:1051F0000E940B0F68EC70E080E090E00E94300CA1
:105200000C940000DFCC81E0D812DCCC6EE276E0BA
:105210008EE795E40E940B0F86E190E00E94E70D77
:10522000811128C019821A826FE4CE0101960E9472
:105230001F0E81E090E089839A8365E4CE01019698
:105240000E941F0E82E090E089839A836DE4CE0174
:1052500001960E941F0E03E010E009831A836FEF8E
:10526000CE0101960E941F0E0F5F1F4F011592E0A5
:10527000190799F787E690E089839A8386E190E0A1
:105280008B839C83CE0101960E94420E0FE117E4AE
:1052900087E090E0D8016D918D017C01BFEFEB1AA2
:1052A000FB0A8DAB9EABCE01C5960E941F0EC701B7
:1052B0008A36910579F790E080E00E94E70D811130
:1052C00022C066E076E08EE795E40E94960B2AE025
:1052D00040E052E060E070E08EE795E40E94C70E87
:1052E00060EE75E08EE795E40E940B0F60E072E0DF
:1052F00090E080E00E9442106EED75E08EE795E44C
:105300000E94960B0EC0CE0101960E94BF0D8B81AC
:105310009C81019669F46DE875E08EE795E40E9442
:105320000B0F8EE795E40E94080F6DE076E023CC2A
:1053300060E875E08EE795E40E94960B4B815C81F6
:1053400070E060E02AE08EE795E40E94C70E0981D4
:105350001A8117FF03C01195019511090450110915
:1053600062E775E08EE795E40E94960BC8010E9403
:10537000480F6BE675E08EE795E40E94960B8981F5
:105380009A8197FF06C060E675E08EE795E40E947B
:10539000960B8EE795E40E94080FB80187E090E035
:1053A0000E9442106EE575E0A9CFF2E0DF120ACC50
:1053B0001092674780913B45813319F481E08093D7
:1053C0006747809167470E94F3138091674769E2BE
:1053D0007DE08111D0CB69E17DE0CDCB2224239407
:1053E000D210F0CB6EE07DE08EE795E40E94960B44
:1053F0006AE971E4BFCC12E0312ED310E3CB1092F6
:10540000224780913B45813319F481E08093224704
:105410008091224768E07DE08111ADCB61E07DE0C5
:10542000AACBCC24C39463EF7CE0DC10CBCBA3CB22
:10543000EE24E394DE10C6CB69ED7CE08EE795E4C4
:105440000E940B0F0E946A0EEFE9F4E41192119290
:105450001192119227EB34E42E173F07B9F71092FF
:10546000D5461092D6461092D7461092D846AACB6F
:1054700031E0D312A7CB05E716E0F801F490FF2046
:1054800061F0FAE0FF1203C08DE00E94B40B8F2D93
:105490000E94B40B0F5F1F4FF0CF63E776E06BCB3A
:1054A000BFE3BD1508F496CBED2DF0E0E65CFA4BBA
:1054B0008083D394D09237438DCB0BEC16E4F12C40
:1054C000E12CCC24C394D12CA6E1BA2EF801818121
:1054D000882309F477C080818823D1F184818932BF
:1054E00028F590E0FC01E752FF4B40814F3FF1F07F
:1054F000FC01EE5FFE4B2081F0E22F9F9001112412
:105500003C5F855D9E4BDC018C91F0E0E0E08830F3
:1055100020F4F9017096E80FF11D9FB7F894D901B6
:1055200012964C938081886080839FBF64EC7CE0FE
:105530008091D046E114F10421F066EC7CE080918A
:10554000E6460E9469093EC0EE24E394F12CBECFEA
:1055500085818932A0F590E0FC01E55DFE4B20815C
:105560002F3F69F18E5F9E4BDC018C91E82FE29515
:10557000EE0FE07EE20FF0E0E05FFB4F9081917F65
:10558000908390E0FC0134E0EE0FFF1F3A95E1F7C5
:10559000422F50E0160102C0220C331C2A95E2F77C
:1055A0002382880F991FFC01EE5AFF4B440F551FB1
:1055B0000190F081E02DE40FF51F10821182D801D7
:1055C00011961C92BE9CF001BF9CF00D11249F010E
:1055D0002553394BF90186859785A089B189892B97
:1055E0008A2B8B2BC1F04685578560897189F8011C
:1055F00082859385A485B585840F951FA61FB71F47
:1056000082879387A487B587D9011E961D921D9224
:105610001D921C9251970A5E1F4FEA94EF2809F0E1
:1056200093CF78942091C3433091C4434091C543B4
:105630005091C6436091C7437091C8438091C9435C
:105640009091CA438090BF439090C043A090C143C3
:10565000B090C2431091B7430091B8433090B94322
:105660002090BA43C090BB436096CFAE6097D09075
:10567000BC436296DFAE6297E090BD436496EFAEA6
:105680006497F090BE436696FFAE6697C090B743AE
:105690006A96CFAE6A97D090B8436E96DFAE6E979B
:1056A000E090B943A096EFAEA097F090BA43A496CD
:1056B000FFAEA497C090BB43A896CFAEA897D0905A
:1056C000BC432C96DFAE2C97E090BD43AC96EFAE7A
:1056D000AC97F090BE43AE96FFAEAE97C090BF437E
:1056E000D090C043E090C143F090C2432396CCAE2B
:1056F000DDAEEEAEFFAE2397C090BF43D090C04367
:10570000E090C143F090C2432796CCAEDDAEEEAE42
:10571000FFAE27970E946B3E6B017C01C501B4016F
:105720000E94F33B9B01AC01C701B6010E94CE3D34
:105730006B017C01212F302F432D522D60966FADD0
:10574000609762967FAD629764968FAD6497669618
:105750009FAD66970E94673E4B015C016A962FAD34
:105760006A976E963FAD6E97A0964FADA097A496A0
:105770005FADA497A8966FADA8972C967FAD2C9798
:10578000AC968FADAC97AE969FADAE970E94673E3C
:105790009B01AC01C501B4010E94523C4B015C016C
:1057A00023966CAD7DAD8EAD9FAD23970E94F33BEC
:1057B0009B01AC01C501B4010E94CE3D4B015C01CF
:1057C00027966CAD7DAD8EAD9FAD27970E94F33BC4
:1057D0009B01AC01C501B4010E94CE3D9B01AC010F
:1057E000C701B6010E94663D0E94003FC09048403C
:1057F000D0904940E0904A40F0904B406996CCAE42
:10580000DDAEEEAEFFAE6997A70196010E94523C55
:105810006D966CAF7DAF8EAF9FAF6D976093B844C0
:105820007093B9448093BA449093BB44E0904C4049
:10583000F0904D406F96EEAEFFAE6F978090BF43F5
:105840009090C043A090C143B090C2436091B343D5
:105850007091B4438091B5439091B6430E94F13B5F
:105860006B017C016F96AEADBFAD6F971196A50130
:1058700094010E942F3D0E94F33B9B01AC01C701A4
:10588000B6010E94CE3DA3966CAF7DAF8EAF9FAFA9
:10589000A397F090B744CB57DF4FF882C558D0405C
:1058A000C0904E40D0904F40E0905040F09051401A
:1058B000CA57DF4FC882D982EA82FB82C658D040DD
:1058C000C0902A40D0902B40E0902C40F0902D408A
:1058D000AB96CCAEDDAEEEAEFFAEAB972FE934E4C7
:1058E00061962EAF3FAF61974BE353E463964EAFA3
:1058F0005FAF639763E974E425966EAF7FAF25973A
:1059000088EE94E421968EAF9FAF2197ABE9B3E484
:10591000AF96AEAFBFAFAF97E3E8F3E4AD96EEAFAF
:10592000FFAFAD972EE230E4E1962EAF3FAFE197A7
:105930004CEB54E465964EAF5FAF6597312C212C4C
:105940006F96CEACDFAC6F972C143D040CF0EDC419
:105950008101B3E0000F111FBA95E1F7F801E55A94
:10596000FB4BD080C657DF4FD882CA58D040E18069
:10597000C557DF4FE882CB58D040F280C457DF4F85
:10598000F882CC58D040C380C357DF4FC882CD586F
:10599000D040D480C257DF4FD882CE58D040E58067
:1059A000C157DF4FE882CF58D040F680C057DF4F55
:1059B000F882C059D040C780CF56DF4FC882C15946
:1059C000D040AF96AEADBFADAF97CD90DD90ED902E
:1059D000FD90AF96AEAFBFAFAF972B96CCAEDDAE1E
:1059E000EEAEFFAE2B97F801E55DFB4BC080CE56C7
:1059F000DF4FC882C259D040D180CD56DF4FD88208
:105A0000C359D040E280CC56DF4FE882C459D04021
:105A1000F380CB56DF4FF882C559D040C480CA56B8
:105A2000DF4FC882C659D040D580C956DF4FD882D3
:105A3000C759D040E680C856DF4FE882C859D040E9
:105A4000F780C756DF4FF882C959D040AD96AEAD4A
:105A5000BFADAD97CD90DD90ED90FD90AD96AEAF22
:105A6000BFAFAD97E596CCAEDDAEEEAEFFAEE5973F
:105A7000C090BF43D090C043E090C143F090C24378
:105A8000E996CCAEDDAEEEAEFFAEE997D090B7436F
:105A9000C656DF4FD882CA59D040E090B843C556A9
:105AA000DF4FE882CB59D040F090B943C456DF4F66
:105AB000F882CC59D040C090BA43C356DF4FC88259
:105AC000CD59D040D090BB43C256DF4FD882CE597B
:105AD000D040E090BC43C156DF4FE882CF59D04060
:105AE000F090BD43C056DF4FF882C05AD040C090FE
:105AF000BE43CF55DF4FC882C15AD04098012553CD
:105B00003C4B7901D901BC91CE55DF4FB883C25AC5
:105B1000D040F901F181CD55DF4FF883C35AD04011
:105B2000D9011296BC91CC55DF4FB883C45AD040EE
:105B3000F901F381CB55DF4FF883C55AD040D90125
:105B40001496BC91CA55DF4FB883C65AD040F901AC
:105B5000F581C955DF4FF883C75AD040D901169651
:105B6000BC91C855DF4FB883C85AD040F901F781BE
:105B7000C755DF4FF883C95AD0402091BF433091B9
:105B8000C0434091C1435091C243ED962CAF3DAF0D
:105B90004EAF5FAFED974091BF435091C0436091CE
:105BA000C1437091C243C358DF4F488359836A830E
:105BB0007B83CD57D040E196AEADBFADE1976D91FF
:105BC0007D918D919D91E196AEAFBFAFE197A79684
:105BD0006CAF7DAF8EAF9FAFA797D801A550BC4BE0
:105BE0002C9111963C91119712964C911297139605
:105BF0005C91139714966C91149715967C91159758
:105C000016968C91169717969C918090BF43909012
:105C1000C043A090C143B090C243F701F081C65584
:105C2000DF4FF883CA5AD040D7011196BC91C555B1
:105C3000DF4FB883CB5AD040F701F281C455DF4F14
:105C4000F883CC5AD040D7011396BC91C355DF4F8F
:105C5000B883CD5AD040F701F481C255DF4FF883A5
:105C6000CE5AD040D7011596BC91C155DF4FB883AD
:105C7000CF5AD040F701F681C055DF4FF883C05BA3
:105C8000D040D7011796BC91CF54DF4FB883C15B8A
:105C9000D040F701F081CE54DF4FF883C25BD04093
:105CA000D7011196BC91CD54DF4FB883C35BD04070
:105CB000F701F281CC54DF4FF883C45BD040D701A9
:105CC0001396BC91CB54DF4FB883C55BD040F7012E
:105CD000F481CA54DF4FF883C65BD040D7011596D4
