:10020000DCC6000004C7000002C700000C94FC1C00
:10021000FEC60000FCC60000FAC60000F8C60000DA
:100220000C943B1DF4C60000F2C60000F0C60000AE
:10023000EEC60000ECC60000EAC60000E8C60000FA
:10024000E6C60000E4C60000E2C60000E0C600000A
:10025000DEC600000C948E1C0C94891C0C94931C1C
:100260000C94321DD4C600000C94891DD0C6000029
:10027000CEC60000CCC600000C94351D0C94041DA5
:10028000C6C60000C4C60000C2C600000C942C1DE7
:10029000BEC60000BCC60000BAC60000B8C600005A
:1002A000B6C60000B4C60000B2C60000B0C600006A
:1002B000AEC600000C94381D0C942F1DA8C600007B
:1002C000A6C60000A4C60000A2C60000A0C600008A
:1002D0009EC600000C94811C0C947C1C0C94861C03
:1002E00096C6000094C6000092C6000090C60000AA
:1002F0008EC6000005A84CCDB2D44EB93836A9023E
:100300000C50B9918688083CA6AAAA2ABE00000013
:10031000803F4E414E494E495459494E46CDCCCC72
:100320003D0AD7233C17B7D13877CC2B329595E6C9
:10033000241FB14F0A000020410000C84200401CA9
:100340004620BCBE4CCA1B0E5AAEC59D744E6F20D3
:10035000454550524F4D20636F6E666967004C6F84
:100360006164656420454550524F4D20636F6E6651
:100370006967004E6F2074656D7065726174757287
:10038000652073656E736F72732064657465637442
:1003900065642C2064697361626C696E67207465A2
:1003A0006D7065726174757265005265666572651F
:1003B0006E636520766F6C746167652063616C693C
:1003C00062726174696F6E3A20002000204E6F6483
:1003D000653A20002047726F75703A200039313538
:1003E0004D487A003836384D487A003433334D481A
:1003F0007A0020467265713A200052464D363943E4
:100400005720004F70656E456E657267794D6F6E4F
:1004100069746F722E6F726700656D6F6E5478200D
:10042000563420434D20436F6E74696E756F75733B
:10043000204D6F6E69746F72696E672056004A5363
:100440004F4E20466F726D6174204F6666004A53AE
:100450004F4E20466F726D6174206F6E00524620C1
:100460006F6666005246206F6E0074656D705F6542
:100470006E61626C65203D200070756C7365207044
:100480006572696F64203D200070756C7365732020
:100490003D2000646174616C6F67203D2000693607
:1004A0004C656164203D2000693643616C203D202D
:1004B0000069354C656164203D2000693543616CFD
:1004C000203D200069344C656164203D2000693482
:1004D00043616C203D200069334C656164203D2000
:1004E00000693343616C203D200069324C656164D2
:1004F000203D2000693243616C203D200069314C71
:10050000656164203D2000693143616C203D20001D
:10051000617373756D656456203D20007643616C90
:10052000203D200043616C6962726174696F6E3AAC
:10053000002064426D002C20002C204E6F6465204A
:1005400000204D487A2C2047726F75702000426160
:100550006E64200053657474696E67733A000A0014
:10056000202868696464656E292E002062797465AC
:1005700073002C20446174612073697A653A20000D
:10058000205369676E61747572653A20004E6F2062
:100590006461746120626C6F636B20666F756E645A
:1005A000202D20454550524F4D206170706561727D
:1005B0007320746F20626520666F726D617474655C
:1005C0006420746F204F454D205374616E646172D6
:1005D000642062757420756E757365642E000A0060
:1005E0002062797465732C206E6F7420666F726D53
:1005F000617474656420746F204F454D205374619D
:100600006E646172640053697A653A2000446F6ECB
:10061000652E204E657720636F6E66696720736173
:1006200076656420746F20454550524F4D005361EC
:1006300076696E672E2E2E00536B65746368207783
:10064000696C6C206E6F77207265737461727420B0
:100650007573696E672064656661756C7420636F7D
:100660006E6669672E00526573657474696E672ED5
:100670002E2E0020000A417661696C61626C652053
:10068000636F6D6D616E64733A0A6C09092D206C9D
:10069000697374207468652073657474696E677318
:1006A0000A7209092D20726573746F726520736B6D
:1006B000657463682064656661756C74730A730998
:1006C000092D20736176652073657474696E677394
:1006D00020746F20454550524F4D0A7609092D2050
:1006E00073686F77206669726D77617265207665D1
:1006F0007273696F6E0A7A09092D207A65726F200C
:10070000656E657267792076616C7565730A780924
:10071000092D20657869742C206C6F636B20616EE5
:100720006420636F6E74696E75650A3F09092D2038
:1007300073686F77207468697320746578742061BA
:100740006761696E0A0A773C783E09092D20747545
:10075000726E2052464D20576972656C6573732026
:1007600064617461206F66663A2078203D203020F5
:100770006F72206F6E3A2078203D20310A623C6E05
:100780003E09092D2073657420722E662E20626149
:100790006E64206E203D20612073696E676C652059
:1007A0006E756D6572616C3A2034203D20343333B0
:1007B0004D487A2C2038203D203836384D487A2C48
:1007C0002039203D203931354D487A20286D617916
:1007D00020726571756972652068617264776172F3
:1007E00065206368616E6765290A703C6E6E3E091C
:1007F000092D207365742074686520722E662E2082
:10080000706F7765722E206E6E202D20616E2069CC
:100810006E74656765722030202D2033312072653B
:1008200070726573656E74696E67202D313820644F
:10083000426D20746F202B31332064426D2E204492
:10084000656661756C743A20323520282B37206438
:10085000426D290A673C6E6E6E3E092D20736574E9
:10086000204E6574776F726B2047726F7570202011
:100870006E6E6E202D20616E20696E7465676572E4
:1008800020284F454D2064656661756C74203D20BD
:10089000323130290A6E3C6E6E3E09092D20736597
:1008A00074206E6F6465204944206E3D20616E2087
:1008B000696E746567657220287374616E64617215
:1008C00064206E6F646520696473206172652031F5
:1008D0002E2E3630290A0A643C78782E783E092D6F
:1008E0002078782E78203D206120666C6F617469D5
:1008F0006E6720706F696E74206E756D6265722010
:10090000666F722074686520646174616C6F6767DC
:10091000696E6720706572696F640A633C6E3E0998
:10092000092D206E203D203020666F72204F4646F4
:100930002C206E203D203120666F72204F4E2C20DF
:10094000656E61626C6520766F6C746167652C20E2
:1009500063757272656E74202620706F77657220E1
:10096000666163746F722076616C75657320746F55
:100970002073657269616C206F7574707574206680
:100980006F722063616C6962726174696F6E2E2090
:100990000A6A3C6E3E09092D207475726E204A5316
:1009A0004F4E2053657269616C20666F726D617481
:1009B000206F6E20283129206F72206F66662028F4
:1009C00030292E0A663C78783E09092D2078782057
:1009D0003D20746865206C696E652066726571756E
:1009E000656E637920696E20487A3A206E6F726D69
:1009F000616C6C7920656974686572203530206F90
:100A0000722036300A6B3C783E203C79792E793E54
:100A1000203C7A7A2E7A3E0A09092D2043616C69BE
:100A2000627261746520616E20616E616C6F6775C2
:100A30006520696E707574206368616E6E656C3ACE
:100A40000A0909202078203D20612073696E676CB7
:100A500065206E756D6572616C3A2030203D2076A0
:100A60006F6C746167652063616C6962726174693F
:100A70006F6E2C2031203D206374312063616C69DE
:100A800062726174696F6E2C2032203D2063743273
:100A90002063616C6962726174696F6E2C20657489
:100AA000630A0909202079792E79203D206120668A
:100AB0006C6F6174696E6720706F696E74206E75FB
:100AC0006D62657220666F722074686520766F6C47
:100AD000746167652F63757272656E742063616CF3
:100AE0006962726174696F6E20636F6E7374616E98
:100AF000740A090920207A7A2E7A203D2061206626
:100B00006C6F6174696E6720706F696E74206E75AA
:100B10006D62657220666F7220746865207068610E
:100B200073652063616C6962726174696F6E2066BF
:100B30006F72207468697320632E742E20287A20C7
:100B40006973206E6F74206E65656465642C206F18
:100B5000722069676E6F72656420696620737570B4
:100B6000706C6965642C207768656E2078203D2064
:100B700030290A09092020652E672E206B3020328B
:100B800035362E380A0909202020202020206B31FC
:100B90002039302E3920322E30300A613C78782EC0
:100BA000783E092D2078782E78203D206120666CD3
:100BB0006F6174696E6720706F696E74206E756DF9
:100BC00062657220666F7220746865206173737548
:100BD0006D656420766F6C74616765206966206E50
:100BE0006F20612E632E20697320646574656374C1
:100BF00065640A6D3C783E203C79793E092D206D74
:100C0000657465722070756C736520636F756E74A2
:100C1000696E673A0A090920202078203D2030209B
:100C2000666F72204F46462C2078203D203120668A
:100C30006F72204F4E2C203C79793E203D20616E12
:100C400020696E746567657220666F7220746865CE
:100C50002070756C7365206D696E696D756D20709F
:100C60006572696F6420696E206D732E202879206B
:100C70006973206E6F74206E65656465642C206FE7
:100C8000722069676E6F726564207768656E207880
:100C9000203D2030290A743C783E09092D207475C6
:100CA000726E2074656D7065726174757265206D09
:100CB0006561737572656D656E74206F6E206F72FD
:100CC000206F663A2078203D2030206F72206F6EB2
:100CD0003A2078203D20310A00456E657267792000
:100CE00076616C7565732073657420746F207A6506
:100CF000726F00436F6E74696E75696E672E2E2E6B
:100D0000005246206F6666005246206F6E00456DA9
:100D10006F6E5478563420560054656D706572615C
:100D200074757265206F66660054656D70657261DA
:100D300074757265206F6E002064426D0070203DF6
:100D400020004E6F646520006F666600206D7300A2
:100D500050756C7365733A20002000200043616C6D
:100D60003A206B0047726F75702000467265713AC9
:100D70002000207300646174616C6F67207065727D
:100D8000696F643A2000204D487A00005EBCE26141
:100D90003FDD83C29C7E20A3FD1F41009D23BE46F4
:100DA000DB65F88C11AF32CA57E9742C7066363A9D
:100DB000002C7066353A002C7066343A002C706650
:100DC000333A002C7066323A002C7066313A002CAF
:100DD00049363A002C49353A002C49343A002C491E
:100DE000333A002C49323A002C49313A002C7075C4
:100DF0006C73653A002C54333A002C54323A002C70
:100E000054313A002C45363A002C45353A002C45F1
:100E1000343A002C45333A002C45323A002C453107
:100E20003A002C50363A002C50353A002C50343AC7
:100E3000002C50333A002C50323A002C50313A00FA
:100E40002C56726D733A004D53473A007D002C22A8
:100E500070756C7365223A002C225433223A002CB0
:100E6000225432223A002C225431223A002C2245BC
:100E700036223A002C224535223A002C22453422D3
:100E80003A002C224533223A002C224532223A00E5
:100E90002C224531223A002C225036223A002C22B4
:100EA0005035223A002C225034223A002C22503362
:100EB000223A002C225032223A002C225031223A7F
:100EC000002C2256726D73223A007B224D5347222A
:100ED0003A002056004143206D697373696E6720A4
:100EE0002D204170706172656E7420506F7765724D
:100EF0002063616C6320656E61626C65642C2061A7
:100F00007373756D696E672000414320707265735D
:100F1000656E74202D205265616C20506F7765726C
:100F20002063616C6320656E61626C65640020659E
:100F30006E61626C65642E0054656D7065726174DB
:100F4000757265206D6561737572656D656E74206F
:100F500069730053656E736F72206D6179206E6FD7
:100F6000742062652072656C6961626C65002000A6
:100F700030002C2077697468206164647265737333
:100F800065732E2E2E0054656D70657261747572D6
:100F9000652053656E736F727320666F756E642083
:100FA0003D20000A0000080A400CFFC000C000FFFE
:100FB000FF01040603000300D22211241FBECFEF5D
:100FC000CDBFDFE7DEBF11E4A0E0B0E4E8EBFFE770
:100FD00000E00BBF02C007900D92A437B107D9F70C
:100FE00026E4A4E7B1E401C01D92A43EB207E1F7F4
:100FF00017E0CDEDD7E004C02197FE010E94A23F8B
:10100000CC3DD107C9F70E94DB240C94DA3FF8C825
:10101000CF93DF93282F30E09FEF893220F5E9014D
:10102000CD51DF4B98819F3FE9F0F901E654FF4B2A
:10103000A08140E2A49FD0011124BC5FF901EF56CA
:10104000FF4BE081E830C0F5AD01405F5F4FE40F3A
:10105000F52FF11D4FB7F89412969C939081977FCE
:1010600090834FBF988190931946893240F526545A
:101070003F4BF9018081F4E08F9FC00111248093E0
:101080001A4690931B4610922446109226461092C0
:101090002546109223461092224610922146109225
:1010A000204610921F4610921E4610921D46109226
:1010B0001C46DF91CF910895F0E0E0E0CBCF8CEFBC
:1010C00093E0DDCF90911946E0911A46F0911B46CE
:1010D000292F209580FF15C0F89481818223818378
:1010E0008081892B808380E58A95F1F78181982B17
:1010F00091837894A9E4B1E01197F1F700C0000062
:101100000895F8948181822381838081892B808353
:10111000A5E8B1E01197F1F700C000008181982B9C
:1011200091837894B8E2BA95F1F7089580911946C1
:10113000E0911A46F0911B46F8949081982B908389
:101140002181382F30952323218398E19A95F1F757
:1011500090819323908390E59A95F1F7928178940A
:10116000EDE3F1E03197F1F700C00000982381E052
:1011700009F480E00895FF920F931F93CF93DF93BC
:10118000F82E062FC8E0D0E011E081E09F2D9123DA
:1011900009F480E097DF110F2197B9F7011116C00C
:1011A000F894E0911A46F0911B469081809119467F
:1011B000809589238083E0911A46F0911B469181A6
:1011C000809119468095892381837894DF91CF910E
:1011D0001F910F91FF90089580911946E0911A4652
:1011E000F0911B46F8949081282F209592239083AC
:1011F00078943DE7315059F190E19A95F1F7928159
:101200009823C1F3F8949181922391839081982B34
:1012100090837894AFE3BBE01197F1F700C0000032
:10122000F894908192239083A3EAB1E01197F1F7AB
:1012300000C000009281982381E009F080E078945A
:10124000EBE9F9E03197F1F700C00000089580E084
:101250000895893260F590E0FC01EF56FF4BE08184
:10126000EF3F29F186549F4BDC018C9190E0DC012B
:10127000AA0FBB1FAE5ABF4B2D913C9121153105D2
:10128000B1F04E2F50E0440F551F240F351FD901E8
:101290006D937C93E05FA5E0880F991FAA95E1F715
:1012A000E80FF0E0FC5F8081887F82608083089592
:1012B0002D9A08950000809364098091630987FF47
:1012C000FCCF809164090895CF93C62F2D98806834
:1012D000F1DF8C2FEFDFCF91EBCFCF932D98EADFAB
:1012E00080E0E8DFC82FE4DF8C2FCF910895CF9303
:1012F0009091D744981791F0C82F81E0EEDF837E5C
:10130000682F6C2B81E0E0DF8091D744811104C00D
:1013100087E2E3DF87FFF8CFC093D744CF910895EA
:1013200010929644109294441092954410929244D4
:1013300010929344109291441092904488E2CDDF31
:1013400082FF06C08DE3C9DF682F64608DE3BCDFD8
:1013500080E1CDCFAF92BF92CF92DF92EF92FF921A
:101360000F931F93CF93DF936C017B018B01040FCD
:10137000151FEB015E01AE18BF08C017D10759F069
:101380006991D601ED91FC910190F081E02DC601AB
:101390000995892B79F7C501DF91CF911F910F91A5
:1013A000FF90EF90DF90CF90BF90AF900895FC0139
:1013B00055894689252F30E0842F90E0821B930BBE
:1013C000541710F0CF96089501970895FC01938962
:1013D0008489981761F0A489AE0FBF2FB11D57966D
:1013E0008C9194899F5F9F73948B90E008958FEF09
:1013F0009FEF0895FC0193898489981731F08489BF
:10140000E80FF11D878990E008958FEF9FEF089511
:10141000FC0193892489892F90E0805C9F4F821B77
:1014200091098F7399270895CF93DF93EC01E88199
:10143000F9810680F781E02D0995EC85FD8586818F
:1014400016828581158280E484838C898B8B1A8A2D
:10145000DF91CF9108958F929F92AF92BF92FF92AA
:101460000F931F93CF93DF938C014A015B01D22F1F
:10147000C32FDC0152968C91529780FF07C0ED91EB
:10148000FC910288F389E02DC8010995D11101C0B2
:10149000D3E0FD2EE894F2F8DC2FD095D07CB1E6B5
:1014A0008B16B3EE9B06B6E1AB06B10428F0D26012
:1014B000B694A7949794879460E078ED88EB95E0D4
:1014C000A50194010E944A3DC9012034310510F460
:1014D00080E490E03C2F3B72D7FD30684D2F487C74
:1014E00030FD41605FB7F894D8011C96ED91FC91F6
:1014F0001682F7828087918735FF8FC04F7781E012
:1015000084878FEF85873F7D3583D683F8012189D6
:10151000C08986859785FC0133E0239FE00DF11D8E
:101520001124659174912C1708F059C0272F46FF9C
:1015300076C0793288F430E0F901ED51FF4BA0819B
:10154000AF3F51F026543F4BF901308120E2329FEA
:10155000F0011124FC5FA18347FF2AC021E0270F7F
:10156000293230F530E0F901ED51FF4BD081DF3FFA
:10157000F9F0F901E654FF4BA081F0E2AF9FD001F2
:101580001124BC5F2F563F4BF9011081F0E0E0E0E1
:10159000183030F49D01205F3F4FF901E10FF11D3C
:1015A0003FB7F8941296DC932081286020833FBFD8
:1015B00040FF15C023E0270F293288F430E0F901FD
:1015C000ED51FF4B40814F3F51F026543F4BD90125
:1015D000EC91B0E2EB9FF0011124FC5F4183FC0130
:1015E00023E0C29FE00DF11D112431962591349125
:1015F000F901FF27EE51FA4F9081832F80958923BF
:10160000682B60835FBFDF91CF911F910F91FF9097
:10161000BF90AF909F908F900895148674CF342F11
:10162000307509F499CF793208F096CF30E0F9019E
:10163000ED51FF4BD081DF3F09F48ECFF901E65425
:10164000FF4BA081E0E2AE9FD0011124BC5F2F567A
:101650003F4BF9011081F0E0E0E0183030F49D01DB
:10166000205F3F4FF901E10FF11D3FB7F89412964B
:10167000DC932081286020833FBF6ECFFC010FB632
:1016800007FE04C0809111018823A9F0A485B585C7
:1016900014968C91149785FF0EC0958986899817AA
:1016A00039F015968C9115978F7D15968C9308952A
:1016B000E8940C949E1C08950F931F93CF93DF938F
:1016C000EC018A89982F91609A8B2D899E89291324
:1016D0000AC0EC85FD85948195FF05C081FD0DC094
:1016E00080E4848312C0062F1D891F5F1F738E89BB
:1016F000811315C0CE01C2DFFACF85818F77806458
:1017000090E49483EC85FD858583EC85FD8562837B
:1017100081E090E0DF91CF911F910F910895ED89C5
:10172000EC0FFD2FF11DE95AFF4F00831D8BEC8557
:10173000FD858A8981FF09C085818F77806690E465
:101740009483EC85FD858583E3CF85818062FBCF23
:10175000EF92FF920F931F93CF93DF938C017B0146
:10176000D0E0C0E0F701EC0FFD1F6491662331F07B
:10177000C801A2DF892B11F02196F4CFCE01DF91B1
:10178000CF911F910F91FF90EF900895682F8EEDEC
:1017900094E492CFCF93DF93EC018A8980FF0BC052
:1017A000EC85FD85858185FD03C0848186FD03C0B0
:1017B000CE0164DFF5CFDF91CF91089581E00895E8
:1017C0000F98079A20E533EC93E0179A44E1F9016A
:1017D0003197F1F74150D9F7482F179AF90131970E
:1017E000F1F7179A59E0F9013197F1F75150D9F70C
:1017F000415099F7915049F7E7CF9FB7F894E0919E
:101800002A0BF0912B0B8091260B2091B94230913D
:10181000BA424091BB425091BC429FBF80FF08C07A
:10182000EC3E8CE2F80720F42F5F3F4F4F4F5F4FA5
:101830000F0116940794169407941694079416941F
:101840000794F00116940794E00DF11D1694079487
:10185000102C169401181694010C16940118169465
:10186000010C1694011816941694010C1124E01919
:10187000F109A8EEB3E00E943A3D6E0F7F1F811D73
:10188000911D08958F929F92AF92BF92CF92DF9257
:10189000EF92FF926B017C01B0DF4B015C01C11440
:1018A000D104E104F104B1F0A8DF681979098A09CB
:1018B0009B09683E73408105910588F321E0C21AB7
:1018C000D108E108F10888EE880E83E0981EA11C7B
:1018D000B11CE5CFFF90EF90DF90CF90BF90AF901D
:1018E0009F908F9008952FB7F8946091B9427091AE
:1018F000BA428091BB429091BC422FBF0895CF92D3
:10190000DF92EF92FF920F931F93CF93DF93082FF5
:1019100010E096E1899FE0011124C55DD94B8E81CD
:101920009F81A885B985892B8A2B8B2B99F1DBDFC9
:10193000CA88DB88EC88FD886C197D098E099F09AF
:10194000CE80DF80E884F984C616D706E806F9065B
:1019500058F48E859F85A889B9890196A11DB11D6E
:101960008E879F87A88BB98BBEDF26E1209FF00171
:10197000219FF00D1124E55DF94B628B738B848BF5
:10198000958BDF91CF911F910F91FF90EF90DF909A
:10199000CF9008958E859F85A889B9890196A11D4C
:1019A000B11D8E879F87A88BB98BEBCF80E0A7CF27
:1019B00081E0A5CFCF92DF92EF92FF920F931F931A
:1019C000CF93DF9380911C4090E025E0959587951B
:1019D0002A95E1F78095909583709927C0EFD2E022
:1019E00002C0D595C7958A95E2F72091464030917F
:1019F0004740DE010E94B13F28E13CEF4FEF5FEF2F
:101A00000E941E3D8091DB419091DC410197280F9F
:101A1000391F2093DD413093DE4120E030E04AE77A
:101A200054E460912A4070912B4080912C40909119
:101A30002D400E94673C0E94503E8E01DD0F220B1C
:101A4000330B6B017C01C01AD10AE20AF30AA70129
:101A50009601A8EEB3E00E943A3D685873418109AF
:101A600091090E94063C2091184030911940409104
:101A70001A4050911B400E94E33D0E94503E6093EB
:101A8000D7417093D8418093D9419093DA41DF9147
:101A9000CF911F910F91FF90EF90DF90CF9008951D
:101AA000CF92DF92EF92FF926B017C01C0922A40AD
:101AB000D0922B40E0922C40F0922D406091464015
:101AC0007091474090E080E00E94063CA70196019B
:101AD0000E94673C0E94503E6093DB417093DC4162
:101AE00020E034E244E759E4C701B6010E94673CB4
:101AF000209118403091194040911A4050911B405C
:101B00000E94E33D0E94503E6093094370930A4354
:101B100080930B4390930C43FF90EF90DF90CF9016
:101B200049CFEF92FF920F931F93CF93DF93E091F2
:101B3000D541CE2FD0E07E01EE0CFF1CEE0CFF1C39
:101B4000D701A25DBF4B4D935D936D937C9313972B
:101B5000B7016050704CDB010D931D932D933C93A6
:101B600013979E012F513C4B91E0D9019C93A82FD4
:101B7000B0E0A65DBB4BEC93EF5FE093D541F0E0A6
:101B8000E25EFF4B8083DF91CF911F910F91FF9019
:101B9000EF900895DC01ED91FC91F170FC5E808185
:101BA0000895CF92DF92EF92FF920F931F93CF93FE
:101BB000DF9300D0CDB7DEB76C017C0103E010E00D
:101BC00009831A83CE010196E5DFF70181937F0136
:101BD0000F5F1F4F0730110599F7C6010F900F9047
:101BE000DF91CF911F910F91FF90EF90DF90CF90F9
:101BF00008950F931F93CF93DF9300D000D0CDB7FC
:101C0000DEB78C0119821A82CE010196C3DF8F34B0
:101C1000F9F481E090E089839A83CE010196BADFDE
:101C20008534B1F482E090E089839A83CE010196F5
:101C3000B1DF8D3469F481E00115110551F0CE0159
:101C40000196AFDF81E02B813C812017310709F03D
:101C500080E02496CDBFDEBFDF91CF911F910F9121
:101C600008951F93CF93DF93EC01162F93DF811715
:101C7000B1F09FB780910210282F227081FDFACF1A
:101C8000F8948DE984BF2093001023E184BF209352
:101C90000010E881F981F170FC5E10839FBFCE01D6
:101CA000DF91CF911F910895CF92DF92EF92FF9233
:101CB0000F931F93CF93DF9300D0CDB7DEB76C01A6
:101CC0007C0103E010E009831A83F70161917F0131
:101CD000CE010196C6DF0F5F1F4F0730110599F740
:101CE000C6010F900F90DF91CF911F910F91FF9040
:101CF000EF90DF90CF9008950F931F93CF93DF93D2
:101D000000D0CDB7DEB700917B4610917C46809124
:101D10007D4690917E46081719079CF4C80195717D
:101D200089839A836FEFCE0101969BDF10927746ED
:101D3000109278468091754690917646080F191F4B
:101D4000E6CF0F900F90DF91CF911F910F910895E3
:101D5000DC01ED91FC910088F189E02D23E030E079
:101D60000994FB0101900020E9F73197AF01461B70
:101D7000570BF0CA6115710509F0F3CF90E080E0D0
:101D800008958F929F92AF92BF92EF92FF920F931E
:101D90001F93CF93DF93CDB7DEB7A197CDBFDEBF43
:101DA0007C01FA01CB0119A2223008F42AE08E014D
:101DB0000F5D1F4F822E912CB12CA12CBF01A501CC
:101DC00094010E944A3DF901CA016A30CCF4605D79
:101DD000D8016E938D01232B242B252B79F7BD0180
:101DE000C701C8DFA196CDBFDEBFDF91CF911F91A4
:101DF0000F91FF90EF90BF90AF909F908F900895BC
:101E0000695CE6CF66E271E4ACCF0F931F93CF938A
:101E1000DF93EC019DDC8C01CE01F4DF800F911F7C
:101E2000DF91CF911F910F910895CF92DF92EF92A2
:101E3000FF92CF93DF93AB01BC0177FF19C06A011A
:101E40007C018DE2A3DCEC0144275527BA014C1933
:101E50005D096E097F092AE08EED94E492DF8C0F14
:101E60009D1FDF91CF91FF90EF90DF90CF9008956D
:101E70002AE08EED94E4DF91CF91FF90EF90DF9018
:101E8000CF907FCFBC01990F880B990BCECFCF930A
:101E9000DF93F8DFEC018EED94E4B4DF8C0F9D1F2F
:101EA000DF91CF9108954F925F926F927F928F92C0
:101EB0009F92AF92BF92CF92DF92EF92FF920F93D9
:101EC0001F93CF936B017C01742EAC019B010E9488
:101ED000533F69E271E4811126C046015701E8943D
:101EE000B7F82FEF3FEF4FE75FE7C501B4010E945E
:101EF000533F81110CC02FEF3FEF4FE75FE7C50164
:101F0000B4010E94023C6DE271E4181664F02FEFF8
:101F10003FEF4FE75FE4C701B6010E94073F181685
:101F2000A4F461E371E48EED94E4CF911F910F91DD
:101F3000FF90EF90DF90CF90BF90AF909F908F90E9
:101F40007F906F905F904F900CCF2FEF3FEF4FE758
:101F50005FECC701B6010E94023C87FDE2CF20E0A2
:101F600030E0A901C701B6010E94023C10E000E088
:101F700087FF07C08DE20ADC8C01F7FAF094F7F8CE
:101F8000F094C0E060E070E080E09FE37C1641F0F8
:101F900020E030E040E251E40E94E33DCF5FF6CF25
:101FA000A70196010E947C3D2B013C010E94503EFE
:101FB0004B015C012AE0BC01A4018EED94E4E1DE5A
:101FC0007C01E00EF11ECC23C9F1C501B4010E94D1
:101FD000063C9B01AC01C301B2010E947B3D4B0159
:101FE0005C0165E371E48EED94E4BBDEE80EF91E5E
:101FF000C15020F120E030E040E251E4C501B401DD
:102000000E94673C2B013C010E94503E4B01B12CC9
:10201000A12C2AE0B501A4018EED94E4B2DEE80E15
:10202000F91EC501B4010E94063C9B01AC01C3012D
:10203000B2010E947B3D4B015C01DACFC701CF9119
:102040001F910F91FF90EF90DF90CF90BF90AF90D6
:102050009F908F907F906F905F904F900895CF9357
:10206000DF9321DFEC018EED94E4CCDE8C0F9D1F1D
:10207000DF91CF91089517CFAF92BF92CF92DF92A9
:10208000EF92FF920F931F93CF93DF9300D0CDB7C2
:10209000DEB76C015B0110E000E00A151B05BCF522
:1020A0007801EC0CFD1C85E1F822E982FA82CE0170
:1020B000019670DD803110F480E368DB0F5F1F4F05
:1020C000E982FA82CE01019665DD482F50E070E08A
:1020D00060E020E18EED94E454DE6FE371E48EED78
:1020E00094E43FDEC80187709927892B29F46FE3B8
:1020F00071E48EED94E435DEC8018F709927892B49
:1021000061F663EA7FE08EED94E422DBC6CF0F90A8
:102110000F90DF91CF911F910F91FF90EF90DF9083
:10212000CF90BF90AF900895DF92EF92FF920F9300
:102130001F93CF93DF9320912646211105C0E92EEE
:10214000D82E4AD881110FC01092244610922646EC
:102150001092254680E0DF91CF911F910F91FF9063
:10216000EF90DF90089560E080EF05D8D1E000E0C7
:10217000F12CC1E00E949608182F0E949608113099
:10218000E1F48130C9F5C134F8F2F0922446F1103F
:1021900003C081E08093264680911C468823A1F2EB
:1021A000ACE1B6E4ED2DFE2DCF0108962D912193E3
:1021B000E817F907D9F781E0CECFE02FF0E0181348
:1021C00011C080912446C817A8F4DF01A75EB94B5F
:1021D00013968C918D2381F410E0C93010F4C093D4
:1021E0002546FC2EE75EF94B83819D2F9095892330
:1021F00083830AC08C13F0CFE02FF0E0E75EF94B49
:1022000083818D2B838311E0812F0E946208CF5F31
:10221000DD0F11F40F5FD1E0083008F4ABCFB3CF7E
:10222000CF92DF92EF92FF920F931F93CF93DF93A2
:1022300066E87FE085E795E48BDA4091DD4450E085
:1022400070E060E02AE085E795E49BDD6CE371E4F3
:1022500085E795E486DD4091604050E070E060E005
:102260002AE085E795E48DDD8091DD44882309F43B
:1022700053C062E77FE085E795E4C7DD10E000E04A
:102280008091DD448017110609F00CF445C0680107
:1022900083E0CC0CDD1C8A95E1F7F12CE12CC09198
:1022A000DB44D091DC44CC0DDD1DCE0DDF1D8881DB
:1022B000803128F460E77FE085E795E449DA4881DA
:1022C00050E070E060E020E185E795E45ADD6EE6DD
:1022D0007FE085E795E43CDA8FEFE81AF80A88E0BA
:1022E000E816F104E1F6E091DB44F091DC44EC0DFA
:1022F000FD1D8681833029F463E57FE085E795E461
:1023000027DA85E795E47EDD65E070E080E090E027
:10231000B9DA0F5F1F4FB4CF85E795E473DD68E34B
:102320007FE085E795E414DA8091DA4467E371E4AD
:10233000882311F068E271E485E795E41BDD6EE225
:102340007FE085E795E461DD85E795E45BDD65E0A9
:1023500070E080E090E0DF91CF911F910F91FF90AE
:10236000EF90DF90CF908ECA0F931F93CF93DF93A0
:102370008091D744803109F070C088E20E946D09D5
:1023800082FF43C084E00E9477092D9880E00E947C
:102390005A0980E00E945A09D82FC82F833408F0C8
:1023A000C2E4C093914480E00E945A09082F80E063
:1023B0000E945A09182F80E00E945A09282F30E005
:1023C000A90196E0440F551F9A95E1F744275370F1
:1023D000402B4093924450939344322F222722273C
:1023E0003370212B20939444309395449091D8449A
:1023F0009417150611F0452B11F4D330B8F4109250
:1024000091440E9458090E9490098091D7448031DC
:1024100021F580919144882311F184E00E9477098D
:1024200081E0DF91CF911F910F910895C350C09328
:102430009644807880939044D0E0DC1728F480E0C4
:102440000E945A09DF5FF9CF0E94580980E10E947B
:10245000770984E20E946D09D8CF0E94900980E03C
:10246000E0CF64E575E08EED94E4CFDC6EE475E0DA
:102470008EED94E46DD980917F468B3209F457C17B
:10248000863509F457C18B3509F457C190E080E0D7
:10249000F9DC61E475E08EED94E45AD94091804610
:1024A00050E070E060E02AE08EED94E46ADC69E3DD
:1024B00075E08EED94E44CD9809181468F7390E065
:1024C000E1DC66E375E08EED94E442D980918346C9
:1024D0008251990BD7DC61E375E08EED94E495DCD5
:1024E00064E275E08EED94E490DC6CE175E08EEDD5
:1024F00094E42ED9609184467091854680918646F9
:102500009091874642E050E0AADD60E175E08EEDF3
:1025100094E41ED9609188467091894680918A46DC
:1025200090918B4642E050E09ADD67E075E08EEDD9
:1025300094E40ED9609190467091914680919246B4
:102540009091934642E050E08ADD6DEF74E08EEDAD
:1025500094E4FED860919446709195468091964699
:102560009091974642E050E07ADD64EF74E08EEDA2
:1025700094E4EED8609198467091994680919A467D
:1025800090919B4642E050E06ADD6AEE74E08EED89
:1025900094E4DED860919C4670919D4680919E4661
:1025A00090919F4642E050E05ADD61EE74E08EED7E
:1025B00094E4CED86091A0467091A1468091A24645
:1025C0009091A34642E050E04ADD67ED74E08EED65
:1025D00094E4BED86091A4467091A5468091A64629
:1025E0009091A74642E050E03ADD6EEC74E08EED4B
:1025F00094E4AED86091A8467091A9468091AA460D
:102600009091AB4642E050E02ADD64EC74E08EED40
:1026100094E49ED86091AC467091AD468091AE46F0
:102620009091AF4642E050E01ADD6BEB74E08EED26
:1026300094E48ED86091B0467091B1468091B246D4
:102640009091B34642E050E00ADD61EB74E08EED1C
:1026500094E47ED86091B4467091B5468091B646B8
:102660009091B74642E050E0FADC68EA74E08EED03
:1026700094E46ED86091B8467091B9468091BA469C
:102680009091BB4642E050E0EADC6EE974E08EEDEA
:1026900094E45ED86091BC467091BD468091BE4680
:1026A0009091BF4642E050E0DADC63E974E08EEDE1
:1026B00094E44ED86091C0467091C1468091C24664
:1026C0009091C34642E050E0CADC69E874E08EEDC8
:1026D00094E43ED88091C44690E0D9DB69E774E089
:1026E0008EED94E435D88091C5469091C646CFDBF7
:1026F000809182466DE574E0882311F064E674E011
:102700008EED94E482DB6AE674E08EED94E420D8EA
:102710008091C74690E0BBDB8091E1466EE374E0B8
:10272000882311F06EE474E08EED94E46ECB81EBBF
:1027300091E0AECE84E693E0ABCE83E993E0A8CE01
:102740000F931F93CF93DF93893208F07CC090E002
:10275000DC01AD51BF4B2C912F3F09F474C08C01AB
:1027600006541F4BE801E881D0E2ED9FF0011124EF
:10277000FC5F611133C0268330812323AC014F56A7
:102780005F4B211111C0EA012881309749F12830AF
:1027900038F57096E20FF11D3FB7F8942081611172
:1027A00022C0277F20833FBFFA0130813F3F09F4D9
:1027B0004AC0E8012881363058F53091E605432FAC
:1027C0004770241312C0EC91E53008F0EE0F8091B1
:1027D000010AE095E823E093010A35C02583CCCFB8
:1027E000F0E0E0E0D9CF2860DDCF387169F4213026
:1027F00079F4EC91E53008F0EE0F8091410AE09514
:10280000E823E093410A1FC0383111F4263089F3E0
:1028100088599F4BFC01808185FF13C030E1839F65
:10282000F0011124F75F91819770973061F4EC917A
:10283000853270F4803298F48830E1F2803121F2F0
:1028400002C08111F4CFDF91CF911F910F910895B4
:10285000803471F08038B9F71092A006F4CF90E17F
:10286000899FF0011124F75F81818F7E8183EBCFF7
:102870008091920B8E2339F3C0E22C9F900111249A
:102880003C5FE83030F5205F3F4FE20FF32FF11D42
:102890004FB7F8949091800B9E7F9093800B90910E
:1028A0008E0B90FFFCCF2091920B90E0809590953D
:1028B00030E08223932328ED24BF8093920B8091F4
:1028C000800B81608093800B80818F7780834FBFE6
:1028D000BACFF0E0E0E0DCCF0F931F93CF93DF930C
:1028E000CDB7DEB72897CDBFDEBF2091DB44309156
:1028F000DC44232B31F02091BF423091C042232B86
:1029000061F41092DA441092DD442896CDBFDEBF08
:10291000DF91CF911F910F910895182F8091614001
:102920000E9408081093DA44112309F496C020E0AD
:1029300030E040E85FE360912A4070912B40809145
:102940002C4090912D400E94023C87FF03C08FE1F4
:1029500080931C4000911C4090916040E091BF42E8
:10296000F091C04280E020E335E7981721F02193F1
:1029700031938F5FFACF1092244610922646109220
:10298000254610922346109222461092214610921C
:10299000204610921F4610921E4610921D4610921D
:1029A0001C461092DD44CE010196BEDB882349F01F
:1029B00089818832C1F78091DD448F5F8093DD4447
:1029C000F2CF809160409091DD44891710F480939C
:1029D000DD44E091DB44F091DC4480818832A1F059
:1029E00010E08091DD44181778F428E0129FC001B0
:1029F00011242091DB443091DC44820F931F94DB3F
:102A0000882311F01F5FEDCF0E94EC0860E08CEC92
:102A10000E94BB0860E08EE40E94BB0860E080E09A
:102A20000E94BB0860E080E00E94BB0860E0802F4D
:102A30000E94BB080E94EC0860E08CEC0E94BB087E
:102A400061E088E40E94BB0864E170E080E090E00F
:102A50000E94420C0E94DA0C58CF8091294087FDD9
:102A6000F9CF8932A4F4282F082E000C330BF9017A
:102A7000ED51FF4B90819F3F51F026543F4BD901C0
:102A8000EC91B0E2EB9FF0011124FC5F918360E0D8
:102A900057DE809129408932E8F690E0FC01ED5143
:102AA000FF4B20812F3FB1F2FC01E654FF4BA08188
:102AB000E0E2AE9FD0011124BC5F8F569F4BFC011A
:102AC0003081F0E0E0E0383028F4CD014096FC01A0
:102AD000E30FF11D9FB7F89412962C938081877FA6
:102AE00080839FBFB7CF0F931F93CF93DF93CDB753
:102AF000DEB72C97CDBFDEBF681BF1F0062F10E0CC
:102B0000682F70E069567B4BA801CE0101960E94A8
:102B1000CB3FE1E0F0E0EC0FFD1FE00FF11F108272
:102B2000CE0101960E94683A2C96CDBFDEBFDF91A0
:102B3000CF911F910F91089590E080E0F5CF0F9312
:102B40001F93CF93DF93CDB7DEB72C97CDBFDEBFFA
:102B5000681BF1F0062F10E0682F70E069567B4B80
:102B6000A801CE0101960E94CB3FE1E0F0E0EC0F1E
:102B7000FD1FE00FF11F1082CE0101960E94653A01
:102B80002C96CDBFDEBFDF91CF911F910F9108959D
:102B900060E070E0CB01F4CF4F925F926F927F9232
:102BA0008F929F92AF92BF92CF92DF92EF92FF925D
:102BB000CF93DF93C82F8090184090901940A09039
:102BC0001A40B0901B40609146407091474090E0A1
:102BD00080E00E94063C6B017C0160914C4070914A
:102BE0004D406F5F7F4F072E000C880B990B0E94A2
:102BF000083CA50194010E94673C2BED3FE049ECA5
:102C000050E40E94673CA70196010E94673C20E0C7
:102C100034E244E759E40E94E33D2B013C01D0E05B
:102C2000BE016F5F7F4F072E000C880B990B0E942F
:102C3000083CA50194010E94673CA70196010E94EF
:102C4000673C20E034E244E759E40E94E33D6B0135
:102C50007C01CC0FDD1FCC0FDD1FFE01E050F04CDE
:102C600020E030E044EB53E4608171818281938104
:102C70000E94E33D9B01AC01C701B6010E947C3D6F
:102C80002BED3FE049EC50E40E94673C4B015C01B6
:102C90000E940B3F6B017C01C301B2010E940B3FFC
:102CA0009B01AC01C701B6010E94E33D6B017C01B1
:102CB000FE01E752FD4BC082D182E282F382C50160
:102CC000B4010E94E03D4B015C01C301B2010E94CE
:102CD000E03D9B01AC01CF50DD4BC701B6010E9426
:102CE000673C9B01AC01C501B4010E947B3D688338
:102CF00079838A839B83DF91CF91FF90EF90DF9060
:102D0000CF90BF90AF909F908F907F906F905F908B
:102D10004F900895CF938093464090934740BC01D5
:102D200090E080E00E94063C20912A4030912B40A8
:102D300040912C4050912D400E94673C0E94503E93
:102D40006093DB417093DC410E94DA0CC0E080911B
:102D50004C4090914D40C817190624F48C2F1CDF6D
:102D6000CF5FF5CFCF9108954F925F926F927F9290
:102D7000AF92BF92CF92DF92EF92FF920F931F9389
:102D8000CF93DF93E82FCB01BA0168017901F0E01E
:102D9000E65DFB4B108124E0129FE0011124FE014F
:102DA000E25DFF4B5F01209125403091264040912C
:102DB0002740509128400E94673C2B013C016091C4
:102DC000294670912A4690E080E00E94063C9B01D3
:102DD000AC01C301B2010E94E33DF5016083718340
:102DE00082839383C050D04CC882D982EA82FB820E
:102DF000812FDF91CF911F910F91FF90EF90DF9086
:102E0000CF90BF90AF907F906F905F904F90C4CE67
:102E10002F923F924F925F926F927F928F929F92EA
:102E2000AF92BF92CF92DF92EF92FF920F931F93D8
:102E3000CF93DF93CDB7DEB7E797CDBFDEBF84E09A
:102E40008093210461E08AE07BDC9FB7F89480E105
:102E500080930204809114048860809314049FBFBF
:102E60009FB7F89480E280930204809115048860F3
:102E7000809315049FBF40E052EC61E070E08EED5E
:102E800094E40E94A80E8091080485FD05C08091FD
:102E900081468F5F8093814669E174E08EED94E412
:102EA0000E94A80B62E571E48EED94E40E94BA0ED4
:102EB00063E074E08EED94E40E94050F86E190E0FB
:102EC0000E94F90D882341F1CE0101960E94D10D97
:102ED00009811A8117FD20C0680123E0C20ED11CB0
:102EE0003FE7E32E36E4F32E87E090E05C013FEF0E
:102EF000A31AB30A8EA79FA7CE018E960E94CA0D71
:102F0000D7018D937D01C501AC14BD0478F36EE546
:102F100073E00430110511F46DE473E08EED94E478
:102F20000E94050F9EDA80918246882309F45AC0D8
:102F30006AEF73E08EED94E40E94A80B62EF73E0F9
:102F40008EED94E40E94A80B80917F468B3231F481
:102F50006BEE73E08EED94E40E94A80B80917F46A7
:102F6000863531F464EE73E08EED94E40E94A80B94
:102F700080917F468B3531F46DED73E08EED94E4F6
:102F80000E94A80B64ED73E08EED94E40E94A80B00
:102F90004091804650E070E060E02AE08EED94E4DD
:102FA0000E94C10E6CEC73E08EED94E40E94A80BBD
:102FB0004091814650E070E060E02AE08EED94E4BC
:102FC0000E94C10E6AEC73E08EED94E40E94050F3E
:102FD0006AE571E48EED94E40E94B10E8EED94E406
:102FE0000E94020F8091080484FD03C081E0809359
:102FF000D44180918246882309F4FFC01091804615
:10300000809181468093D8441092D94480E2809385
:10301000210481E08093410484E0809341040E9474
:1030200058098091E405837F8093E40580916109CC
:103030008460809361098091600981628093600956
:103040000E94730C6B017C016AEA8FE20E946409A2
:103050008FE20E946D098A3A59F00E94730C6C1934
:103060007D098E099F09623371058105910560F321
:103070000E94730C6B017C0165E58FE20E9464097C
:103080008FE20E946D09853559F00E94730C6C190E
:103090007D098E099F09623371058105910560F3F1
:1030A000FE0133968BE2DF011D928A95E9F781E0FC
:1030B000898384E08A8322E02B8393E09D832E839F
:1030C0008F8380E4888725E029879A8796E09B870D
:1030D00093E39C8797E09D872CE62E8728E02F8737
:1030E000888B29E0298B29E12B8B22E42C8B35E27C
:1030F0003D8B8E8B86E28F8B988F88E2898F90E153
:103100009A8F89E28B8F8CED8C8F8EE28D8F88E881
:103110008E8F8FE28F8F8DE288A380E389A337E3C0
:103120003BA330E93CA338E33DA32EA32CE32FA31C
:103130002FE828A72DE329A79AA79FE69BA78CA78E
:103140001AA38E010F5F1F4FF8018081882331F091
:1031500061810E9464090E5F1F4FF6CF69E981E12A
:103160000E94640984E00E9477090E94730C6B013D
:103170007C0187E20E946D0987FD0BC00E94730CE1
:103180006C197D098E099F096233710581059105CE
:1031900080F30E94730C84E00E9477092D988EEBD7
:1031A0000E945A0901E411E4D8018D918D010E9419
:1031B0005A09B1E401351B07B9F70E9458098DE39C
:1031C0000E946D09682F61608DE30E94640920915F
:1031D0008146E4E12E9F8001112460E070E0CB0184
:1031E0000115110541F00E94103A9801110F440B8E
:1031F000550B0E941E3D0E94420C8EE080930506F6
:1032000080910306809303061092B00086E08093BD
:10321000020681E0809300068091000680930006FC
:1032200087E08093080660E070E0CB0150E040E06A
:1032300021E020930A0630910D0630FFFCCF4A3082
:10324000510544F0E0911006F09111066E0F7F1FBA
:10325000811D911D4F5F5F4F4A31F7E25F0749F7CC
:103260000E94063C20E030E44CE156E40E94E33D3D
:1032700020E030EF4FE755E40E94E33D9B01AC01B5
:1032800066E676E686E69FE30E94E33D6B017C01FD
:103290006AEA73E08EED94E40E94A80B44E050E0EB
:1032A000C701B6010E942F108CE090E0809362402D
:1032B000909363408EEF94E5ADE1B2E480931840C3
:1032C00090931940A0931A40B0931B4080E090E186
:1032D0008093294690932A4680E890E08093274681
:1032E00090932846C0922540D0922640E0922740F5
:1032F000F09228408091844690918546A091864620
:10330000B091874610921E40809348409093494068
:10331000A0934A40B0934B4000919446109195463B
:103320002091964630919746409190465091914613
:10333000609192467091934683E00E94910D0091B6
:103340009C4610919D4620919E4630919F4640910B
:1033500098465091994660919A4670919B4684E0B8
:103360000E94910D0091A4461091A5462091A64679
:103370003091A7464091A0465091A1466091A24647
:103380007091A34685E00E94910D0091AC4610918A
:10339000AD462091AE463091AF464091A84650913F
:1033A000A9466091AA467091AB4686E00E94910DB5
:1033B0000091B4461091B5462091B6463091B7467B
:1033C0004091B0465091B1466091B2467091B3467B
:1033D00088E00E94910D0091BC461091BD4620915D
:1033E000BE463091BF464091B8465091B946609173
:1033F000BA467091BB4689E00E94910D8091D441FC
:10340000882319F08CE390E085DC6091C0467091D0
:10341000C1468091C2469091C3460E94500D809152
:10342000884690918946A0918A46B0918B468093B8
:103430004E4090934F40A0935040B09351408091A4
:10344000C44680932B4681E080932C4686E080938F
:103450002F46809330468091C5469091C646092EEE
:10346000000CAA0BBB0B8093314690933246A0937D
:103470003346B09334468CE0809361408BE0809378
:10348000294088E08093210461E08BE059D98FE5E1
:1034900080931C4088EC96E48093DB449093DC445A
:1034A0001092C84686E594E48093BF429093C04250
:1034B00083E080936040E0907746F0907846E11496
:1034C000F10409F4B5C087010F5F1F4F27E5C22E35
:1034D00026E4D22E80917546909176468E0D9F1DE2
:1034E0000817190774F4C801957189839A83CE016E
:1034F00001960E94CA0DD6018D936D010F5F1F4F7B
:10350000E9CF409057465090584660905946709089
:103510005A4680905B4690905C46A0905D46B09085
:103520005E46C0905F46D0906046E0906146F09065
:103530006246009163461091644620916546309141
:103540006646409167465091684660916946709121
:103550006A4680916B4690916C46A0916D46B09101
:103560006E468CAB9DABAEABBFAB80916F4690917E
:103570007046A0917146B091724688AB99ABAAABE8
:10358000BBAB4092F5435092F6436092F743709282
:10359000F8438092F9439092FA43A092FB43B09291
:1035A000FC43C092FD43D092FE43E092FF43F09271
:1035B0000044009301441093024420930344309349
:1035C0000444409305445093064460930744709329
:1035D00008448CA99DA9AEA9BFA9809309449093E2
:1035E0000A44A0930B44B0930C4488A999A9AAA9B2
:1035F000BBA98093354690933646A0933746B09347
:1036000038468091C74668D98091D541882341F1D9
:10361000282F30E020934C4030934D408F5F90E056
:103620008630F0F4FC01EF51FC4B10820196F8CF8C
:10363000412C512C3201812C912C5401C12CD12CC4
:10364000760100E010E0980140E050E0BA011CAAC9
:103650001DAA1EAA1FAA18AA19AA1AAA1BAA91CFA4
:103660004090254050902640609027407090284020
:103670006091294670912A4690E080E00E94063CC5
:103680004B015C01209148403091494040914A40B3
:1036900050914B40C301B2010E94673CA5019401C7
:1036A0000E94E33D609348407093494080934A40B4
:1036B00090934B408EE2E82E80E4F82E91ECC92ED8
:1036C00092E4D92E10E000E080914C4090914D4062
:1036D0000817190714F5D7012D913D914D915D9172
:1036E0007D011D01B4E02B1A3108C301B2010E9413
:1036F000673CA50194010E94E33DF1016083718361
:1037000082839383802F48DAD6011D921D921D92E9
:103710001D926D010F5F1F4FD7CF86ED9CE0809308
:103720002D4690932E4688ED9CE0809343469093DF
:10373000444681E080931D401092B4421092B542FD
:103740001092B6421092B7429EE090930506909177
:103750000306909303061092B00098E0909302063F
:1037600080930006909100069093000690910006C9
:103770009260909300061092080690910C0691605A
:1037800090930C0680930A067894C0902A40D090BB
:103790002B40E0902C40F0902D406091464070917D
:1037A000474090E080E00E94063CA70196010E94FD
:1037B000673C0E94503E6093DB417093DC41109265
:1037C000E74320E034E244E759E4C701B6010E9430
:1037D000673C209118403091194040911A40509117
:1037E0001B400E94E33D0E94503E6093094370934A
:1037F0000A4380930B4390930C430BE216E4F12CA5
:10380000F80180818823A1F18481893228F590E034
:10381000FC01ED51FF4B20812F3FF1F0FC01E654FC
:10382000FF4BA081F0E2AF9FD0011124BC5F8F5607
:103830009F4BFC013081F0E0E0E0383028F4CD010E
:103840004096FC01E30FF11D9FB7F89412962C935C
:103850008081886080839FBF68ED7CE080914646D0
:10386000F11004C066ED7CE0809130460E94290989
:103870000A5E1F4FF1E0FF1239C010925C441092B3
:103880005D4410925E4410925F440E94101180913A
:10389000DA44882371F18091DD4490E0892B51F462
:1038A00063E773E08EED94E40E94050F1092C74623
:1038B00080E012D860E070E080E090E40E94500D5B
:1038C000E796CDBFDEBFDF91CF911F910F91FF90A3
:1038D000EF90DF90CF90BF90AF909F908F907F90B0
:1038E0006F905F904F903F902F900895FF24F39436
:1038F00087CF90E080E0D2CFEF93FF93EEEDF4E43A
:1039000015C0EF93FF93EEEDF4E43FC0EF93E0E6D4
:1039100060C0EF93FF93E5E7F5E408C0EF93FF93F2
:10392000E5E7F5E432C0EF93E0E053C02F932FB703
:103930002F938F939F93AF93BF936894CF93DF930D
:1039400020E0C485D8E09689DF01A90FB21FA95AEB
:10395000BF4F8C9120E42C838A839F5F9F738D815E
:103960002589291302C08F7D8D83968BDF91CF919E
:1039700016F00C945B0BBF91AF919F918F912F919B
:103980002FBF2F91FF91EF9118952F932FB72F9362
:103990008F939F93CF93DF93C485D8E089819881DB
:1039A00081FD0DC0C38981E08C0F8F732489281796
:1039B00031F0CE0FDF2F20E0D21F9F8B838BDF9162
:1039C000CF919F918F912F912FBF2F91FF91EF91C9
:1039D0001895FF938F938FB78F93F8E08081848140
:1039E00087FFFCCF85818F7B806885838F918FBF18
:1039F0008F91FF91EF9118951F920F920FB60F9232
:103A0000112484E00E94E00B1F920F920FB60F92D8
:103A100011248F939F93AF93BF938091B94290915C
:103A2000BA42A091BB42B091BC420196A11DB11D0A
:103A30008093B9429093BA42A093BB42B093BC42E8
:103A400081E08093260BBF91AF919F918F910F9052
:103A50000FBE0F901F9018950F930AE00FC00F93A1
:103A600008E00CC00F9306E009C00F9304E006C005
:103A70000F9302E003C00F9300E000C00F920FB657
:103A80000F920BB60F921F921124FF921F932F9348
:103A90003F934F935F936F937F938F939F93AF93D6
:103AA000BF93CF93DF93EF93FF93A2E5B0E4A00F12
:103AB000B11DCD91DC91000F0D5FA02FB0E0FC9007
:103AC000109761F01F2D169518F041F02296FBCF4C
:103AD000E991F9913097B9F30995F5CFA02FB0E0AE
:103AE000FC92FF91EF91DF91CF91BF91AF919F91A8
:103AF0008F917F916F915F914F913F912F911F9186
:103B0000FF901F900F900BBE0F900FBE0F900F9164
:103B100018951F920F920FB60F9211240BB60F92A9
:103B20002F923F924F925F926F927F928F929F92CD
:103B3000AF92BF92CF92DF92EF92FF920F931F93BB
:103B40002F933F934F935F936F937F938F939F93A5
:103B5000AF93BF93CF93DF93EF93FF9381E0809375
:103B60000D064090100650901106C091B842E2E058
:103B7000EC0F20914C4030914D40E217130621F09C
:103B80001CF0E1E0EC0FE21BF0E0E25EFF4B808115
:103B9000809308068091B4429091B542A091B642BC
:103BA000B091B7420196A11DB11D8093B44290938C
:103BB000B542A093B642B093B742C1113DC48091C3
:103BC000B2429091B3428093B0429093B1428091BF
:103BD000294690912A4696958795481A590A409207
:103BE000B2425092B3428091AE429091AF42AC014A
:103BF0005695479556954795841B950BA20157FE00
:103C000004C04427552744195509840F951F8093F4
:103C1000AE429093AF42E0912746F091284641E0B2
:103C2000E817F90708F040E040930D441414150418
:103C30000CF08EC041E050E04093AC425093AD4256
:103C4000A091AC42B091AD424091964250919742C2
:103C5000A417B50709F481C06091D6416F5F6093E6
:103C6000D6416091D641633030F01092D641A09396
:103C70009842B09399426091E14161111092E14103
:103C80006090984270909942E817F90708F06BC26B
:103C900081E06816710409F0C2C14130510509F490
:103CA000C4C18091DF419091E04101968093DF4152
:103CB0009093E04140911D40442309F471C00A975C
:103CC00008F46EC010921D401092DF411092E04146
:103CD000CAE5D2E4AAE2B2E46AEF71E442EE51E44A
:103CE00090E080E082179307DCF5188219821A822F
:103CF0001B821C821D821E821F8228961C92119696
:103D00001C92119712961C92129713961C9213975D
:103D100014961C92149715961C92159716961C9241
:103D2000169717961C9217971896FB01108211820E
:103D3000128213821482158216821782685F7F4F67
:103D4000FA011192119211921192AF010196CACF0C
:103D50001092AC421092AD4273CF1092D64181CFF7
:103D600010929E4210929F421092A0421092A14245
:103D70001092A2421092A3421092A4421092A54225
:103D800010929A4210929B4210929C4210929D4235
:103D90001092A8421092A9421092AA421092AB42ED
:103DA0008091DF419091E0414091DD415091DE41B1
:103DB0008417950739F440911D40411103C041E03B
:103DC0004093E8434091DB415091DC4184179507D3
:103DD00008F42BC180911D40811127C11092DF4151
:103DE0001092E041CAE5D2E4AAE2B2E41AEF212E31
:103DF00011E4312E62EE71E450E040E042175307C7
:103E00000CF09BC088809980AA80BB80CC80DD802C
:103E1000EE80FF802896CA01E3E0880F991FEA959B
:103E2000E1F78C010F541C4BF80180829182A28231
:103E3000B382C482D582E682F7828C9011969C90E0
:103E400011971296AC9012971396BC9013971496F4
:103E5000CC9014971596DC9015971696EC901697C3
:103E60001796FC90179718968C010F571C4BF8016A
:103E700080829182A282B382C482D582E682F78256
:103E80008E0108501109F8011082118212821382EA
:103E900014821582168217828D0108501109F801CB
:103EA0001082118212821382148215821682178266
:103EB000F10180809180A280B380C480D580E680AB
:103EC000F780F8E02F0E311C8C010F5A1C4BF801C3
:103ED00080829182A282B382C482D582E682F782F6
:103EE000810108501109F801108211821282138297
:103EF0001482158216821782FB0181909190A19005
:103F0000B190BF0175016401FF0CCC08DC2C760177
:103F10008F5D9C4BFC0180829182A282B382C4821D
:103F2000C582C682C782CB010497FC011082118230
:103F3000128213824F5F5F4F61CF80919A429091BE
:103F40009B42A0919C42B0919D42AC01BD01770F74
:103F5000440B542FBA0180930D4390930E43A093CA
:103F60000F43B09310434093114340931243409347
:103F700013434093144370919E4260919F4250912D
:103F8000A0424091A1423091A2422091A34290913F
:103F9000A4428091A5427093194360931A435093B1
:103FA0001B4340931C4330931D4320931E43909327
:103FB0001F438093204310929E4210929F42109282
:103FC000A0421092A1421092A2421092A3421092DB
:103FD000A4421092A54210929A4210929B421092D3
:103FE0009C4210929D428091A8429091A942A0913A
:103FF000AA42B091AB428093154390931643A0938D
:104000001743B09318431092A8421092A9421092FD
:10401000AA421092AB4281E08093E74306C0452B51
:1040200021F01092A6421092A7428091A84290914E
:10403000A942A091AA42B091AB420196A11DB11D27
:104040008093A8429093A942A093AA42B093AB4216
:104050008091A6429091A74201968093A6429093A8
:10406000A7429201D2010E94AB3F6B017C01FF0C81
:10407000CC08DC2C76019B01AC016C2D7C2D8C2DA9
:104080009C2DA0909E42B0909F42C090A042D090A4
:10409000A142E090A242F090A3420091A44210916C
:1040A000A5420E94B73F20939E4230939F42409387
:1040B000A0425093A1426093A2427093A342809386
:1040C000A4429093A542C201550CAA0BBB0B409190
:1040D0009A4250919B4260919C4270919D42840F04
:1040E000951FA61FB71F80939A4290939B42A0935F
:1040F0009C42B0939D42609296427092974280910A
:10410000B8428F5F8093B84220914C4030914D402F
:104110008217130619F014F01092B842FF91EF9134
:10412000DF91CF91BF91AF919F918F917F916F91CF
:104130005F914F913F912F911F910F91FF90EF90C1
:10414000DF90CF90BF90AF909F908F907F906F90B7
:104150005F904F903F902F900F900BBE0F900FBE2F
:104160000F901F9018954091B4425091B5426091C4
:10417000B6427091B7428091D7419091D841A091B9
:10418000D941B091DA4184179507A607B70748F4DB
:104190008091BE42811105C081E08093E843809305
:1041A000BE424091B4425091B5426091B642709186
:1041B000B7428091094390910A43A0910B43B0917B
:1041C0000C4384179507A607B70708F02ECF109267
:1041D000B4421092B5421092B6421092B74281E0BA
:1041E00080931D401092DF411092E041CAE5D2E475
:1041F0001AE2212E12E4312EEAEFF1E462EE71E4CC
:1042000050E040E0421753070CF0C5C0CA01A3E0DC
:10421000880F991FAA95E1F78C010F541C4BD80108
:104220001C9211961C92119712961C92129713963B
:104230001C92139714961C92149715961C9215971E
:1042400016961C92169717961C928C010F571C4BB2
:10425000D8011C9211961C92119712961C921297DB
:1042600013961C92139714961C92149715961C92F1
:10427000159716961C92169717961C9218821982FB
:104280001A821B821C821D821E821F822896D101E7
:104290001C9211961C92119712961C9212971396CB
:1042A0001C92139714961C92149715961C921597AE
:1042B00016961C92169717961C92B8E02B0E311C7E
:1042C00080809180A280B380C480D580E680F78012
:1042D00038968C010F5A1C4BD8018C9211969C92E7
:1042E00011971296AC9212971396BC92139714964C
:1042F000CC9214971596DC9215971696EC92169719
:104300001796FC927F01B8E0EB1AF108D7011C92D6
:1043100011961C92119712961C92129713961C924A
:10432000139714961C92149715961C92159716962F
:104330001C92169717961C92DB018D909D90AD9064
:10434000BD90BD0175016401FF0CCC08DC2C760129
:104350008F5D9C4BDC018C9211969C92119712966A
:10436000AC9212971396BC9213971496CC92149712
:104370001596CC9215971696CC9216971796CC92C6
:10438000CB010497DC011D921D921D921C92139784
:104390004F5F5F4F37CF70919E4260919F42509127
:1043A000A0424091A1423091A2422091A34290911B
:1043B000A4428091A5427093194360931A4350938D
:1043C0001B4340931C4330931D4320931E43909303
:1043D0001F438093204310929E4210929F4210925E
:1043E000A0421092A1421092A2421092A3421092B7
:1043F000A4421092A54280919A4290919B42A09132
:104400009C42B0919D42AC01BD01770F440B542FEB
:10441000BA0180930D4390930E43A0930F43B09342
:1044200010434093114340931243409313434093EE
:104430001443D1CD1082B0C0D0E02C173D070CF44E
:104440005ECE2197FE01EF51FC4B1E01220C331C66
:10445000B6E04B16510474F381E0808380912946C5
:1044600090912A4696958795F101E657FD4B60801D
:104470007180681A790A4E0133E0880C991C3A95CC
:10448000E1F7F401E65AFD4BA091B042B091B14280
:1044900093010E94AB3F6B017C01FF0CCC08DC2C2C
:1044A00076019B01AC016C2D7C2D8C2D9C2DA08068
:1044B000B180C280D380E480F580068117810E949C
:1044C000B73F20833183428353836483758386831C
:1044D0009783F401E65DFD4BA091B242B091B342E7
:1044E00093010E94AB3F6B017C01FF0CCC08DC2CDC
:1044F00076019B01AC016C2D7C2D8C2D9C2DA08018
:10450000B180C280D380E480F580068117810E944B
:10451000B73F2083318342835383648375838683CB
:104520009783F401E650FE4B9301D3010E94AB3F09
:104530006B017C01FF0CCC08DC2C76019B01AC01EB
:104540006C2D7C2D8C2D9C2DA080B180C280D380C1
:10455000E480F580068117810E94B73F2083318374
:10456000428353836483758386839783CC0FDD1FD7
:10457000CC0FDD1FCE51DE4BC301770CAA0BBB0B5A
:10458000488159816A817B81840F951FA61FB71FBF
:1045900088839983AA83BB83F101E657FD4B408250
:1045A0005182ADCDCF92DF92EF92FF920F931F9386
:1045B000CF93DF9300D0CDB7DEB71092E0441092D6
:1045C000E144F8EECF2EF3E0DF2EE12CF12CC09287
:1045D000E244D092E344E092E444F092E54440E1C6
:1045E00051E44093DE445093DF4480E698E08093AA
:1045F000EA449093EB4485EA9FE08093EC449093E7
:10460000ED4482E08093EE441092EF441092F04427
:104610001092774510927845C0927945D0927A45AC
:10462000E0927B45F0927C454093754550937645EA
:1046300040E058E040938145509382454EEA5FE068
:1046400040938345509384458093854581E08093D2
:1046500086451092874540E05BE167EB70E080E0C3
:104660008F5F863011F487E00BC07695679557957C
:104670004795413099E059079DE36907710580F737
:1046800094E090931846482F4095242F217030E0F5
:1046900044E0220F331F4A95E1F731E08162822B1B
:1046A0008093174640E459E040930C4650930D46E2
:1046B00090930F4686E08093104610921246109217
:1046C000134610922B4610922C4623E020932F463F
:1046D000309330468EE690E0A0E0B0E08093314623
:1046E00090933246A0933346B093344610923546A9
:1046F000109236461092374610923846109239463C
:1047000010923A4610923B4610923C461092414617
:104710001092424620934546309346468093474642
:1047200090934846A0934946B0934A4610924B4610
:1047300010924C4610924D4610924E4610924F46A3
:1047400010925046109251461092524681E090E0ED
:104750000090624002C0880F991F0A94E2F780938C
:10476000294690932A4655E0969587955A95E1F704
:104770008093274690932846809161400E940808C4
:104780008EEF90E08093794690937A468DE190E0A9
:1047900080937546909376468EE090E080937346C2
:1047A000909374468EE690E080937B4690937C468F
:1047B00084E092E080937D4690937E461092774607
:1047C000109278460EE610E009831A83CE01019616
:1047D0000E94CA0D78019DE1E90EF11C8F3F09F49A
:1047E000E2C0009377461093784684E0E81682E0B2
:1047F000F8066CF4C701957189839A83CE010196FE
:104800000E94CA0D8F3F09F4CAC00E947C0E8BE241
:1048100080937F4682ED8093804681E1809381463C
:1048200021E02093824689E1809383468AE097EFD6
:10483000A9E4B4E48093844690938546A093864689
:10484000B093874680E090E0A0E7B3E48093884689
:1048500090938946A0938A46B0938B4680E090E07F
:10486000A8E4B2E480938C4690938D46A0938E4644
:10487000B0938F4686E696E2A6E9B3E4809390462D
:1048800090939146A0939246B09393468DEC9CEC06
:10489000ACE4B0E48093944690939546A0939646FA
:1048A000B093974646E656E266E173E44093984635
:1048B0005093994660939A4670939B4680939C468A
:1048C00090939D46A0939E46B0939F464093A046EA
:1048D0005093A1466093A2467093A3468093A4464A
:1048E0009093A546A093A646B093A74641E75DE303
:1048F00060E772E44093A8465093A9466093AA46A5
:104900007093AB468093AC469093AD46A093AE4671
:10491000B093AF464093B0465093B1466093B246D1
:104920007093B3468093B4469093B546A093B64631
:10493000B093B7464093B8465093B9466093BA4691
:104940007093BB468093BC469093BD46A093BE46F1
:10495000B093BF468DEC9CECACE1B1E48093C046D3
:104960009093C146A093C246B093C3462093C446D9
:1049700084E690E08093C5469093C6462093C74650
:104980001092E0461092E1460F900F90DF91CF9188
:104990001F910F91FF90EF90DF90CF9008959DE1D0
:1049A000E90EF11C22CF870184E0E81682E0F806C8
:1049B00009F00ACF2CCFCF93DF93CDB7DEB7C95B19
:1049C000D109CDBFDEBF88ED21E030E084BF209368
:1049D000620091E084BF909363009DE284BF909356
:1049E000800093E084BF9093600080E090E220918B
:1049F000650020FDCEC021E02093030A8EEF809356
:104A0000260A8093270A9BE09093000A32E03093B5
:104A1000E6052093430A8093660A8093670A909381
:104A2000400A9093E705E0E0FBE027E09EEF85E099
:104A300021839487158680837096E0343BE0F307EA
:104A4000B9F72FEF3FE02093AA0B3093AB0B90E820
:104A50009093820B1092810B2EEF30E02093AE0BDF
:104A60003093AF0B98ED24E194BF2093680091E15F
:104A70009093800B809302069EE09093050690E64B
:104A800090930306809300068091B000887F856034
:104A90008093B0008091B200887F85608093B200DF
:104AA0008FED9EE280932C0B90932D0B81E08093F1
:104AB000250B1092210B83E08093200B78940E94A9
:104AC0000817AE014B5C5F4F4FAB58AFBE01665F3E
:104AD0007F4F69AF7AAF8EED94E40E94080A892B6C
:104AE00009F49EC08EED94E40E94E609D090BD4288
:104AF0008A3009F0FAC4AD2DB0E0A956BB4B1C9228
:104B0000E0919744EF53EC3308F082C00E2E000C76
:104B1000FF0BE357FA4D0C94A23F5D2A08260826A6
:104B20000826082608260826082608260826082615
:104B30000826082608260826082608260826082605
:104B400008260826082608260826082608260826F5
:104B500008260826082608260826082608260826E5
:104B6000CF25FB25C726DC26E526FC260826CA28F5
:104B7000B726172760286828CA280826E4280826A8
:104B8000FA282929FB290826142A212A372A082647
:104B90003E2A019709F02BCF83E00E94E00B72E0E0
:104BA000D71236C088E994E40E94683A843071F4E0
:104BB0008BE280937F4681EB91E00E94420F66E892
:104BC0007DE08EED94E40E94050F22C0883069F0EC
:104BD000893029F010927F4690E080E0EECF8BE59F
:104BE00080937F4683E993E0E8CF86E580937F4614
:104BF00084E693E0E2CF82E0D8120AC088E994E428
:104C00000E94683A019709F0AFC081E08093E046C6
:104C100080E4A7E9B4E41D928A95E9F71092BD42B9
:104C20008091E843882369F11092E8438091DA4447
:104C3000882339F18091294087FD19C08932A4F475
:104C4000282F082E000C330BF901ED51FF4B9081FA
:104C50009F3F51F026543F4BD901EC91B0E2EB9FBE
:104C6000F0011124FC5F918361E00E94A0130E9477
:104C7000EC0860E08CEC0E94BB0861E084E40E94D8
:104C8000BB088091E743882311F40C943B371092C2
:104C9000E743F89420914C4030914D4090E080E003
:104CA000821793070CF02EC4FC01EF51FC4B40819E
:104CB000411158C0FC01B3E0EE0FFF1FBA95E1F7B8
:104CC000DF01AF54BC4B1C9211961C9211971296A7
:104CD0001C92129713961C92139714961C92149779
:104CE00015961C92159716961C92169717961C925D
:104CF000DF01AF57BC4B1C9211961C921197129674
:104D00001C92129713961C92139714961C92149748
:104D100015961C92159716961C92169717961C922C
:104D2000DF01AF5ABC4B1C9211961C921197129640
:104D30001C92129713961C92139714961C92149718
:104D400015961C92159716961C92169717961C92FC
:104D5000EF5DFC4B10821182128213821482158245
:104D60001682178201969CCF1092E04651CF92E0B6
:104D7000D9124ECF88E994E40E94683A019721F451
:104D800081E08093E14644CF1092E14641CF88E92B
:104D900094E40E94653A6B017C0165E77DE08EED4D
:104DA00094E40E94A80B42E050E0C701B6010E94C3
:104DB0003B1062E77DE005CF8AE08C9368E974E4FC
:104DC0008EED94E40E94BA0E23CFA3E0DA1220CF36
:104DD00088E994E40E94653A0E944B3E6B01CB0146
:104DE0000E948A166BE67DE08EED94E40E94A80B8B
:104DF000C6010E94470F0CCF88E994E40E94683AEC
:104E00008093804664E67DE08EED94E40E94A80BDA
:104E10004091804650E070E060E02AE08EED94E43E
:104E20000E94C10E8EED94E40E94020FF1CE60E26A
:104E300070E087E994E40E94C03F009711F40C945D
:104E4000C0398C0107591444C801992760E270E009
:104E500088569B4B0E94C03FCC24C394C00E009741
:104E600011F40C94B339FC01E759F4445F01602F4D
:104E700081E00E9473157C016A2D8C2D0E949F1584
:104E80002B013C016D2D81E08A0D0E949F156BAFB7
:104E90007CAF8DAF9EAFF7E0EF16F10408F038C09D
:104EA000F701EB5AF84D0C94A23F5C27AC27CA27B8
:104EB000E8270628242842282091254030912640C2
:104EC0004091274050912840C301B2010E94673CA5
:104ED0004B015C016091294670912A4690E080E088
:104EE0000E94063C9B01AC01C501B4010E94E33D58
:104EF000609348407093494080934A4090934B4060
:104F000040928446509285466092864670928746CB
:104F10006DE57DE08EED94E40E94A80BC7010E9430
:104F2000420F6BE57DE08EED94E40E94A80B42E019
:104F300050E0C301B2010E943B1069E57DE08EEDB7
:104F400094E40E94A80B42E050E06BAD7CAD8DADC7
:104F50009EAD0E942F105CCE0BAD1CAD2DAD3EADB5
:104F6000B301A20183E00E94B41640929046509291
:104F7000914660929246709293462BAD3CAD4DADFA
:104F80005EAD209394463093954640939646509359
:104F90009746BECF0BAD1CAD2DAD3EADB301A2010A
:104FA00084E00E94B41640929846509299466092CE
:104FB0009A4670929B464BAD5CAD6DAD7EAD409315
:104FC0009C4650939D4660939E4670939F46A0CF0B
:104FD0000BAD1CAD2DAD3EADB301A20185E00E942D
:104FE000B4164092A0465092A1466092A24670929A
:104FF000A3466BAD7CAD8DAD9EAD6093A446709322
:10500000A5468093A6469093A74682CF0BAD1CADD4
:105010002DAD3EADB301A20186E00E94B4164092D0
:10502000A8465092A9466092AA467092AB468BADB4
:105030009CADADADBEAD8093AC469093AD46A09314
:10504000AE46B093AF4664CF0BAD1CAD2DAD3EADBB
:10505000B301A20188E00E94B4164092B04650927B
:10506000B1466092B2467092B3462BAD3CAD4DADA9
:105070005EAD2093B4463093B5464093B646509308
:10508000B74646CF0BAD1CAD2DAD3EADB301A20171
:1050900089E00E94B4164092B8465092B946609298
:1050A000BA467092BB464BAD5CAD6DAD7EAD4093E4
:1050B000BC465093BD466093BE467093BF4628CF12
:1050C00051E0D512A5CD0E9431120E941011A0CD41
:1050D00060E270E087E994E40E94C03F0097F9F431
:1050E0006D2D81E00E9473158C010115110569F188
:1050F0000130110591F160E57DE08EED94E40E94B0
:10510000A80B68E47DE0012B09F45BCD42E050E0A0
:10511000C301B2010E943B106CE47DE052CDBC01A2
:10512000675974447B0181E00E9473158C016D2DD9
:1051300081E08E0D0E947315BC01990F880B990BAD
:105140000E94083C2B013C01D0CF10922B4681E0FD
:1051500080932C461092C446CECFC301B2010E9468
:105160004B3E6B01072E000CEE08FF08C092314643
:10517000D0923246E0923346F092344621E02093BA
:105180002B4620932C462093C4466093C5467093CB
:10519000C646B1CF88E994E40E94683A882389F032
:1051A00099278034910514F08FE390E08093814635
:1051B00062E47DE08EED94E40E94A80B409181466C
:1051C00029CE81E090E0F2CF88E994E40E94683A29
:1051D0008F71809383466DE37DE08EED94E40E94B1
:1051E000A80B809183468251990B0E94420F68E37D
:1051F0007DE0E7CC71E0D7120BCD66E676E08EED70
:1052000094E40E94050F86E190E00E94F90D882346
:1052100089F0CE0101960E94D10D89819A8197FD76
:1052200009C091958195910989839A83CE01019650
:105230000E94540E68E376E08EED94E40E94050F20
:1052400068EC70E080E090E00E94420C0C9400005A
:10525000DFCC81E0D812DCCC6EE276E08EED94E417
:105260000E94050F86E190E00E94F90D811128C08F
:1052700019821A826FE4CE0101960E94310E81E0FC
:1052800090E089839A8365E4CE0101960E94310EF5
:1052900082E090E089839A836DE4CE0101960E94BA
:1052A000310E03E010E009831A836FEFCE010196FF
:1052B0000E94310E0F5F1F4F011592E0190799F7F9
:1052C00087E690E089839A8386E190E08B839C83D4
:1052D000CE0101960E94540E0FE716E487E090E09D
:1052E000D8016D918D017C01BFEFEB1AFB0A8DABEC
:1052F0009EABCE01C5960E94310EC7018A3691053C
:1053000079F790E080E00E94F90D811122C066E0FB
:1053100076E08EED94E40E94A80B2AE040E052E093
:1053200060E070E08EED94E40E94C10E60EE75E0E6
:105330008EED94E40E94050F60E072E090E080E062
:105340000E943C106EED75E08EED94E40E94A80B77
:105350000EC0CE0101960E94D10D8B819C810196D9
:1053600069F46DE875E08EED94E40E94050F8EED12
:1053700094E40E94020F6DE076E023CC60E875E0D3
:105380008EED94E40E94A80B4B815C8170E060E09C
:105390002AE08EED94E40E94C10E09811A8117FF64
:1053A00003C01195019511090450110962E775E0D8
:1053B0008EED94E40E94A80BC8010E94420F6BE698
:1053C00075E08EED94E40E94A80B89819A8197FF85
:1053D00006C060E675E08EED94E40E94A80B8EEDA9
:1053E00094E40E94020FB80187E090E00E943C1014
:1053F0006EE575E0A9CFF2E0DF120ACC1092C74645
:1054000080919844813319F481E08093C74680915C
:10541000C7460E946C148091C74669E27DE0811105
:10542000D0CB69E17DE0CDCB22242394D210F0CB08
:105430006EE07DE08EED94E40E94A80B62E571E4DD
:10544000BFCC12E0312ED310E3CB10928246809174
:105450009844813319F481E080938246809182469A
:1054600068E07DE08111ADCB61E07DE0AACBCC248A
:10547000C39463EF7CE0DC10CBCBA3CBEE24E394AE
:10548000DE10C6CB69ED7CE08EED94E40E94050F42
:105490000E947C0EE5EFF3E41192119211921192A9
:1054A00024E4ED30F207C1F71092354610923646EB
:1054B0001092374610923846ABCB31E0D312A8CBCE
:1054C00005E716E0F801F490FF2061F0FAE0FF1222
:1054D00003C08DE00E94C60B8F2D0E94C60B0F5F8C
:1054E0001F4FF0CF63E776E06CCBBFE3BD1508F448
:1054F00097CBED2DF0E0E956FB4B8083D394D0920F
:10550000BD428ECBEBE2CE2EE6E4DE2E10E000E0D4
:10551000EE24E394F12CA6E1BA2EF60181818823D2
:1055200009F476C080818823C9F18481893228F505
:1055300090E0FC01ED51FF4B40814F3FF1F0FC0149
:10554000E654FF4B2081F0E22F9F900111243C5F35
:105550008F569F4BDC018C91F0E0E0E0883020F426
:10556000F9017096E80FF11D9FB7F894D9011296D2
:105570004C938081886080839FBF66ED7CE0809142
:1055800030460115110521F068ED7CE0809146461A
:105590000E9429093DC001E010E0BFCF858189321A
:1055A000A0F590E0FC01EF56FF4B20812F3F69F101
:1055B00086549F4BDC018C91E82FE295EE0FE07E44
:1055C000E20FF0E0E05FFB4F9081917F908390E0ED
:1055D000FC0134E0EE0FFF1F3A95E1F7422F50E057
:1055E000170102C0220C331C2A95E2F72382880F90
:1055F000991FFC01EE5AFF4B440F551F0190F0819B
:10560000E02DE40FF51F10821182D60111961C9235
:10561000B09EF001B19EF00D11249F01255D394B24
:10562000F90186859785A089B189892B8A2B8B2BD7
:10563000C1F04685578560897189F6018285938519
:10564000A485B585840F951FA61FB71F82879387F2
:10565000A487B587D9011E961D921D921D921C929A
:105660005197B6E1CB0ED11C0130110509F093CF53
:1056700078942091194330911A4340911B435091E3
:105680001C4360911D4370911E4380911F43909174
:1056900020438090154390901643A0901743B090FC
:1056A000184310910D4300910E4330900F4320900A
:1056B0001043C09011436096CFAE6097D0901243D4
:1056C0006296DFAE6297E09013436496EFAE649704
:1056D000F09014432C96FFAE2C97C0900D43669625
:1056E000CFAE6697D0900E436A96DFAE6A97E09091
:1056F0000F436E96EFAE6E97F0901043A096FFAEFC
:10570000A097C0901143A496CFAEA497D090124317
:10571000A896DFAEA897E0901343AC96EFAEAC9797
:10572000F0901443AE96FFAEAE97C0901543D09064
:105730001643E0901743F09018432396CCAEDDAEAD
:10574000EEAEFFAE2397C0901543D0901643E09085
:105750001743F09018432796CCAEDDAEEEAEFFAE09
:1057600027970E94803E6B017C01C501B4010E9415
:10577000083C9B01AC01C701B6010E94E33D6B01EF
:105780007C01212F302F432D522D60966FAD6097F5
:1057900062967FAD629764968FAD64972C969FADAD
:1057A0002C970E947C3E4B015C0166962FAD66975C
:1057B0006A963FAD6A976E964FAD6E97A0965FADB5
:1057C000A097A4966FADA497A8967FADA897AC9626
:1057D0008FADAC97AE969FADAE970E947C3E9B017D
:1057E000AC01C501B4010E94673C4B015C012396EA
:1057F0006CAD7DAD8EAD9FAD23970E94083C9B01A3
:10580000AC01C501B4010E94E33D4B015C01279648
:105810006CAD7DAD8EAD9FAD27970E94083C9B017E
:10582000AC01C501B4010E94E33D9B01AC01C7017D
:10583000B6010E947B3D0E94153FC0904840D09029
:105840004940E0904A40F0904B406996CCAEDDAEC6
:10585000EEAEFFAE6997A70196010E94673C6D9678
:105860006CAF7DAF8EAF9FAF6D9760930E4470931A
:105870000F448093104490931144E0904C40F0907A
:105880004D406F96EEAEFFAE6F97809015439090AF
:105890001643A0901743B09018436091094370914C
:1058A0000A4380910B4390910C430E94063C6B018C
:1058B0007C016F96AEADBFAD6F971196A5019401B7
:1058C0000E94443D0E94083C9B01AC01C701B60107
:1058D0000E94E33DA3966CAF7DAF8EAF9FAFA397C1
:1058E000F0900D44CB57DF4FF882C558D040C090A0
:1058F0004E40D0904F40E0905040F0905140CA57F9
:10590000DF4FC882D982EA82FB82C658D040C0905D
:105910002A40D0902B40E0902C40F0902D40AB9648
:10592000CCAEDDAEEEAEFFAEAB9725EF33E46396C3
:105930002EAF3FAF639741EC52E461964EAF5FAF3D
:10594000619769EE73E425966EAF7FAF25978EE37E
:1059500094E421968EAF9FAF2197A1EFB2E4AD966C
:10596000AEAFBFAFAD97E9EDF2E4E196EEAFFFAFBA
:10597000E1972EE230E465962EAF3FAF659742E1A6
:1059800054E4AF964EAF5FAFAF97312C212C6F969A
:10599000CEACDFAC6F972C143D040CF004C5910124
:1059A00013E0220F331F1A95E1F7D901AF54BC4B16
:1059B000DC90C657DF4FD882CA58D0401196EC9081
:1059C0001197C557DF4FE882CB58D0401296FC9014
:1059D0001297C457DF4FF882CC58D0401396CC9022
:1059E0001397C357DF4FC882CD58D0401496DC9030
:1059F0001497C257DF4FD882CE58D0401596EC90FE
:105A00001597C157DF4FE882CF58D0401696FC90CB
:105A10001697C057DF4FF882C059D0401796CC90E8
:105A2000CF56DF4FC882C159D040AD96AEADBFADA5
:105A3000AD97CD90DD90ED90FD90AD96AEAFBFAF40
:105A4000AD972B96CCAEDDAEEEAEFFAE2B97D90167
:105A5000AF57BC4BCC90CE56DF4FC882C259D04016
:105A60001196DC901197CD56DF4FD882C359D040A4
:105A70001296EC901297CC56DF4FE882C459D04072
:105A80001396FC901397CB56DF4FF882C559D04040
:105A90001496CC901497CA56DF4FC882C659D0408E
:105AA0001596DC901597C956DF4FD882C759D0405C
:105AB0001696EC901697C856DF4FE882C859D0402A
:105AC0001796FC90C756DF4FF882C959D040E1962F
:105AD000AEADBFADE197CD90DD90ED90FD90E1963C
:105AE000AEAFBFAFE197E596CCAEDDAEEEAEFFAEAA
:105AF000E597C0901543D0901643E0901743F0907F
:105B00001843E996CCAEDDAEEEAEFFAEE997D0908D
:105B10000D43C656DF4FD882CA59D040E0900E439D
:105B2000C556DF4FE882CB59D040F0900F43C456A2
:105B3000DF4FF882CC59D040C0901043C356DF4F9E
:105B4000C882CD59D040D0901143C256DF4FD88281
:105B5000CE59D040E0901243C156DF4FE882CF5972
:105B6000D040F0901343C056DF4FF882C05AD04067
:105B7000C0901443CF55DF4FC882C15AD04089012D
:105B80000F5D1C4BD801BC91CE55DF4FB883C25A74
:105B9000D040F801F181CD55DF4FF883C35AD04092
:105BA000D8011296BC91CC55DF4FB883C45AD0406F
:105BB000F801F381CB55DF4FF883C55AD040D801A7
:105BC0001496BC91CA55DF4FB883C65AD040F8012D
:105BD000F581C955DF4FF883C75AD040D8011696D2
:105BE000BC91C855DF4FB883C85AD040F801F7813F
:105BF000C755DF4FF883C95AD040C0901543D090A5
:105C00001643E0901743F0901843ED96CCAEDDAE0E
:105C1000EEAEFFAEED97C0901543D0901643E090E6
:105C20001743F0901843C358DF4FC882D982EA82E5
:105C3000FB82CD57D0406596AEADBFAD6597CD9098
:105C4000DD90ED90FD906596AEAFBFAF6597A796DE
:105C5000CCAEDDAEEEAEFFAEA797F901EF5AFC4B2E
:105C60002081318142815381648175818681978150
:105C70008090154390901643A0901743B09018431E
:105C8000F801F081C655DF4FF883CA5AD040D801D9
:105C90001196BC91C555DF4FB883CB5AD040F8015F
:105CA000F281C455DF4FF883CC5AD040D801139607
:105CB000BC91C355DF4FB883CD5AD040F801F48171
:105CC000C255DF4FF883CE5AD040D8011596BC910B
:105CD000C155DF4FB883CF5AD040F801F681C05587
