:1002000050C7000078C7000076C700000C94261E77
:1002100072C7000070C700006EC700006CC7000006
:100220000C94651E68C7000066C7000064C7000024
:1002300062C7000060C700005EC700005CC7000026
:100240005AC7000058C7000056C7000054C7000036
:1002500052C700000C94B81D0C94B31D0C94BD1D26
:100260000C945C1E48C700000C94B31E44C70000E9
:1002700042C7000040C700000C945F1E0C942E1E65
:100280003AC7000038C7000036C700000C94561E5D
:1002900032C7000030C700002EC700002CC7000086
:1002A0002AC7000028C7000026C7000024C7000096
:1002B00022C700000C94621E0C94591E1CC700003B
:1002C0001AC7000018C7000016C7000014C70000B6
:1002D00012C700000C94AB1D0C94A61D0C94B01D0D
:1002E0000AC7000008C7000006C7000004C70000D6
:1002F00002C7000005A84CCDB2D44EB93836A902C9
:100300000C50B9918688083CA6AAAA2ABE00000013
:10031000803F4E414E494E495459494E46CDCCCC72
:100320003D0AD7233C17B7D13877CC2B329595E6C9
:10033000241FB14F0A000020410000C84200401CA9
:100340004620BCBE4CCA1B0E5AAEC59D744E6F20D3
:10035000454550524F4D20636F6E666967004C6F84
:100360006164656420454550524F4D20636F6E6651
:100370006967005265666572656E636520766F6CAD
:10038000746167652063616C6962726174696F6E24
:100390003A20002000204E6F64653A20002047720A
:1003A0006F75703A20003931354D487A003836384B
:1003B0004D487A003433334D487A002046726571D7
:1003C0003A200052464D3639435720004F70656E33
:1003D000456E657267794D6F6E69746F722E6F72BC
:1003E0006700656D6F6E547820563420434D20436E
:1003F0006F6E74696E756F7573204D6F6E69746F73
:1004000072696E672056004A534F4E20466F726DD8
:100410006174204F6666004A534F4E20466F726DDE
:100420006174206F6E005246206F6666005246204F
:100430006F6E0074656D705F656E61626C65203D06
:10044000200070756C736520706572696F64203D63
:10045000200070756C736573203D200064617461C9
:100460006C6F67203D200069364C656164203D203B
:1004700000693643616C203D200069354C6561643C
:10048000203D2000693543616C203D200069344CDB
:10049000656164203D2000693443616C203D20008B
:1004A00069334C656164203D2000693343616C20F1
:1004B0003D200069324C656164203D200069324373
:1004C000616C203D200069314C656164203D200055
:1004D000693143616C203D2000617373756D656403
:1004E00056203D20007643616C203D200043616C26
:1004F0006962726174696F6E3A002064426D002C0B
:1005000020002C204E6F64652000204D487A2C205E
:1005100047726F7570200042616E642000536574ED
:1005200074696E67733A000A00202868696464651C
:100530006E292E00206279746573002C204461744A
:10054000612073697A653A2000205369676E61748F
:100550007572653A20004E6F206461746120626C90
:100560006F636B20666F756E64202D204545505279
:100570004F4D206170706561727320746F206265E9
:1005800020666F726D617474656420746F204F45CE
:100590004D205374616E64617264206275742075BD
:1005A0006E757365642E000A002062797465732C81
:1005B000206E6F7420666F726D6174746564207450
:1005C0006F204F454D205374616E64617264005317
:1005D000697A653A2000446F6E652E204E6577205B
:1005E000636F6E66696720736176656420746F203F
:1005F000454550524F4D00536176696E672E2E2E41
:1006000000536B657463682077696C6C206E6F773C
:100610002072657374617274207573696E672064EB
:10062000656661756C7420636F6E6669672E005233
:100630006573657474696E672E2E2E0020000A4162
:100640007661696C61626C6520636F6D6D616E646B
:10065000733A0A6C09092D206C69737420746865FB
:100660002073657474696E67730A7209092D2072AC
:100670006573746F726520736B657463682064655D
:100680006661756C74730A7309092D207361766550
:100690002073657474696E677320746F20454550CC
:1006A000524F4D0A7609092D2073686F77206669CD
:1006B000726D776172652076657273696F6E0A7A02
:1006C00009092D207A65726F20656E657267792041
:1006D00076616C7565730A7809092D2065786974EF
:1006E0002C206C6F636B20616E6420636F6E746985
:1006F0006E75650A3F09092D2073686F772074684D
:100700006973207465787420616761696E0A0A777D
:100710003C783E09092D207475726E2052464D209A
:10072000576972656C6573732064617461206F66CC
:10073000663A2078203D2030206F72206F6E3A207C
:1007400078203D20310A623C6E3E09092D207365F8
:100750007420722E662E2062616E64206E203D2011
:10076000612073696E676C65206E756D6572616C72
:100770003A2034203D203433334D487A2C20382021
:100780003D203836384D487A2C2039203D203931EB
:10079000354D487A20286D617920726571756972CE
:1007A00065206861726477617265206368616E6755
:1007B00065290A703C6E6E3E09092D207365742010
:1007C00074686520722E662E20706F7765722E20F9
:1007D0006E6E202D20616E20696E746567657220D3
:1007E00030202D20333120726570726573656E7410
:1007F000696E67202D31382064426D20746F202B84
:1008000031332064426D2E2044656661756C743A04
:1008100020323520282B372064426D290A673C6E30
:100820006E6E3E092D20736574204E6574776F726D
:100830006B2047726F757020206E6E6E202D2061C8
:100840006E20696E746567657220284F454D20647F
:10085000656661756C74203D20323130290A6E3C2A
:100860006E6E3E09092D20736574206E6F646520DD
:100870004944206E3D20616E20696E746567657223
:1008800020287374616E64617264206E6F646520E9
:100890006964732061726520312E2E3630290A0A70
:1008A000643C78782E783E092D2078782E78203D8B
:1008B000206120666C6F6174696E6720706F696E6D
:1008C00074206E756D62657220666F722074686543
:1008D00020646174616C6F6767696E672070657210
:1008E000696F640A633C6E3E09092D206E203D202D
:1008F0003020666F72204F46462C206E203D2031FE
:1009000020666F72204F4E2C20656E61626C6520F0
:10091000766F6C746167652C2063757272656E7496
:10092000202620706F77657220666163746F722075
:1009300076616C75657320746F2073657269616C84
:10094000206F757470757420666F722063616C69B6
:1009500062726174696F6E2E200A6A3C6E3E0909EC
:100960002D207475726E204A534F4E205365726964
:10097000616C20666F726D6174206F6E2028312962
:10098000206F72206F6666202830292E0A663C7818
:10099000783E09092D207878203D20746865206C08
:1009A000696E65206672657175656E637920696E22
:1009B00020487A3A206E6F726D616C6C792065699F
:1009C00074686572203530206F722036300A6B3CB7
:1009D000783E203C79792E793E203C7A7A2E7A3EF8
:1009E0000A09092D2043616C696272617465206196
:1009F0006E20616E616C6F67756520696E707574CD
:100A0000206368616E6E656C3A0A090920207820BF
:100A10003D20612073696E676C65206E756D65722F
:100A2000616C3A2030203D20766F6C7461676520E0
:100A300063616C6962726174696F6E2C2031203D54
:100A4000206374312063616C6962726174696F6ED6
:100A50002C2032203D206374322063616C69627205
:100A60006174696F6E2C206574630A09092020790E
:100A7000792E79203D206120666C6F6174696E6704
:100A800020706F696E74206E756D62657220666F7E
:100A9000722074686520766F6C746167652F63756A
:100AA0007272656E742063616C6962726174696FE1
:100AB0006E20636F6E7374616E740A090920207A68
:100AC0007A2E7A203D206120666C6F6174696E67B2
:100AD00020706F696E74206E756D62657220666F2E
:100AE00072207468652070686173652063616C6949
:100AF00062726174696F6E20666F722074686973C8
:100B000020632E742E20287A206973206E6F742043
:100B10006E65656465642C206F722069676E6F7204
:100B2000656420696620737570706C6965642C203B
:100B30007768656E2078203D2030290A0909202039
:100B4000652E672E206B30203235362E380A090983
:100B5000202020202020206B312039302E392032D7
:100B60002E30300A613C78782E783E092D20787836
:100B70002E78203D206120666C6F6174696E67205D
:100B8000706F696E74206E756D62657220666F722B
:100B90002074686520617373756D656420766F6C71
:100BA00074616765206966206E6F20612E632E2058
:100BB00069732064657465637465640A6D3C783E8E
:100BC000203C79793E092D206D6574657220707521
:100BD0006C736520636F756E74696E673A0A0909F4
:100BE00020202078203D203020666F72204F46461E
:100BF0002C2078203D203120666F72204F4E2C2013
:100C00003C79793E203D20616E20696E7465676590
:100C10007220666F72207468652070756C73652031
:100C20006D696E696D756D20706572696F6420699C
:100C30006E206D732E202879206973206E6F7420CA
:100C40006E65656465642C206F722069676E6F72D3
:100C50006564207768656E2078203D2030290A740D
:100C600030203C793E092D207475726E2074656DBC
:100C70007065726174757265206D656173757265FA
:100C80006D656E74206F6E206F72206F66663A20FD
:100C900079203D203020666F72204F46462C207907
:100CA000203D203120666F72204F4E0A743C783E02
:100CB000203C79793E203C79793E203C79793E2070
:100CC0003C79793E203C79793E203C79793E203C44
:100CD00079793E203C79793E0A09092D20636861C3
:100CE0006E676520612074656D70657261747572E0
:100CF000652073656E736F7227732061646472651B
:100D00007373206F7220706F736974696F6E3A0A23
:100D10000909202078203D20612073696E676C6589
:100D2000206E756D6572616C3A2074686520706F15
:100D3000736974696F6E206F6620746865207365CF
:100D40006E736F7220696E20746865206C697374AD
:100D50002028312D6261736564290A0909202079F0
:100D600079203D20382068657861646563696D612C
:100D70006C20627974657320726570726573656E3C
:100D800074696E67207468652073656E736F72276F
:100D90007320616464726573730A0909202020203E
:100DA000652E672E2020323820383120343320330E
:100DB000312030372030302030302044390A0909C2
:100DC00020204E2E422E2053656E736F7273204387
:100DD000414E4E4F542062652061646465642E0A62
:100DE00000456E657267792076616C756573207356
:100DF000657420746F207A65726F00436F6E74693A
:100E00006E75696E672E2E2E005246206F66660044
:100E10005246206F6E00456D6F6E547856342056E2
:100E2000002064426D0070203D20004E6F646520FC
:100E3000006F666600206D730050756C7365733AC1
:100E400020002000200043616C3A206B0047726F45
:100E500075702000467265713A200020730064614D
:100E600074616C6F6720706572696F643A2000204E
:100E70004D487A00005EBCE2613FDD83C29C7E206B
:100E8000A3FD1F41009D23BE46DB65F88C11AF32E8
:100E9000CA57E9742C7066363A002C7066353A00F1
:100EA0002C7066343A002C7066333A002C7066322F
:100EB0003A002C7066313A002C49363A002C4935FC
:100EC0003A002C49343A002C49333A002C49323A42
:100ED000002C49313A002C70756C73653A002C5423
:100EE000333A002C54323A002C54313A002C453617
:100EF0003A002C45353A002C45343A002C45333A1B
:100F0000002C45323A002C45313A002C50363A003C
:100F10002C50353A002C50343A002C50333A002CE7
:100F200050323A002C50313A002C56726D733A0010
:100F30004D53473A007D002C2270756C7365223A40
:100F4000002C225433223A002C225432223A002C14
:100F5000225431223A002C224536223A002C2245D6
:100F600035223A002C224534223A002C22453322E5
:100F70003A002C224532223A002C224531223A00F6
:100F80002C225036223A002C225035223A002C22B4
:100F90005034223A002C225033223A002C22503274
:100FA000223A002C225031223A002C2256726D73C4
:100FB000223A007B224D5347223A002056004143FB
:100FC000206D697373696E67202D204170706172A6
:100FD000656E7420506F7765722063616C63206565
:100FE0006E61626C65642C20617373756D696E67E8
:100FF000200041432070726573656E74202D20526D
:1010000065616C20506F7765722063616C63206549
:101010006E61626C65640020656E61626C65642E51
:101020000054656D7065726174757265206D6561DF
:10103000737572656D656E742069730053656E73A8
:101040006F72206D6179206E6F7420626520726509
:101050006C6961626C6500200030002C2077697437
:1010600068206164647265737365732E2E2E00545C
:10107000656D70657261747572652053656E736F0E
:10108000727320666F756E64203D20000A000008B0
:101090000A400CFFC000C000FFFF0104060300036C
:1010A000FC2311241FBECFEFCDBFDFE7DEBF11E46D
:1010B000A0E0B0E4ECE5F3E800E00BBF02C007906D
:1010C0000D92A437B107D9F726E4A4E7B1E401C033
:1010D0001D92A43EB207E1F718E0C1E5D8E004C0D4
:1010E0002197FE010E947441C035D107C9F70E94C3
:1010F00003260C94AC4184C8893260F590E0FC0171
:10110000ED51FF4BE081EF3F29F186549F4BDC010D
:101110008C9190E0DC01AA0FBB1FAE5ABF4B2D9102
:101120003C9121153105B1F04E2F50E0440F551F71
:10113000240F351FD9016D937C93E05FA5E0880FE4
:10114000991FAA95E1F7E80FF0E0FC5F8081887FA6
:10115000826080830895CF93DF93282F30E09FEF44
:10116000893220F5E901CF56DF4B98819F3FE9F0A6
:10117000F901E654FF4BA08140E2A49FD001112465
:10118000BC5FF901ED51FF4BE081E830C0F5AD01E6
:10119000405F5F4FE40FF52FF11D4FB7F8941296A3
:1011A0009C939081977F90834FBF9881909319462D
:1011B000893240F526543F4BF9018081F4E08F9F3E
:1011C000C001112480931A4690931B461092244626
:1011D00010922646109225461092234610922246DF
:1011E000109221461092204610921F4610921E46E1
:1011F00010921D4610921C46DF91CF910895F0E0A9
:10120000E0E0CBCF8CEF93E0DDCF90911946E091F9
:101210001A46F0911B46292F209580FF15C0F8949F
:101220008181822381838081892B808380E58A95D7
:10123000F1F78181982B91837894A9E4B1E011971B
:10124000F1F700C000000895F89481818223818322
:101250008081892B8083A5E8B1E01197F1F700C068
:1012600000008181982B91837894B8E2BA95F1F7C8
:10127000089580911946E0911A46F0911B46F89422
:101280009081982B90832181382F309523232183BF
:1012900098E19A95F1F790819323908390E59A9540
:1012A000F1F792817894EDE3F1E03197F1F700C026
:1012B0000000982381E009F480E00895FF920F93E5
:1012C0001F93CF93DF93F82E062FC8E0D0E011E0F4
:1012D00081E09F2D912309F480E097DF110F219782
:1012E000B9F7011116C0F894E0911A46F0911B4627
:1012F000908180911946809589238083E0911A46D8
:10130000F0911B46918180911946809589238183B4
:101310007894DF91CF911F910F91FF900895809164
:101320001946E0911A46F0911B46F8949081282FB7
:1013300020959223908378943DE7315059F190E1C4
:101340009A95F1F792819823C1F3F89491819223B1
:1013500091839081982B90837894AFE3BBE01197B1
:10136000F1F700C00000F894908192239083A3EAE3
:10137000B1E01197F1F700C000009281982381E05D
:1013800009F080E07894EBE9F9E03197F1F700C0DB
:101390000000089580E008952D9A0895000080933C
:1013A00064098091630987FFFCCF809164090895E7
:1013B000CF93C62F2D988068F1DF8C2FEFDFCF9170
:1013C000EBCFCF932D98EADF80E0E8DFC82FE4DF92
:1013D0008C2FCF910895CF939091D744981791F087
:1013E000C82F81E0EEDF837E682F6C2B81E0E0DF89
:1013F0008091D744811104C087E2E3DF87FFF8CFF3
:10140000C093D744CF91089510929644109294447B
:1014100010929544109292441092934410929144E9
:101420001092904488E2CDDF82FF06C08DE3C9DFD1
:10143000682F64608DE3BCDF80E1CDCFAF92BF92B7
:10144000CF92DF92EF92FF920F931F93CF93DF9390
:101450006C017B018B01040F151FEB015E01AE18BF
:10146000BF08C017D10759F06991D601ED91FC91E1
:101470000190F081E02DC6010995892B79F7C5010E
:10148000DF91CF911F910F91FF90EF90DF90CF9060
:10149000BF90AF900895FC0155894689252F30E013
:1014A000842F90E0821B930B541710F0CF96089571
:1014B00001970895FC0193898489981761F0A489A4
:1014C000AE0FBF2FB11D57968C9194899F5F9F736C
:1014D000948B90E008958FEF9FEF0895FC0193891E
:1014E0008489981731F08489E80FF11D878990E08D
:1014F00008958FEF9FEF0895FC0193892489892F28
:1015000090E0805C9F4F821B91098F73992708950B
:10151000CF93DF93EC01E881F9810680F781E02D1C
:101520000995EC85FD85868116828581158280E48A
:1015300084838C898B8B1A8ADF91CF9108958F9247
:101540009F92AF92BF92FF920F931F93CF93DF931F
:101550008C014A015B01D22FC32FDC0152968C9182
:10156000529780FF07C0ED91FC910288F389E02D2E
:10157000C8010995D11101C0D3E0FD2EE894F2F81D
:10158000DC2FD095D07CB1E68B16B3EE9B06B6E18E
:10159000AB06B10428F0D260B694A79497948794D0
:1015A00060E078ED88EB95E0A50194010E941C3F76
:1015B000C9012034310510F480E490E03C2F3B72E7
:1015C000D7FD30684D2F487C30FD41605FB7F894FF
:1015D000D8011C96ED91FC911682F7828087918745
:1015E00035FF8FC04F7781E084878FEF85873F7D00
:1015F0003583D683F8012189C08986859785FC01CA
:1016000033E0239FE00DF11D1124659174912C1797
:1016100008F059C0272F46FF76C0793288F430E0B1
:10162000F901EF56FF4BA081AF3F51F026543F4BDD
:10163000F901308120E2329FF0011124FC5FA18387
:1016400047FF2AC021E0270F293230F530E0F901A9
:10165000EF56FF4BD081DF3FF9F0F901E654FF4B25
:10166000A081F0E2AF9FD0011124BC5F2D513F4B10
:10167000F9011081F0E0E0E0183030F49D01205FC6
:101680003F4FF901E10FF11D3FB7F8941296DC933B
:101690002081286020833FBF40FF15C023E0270F33
:1016A000293288F430E0F901EF56FF4B40814F3F7B
:1016B00051F026543F4BD901EC91B0E2EB9FF00181
:1016C0001124FC5F4183FC0123E0C29FE00DF11D6A
:1016D0001124319625913491F901FF27EE51FA4FEB
:1016E0009081832F80958923682B60835FBFDF9172
:1016F000CF911F910F91FF90BF90AF909F908F90CF
:101700000895148674CF342F307509F499CF793247
:1017100008F096CF30E0F901EF56FF4BD081DF3F64
:1017200009F48ECFF901E654FF4BA081E0E2AE9FB1
:10173000D0011124BC5F2D513F4BF9011081F0E025
:10174000E0E0183030F49D01205F3F4FF901E10FD8
:10175000F11D3FB7F8941296DC9320812860208316
:101760003FBF6ECFFC010FB607FE04C08091110190
:101770008823A9F0A485B58514968C91149785FFCC
:101780000EC095898689981739F015968C91159712
:101790008F7D15968C930895E8940C94C81D089538
:1017A0000F931F93CF93DF93EC018A89982F916059
:1017B0009A8B2D899E8929130AC0EC85FD85948119
:1017C00095FF05C081FD0DC080E4848312C0062F03
:1017D0001D891F5F1F738E89811315C0CE01C2DF63
:1017E000FACF85818F77806490E49483EC85FD85C2
:1017F0008583EC85FD85628381E090E0DF91CF9168
:101800001F910F910895ED89EC0FFD2FF11DE95AFD
:10181000FF4F00831D8BEC85FD858A8981FF09C000
:1018200085818F77806690E49483EC85FD85858340
:10183000E3CF85818062FBCFEF92FF920F931F93DE
:10184000CF93DF938C017B01D0E0C0E0F701EC0F78
:10185000FD1F6491662331F0C801A2DF892B11F0CE
:101860002196F4CFCE01DF91CF911F910F91FF9080
:10187000EF900895682F8EED94E492CFCF93DF938D
:10188000EC018A8980FF0BC0EC85FD85858185FD93
:1018900003C0848186FD03C0CE0164DFF5CFDF91F4
:1018A000CF91089581E008950F98079A20E533ECD1
:1018B00093E0179A44E1F9013197F1F74150D9F7D4
:1018C000482F179AF9013197F1F7179A59E0F90162
:1018D0003197F1F75150D9F7415099F7915049F7A5
:1018E000E7CF9FB7F894E0912A0BF0912B0B8091F2
:1018F000260B2091B9423091BA424091BB4250919F
:10190000BC429FBF80FF08C0EC3E8CE2F80720F489
:101910002F5F3F4F4F4F5F4F0F0116940794169460
:1019200007941694079416940794F001169407945C
:10193000E00DF11D16940794102C169401181694BE
:10194000010C169401181694010C169401181694A3
:101950001694010C1124E019F109A8EEB3E00E94DD
:101960000C3F6E0F7F1F811D911D08958F929F92D6
:10197000AF92BF92CF92DF92EF92FF926B017C0108
:10198000B0DF4B015C01C114D104E104F104B1F0FA
:10199000A8DF681979098A099B09683E73408105A7
:1019A000910588F321E0C21AD108E108F10888EE18
:1019B000880E83E0981EA11CB11CE5CFFF90EF902C
:1019C000DF90CF90BF90AF909F908F9008952FB7EA
:1019D000F8946091B9427091BA428091BB42909163
:1019E000BC422FBF08950F931F93CF93DF93EC0159
:1019F000EEDF6093E6447093E7448093E84490936D
:101A0000E9448EED94E456DD97FF21C0E0DF0091BC
:101A1000E6441091E7442091E8443091E944601B8A
:101A2000710B820B930B0091E2441091E3442091DF
:101A3000E4443091E544601771078207930708F387
:101A400090E080E0DF91CF911F910F9108958883FE
:101A500081E090E0F7CF0F931F93B9DF6093E644E6
:101A60007093E7448093E8449093E9448EED94E4C6
:101A700035DD97FF1CC0ABDF0091E6441091E744D1
:101A80002091E8443091E944601B710B820B930B69
:101A90000091E2441091E3442091E4443091E54404
:101AA000601771078207930708F38FEF9FEF1F916D
:101AB0000F910895CF92DF92EF92FF92CF93CBDFF9
:101AC000FC0197FD4BC08D32910521F0C0970A971C
:101AD00008F03EC0C12CD12C7601C0E0E130F10508
:101AE000D1F0ED32F105C1F1CF01C0970A9798F41A
:101AF000AAE0B0E0A70196010E940C3F6F01FF0F22
:101B0000EE08FF08C60ED71EE81EF91E80E3C81AAD
:101B1000D108E108F1088EED94E4CCDC9CDFFC01F7
:101B2000C0970A97D8F2E130F105C1F2CC2341F019
:101B3000F094E094D094C094C11CD11CE11CF11C21
:101B4000C701B601CF91FF90EF90DF90CF9008953D
:101B50008EED94E4AFDCB3CFC1E0DDCFC12CD12C4E
:101B60007601EECFCF92DF92EF92FF920F931F9309
:101B7000CF93DF93082F10E096E1899FE0011124B5
:101B8000C55DD94B8E819F81A885B985892B8A2B0C
:101B90008B2B99F11CDFCA88DB88EC88FD886C19D7
:101BA0007D098E099F09CE80DF80E884F984C616FE
:101BB000D706E806F90658F48E859F85A889B98965
:101BC0000196A11DB11D8E879F87A88BB98BFFDE63
:101BD00026E1209FF001219FF00D1124E55DF94BD6
:101BE000628B738B848B958BDF91CF911F910F91BB
:101BF000FF90EF90DF90CF9008958E859F85A88904
:101C0000B9890196A11DB11D8E879F87A88BB98BBD
:101C1000EBCF80E0A7CF81E0A5CFCF92DF92EF920C
:101C2000FF920F931F93CF93DF9380911C4090E01E
:101C300025E0959587952A95E1F780959095837095
:101C40009927C0EFD2E002C0D595C7958A95E2F7F3
:101C50002091464030914740DE010E94834128E1B7
:101C60003CEF4FEF5FEF0E94F03E8091DB4190919F
:101C7000DC410197280F391F2093DD413093DE416D
:101C800020E030E04AE754E460912A4070912B4014
:101C900080912C4090912D400E94393E0E9422401C
:101CA0008E01DD0F220B330B6B017C01C01AD10AB0
:101CB000E20AF30AA7019601A8EEB3E00E940C3FE6
:101CC00068587341810991090E94D83D20911840BC
:101CD0003091194040911A4050911B400E94B53FED
:101CE0000E9422406093D7417093D8418093D9419C
:101CF0009093DA41DF91CF911F910F91FF90EF9078
:101D0000DF90CF900895CF92DF92EF92FF926B0118
:101D10007C01C0922A40D0922B40E0922C40F0925D
:101D20002D40609146407091474090E080E00E94D5
:101D3000D83DA70196010E94393E0E94224060933F
:101D4000DB417093DC4120E034E244E759E4C70111
:101D5000B6010E94393E20911840309119404091BF
:101D60001A4050911B400E94B53F0E942240609350
:101D7000094370930A4380930B4390930C43FF9065
:101D8000EF90DF90CF9049CFEF92FF920F931F9388
:101D9000CF93DF93E091D541CE2FD0E07E01EE0CC2
:101DA000FF1CEE0CFF1CD701A25DBF4B4D935D9352
:101DB0006D937C931397B7016050704CDB010D93CA
:101DC0001D932D933C9313979E012F513C4B91E013
:101DD000D9019C93A82FB0E0A65DBB4BEC93EF5FBD
:101DE000E093D541F0E0E25EFF4B8083DF91CF913D
:101DF0001F910F91FF90EF900895DC01ED91FC9100
:101E0000F170FC5E80810895CF92DF92EF92FF9295
:101E10000F931F93CF93DF9300D0CDB7DEB76C0144
:101E20007C0103E010E009831A83CE010196E5DF0F
:101E3000F70181937F010F5F1F4F0730110599F75D
:101E4000C6010F900F90DF91CF911F910F91FF90DE
:101E5000EF90DF90CF9008950F931F93CF93DF9370
:101E600000D000D0CDB7DEB78C0119821A82CE0126
:101E70000196C3DF8F34F9F481E090E089839A837F
:101E8000CE010196BADF8534B1F482E090E0898317
:101E90009A83CE010196B1DF8D3469F481E001159A
:101EA000110551F0CE010196AFDF81E02B813C811D
:101EB0002017310709F080E02496CDBFDEBFDF9107
:101EC000CF911F910F9108951F93CF93DF93EC0152
:101ED000162F93DF8117B1F09FB780910210282F42
:101EE000227081FDFACFF8948DE984BF2093001011
:101EF00023E184BF20930010E881F981F170FC5E3A
:101F000010839FBFCE01DF91CF911F910895CF9293
:101F1000DF92EF92FF920F931F93CF93DF9300D046
:101F2000CDB7DEB76C017C0103E010E009831A83B2
:101F3000F70161917F01CE010196C6DF0F5F1F4F50
:101F40000730110599F7C6010F900F90DF91CF91DF
:101F50001F910F91FF90EF90DF90CF9008950F9316
:101F60001F93CF93DF9300D0CDB7DEB700917B46B0
:101F700010917C4680917D4690917E460817190706
:101F80009CF4C801957189839A836FEFCE01019605
:101F90009BDF10927746109278468091754690911B
:101FA0007646080F191FE6CF0F900F90DF91CF9163
:101FB0001F910F910895DC01ED91FC910088F1894A
:101FC000E02D23E030E00994FB0101900020E9F7C7
:101FD0003197AF01461B570B31CA6115710509F0E6
:101FE000F3CF90E080E008958F929F92AF92BF92DE
:101FF000EF92FF920F931F93CF93DF93CDB7DEB78E
:10200000A197CDBFDEBF7C01FA01CB0119A222301E
:1020100008F42AE08E010F5D1F4F822E912CB12C07
:10202000A12CBF01A50194010E941C3FF901CA0126
:102030006A30CCF4605DD8016E938D01232B242B84
:10204000252B79F7BD01C701C8DFA196CDBFDEBF43
:10205000DF91CF911F910F91FF90EF90BF90AF90C4
:102060009F908F900895695CE6CF66E271E4ACCFF3
:102070000F931F93CF93DF93EC01DEDB8C01CE0136
:10208000F4DF800F911FDF91CF911F910F91089581
:10209000CF92DF92EF92FF92CF93DF93AB01BC011F
:1020A00077FF19C06A017C018DE2E4DBEC01442773
:1020B0005527BA014C195D096E097F092AE08EED9A
:1020C00094E492DF8C0F9D1FDF91CF91FF90EF90F2
:1020D000DF90CF9008952AE08EED94E4DF91CF91C8
:1020E000FF90EF90DF90CF907FCFBC01990F880BCE
:1020F000990BCECFCF93DF93F8DFEC018EED94E414
:10210000B4DF8C0F9D1FDF91CF9108954F925F92A6
:102110006F927F928F929F92AF92BF92CF92DF92F7
:10212000EF92FF920F931F93CF936B017C01742E5C
:10213000AC019B010E94254169E271E4811126C036
:1021400046015701E894B7F82FEF3FEF4FE75FE7FD
:10215000C501B4010E94254181110CC02FEF3FEF52
:102160004FE75FE7C501B4010E94D43D6DE271E421
:10217000181664F02FEF3FEF4FE75FE4C701B60199
:102180000E94D9401816A4F461E371E48EED94E442
:10219000CF911F910F91FF90EF90DF90CF90BF9064
:1021A000AF909F908F907F906F905F904F900CCFEB
:1021B0002FEF3FEF4FE75FECC701B6010E94D43D20
:1021C00087FDE2CF20E030E0A901C701B6010E94FF
:1021D000D43D10E000E087FF07C08DE24BDB8C01AF
:1021E000F7FAF094F7F8F094C0E060E070E080E077
:1021F0009FE37C1641F020E030E040E251E40E9491
:10220000B53FCF5FF6CFA70196010E944E3F2B014D
:102210003C010E9422404B015C012AE0BC01A40168
:102220008EED94E4E1DE7C01E00EF11ECC23C9F1D9
:10223000C501B4010E94D83D9B01AC01C301B201AC
:102240000E944D3F4B015C0165E371E48EED94E427
:10225000BBDEE80EF91EC15020F120E030E040E284
:1022600051E4C501B4010E94393E2B013C010E949A
:1022700022404B01B12CA12C2AE0B501A4018EED26
:1022800094E4B2DEE80EF91EC501B4010E94D83D07
:102290009B01AC01C301B2010E944D3F4B015C01A7
:1022A000DACFC701CF911F910F91FF90EF90DF9090
:1022B000CF90BF90AF909F908F907F906F905F90E6
:1022C0004F900895CF93DF9321DFEC018EED94E4DE
:1022D000CCDE8C0F9D1FDF91CF91089517CFAF9269
:1022E000BF92CF92DF92EF92FF920F931F93CF9303
:1022F000DF9300D0CDB7DEB76C015B0110E000E0EA
:102300000A151B05BCF57801EC0CFD1C85E1F822D3
:10231000E982FA82CE01019670DD803110F480E30B
:10232000A9DA0F5F1F4FE982FA82CE01019665DDBF
:10233000482F50E070E060E020E18EED94E454DE40
:102340006FE371E48EED94E43FDEC8018770992756
:10235000892B29F46FE371E48EED94E435DEC80136
:102360008F709927892B61F66CE870E18EED94E40B
:1023700063DAC6CF0F900F90DF91CF911F910F912D
:10238000FF90EF90DF90CF90BF90AF900895CF92E5
:10239000DF92EF92FF920F931F93CF93DF936FE63D
:1023A00070E185E795E448DA4091DD4450E070E063
:1023B00060E02AE085E795E417DE6CE371E485E7E9
:1023C00095E402DE4091604050E070E060E02AE079
:1023D00085E795E409DE8091DD44882309F453C044
:1023E0006BE570E185E795E443DE10E000E0809165
:1023F000DD448017110609F00CF445C0680183E044
:10240000CC0CDD1C8A95E1F7F12CE12CC091DB446A
:10241000D091DC44CC0DDD1DCE0DDF1D88818031D7
:1024200028F469E570E185E795E406DA488150E033
:1024300070E060E020E185E795E4D6DD67E570E1D6
:1024400085E795E4F9D98FEFE81AF80A88E0E816ED
:10245000F104E1F6E091DB44F091DC44EC0DFD1D6C
:102460008681833029F46CE370E185E795E4E4D953
:1024700085E795E4FADD65E070E080E090E076DAEB
:102480000F5F1F4FB4CF85E795E4EFDD61E270E1A8
:1024900085E795E4D1D98091DA4467E371E4882334
:1024A00011F068E271E485E795E497DD67E170E19A
:1024B00085E795E4DDDD85E795E4D7DD65E070E04F
:1024C00080E090E0DF91CF911F910F91FF90EF900E
:1024D000DF90CF904BCADF92EF92FF920F931F9342
:1024E000CF93DF9320912646211106C0E92ED82EE6
:1024F0000E948F0981110FC0109224461092264627
:102500001092254680E0DF91CF911F910F91FF90AF
:10251000EF90DF90089560E080EF0E945E09D1E0C7
:1025200000E0F12CC1E00E943909182F0E943909FE
:102530001130E1F48130C9F5C134F0F2F092244653
:10254000F11003C081E08093264680911C468823C9
:1025500099F2ACE1B6E4ED2DFE2DCF0108962D9158
:102560002193E817F907D9F781E0CDCFE02FF0E00C
:10257000181311C080912446C817A8F4DF01A75E84
:10258000B94B13968C918D2381F410E0C93010F46F
:10259000C0932546FC2EE75EF94B83819D2F9095D5
:1025A000892383830AC08C13F0CFE02FF0E0E75E2D
:1025B000F94B83818D2B838311E0812F0E940509C4
:1025C000CF5FDD0F11F40F5FD1E0083008F4ABCF1F
:1025D000B3CF0F931F93CF93DF938091D744803174
:1025E00009F070C088E20E94E10982FF43C084E0E4
:1025F0000E94EB092D9880E00E94CE0980E00E94A5
:10260000CE09D82FC82F833408F0C2E4C093914478
:1026100080E00E94CE09082F80E00E94CE09182F8A
:1026200080E00E94CE09282F30E0A90196E0440FF7
:10263000551F9A95E1F744275370402B40939244DD
:1026400050939344322F222722273370212B20933B
:102650009444309395449091D8449417150611F002
:10266000452B11F4D330B8F4109291440E94CC0958
:102670000E94040A8091D744803121F580919144D1
:10268000882311F184E00E94EB0981E0DF91CF9172
:102690001F910F910895C350C09396448078809302
:1026A0009044D0E0DC1728F480E00E94CE09DF5F80
:1026B000F9CF0E94CC0980E10E94EB0984E20E94DC
:1026C000E109D8CF0E94040A80E0E0CF6DE175E017
:1026D0008EED94E4CDDC67E175E08EED94E4ACD84A
:1026E00080917F468B3209F462C1863509F462C15C
:1026F0008B3509F462C190E080E0F7DC6AE075E0B8
:102700008EED94E499D84091804650E070E060E00E
:102710002AE08EED94E468DC62E075E08EED94E4EE
:102720008BD8809181468F7390E0DFDC6FEF74E08F
:102730008EED94E481D8809183468251990BD5DC4B
:102740006AEF74E08EED94E493DC6DEE74E08EED50
:1027500094E48EDC65EE74E08EED94E46DD86091C7
:10276000844670918546809186469091874642E0E6
:1027700050E0A8DD69ED74E08EED94E45DD86091E1
:1027800088467091894680918A4690918B4642E0B6
:1027900050E098DD60ED74E08EED94E44DD86091EA
:1027A000904670919146809192469091934642E076
:1027B00050E088DD66EC74E08EED94E43DD86091E5
:1027C000944670919546809196469091974642E046
:1027D00050E078DD6DEB74E08EED94E42DD86091DF
:1027E00098467091994680919A4690919B4642E016
:1027F00050E068DD63EB74E08EED94E41DD86091E9
:102800009C4670919D4680919E4690919F4642E0E5
:1028100050E058DD6AEA74E08EED94E40DD86091E2
:10282000A0467091A1468091A2469091A34642E0B5
:1028300050E048DD60EA74E08EED94E40E941C0CE8
:102840006091A4467091A5468091A6469091A746B6
:1028500042E050E037DD67E974E08EED94E40E94D9
:102860001C0C6091A8467091A9468091AA4690914F
:10287000AB4642E050E026DD6DE874E08EED94E476
:102880000E941C0C6091AC467091AD468091AE46A2
:102890009091AF4642E050E015DD64E874E08EEDC3
:1028A00094E40E941C0C6091B0467091B1468091F6
:1028B000B2469091B34642E050E004DD6AE774E02E
:1028C0008EED94E40E941C0C6091B4467091B54664
:1028D0008091B6469091B74642E050E0F3DC61E764
:1028E00074E08EED94E40E941C0C6091B8467091E7
:1028F000B9468091BA469091BB4642E050E0E2DC96
:1029000067E674E08EED94E40E941C0C6091BC4676
:102910007091BD468091BE469091BF4642E050E026
:10292000D1DC6CE574E08EED94E40E941C0C6091A7
:10293000C0467091C1468091C2469091C34642E024
:1029400050E0C0DC62E574E08EED94E40E941C0C63
:102950008091C44690E0CEDB62E474E08EED94E4B6
:102960000E941C0C8091C5469091C646C3DB8091A5
:10297000824666E274E0882311F06DE274E08EED29
:1029800094E476DB63E374E08EED94E40E941C0C27
:102990008091C74690E0AEDB8091E14667E074E04D
:1029A000882311F067E174E08EED94E461CB81EB54
:1029B00091E0A3CE84E693E0A0CE83E993E09DCEA0
:1029C0000F931F93CF93DF93893208F07CC090E080
:1029D000DC01AF56BF4B2C912F3F09F474C08C0122
:1029E00006541F4BE801E881D0E2ED9FF00111246D
:1029F000FC5F611133C0268330812323AC014D512C
:102A00005F4B211111C0EA012881309749F128302C
:102A100038F57096E20FF11D3FB7F89420816111EF
:102A200022C0277F20833FBFFA0130813F3F09F456
:102A30004AC0E8012881363058F53091E605432F29
:102A40004770241312C0EC91E53008F0EE0F80912E
:102A5000010AE095E823E093010A35C02583CCCF35
:102A6000F0E0E0E0D9CF2860DDCF387169F42130A3
:102A700079F4EC91E53008F0EE0F8091410AE09591
:102A8000E823E093410A1FC0383111F4263089F35E
:102A900088599F4BFC01808185FF13C030E1839FE3
:102AA000F0011124F75F91819770973061F4EC91F8
:102AB000853270F4803298F48830E1F2803121F26E
:102AC00002C08111F4CFDF91CF911F910F91089532
:102AD000803471F08038B9F71092A006F4CF90E1FD
:102AE000899FF0011124F75F81818F7E8183EBCF75
:102AF0008091920B8E2339F3C0E22C9F9001112418
:102B00003C5FE83030F5205F3F4FE20FF32FF11DBF
:102B10004FB7F8949091800B9E7F9093800B90918B
:102B20008E0B90FFFCCF2091920B90E080959095BA
:102B300030E08223932328ED24BF8093920B809171
:102B4000800B81608093800B80818F7780834FBF63
:102B5000BACFF0E0E0E0DCCF0F931F93CF93DF9389
:102B6000CDB7DEB72897CDBFDEBF2091DB443091D3
:102B7000DC44232B31F02091BF423091C042232B03
:102B800061F41092DA441092DD442896CDBFDEBF86
:102B9000DF91CF911F910F910895182F809161407F
:102BA0000E94AB081093DA44112309F496C020E088
:102BB00030E040E85FE360912A4070912B408091C3
:102BC0002C4090912D400E94D43D87FF03C08FE19F
:102BD00080931C4000911C4090916040E091BF4266
:102BE000F091C04280E020E335E7981721F021936F
:102BF00031938F5FFACF109224461092264610929E
:102C00002546109223461092224610922146109299
:102C1000204610921F4610921E4610921D4610929A
:102C20001C461092DD44CE01019655DC882349F004
:102C300089818832C1F78091DD448F5F8093DD44C4
:102C4000F2CF809160409091DD44891710F4809319
:102C5000DD44E091DB44F091DC4480818832A1F0D6
:102C600010E08091DD44181778F428E0129FC0012D
:102C700011242091DB443091DC44820F931F2BDC24
:102C8000882311F01F5FEDCF0E948F0960E08CEC6C
:102C90000E945E0960E08EE40E945E0960E080E0D0
:102CA0000E945E0960E080E00E945E0960E0802F83
:102CB0000E945E090E948F0960E08CEC0E945E0910
:102CC00061E088E40E945E0964E170E080E090E0E9
:102CD0000E94B60C0E940D0E58CF8091294087FDAE
:102CE000F9CF8932A4F4282F082E000C330BF901F8
:102CF000EF56FF4B90819F3F51F026543F4BD90137
:102D0000EC91B0E2EB9FF0011124FC5F918360E055
:102D100057DE809129408932E8F690E0FC01EF56B9
:102D2000FF4B20812F3FB1F2FC01E654FF4BA08105
:102D3000E0E2AE9FD0011124BC5F8D519F4BFC019E
:102D40003081F0E0E0E0383028F4CD014096FC011D
:102D5000E30FF11D9FB7F89412962C938081877F23
:102D600080839FBFB7CF0F931F93CF93DF93CDB7D0
:102D7000DEB72C97CDBFDEBF681BF1F0062F10E049
:102D8000682F70E069567B4BA801CE0101960E9426
:102D90009D41E1E0F0E0EC0FFD1FE00FF11F10821C
:102DA000CE0101960E943A3C2C96CDBFDEBFDF914A
:102DB000CF911F910F91089590E080E0F5CF0F9390
:102DC0001F93CF93DF93CDB7DEB72C97CDBFDEBF78
:102DD000681BF1F0062F10E0682F70E069567B4BFE
:102DE000A801CE0101960E949D41E1E0F0E0EC0FC8
:102DF000FD1FE00FF11F1082CE0101960E94373CAB
:102E00002C96CDBFDEBFDF91CF911F910F9108951A
:102E100060E070E0CB01F4CF4F925F926F927F92AF
:102E20008F929F92AF92BF92CF92DF92EF92FF92DA
:102E3000CF93DF93C82F8090184090901940A090B6
:102E40001A40B0901B40609146407091474090E01E
:102E500080E00E94D83D6B017C0160914C407091F4
:102E60004D406F5F7F4F072E000C880B990B0E941F
:102E7000DA3DA50194010E94393E2BED3FE049EC7B
:102E800050E40E94393EA70196010E94393E20E09D
:102E900034E244E759E40E94B53F2B013C01D0E005
:102EA000BE016F5F7F4F072E000C880B990B0E94AD
:102EB000DA3DA50194010E94393EA70196010E94C6
:102EC000393E20E034E244E759E40E94B53F6B010B
:102ED0007C01CC0FDD1FCC0FDD1FFE01E050F04C5C
:102EE00020E030E044EB53E4608171818281938182
:102EF0000E94B53F9B01AC01C701B6010E944E3F45
:102F00002BED3FE049EC50E40E94393E4B015C015F
:102F10000E94DD406B017C01C301B2010E94DD40D3
:102F20009B01AC01C701B6010E94B53F6B017C015A
:102F3000FE01E752FD4BC082D182E282F382C501DD
:102F4000B4010E94B23F4B015C01C301B2010E9477
:102F5000B23F9B01AC01CF50DD4BC701B6010E94CF
:102F6000393E9B01AC01C501B4010E944D3F68830D
:102F700079838A839B83DF91CF91FF90EF90DF90DD
:102F8000CF90BF90AF909F908F907F906F905F9009
:102F90004F900895CF938093464090934740BC0153
:102FA00090E080E00E94D83D20912A4030912B4053
:102FB00040912C4050912D400E94393E0E94224069
:102FC0006093DB417093DC410E940D0EC0E0809164
:102FD0004C4090914D40C817190624F48C2F1CDFEB
:102FE000CF5FF5CFCF9108954F925F926F927F920E
:102FF000AF92BF92CF92DF92EF92FF920F931F9307
:10300000CF93DF93E82FCB01BA0168017901F0E09B
:10301000E65DFB4B108124E0129FE0011124FE01CC
:10302000E25DFF4B5F0120912540309126404091A9
:103030002740509128400E94393E2B013C0160916D
:10304000294670912A4690E080E00E94D83D9B017D
:10305000AC01C301B2010E94B53FF50160837183E9
:1030600082839383C050D04CC882D982EA82FB828B
:10307000812FDF91CF911F910F91FF90EF90DF9003
:10308000CF90BF90AF907F906F905F904F90C4CEE5
:103090002F923F924F925F926F927F928F929F9268
:1030A000AF92BF92CF92DF92EF92FF920F931F9356
:1030B000CF93DF93CDB7DEB7E797CDBFDEBF84E018
:1030C0008093210461E08AE07BDC9FB7F89480E183
:1030D00080930204809114048860809314049FBF3D
:1030E0009FB7F89480E28093020480911504886071
:1030F000809315049FBF40E052EC61E070E08EEDDC
:1031000094E40E94DB0F8091080485FD05C0809146
:1031100081468F5F8093814662EE73E08EED94E48A
:103120000E941C0C62E571E48EED94E40E94ED0FA8
:103130006CEC73E08EED94E40E94381086E190E030
:103140000E942C0F882341F1CE0101960E94040FAA
:1031500009811A8117FD20C0680123E0C20ED11C2D
:103160003FE7E32E36E4F32E87E090E05C013FEF8B
:10317000A31AB30A8EA79FA7CE018E960E94FD0EBA
:10318000D7018D937D01C501AC14BD0478F36EE5C4
:1031900073E00430110511F46DE473E08EED94E4F6
:1031A0000E94381093DA80918246882309F45AC02D
:1031B00063EC73E08EED94E40E941C0C6BEB73E007
:1031C0008EED94E40E941C0C80917F468B3231F48A
:1031D00064EB73E08EED94E40E941C0C80917F46BA
:1031E000863531F46DEA73E08EED94E40E941C0C98
:1031F00080917F468B3531F466EA73E08EED94E47E
:103200000E941C0C6DE973E08EED94E40E941C0C8E
:103210004091804650E070E060E02AE08EED94E45A
:103220000E94F40F65E973E08EED94E40E941C0C9B
:103230004091814650E070E060E02AE08EED94E439
:103240000E94F40F63E973E08EED94E40E9438105D
:103250006AE571E48EED94E40E94E40F8EED94E44F
:103260000E9435108091080484FD03C081E08093A2
:10327000D44180918246882309F4FFC01091804692
:10328000809181468093D8441092D94480E2809303
:10329000210481E08093410484E0809341040E94F2
:1032A000CC098091E405837F8093E40580916109D6
:1032B00084608093610980916009816280936009D4
:1032C0000E94E70C6B017C016AEA8FE20E94D80938
:1032D0008FE20E94E1098A3A59F00E94E70C6C19CA
:1032E0007D098E099F09623371058105910560F39F
:1032F0000E94E70C6B017C0165E58FE20E94D80912
:103300008FE20E94E109853559F00E94E70C6C19A3
:103310007D098E099F09623371058105910560F36E
:10332000FE0133968BE2DF011D928A95E9F781E079
:10333000898384E08A8322E02B8393E09D832E831C
:103340008F8380E4888725E029879A8796E09B878A
:1033500093E39C8797E09D872CE62E8728E02F87B4
:10336000888B29E0298B29E12B8B22E42C8B35E2F9
:103370003D8B8E8B86E28F8B988F88E2898F90E1D0
:103380009A8F89E28B8F8CED8C8F8EE28D8F88E8FF
:103390008E8F8FE28F8F8DE288A380E389A337E33E
:1033A0003BA330E93CA338E33DA32EA32CE32FA39A
:1033B0002FE828A72DE329A79AA79FE69BA78CA70C
:1033C0001AA38E010F5F1F4FF8018081882331F00F
:1033D00061810E94D8090E5F1F4FF6CF69E981E134
:1033E0000E94D80984E00E94EB090E94E70C6B015F
:1033F0007C0187E20E94E10987FD0BC00E94E70C77
:103400006C197D098E099F0962337105810591054B
:1034100080F30E94E70C84E00E94EB092D988EEB6C
:103420000E94CE0901E411E4D8018D918D010E9422
:10343000CE09B1E401351B07B9F70E94CC098DE331
:103440000E94E109682F61608DE30E94D8092091F4
:103450008146E4E12E9F8001112460E070E0CB0101
:103460000115110541F00E94E23B9801110F440B38
:10347000550B0E94F03E0E94B60C8EE0809305062C
:1034800080910306809303061092B00086E080933B
:10349000020681E08093000680910006809300067A
:1034A00087E08093080660E070E0CB0150E040E0E8
:1034B00021E020930A0630910D0630FFFCCF4A3000
:1034C000510544F0E0911006F09111066E0F7F1F38
:1034D000811D911D4F5F5F4F4A31F7E25F0749F74A
:1034E0000E94D83D20E030E44CE156E40E94B53F14
:1034F00020E030EF4FE755E40E94B53F9B01AC015F
:1035000066E676E686E69FE30E94B53F6B017C01A6
:1035100063E773E08EED94E40E941C0C44E050E0FD
:10352000C701B6010E9462118CE090E08093624076
:103530009093634080E090E0ACEEB1E4809318405B
:1035400090931940A0931A40B0931B4080E090E103
:103550008093294690932A4680E890E080932746FE
:1035600090932846C0922540D0922640E092274072
:10357000F09228408091844690918546A09186469D
:10358000B091874610921E408093484090934940E6
:10359000A0934A40B0934B400091944610919546B9
:1035A0002091964630919746409190465091914691
:1035B000609192467091934683E00E94C40E009100
:1035C0009C4610919D4620919E4630919F46409189
:1035D00098465091994660919A4670919B4684E036
:1035E0000E94C40E0091A4461091A5462091A646C3
:1035F0003091A7464091A0465091A1466091A246C5
:103600007091A34685E00E94C40E0091AC461091D3
:10361000AD462091AE463091AF464091A8465091BC
:10362000A9466091AA467091AB4686E00E94C40EFE
:103630000091B4461091B5462091B6463091B746F8
:103640004091B0465091B1466091B2467091B346F8
:1036500088E00E94C40E0091BC461091BD462091A6
:10366000BE463091BF464091B8465091B9466091F0
:10367000BA467091BB4689E00E94C40E8091D44145
:10368000882319F08CE390E085DC6091C04670914E
:10369000C1468091C2469091C3460E94830E80919C
:1036A000884690918946A0918A46B0918B46809336
:1036B0004E4090934F40A0935040B0935140809122
:1036C000C44680932B4681E080932C4686E080930D
:1036D0002F46809330468091C5469091C646092E6C
:1036E000000CAA0BBB0B8093314690933246A093FB
:1036F0003346B09334468CE0809361408BE08093F6
:10370000294088E08093210461E08BE059D98FE55E
:1037100080931C4088EC96E48093DB449093DC44D7
:103720001092C84686E594E48093BF429093C042CD
:1037300083E080936040E0907746F0907846E11413
:10374000F10409F4B5C087010F5F1F4F27E5C22EB2
:1037500026E4D22E80917546909176468E0D9F1D5F
:103760000817190774F4C801957189839A83CE01EB
:1037700001960E94FD0ED6018D936D010F5F1F4FC4
:10378000E9CF409057465090584660905946709007
:103790005A4680905B4690905C46A0905D46B09003
:1037A0005E46C0905F46D0906046E0906146F090E3
:1037B00062460091634610916446209165463091BF
:1037C000664640916746509168466091694670919F
:1037D0006A4680916B4690916C46A0916D46B0917F
:1037E0006E468CAB9DABAEABBFAB80916F469091FC
:1037F0007046A0917146B091724688AB99ABAAAB66
:10380000BBAB4092F5435092F6436092F7437092FF
:10381000F8438092F9439092FA43A092FB43B0920E
:10382000FC43C092FD43D092FE43E092FF43F092EE
:1038300000440093014410930244209303443093C6
:1038400004444093054450930644609307447093A6
:1038500008448CA99DA9AEA9BFA98093094490935F
:103860000A44A0930B44B0930C4488A999A9AAA92F
:10387000BBA98093354690933646A0933746B093C4
:1038800038468091C74668D98091D541882341F157
:10389000282F30E020934C4030934D408F5F90E0D4
:1038A0008630F0F4FC01EF51FC4B10820196F8CF0A
:1038B000412C512C3201812C912C5401C12CD12C42
:1038C000760100E010E0980140E050E0BA011CAA47
:1038D0001DAA1EAA1FAA18AA19AA1AAA1BAA91CF22
:1038E000409025405090264060902740709028409E
:1038F0006091294670912A4690E080E00E94D83D70
:103900004B015C01209148403091494040914A4030
:1039100050914B40C301B2010E94393EA501940170
:103920000E94B53F609348407093494080934A405D
:1039300090934B408EE2E82E80E4F82E91ECC92E55
:1039400092E4D92E10E000E080914C4090914D40DF
:103950000817190714F5D7012D913D914D915D91EF
:103960007D011D01B4E02B1A3108C301B2010E9490
:10397000393EA50194010E94B53FF1016083718336
:1039800082839383802F48DAD6011D921D921D9267
:103990001D926D010F5F1F4FD7CF89E09EE080938E
:1039A0002D4690932E468BE09EE080934346909365
:1039B000444681E080931D401092B4421092B5427B
:1039C0001092B6421092B7429EE0909305069091F5
:1039D0000306909303061092B00096E090930206BF
:1039E0008093000690910006909300069091000647
:1039F0009260909300061092080690910C069160D8
:103A000090930C0680930A067894C0902A40D09038
:103A10002B40E0902C40F0902D40609146407091FA
:103A2000474090E080E00E94D83DA70196010E94A7
:103A3000393E0E9422406093DB417093DC4110923A
:103A4000E74320E034E244E759E4C701B6010E94AD
:103A5000393E209118403091194040911A405091C0
:103A60001B400E94B53F0E9422406093094370931F
:103A70000A4380930B4390930C430BE216E4F12C22
:103A8000F80180818823A1F18481893228F590E0B2
:103A9000FC01EF56FF4B20812F3FF1F0FC01E65473
:103AA000FF4BA081F0E2AF9FD0011124BC5F8D518C
:103AB0009F4BFC013081F0E0E0E0383028F4CD018C
:103AC0004096FC01E30FF11D9FB7F89412962C93DA
:103AD0008081886080839FBF6BE07EE08091464656
:103AE000F11004C069E07EE0809130460E947C08BD
:103AF0000A5E1F4FF1E0FF1226C010925C44109244
:103B00005D4410925E4410925F440E94C71160E0D1
:103B100070E080E090E40E94830EE796CDBFDEBFA8
:103B2000DF91CF911F910F91FF90EF90DF90CF9099
:103B3000BF90AF909F908F907F906F905F904F90CD
:103B40003F902F900895FF24F3949ACFEF93FF9323
:103B5000EEEDF4E415C0EF93FF93EEEDF4E43FC017
:103B6000EF93E0E660C0EF93FF93E5E7F5E408C06C
:103B7000EF93FF93E5E7F5E432C0EF93E0E053C045
:103B80002F932FB72F938F939F93AF93BF936894E7
:103B9000CF93DF9320E0C485D8E09689DF01A90F99
:103BA000B21FA95ABF4F8C9120E42C838A839F5F58
:103BB0009F738D812589291302C08F7D8D83968BFC
:103BC000DF91CF9116F00C94CF0BBF91AF919F91E5
:103BD0008F912F912FBF2F91FF91EF9118952F93D8
:103BE0002FB72F938F939F93CF93DF93C485D8E004
:103BF0008981988181FD0DC0C38981E08C0F8F730D
:103C00002489281731F0CE0FDF2F20E0D21F9F8BA1
:103C1000838BDF91CF919F918F912F912FBF2F9108
:103C2000FF91EF911895FF938F938FB78F93F8E0E3
:103C30008081848187FFFCCF85818F7B806885832D
:103C40008F918FBF8F91FF91EF9118951F920F92D7
:103C50000FB60F92112484E00E94540C1F920F9211
:103C60000FB60F9211248F939F93AF93BF938091C0
:103C7000B9429091BA42A091BB42B091BC42019628
:103C8000A11DB11D8093B9429093BA42A093BB424B
:103C9000B093BC4281E08093260BBF91AF919F917E
:103CA0008F910F900FBE0F901F9018950F930AE001
:103CB0000FC00F9308E00CC00F9306E009C00F93EC
:103CC00004E006C00F9302E003C00F9300E000C0C1
:103CD0000F920FB60F920BB60F921F921124FF9204
:103CE0001F932F933F934F935F936F937F938F9384
:103CF0009F93AF93BF93CF93DF93EF93FF93A2E58F
:103D0000B0E4A00FB11DCD91DC91000F0D5FA02F8D
:103D1000B0E0FC90109761F01F2D169518F041F05F
:103D20002296FBCFE991F9913097B9F30995F5CF38
:103D3000A02FB0E0FC92FF91EF91DF91CF91BF9166
:103D4000AF919F918F917F916F915F914F913F9133
:103D50002F911F91FF901F900F900BBE0F900FBEE1
:103D60000F900F9118951F920F920FB60F9211247A
:103D70000BB60F922F923F924F925F926F927F926B
:103D80008F929F92AF92BF92CF92DF92EF92FF926B
:103D90000F931F932F933F934F935F936F937F9353
:103DA0008F939F93AF93BF93CF93DF93EF93FF9343
:103DB00081E080930D064090100650901106C0914E
:103DC000B842E2E0EC0F20914C4030914D40E217B8
:103DD000130621F01CF0E1E0EC0FE21BF0E0E25EE4
:103DE000FF4B8081809308068091B4429091B54248
:103DF000A091B642B091B7420196A11DB11D80932A
:103E0000B4429093B542A093B642B093B742C11169
:103E10003DC48091B2429091B3428093B04290935E
:103E2000B1428091294690912A4696958795481AE5
:103E3000590A4092B2425092B3428091AE42909160
:103E4000AF42AC015695479556954795841B950B07
:103E5000A20157FE04C04427552744195509840F71
:103E6000951F8093AE429093AF42E0912746F09128
:103E7000284641E0E817F90708F040E040930D4478
:103E8000141415040CF08EC041E050E04093AC4295
:103E90005093AD42A091AC42B091AD424091964258
:103EA00050919742A417B50709F481C06091D6419B
:103EB0006F5F6093D6416091D641633030F01092CD
:103EC000D641A0939842B09399426091E14161112B
:103ED0001092E1416090984270909942E817F9077A
:103EE00008F06BC281E06816710409F0C2C141306C
:103EF000510509F4C4C18091DF419091E0410196E0
:103F00008093DF419093E04140911D40442309F4A8
:103F100071C00A9708F46EC010921D401092DF41E4
:103F20001092E041CAE5D2E4AAE2B2E46AEF71E499
:103F300042EE51E490E080E082179307DCF51882AE
:103F400019821A821B821C821D821E821F82289661
:103F50001C9211961C92119712961C92129713960E
:103F60001C92139714961C92149715961C921597F1
:103F700016961C92169717961C9217971896FB0187
:103F80001082118212821382148215821682178285
:103F9000685F7F4FFA011192119211921192AF0155
:103FA0000196CACF1092AC421092AD4273CF1092DC
:103FB000D64181CF10929E4210929F421092A04211
:103FC0001092A1421092A2421092A3421092A442D7
:103FD0001092A54210929A4210929B4210929C42DB
:103FE00010929D421092A8421092A9421092AA42A9
:103FF0001092AB428091DF419091E0414091DD41D0
:104000005091DE418417950739F440911D404111CC
:1040100003C041E04093E8434091DB415091DC41D3
:104020008417950708F42BC180911D40811127C189
:104030001092DF411092E041CAE5D2E4AAE2B2E474
:104040001AEF212E11E4312E62EE71E450E040E0CF
:10405000421753070CF09BC088809980AA80BB80D0
:10406000CC80DD80EE80FF802896CA01E3E0880FD7
:10407000991FEA95E1F78C010F541C4BF8018082DF
:104080009182A282B382C482D582E682F7828C902A
:1040900011969C9011971296AC9012971396BC9023
:1040A00013971496CC9014971596DC901597169646
:1040B000EC9016971796FC90179718968C010F574F
:1040C0001C4BF80180829182A282B382C482D58285
:1040D000E682F7828E0108501109F80110821182E0
:1040E0001282138214821582168217828D01085063
:1040F0001109F80110821182128213821482158232
:1041000016821782F10180809180A280B380C480E2
:10411000D580E680F780F8E02F0E311C8C010F5A15
:104120001C4BF80180829182A282B382C482D58224
:10413000E682F782810108501109F801108211828C
:10414000128213821482158216821782FB018190DB
:104150009190A190B190BF0175016401FF0CCC0852
:10416000DC2C76018F5D9C4BFC0180829182A282C7
:10417000B382C482C582C682C782CB010497FC0188
:1041800010821182128213824F5F5F4F61CF809144
:104190009A4290919B42A0919C42B0919D42AC0169
:1041A000BD01770F440B542FBA0180930D439093B8
:1041B0000E43A0930F43B093104340931143409399
:1041C0001243409313434093144370919E42609175
:1041D0009F425091A0424091A1423091A242209131
:1041E000A3429091A4428091A54270931943609399
:1041F0001A4350931B4340931C4330931D43209319
:104200001E4390931F438093204310929E4210922E
:104210009F421092A0421092A1421092A24210928C
:10422000A3421092A4421092A54210929A42109278
:104230009B4210929C4210929D428091A842909184
:10424000A942A091AA42B091AB42809315439093AA
:104250001643A0931743B09318431092A8421092AC
:10426000A9421092AA421092AB4281E08093E743A8
:1042700006C0452B21F01092A6421092A7428091D1
:10428000A8429091A942A091AA42B091AB42019656
:10429000A11DB11D8093A8429093A942A093AA4268
:1042A000B093AB428091A6429091A7420196809331
:1042B000A6429093A7429201D2010E947D416B01D8
:1042C0007C01FF0CCC08DC2C76019B01AC016C2D31
:1042D0007C2D8C2D9C2DA0909E42B0909F42C09032
:1042E000A042D090A142E090A242F090A34200915F
:1042F000A4421091A5420E94894120939E4230938E
:104300009F424093A0425093A1426093A242709377
:10431000A3428093A4429093A542C201550CAA0BDC
:10432000BB0B40919A4250919B4260919C4270918C
:104330009D42840F951FA61FB71F80939A429093AA
:104340009B42A0939C42B0939D4260929642709291
:1043500097428091B8428F5F8093B84220914C4041
:1043600030914D408217130619F014F01092B842A4
:10437000FF91EF91DF91CF91BF91AF919F918F917D
:104380007F916F915F914F913F912F911F910F916D
:10439000FF90EF90DF90CF90BF90AF909F908F9065
:1043A0007F906F905F904F903F902F900F900BBE3B
:1043B0000F900FBE0F901F9018954091B4425091EE
:1043C000B5426091B6427091B7428091D7419091C9
:1043D000D841A091D941B091DA4184179507A60739
:1043E000B70748F48091BE42811105C081E08093F7
:1043F000E8438093BE424091B4425091B5426091EF
:10440000B6427091B7428091094390910A43A091BE
:104410000B43B0910C4384179507A607B70708F024
:104420002ECF1092B4421092B5421092B642109222
:10443000B74281E080931D401092DF411092E0412D
:10444000CAE5D2E41AE2212E12E4312EEAEFF1E4B9
:1044500062EE71E450E040E0421753070CF0C5C033
:10446000CA01A3E0880F991FAA95E1F78C010F54A8
:104470001C4BD8011C9211961C92119712961C92FB
:10448000129713961C92139714961C9214971596D4
:104490001C92159716961C92169717961C928C01D3
:1044A0000F571C4BD8011C9211961C921197129613
:1044B0001C92129713961C92139714961C921497A1
:1044C00015961C92159716961C92169717961C9285
:1044D000188219821A821B821C821D821E821F82F0
:1044E0002896D1011C9211961C92119712961C923B
:1044F000129713961C92139714961C921497159664
:104500001C92159716961C92169717961C92B8E057
:104510002B0E311C80809180A280B380C480D58016
:10452000E680F78038968C010F5A1C4BD8018C928C
:1045300011969C9211971296AC9212971396BC9278
:1045400013971496CC9214971596DC92159716969D
:10455000EC9216971796FC927F01B8E0EB1AF108DF
:10456000D7011C9211961C92119712961C921297C9
:1045700013961C92139714961C92149715961C92DE
:10458000159716961C92169717961C92DB018D9024
:104590009D90AD90BD90BD0175016401FF0CCC08EC
:1045A000DC2C76018F5D9C4BDC018C9211969C92E9
:1045B00011971296AC9212971396BC921397149679
:1045C000CC9214971596CC9215971696CC92169776
:1045D0001796CC92CB010497DC011D921D921D927F
:1045E0001C9213974F5F5F4F37CF70919E4260913F
:1045F0009F425091A0424091A1423091A24220910D
:10460000A3429091A4428091A54270931943609374
:104610001A4350931B4340931C4330931D432093F4
:104620001E4390931F438093204310929E4210920A
:104630009F421092A0421092A1421092A242109268
:10464000A3421092A4421092A54280919A42909166
:104650009B42A0919C42B0919D42AC01BD01770F5D
:10466000440B542FBA0180930D4390930E43A093B3
:104670000F43B09310434093114340931243409330
:10468000134340931443D1CD1082B0C0D0E02C1717
:104690003D070CF45ECE2197FE01EF51FC4B1E014D
:1046A000220C331CB6E04B16510474F381E0808376
:1046B0008091294690912A4696958795F101E65773
:1046C000FD4B60807180681A790A4E0133E0880CD6
:1046D000991C3A95E1F7F401E65AFD4BA091B042DE
:1046E000B091B14293010E947D416B017C01FF0CAE
:1046F000CC08DC2C76019B01AC016C2D7C2D8C2D23
:104700009C2DA080B180C280D380E480F58006819A
:1047100017810E94894120833183428353836483BC
:10472000758386839783F401E65DFD4BA091B242C9
:10473000B091B34293010E947D416B017C01FF0C5B
:10474000CC08DC2C76019B01AC016C2D7C2D8C2DD2
:104750009C2DA080B180C280D380E480F58006814A
:1047600017810E948941208331834283538364836C
:10477000758386839783F401E650FE4B9301D30142
:104780000E947D416B017C01FF0CCC08DC2C760182
:104790009B01AC016C2D7C2D8C2D9C2DA080B180BB
:1047A000C280D380E480F580068117810E94894110
:1047B0002083318342835383648375838683978305
:1047C000CC0FDD1FCC0FDD1FCE51DE4BC301770CAC
:1047D000AA0BBB0B488159816A817B81840F951F8D
:1047E000A61FB71F88839983AA83BB83F101E6576D
:1047F000FD4B40825182ADCDCF92DF92EF92FF927E
:104800000F931F93CF93DF9300D0CDB7DEB71092F5
:10481000E0441092E144F8EECF2EF3E0DF2EE12CDD
:10482000F12CC092E244D092E344E092E444F0924E
:10483000E54440E151E44093DE445093DF4480E698
:1048400098E08093EA449093EB448EE890E1809363
:10485000EC449093ED4482E08093EE441092EF4458
:104860001092F0441092774510927845C0927945A5
:10487000D0927A45E0927B45F0927C454093754515
:104880005093764540E058E04093814550938245EF
:1048900047E950E140938345509384458093854593
:1048A00081E0809386451092874540E05BE167EBAD
:1048B00070E080E08F5F863011F487E00BC0769562
:1048C000679557954795413099E059079DE36907EA
:1048D000710580F794E090931846482F4095242F57
:1048E000217030E044E0220F331F4A95E1F731E0B8
:1048F0008162822B8093174640E459E040930C4636
:1049000050930D4690930F4686E080931046109288
:1049100012461092134610922B4610922C4623E01A
:1049200020932F46309330468EE690E0A0E0B0E032
:104930008093314690933246A0933346B0933446E9
:1049400010923546109236461092374610923846ED
:104950001092394610923A4610923B4610923C46CD
:104960001092414610924246209345463093464667
:104970008093474690934846A0934946B0934A4651
:1049800010924B4610924C4610924D4610924E4655
:1049900010924F4610925046109251461092524635
:1049A00081E090E00090624002C0880F991F0A9455
:1049B000E2F78093294690932A4655E0969587958D
:1049C0005A95E1F78093274690932846809161405D
:1049D0000E94AB088EEF90E08093794690937A46E0
:1049E0008DE190E080937546909376468EE090E05E
:1049F000809373469093744686E690E080937B465E
:104A000090937C468CEF91E080937D4690937E4618
:104A1000109277461092784606E610E009831A83D2
:104A2000CE0101960E94FD0E78019DE1E90EF11C78
:104A30008F3F09F4E0C000937746109378468CEFDF
:104A4000E81681E0F8065CF4E982FA82CE0101966C
:104A50000E94FD0E8F3F09F4CAC00E94AF0F8BE287
:104A600080937F4682ED8093804681E180938146EA
:104A700021E02093824689E1809383468AE097EF84
:104A8000A9E4B4E48093844690938546A093864637
:104A9000B093874680E090E0A0E7B3E48093884637
:104AA00090938946A0938A46B0938B4680E090E02D
:104AB000A8E4B2E480938C4690938D46A0938E46F2
:104AC000B0938F4686E696E2A6E9B3E480939046DB
:104AD00090939146A0939246B09393468DEC9CECB4
:104AE000ACE4B0E48093944690939546A0939646A8
:104AF000B093974646E656E266E173E440939846E3
:104B00005093994660939A4670939B4680939C4637
:104B100090939D46A0939E46B0939F464093A04697
:104B20005093A1466093A2467093A3468093A446F7
:104B30009093A546A093A646B093A74641E75DE3B0
:104B400060E772E44093A8465093A9466093AA4652
:104B50007093AB468093AC469093AD46A093AE461F
:104B6000B093AF464093B0465093B1466093B2467F
:104B70007093B3468093B4469093B546A093B646DF
:104B8000B093B7464093B8465093B9466093BA463F
:104B90007093BB468093BC469093BD46A093BE469F
:104BA000B093BF468DEC9CECACE1B1E48093C04681
:104BB0009093C146A093C246B093C3462093C44687
:104BC00084E690E08093C5469093C6462093C746FE
:104BD0001092E0461092E1460F900F90DF91CF9136
:104BE0001F910F91FF90EF90DF90CF9008959DE17E
:104BF000E90EF11C24CF87018CEFE81681E0F8065E
:104C000009F00CCF2CCFCF93DF93CDB7DEB7CB5BC2
:104C1000D109CDBFDEBF88ED21E030E084BF209315
:104C2000620091E084BF909363009DE284BF909303
:104C3000800093E084BF9093600080E090E2209138
:104C4000650020FDD2C021E02093030A8EEF8093FF
:104C5000260A8093270A9BE09093000A32E0309363
:104C6000E6052093430A8093660A8093670A90932F
:104C7000400A9093E705E0E0FBE027E09EEF85E047
:104C800021839487158680837096E0343BE0F30798
:104C9000B9F72FEF3FE02093AA0B3093AB0B90E8CE
:104CA0009093820B1092810B2EEF30E02093AE0B8D
:104CB0003093AF0B98ED24E194BF2093680091E10D
:104CC0009093800B809302069EE09093050690E6F9
:104CD00090930306809300068091B000887F8560E2
:104CE0008093B0008091B200887F85608093B2008D
:104CF0008FED9EE280932C0B90932D0B81E080939F
:104D0000250B1092210B83E08093200B78940E9456
:104D10004818AE014B5C5F4FC654DF4F4883598340
:104D2000CA5BD040BE01665F7F4F6FAB78AF8EED40
:104D300094E40E947C0A892B09F49EC08EED94E4D1
:104D40000E945A0AD090BD428A3009F05EC5AD2D4E
:104D5000B0E0A956BB4B1C92E0919744EF53EC3363
:104D600008F082C00E2E000CFF0BE754F94D0C9496
:104D70007441ED2B34273427342734273427342744
:104D8000342734273427342734273427342734274B
:104D9000342734273427342734273427342734273B
:104DA000342734273427342734273427342734272B
:104DB0003427342734273427FB262727F3270828CE
:104DC000112828283427122AE3274328A829B029A4
:104DD000122A34272C2A3427422A712A432B3427BB
:104DE000A52BB12BC72B3427CE2B019709F027CF4A
:104DF00083E00E94540C72E0D71236C088E994E434
:104E00000E943A3C843071F48BE280937F4681EBC0
:104E100091E00E9475106FE67EE08EED94E40E94B2
:104E2000381022C0883069F0893029F010927F460E
:104E300090E080E0EECF8BE580937F4683E993E0BE
:104E4000E8CF86E580937F4684E693E0E2CF82E078
:104E5000D8120AC088E994E40E943A3C019709F00C
:104E6000AFC081E08093E04680E4A7E9B4E41D92FE
:104E70008A95E9F71092BD428091E843882369F151
:104E80001092E8438091DA44882339F180912940D7
:104E900087FD19C08932A4F4282F082E000C330B8B
:104EA000F901EF56FF4B90819F3F51F026543F4B45
:104EB000D901EC91B0E2EB9FF0011124FC5F9183EA
:104EC00061E00E94E0140E948F0960E08CEC0E9477
:104ED0005E0961E084E40E945E098091E7438823D3
:104EE00011F40C940D391092E743F89420914C4042
:104EF00030914D4090E080E0821793070CF092C40F
:104F0000FC01EF51FC4B4081411158C0FC01B3E062
:104F1000EE0FFF1FBA95E1F7DF01AF54BC4B1C92B7
:104F200011961C92119712961C92129713961C922E
:104F3000139714961C92149715961C921597169613
:104F40001C92169717961C92DF01AF57BC4B1C9210
:104F500011961C92119712961C92129713961C92FE
:104F6000139714961C92149715961C9215971696E3
:104F70001C92169717961C92DF01AF5ABC4B1C92DD
:104F800011961C92119712961C92129713961C92CE
:104F9000139714961C92149715961C9215971696B3
:104FA0001C92169717961C92EF5DFC4B1082118293
:104FB00012821382148215821682178201969CCF68
:104FC0001092E04651CF92E0D9124ECF88E994E496
:104FD0000E943A3C019721F481E08093E14644CF5E
:104FE0001092E14641CF88E994E40E94373C6B017E
:104FF0007C016EE57EE08EED94E40E941C0C42E0A4
:1050000050E0C701B6010E946E116BE57EE005CF4E
:105010008AE08C9368E974E48EED94E40E94ED0FCD
:1050200023CFA3E0DA1220CF88E994E40E94373C32
:105030000E941D406B01CB010E94CA1764E57EE00F
:105040008EED94E40E941C0CC6010E947A100CCFD5
:1050500088E994E40E943A3C809380466DE47EE0C7
:105060008EED94E40E941C0C4091804650E070E06C
:1050700060E02AE08EED94E40E94F40F8EED94E45B
:105080000E943510F1CE60E270E087E994E40E945E
:105090009241009711F40C94923B8C0107591444EF
:1050A000C801992760E270E088569B4B0E949241AC
:1050B000CC24C394C00E009711F40C94853BFC01E2
:1050C000E759F4445F01602F81E00E94B3167C0130
:1050D0006A2D8C2D0E94DF162B013C016D2D81E085
:1050E0008A0D0E94DF1621966CAF7DAF8EAF9FAF09
:1050F0002197F7E0EF16F10408F038C0F701ED57FB
:10510000F74D0C9474418A28DC28FE282029422976
:1051100064298629209125403091264040912740DE
:1051200050912840C301B2010E94393E4B015C01FD
:105130006091294670912A4690E080E00E94D83D17
:105140009B01AC01C501B4010E94B53F609348408A
:105150007093494080934A4090934B4040928446DC
:1051600050928546609286467092874666E47EE05D
:105170008EED94E40E941C0CC7010E94751064E43B
:105180007EE08EED94E40E941C0C42E050E0C301EE
:10519000B2010E946E1162E47EE08EED94E40E9402
:1051A0001C0C42E050E021966CAD7DAD8EAD9FAD04
:1051B00021970E94621158CE21960CAD1DAD2EADE7
:1051C0003FAD2197B301A20183E00E94F417409202
:1051D00090465092914660929246709293462196E4
:1051E0002CAD3DAD4EAD5FAD2197209394463093ED
:1051F00095464093964650939746B8CF21960CAD6E
:105200001DAD2EAD3FAD2197B301A20184E00E94F8
:10521000F417409298465092994660929A4670923E
:105220009B4621964CAD5DAD6EAD7FAD2197409311
:105230009C4650939D4660939E4670939F4696CFA2
:1052400021960CAD1DAD2EAD3FAD2197B301A2014E
:1052500085E00E94F4174092A0465092A1466092C9
:10526000A2467092A34621966CAD7DAD8EAD9FADEA
:1052700021976093A4467093A5468093A646909389
:10528000A74674CF21960CAD1DAD2EAD3FAD219735
:10529000B301A20186E00E94F4174092A846509202
:1052A000A9466092AA467092AB4621968CAD9DAD00
:1052B000AEADBFAD21978093AC469093AD46A09321
:1052C000AE46B093AF4652CF21960CAD1DAD2EAD7C
:1052D0003FAD2197B301A20188E00E94F4174092EC
:1052E000B0465092B1466092B2467092B346219653
:1052F0002CAD3DAD4EAD5FAD21972093B4463093BC
:10530000B5464093B6465093B74630CF21960CAD84
:105310001DAD2EAD3FAD2197B301A20189E00E94E2
:10532000F4174092B8465092B9466092BA467092CD
:10533000BB4621964CAD5DAD6EAD7FAD21974093E0
:10534000BC465093BD466093BE467093BF460ECF99
:1053500051E0D51289CD0E9466130E94C71184CDF9
:1053600060E270E087E994E40E9492410097F9F4CA
:105370006D2D81E00E94B3168C010115110569F1B4
:105380000130110591F169E37EE08EED94E40E9415
:105390001C0C61E37EE0012B09F43FCD42E050E0BC
:1053A000C301B2010E946E1165E37EE036CDBC01FF
:1053B000675974447B0181E00E94B3168C016D2D06
:1053C00081E08E0D0E94B316BC01990F880B990BDA
:1053D0000E94DA3D2B013C01D0CF10922B4681E098
:1053E00080932C461092C446CECFC301B2010E94D6
:1053F0001D406B01072E000CEE08FF08C0923146DD
:10540000D0923246E0923346F092344621E0209327
:105410002B4620932C462093C4466093C546709338
:10542000C646B1CF88E994E40E943A3C882389F0CB
:1054300099278034910514F08FE390E080938146A2
:105440006BE27EE08EED94E40E941C0C409181465C
:105450000DCE81E090E0F2CF88E994E40E943A3CDE
:105460008F718093834666E27EE08EED94E40E9425
:105470001C0C809183468251990B0E94751061E249
:105480007EE0CBCC71E0D712EFCC6FE276E08EED10
:1054900094E40E94381086E190E00E942C0F88234B
:1054A00089F0CE0101960E94040F89819A8197FDAF
:1054B00009C091958195910989839A83CE010196BE
:1054C0000E94870F61E076E08EED94E40E94381030
:1054D00068EC70E080E090E00E94B60C0C94000054
:1054E000C3CC81E0D812C0CC67EF75E08EED94E4B8
:1054F0000E94381086E190E00E942C0F811128C094
:1055000019821A826FE4CE0101960E94640F81E035
:1055100090E089839A8365E4CE0101960E94640F2E
:1055200082E090E089839A836DE4CE0101960E9427
:10553000640F03E010E009831A836FEFCE01019638
:105540000E94640F0F5F1F4F011592E0190799F732
:1055500087E690E089839A8386E190E08B839C8341
:10556000CE0101960E94870F0FE716E487E090E0D6
:10557000D8016D918D017C01BFEFEB1AFB0A8DAB59
:105580009EABCE01C5960E94640FC7018A36910575
:1055900079F790E080E00E942C0F811122C06FEC1F
:1055A00075E08EED94E40E941C0C2AE040E052E08D
:1055B00060E070E08EED94E40E94F40F69EA75E01B
:1055C0008EED94E40E94381060E072E090E080E09C
:1055D0000E946F1167EA75E08EED94E40E941C0C46
:1055E0000EC0CE0101960E94040F8B819C81019612
:1055F00069F466E575E08EED94E40E9438108EED56
:1056000094E40E94351066ED75E007CC69E475E01E
:105610008EED94E40E941C0C4B815C8170E060E094
:105620002AE08EED94E40E94F40F09811A8117FF9D
:1056300003C0119501951109045011096BE375E040
:105640008EED94E40E941C0CC8010E94751064E366
:1056500075E08EED94E40E941C0C89819A8197FF7D
:1056600006C069E275E08EED94E40E941C0C8EED9C
:1056700094E40E943510B80187E090E00E946F1119
:1056800067E275E0A9CF0E945A0D6B01CB01892B0F
:1056900071F40E945A0D21E0672B682B692B09F4E5
:1056A00020E02093C746822F0E94AC15DDCB6430EA
:1056B000710508F0D9CBCE01C5960E94F30C10E01D
:1056C00000E0CE01C5960E94F30C892B49F1083009
:1056D00038F58DA9803221F08D3011F08A3051F4E7
:1056E000E1E0F0E0EC0FFD1FE00FF11D10830F5F14
:1056F00010E0E7CF1295107F90ED980F9A3030F0C0
:105700009FEB980F963020F499EC980F190FD9CF92
:105710009FE9980F963010F499EAF7CF90E0F6CF12
:10572000DE01119603E0CC0CDD1C0A95E1F790E058
:1057300080E02D91FC01EC0DFD1DE054F94B208320
:10574000019688309105A9F78FCBF1E0DF128CCB61
:1057500066E17EE08EED94E40E941C0C62E571E44B
:105760005BCC12E0212ED2107FCB1092824680912A
:105770009844813319F481E0809382468091824677
:1057800060E17EE0811149CB69E07EE046CB3324C5
:1057900033946BEF7DE0D31067CB3FCBCC24C39425
:1057A000DC1062CB61EE7DE08EED94E40E94381057
:1057B0000E94AF0FE5EFF3E4119211921192119252
:1057C00024E4ED30F207C1F71092354610923646C8
:1057D000109237461092384647CB31E0D31244CB73
:1057E0000EE316E0F801F490FF2061F0FAE0FF12FA
:1057F00003C08DE00E943A0C8F2D0E943A0C0F5F7F
:105800001F4FF0CF6CE376E008CBBFE3BD1508F483
:1058100033CBED2DF0E0E956FB4B8083D394D0924F
:10582000BD422ACBEBE2CE2EE6E4DE2E10E000E015
:10583000EE24E394F12CA6E1BA2EF60181818823AF
:1058400009F476C080818823C9F18481893228F5E2
:1058500090E0FC01EF56FF4B40814F3FF1F0FC011F
:10586000E654FF4B2081F0E22F9F900111243C5F12
:105870008D519F4BDC018C91F0E0E0E0883020F40A
:10588000F9017096E80FF11D9FB7F894D9011296AF
:105890004C938081886080839FBF69E07EE0809127
:1058A00030460115110521F06BE07EE080914646FF
:1058B0000E947C083DC001E010E0BFCF85818932A5
:1058C000A0F590E0FC01ED51FF4B20812F3F69F1E5
:1058D00086549F4BDC018C91E82FE295EE0FE07E21
:1058E000E20FF0E0E05FFB4F9081917F908390E0CA
:1058F000FC0134E0EE0FFF1F3A95E1F7422F50E034
:10590000170102C0220C331C2A95E2F72382880F6C
:10591000991FFC01EE5AFF4B440F551F0190F08177
:10592000E02DE40FF51F10821182D60111961C9212
:10593000B09EF001B19EF00D11249F01255D394B01
:10594000F90186859785A089B189892B8A2B8B2BB4
:10595000C1F04685578560897189F60182859385F6
:10596000A485B585840F951FA61FB71F82879387CF
:10597000A487B587D9011E961D921D921D921C9277
:105980005197B6E1CB0ED11C0130110509F093CF30
:1059900078942091194330911A4340911B435091C0
:1059A0001C4360911D4370911E4380911F43909151
:1059B00020438090154390901643A0901743B090D9
:1059C000184310910D4300910E4330900F432090E7
:1059D0001043C09011436296CFAE6297D0901243AD
:1059E0006496DFAE6497E09013432C96EFAE2C974D
:1059F000F09014436696FFAE6697C0900D436A968A
:105A0000CFAE6A97D0900E436E96DFAE6E97E09061
:105A10000F43A096EFAEA097F0901043A496FFAE70
:105A2000A497C0901143A896CFAEA897D0901243E8
:105A3000AC96DFAEAC97E0901343AE96EFAEAE9768
:105A4000F0901443E096FFAEE097C0901543D090DD
:105A50001643E0901743F0901843C9AEDAAEEBAEB0
:105A6000FCAEC0901543D0901643E0901743F090E1
:105A700018432596CCAEDDAEEEAEFFAE25970E9464
:105A800052406B017C01C501B4010E94DA3D9B01CB
:105A9000AC01C701B6010E94B53F6B017C01212F0B
:105AA000302F432D522D62966FAD629764967FAD75
:105AB00064972C968FAD2C9766969FAD66970E9443
:105AC0004E404B015C016A962FAD6A976E963FADD2
:105AD0006E97A0964FADA097A4965FADA497A89699
:105AE0006FADA897AC967FADAC97AE968FADAE97E5
:105AF000E0969FADE0970E944E409B01AC01C5012E
:105B0000B4010E94393E4B015C0169AD7AAD8BADA9
:105B10009CAD0E94DA3D9B01AC01C501B4010E941D
:105B2000B53F4B015C0125966CAD7DAD8EAD9FAD53
:105B300025970E94DA3D9B01AC01C501B4010E948A
:105B4000B53F9B01AC01C701B6010E944D3F0E94C9
:105B5000E740C0904840D0904940E0904A40F090E3
:105B60004B406996CCAEDDAEEEAEFFAE6997A701B5
:105B700096010E94393E6D966CAF7DAF8EAF9FAFA0
:105B80006D9760930E4470930F44809310449093EC
:105B90001144E0904C40F0904D406F96EEAEFFAE59
:105BA0006F978090154390901643A0901743B09044
:105BB00018436091094370910A4380910B4390917F
:105BC0000C430E94D83D6B017C016F96AEADBFAD1A
:105BD0006F971196A50194010E94163F0E94DA3D2D
:105BE0009B01AC01C701B6010E94B53FA3966CAF03
:105BF0007DAF8EAF9FAFA397F0900D44CB57DF4F93
:105C0000F882C558D040C0904E40D0904F40E090B0
:105C10005040F0905140CA57DF4FC882D982EA8283
:105C2000FB82C658D040C0902A40D0902B40E090D4
:105C30002C40F0902D40AB96CCAEDDAEEEAEFFAE7C
:105C4000AB9725EF33E463962EAF3FAF639741ECFC
:105C500052E461964EAF5FAF619769EE73E42396AD
:105C60006EAF7FAF23978EE394E489AF9AAF01EFD5
:105C7000202E02E4302EA9EDB2E4AF96AEAFBFAF56
:105C8000AF97EEE2F0E4E196EEAFFFAFE19722E1ED
:105C900034E4AD962EAF3FAFAD972B961EAE1FAE40
:105CA0002B976F96CEACDFAC6F972B96EEACFFAC1C
:105CB0002B97EC14FD040CF0FBC4970113E0220FAA
:105CC000331F1A95E1F7D901AF54BC4BFC90C6576E
:105CD000DF4FF882CA58D0401196CC901197C55723
