:10020000ECC6000014C7000012C700000C940919C6
:100210000EC700000CC700000AC7000008C7000096
:1002200006C7000004C7000002C7000000C70000A6
:10023000FEC60000FCC60000FAC60000F8C60000BA
:10024000F6C60000F4C60000F2C60000F0C60000CA
:10025000EEC600000C949B180C9496180C94A018F1
:10026000E6C60000E4C600000C948419E0C6000055
:10027000DEC60000DCC60000DAC600000C941119CE
:10028000D6C60000D4C60000D2C60000D0C600000A
:10029000CEC60000CCC60000CAC60000C8C600001A
:1002A000C6C60000C4C60000C2C60000C0C600002A
:1002B000BEC60000BCC60000BAC60000B8C600003A
:1002C000B6C60000B4C60000B2C60000B0C600004A
:1002D000AEC600000C948E180C9489180C949318D8
:1002E000A6C60000A4C60000A2C60000A0C600006A
:1002F0009EC6000005A84CCDB2D44EB93836A9022E
:100300000C50B9918688083CA6AAAA2ABE00000013
:10031000803F5246206F6666005246206F6E007422
:10032000656D705F656E61626C65203D2000707563
:100330006C736520706572696F64203D2000707574
:100340006C736573203D2000646174616C6F67207D
:100350003D200069364C656164203D2000693643CC
:10036000616C203D200069354C656164203D2000B2
:10037000693543616C203D200069344C656164201F
:100380003D2000693443616C203D200069334C6599
:100390006164203D2000693343616C203D20006989
:1003A000324C656164203D2000693243616C203D20
:1003B000200069314C656164203D20006931436152
:1003C0006C203D2000617373756D656456203D207F
:1003D000007643616C203D200043616C696272616C
:1003E00074696F6E3A002064426D002C20002C204E
:1003F0004E6F64652000204D487A2C2047726F753F
:1004000070200042616E64200053657474696E67E9
:10041000733A004E6F20454550524F4D20636F6E2A
:10042000666967004C6F6164656420454550524FB2
:100430004D20636F6E66696700466163746F727901
:10044000205465737400555341205663616C2061DC
:1004500063746976653A20002000204E6F64653A27
:1004600020002047726F75703A20003931354D48B1
:100470007A003836384D487A003433334D487A00A4
:1004800020467265713A200052464D363943572056
:10049000004F70656E456E657267794D6F6E697459
:1004A0006F722E6F726700656D6F6E5478205634D0
:1004B000434D20436F6E74696E756F7573204D6F79
:1004C0006E69746F72696E672056000A0020286892
:1004D000696464656E292E00206279746573002C4E
:1004E00020446174612073697A653A200020536961
:1004F000676E61747572653A20004E6F2064617496
:100500006120626C6F636B20666F756E64202D20B6
:10051000454550524F4D2061707065617273207473
:100520006F20626520666F726D61747465642074FB
:100530006F204F454D205374616E64617264206278
:10054000757420756E757365642E000A00206279DB
:100550007465732C206E6F7420666F726D61747495
:10056000656420746F204F454D205374616E646143
:1005700072640053697A653A2000446F6E652E20DC
:100580004E657720636F6E66696720736176656478
:1005900020746F20454550524F4D00536176696E6F
:1005A000672E2E2E00536B657463682077696C6C20
:1005B000206E6F7720726573746172742075736931
:1005C0006E672064656661756C7420636F6E666922
:1005D000672E00526573657474696E672E2E2E0047
:1005E0002000456E657267792076616C75657320B1
:1005F00073657420746F207A65726F00436F6E7438
:10060000696E75696E672E2E2E005246206F6666E3
:10061000005246206F6E00456D6F6E54785633342D
:10062000434D2052464D36396E20436F6E74696ECD
:10063000756F7573204D6F6E69746F72696E672088
:1006400056002064426D0070203D20004E6F6465AE
:1006500020006F666600206D730050756C736573C3
:100660003A20002000200043616C3A206B00477262
:100670006F75702000467265713A20002073006427
:100680006174616C6F6720706572696F643A2000F5
:10069000204D487A00417373756D656420563A2089
:1006A00000456E746572696E672053657474696E77
:1006B0006773206D6F64652E2E2E00005EBCE261B4
:1006C0003FDD83C29C7E20A3FD1F41009D23BE46CB
:1006D000DB65F88C11AF32CA57E9742C7066363A74
:1006E000002C7066353A002C7066343A002C706627
:1006F000333A002C7066323A002C7066313A002C86
:1007000049363A002C49353A002C49343A002C49F4
:10071000333A002C49323A002C49313A0056726D76
:10072000733A002C70756C73653A002C54333A00A0
:100730002C54323A002C54313A002C45363A002CD5
:1007400045353A002C45343A002C45333A002C45C7
:10075000323A002C45313A002C50363A002C5035B4
:100760003A002C50343A002C50333A002C50323A94
:10077000002C50313A002C56726D733A004D53479D
:100780003A002056004143206D697373696E6720FB
:100790002D204170706172656E7420506F776572A4
:1007A0002063616C6320656E61626C65642C2061FE
:1007B0007373756D696E67200041432070726573B5
:1007C000656E74202D205265616C20506F776572C4
:1007D0002063616C6320656E61626C6564002065F6
:1007E0006E61626C65642E0054656D706572617433
:1007F000757265206D6561737572656D656E7420C7
:1008000069730053656E736F72206D6179206E6F2E
:10081000742062652072656C6961626C65002000FD
:1008200030002C207769746820616464726573738A
:1008300065732E2E2E0054656D706572617475722D
:10084000652053656E736F727320666F756E6420DA
:100850003D20000A417661696C61626C6520636FBE
:100860006D6D616E64733A0A6C09092D206C6973B1
:1008700074207468652073657474696E67730A7296
:1008800009092D20726573746F726520736B65742E
:1008900063682064656661756C74730A7309092D59
:1008A00020736176652073657474696E6773207454
:1008B0006F20454550524F4D0A7609092D20736827
:1008C0006F77206669726D776172652076657273E5
:1008D000696F6E0A7A09092D207A65726F20656E3C
:1008E000657267792076616C7565730A7809092DE0
:1008F00020657869742C206C6F636B20616E6420B6
:10090000636F6E74696E75650A3F09092D207368FF
:100910006F772074686973207465787420616761EB
:10092000696E0A0A773C783E09092D207475726E4B
:100930002052464D20576972656C6573732064615F
:100940007461206F66663A2078203D2030206F72F7
:10095000206F6E3A2078203D20310A623C6E3E09BD
:10096000092D2073657420722E662E2062616E64DC
:10097000206E203D20612073696E676C65206E7566
:100980006D6572616C3A2034203D203433334D481C
:100990007A2C2038203D203836384D487A2C2039A2
:1009A000203D203931354D487A20286D61792072FB
:1009B000657175697265206861726477617265201E
:1009C0006368616E6765290A703C6E6E3E09092D89
:1009D000207365742074686520722E662E20706FF7
:1009E0007765722E206E6E202D20616E20696E74E8
:1009F000656765722030202D20333120726570725A
:100A00006573656E74696E67202D31382064426DA0
:100A100020746F202B31332064426D2E2044656694
:100A200061756C743A20323520282B372064426D72
:100A3000290A673C6E6E6E3E092D20736574204E48
:100A40006574776F726B2047726F757020206E6EC1
:100A50006E202D20616E20696E7465676572202896
:100A60004F454D2064656661756C74203D203231C0
:100A700030290A6E3C6E6E3E09092D207365742084
:100A80006E6F6465204944206E3D20616E20696E62
:100A9000746567657220287374616E646172642086
:100AA0006E6F6465206964732061726520312E2E3B
:100AB0003630290A0A643C78782E783E092D207851
:100AC000782E78203D206120666C6F6174696E67B6
:100AD00020706F696E74206E756D62657220666F2E
:100AE000722074686520646174616C6F6767696EF9
:100AF0006720706572696F640A633C6E3E09092D58
:100B0000206E203D203020666F72204F46462C20FC
:100B10006E203D203120666F72204F4E2C20656E76
:100B200061626C6520766F6C746167652C206375FB
:100B30007272656E74202620706F77657220666110
:100B400063746F722076616C75657320746F2073A7
:100B5000657269616C206F757470757420666F7250
:100B60002063616C6962726174696F6E2E200A661F
:100B70003C78783E09092D207878203D20746865FE
:100B8000206C696E65206672657175656E6379208B
:100B9000696E20487A3A206E6F726D616C6C7920B4
:100BA000656974686572203530206F722036300AAE
:100BB0006B3C783E203C79792E793E203C7A7A2E27
:100BC0007A3E0A09092D2043616C6962726174657D
:100BD00020616E20616E616C6F67756520696E7053
:100BE0007574206368616E6E656C3A0A090920208D
:100BF00078203D20612073696E676C65206E756D8D
:100C00006572616C3A2030203D20766F6C746167AC
:100C1000652063616C6962726174696F6E2C20314A
:100C2000203D206374312063616C69627261746974
:100C30006F6E2C2032203D206374322063616C691A
:100C400062726174696F6E2C206574630A090920F1
:100C50002079792E79203D206120666C6F6174695E
:100C60006E6720706F696E74206E756D626572209C
:100C7000666F722074686520766F6C746167652F8B
:100C800063757272656E742063616C6962726174FF
:100C9000696F6E20636F6E7374616E740A09092048
:100CA000207A7A2E7A203D206120666C6F6174690B
:100CB0006E6720706F696E74206E756D626572204C
:100CC000666F722074686520706861736520636167
:100CD0006C6962726174696F6E20666F72207468ED
:100CE000697320632E742E20287A206973206E6F1A
:100CF00074206E65656465642C206F722069676E70
:100D00006F72656420696620737570706C696564C4
:100D10002C207768656E2078203D2030290A09094B
:100D20002020652E672E206B30203235362E380A73
:100D30000909202020202020206B312039302E3935
:100D400020322E30300A613C78782E783E092D20F2
:100D500078782E78203D206120666C6F6174696E12
:100D60006720706F696E74206E756D6265722066A3
:100D70006F722074686520617373756D6564207689
:100D80006F6C74616765206966206E6F20612E63E9
:100D90002E2069732064657465637465640A6D3C14
:100DA000783E203C79793E092D206D65746572206E
:100DB00070756C736520636F756E74696E673A0A3F
:100DC000090920202078203D203020666F72204FB6
:100DD00046462C2078203D203120666F72204F4EF1
:100DE0002C203C79793E203D20616E20696E74652F
:100DF00067657220666F72207468652070756C7309
:100E000065206D696E696D756D20706572696F64BE
:100E100020696E206D732E202879206973206E6FF3
:100E200074206E65656465642C206F722069676E3E
:100E30006F726564207768656E2078203D203029C8
:100E40000A7430203C793E092D207475726E20742E
:100E5000656D7065726174757265206D656173751D
:100E600072656D656E74206F6E206F72206F66669E
:100E70003A2079203D203020666F72204F46462C64
:100E80002079203D203120666F72204F4E0A743C3D
:100E9000783E203C79793E203C79793E203C797936
:100EA0003E203C79793E203C79793E203C79793E60
:100EB000203C79793E203C79793E0A09092D20634E
:100EC00068616E676520612074656D70657261741C
:100ED0007572652073656E736F7227732061646429
:100EE00072657373206F7220706F736974696F6EAF
:100EF0003A0A0909202078203D20612073696E6735
:100F00006C65206E756D6572616C3A207468652041
:100F1000706F736974696F6E206F662074686520E6
:100F200073656E736F7220696E20746865206C69DA
:100F300073742028312D6261736564290A090920C0
:100F4000207979203D20382068657861646563697F
:100F50006D616C206279746573207265707265735F
:100F6000656E74696E67207468652073656E736F53
:100F700072277320616464726573730A0909202003
:100F80002020652E672E202032382038312034333F
:100F90002033312030372030302030302044390A9F
:100FA000090920204E2E422E2053656E736F7273F6
:100FB0002043414E4E4F5420626520616464656455
:100FC0002E0A000A0000080A400CFFC000C000FF03
:100FD000FF01040603000300CD1E11241FBECFEF46
:100FE000CDBFDFE7DEBF26E4A6E3B1E401C01D927A
:100FF000AA30B207E1F711E4A0E0B0E4E2EBF8E7D1
:1010000000E00BBF02C007900D92A633B107D9F7DD
:1010100017E0CDEED7E004C02197FE010E94333CDB
:10102000CC3ED107C9F70E94DD200C94573CE8C89C
:101030000000E0919745F09198458483838187FF74
:10104000FDCF84810895893260F590E0FC01E05382
:10105000FF4BE081EF3F29F189559F4BDC018C91DB
:1010600090E0DC01AA0FBB1FAF50BC4B2D913C910F
:1010700021153105B1F04E2F50E0440F551F240FBC
:10108000351FD9016D937C93E05FA5E0880F991F10
:10109000AA95E1F7E80FF0E0FC5F8081887F82602D
:1010A00080830895CF93DF93282F30E09FEF89321C
:1010B00020F5E901C258DF4B98819F3FE9F0F90123
:1010C000E955FF4BA08140E2A49FD0011124BC5FF1
:1010D000F901E053FF4BE081E830C0F5AD01405F1E
:1010E0005F4FE40FF52FF11D4FB7F89412969C93C4
:1010F0009081977F90834FBF98819093314589323B
:1011000040F529553F4BF9018081F4E08F9FC001E4
:101110001124809332459093334510923C451092B0
:101120003E4510923D4510923B4510923A45109233
:101130003945109238451092374510923645109235
:10114000354510923445DF91CF910895F0E0E0E00D
:10115000CBCF8CEF93E0DDCF90913145E0913245DC
:10116000F0913345292F209580FF15C0F894818197
:10117000822381838081892B808380E58A95F1F7A2
:101180008181982B91837894A9E4B1E01197F1F7CC
:1011900000C000000895F8948181822381838081BA
:1011A000892B8083A5E8B1E01197F1F700C000001A
:1011B0008181982B91837894B8E2BA95F1F70895DC
:1011C00080913145E0913245F0913345F89490811A
:1011D000982B90832181382F30952323218398E108
:1011E0009A95F1F790819323908390E59A95F1F782
:1011F00092817894EDE3F1E03197F1F700C00000BF
:10120000982381E009F480E00895FF920F931F93E3
:10121000CF93DF93F82E062FC8E0D0E011E081E0F5
:101220009F2D912309F480E097DF110F2197B9F7E3
:10123000011116C0F894E0913245F0913345908148
:1012400080913145809589238083E0913245F091EA
:1012500033459181809131458095892381837894AC
:10126000DF91CF911F910F91FF90089580913145AB
:10127000E0913245F0913345F8949081282F2095E4
:101280009223908378943DE7315059F190E19A95FB
:10129000F1F792819823C1F3F8949181922391837D
:1012A0009081982B90837894AFE3BBE01197F1F78E
:1012B00000C00000F894908192239083A3EAB1E0EB
:1012C0001197F1F700C000009281982381E009F0A6
:1012D00080E07894EBE9F9E03197F1F700C0000085
:1012E000089580E00895AF92BF92CF92DF92EF927F
:1012F000FF920F931F93CF93DF936C017B018B01C0
:10130000040F151FEB015E01AE18BF08C017D1070F
:1013100059F06991D601ED91FC910190F081E02D99
:10132000C6010995892B79F7C501DF91CF911F91EE
:101330000F91FF90EF90DF90CF90BF90AF90089506
:10134000FC0155894689252F30E0842F90E0821BCF
:10135000930B541710F0CF96089501970895FC0150
:1013600093898489981761F0A489AE0FBF2FB11DAE
:1013700057968C9194899F5F9F73948B90E008950A
:101380008FEF9FEF0895FC0193898489981731F0BE
:101390008489E80FF11D878990E008958FEF9FEF12
:1013A0000895FC0193892489892F90E0805C9F4FE8
:1013B000821B91098F7399270895CF93DF93EC01D6
:1013C000E881F9810680F781E02D0995EC85FD859E
:1013D000868116828581158280E484838C898B8B3B
:1013E0001A8ADF91CF9108958F929F92AF92BF9208
:1013F000FF920F931F93CF93DF938C014A015B0100
:10140000D22FC32FDC0152968C91529780FF07C0D8
:10141000ED91FC910288F389E02DC8010995D11165
:1014200001C0D3E0FD2EE894F2F8DC2FD095D07CFB
:10143000B1E68B16B3EE9B06B6E1AB06B10428F01D
:10144000D260B694A7949794879460E078ED88EB87
:1014500095E0A50194010E94F53BC90120343105B6
:1014600010F480E490E03C2F3B72D7FD30684D2FA4
:10147000487C30FD41605FB7F894D8011C96ED912F
:10148000FC911682F7828087918735FF8FC04F7756
:1014900081E084878FEF85873F7D3583D683F80190
:1014A0002189C08986859785FC0133E0239FE00D63
:1014B000F11D1124659174912C1708F059C0272F44
:1014C00046FF76C0793288F430E0F901E258FF4BEC
:1014D000A081AF3F51F029553F4BF901308120E207
:1014E000329FF0011124FC5FA18347FF2AC021E055
:1014F000270F293230F530E0F901E258FF4BD08157
:10150000DF3FF9F0F901E955FF4BA081F0E2AF9F11
:10151000D0011124BC5F20533F4BF9011081F0E052
:10152000E0E0183030F49D01205F3F4FF901E10FFA
:10153000F11D3FB7F8941296DC9320812860208338
:101540003FBF40FF15C023E0270F293288F430E069
:10155000F901E258FF4B40814F3F51F029553F4B75
:10156000D901EC91B0E2EB9FF0011124FC5F4183C3
:10157000FC0123E0C29FE00DF11D1124319625915D
:101580003491F901FF27EE51FA4F9081832F809516
:101590008923682B60835FBFDF91CF911F910F91EB
:1015A000FF90BF90AF909F908F900895148674CF56
:1015B000342F307509F499CF793208F096CF30E0A6
:1015C000F901E258FF4BD081DF3F09F48ECFF901DA
:1015D000E955FF4BA081E0E2AE9FD0011124BC5F32
:1015E00020533F4BF9011081F0E0E0E0183030F477
:1015F0009D01205F3F4FF901E10FF11D3FB7F894C6
:101600001296DC932081286020833FBF6ECFFC01BF
:101610000FB607FE04C0809111018823A9F0A485AC
:10162000B58514968C91149785FF0EC0958986898F
:10163000981739F015968C9115978F7D15968C9388
:101640000895E8940C94AB1808950F931F93CF93CB
:10165000DF93EC018A89982F91609A8B2D899E895E
:1016600029130AC0EC85FD85948195FF05C081FD95
:101670000DC080E4848312C0062F1D891F5F1F7375
:101680008E89811315C0CE01C2DFFACF85818F7795
:10169000806490E49483EC85FD858583EC85FD85ED
:1016A000628381E090E0DF91CF911F910F910895C7
:1016B000ED89EC0FFD2FF11DE95AFF4F00831D8BC3
:1016C000EC85FD858A8981FF09C085818F778066D9
:1016D00090E49483EC85FD858583E3CF85818062EA
:1016E000FBCFB3CF1F93CF93DF93C3E5D8E0FE01C9
:1016F0001491112361F01A3021F46DE083E094E439
:10170000F0DF612F83E094E4ECDF2196F0CFDF91EE
:10171000CF911F910895EF92FF920F931F93CF9354
:10172000DF938C017B01D0E0C0E0F701EC0FFD1FDF
:101730006491662331F0C80188DF892B11F021966E
:10174000F4CFCE01DF91CF911F910F91FF90EF90D9
:101750000895CF93DF93EC018A8980FF0BC0EC855D
:10176000FD85858185FD03C0848186FD03C0CE0192
:101770004EDFF5CFDF91CF91089581E008950F9866
:10178000079A20E533EC93E0179A44E1F901319789
:10179000F1F74150D9F7482F179AF9013197F1F72E
:1017A000179A59E0F9013197F1F75150D9F74150A3
:1017B00099F7915049F7E7CF9FB7F894E0912A0B3A
:1017C000F0912B0B8091260B209113423091144203
:1017D00040911542509116429FBF80FF08C0EC3ED9
:1017E0008CE2F80720F42F5F3F4F4F4F5F4F0F0100
:1017F00016940794169407941694079416940794D5
:10180000F00116940794E00DF11D16940794102C26
:10181000169401181694010C169401181694010CD4
:101820001694011816941694010C1124E019F1096C
:10183000A8EEB3E00E94B5396E0F7F1F811D911D88
:1018400008958F929F92AF92BF92CF92DF92EF92C4
:10185000FF926B017C01B0DF4B015C01C114D1042C
:10186000E104F104B1F0A8DF681979098A099B093C
:10187000683E73408105910588F321E0C21AD108C2
:10188000E108F10888EE880E83E0981EA11CB11CC7
:10189000E5CFFF90EF90DF90CF90BF90AF909F90FB
:1018A0008F9008952FB7F89460911342709114426D
:1018B00080911542909116422FBF08958F929F926A
:1018C000AF92BF92EF92FF920F931F93CF93DF934C
:1018D0007B018C01D0E0C0E0E5DF60930B447093A6
:1018E0000C4480930D4490930E4483E094E437DDE0
:1018F00097FF26C0D7DF80900B4490900C44A090B7
:101900000D44B0900E44681979098A099B098090AA
:10191000074490900844A0900944B0900A44681588
:1019200079058A059B0508F3CE01DF91CF911F91C0
:101930000F91FF90EF90BF90AF909F908F90089580
:10194000F80181938F012196EC16FD0629F6ECCF64
:101950000F931F93A7DF60930B4470930C44809305
:101960000D4490930E4483E094E40DDD97FF1CC07A
:1019700099DF00910B4410910C4420910D4430915B
:101980000E44601B710B820B930B00910744109166
:1019900008442091094430910A4460177107820776
:1019A000930708F38FEF9FEF1F910F910895CF9248
:1019B000DF92EF92FF92CF93CBDFFC0197FD4BC0FC
:1019C0008D32910521F0C0970A9708F03EC0C12CD6
:1019D000D12C7601C0E0E130F105D1F0ED32F10516
:1019E000C1F1CF01C0970A9798F4AAE0B0E0A7012F
:1019F00096010E94B5396F01FF0FEE08FF08C60E71
:101A0000D71EE81EF91E80E3C81AD108E108F108C4
:101A100083E094E4A4DC9CDFFC01C0970A97D8F231
:101A2000E130F105C1F2CC2341F0F094E094D09480
:101A3000C094C11CD11CE11CF11CC701B601CF919F
:101A4000FF90EF90DF90CF90089583E094E487DCDF
:101A5000B3CFC1E0DDCFC12CD12C7601EECF8F9278
:101A60009F92AF92BF92CF92DF92EF92FF92CF936D
:101A7000DF936EDFFC0197FD85C08D32910509F083
:101A80004AC0812C912C80E8A82E8FE3B82EC12C5F
:101A9000D12C7601C0E0D0E0E130F10559F1ED3212
:101AA000F10509F444C0EE32F10509F442C0CF015A
:101AB000C0970A97F8F4AAE0B0E0A70196010E9447
:101AC000B5396F01FF0FEE08FF08C60ED71EE81EDE
:101AD000F91E80E3C81AD108E108F108CC2351F0BF
:101AE0002DEC3CEC4CEC5DE3C501B4010E940139E6
:101AF0004B015C0183E094E432DC2ADFFC01C097F7
:101B00000A9750F2EE32F105B1F4CC2329F2CD2F31
:101B1000D11117C024C0C0970A9708F4B2CFEE3293
:101B2000F10509F4AECF83E094E419DCA2CFD1E053
:101B3000E1CFC1E0DFCFE130F10509F4ADCFDD2326
:101B400041F0F094E094D094C094C11CD11CE11CED
:101B5000F11CC701B6010E94A238CC2341F0C70195
:101B6000B6010E94A238A50194010E940139DF91BB
:101B7000CF91FF90EF90DF90CF90BF90AF909F906C
:101B80008F90089560E070E0CB01F1CFCF92DF92AB
:101B9000EF92FF920F931F93CF93DF93082F10E0E4
:101BA00096E1899FE0011124CD5BDA4B8E819F8104
:101BB000A885B985892B8A2B8B2B99F173DECA886E
:101BC000DB88EC88FD886C197D098E099F09CE8021
:101BD000DF80E884F984C616D706E806F90658F4CB
:101BE0008E859F85A889B9890196A11DB11D8E8713
:101BF0009F87A88BB98B56DE26E1209FF001219F9D
:101C0000F00D1124ED5BFA4B628B738B848B958BFB
:101C1000DF91CF911F910F91FF90EF90DF90CF90C8
:101C200008958E859F85A889B9890196A11DB11D4A
:101C30008E879F87A88BB98BEBCF80E0A7CF81E001
:101C4000A5CFCF92DF92EF92FF920F931F93CF9386
:101C5000DF9380911F4090E025E0959587952A9528
:101C6000E1F78095909583709927C0EFD2E002C08C
:101C7000D595C7958A95E2F72091494030914A4021
:101C8000DE010E94423C28E13CEF4FEF5FEF0E94F3
:101C9000173C80911B4290911C420197280F391FDD
:101CA00020933B4130933C4120E030E04AE754E44C
:101CB00060912D4070912E4080912F409091304046
:101CC0000E9401390E94A33A8E01DD0F220B330BD3
:101CD0006B017C01C01AD10AE20AF30AA70196013E
:101CE000A8EEB3E00E94B5396858734181099109A3
:101CF0002091214030912240032E000C440B550BC3
:101D00000E94F53B2093374130933841409339414D
:101D100050933A41DF91CF911F910F91FF90EF9037
:101D2000DF90CF900895CF92DF92EF92FF926B01F8
:101D30007C01C0922D40D0922E40E0922F40F09234
:101D400030406091494070914A4090E080E00E94AC
:101D5000A038A70196010E9401390E94A33A60931E
:101D60001B4270931C4220E034E244E759E4C7016F
:101D7000B6010E9401396B017C0160912140709194
:101D80002240072E000C880B990B0E94A2389B0161
:101D9000AC01C701B6010E94363A0E94A33A609393
:101DA0006A4270936B4280936C4290936D42FF90B5
:101DB000EF90DF90CF9045CFEF92FF920F931F935C
:101DC000CF93DF93E0911D42CE2FD0E07E01EE0C49
:101DD000FF1CEE0CFF1CD701AF5CBF4B4D935D9316
:101DE0006D937C931397B7016050704CDB010D939A
:101DF0001D932D933C9313979E012E5B3C4B91E0DA
:101E0000D9019C93A82FB0E0A557BC4BEC93EF5F92
:101E1000E0931D42F0E0E85EFF4B8083DF91CF91BD
:101E20001F910F91FF90EF900895DC01ED91FC91CF
:101E3000F170FC5E80810895CF92DF92EF92FF9265
:101E40000F931F93CF93DF9300D0CDB7DEB76C0114
:101E50007C0103E010E009831A83CE010196E5DFDF
:101E6000F70181937F010F5F1F4F0730110599F72D
:101E7000C6010F900F90DF91CF911F910F91FF90AE
:101E8000EF90DF90CF9008950F931F93CF93DF9340
:101E900000D000D0CDB7DEB78C0119821A82CE01F6
:101EA0000196C3DF8F34F9F481E090E089839A834F
:101EB000CE010196BADF8534B1F482E090E08983E7
:101EC0009A83CE010196B1DF8D3469F481E001156A
:101ED000110551F0CE010196AFDF81E02B813C81ED
:101EE0002017310709F080E02496CDBFDEBFDF91D7
:101EF000CF911F910F9108951F93CF93DF93EC0122
:101F0000162F93DF8117B1F09FB780910210282F11
:101F1000227081FDFACFF8948DE984BF20930010E0
:101F200023E184BF20930010E881F981F170FC5E09
:101F300010839FBFCE01DF91CF911F910895CF9263
:101F4000DF92EF92FF920F931F93CF93DF9300D016
:101F5000CDB7DEB76C017C0103E010E009831A8382
:101F6000F70161917F01CE010196C6DF0F5F1F4F20
:101F70000730110599F7C6010F900F90DF91CF91AF
:101F80001F910F91FF90EF90DF90CF9008950F93E6
:101F90001F93CF93DF9300D0CDB7DEB70091934569
:101FA0001091944580919545909196450817190791
:101FB0009CF4C801957189839A836FEFCE010196D5
:101FC0009BDF10928F451092904580918D459091A6
:101FD0008E45080F191FE6CF0F900F90DF91CF911C
:101FE0001F910F910895DC01ED91FC910088F1891A
:101FF000E02D23E030E00994FB0101900020E9F797
:102000003197AF01461B570B6EC96115710509F079
:10201000F3CF90E080E008958F929F92AF92BF92AD
:10202000EF92FF920F931F93CF93DF93CDB7DEB75D
:10203000A197CDBFDEBF7C01FA01CB0119A22230EE
:1020400008F42AE08E010F5D1F4F822E912CB12CD7
:10205000A12CBF01A50194010E94F53BF901CA0121
:102060006A30CCF4605DD8016E938D01232B242B54
:10207000252B79F7BD01C701C8DFA196CDBFDEBF13
:10208000DF91CF911F910F91FF90EF90BF90AF9094
:102090009F908F900895695CE6CF63E171E4ACCFC7
:1020A0000F931F93CF93DF93EC0135DB8C01CE01AF
:1020B000F4DF800F911FDF91CF911F910F91089551
:1020C000CF92DF92EF92FF920F931F93CF93DF9304
:1020D00077FF1BC06A017B01EC016DE202DB8C0122
:1020E00044275527BA014C195D096E097F092AE07A
:1020F000CE0192DF800F911FDF91CF911F910F9141
:10210000FF90EF90DF90CF9008952AE0DF91CF917C
:102110001F910F91FF90EF90DF90CF907DCFAB019B
:10212000770F660B770BCCCFCF93DF93BC0183E0A7
:1021300094E4F5DFEC0183E094E4AFDF8C0F9D1FA6
:10214000DF91CF9108954F925F926F927F928F921D
:102150009F92AF92BF92CF92DF92EF92FF920F9336
:102160001F93CF936B017C01742EAC019B010E94E5
:10217000A63B66E171E4811126C046015701E8944F
:10218000B7F82FEF3FEF4FE75FE7C501B4010E94BB
:10219000A63B81110CC02FEF3FEF4FE75FE7C50172
:1021A000B4010E949C386AE171E4181664F02FEFC4
:1021B0003FEF4FE75FE4C701B6010E945A3B181694
:1021C000A4F46EE171E483E094E4CF911F910F9148
:1021D000FF90EF90DF90CF90BF90AF909F908F9047
:1021E0007F906F905F904F9007CF2FEF3FEF4FE7BB
:1021F0005FECC701B6010E949C3887FDE2CF20E06A
:1022000030E0A901C701B6010E949C3810E000E04F
:1022100087FF09C06DE283E094E463DA8C01F7FA8A
:10222000F094F7F8F094C0E060E070E080E09FE3A5
:102230007C1641F020E030E040E251E40E94363A62
:10224000CF5FF6CFA70196010E94CF392B013C0149
:102250000E94A33A4B015C012AE0BC01A40183E087
:1022600094E4DADE7C01E00EF11ECC23C9F1C50155
:10227000B4010E94A0389B01AC01C301B2010E94CD
:10228000CE394B015C0162E271E483E094E4B4DE98
:10229000E80EF91EC15020F120E030E040E251E4A8
:1022A000C501B4010E9401392B013C010E94A33AEF
:1022B0004B01B12CA12C2AE0B501A40183E094E4E8
:1022C000ABDEE80EF91EC501B4010E94A0389B01E7
:1022D000AC01C301B2010E94CE394B015C01DACFDF
:1022E000C701CF911F910F91FF90EF90DF90CF909A
:1022F000BF90AF909F908F907F906F905F904F9026
:102300000895CF93DF9342E01EDFEC0183E094E475
:10231000C4DE8C0F9D1FDF91CF91089514CFAF9233
:10232000BF92CF92DF92EF92FF920F931F93CF93C2
:10233000DF9300D0CDB7DEB76C015B0110E000E0A9
:102340000A151B050CF039C07801EC0CFD1C85E169
:10235000F822E982FA82CE01019667DD803120F40D
:1023600060E38AE994E4BDD90F5F1F4FE982FA82E6
:10237000CE0101965ADD482F50E070E060E020E188
:102380008AE994E449DE6CE271E48AE994E434DE9B
:10239000C80187709927892B29F46CE271E48AE9D6
:1023A00094E42ADEC8018F709927892B49F663ECE3
:1023B0007FE08AE994E4AFD9C3CF0F900F90DF910B
:1023C000CF911F910F91FF90EF90DF90CF90BF9032
:1023D000AF900895CF92DF92EF92FF920F931F93E9
:1023E000CF93DF9366E378E08AE994E494D940914F
:1023F000024450E070E060E02AE08AE994E40CDEF8
:1024000069E271E48AE994E4F7DD4091514050E0DB
:1024100070E060E02AE08AE994E4FEDD8091024405
:10242000882309F453C062E278E08AE994E438DE54
:1024300010E000E0809102448017110609F00CF4CE
:1024400045C0680183E0CC0CDD1C8A95E1F7F12CD6
:10245000E12CC0910044D0910144CC0DDD1DCE0D86
:10246000DF1D8881803128F460E278E08AE994E415
:1024700052D9488150E070E060E020E18AE994E4BC
:10248000CBDD6EE178E08AE994E445D98FEFE81A74
:10249000F80A88E0E816F104E1F6E0910044F091D2
:1024A0000144EC0DFD1D8681833029F463E078E062
:1024B0008AE994E430D98AE994E4EFDD65E070E0DC
:1024C00080E090E0BED90F5F1F4FB4CF8AE994E45B
:1024D000E4DD68EE77E08AE994E41DD98091FF435A
:1024E00064E271E4882311F065E171E48AE994E41F
:1024F0008CDD6EED77E08AE994E4D2DD8AE994E43C
:10250000CCDD65E070E080E090E0DF91CF911F913D
:102510000F91FF90EF90DF90CF9093C9DF92EF92F1
:10252000FF920F931F93CF93DF9320913E4521118C
:1025300006C0E92ED82E0E94360981110FC01092D4
:102540003C4510923E4510923D4580E0DF91CF9191
:102550001F910F91FF90EF90DF90089560E080EF62
:102560000E940509D1E000E0F12CC1E00E94E008E2
:10257000182F0E94E0081130E1F48130C9F5C13410
:10258000F0F2F0923C45F11003C081E080933E45AB
:1025900080913445882399F2A4E3B5E4ED2DFE2D16
:1025A000CF0108962D912193E817F907D9F781E01B
:1025B000CDCFE02FF0E0181311C080913C45C81733
:1025C000A8F4DF01AF5CBA4B13968C918D2381F494
:1025D00010E0C93010F4C0933D45FC2EEF5CFA4B7F
:1025E00083819D2F9095892383830AC08C13F0CF1C
:1025F000E02FF0E0EF5CFA4B83818D2B838311E0B9
:10260000812F0E94AC08CF5FDD0F11F40F5FD1E086
:10261000083008F4ABCFB3CF69E074E083E094E412
:102620003FDD63E074E083E094E475D88091A445D5
:1026300061EB71E0813051F064E673E0823031F09B
:1026400070E060E0833011F463E973E083E094E4C8
:1026500066DD66EF73E083E094E45DD84091A545C4
:1026600050E070E060E02AE083E094E4D5DC6EEEB8
:1026700073E083E094E44FD86091A6456F7370E0F7
:1026800083E094E44CDD6BEE73E083E094E443D8A4
:102690006091A8456251770B83E094E440DD66EEDB
:1026A00073E083E094E4FCDC69ED73E083E094E4A0
:1026B000F7DC61ED73E083E094E42DD86091A945E7
:1026C0007091AA458091AB459091AC451ADE65ECBE
:1026D00073E083E094E41FD86091B1457091B245F6
:1026E0008091B3459091B4450CDE6CEB73E083E0D0
:1026F00094E411D86091B9457091BA458091BB4579
:102700009091BC45FEDD62EB73E083E094E403D876
:102710006091BD457091BE458091BF459091C04587
:10272000F0DD69EA73E083E094E40E948B0B609132
:10273000C1457091C2458091C3459091C445E1DD8A
:102740006FE973E083E094E40E948B0B6091C545D0
:102750007091C6458091C7459091C845D2DD66E924
:1027600073E083E094E40E948B0B6091C945709103
:10277000CA458091CB459091CC45C3DD6CE873E0B0
:1027800083E094E40E948B0B6091CD457091CE451F
:102790008091CF459091D045B4DD63E873E083E04C
:1027A00094E40E948B0B6091D1457091D245809149
:1027B000D3459091D445A5DD69E773E083E094E4C7
:1027C0000E948B0B6091D5457091D6458091D7457D
:1027D0009091D84596DD60E773E083E094E40E9431
:1027E0008B0B6091D9457091DA458091DB459091D2
:1027F000DC4587DD66E673E083E094E40E948B0BA2
:102800006091DD457091DE458091DF459091E04516
:1028100078DD6DE573E083E094E40E948B0B6091BA
:10282000E1457091E2458091E3459091E44569DD91
:1028300063E573E083E094E40E948B0B6091E545CF
:102840007091E6458091E7459091E8455ADD68E44E
:1028500073E083E094E40E948B0B6091E9457091F2
:10286000EA458091EB459091EC454BDD6EE373E0DA
:1028700083E094E40E948B0B8091ED4590E054DC62
:102880006EE273E083E094E40E948B0B8091EE454E
:102890009091EF4549DC8091A74562E173E0882380
:1028A00011F069E173E083E094E4FADB6FE173E037
:1028B00083E094E40E948B0B8091F04590E034CC4F
:1028C0000F931F93CF93DF93893208F07CC090E081
:1028D000DC01A258BF4B2C912F3F09F474C08C012E
:1028E00009551F4BE801E881D0E2ED9FF00111246A
:1028F000FC5F611133C0268330812323AC01405338
:102900005F4B211111C0EA012881309749F128302D
:1029100038F57096E20FF11D3FB7F89420816111F0
:1029200022C0277F20833FBFFA0130813F3F09F457
:102930004AC0E8012881363058F53091E605432F2A
:102940004770241312C0EC91E53008F0EE0F80912F
:10295000010AE095E823E093010A35C02583CCCF36
:10296000F0E0E0E0D9CF2860DDCF387169F42130A4
:1029700079F4EC91E53008F0EE0F8091410AE09592
:10298000E823E093410A1FC0383111F4263089F35F
:102990008B5A9F4BFC01808185FF13C030E1839FE0
:1029A000F0011124F75F91819770973061F4EC91F9
:1029B000853270F4803298F48830E1F2803121F26F
:1029C00002C08111F4CFDF91CF911F910F91089533
:1029D000803471F08038B9F71092A006F4CF90E1FE
:1029E000899FF0011124F75F81818F7E8183EBCF76
:1029F0008091920B8E2339F3C0E22C9F9001112419
:102A00003C5FE83030F5205F3F4FE20FF32FF11DC0
:102A10004FB7F8949091800B9E7F9093800B90918C
:102A20008E0B90FFFCCF2091920B90E080959095BB
:102A300030E08223932328ED24BF8093920B809172
:102A4000800B81608093800B80818F7780834FBF64
:102A5000BACFF0E0E0E0DCCF0F931F93CF93DF938A
:102A6000CDB7DEB72897CDBFDEBF209100443091AF
:102A70000144232B31F02091204230912142232B1D
:102A800061F41092FF43109202442896CDBFDEBF3E
:102A9000DF91CF911F910F910895182F809152408F
:102AA0000E9452081093FF43112309F495C020E0BF
:102AB00030E040E85FE360912D4070912E408091BE
:102AC0002F40909130400E949C3887FF03C08FE1D7
:102AD00080931F4000911F4090915140E09120420F
:102AE000F091214280E020E335E7981721F021930F
:102AF00031938F5FFACF10923C4510923E45109271
:102B00003D4510923B4510923A451092394510923E
:102B1000384510923745109236451092354510923F
:102B2000344510920244CE010196F8DC882349F026
:102B300089818832C1F7809102448F5F809302447B
:102B4000F2CF8091514090910244891710F4809304
:102B50000244E0910044F091014480818832A1F068
:102B600010E080910244181778F428E0129FC00109
:102B700011242091004430910144820F931FCEDC38
:102B8000882311F01F5FEDCF0E94360960E08CECC6
:102B90000E94050960E08EE40E94050960E080E083
:102BA0000E94050960E080E00E94050960E0802F36
:102BB0000E9405090E94360960E08CEC0E9405091C
:102BC00061E088E40E94050964E170E080E090E043
:102BD0000E94210C36D859CF8091284087FDFACF2A
:102BE0008932A4F4282F082E000C330BF901E25887
:102BF000FF4B90819F3F51F029553F4BD901EC91FC
:102C0000B0E2EB9FF0011124FC5F918360E058DE9D
:102C1000809128408932F0F690E0FC01E258FF4BA9
:102C200020812F3FB9F2FC01E955FF4BA081E0E282
:102C3000AE9FD0011124BC5F80539F4BFC013081BB
:102C4000F0E0E0E0383028F4CD014096FC01E30FDD
:102C5000F11D9FB7F89412962C938081877F808313
:102C60009FBFB8CFF894E7E9F5E4A081B181119650
:102C70008C9111978C7F11968C93A081B1818C914E
:102C80008F7B8C930190F081E02D8081808360E0C8
:102C90008DE016CECF93C82FE5DF8C2F0E94180849
:102CA00080E00E941808C82F61E08DE009DE78946A
:102CB0008C2FCF910895CF93DF93D82FC62FD2DFDB
:102CC0008D2F80680E9418088C2F0E94180861E0E0
:102CD0008DE0F6DD7894DF91CF9108954F925F9269
:102CE0006F927F92BF92CF92DF92EF92FF920F93FB
:102CF0001F93CF93DF9300D01F92CDB7DEB77C0137
:102D0000D62EB42E69ED223019F02330A1F564EEF1
:102D100087E0D1DF60E088E0CEDF60E089E0CBDFF4
:102D20000E94520C2B013C0181E0B4DF837E682FAE
:102D3000606181E0C0DF0E94520C64197509860948
:102D400097096530710581059105D0F487E2A2DF0E
:102D500087FFFCCF61E083E2AEDF83E29BDF81FF90
:102D6000FCCF84E297DF833CC8F48DE393DF682FC8
:102D700064608DE3DFCF6CE687E09DDF60E8CBCF5A
:102D8000C12C81E087DF682F637E81E094DF88E2D9
:102D900081DF807531F080E07DDFF9CFCC24C394F2
:102DA000F0CF6D2D80E387DF60E085E284DF1B825A
:102DB0001A8220E1D29EC0011124D82610E08B2D6A
:102DC0008F73B82E8B818430C8F588E263DF87FD6E
:102DD000F9CF8B81813071F030F08230E9F08330AF
:102DE000F9F06AEA04C08B818F5F8B8366E380E031
:102DF00062DFE8CFD9822981898194E0299F9001FF
:102E000011248227807C89836A8189816F73682B72
:102E10008B818F5F8B83EBCF6A81607C6B29F8CFCE
:102E200081E0810FF701E10FF11D6081182F8433DC
:102E3000F1F68B818F5F8B8314E3D9CF0F71602FF5
:102E4000606881E138DF81E025DF837E682F6C6078
:102E500081E031DF88E21EDF83FD07C061E070E0C2
:102E600080E090E00E94210CF5CF81E013DF682F15
:102E7000637E81E020DF8C2D2396CDBFDEBFDF9106
:102E8000CF911F910F91FF90EF90DF90CF90BF9067
:102E90007F906F905F904F9008954F925F926F92E6
:102EA0007F928F929F92AF92BF92CF92DF92EF92DA
:102EB000FF92CF93DF93C82FE0902140F090224003
:102EC0006091494070914A4090E080E00E94A038B3
:102ED0002B013C0180914F409091504001968E9D76
:102EE000B0018F9D700D9E9D700D1124072E000C5A
:102EF000880B990B0E94A2382BED3FE049EC50E47F
:102F00000E940139A30192010E94013920E034E2BC
:102F100044E759E40E94363A4B015C01D0E0CE010F
:102F200001968E9DB0018F9D700D9E9D700D112498
:102F3000072E000C880B990B0E94A238A301920166
:102F40000E94013920E034E244E759E40E94363A15
:102F50006B017C01CC0FDD1FCC0FDD1FFE01E050AB
:102F6000F04C20E030E044EB53E4608171818281D9
:102F700093810E94363A9B01AC01C701B6010E94C1
:102F8000CF392BED3FE049EC50E40E9401392B0191
:102F90003C010E945E3B6B017C01C501B4010E94B3
:102FA0005E3B9B01AC01C701B6010E94363A6B0142
:102FB0007C01FE01E65CFD4BC082D182E282F3829D
:102FC000C301B2010E94333A2B013C01C501B40197
:102FD0000E94333A9B01AC01CE5ADD4BC701B601CA
:102FE0000E9401399B01AC01C301B2010E94CE399C
:102FF000688379838A839B83DF91CF91FF90EF90E1
:10300000DF90CF90BF90AF909F908F907F906F9008
:103010005F904F900895CF938093494090934A409A
:10302000BC0190E080E00E94A03820912D403091BA
:103030002E4040912F40509130400E9401390E9413
:10304000A33A60931B4270931C420E94210EC0E081
:1030500080914F4090915040C817190624F48C2F4E
:103060001CDFCF5FF5CFCF9108954F925F926F92A3
:103070007F92AF92BF92CF92DF92EF92FF920F9327
:103080001F93CF93DF93E82FCB01BA016801790139
:10309000F0E0E557FC4B108124E0129FE001112481
:1030A000FE01EF5CFF4B5F012091234030912440F3
:1030B00040912540509126400E9401392B013C014E
:1030C000609141457091424590E080E00E94A038B7
:1030D0009B01AC01C301B2010E94363AF501608345
:1030E000718382839383C050D04CC882D982EA8294
:1030F000FB82812FDF91CF911F910F91FF90EF9075
:10310000DF90CF90BF90AF907F906F905F904F9087
:10311000C4CEEF93FF93E3E0F4E415C0EF93FF9385
:10312000E3E0F4E43FC0EF93E0E660C0EF93FF9389
:10313000EAE9F4E408C0EF93FF93EAE9F4E432C06B
:10314000EF93E0E053C02F932FB72F938F939F936C
:10315000AF93BF936894CF93DF9320E0C485D8E00A
:103160009689DF01A90FB21FA95ABF4F8C9120E4A5
:103170002C838A839F5F9F738D812589291302C0C9
:103180008F7D8D83968BDF91CF9116F00C94240B5D
:10319000BF91AF919F918F912F912FBF2F91FF9151
:1031A000EF9118952F932FB72F938F939F93CF93D2
:1031B000DF93C485D8E08981988181FD0DC0C389E2
:1031C00081E08C0F8F732489281731F0CE0FDF2F09
:1031D00020E0D21F9F8B838BDF91CF919F918F91A6
:1031E0002F912FBF2F91FF91EF911895FF938F9300
:1031F0008FB78F93F8E08081848187FFFCCF858132
:103200008F7B806885838F918FBF8F91FF91EF9126
:1032100018951F920F920FB60F92112484E00E940E
:10322000BF0B1F920F920FB60F9211248F939F9393
:10323000AF93BF938091134290911442A091154295
:10324000B09116420196A11DB11D80931342909337
:103250001442A0931542B093164281E08093260B4E
:10326000BF91AF919F918F910F900FBE0F901F90C4
:1032700018950F920FB60F920BB60F921F92112452
:10328000FF921F932F933F934F935F936F937F937F
:103290008F939F93AF93BF93CF93DF93EF93FF935E
:1032A000A1EFB3E4A00FB11DCD91DC91000F0D5F34
:1032B000A02FB0E0FC90109761F01F2D169518F02C
:1032C00041F02296FBCFE991F9913097B9F3099536
:1032D000F5CFA02FB0E0FC92FF91EF91DF91CF915D
:1032E000BF91AF919F918F917F916F915F914F911E
:1032F0003F912F911F91FF901F900F900BBE0F9049
:103300000FBE0F900F9118951F920F920FB60F924C
:1033100011240BB60F922F923F924F925F926F92B1
:103320007F928F929F92AF92BF92CF92DF92EF9255
:10333000FF920F931F932F933F934F935F936F933E
:103340007F938F939F93AF93BF93CF93DF93EF932D
:10335000FF9381E080930D06409010065090110677
:10336000C0911242E2E0EC0F20914F40309150406A
:10337000E217130621F01CF0E1E0EC0FE21BF0E095
:10338000E85EFF4B80818093080680911742909100
:103390001842A0911942B0911A420196A11DB11D87
:1033A0008093174290931842A0931942B0931A4207
:1033B000C1113DC4809110429091114280930E4200
:1033C00090930F4280914145909142459695879503
:1033D000481A590A409210425092114280910C4270
:1033E00090910D42AC015695479556954795841B93
:1033F000950BA20157FE04C04427552744195509CF
:10340000840F951F80930C4290930D42E0913F45AD
:10341000F091404541E0E817F90708F040E040939B
:103420004A43141415040CF08EC041E050E0409360
:103430000A4250930B42A0910A42B0910B42409134
:10344000F4415091F541A417B50709F481C060918A
:1034500036416F5F6093364160913641633030F0A2
:1034600010923641A093F641B093F74160913F41ED
:10347000611110923F416090F6417090F741E8175A
:10348000F90708F06BC281E06816710409F0C2C147
:103490004130510509F4C4C180913D4190913E41B4
:1034A000019680933D4190933E41409120404423BA
:1034B00009F471C00A9708F46EC01092204010926F
:1034C0003D4110923E41C8EBD1E4A8E8B1E468E583
:1034D00071E440E451E490E080E082179307DCF56A
:1034E000188219821A821B821C821D821E821F82F0
:1034F00028961C9211961C92119712961C92129764
:1035000013961C92139714961C92149715961C925E
:10351000159716961C92169717961C921797189641
:10352000FB0110821182128213821482158216828C
:103530001782685F7F4FFA011192119211921192D6
:10354000AF010196CACF10920A4210920B4273CF7C
:103550001092364181CF1092FC411092FD411092A1
:10356000FE411092FF4110920042109201421092CF
:103570000242109203421092F8411092F9411092C7
:10358000FA411092FB4110920642109207421092AB
:1035900008421092094280913D4190913E414091F4
:1035A0003B4150913C418417950739F440912040AC
:1035B000411103C041E04093494340911B42509167
:1035C0001C428417950708F42BC18091204081117B
:1035D00027C110923D4110923E41C8EBD1E4A8E8CA
:1035E000B1E418E5212E11E4312E60E471E450E0DD
:1035F00040E0421753070CF09BC088809980AA8056
:10360000BB80CC80DD80EE80FF802896CA01E3E09D
:10361000880F991FEA95E1F78C010E5E1C4BF801AB
:1036200080829182A282B382C482D582E682F782AE
:103630008C9011969C9011971296AC9012971396BD
:10364000BC9013971496CC9014971596DC90159710
:103650001696EC9016971796FC90179718968C0173
:103660000E511D4BF80180829182A282B382C482E6
:10367000D582E682F7828E0108501109F801108286
:1036800011821282138214821582168217828D0192
:1036900008501109F80110821182128213821482DB
:1036A000158216821782F10180809180A280B380FA
:1036B000C480D580E680F780F8E02F0E311C8C01A5
:1036C0000E541D4BF80180829182A282B382C48283
:1036D000D582E682F782810108501109F801108233
:1036E0001182128213821482158216821782FB01C4
:1036F00081909190A190B190BF0175016401FF0C80
:10370000CC08DC2C76018E579D4BFC018082918287
:10371000A282B382C482C582C682C782CB010497CB
:10372000FC0110821182128213824F5F5F4F61CFC2
:103730008091F8419091F941A091FA41B091FB41FB
:10374000AC01BD01770F440B542FBA0180936E4238
:1037500090936F42A0937042B09371424093724233
:103760004093734240937442409375427091FC4180
:103770006091FD415091FE414091FF4130910042E6
:1037800020910142909102428091034270937A42CB
:1037900060937B4250937C4240937D4230937E42C3
:1037A00020937F4290938042809381421092FC410B
:1037B0001092FD411092FE411092FF411092004282
:1037C0001092014210920242109203421092F8416C
:1037D0001092F9411092FA411092FB4180910642F9
:1037E00090910742A0910842B0910942809376429D
:1037F00090937742A0937842B09379421092064218
:1038000010920742109208421092094281E0809380
:10381000484306C0452B21F0109204421092054205
:103820008091064290910742A0910842B0910942CE
:103830000196A11DB11D8093064290930742A0936B
:103840000842B0930942809104429091054201964A
:1038500080930442909305429201D2010E943C3C25
:103860006B017C01FF0CCC08DC2C76019B01AC01C8
:103870006C2D7C2D8C2D9C2DA090FC41B090FD4199
:10388000C090FE41D090FF41E0900042F090014294
:1038900000910242109103420E944E3C2093FC4151
:1038A0003093FD414093FE415093FF4160930042AD
:1038B000709301428093024290930342C201550CDF
:1038C000AA0BBB0B4091F8415091F9416091FA412C
:1038D0007091FB41840F951FA61FB71F8093F8417D
:1038E0009093F941A093FA41B093FB416092F44167
:1038F0007092F541809112428F5F80931242209125
:103900004F40309150408217130619F014F0109276
:103910001242FF91EF91DF91CF91BF91AF919F91B3
:103920008F917F916F915F914F913F912F911F9157
:103930000F91FF90EF90DF90CF90BF90AF909F904E
:103940008F907F906F905F904F903F902F900F904F
:103950000BBE0F900FBE0F901F901895409117420D
:10396000509118426091194270911A4280913741EA
:1039700090913841A0913941B0913A41841795070F
:10398000A607B70748F480911F42811105C081E066
:103990008093494380931F424091174250911842AF
:1039A0006091194270911A4280916A4290916B42E3
:1039B000A0916C42B0916D4284179507A607B70796
:1039C00008F02ECF1092174210921842109219420E
:1039D00010921A4281E08093204010923D41109253
:1039E0003E41C8EBD1E418E8212E11E4312EE8E580
:1039F000F1E460E471E450E040E0421753070CF05A
:103A0000C5C0CA01A3E0880F991FAA95E1F78C01F0
:103A10000E5E1C4BD8011C9211961C9211971296A7
:103A20001C92129713961C92139714961C9214973B
:103A300015961C92159716961C92169717961C921F
:103A40008C010E511D4BD8011C9211961C9211979E
:103A500012961C92129713961C92139714961C920E
:103A6000149715961C92159716961C9216971796F2
:103A70001C92188219821A821B821C821D821E824D
:103A80001F822896D1011C9211961C9211971296B2
:103A90001C92129713961C92139714961C921497CB
:103AA00015961C92159716961C92169717961C92AF
:103AB000B8E02B0E311C80809180A280B380C4803E
:103AC000D580E680F78038968C010E541D4BD801C6
:103AD0008C9211969C9211971296AC921297139613
:103AE000BC9213971496CC9214971596DC92159766
:103AF0001696EC9216971796FC927F01B8E0EB1A97
:103B0000F108D7011C9211961C92119712961C92E3
:103B1000129713961C92139714961C92149715964D
:103B20001C92159716961C92169717961C92DB01FD
:103B30008D909D90AD90BD90BD0175016401FF0C0D
:103B4000CC08DC2C76018E579D4BDC018C921196B3
:103B50009C9211971296AC9212971396BC9213975F
:103B60001496CC9214971596CC9215971696CC92E3
:103B700016971796CC92CB010497DC011D921D92EB
:103B80001D921C9213974F5F5F4F37CF7091FC418E
:103B90006091FD415091FE414091FF4130910042C2
:103BA00020910142909102428091034270937A42A7
:103BB00060937B4250937C4240937D4230937E429F
:103BC00020937F4290938042809381421092FC41E7
:103BD0001092FD411092FE411092FF41109200425E
:103BE0001092014210920242109203428091F841D9
:103BF0009091F941A091FA41B091FB41AC01BD0116
:103C0000770F440B542FBA0180936E4290936F420A
:103C1000A0937042B09371424093724240937342BA
:103C20004093744240937542D1CD1082B0C0D0E031
:103C30002C173D070CF45ECE2197FE01EE5BFC4B8A
:103C40001E01220C331CB6E04B16510474F381E0C4
:103C50008083809141459091424596958795F101E9
:103C6000E851FE4B60807180681A790A4E0133E09A
:103C7000880C991C3A95E1F7F401E854FE4BA091A9
:103C80000E42B0910F4293010E943C3C6B017C01BB
:103C9000FF0CCC08DC2C76019B01AC016C2D7C2D3B
:103CA0008C2D9C2DA080B180C280D380E480F580D3
:103CB000068117810E944E3C2083318342835383C7
:103CC0006483758386839783F401E857FE4BA09144
:103CD0001042B091114293010E943C3C6B017C0167
:103CE000FF0CCC08DC2C76019B01AC016C2D7C2DEB
:103CF0008C2D9C2DA080B180C280D380E480F58083
:103D0000068117810E944E3C208331834283538376
:103D10006483758386839783F401E85AFE4B93018D
:103D2000D3010E943C3C6B017C01FF0CCC08DC2CD5
:103D300076019B01AC016C2D7C2D8C2D9C2DA080DF
:103D4000B180C280D380E480F580068117810E9413
:103D50004E3C2083318342835383648375838683FF
:103D60009783CC0FDD1FCC0FDD1FC05CDE4BC30182
:103D7000770CAA0BBB0B488159816A817B81840F28
:103D8000951FA61FB71F88839983AA83BB83F10160
:103D9000E851FE4B40825182ADCDCF92DF92EF923F
:103DA000FF920F931F93CF93DF9300D0CDB7DEB771
:103DB000109205441092064448EE53E060E070E033
:103DC00040930744509308446093094470930A4415
:103DD0002DEF30E4209303443093044480E698E0D0
:103DE00080930F449093104485EC9FE0809311449E
:103DF0009093124482E080931344109214441092E2
:103E0000154410929C4410929D4440939E445093BC
:103E10009F446093A0447093A14420939A443093AC
:103E20009B4420E038E02093A6443093A7442EEC36
:103E30003FE02093A8443093A9448093AA4481E0B2
:103E40008093AB441092AC44109243451092444589
:103E500093E090934745809348454EE650E060E0FC
:103E600070E04093494550934A4560934B457093A9
:103E70004C4510924D4510924E4510924F45109270
:103E80005045109251451092524510925345109250
:103E900054451092594510925A4590935D45809330
:103EA0005E4540935F4550936045609361457093D4
:103EB00062451092634510926445109265451092D8
:103EC00066451092674510926845109269451092B8
:103ED0006A4521E030E00090534002C0220F331FBA
:103EE0000A94E2F7209341453093424545E03695E8
:103EF00027954A95E1F720933F45309340458091BF
:103F000052400E9452088EEF90E08093914590932A
:103F100092458DE190E080938D4590938E4581E9A7
:103F200090E080938B4590938C4582E995E0809357
:103F30009345909394458FEF95E1809395459093A9
:103F4000964510928F451092904552E9E52E55E026
:103F5000F52EC701957189839A83CE0101960E943F
:103F6000150F67019DE1C90ED11C8F3F19F1E09239
:103F70008F45F09290458FEFC81685E1D80664F41E
:103F8000C601957189839A83CE0101960E94150F0F
:103F90008F3F61F00E94C70F40E05BE167EB70E08C
:103FA00080E08F5F863069F487E016C09DE1C90E1E
:103FB000D11CE1CF76018FEFC81685E1D80649F60E
:103FC000EBCF7695679557954795413099E059071E
:103FD0009DE36907710528F794E09093A345282F86
:103FE0002095022F017010E024E0000F111F2A9588
:103FF000E1F721E08162802B8093A24540E459E003
:10400000409397455093984590939A4586E08093C6
:104010009B4510929D4510929E452093A44582EDAC
:104020008093A5458FE08093A6452093A74589E11D
:104030008093A8458AE097EFA9E4B4E48093A9456A
:104040009093AA45A093AB45B093AC4583EC95E91A
:10405000AAE4B4E48093AD459093AE45A093AF45F8
:10406000B093B04580E090E0A0E7B3E48093B14521
:104070009093B245A093B345B093B44580E090E0EF
:10408000A8E4B2E48093B5459093B645A093B745B4
:10409000B093B84586E696E2A6E9B3E48093B945C5
:1040A0009093BA45A093BB45B093BC458DEC9CEC76
:1040B000ACE4B0E48093BD459093BE45A093BF456A
:1040C000B093C04546E656E266E173E44093C145CD
:1040D0005093C2456093C3457093C4458093C545D2
:1040E0009093C645A093C745B093C84541E75DE3AB
:1040F00060E772E44093C9455093CA456093CB454D
:104100007093CC458093CD459093CE45A093CF45F9
:10411000B093D0454093D1455093D2456093D34559
:104120007093D4458093D5459093D645A093D745B9
:10413000B093D8454093D9455093DA456093DB4519
:104140007093DC458093DD459093DE45A093DF4579
:10415000B093E0454093E1455093E2456093E345D9
:104160007093E4458093E5459093E645A093E74539
:10417000B093E8458DEC9CECACE1B1E48093E9456B
:104180009093EA45A093EB45B093EC452093ED4521
:1041900084E690E08093EE459093EF452093F045C0
:1041A000109209460F900F90DF91CF911F910F91C0
:1041B000FF90EF90DF90CF900895CF93DF93CDB72E
:1041C000DEB7CD5AD109CDBFDEBF88ED21E030E0AA
:1041D00084BF2093620091E084BF909363009DE2CE
:1041E00084BF9093800093E084BF9093600080E050
:1041F00090E22091650020FDBDC321E02093030AD9
:104200008EEF8093260A8093270A9BE09093000A02
:1042100032E03093E6052093430A8093660A809348
:10422000670A9093400A9093E705E0E0FBE027E0FF
:104230009EEF85E021839487158680837096E03415
:104240003BE0F307B9F72FEF3FE02093AA0B309341
:10425000AB0B90E89093820B1092810B2EEF30E025
:104260002093AE0B3093AF0B98ED24E194BF2093D5
:10427000680091E19093800B809302069EE09093FA
:10428000050690E690930306809300068091B000A7
:10429000887F85608093B0008091B200887F8560C0
:1042A0008093B2008FED9EE280932C0B90932D0BA8
:1042B00081E08093250B1092210B83E08093200BEB
:1042C000789484E08093210461E08AE00E94601485
:1042D0009FB7F89480E18093020480911404886071
:1042E000809314049FBF9FB7F89480E280930204E8
:1042F000809115048860809315049FBF40E052ECC4
:1043000061E070E083E094E40E94F30F8091080480
:1043100084FD05C08091A6458F5F8093A64567EA1E
:1043200074E083E094E40E948B0B6EE271E483E01E
:1043300094E40E94051061E974E083E094E40E9433
:10434000501085E190E00E94440F882341F1CE0196
:1043500001960E941C0F09811A8117FD20C0680177
:1043600043E0C40ED11C34EAE32E35E4F32E87E09B
:1043700090E05C015FEFA51AB50A8DAB9EABCE0154
:10438000C5960E94150FD7018D937D01C501AC1410
:10439000BD0478F364E274E00430110511F463E1C4
:1043A00074E083E094E40E9450100E940C1380910A
:1043B000A745882309F450C068E874E083E094E4DA
:1043C0000E948B0B60E874E083E094E40E948B0B06
:1043D0008091A445813031F469E774E083E094E48E
:1043E0000E948B0B8091A445823031F462E774E027
:1043F00083E094E40E948B0B8091A445833031F4D8
:104400006BE674E083E094E40E948B0B62E674E058
:1044100083E094E40E948B0B4091A54550E070E04E
:1044200060E02AE083E094E40E940C106AE574E006
:1044300083E094E40E948B0B4091A64550E070E02D
:1044400060E02AE083E094E40E940C1068E574E0E8
:1044500083E094E40E9450108091080485FD13C00D
:1044600081E080931E4266E474E083E094E40E945D
:104470008B0B6091AD457091AE458091AF459091A9
:10448000B0450E9481118091A745882309F42FC16E
:1044900069E374E083E094E40E94501061E08DE0F1
:1044A0000E94601480E28093210480919E458111D6
:1044B00018C010929D458EE080939A4580E18093CC
:1044C0009B4580E699E0809397459093984510929C
:1044D0009F451092A14580E88093A04581E080939C
:1044E0009E45A0919745B091984590919D458091AA
:1044F000E405A034E9E0BE0709F042C28C7F892BB5
:104500008093E40520919B45822F90E0293280F42E
:10451000FC01E258FF4B20812F3F51F089559F4B02
:10452000FC01908130E2939FF0011124FC5F218314
:1045300020919A45822F90E0293280F4FC01E258C4
:10454000FF4B20812F3F51F089559F4BFC019081FB
:1045500030E2939FF0011124FC5F218311968C912E
:104560001197846011968C93E0919745F09198454E
:104570008081816280839091A2458091A345E091E2
:104580009745F09198459083E0919745F091984533
:104590008183E0919745F091984580818F7B80835E
:1045A000E0919745F091984581818C7F8183E091DE
:1045B0009745F0919845808180836AEA8FE20E9456
:1045C0005B168FE20E944A168A3AB9F765E58FE2D8
:1045D0000E945B168FE20E944A168535B9F764E0A7
:1045E00081E00E945B1660E082E00E945B1662E060
:1045F00083E00E945B166AE884E00E945B1662E03A
:1046000085E00E945B1661EE86E00E945B1660E228
:104610008BE00E945B166AE489E10E945B1662E40B
:104620008AE10E945B1669E981E10E945B166CE2F7
:104630008EE10E945B1660E885E20E945B1667E0EF
:1046400086E20E945B1668EC89E20E945B1665E0D8
:104650008DE20E945B1668E88EE20E945B166DE2B6
:104660008FE20E945B1660ED87E30E945B1662E4B6
:1046700088E30E945B166FE88CE30E945B1662E1A0
:104680008DE30E945B1660E28FE60E945B1662E09B
:1046900081E70E945B162AE0E22EF12CE092C343F0
:1046A000F092C4430091A8452091A4454091A645AD
:1046B00061E08DEB93E40E946E1664E670E080E0AA
:1046C00090E00E94210C41E0E41AF10838F71092C2
:1046D000C3431092C4436091A64584E1689FB00132
:1046E0001124072E000C880B990B0E94210C60E00E
:1046F0008AE00E9460148CE090E080935340909395
:1047000054408DE190E0809321409093224080E0DE
:1047100090E1809341459093424580E890E08093FA
:104720003F45909340458FE692E1A3E8BFE3809335
:10473000234090932440A0932540B093264080913D
:10474000A9459091AA45A091AB45B091AC45109276
:10475000184080934B4090934C40A0934D40B093B1
:104760004E40F0901E42FF2081F08091AD45909127
:10477000AE45A091AF45B091B04580934B4090932A
:104780004C40A0934D40B0934E400091BD451091D8
:10479000BE452091BF453091C0454091B9455091EB
:1047A000BA456091BB457091BC4583E00E94DC0E28
:1047B0000091C5451091C6452091C7453091C84527
:1047C0004091C1455091C2456091C3457091C44527
:1047D00084E00E94DC0E0091CD451091CE452091E1
:1047E000CF453091D0454091C9455091CA4560911F
:1047F000CB457091CC4585E00E94DC0E0091D545FB
:104800001091D6452091D7453091D8454091D1455A
:104810005091D2456091D3457091D44586E00E9475
:10482000DC0E0091DD451091DE452091DF45309191
:10483000E0454091D9455091DA456091DB45709152
:10484000DC4588E00E94DC0E0091E5451091E645CC
:104850002091E7453091E8454091E1455091E2458E
:104860006091E3457091E44589E00E94DC0EFF20F1
:1048700021F08CE390E00E940B186091E945709163
:10488000EA458091EB459091EC450E94930E809112
:10489000B1459091B245A091B345B091B445809394
:1048A000294090932A40A0932B40B0932C408091B4
:1048B000ED458093434581E08093444586E08093B5
:1048C0004745809348458091EE459091EF45092EEC
:1048D000000CAA0BBB0B8093494590934A45A093CB
:1048E0004B45B0934C458CE0809352408BE08093D5
:1048F000284088E08093210461E08BE00E946014EE
:104900008FE580931F4081EF95E48093004490935E
:1049100001441092F14587EB93E4809320429093F9
:10492000214283E080935140E0908F45F090904584
:10493000E114F10409F4A9C087010F5F1F4F9FE63E
:10494000C92E95E4D92E80918D4590918E458E0D7E
:104950009F1D08171907B4F4C801957189839A83BC
:10496000CE0101960E94150FD6018D936D010F5F48
:104970001F4FE9CF019709F03CCC83E00E94BF0BA9
:10498000837FBDCD00916F45109170452091714599
:10499000309172458091734590917445A091754511
:1049A000B091764540907745509078456090794534
:1049B00070907A4580907B4590907C45A0907D4595
:1049C000B0907E4520907F4530908045F0918145A4
:1049D000E0918245C0908345D0908445E090854524
:1049E000F0908645722D632DAF01009357431093CD
:1049F00058432093594330935A4380935B43909399
:104A00005C43A0935D43B0935E4340925F435092FA
:104A100060436092614370926243809263439092DC
:104A20006443A0926543B0926643209267433092FC
:104A30006843F0936943E0936A43C0926B43D0921A
:104A40006C43E0926D43F0926E4370934D456093DA
:104A50004E4550934F45409350458091F0450E94FC
:104A60002C1580911D42882341F1282F30E020939E
:104A70004F40309350408F5F90E08630F0F4FC015F
:104A8000EE5BFC4B10820196F8CF70E060E050E0E6
:104A900040E0C12CD12C7601212C312CF0E0E0E05B
:104AA000812C912C5401412C512C320180E090E05A
:104AB000DC0100E010E0980198CF809023409090B6
:104AC0002440A0902540B0902640609141457091CF
:104AD000424590E080E00E94A0382B013C012091EB
:104AE0004B4030914C4040914D4050914E40C5015B
:104AF000B4010E940139A30192010E94363A6093E9
:104B00004B4070934C4080934D4090934E4002E256
:104B1000C02E02E4D02E81E3E82E80E4F82E10E0CF
:104B200000E080914F409091504008171907FCF425
:104B3000F7012081318142815381C501B4010E9476
:104B40000139A30192010E94363AD7016D937D93FA
:104B50008D939D937D01802F0E944D17F601119238
:104B60001192119211926F010F5F1F4FDACF8DE1F9
:104B70009EE080934545909346458FE19EE080936B
:104B80005B4590935C4581E08093204010921742F2
:104B9000109218421092194210921A429EE090937D
:104BA000050690910306909303061092B00096E0DC
:104BB0009093020680930006909100069093000661
:104BC00090910006926090930006109208069091D2
:104BD0000C06916090930C0680930A067894C0901E
:104BE0002D40D0902E40E0902F40F09030406091CA
:104BF000494070914A4090E080E00E94A038A701AF
:104C000096010E9401390E94A33A60931B4270935F
:104C10001C421092484320E034E244E759E4C701C3
:104C2000B6010E9401396B017C01609121407091B5
:104C30002240072E000C880B990B0E94A2389B0182
:104C4000AC01C701B6010E94363A0E94A33A6093B4
:104C50006A4270936B4280936C4290936D4203E47E
:104C600015E4F12CD8018C918823B1F114962C9184
:104C7000822F90E0293220F5FC01E258FF4B208181
:104C80002F3FF1F0FC01E955FF4BA081E0E2AE9F20
:104C9000D0011124BC5F80539F4BFC013081F0E0B8
:104CA000E0E0383028F4CD014096FC01E30FF11D1F
:104CB0009FB7F89412962C938081886080839FBF61
:104CC0006FE17EE080915E45F11004C06DE17EE011
:104CD000809148450E9423080A5E1F4FF1E0FF12B1
:104CE000E3C01092BD431092BE431092BF43109296
:104CF000C0430E94EA119E01265F3F4F2FAB38AFA1
:104D000083E094E40E94D109892B51F180912740DE
:104D10008111D5C065E070E0CE0101960E945E0C65
:104D20000597F1F489818B32D9F48A818B32C1F4F1
:104D30008C818D30A9F48D818A3091F48B818B32F6
:104D400009F0B5C081E08093274012E061EA76E087
:104D500083E094E40E945010123011F40E94720B10
:104D600080914943882369F1109249438091FF4320
:104D7000882339F18091284087FD19C08932A4F435
:104D8000282F082E000C330BF901E258FF4B9081BD
:104D90009F3F51F029553F4BD901EC91B0E2EB9F79
:104DA000F0011124FC5F918361E00E9460140E9475
:104DB000360960E08CEC0E94050961E084E40E9401
:104DC000050980914843882311F40C94903810927F
:104DD0004843F89420914F403091504090E080E05B
:104DE000821793070CF0CCC4FC01EE5BFC4B4081B6
:104DF000411158C0FC01B3E0EE0FFF1FBA95E1F777
:104E0000DF01AE5EBC4B1C9211961C92119712965C
:104E10001C92129713961C92139714961C92149737
:104E200015961C92159716961C92169717961C921B
:104E3000DF01AE51BD4B1C9211961C921197129638
:104E40001C92129713961C92139714961C92149707
:104E500015961C92159716961C92169717961C92EB
:104E6000DF01AE54BD4B1C9211961C921197129605
:104E70001C92129713961C92139714961C921497D7
:104E800015961C92159716961C92169717961C92BB
:104E9000EE57FD4B1082118212821382148215820A
:104EA0001682178201969CCFFF24F394DBCE8337C2
:104EB00009F056CF81E08093274011E047CF83E08F
:104EC00094E40E94AF09E1ECE80FEC3308F06DC008
:104ED0000E2E000CFF0BE159F84D0C94333CBB2B0C
:104EE000D527D527D527D527D527D527D527D527E2
:104EF000D527D527D527D527D527D527D527D527D2
:104F0000D527D527D527D527D527D527D527D527C1
:104F1000D527D527D527D527D527D527D527D527B1
:104F2000D527AB27E1270A281628D5273328452877
:104F3000D527C129D5275E2869296E29C129D527FA
:104F4000D929D527EF29262AF72AD5275D2B6A2BC1
:104F5000762BD5278A2B0E942F0D6093B145709335
:104F6000B2458093B3459093B44565E976E083E01C
:104F700094E40E948B0B6091B1457091B245809191
:104F8000B3459091B4450E9481118091B1459091B3
:104F9000B245A091B345B091B44580932940909318
:104FA0002A40A0932B40B0932C4083E094E40E94CD
:104FB000D109892B09F4D4CE83E094E40E94AF098F
:104FC000F4CF0E94D70C6430F9F06830B9F0693042
:104FD00079F01092A44570E060E083E094E40E94D0
:104FE0008F1060E976E083E094E40E945010DDCFFA
:104FF00083E08093A44563E973E0EFCF82E0809380
:10500000A44564E673E0E9CF81E08093A44561EBB9
:1050100071E0E3CF0E94D70C6130710521F481E08B
:1050200080930946C2CF10920946BFCF0E942F0D30
:105030006B017C010E94930EC092E945D092EA4533
:10504000E092EB45F092EC456FE776E083E094E484
:105050000E948B0B42E050E0C701B6010E948E1106
:105060006CE776E0C0CF0E942F0D0E949E3A6B0144
:10507000CB010E940B1865E776E083E094E40E9480
:105080008B0BC6010E94941090CF0E94D70C6093A6
:10509000A5456EE676E083E094E40E948B0B409198
:1050A000A54550E070E060E02AE083E094E40E94CF
:1050B0000C1083E094E40E944D1077CF0E94D70C2F
:1050C0002B018B010E942F0D6B017C010E942F0D83
:1050D0004B015C010730110508F040C0F201ED58AA
:1050E000F74D0C94333C7A28D928F1280929212935
:1050F0003929512920912340309124404091254065
:1051000050912640C701B6010E94013969AF7AAFBC
:105110008BAF9CAF609141457091424590E080E03B
:105120000E94A0389B01AC0169AD7AAD8BAD9CADFE
:105130000E94363A60934B4070934C4080934D40B0
:1051400090934E4080911E42882351F1C092AD450C
:10515000D092AE45E092AF45F092B04567E676E07A
:1051600083E094E40E948B0BB20183E094E40E94FC
:105170008F1065E676E083E094E40E948B0B42E0BA
:1051800050E0C701B6010E948E1163E676E083E02D
:1051900094E40E948B0BC501B4010E94811105CFDC
:1051A000C092A945D092AA45E092AB45F092AC4599
:1051B000D5CF9C018B01B701A60183E00E94351871
:1051C000C092B945D092BA45E092BB45F092BC4539
:1051D0008092BD459092BE45A092BF45B092C04519
:1051E000BDCF9C018B01B701A60184E00E94351858
:1051F000C092C145D092C245E092C345F092C445E9
:105200008092C5459092C645A092C745B092C845C8
:10521000A5CF9C018B01B701A60185E00E9435183E
:10522000C092C945D092CA45E092CB45F092CC4598
:105230008092CD459092CE45A092CF45B092D04578
:105240008DCF9C018B01B701A60186E00E94351825
:10525000C092D145D092D245E092D345F092D44548
:105260008092D5459092D645A092D745B092D84528
:1052700075CF9C018B01B701A60188E00E9435180B
:10528000C092D945D092DA45E092DB45F092DC45F8
:105290008092DD459092DE45A092DF45B092E045D8
:1052A0005DCF9C018B01B701A60189E00E943518F2
:1052B000C092E145D092E245E092E345F092E445A8
:1052C0008092E5459092E645A092E745B092E84588
:1052D00045CF0E940C130E94EA1167CE0E94D70CA2
:1052E0008B010E94D70C0E94A2386B017C0183E0E5
:1052F00094E40E94D109892B29F083E094E40E9470
:10530000AF09F5CF01151105B9F001301105E1F034
:105310006AE576E083E094E40E948B0B62E576E038
:10532000012B09F460CE42E050E0C701B6010E94B3
:105330008E1166E576E057CE1092434581E080936A
:1053400044451092ED45E4CFC701B6010E949E3A54
:105350004B01072E000CAA08BB0880924945909289
:105360004A45A0924B45B0924C4521E020934345DD
:10537000209344452093ED456093EE457093EF45AF
:10538000C7CF0E94D70C662389F070E060347105A6
:1053900014F06FE370E06093A6456CE476E083E080
:1053A00094E40E948B0B4091A6457BCE61E070E0B7
:1053B000F2CF0E94D70C6F716093A84567E476E046
:1053C00083E094E40E948B0B6091A8456251770BB7
:1053D00083E094E40E948F1062E476E004CE83E0E0
:1053E00094E40E94D109892B29F083E094E40E947F
:1053F000AF09F5CF63ED75E083E094E40E945010AF
:1054000085E190E00E94440F882389F0CE01019647
:105410000E941C0F89819A8197FD09C09195819501
:10542000910989839A83CE0101960E949F0F65EAB4
:1054300075E083E094E40E94501068EC70E080E036
:1054400090E00E94210C0C940000AFCD6BE975E058
:1054500083E094E40E94501085E190E00E94440FA4
:10546000811128C019821A826FE4CE0101960E9430
:105470007C0F81E090E089839A8365E4CE010196F8
:105480000E947C0F82E090E089839A836DE4CE01D4
:1054900001960E947C0F03E010E009831A836FEFEE
:1054A000CE0101960E947C0F0F5F1F4F011536E160
:1054B000130799F74AE650E049835A8385E190E063
:1054C0008B839C83CE0101960E949F0F04EA15E412
:1054D00087E090E0D8016D918D017C01BFEFEB1A60
:1054E000FB0A8DAB9EABCE01C5960E947C0FC70117
:1054F0008D36910579F790E080E00E94440F81118C
:1055000022C063E775E08AE994E40E948B0B2AE0ED
:1055100040E056E160E070E08AE994E40E940C10FB
:105520006DE475E08AE994E40E94501060E076E151
:1055300090E080E00E948F116BE475E08AE994E4CA
:105540000E948B0B0EC0CE0101960E941C0F8B8116
:105550009C81019669F46AEF74E08AE994E40E9400
:10556000501083E094E40E944D106AE775E03BCD53
:105570006DEE74E08AE994E40E948B0B4B815C81B0
:1055800070E060E02AE08AE994E40E940C1009814E
:105590001A8117FF03C011950195110904501109D3
:1055A0006FED74E08AE994E40E948B0BB8018AE9FC
:1055B00094E40E948F1068ED74E08AE994E40E94FC
:1055C0008B0B89819A8197FF06C06DEC74E08AE9A4
:1055D00094E40E948B0B8AE994E40E944D10B80178
:1055E00087E090E00E948F116BEC74E0A7CF0E94DF
:1055F000D70C6B01CB01892B71F40E94D70C21E0F1
:10560000672B682B692B09F420E02093F045822F4B
:105610000E942C15CACC6430710508F0C6CC61E03C
:1056200070E0CE01C5960E945E0C10E000E061E0E3
:1056300070E0CE01C5960E945E0C892B49F10830BE
:1056400038F58DA9803221F08D3011F08A3051F477
:10565000E1E0F0E0EC0FFD1FE00FF11D10830F5FA4
:1056600010E0E5CF1295107F90ED980F9A3030F052
:105670009FEB980F963020F499EC980F190FD7CF25
:105680009FE9980F963010F499EAF7CF90E0F6CFA3
:10569000DE01119613E0CC0CDD1C1A95E1F790E0C9
:1056A00080E02D91F601E80FF91FE751FA4B2083B6
:1056B000019688309105A9F778CC67E176E083E020
:1056C00094E40E948B0B6EE271E483E094E40E9408
:1056D00005106BCC0E94D70C6093A745662319F088
:1056E00061E176E080CC6AE076E07DCC6CEF75E03D
:1056F00083E094E40E94501083E094E40E94D10976
:10570000892B29F083E094E40E94AF09F5CF109231
:10571000274026CB62EE75E083E094E40E945010AF
:105720000E94C70F1092574310925843109259434A
:1057300010925A4310925B4310925C4310925D4367
:1057400010925E4310925F43109260431092614347
:105750001092624310926343109264431092654327
:105760001092664310924D4510924E4510924F454F
:10577000109250451ACC0E94720B60EE75E033CC4B
:1057800003E415E4F12CE12CCC24C394D12CA6E144
:10579000BA2EF8018181882309F477C0808188239B
:1057A000D1F18481893228F590E0FC01E258FF4B69
:1057B00040814F3FF1F0FC01E955FF4B2081F0E2C1
:1057C0002F9F900111243C5F80539F4BDC018C91F3
:1057D000F0E0E0E0883020F4F9017096E80FF11D68
:1057E0009FB7F894D90112964C938081886080838A
:1057F0009FBF6DE17EE080914845E114F10421F006
:105800006FE17EE080915E450E9423083EC0EE2459
:10581000E394F12CBECF85818932A0F590E0FC01A4
:10582000E053FF4B20812F3F69F189559F4BDC01ED
:105830008C91E82FE295EE0FE07EE20FF0E0E05F62
:10584000FB4F9081917F908390E0FC0134E0EE0F5C
:10585000FF1F3A95E1F7422F50E0260102C0440CA9
:10586000551C2A95E2F74382880F991FFC01EF50DF
:10587000FC4B440F551F0190F081E02DE40FF51F04
:1058800010821182D80111961C92BE9CF001BF9C1F
:10589000F00D1124ED5BFA4B86859785A089B189BF
:1058A000892B8A2B8B2BC9F0468557856089718996
:1058B000D8011A964D905D906D907C901D97440D87
:1058C000551D661D771D1A964D935D936D937C93C0
:1058D0001D9716861786108A118A0A5E1F4FEA9452
:1058E000EF2809F094CF789420917A4230917B424E
:1058F00040917C4250917D4260917E4270917F4206
:1059000080918042909181424090764250907742BF
:10591000609078427090794210916E4200916F428F
:105920003090704220907142C0907242CDAED090C3
:1059300073422696DFAE2697E09074422296EFAE31
:105940002297F09075422896FFAE2897C0906E423D
:105950002A96CFAE2A97D0906F422C96DFAE2C9726
:10596000E09070426096EFAE6097F090714264965E
:10597000FFAE6497C09072426696CFAE6697D090A5
:1059800073426A96DFAE6A97E09074426E96EFAE0D
:105990006E97F0907542A296FFAEA297C0907642A5
:1059A000D0907742E0907842F0907942C9AEDAAE7A
:1059B000EBAEFCAE8090764290907742A090784219
:1059C000B09079420E94D33A6B017C01C301B201CD
:1059D0000E94A2389B01AC01C701B6010E94363A71
:1059E0006B017C01212F302F432D522D6DAD26965A
:1059F0007FAD269722968FAD229728969FAD289748
:105A00000E94CF3A2B013C012A962FAD2A972C9663
:105A10003FAD2C9760964FAD609764965FAD6497ED
:105A200066966FAD66976A967FAD6A976E968FADF4
:105A30006E97A2969FADA2970E94CF3A9B01AC01B0
:105A4000C301B2010E9401392B013C0169AD7AAD5D
:105A50008BAD9CAD0E94A2389B01AC01C301B20189
:105A60000E94363A2B013C01C501B4010E94A238C4
:105A70009B01AC01C301B2010E94363A9B01AC010B
:105A8000C701B6010E94CE390E94683B40904B404E
:105A900050904C4060904D4070904E402F964CAED0
:105AA0005DAE6EAE7FAE2F97A30192010E940139C9
:105AB00063966CAF7DAF8EAF9FAF639760936F437C
:105AC00070937043809371439093724360904F4002
:105AD0007090504065966EAE7FAE6597809076422E
:105AE00090907742A0907842B090794260916A425B
:105AF00070916B4280916C4290916D420E94A038EF
:105B00006B017C01D3011196A50194010E94483CD0
:105B10000E94A2389B01AC01C701B6010E94363A2F
:105B200069966CAF7DAF8EAF9FAF699770904A4317
:105B3000EA967FAEEA97C0902940D0902A40E09044
:105B40002B40F0902C40EE96CCAEDDAEEEAEFFAE2C
:105B5000EE9740902D4050902E4060902F407090D6
:105B60003040A1964CAE5DAE6EAE7FAEA19727E5FC
:105B700033E42DAF3EAF4BE453E449AF5AAF0FE9E6
:105B800013E462E572E4A3966EAF7FAFA3978AE356
:105B900092E429968EAF9FAF2997A3E7B3E42B96A3
:105BA000AEAFBFAF2B97E1E3F0E4A596EEAFFFAF4A
:105BB000A59722E232E427962EAF3FAF2797312CEC
:105BC000212C65964EAC5FAC6597241435040CF01F
:105BD00078C4B10183E0660F771F8A95E1F7FB0176
:105BE000EE5EFC4B5080EF965FAEEF976180C15840
:105BF000DF4F6882CF57D0407280C058DF4F788225
:105C0000C058D040C380CF57DF4FC882C158D04062
:105C1000D480CE57DF4FD882C258D040E580CD57D0
:105C2000DF4FE882C358D040F680CC57DF4FF88270
:105C3000C458D0404780CB57DF4F4882C558D0402A
:105C4000A396AEADBFADA397CD90DD90ED90FD9046
:105C5000A396AEAFBFAFA397A996CCAEDDAEEEAE26
:105C6000FFAEA997FB01EE51FD4B4080CA57DF4FB5
:105C70004882C658D0405180C957DF4F5882C75814
:105C8000D0406280C857DF4F6882C858D0407380C8
:105C9000C757DF4F7882C958D040C480C657DF4FFE
:105CA000C882CA58D040D580C557DF4FD882CB585C
:105CB000D040E680C457DF4FE882CC58D040F78010
:105CC000C357DF4FF882CD58D0402996AEADBFAD57
:105CD00029974D905D906D907D902996AEAFBFAFA6
