:10020000E4C600000CC700000AC7000008C70000D1
:1002100006C7000004C7000002C7000000C70000B6
:100220000C94A71CFCC60000FAC60000F8C600002B
:10023000F6C60000F4C60000F2C60000F0C60000DA
:10024000EEC60000ECC60000EAC60000E8C60000EA
:10025000E6C600000C94021C0C94FD1B0C94071CB9
:100260000C949E1CDCC600000C94F51CD8C6000043
:10027000D6C60000D4C600000C94A11C0C94701CBF
:10028000CEC60000CCC60000CAC600000C94981C64
:10029000C6C60000C4C60000C2C60000C0C600003A
:1002A000BEC60000BCC60000BAC60000B8C600004A
:1002B000B6C600000C94A41C0C949B1CB0C6000095
:1002C000AEC60000ACC60000AAC60000A8C600006A
:1002D000A6C600000C94F51B0C94F01B0C94FA1BA2
:1002E0009EC600009CC600009AC6000098C600008A
:1002F00096C6000005A84CCDB2D44EB93836A90236
:100300000C50B9918688083CA6AAAA2ABE00000013
:10031000803F4E414E494E495459494E46CDCCCC72
:100320003D0AD7233C17B7D13877CC2B329595E6C9
:10033000241FB14F0A000020410000C84200401CA9
:100340004620BCBE4CCA1B0E5AAEC59D744E6F20D3
:10035000454550524F4D20636F6E666967004C6F84
:100360006164656420454550524F4D20636F6E6651
:100370006967002000204E6F64653A2000204772B4
:100380006F75703A20003931354D487A003836386B
:100390004D487A003433334D487A002046726571F7
:1003A0003A200052464D3639435720004F70656E53
:1003B000456E657267794D6F6E69746F722E6F72DC
:1003C0006700656D6F6E5478205634434D20436F3F
:1003D0006E74696E756F7573204D6F6E69746F7290
:1003E000696E672056005246206F666600524620AE
:1003F0006F6E0074656D705F656E61626C65203D47
:10040000200070756C736520706572696F64203DA3
:10041000200070756C736573203D20006461746109
:100420006C6F67203D200069364C656164203D207B
:1004300000693643616C203D200069354C6561647C
:10044000203D2000693543616C203D200069344C1B
:10045000656164203D2000693443616C203D2000CB
:1004600069334C656164203D2000693343616C2031
:100470003D200069324C656164203D2000693243B3
:10048000616C203D200069314C656164203D200095
:10049000693143616C203D2000617373756D656443
:1004A00056203D20007643616C203D200043616C66
:1004B0006962726174696F6E3A002064426D002C4B
:1004C00020002C204E6F64652000204D487A2C209F
:1004D00047726F7570200042616E6420005365742E
:1004E00074696E67733A000A00202868696464655D
:1004F0006E292E00206279746573002C204461748B
:10050000612073697A653A2000205369676E6174CF
:100510007572653A20004E6F206461746120626CD0
:100520006F636B20666F756E64202D2045455052B9
:100530004F4D206170706561727320746F20626529
:1005400020666F726D617474656420746F204F450E
:100550004D205374616E64617264206275742075FD
:100560006E757365642E000A002062797465732CC1
:10057000206E6F7420666F726D6174746564207490
:100580006F204F454D205374616E64617264005357
:10059000697A653A2000446F6E652E204E6577209B
:1005A000636F6E66696720736176656420746F207F
:1005B000454550524F4D00536176696E672E2E2E81
:1005C00000536B657463682077696C6C206E6F777D
:1005D0002072657374617274207573696E6720642C
:1005E000656661756C7420636F6E6669672E005274
:1005F0006573657474696E672E2E2E0020000A41A3
:100600007661696C61626C6520636F6D6D616E64AB
:10061000733A0A6C09092D206C697374207468653B
:100620002073657474696E67730A7209092D2072EC
:100630006573746F726520736B657463682064659D
:100640006661756C74730A7309092D207361766590
:100650002073657474696E677320746F204545500C
:10066000524F4D0A7609092D2073686F772066690D
:10067000726D776172652076657273696F6E0A7A42
:1006800009092D207A65726F20656E657267792081
:1006900076616C7565730A7809092D20657869742F
:1006A0002C206C6F636B20616E6420636F6E7469C5
:1006B0006E75650A3F09092D2073686F772074688D
:1006C0006973207465787420616761696E0A0A77BE
:1006D0003C783E09092D207475726E2052464D20DB
:1006E000576972656C6573732064617461206F660D
:1006F000663A2078203D2030206F72206F6E3A20BD
:1007000078203D20310A623C6E3E09092D20736538
:100710007420722E662E2062616E64206E203D2051
:10072000612073696E676C65206E756D6572616CB2
:100730003A2034203D203433334D487A2C20382061
:100740003D203836384D487A2C2039203D2039312B
:10075000354D487A20286D6179207265717569720E
:1007600065206861726477617265206368616E6795
:1007700065290A703C6E6E3E09092D207365742050
:1007800074686520722E662E20706F7765722E2039
:100790006E6E202D20616E20696E74656765722013
:1007A00030202D20333120726570726573656E7450
:1007B000696E67202D31382064426D20746F202BC4
:1007C00031332064426D2E2044656661756C743A45
:1007D00020323520282B372064426D290A673C6E71
:1007E0006E6E3E092D20736574204E6574776F72AE
:1007F0006B2047726F757020206E6E6E202D206109
:100800006E20696E746567657220284F454D2064BF
:10081000656661756C74203D20323130290A6E3C6A
:100820006E6E3E09092D20736574206E6F6465201D
:100830004944206E3D20616E20696E746567657263
:1008400020287374616E64617264206E6F64652029
:100850006964732061726520312E2E3630290A0AB0
:10086000643C78782E783E092D2078782E78203DCB
:10087000206120666C6F6174696E6720706F696EAD
:1008800074206E756D62657220666F722074686583
:1008900020646174616C6F6767696E672070657250
:1008A000696F640A633C6E3E09092D206E203D206D
:1008B0003020666F72204F46462C206E203D20313E
:1008C00020666F72204F4E2C20656E61626C652031
:1008D000766F6C746167652C2063757272656E74D7
:1008E000202620706F77657220666163746F7220B6
:1008F00076616C75657320746F2073657269616CC5
:10090000206F757470757420666F722063616C69F6
:1009100062726174696F6E2E200A663C78783E09B7
:10092000092D207878203D20746865206C696E65FB
:10093000206672657175656E637920696E20487AEC
:100940003A206E6F726D616C6C79206569746865B0
:1009500072203530206F722036300A6B3C783E2092
:100960003C79792E793E203C7A7A2E7A3E0A090922
:100970002D2043616C69627261746520616E206133
:100980006E616C6F67756520696E70757420636841
:10099000616E6E656C3A0A0909202078203D20615D
:1009A0002073696E676C65206E756D6572616C3A57
:1009B0002030203D20766F6C746167652063616C28
:1009C0006962726174696F6E2C2031203D206374FE
:1009D000312063616C6962726174696F6E2C2032C0
:1009E000203D206374322063616C696272617469B6
:1009F0006F6E2C206574630A0909202079792E799D
:100A0000203D206120666C6F6174696E6720706F95
:100A1000696E74206E756D62657220666F722074E7
:100A2000686520766F6C746167652F637572726597
:100A30006E742063616C6962726174696F6E2063A9
:100A40006F6E7374616E740A090920207A7A2E7AA7
:100A5000203D206120666C6F6174696E6720706F45
:100A6000696E74206E756D62657220666F72207497
:100A700068652070686173652063616C696272618A
:100A800074696F6E20666F72207468697320632EBC
:100A9000742E20287A206973206E6F74206E65652D
:100AA0006465642C206F722069676E6F72656420C4
:100AB000696620737570706C6965642C2077686551
:100AC0006E2078203D2030290A09092020652E67F4
:100AD0002E206B30203235362E380A09092020208E
:100AE000202020206B312039302E3920322E30301A
:100AF0000A613C78782E783E092D2078782E78206F
:100B00003D206120666C6F6174696E6720706F694B
:100B10006E74206E756D62657220666F72207468E7
:100B20006520617373756D656420766F6C746167A1
:100B300065206966206E6F20612E632E2069732008
:100B400064657465637465640A6D3C783E203C7925
:100B5000793E092D206D657465722070756C736522
:100B600020636F756E74696E673A0A090920202048
:100B700078203D203020666F72204F46462C20782A
:100B8000203D203120666F72204F4E2C203C797919
:100B90003E203D20616E20696E7465676572206637
:100BA0006F72207468652070756C7365206D696E56
:100BB000696D756D20706572696F6420696E206D56
:100BC000732E202879206973206E6F74206E6565FE
:100BD0006465642C206F722069676E6F7265642093
:100BE0007768656E2078203D2030290A7430203CDB
:100BF000793E092D207475726E2074656D70657272
:100C00006174757265206D6561737572656D656E71
:100C100074206F6E206F72206F66663A2079203DD7
:100C2000203020666F72204F46462C2079203D20D0
:100C30003120666F72204F4E0A743C783E203C791A
:100C4000793E203C79793E203C79793E203C797987
:100C50003E203C79793E203C79793E203C79793EB2
:100C6000203C79793E0A09092D206368616E676529
:100C700020612074656D7065726174757265207392
:100C8000656E736F7227732061646472657373207D
:100C90006F7220706F736974696F6E3A0A09092068
:100CA0002078203D20612073696E676C65206E7529
:100CB0006D6572616C3A2074686520706F73697439
:100CC000696F6E206F66207468652073656E736F40
:100CD0007220696E20746865206C697374202831F5
:100CE0002D6261736564290A090920207979203D04
:100CF00020382068657861646563696D616C206285
:100D00007974657320726570726573656E74696E4F
:100D100067207468652073656E736F722773206136
:100D20006464726573730A090920202020652E67A8
:100D30002E202032382038312034332033312030F7
:100D4000372030302030302044390A090920204E25
:100D50002E422E2053656E736F72732043414E4EA8
:100D60004F542062652061646465642E0A00456EFC
:100D7000657267792076616C756573207365742080
:100D8000746F207A65726F00436F6E74696E756957
:100D90006E672E2E2E005246206F66660052462049
:100DA0006F6E00456D6F6E5478563334434D20524C
:100DB000464D36396E20436F6E74696E756F75736C
:100DC000204D6F6E69746F72696E672056002064E3
:100DD000426D0070203D20004E6F646520006F66FC
:100DE0006600206D730050756C7365733A200020A7
:100DF00000200043616C3A206B0047726F757020D1
:100E000000467265713A2000207300646174616C61
:100E10006F6720706572696F643A2000204D487AD0
:100E200000005EBCE2613FDD83C29C7E20A3FD1F0B
:100E300041009D23BE46DB65F88C11AF32CA57E9ED
:100E4000742C7066363A002C7066353A002C706649
:100E5000343A002C7066333A002C7066323A002C1B
:100E60007066313A002C49363A002C49353A002C4C
:100E700049343A002C49333A002C49323A002C4983
:100E8000313A002C70756C73653A002C54333A007B
:100E90002C54323A002C54313A002C45363A002C6E
:100EA00045353A002C45343A002C45333A002C4560
:100EB000323A002C45313A002C50363A002C50354D
:100EC0003A002C50343A002C50333A002C50323A2D
:100ED000002C50313A002C56726D733A004D534736
:100EE0003A002056004143206D697373696E672094
:100EF0002D204170706172656E7420506F7765723D
:100F00002063616C6320656E61626C65642C206196
:100F10007373756D696E672000414320707265734D
:100F2000656E74202D205265616C20506F7765725C
:100F30002063616C6320656E61626C65640020658E
:100F40006E61626C65642E0054656D7065726174CB
:100F5000757265206D6561737572656D656E74205F
:100F600069730053656E736F72206D6179206E6FC7
:100F7000742062652072656C6961626C6500200096
:100F800030002C2077697468206164647265737323
:100F900065732E2E2E0054656D70657261747572C6
:100FA000652053656E736F727320666F756E642073
:100FB0003D20000A0000080A400CFFC000C00000ED
:100FC00002010406030003003E2211241FBECFEFDE
:100FD000CDBFDFE7DEBF11E4A0E0B0E4E0E4FDE771
:100FE00000E00BBF02C007900D92A834B107D9F7FB
:100FF00026E4A8E4B1E401C01D92AD3AB207E1F7DE
:1010000017E0C5EED7E004C02197FE010E94663EBE
:10101000C43ED107C9F70E943D240C949E3EF0C8FF
:101020000000E0913C46F0913D468483838187FF38
:10103000FDCF84810895893260F590E0FC01EF5185
:10104000FF4BE081EF3F29F188549F4BDC018C91ED
:1010500090E0DC01AA0FBB1FA05BBF4B2D913C9120
:1010600021153105B1F04E2F50E0440F551F240FCC
:10107000351FD9016D937C93E05FA5E0880F991F20
:10108000AA95E1F7E80FF0E0FC5F8081887F82603D
:1010900080830895CF93DF93282F30E09FEF89322C
:1010A00020F5E901C157DF4B98819F3FE9F0F90135
:1010B000E854FF4BA08140E2A49FD0011124BC5F03
:1010C000F901EF51FF4BE081E830C0F5AD01405F21
:1010D0005F4FE40FF52FF11D4FB7F89412969C93D4
:1010E0009081977F90834FBF98819093D6458932A6
:1010F00040F528543F4BF9018081F4E08F9FC001F7
:1011000011248093D7459093D8451092E1451092D1
:10111000E3451092E2451092E0451092DF451092AF
:10112000DE451092DD451092DC451092DB451092B1
:10113000DA451092D945DF91CF910895F0E0E0E0D3
:10114000CBCF8CEF93E0DDCF9091D645E091D745A2
:10115000F091D845292F209580FF15C0F894818102
:10116000822381838081892B808380E58A95F1F7B2
:101170008181982B91837894A9E4B1E01197F1F7DC
:1011800000C000000895F8948181822381838081CA
:10119000892B8083A5E8B1E01197F1F700C000002A
:1011A0008181982B91837894B8E2BA95F1F70895EC
:1011B0008091D645E091D745F091D845F89490813B
:1011C000982B90832181382F30952323218398E118
:1011D0009A95F1F790819323908390E59A95F1F792
:1011E00092817894EDE3F1E03197F1F700C00000CF
:1011F000982381E009F480E00895FF920F931F93F4
:10120000CF93DF93F82E062FC8E0D0E011E081E005
:101210009F2D912309F480E097DF110F2197B9F7F3
:10122000011116C0F894E091D745F091D84590810E
:101230008091D645809589238083E091D745F091B0
:10124000D84591818091D645809589238183789472
:10125000DF91CF911F910F91FF9008958091D64516
:10126000E091D745F091D845F8949081282F2095AA
:101270009223908378943DE7315059F190E19A950B
:10128000F1F792819823C1F3F8949181922391838D
:101290009081982B90837894AFE3BBE01197F1F79E
:1012A00000C00000F894908192239083A3EAB1E0FB
:1012B0001197F1F700C000009281982381E009F0B6
:1012C00080E07894EBE9F9E03197F1F700C0000095
:1012D000089580E00895AF92BF92CF92DF92EF928F
:1012E000FF920F931F93CF93DF936C017B018B01D0
:1012F000040F151FEB015E01AE18BF08C017D10720
:1013000059F06991D601ED91FC910190F081E02DA9
:10131000C6010995892B79F7C501DF91CF911F91FE
:101320000F91FF90EF90DF90CF90BF90AF90089516
:10133000FC0155894689252F30E0842F90E0821BDF
:10134000930B541710F0CF96089501970895FC0160
:1013500093898489981761F0A489AE0FBF2FB11DBE
:1013600057968C9194899F5F9F73948B90E008951A
:101370008FEF9FEF0895FC0193898489981731F0CE
:101380008489E80FF11D878990E008958FEF9FEF22
:101390000895FC0193892489892F90E0805C9F4FF8
:1013A000821B91098F7399270895CF93DF93EC01E6
:1013B000E881F9810680F781E02D0995EC85FD85AE
:1013C000868116828581158280E484838C898B8B4B
:1013D0001A8ADF91CF9108958F929F92AF92BF9218
:1013E000FF920F931F93CF93DF938C014A015B0110
:1013F000D22FC32FDC0152968C91529780FF07C0E9
:10140000ED91FC910288F389E02DC8010995D11175
:1014100001C0D3E0FD2EE894F2F8DC2FD095D07C0B
:10142000B1E68B16B3EE9B06B6E1AB06B10428F02D
:10143000D260B694A7949794879460E078ED88EB97
:1014400095E0A50194010E940E3CC90120343105AC
:1014500010F480E490E03C2F3B72D7FD30684D2FB4
:10146000487C30FD41605FB7F894D8011C96ED913F
:10147000FC911682F7828087918735FF8FC04F7766
:1014800081E084878FEF85873F7D3583D683F801A0
:101490002189C08986859785FC0133E0239FE00D73
:1014A000F11D1124659174912C1708F059C0272F54
:1014B00046FF76C0793288F430E0F901E157FF4BFE
:1014C000A081AF3F51F028543F4BF901308120E219
:1014D000329FF0011124FC5FA18347FF2AC021E065
:1014E000270F293230F530E0F901E157FF4BD08169
:1014F000DF3FF9F0F901E854FF4BA081F0E2AF9F24
:10150000D0011124BC5F2F513F4BF9011081F0E055
:10151000E0E0183030F49D01205F3F4FF901E10F0A
:10152000F11D3FB7F8941296DC9320812860208348
:101530003FBF40FF15C023E0270F293288F430E079
:10154000F901E157FF4B40814F3F51F028543F4B89
:10155000D901EC91B0E2EB9FF0011124FC5F4183D3
:10156000FC0123E0C29FE00DF11D1124319625916D
:101570003491F901FF27EE51FA4F9081832F809526
:101580008923682B60835FBFDF91CF911F910F91FB
:10159000FF90BF90AF909F908F900895148674CF66
:1015A000342F307509F499CF793208F096CF30E0B6
:1015B000F901E157FF4BD081DF3F09F48ECFF901EC
:1015C000E854FF4BA081E0E2AE9FD0011124BC5F44
:1015D0002F513F4BF9011081F0E0E0E0183030F47A
:1015E0009D01205F3F4FF901E10FF11D3FB7F894D6
:1015F0001296DC932081286020833FBF6ECFFC01D0
:101600000FB607FE04C0809111018823A9F0A485BC
:10161000B58514968C91149785FF0EC0958986899F
:10162000981739F015968C9115978F7D15968C9398
:101630000895E8940C94121C08950F931F93CF9370
:10164000DF93EC018A89982F91609A8B2D899E896E
:1016500029130AC0EC85FD85948195FF05C081FDA5
:101660000DC080E4848312C0062F1D891F5F1F7385
:101670008E89811315C0CE01C2DFFACF85818F77A5
:10168000806490E49483EC85FD858583EC85FD85FD
:10169000628381E090E0DF91CF911F910F910895D7
:1016A000ED89EC0FFD2FF11DE95AFF4F00831D8BD3
:1016B000EC85FD858A8981FF09C085818F778066E9
:1016C00090E49483EC85FD858583E3CF85818062FA
:1016D000FBCF682F88EA94E4B0CFEF92FF920F938C
:1016E0001F93CF93DF938C017B01D0E0C0E0F70123
:1016F000EC0FFD1F6491662331F0C8019EDF892B3A
:1017000011F02196F4CFCE01DF91CF911F910F916F
:10171000FF90EF900895CF93DF93EC018A8980FFCB
:101720000BC0EC85FD85858185FD03C0848186FD28
:1017300003C0CE0164DFF5CFDF91CF91089581E042
:1017400008959FB7F894E0912A0BF0912B0B8091AC
:10175000260B20918D4230918E4240918F425091C4
:1017600090429FBF80FF08C0EC3E8CE2F80720F457
:101770002F5F3F4F4F4F5F4F0F0116940794169402
:1017800007941694079416940794F00116940794FE
:10179000E00DF11D16940794102C16940118169460
:1017A000010C169401181694010C16940118169445
:1017B0001694010C1124E019F109A8EEB3E00E947F
:1017C000FE3B6E0F7F1F811D911D08958F929F928A
:1017D000AF92BF92CF92DF92EF92FF926B017C01AA
:1017E000B0DF4B015C01C114D104E104F104B1F09C
:1017F000A8DF681979098A099B09683E7340810549
:10180000910588F321E0C21AD108E108F10888EEB9
:10181000880E83E0981EA11CB11CE5CFFF90EF90CD
:10182000DF90CF90BF90AF909F908F9008952FB78B
:10183000F89460918D4270918E4280918F42909188
:1018400090422FBF08950F931F93CF93DF93EC0126
:10185000EEDF6093B0447093B1448093B2449093B0
:10186000B34488EA94E473DD97FF21C0E0DF009180
:10187000B0441091B1442091B2443091B344601B04
:10188000710B820B930B0091AC441091AD442091ED
:10189000AE443091AF44601771078207930708F395
:1018A00090E080E0DF91CF911F910F9108958883A0
:1018B00081E090E0F7CF0F931F93B9DF6093B044BE
:1018C0007093B1448093B2449093B34488EA94E413
:1018D00052DD97FF1CC0ABDF0091B0441091B144C2
:1018E0002091B2443091B344601B710B820B930B77
:1018F0000091AC441091AD442091AE443091AF447E
:10190000601771078207930708F38FEF9FEF1F910E
:101910000F910895CF92DF92EF92FF92CF93CBDF9A
:10192000FC0197FD4BC08D32910521F0C0970A97BD
:1019300008F03EC0C12CD12C7601C0E0E130F105A9
:10194000D1F0ED32F105C1F1CF01C0970A9798F4BB
:10195000AAE0B0E0A70196010E94FE3B6F01FF0FD5
:10196000EE08FF08C60ED71EE81EF91E80E3C81A4F
:10197000D108E108F10888EA94E4E9DC9CDFFC0185
:10198000C0970A97D8F2E130F105C1F2CC2341F0BB
:10199000F094E094D094C094C11CD11CE11CF11CC3
:1019A000C701B601CF91FF90EF90DF90CF900895DF
:1019B00088EA94E4CCDCB3CFC1E0DDCFC12CD12CDC
:1019C0007601EECFCF92DF92EF92FF920F931F93AB
:1019D000CF93DF93082F10E096E1899FE001112457
:1019E000C851DA4B8E819F81A885B985892B8A2BB6
:1019F0008B2B99F11CDFCA88DB88EC88FD886C1979
:101A00007D098E099F09CE80DF80E884F984C6169F
:101A1000D706E806F90658F48E859F85A889B98906
:101A20000196A11DB11D8E879F87A88BB98BFFDE04
:101A300026E1209FF001219FF00D1124E851FA4B7F
:101A4000628B738B848B958BDF91CF911F910F915C
:101A5000FF90EF90DF90CF9008958E859F85A889A5
:101A6000B9890196A11DB11D8E879F87A88BB98B5F
:101A7000EBCF80E0A7CF81E0A5CFCF92DF92EF92AE
:101A8000FF920F931F93CF93DF9380911A4090E0C2
:101A900025E0959587952A95E1F780959095837037
:101AA0009927C0EFD2E002C0D595C7958A95E2F795
:101AB0002091444030914540DE010E94753E28E16E
:101AC0003CEF4FEF5FEF0E94E23B8091AF4190917E
:101AD000B0410197280F391F2093B1413093B24193
:101AE00020E030E04AE754E46091284070912940BA
:101AF00080912A4090912B400E942B3B0E94143DE4
:101B00008E01DD0F220B330B6B017C01C01AD10A51
:101B1000E20AF30AA7019601A8EEB3E00E94FE3B99
:101B200068587341810991092091184030911940FA
:101B3000032E000C440B550B0E940E3C2093AB412E
:101B40003093AC414093AD415093AE41DF91CF9182
:101B50001F910F91FF90EF90DF90CF900895EF923B
:101B6000FF920F931F93CF93DF93E091A941CE2F64
:101B7000D0E07E01EE0CFF1CEE0CFF1CD701A45D33
:101B8000BF4B4D935D936D937C931397B70160505A
:101B9000704CDB010D931D932D933C9313979E0185
:101BA0002B543C4B91E0D9019C93A82FB0E0A2505C
:101BB000BC4BEC93EF5FE093A941F0E0E45EFF4B98
:101BC0008083DF91CF911F910F91FF90EF90089547
:101BD000DC01ED91FC91F170FC5E80810895CF9263
:101BE000DF92EF92FF920F931F93CF93DF9300D07A
:101BF000CDB7DEB76C017C0103E010E009831A83E6
:101C0000CE010196E5DFF70181937F010F5F1F4F42
:101C10000730110599F7C6010F900F90DF91CF9112
:101C20001F910F91FF90EF90DF90CF9008950F9349
:101C30001F93CF93DF9300D000D0CDB7DEB78C01D8
:101C400019821A82CE010196C3DF8F34F9F481E044
:101C500090E089839A83CE010196BADF8534B1F48E
:101C600082E090E089839A83CE010196B1DF8D34C2
:101C700069F481E00115110551F0CE010196AFDF45
:101C800081E02B813C812017310709F080E0249608
:101C9000CDBFDEBFDF91CF911F910F9108951F93AC
:101CA000CF93DF93EC01162F93DF8117B1F09FB72D
:101CB00080910210282F227081FDFACFF8948DE9CF
:101CC00084BF2093001023E184BF20930010E8819B
:101CD000F981F170FC5E10839FBFCE01DF91CF913F
:101CE0001F910895CF92DF92EF92FF920F931F936F
:101CF000CF93DF9300D0CDB7DEB76C017C0103E05A
:101D000010E009831A83F70161917F01CE010196EA
:101D1000C6DF0F5F1F4F0730110599F7C6010F90FF
:101D20000F90DF91CF911F910F91FF90EF90DF9077
:101D3000CF9008950F931F93CF93DF9300D0CDB72B
:101D4000DEB7009138461091394680913A4690911D
:101D50003B46081719079CF4C801957189839A833B
:101D60006FEFCE0101969BDF1092344610923546FC
:101D70008091324690913346080F191FE6CF0F909D
:101D80000F90DF91CF911F910F910895DC01ED919C
:101D9000FC910088F189E02D23E030E00994FB01FB
:101DA00001900020E9F73197AF01461B570B93CA0A
:101DB0006115710509F0F3CF90E080E008958F92EE
:101DC0009F92AF92BF92EF92FF920F931F93CF9388
:101DD000DF93CDB7DEB7A197CDBFDEBF7C01FA019F
:101DE000CB0119A2223008F42AE08E010F5D1F4FAB
:101DF000822E912CB12CA12CBF01A50194010E942F
:101E00000E3CF901CA016A30CCF4605DD8016E93D2
:101E10008D01232B242B252B79F7BD01C701C8DFAA
:101E2000A196CDBFDEBFDF91CF911F910F91FF90A3
:101E3000EF90BF90AF909F908F900895695CE6CF30
:101E400064E271E4ACCF0F931F93CF93DF93EC0167
:101E500044DC8C01CE01F4DF800F911FDF91CF9124
:101E60001F910F910895CF92DF92EF92FF92CF933F
:101E7000DF93AB01BC0177FF19C06A017C018DE2E1
:101E800028DCEC0144275527BA014C195D096E097D
:101E90007F092AE088EA94E492DF8C0F9D1FDF918E
:101EA000CF91FF90EF90DF90CF9008952AE088EADD
:101EB00094E4DF91CF91FF90EF90DF90CF907FCFB0
:101EC000BC01990F880B990BCECFCF93DF93F8DF2E
:101ED000EC0188EA94E4B4DF8C0F9D1FDF91CF9171
:101EE00008954F925F926F927F928F929F92AF92DE
:101EF000BF92CF92DF92EF92FF920F931F93CF93F7
:101F00006B017C01742EAC019B010E94173E67E2BD
:101F100071E4811126C046015701E894B7F82FEF0C
:101F20003FEF4FE75FE7C501B4010E94173E811103
:101F30000CC02FEF3FEF4FE75FE7C501B4010E94F0
:101F4000C63A6BE271E4181664F02FEF3FEF4FE7EB
:101F50005FE4C701B6010E94CB3D1816A4F46FE2FE
:101F600071E488EA94E4CF911F910F91FF90EF9074
:101F7000DF90CF90BF90AF909F908F907F906F90A9
:101F80005F904F900CCF2FEF3FEF4FE75FECC70113
:101F9000B6010E94C63A87FDE2CF20E030E0A901F9
:101FA000C701B6010E94C63A10E000E087FF07C0F3
:101FB0008DE28FDB8C01F7FAF094F7F8F094C0E033
:101FC00060E070E080E09FE37C1641F020E030E0CC
:101FD00040E251E40E94A73CCF5FF6CFA7019601F3
:101FE0000E94403C2B013C010E94143D4B015C01CE
:101FF0002AE0BC01A40188EA94E4E1DE7C01E00E61
:10200000F11ECC23C9F1C501B4010E94CA3A9B015B
:10201000AC01C301B2010E943F3C4B015C0163E390
:1020200071E488EA94E4BBDEE80EF91EC15020F1A9
:1020300020E030E040E251E4C501B4010E942B3BB6
:102040002B013C010E94143D4B01B12CA12C2AE034
:10205000B501A40188EA94E4B2DEE80EF91EC501D8
:10206000B4010E94CA3A9B01AC01C301B2010E94B3
:102070003F3C4B015C01DACFC701CF911F910F911B
:10208000FF90EF90DF90CF90BF90AF909F908F9098
:102090007F906F905F904F900895CF93DF9321DFF3
:1020A000EC0188EA94E4CCDE8C0F9D1FDF91CF9188
:1020B000089517CFAF92BF92CF92DF92EF92FF9227
:1020C0000F931F93CF93DF9300D0CDB7DEB76C0192
:1020D0005B0110E000E00A151B05BCF57801EC0C73
:1020E000FD1C85E1F822E982FA82CE01019670DDBD
:1020F000803110F480E3EDDA0F5F1F4FE982FA823E
:10210000CE01019665DD482F50E070E060E020E1EF
:1021100088EA94E454DE6DE371E488EA94E43FDEF7
:10212000C80187709927892B29F46DE371E488EA47
:1021300094E435DEC8018F709927892B61F663EB33
:102140007FE088EA94E4C9DAC6CF0F900F90DF9160
:10215000CF911F910F91FF90EF90DF90CF90BF90A4
:10216000AF900895CF92DF92EF92FF920F931F935B
:10217000CF93DF9366E97FE08FE395E4AEDA409199
:10218000A74450E070E060E02AE08FE395E417DEBA
:102190006AE371E48FE395E402DE40915E4050E033
:1021A00070E060E02AE08FE395E409DE8091A744C7
:1021B000882309F453C062E87FE08FE395E443DEAF
:1021C00010E000E08091A7448017110609F00CF49C
:1021D00045C0680183E0CC0CDD1C8A95E1F7F12C49
:1021E000E12CC091A544D091A644CC0DDD1DCE0DAF
:1021F000DF1D8881803128F460E87FE08FE395E47B
:102200006CDA488150E070E060E020E18FE395E413
:10221000D6DD6EE77FE08FE395E45FDA8FEFE81AB3
:10222000F80A88E0E816F104E1F6E091A544F0919F
:10223000A644EC0DFD1D8681833029F463E67FE022
:102240008FE395E44ADA8FE395E4FADD65E070E028
:1022500080E090E0BBDA0F5F1F4FB4CF8FE395E4CF
:10226000EFDD68E47FE08FE395E437DA8091A44402
:1022700065E371E4882311F066E271E48FE395E48D
:1022800097DD6EE37FE08FE395E4DDDD8FE395E49A
:10229000D7DD65E070E080E090E0DF91CF911F91A5
:1022A0000F91FF90EF90DF90CF9090CADF92EF9266
:1022B000FF920F931F93CF93DF932091E34521115A
:1022C00006C0E92ED82E0E942E0981110FC010924F
:1022D000E1451092E3451092E24580E0DF91CF9115
:1022E0001F910F91FF90EF90DF90089560E080EFD5
:1022F0000E94FD08D1E000E0F12CC1E00E94D80866
:10230000182F0E94D8081130E1F48130C9F5C1348A
:10231000F0F2F092E145F11003C081E08093E345D3
:102320008091D945882399F2A9EDB5E4ED2DFE2DD4
:10233000CF0108962D912193E817F907D9F781E08D
:10234000CDCFE02FF0E0181311C08091E145C81700
:10235000A8F4DF01AA52BA4B13968C918D2381F415
:1023600010E0C93010F4C093E245FC2EEA52FA4B5B
:1023700083819D2F9095892383830AC08C13F0CF8E
:10238000E02FF0E0EA52FA4B83818D2B838311E03A
:10239000812F0E94A408CF5FDD0F11F40F5FD1E001
:1023A000083008F4ABCFB3CF6DED74E088EA94E465
:1023B0004ADD67ED74E088EA94E48FD9809149465C
:1023C000813009F44CC1823009F44CC1833009F4E6
:1023D0004CC190E080E074DD6AEC74E088EA94E43B
:1023E0007CD940914A4650E070E060E02AE088EAFB
:1023F00094E4E5DC62EC74E088EA94E46ED98091C0
:102400004B468F7390E05CDD6FEB74E088EA94E4F8
:1024100064D980914D468251990B52DD6AEB74E08C
:1024200088EA94E410DD6DEA74E088EA94E40BDD58
:1024300065EA74E088EA94E450D960914E46709160
:102440004F46809150469091514642E050E025DE43
:1024500069E974E088EA94E440D960915246709149
:102460005346809154469091554642E050E015DE27
:1024700060E974E088EA94E430D960915A4670913A
:102480005B4680915C4690915D4642E050E005DEFF
:1024900066E874E088EA94E420D960915E46709121
:1024A0005F46809160469091614642E050E0F5DDE4
:1024B0006DE774E088EA94E410D960916246709107
:1024C0006346809164469091654642E050E0E5DDC8
:1024D00063E774E088EA94E400D9609166467091FD
:1024E0006746809168469091694642E050E0D5DDAC
:1024F0006AE674E088EA94E4F0D860916A467091E4
:102500006B4680916C4690916D4642E050E0C5DD8F
:1025100060E674E088EA94E4E0D860916E467091D9
:102520006F46809170469091714642E050E0B5DD73
:1025300067E574E088EA94E4D0D8609172467091BF
:102540007346809174469091754642E050E0A5DD57
:102550006DE474E088EA94E4C0D8609176467091A6
:102560007746809178469091794642E050E095DD3B
:1025700064E474E088EA94E4B0D860917A4670919B
:102580007B4680917C4690917D4642E050E085DD1F
:102590006AE374E088EA94E4A0D860917E46709182
:1025A0007F46809180469091814642E050E075DD03
:1025B00061E374E088EA94E490D860918246709177
:1025C0008346809184469091854642E050E065DDE7
:1025D00067E274E088EA94E480D86091864670915E
:1025E0008746809188469091894642E050E055DDCB
:1025F0006CE174E088EA94E470D860918A46709146
:102600008B4680918C4690918D4642E050E045DDAE
:1026100062E174E088EA94E460D880918E4690E0AC
:1026200054DC62E074E088EA94E457D880918F46E5
:10263000909190464ADC80914C4666EE73E0882388
:1026400011F06DEE73E088EA94E4FDDB63EF73E074
:1026500088EA94E442D88091914690E036CC81EBB0
:1026600091E0B9CE84E693E0B6CE83E993E0B3CEB1
:102670000F931F93CF93DF93893208F07CC090E0D3
:10268000DC01A157BF4B2C912F3F09F474C08C0182
:1026900008541F4BE801E881D0E2ED9FF0011124BE
:1026A000FC5F611133C0268330812323AC014F517D
:1026B0005F4B211111C0EA012881309749F1283080
:1026C00038F57096E20FF11D3FB7F8942081611143
:1026D00022C0277F20833FBFFA0130813F3F09F4AA
:1026E0004AC0E8012881363058F53091E605432F7D
:1026F0004770241312C0EC91E53008F0EE0F809182
:10270000010AE095E823E093010A35C02583CCCF88
:10271000F0E0E0E0D9CF2860DDCF387169F42130F6
:1027200079F4EC91E53008F0EE0F8091410AE095E4
:10273000E823E093410A1FC0383111F4263089F3B1
:102740008A599F4BFC01808185FF13C030E1839F34
:10275000F0011124F75F91819770973061F4EC914B
:10276000853270F4803298F48830E1F2803121F2C1
:1027700002C08111F4CFDF91CF911F910F91089585
:10278000803471F08038B9F71092A006F4CF90E150
:10279000899FF0011124F75F81818F7E8183EBCFC8
:1027A0008091920B8E2339F3C0E22C9F900111246B
:1027B0003C5FE83030F5205F3F4FE20FF32FF11D13
:1027C0004FB7F8949091800B9E7F9093800B9091DF
:1027D0008E0B90FFFCCF2091920B90E0809590950E
:1027E00030E08223932328ED24BF8093920B8091C5
:1027F000800B81608093800B80818F7780834FBFB7
:10280000BACFF0E0E0E0DCCF0F931F93CF93DF93DC
:10281000CDB7DEB72897CDBFDEBF2091A54430915C
:10282000A644232B31F02091934230919442232BE4
:1028300061F41092A4441092A7442896CDBFDEBF45
:10284000DF91CF911F910F910895182F80915F40D4
:102850000E944A081093A444112309F495C020E073
:1028600030E040E85FE3609128407091294080911A
:102870002A4090912B400E94C63A87FF03C08FE107
:1028800080931A4000911A4090915E40E0919342EB
:10289000F091944280E020E335E7981721F02193EE
:1028A00031938F5FFACF1092E1451092E345109279
:1028B000E2451092E0451092DF451092DE451092FD
:1028C000DD451092DC451092DB451092DA451092FE
:1028D000D9451092A744CE010196E8DC882349F03F
:1028E00089818832C1F78091A7448F5F8093A74484
:1028F000F2CF80915E409091A744891710F48093A5
:10290000A744E091A544F091A64480818832A1F0CB
:1029100010E08091A744181778F428E0129FC001B6
:1029200011242091A5443091A644820F931FBEDC50
:10293000882311F01F5FEDCF0E942E0960E08CEC20
:102940000E94FD0860E08EE40E94FD0860E080E0E7
:102950000E94FD0860E080E00E94FD0860E0802F9A
:102960000E94FD080E942E0960E08CEC0E94FD0888
:1029700061E088E40E94FD0864E170E080E090E09E
:102980000E94E60B7AD859CF8091274087FDFACF75
:102990008932A4F4282F082E000C330BF901E157DB
:1029A000FF4B90819F3F51F028543F4BD901EC9150
:1029B000B0E2EB9FF0011124FC5F918360E058DEF0
:1029C000809127408932F0F690E0FC01E157FF4BFF
:1029D00020812F3FB9F2FC01E854FF4BA081E0E2D7
:1029E000AE9FD0011124BC5F8F519F4BFC01308101
:1029F000F0E0E0E0383028F4CD014096FC01E30F30
:102A0000F11D9FB7F89412962C938081877F808365
:102A10009FBFB8CFF894ECE3F6E4A081B1811196A2
:102A20008C9111978C7F11968C93A081B1818C91A0
:102A30008F7B8C930190F081E02D8081808360E01A
:102A40008DE016CECF93C82FE5DF8C2F0E941008A3
:102A500080E00E941008C82F61E08DE009DE7894C4
:102A60008C2FCF910895CF93DF93D82FC62FD2DF2D
:102A70008D2F80680E9410088C2F0E94100861E042
:102A80008DE0F6DD7894DF91CF9108950F931F9339
:102A9000CF93DF93CDB7DEB72C97CDBFDEBF681BDA
:102AA000F1F0062F10E0682F70E06C597B4BA80105
:102AB000CE0101960E948F3EE1E0F0E0EC0FFD1F99
:102AC000E00FF11F1082CE0101960E942C392C9646
:102AD000CDBFDEBFDF91CF911F910F91089590E0A0
:102AE00080E0F5CF0F931F93CF93DF93CDB7DEB781
:102AF0002C97CDBFDEBF681BF1F0062F10E0682FCA
:102B000070E06C597B4BA801CE0101960E948F3E6C
:102B1000E1E0F0E0EC0FFD1FE00FF11F1082CE01AD
:102B200001960E9429392C96CDBFDEBFDF91CF914F
:102B30001F910F91089560E070E0CB01F4CF4F92A8
:102B40005F926F927F928F929F92AF92BF92CF923D
:102B5000DF92EF92FF92CF93DF93C82FE09018405F
:102B6000F0901940609144407091454090E080E0C1
:102B70000E94CA3A2B013C0180914A4090914B40FF
:102B800001968E9DB0018F9D700D9E9D700D11243C
:102B9000072E000C880B990B0E94CC3A2BED3FE0DE
:102BA00049EC50E40E942B3BA30192010E942B3B75
:102BB00020E034E244E759E40E94A73C4B015C0169
:102BC000D0E0CE0101968E9DB0018F9D700D9E9D2F
:102BD000700D1124072E000C880B990B0E94CC3A23
:102BE000A30192010E942B3B20E034E244E759E428
:102BF0000E94A73C6B017C01CC0FDD1FCC0FDD1FB9
:102C0000FE01E050F04C20E030E044EB53E4608102
:102C10007181828193810E94A73C9B01AC01C70115
:102C2000B6010E94403C2BED3FE049EC50E40E948D
:102C30002B3B2B013C010E94CF3D6B017C01C50168
:102C4000B4010E94CF3D9B01AC01C701B6010E94B7
:102C5000A73C6B017C01FE01E355FD4BC082D18294
:102C6000E282F382C301B2010E94A43C2B013C0129
:102C7000C501B4010E94A43C9B01AC01CB53DD4BC8
:102C8000C701B6010E942B3B9B01AC01C301B201FD
:102C90000E943F3C688379838A839B83DF91CF9135
:102CA000FF90EF90DF90CF90BF90AF909F908F906C
:102CB0007F906F905F904F900895CF9380934440A2
:102CC00090934540BC0190E080E00E94CA3A209178
:102CD00028403091294040912A4050912B400E9439
:102CE0002B3B0E94143D6093AF417093B0410E9412
:102CF0003D0DC0E080914A4090914B40C8171906A5
:102D000024F48C2F1CDFCF5FF5CFCF9108954F9225
:102D10005F926F927F92AF92BF92CF92DF92EF92CB
:102D2000FF920F931F93CF93DF93E82FCB01BA014C
:102D300068017901F0E0E250FC4B108124E0129F21
:102D4000E0011124FE01E45DFF4B5F01209123406F
:102D50003091244040912540509126400E942B3BC9
:102D60002B013C016091E6457091E74590E080E0E1
:102D70000E94CA3A9B01AC01C301B2010E94A73C68
:102D8000F5016083718382839383C050D04CC882E5
:102D9000D982EA82FB82812FDF91CF911F910F911F
:102DA000FF90EF90DF90CF90BF90AF907F906F90AB
:102DB0005F904F90C4CE2F923F924F925F926F924E
:102DC0007F928F929F92AF92BF92CF92DF92EF92BB
:102DD000FF920F931F93CF93DF93CDB7DEB7269764
:102DE000CDBFDEBF84E08093210461E08AE040DC57
:102DF0009FB7F89480E18093020480911404886066
:102E0000809314049FBF9FB7F89480E280930204DC
:102E1000809115048860809315049FBF40E052ECB8
:102E200061E070E088EA94E40E94C60E8091080494
:102E300084FD05C080914B468F5F80934B4662ECCA
:102E400073E088EA94E40E946D0B6FE371E488EA12
:102E500094E40E94D80E6CEA73E088EA94E40E943D
:102E6000230F85E190E00E94170E882341F1CE01E7
:102E700001960E94EF0D09811A8117FD20C068019B
:102E800023E0C20ED11C39E4E32E36E4F32E87E0B2
:102E900090E05C013FEFA31AB30A8D839E83CE01BD
:102EA00005960E94E80DF70181937F01C501AC14DE
:102EB000BD0478F36EE573E00430110511F46DE4A0
:102EC00073E088EA94E40E94230F6EDA80914C4606
:102ED000882309F450C063EA73E088EA94E40E940E
:102EE0006D0B6BE973E088EA94E40E946D0B8091AE
:102EF0004946813031F464E973E088EA94E40E9441
:102F00006D0B80914946823031F46DE873E088EAB8
:102F100094E40E946D0B80914946833031F466E859
:102F200073E088EA94E40E946D0B6DE773E088EA31
:102F300094E40E946D0B40914A4650E070E060E0DE
:102F40002AE088EA94E40E94DF0E65E773E088EAED
:102F500094E40E946D0B40914B4650E070E060E0BD
:102F60002AE088EA94E40E94DF0E63E773E088EACF
:102F700094E40E94230F8091080485FD03C081E042
:102F80008093A84180914C46882309F4F5C061E004
:102F90008DE06EDB80E280932104809143468111B5
:102FA00018C0109242468EE080933F4680E18093A5
:102FB000404680E699E080933C4690933D461092CF
:102FC00044461092464680E88093454681E08093CF
:102FD0004346A0913C46B0913D4690914246809137
:102FE000E405A034F9E0BF0709F026C28C7F892BE5
:102FF0008093E40580914046893288F490E0FC019A
:10300000E157FF4B20812F3F51F088549F4BFC012B
:10301000908130E2939FF0011124FC5F2183809125
:103020003F46893288F490E0FC01E157FF4B208154
:103030002F3F51F088549F4BFC01908130E2939FC9
:10304000F0011124FC5F218311968C91119784600B
:1030500011968C93E0913C46F0913D4680818162CF
:1030600080839091474680914846E0913C46F0919C
:103070003D469083E0913C46F0913D468183E0914E
:103080003C46F0913D4680818F7B8083E0913C46B9
:10309000F0913D4681818C7F8183E0913C46F091A7
:1030A0003D46808180836AEA8FE2DDDC8FE2CADC04
:1030B0008A3AC9F765E58FE2D6DC8FE2C3DC853555
:1030C000C9F764E081E0CFDC60E082E0CCDC62E064
:1030D00083E0C9DC6AE884E0C6DC62E085E0C3DC4A
:1030E00061EE86E0C0DC60E28BE0BDDC6AE489E191
:1030F000BADC62E48AE1B7DC69E981E1B4DC6CE264
:103100008EE1B1DC60E885E2AEDC67E086E2ABDC54
:1031100068EC89E2A8DC65E08DE2A5DC68E88EE277
:10312000A2DC6DE28FE29FDC60ED87E39CDC62E471
:1031300088E399DC6FE88CE396DC62E18DE393DC55
:1031400060E28FE690DC62E081E78DDC20914B4607
:1031500084E1289F8001112460E070E0CB0101151B
:10316000110541F00E94D4389801110F440B550B02
:103170000E94E23B0E94E60B60E08AE079DA8CE094
:1031800090E080936040909361408DE190E0809367
:1031900018409093194080E090E18093E645909329
:1031A000E74580E890E08093E4459093E5458FE61D
:1031B00092E1A3E8BFE38093234090932440A0933F
:1031C0002540B093264080914E4690914F46A09165
:1031D0005046B091514610921C40809346409093C7
:1031E0004740A0934840B093494000915E461091FB
:1031F0005F46209160463091614640915A46509119
:103200005B4660915C4670915D4683E00E94AF0D25
:103210000091664610916746209168463091694654
:103220004091624650916346609164467091654654
:1032300084E00E94AF0D00916E4610916F46209180
:1032400070463091714640916A4650916B4660914C
:103250006C4670916D4685E00E94AF0D00917646F8
:103260001091774620917846309179464091724688
:1032700050917346609174467091754686E00E9445
:10328000AF0D00917E4610917F462091804630918F
:10329000814640917A4650917B4660917C46709180
:1032A0007D4688E00E94AF0D0091864610918746CA
:1032B00020918846309189464091824650918346BC
:1032C000609184467091854689E00E94AF0D80919F
:1032D000A841882319F08CE390E0EFDCC0908A4687
:1032E000D0908B46E0908C46F0908D46C09228405E
:1032F000D0922940E0922A40F0922B4060914440C5
:103300007091454090E080E00E94CA3AA701960182
:103310000E942B3B0E94143D6093AF417093B041DB
:1033200020E034E244E759E4C701B6010E942B3B98
:1033300020E030E048EE51E40E94A73C0E94143D9A
:103340006093DD427093DE428093DF429093E042CF
:103350000E943D0D8091524690915346A091544653
:10336000B091554680934C4090934D40A0934E4071
:10337000B0934F4080918E468093E84581E08093E2
:10338000E94586E08093EC458093ED4580918F463A
:1033900090919046092E000CAA0BBB0B8093EE4532
:1033A0009093EF45A093F045B093F1458CE0809366
:1033B0005F408BE08093274088E08093210461E0A8
:1033C0008BE056D98FE580931A4082E996E480938A
:1033D000A5449093A644109292468AE294E4809386
:1033E00093429093944283E080935E40E090344611
:1033F000F0903546E114F10409F4A2C087010F5F93
:103400001F4F24E1C22E26E4D22E809132469091A5
:1034100033468E0D9F1D0817190784F4C801957156
:1034200089839A83CE0101960E94E80DF60181936B
:103430006F010F5F1F4FE9CF837FD9CD00911446F5
:1034400010911546209116463091174680911846E6
:1034500090911946A0911A46B0911B4640901C4687
:1034600050901D4660901E4670901F4680902046EA
:1034700090902146A0902246B0902346209024466A
:1034800030902546F0912646E0912746C090284688
:10349000D0902946E0902A46F0902B46722D632D5D
:1034A000AF010093C9431093CA432093CB43309399
:1034B000CC438093CD439093CE43A093CF43B0931E
:1034C000D0434092D1435092D2436092D343709202
:1034D000D4438092D5439092D643A092D743B092E2
:1034E000D8432092D9433092DA43F093DB43E09300
:1034F000DC43C092DD43D092DE43E092DF43F092A2
:10350000E0437093F2456093F3455093F445409344
:10351000F5458091914678D98091A941882341F160
:10352000282F30E020934A4030934B408F5F90E04B
:103530008630F0F4FC01EB54FC4B10820196F8CF7E
:1035400000E010E0980180E090E0DC01412C512C7B
:103550003201812C912C5401212C312CF0E0E0E03F
:10356000C12CD12C760170E060E050E040E099CFB2
:103570004090234050902440609025407090264019
:103580006091E6457091E74590E080E00E94CA3A7C
:103590004B015C01209146403091474040914840AA
:1035A00050914940C301B2010E942B3BA5019401F7
:1035B0000E94A73C609346407093474080934840E8
:1035C000909349408CE2E82E80E4F82E95E9C92ECC
:1035D00092E4D92E10E000E080914A4090914B4057
:1035E0000817190714F5F701219131914191519173
:1035F0007F011F01F4E02F1A3108C301B2010E94BC
:103600002B3BA50194010E94A73CF10160837183CB
:1036100082839383802F93DAF60111921192119293
:1036200011926F010F5F1F4FD7CF89E39DE0809309
:10363000EA459093EB458BE39DE0809300469093A1
:10364000014681E080931B4010928842109289428B
:1036500010928A4210928B429EE0909305069091C0
:103660000306909303061092B00096E09093020632
:1036700080930006909100069093000690910006BA
:103680009260909300061092080690910C0691604B
:1036900090930C0680930A067894C0902840D090AE
:1036A0002940E0902A40F0902B4060914440709176
:1036B000454090E080E00E94CA3AA70196010E942E
:1036C0002B3B0E94143D6093AF417093B041109228
:1036D000BB4320E034E244E759E4C701B6010E944D
:1036E0002B3B6B017C016091184070911940072EB3
:1036F000000C880B990B0E94CC3A9B01AC01C701CE
:10370000B6010E94A73C0E94143D6093DD42709375
:10371000DE428093DF429093E04208EE15E4F12C04
:10372000F80180818823A1F18481893228F590E015
:10373000FC01E157FF4B20812F3FF1F0FC01E854E1
:10374000FF4BA081F0E2AF9FD0011124BC5F8F51ED
:103750009F4BFC013081F0E0E0E0383028F4CD01EF
:103760004096FC01E30FF11D9FB7F89412962C933D
:103770008081886080839FBF6BE37DE080910346FA
:10378000F11004C069E37DE08091ED450E941B08C3
:103790000A5E1F4FF1E0FF1220C0109230441092D9
:1037A000314410923244109233440E94B210269653
:1037B000CDBFDEBFDF91CF911F910F91FF90EF90B2
:1037C000DF90CF90BF90AF909F908F907F906F9041
:1037D0005F904F903F902F900895FF24F394A0CFD7
:1037E000EF93FF93E8EAF4E415C0EF93FF93E8EA60
:1037F000F4E43FC0EF93E0E660C0EF93FF93EFE3A4
:10380000F5E408C0EF93FF93EFE3F5E432C0EF93E4
:10381000E0E053C02F932FB72F938F939F93AF93D5
:10382000BF936894CF93DF9320E0C485D8E0968956
:10383000DF01A90FB21FA95ABF4F8C9120E42C833E
:103840008A839F5F9F738D812589291302C08F7D95
:103850008D83968BDF91CF9116F00C941C0BBF914A
:10386000AF919F918F912F912FBF2F91FF91EF914A
:1038700018952F932FB72F938F939F93CF93DF9309
:10388000C485D8E08981988181FD0DC0C38981E01C
:103890008C0F8F732489281731F0CE0FDF2F20E093
:1038A000D21F9F8B838BDF91CF919F918F912F910F
:1038B0002FBF2F91FF91EF911895FF938F938FB7A3
:1038C0008F93F8E08081848187FFFCCF85818F7B97
:1038D000806885838F918FBF8F91FF91EF911895AD
:1038E0001F920F920FB60F9211248F939F93AF9355
:1038F000BF9380918D4290918E42A0918F42B09162
:1039000090420196A11DB11D80938D4290938E42ED
:10391000A0938F42B093904281E08093260BBF9199
:10392000AF919F918F910F900FBE0F901F901895A0
:103930000F930AE00FC00F9308E00CC00F9306E04E
:1039400009C00F9304E006C00F9302E003C00F9379
:1039500000E000C00F920FB60F920BB60F921F92AD
:103960001124FF921F932F933F934F935F936F9375
:103970007F938F939F93AF93BF93CF93DF93EF93F7
:10398000FF93A0E5B0E4A00FB11DCD91DC91000F35
:103990000D5FA02FB0E0FC90109761F01F2D1695E1
:1039A00018F041F02296FBCFE991F9913097B9F3E5
:1039B0000995F5CFA02FB0E0FC92FF91EF91DF9138
:1039C000CF91BF91AF919F918F917F916F915F91B7
:1039D0004F913F912F911F91FF901F900F900BBE21
:1039E0000F900FBE0F900F9118951F920F920FB668
:1039F0000F9211240BB60F922F923F924F925F922B
:103A00006F927F928F929F92AF92BF92CF92DF92EE
:103A1000EF92FF920F931F932F933F934F935F93D8
:103A20006F937F938F939F93AF93BF93CF93DF93C6
:103A3000EF93FF9381E080930D0640901006509025
:103A40001106C0918C42E2E0EC0F20914A40309187
:103A50004B40E217130621F01CF0E1E0EC0FE21BF3
:103A6000F0E0E45EFF4B80818093080680918842FD
:103A700090918942A0918A42B0918B420196A11DFA
:103A8000B11D8093884290938942A0938A42B0935B
:103A90008B42C1113DC480918642909187428093B0
:103AA0008442909385428091E6459091E7459695B2
:103AB0008795481A590A40928642509287428091CF
:103AC000824290918342AC01569547955695479511
:103AD000841B950BA20157FE04C0442755274419A7
:103AE0005509840F951F8093824290938342E09101
:103AF000E445F091E54541E0E817F90708F040E0BA
:103B00004093E143141415040CF08EC041E050E0E2
:103B10004093804250938142A0918042B091814273
:103B200040916A4250916B42A417B50709F481C0D5
:103B30006091AA416F5F6093AA416091AA4163308E
:103B400030F01092AA41A0936C42B0936D42609104
:103B5000B54161111092B54160906C4270906D4218
:103B6000E817F90708F06BC281E06816710409F0E4
:103B7000C2C14130510509F4C4C18091B341909153
:103B8000B44101968093B3419093B44140911B405E
:103B9000442309F471C00A9708F46EC010921B40C8
:103BA0001092B3411092B441CEE2D2E4AEEFB1E450
:103BB0006EEC71E446EB51E490E080E082179307ED
:103BC000DCF5188219821A821B821C821D821E82D9
:103BD0001F8228961C9211961C92119712961C9285
:103BE000129713961C92139714961C92149715967D
:103BF0001C92159716961C92169717961C9217975B
:103C00001896FB011082118212821382148215828F
:103C100016821782685F7F4FFA01119211921192FA
:103C20001192AF010196CACF109280421092814248
:103C300073CF1092AA4181CF1092724210927342B8
:103C4000109274421092754210927642109277420E
:103C5000109278421092794210926E4210926F4206
:103C6000109270421092714210927C4210927D42EA
:103C700010927E4210927F428091B3419091B44164
:103C80004091B1415091B2418417950739F4409168
:103C90001B40411103C041E04093BC434091AF4100
:103CA0005091B0418417950708F42BC180911B40B7
:103CB000811127C11092B3411092B441CEE2D2E4F7
:103CC000AEEFB1E41EEC212E11E4312E66EB71E46F
:103CD00050E040E0421753070CF09BC08880998069
:103CE000AA80BB80CC80DD80EE80FF802896CA0150
:103CF000E3E0880F991FEA95E1F78C010B571C4B05
:103D0000F80180829182A282B382C482D582E68247
:103D1000F7828C9011969C9011971296AC90129706
:103D20001396BC9013971496CC9014971596DC902C
:103D300015971696EC9016971796FC90179718966D
:103D40008C010B5A1C4BF80180829182A282B382B3
:103D5000C482D582E682F7828E0108501109F801EB
:103D600010821182128213821482158216821782A7
:103D70008D0108501109F8011082118212821382FC
:103D80001482158216821782F10180809180A280B0
:103D9000B380C480D580E680F780F8E02F0E311C18
:103DA0008C010B5D1C4BF80180829182A282B38250
:103DB000C482D582E682F782810108501109F80198
:103DC0001082118212821382148215821682178247
:103DD000FB0181909190A190B190BF0175016401A8
:103DE000FF0CCC08DC2C76018B509D4BFC018082B3
:103DF0009182A282B382C482C582C682C782CB016D
:103E00000497FC0110821182128213824F5F5F4F70
:103E100061CF80916E4290916F42A0917042B091BB
:103E20007142AC01BD01770F440B542FBA0180934E
:103E3000E1429093E242A093E342B093E442409384
:103E4000E5424093E6424093E7424093E842709156
:103E50007242609173425091744240917542309128
:103E60007642209177429091784280917942709386
:103E7000ED426093EE425093EF424093F042309314
:103E8000F1422093F2429093F3428093F4421092D5
:103E900072421092734210927442109275421092C4
:103EA00076421092774210927842109279421092A4
:103EB0006E4210926F421092704210927142809145
:103EC0007C4290917D42A0917E42B0917F4280934E
:103ED000E9429093EA42A093EB42B093EC421092F5
:103EE0007C4210927D4210927E4210927F4281E08D
:103EF0008093BB4306C0452B21F010927A4210926A
:103F00007B4280917C4290917D42A0917E42B09113
:103F10007F420196A11DB11D80937C4290937D420A
:103F2000A0937E42B0937F4280917A4290917B42EF
:103F3000019680937A4290937B429201D2010E9433
:103F40006F3E6B017C01FF0CCC08DC2C76019B01E1
:103F5000AC016C2D7C2D8C2D9C2DA0907242B090CC
:103F60007342C0907442D0907542E0907642F090D7
:103F7000774200917842109179420E947B3E2093D3
:103F800072423093734240937442509375426093EF
:103F90007642709377428093784290937942C2013F
:103FA000550CAA0BBB0B40916E4250916F42609131
:103FB000704270917142840F951FA61FB71F8093A6
:103FC0006E4290936F42A0937042B09371426092A0
:103FD0006A4270926B4280918C428F5F80938C42D8
:103FE00020914A4030914B408217130619F014F08B
:103FF00010928C42FF91EF91DF91CF91BF91AF91E1
:104000009F918F917F916F915F914F913F912F91F0
:104010001F910F91FF90EF90DF90CF90BF90AF90E6
:104020009F908F907F906F905F904F903F902F90D8
:104030000F900BBE0F900FBE0F901F9018954091E0
:1040400088425091894260918A4270918B4280915E
:10405000AB419091AC41A091AD41B091AE4184177C
:104060009507A607B70748F480919242811105C0D1
:1040700081E08093BC43809392424091884250916A
:10408000894260918A4270918B428091DD42909189
:10409000DE42A091DF42B091E04284179507A60767
:1040A000B70708F02ECF10928842109289421092E2
:1040B0008A4210928B4281E080931B401092B34160
:1040C0001092B441CEE2D2E41EEF212E11E4312E43
:1040D000EEECF1E466EB71E450E040E04217530788
:1040E0000CF0C5C0CA01A3E0880F991FAA95E1F79B
:1040F0008C010B571C4BD8011C9211961C921197E6
:1041000012961C92129713961C92139714961C9257
:10411000149715961C92159716961C92169717963B
:104120001C928C010B5A1C4BD8011C9211961C92AC
:10413000119712961C92129713961C92139714962D
:104140001C92149715961C92159716961C9216970A
:1041500017961C92188219821A821B821C821D8259
:104160001E821F822896D1011C9211961C921197D3
:1041700012961C92129713961C92139714961C92E7
:10418000149715961C92159716961C9216971796CB
:104190001C92B8E02B0E311C80809180A280B380ED
:1041A000C480D580E680F78038968C010B5D1C4B6F
:1041B000D8018C9211969C9211971296AC921297FC
:1041C0001396BC9213971496CC9214971596DC9282
:1041D00015971696EC9216971796FC927F01B8E009
:1041E000EB1AF108D7011C9211961C9211971296A6
:1041F0001C92129713961C92139714961C92149764
:1042000015961C92159716961C92169717961C9247
:10421000DB018D909D90AD90BD90BD017501640155
:10422000FF0CCC08DC2C76018B509D4BDC018C9272
:1042300011969C9211971296AC9212971396BC927B
:1042400013971496CC9214971596CC9215971696B0
:10425000CC9216971796CC92CB010497DC011D9255
:104260001D921D921C9213974F5F5F4F37CF709135
:104270007242609173425091744240917542309104
:104280007642209177429091784280917942709362
:10429000ED426093EE425093EF424093F0423093F0
:1042A000F1422093F2429093F3428093F4421092B1
:1042B00072421092734210927442109275421092A0
:1042C0007642109277421092784210927942809111
:1042D0006E4290916F42A0917042B0917142AC01D8
:1042E000BD01770F440B542FBA018093E1429093A4
:1042F000E242A093E342B093E4424093E54240930C
:10430000E6424093E7424093E842D1CD1082B0C0EC
:10431000D0E02C173D070CF45ECE2197FE01EB5444
:10432000FC4B1E01220C331CB6E04B16510474F3F7
:1043300081E080838091E6459091E7459695879549
:10434000F101E25AFD4B60807180681A790A4E01D2
:1043500033E0880C991C3A95E1F7F401E25DFD4BDE
:10436000A0918442B091854293010E946F3E6B01FF
:104370007C01FF0CCC08DC2C76019B01AC016C2D80
:104380007C2D8C2D9C2DA080B180C280D380E480B8
:10439000F580068117810E947B3E20833183428312
:1043A00053836483758386839783F401E250FE4BC5
:1043B000A0918642B091874293010E946F3E6B01AB
:1043C0007C01FF0CCC08DC2C76019B01AC016C2D30
:1043D0007C2D8C2D9C2DA080B180C280D380E48068
:1043E000F580068117810E947B3E208331834283C2
:1043F00053836483758386839783F401E253FE4B72
:104400009301D3010E946F3E6B017C01FF0CCC082D
:10441000DC2C76019B01AC016C2D7C2D8C2D9C2D10
:10442000A080B180C280D380E480F58006811781AE
:104430000E947B3E20833183428353836483758350
:1044400086839783CC0FDD1FCC0FDD1FCA54DE4B54
:10445000C301770CAA0BBB0B488159816A817B8110
:10446000840F951FA61FB71F88839983AA83BB83D8
:10447000F101E25AFD4B40825182ADCDCF92DF92E5
:10448000EF92FF920F931F93CF93DF9300D0CDB79E
:10449000DEB71092AA441092AB4448EE53E060E0BD
:1044A00070E04093AC445093AD446093AE4470933D
:1044B000AF442EE031E42093A8443093A94480E631
:1044C00098E08093B4449093B54485EB9FE080934B
:1044D000B6449093B74482E08093B8441092B944B4
:1044E0001092BA4410924145109242454093434580
:1044F00050934445609345457093464520933F450E
:104500003093404520E038E020934B4530934C45B4
:104510002EEB3FE020934D4530934E4580934F4521
:1045200010925045109251451092E8451092E9457D
:1045300033E03093EC4521E02093ED458EE690E0AA
:10454000A0E0B0E08093EE459093EF45A093F04556
:10455000B093F1451092F2451092F3451092F44554
:104560001092F5451092F6451092F7451092F845D5
:104570001092F9451092FE451092FF453093024685
:10458000209303468093044690930546A0930646E5
:10459000B0930746109208461092094610920A46B8
:1045A00010920B4610920C4610920D4610920E4639
:1045B00010920F4621E030E00090604002C0220FD0
:1045C000331F0A94E2F72093E6453093E74545E030
:1045D000369527954A95E1F72093E4453093E545D4
:1045E00080915F400E944A088EEF90E080933646AB
:1045F000909337468DE190E0809332469093334616
:104600008DE090E0809330469093314686E890E0CC
:1046100080933846909339468FEF91E080933A46E5
:1046200090933B46109234461092354656E8E52E5C
:10463000F12CE982FA82CE0101960E94E80D670111
:104640009DE1C90ED11C8F3F09F1E0923446F092F2
:1046500035468FEFC81681E0D80654F4C982DA8255
:10466000CE0101960E94E80D8F3F61F00E949A0EE4
:1046700040E05BE167EB70E080E08F5F863069F4DB
:1046800087E016C09DE1C90ED11CE3CF76018FEF04
:10469000C81681E0D80669F6EBCF769567955795F1
:1046A0004795413099E059079DE36907710528F75F
:1046B00094E090934846282F2095022F017010E037
:1046C00024E0000F111F2A95E1F721E08162802B81
:1046D0008093474640E459E040933C4650933D4622
:1046E00090933F4686E08093404610924246109257
:1046F00043462093494682ED80934A468FE080935B
:104700004B4620934C4689E180934D468AE097EFD3
:10471000A9E4B4E480934E4690934F46A09350464C
:10472000B093514680E090E0A0E7B3E48093524616
:1047300090935346A0935446B093554680E090E042
:10474000A8E4B2E48093564690935746A093584607
:10475000B093594686E696E2A6E9B3E480935A46BA
:1047600090935B46A0935C46B0935D468DEC9CECC9
:10477000ACE4B0E480935E4690935F46A0936046BD
:10478000B093614646E656E266E173E440936246C2
:104790005093634660936446709365468093664683
:1047A00090936746A0936846B093694641E75DE3FE
:1047B00060E772E440936A4650936B4660936C46A0
:1047C00070936D4680936E4690936F46A0937046AB
:1047D000B09371464093724650937346609374460B
:1047E000709375468093764690937746A09378466B
:1047F000B093794640937A4650937B4660937C46CB
:1048000070937D4680937E4690937F46A09380462A
:10481000B09381464093824650938346609384468A
:10482000709385468093864690938746A0938846EA
:10483000B09389468DEC9CECACE1B1E480938A4660
:1048400090938B46A0938C46B0938D4620938E46D2
:1048500084E690E080938F46909390462093914613
:104860001092AA460F900F90DF91CF911F910F9158
:10487000FF90EF90DF90CF900895CF93DF93CDB767
:10488000DEB7CC5BD109CDBFDEBF88ED94E284BF3B
:104890009093680021E02093030A8EEF8093260A0C
:1048A0008093270A9BE09093000A32E03093E6055C
:1048B0002093430A8093660A8093670A9093400A84
:1048C0009093E705E0E0FBE027E09EEF85E02183A1
:1048D0009487158680837096E0343BE0F307B9F740
:1048E0002FEF3FE02093AA0B3093AB0B90E890930F
:1048F000820B1092810B2BEF33E02093AE0B3093A1
:10490000AF0B91E79093800B809302069EE090930B
:10491000050690E690930306809300068091B00010
:10492000887F85608093B0008091B200887F856029
:104930008093B2008FED9EE280932C0B90932D0B11
:1049400081E08093250B1092210B83E08093200B54
:1049500078940E94DB16AE01465F5F4F4AAF5BAFB3
:1049600088EA94E40E94C909892B09F497C088EA6F
:1049700094E40E94A709D09091428A3009F044C57E
:10498000AD2DB0E0AC59BB4B1C92E0916444EF53A9
:10499000EC3308F07BC00E2E000CFF0BEE52FB4DEB
:1049A0000C94663EEB294625462546254625462598
:1049B000462546254625462546254625462546259F
:1049C000462546254625462546254625462546258F
:1049D000462546254625462546254625462546257F
:1049E000462546254625462546250E253925F52505
:1049F0000A2613262A264625FA27462545268E27E7
:104A00009727FA274625142846252A2859282B298E
:104A100046258D299929AF294625B62952E0D51278
:104A200035C085E694E40E942C39843071F481E02D
:104A30008093494681EB91E00E94600F6CE17EE03B
:104A400088EA94E40E94230F21C0883069F08930FD
:104A500029F01092494690E080E0EECF83E0809309
:104A6000494683E993E0E8CFD092494684E693E053
:104A7000E3CF62E0D6120AC085E694E40E942C39A6
:104A8000019709F0AFC081E08093AA4680E4A4E6D4
:104A9000B4E41D928A95E9F7109291428091BC434B
:104AA000882369F11092BC438091A444882339F192
:104AB0008091274087FD19C08932A4F4282F082E41
:104AC000000C330BF901E157FF4B90819F3F51F0F0
:104AD00028543F4BD901EC91B0E2EB9FF001112437
:104AE000FC5F918361E00E9438130E942E0960E010
:104AF0008CEC0E94FD0861E084E40E94FD08809136
:104B0000BB43882311F40C945E371092BB43F89496
:104B100020914A4030914B4090E080E0821793070B
:104B20000CF07FC4FC01EB54FC4B4081411158C098
:104B3000FC01B3E0EE0FFF1FBA95E1F7DF01AB57C1
:104B4000BC4B1C9211961C92119712961C921297B4
:104B500013961C92139714961C92149715961C92F8
:104B6000159716961C92169717961C92DF01AB5A52
:104B7000BC4B1C9211961C92119712961C92129784
:104B800013961C92139714961C92149715961C92C8
:104B9000159716961C92169717961C92DF01AB5D1F
:104BA000BC4B1C9211961C92119712961C92129754
:104BB00013961C92139714961C92149715961C9298
:104BC000159716961C92169717961C92EB50FD4B54
:104BD0001082118212821382148215821682178229
:104BE00001969CCF1092AA4651CF85E694E40E948C
:104BF00029396B017C016BE07EE088EA94E40E9435
:104C00006D0B42E050E0C701B6010E94591068E008
:104C10007EE016CF8AE08C9365E674E488EA94E43B
:104C20000E94D80E33CF73E0D71230CF85E694E4DC
:104C30000E9429390E940F3D6B01CB010E945D1635
:104C400061E07EE088EA94E40E946D0BC6010E9458
:104C5000650F1CCF85E694E40E942C3980934A4668
:104C60006AEF7DE088EA94E40E946D0B40914A4629
:104C700050E070E060E02AE088EA94E40E94DF0EF1
:104C800088EA94E40E94200F01CF60E270E084E69D
:104C900094E40E94843E009711F40C9477388C01C0
:104CA00004561444C801992760E270E08B599B4B6D
:104CB0000E94843ECC24C394C00E009711F40C943F
:104CC0007E38DC01A456B4445D01602F81E00E946F
:104CD00046157C016A2D8C2D0E9472152B013C011A
:104CE0006D2D81E08A0D0E9472156CAF7DAF8EAF85
:104CF0009FAFB7E0EB16F10408F038C0F701ED57AD
:104D0000F94D0C94663E8A26DA26F82616273427B3
:104D10005227702720912340309124404091254014
:104D200050912640C301B2010E942B3B4B015C0114
:104D30006091E6457091E74590E080E00E94CA3AB4
:104D40009B01AC01C501B4010E94A73C60934640A1
:104D500070934740809348409093494040924E461C
:104D600050924F46609250467092514663EF7DE0FC
:104D700088EA94E40E946D0BC7010E94600F61EF06
:104D80007DE088EA94E40E946D0B42E050E0C301AC
:104D9000B2010E9459106FEE7DE088EA94E40E940F
:104DA0006D0B42E050E06CAD7DAD8EAD9FAD0E94CD
:104DB0004D106CCE0CAD1DAD2EAD3FADB301A201BB
:104DC00083E00E94871640925A4650925B4660925A
:104DD0005C4670925D468CAC9DACAEACBFAC809234
:104DE0005E4690925F46A0926046B0926146BECF0A
:104DF0000CAD1DAD2EAD3FADB301A20184E00E940C
:104E00008716409262465092634660926446709262
:104E10006546ACACBDACCEACDFACA0926646B09201
:104E20006746C0926846D0926946A0CF0CAD1DADD2
:104E30002EAD3FADB301A20185E00E9487164092DE
:104E40006A4650926B4660926C4670926D468CAC8E
:104E50009DACAEACBFAC80926E4690926F46A09275
:104E60007046B092714682CF0CAD1DAD2EAD3FADF8
:104E7000B301A20186E00E948716409272465092CA
:104E800073466092744670927546ACACBDACCEACC5
:104E9000DFACA0927646B0927746C0927846D09228
:104EA000794664CF0CAD1DAD2EAD3FADB301A2016F
:104EB00088E00E94871640927A4650927B46609224
:104EC0007C4670927D468CAC9DACAEACBFAC809203
:104ED0007E4690927F46A0928046B092814646CF11
:104EE0000CAD1DAD2EAD3FADB301A20189E00E9416
:104EF0008716409282465092834660928446709212
:104F00008546ACACBDACCEACDFACA0928646B092D0
:104F10008746C0928846D092894628CFBB24B39456
:104F2000DB10B4CD0E94D4110E94B210AFCD60E26C
:104F300070E084E694E40E94843E0097F9F46D2DBD
:104F400081E00E9446158C010115110571F10130B7
:104F5000110599F166EE7DE088EA94E40E946D0BFC
:104F60006EED7DE0012B09F46BCD42E050E0C30112
:104F7000B2010E94591062EE7DE062CD9C01245680
:104F800034447901622F81E00E9446158C016D2D19
:104F900081E08E0D0E944615BC01990F880B990B7C
:104FA0000E94CC3A2B013C01CFCF1092E84581E022
:104FB0008093E94510928E46CDCFC301B2010E9485
:104FC0000F3D6B01072E000CEE08FF08C092EE4566
:104FD000D092EF45E092F045F092F14521E0209328
:104FE000E8452093E94520938E4660938F46709361
:104FF0009046B0CF85E694E40E942C39882389F04E
:1050000099278034910514F08FE390E080934B460C
:1050100068ED7DE088EA94E40E946D0B40914B4678
:1050200027CE81E090E0F2CF85E694E40E942C390F
:105030008F7180934D4663ED7DE088EA94E40E9491
:105040006D0B80914D468251990B0E94600F6EEC62
:105050007DE0F6CC31E0D31219CD6FEE75E088EA31
:1050600094E40E94230F85E190E00E94170E8823AC
:1050700089F0CE0101960E94EF0D89819A8197FDFA
:1050800009C091958195910989839A83CE010196F2
:105090000E94720E61EC75E088EA94E40E94230F8E
:1050A00068EC70E080E090E00E94E60B0C94000059
:1050B000EDCC41E0D412EACC67EB75E088EA94E4E9
:1050C0000E94230F85E190E00E94170E811128C0F5
:1050D00019821A826FE4CE0101960E944F0E81E080
:1050E00090E089839A8365E4CE0101960E944F0E79
:1050F00082E090E089839A836DE4CE0101960E945C
:105100004F0E03E010E009831A836FEFCE01019682
:105110000E944F0E0F5F1F4F011552E0150799F7C0
:1051200086E690E089839A8385E190E08B839C8377
:10513000CE0101960E94720E09E416E487E090E029
:10514000D8016D918D017C01BFEFEB1AFB0A8DAB8D
:105150009EABCE01C5960E944F0EC70189369105C0
:1051600079F790E080E00E94170E811122C06FE86D
:1051700075E088EA94E40E946D0B2AE040E052E07A
:1051800060E070E088EA94E40E94DF0E69E675E072
:1051900088EA94E40E94230F60E072E090E080E0EF
:1051A0000E945A1067E675E088EA94E40E946D0B4D
:1051B0000EC0CE0101960E94EF0D8B819C8101965D
:1051C00069F466E175E088EA94E40E94230F88EAB6
:1051D00094E40E94200F66E975E032CC69E075E046
:1051E00088EA94E40E946D0B4B815C8170E060E082
:1051F0002AE088EA94E40E94DF0E09811A8117FFF1
:1052000003C0119501951109045011096BEF74E069
:1052100088EA94E40E946D0BC8010E94600F64EF5D
:1052200074E088EA94E40E946D0B89819A8197FF6B
:1052300006C069EE74E088EA94E40E946D0B88EA87
:1052400094E40E94200FB80187E090E00E945A1079
:1052500067EE74E0A9CF0E948A0C6B01CB01892B09
:1052600071F40E948A0C21E0672B682B692B09F4EA
:1052700020E020939146822F0E94041407CC6430D2
:10528000710508F003CCCE01C5960E94230C10E0F6
:1052900000E0CE01C5960E94230C892B49F108300D
:1052A00038F58DA9803221F08D3011F08A3051F41B
:1052B000E1E0F0E0EC0FFD1FE00FF11D10830F5F48
:1052C00010E0E7CF1295107F90ED980F9A3030F0F4
:1052D0009FEB980F963020F499EC980F190FD9CFC7
:1052E0009FE9980F963010F499EAF7CF90E0F6CF47
:1052F000DE01119603E0CC0CDD1C0A95E1F790E08D
:1053000080E02D91F601E80FF91FE657F94B208355
:10531000019688309105A9F7B9CBF1E0DF12B6CB41
:1053200063EA7DE088EA94E40E946D0B6FE371E428
:1053300075CC12E0812ED810A9CB10924C468091EA
:105340006544813319F481E080934C4680914C464A
:105350006DE97DE0811174CB66E97DE071CB992424
:10536000939468E87DE0D91091CB6ACBAA24A394EA
:10537000DA108CCB6EE67DE088EA94E40E94230F7D
:105380000E949A0E1092C9431092CA431092CB43C6
:105390001092CC431092CD431092CE431092CF4343
:1053A0001092D0431092D1431092D2431092D34323
:1053B0001092D4431092D5431092D6431092D74303
:1053C0001092D8431092F2451092F3451092F44592
:1053D0001092F5455BCBBB24B394DB1057CB0EEF9B
:1053E00015E0F801F490FF2061F0FAE0FF1203C02D
:1053F0008DE00E94690B8F2D0E94690B0F5F1F4F7C
:10540000F0CF6CEF75E01CCBBFE3BD1508F446CBC5
:10541000ED2DF0E0EC59FB4B8083D394D092914278
:105420003DCBE8EECE2EE5E4DE2E10E000E0EE24EB
:10543000E394F12CA6E1BA2EF6018181882309F4C8
:1054400076C080818823C9F18481893228F590E073
:10545000FC01E157FF4B40814F3FF1F0FC01E85464
:10546000FF4B2081F0E22F9F900111243C5F8F5170
:105470009F4BDC018C91F0E0E0E0883020F4F901F2
:105480007096E80FF11D9FB7F894D90112964C93CE
:105490008081886080839FBF69E37DE08091ED45D6
:1054A0000115110521F06BE37DE0809103460E9418
:1054B0001B083DC001E010E0BFCF85818932A0F517
:1054C00090E0FC01EF51FF4B20812F3F69F18854A0
:1054D0009F4BDC018C91E82FE295EE0FE07EE20F0E
:1054E000F0E0E05FFB4F9081917F908390E0FC01C2
:1054F00034E0EE0FFF1F3A95E1F7422F50E04701ED
:1055000002C0880C991C2A95E2F78382880F991FA4
:10551000FC01E05BFF4B440F551F0190F081E02D33
:10552000E40FF51F10821182D60111961C92B09ED5
:10553000F001B19EF00D11249F0128513A4BF90161
:1055400086859785A089B189892B8A2B8B2B09F1B8
:105550004685578560897189D6011A968D919D91EE
:105560000D90BC91A02D24968CAF9DAFAEAFBFAF78
:105570002497840F951FA61FB71FF6018287938774
:10558000A487B587D9011E961D921D921D921C926B
:105590005197B6E1CB0ED11C0130110509F08ACF2D
:1055A00078942091ED423091EE424091EF4250913B
:1055B000F0426091F1427091F2428091F3429091F9
:1055C000F4428090E9429090EA42A090EB42B09081
:1055D000EC421091E1420091E2423090E34220908F
:1055E000E442C090E5422996CFAE2997D090E6429A
:1055F0006196DFAE6197E090E7426396EFAE639706
:10560000F090E8426796FFAE6797C090E1426B96D4
:10561000CFAE6B97D090E2426D96DFAE6D97E09083
:10562000E342A196EFAEA197F090E442A596FFAEBB
:10563000A597C090E542A996CFAEA997D090E64233
:10564000AB96DFAEAB97E090E742AD96EFAEAD978D
:10565000F090E842AF96FFAEAF97C090E942D0908D
:10566000EA42E090EB42F090EC422496CCAEDDAE04
:10567000EEAEFFAE2497C090E942D090EA42E090AF
:10568000EB42F090EC422896CCAEDDAEEEAEFFAE33
:1056900028970E94443D6B017C01C501B4010E9422
:1056A000CC3A9B01AC01C701B6010E94A73C6B013B
:1056B0007C01212F302F432D522D29966FAD299734
:1056C00061967FAD619763968FAD639767969FAD47
:1056D00067970E94403D4B015C016B962FAD6B9725
:1056E0006D963FAD6D97A1964FADA197A5965FAD15
:1056F000A597A9966FADA997AB967FADAB97AD96E1
:105700008FADAD97AF969FADAF970E94403D9B0187
:10571000AC01C501B4010E942B3B4B015C012496F6
:105720006CAD7DAD8EAD9FAD24970E94CC3A9B01B0
:10573000AC01C501B4010E94A73C4B015C01289655
:105740006CAD7DAD8EAD9FAD28970E94CC3A9B018C
:10575000AC01C501B4010E94A73C9B01AC01C7018B
:10576000B6010E943F3C0E94D93D809046409090F7
:105770004740A0904840B090494066968CAE9DAEA0
:10578000AEAEBFAE6697A50194010E942B3B6A9610
:105790006CAF7DAF8EAF9FAF6A976093E24370931B
:1057A000E3438093E4439093E543A0904A40B09054
:1057B0004B406C96AEAEBFAE6C978090E942909035
:1057C000EA42A090EB42B090EC426091DD427091D1
:1057D000DE428091DF429091E0420E94CA3A6B0122
:1057E0007C016C96AEADBFAD6C971196A50194018E
:1057F0000E94083C0E94CC3A9B01AC01C701B60153
:105800000E94A73CA0966CAF7DAF8EAF9FAFA097D4
:10581000B090E143C857DF4FB882C858D040C0901D
:105820004C40D0904D40E0904E40F0904F40C757D4
:10583000DF4FC882D982EA82FB82C958D04080906B
:10584000284090902940A0902A40B0902B40A896E4
:105850008CAE9DAEAEAEBFAEA89729EC33E42A96CF
:105860002EAF3FAF2A9745E952E462964EAF5FAF45
:1058700062976DEB73E426966EAF7FAF269782E159
:1058800094E422968EAF9FAF2297A5ECB2E4E09607
:10589000AEAFBFAFE097EDEAF2E4AC96EEAFFFAF8C
:1058A000AC972CE230E4AA962EAF3FAFAA9746EE13
:1058B00053E4AE964EAF5FAFAE97312C212C6C9671
:1058C0008EAC9FAC6C97281439040CF005C591017F
:1058D00013E0220F331F1A95E1F7D901AB57BC4BE8
:1058E0009C90C357DF4F9882CD58D0401196AC9012
:1058F0001197C257DF4FA882CE58D0401296BC9065
:105900001297C157DF4FB882CF58D0401396CC9032
:105910001397C057DF4FC882C059D0401496DC900F
:105920001497CF56DF4FD882C159D0401596EC90CE
:105930001597CE56DF4FE882C259D0401696FC909C
:105940001697CD56DF4FF882C359D04017968C90EA
:10595000CC56DF4F8882C459D040E096AEADBFAD83
:10596000E097AD90BD90CD90DD90E096AEAFBFAF2B
:10597000E0976096ACAEBDAECEAEDFAE6097D9011B
:10598000AB5ABC4B8C90CB56DF4F8882C559D04068
:1059900011969C901197CA56DF4F9882C659D040F5
:1059A0001296AC901297C956DF4FA882C759D040C3
:1059B0001396BC901397C856DF4FB882C859D04091
:1059C0001496CC901497C756DF4FC882C959D0405F
:1059D0001596DC901597C656DF4FD882CA59D0402D
:1059E0001696EC901697C556DF4FE882CB59D040FB
:1059F0001796FC90C456DF4FF882CC59D040AC9635
:105A0000AEADBFADAC978D909D90AD90BD90AC9676
:105A1000AEAFBFAFAC97E8968CAE9DAEAEAEBFAEAC
:105A2000E8978090E9429090EA42A090EB42B090D3
:105A3000EC42EC968CAE9DAEAEAEBFAEEC979090C5
:105A4000E142C356DF4F9882CD59D040A090E24248
:105A5000C256DF4FA882CE59D040B090E342C15623
:105A6000DF4FB882CF59D040C090E442C056DF4FDC
:105A7000C882C05AD040D090E542CF55DF4FD8827F
:105A8000C15AD040E090E642CE55DF4FE882C25A7C
:105A9000D040F090E742CD55DF4FF882C35AD04056
:105AA0008090E842CC55DF4F8882C45AD0408901AB
:105AB0000B501D4BD801BC91CB55DF4FB883C55A55
:105AC000D040F801F181CA55DF4FF883C65AD04063
:105AD000D8011296BC91C955DF4FB883C75AD04040
:105AE000F801F381C855DF4FF883C85AD040D80178
:105AF0001496BC91C755DF4FB883C95AD040F801FE
:105B0000F581C655DF4FF883CA5AD040D8011696A2
:105B1000BC91C555DF4FB883CB5AD040F801F7810F
:105B2000C455DF4FF883CC5AD0408090E942909022
:105B3000EA42A090EB42B090EC42C458DF4F88821A
:105B40009982AA82BB82CC57D040A090E942B09003
:105B5000EA42C090EB42D090EC42C058DF4FA8829E
:105B6000B982CA82DB82C058D040AA96AEADBFAD22
:105B7000AA97CD90DD90ED90FD90AA96AEAFBFAF05
:105B8000AA97A496CCAEDDAEEEAEFFAEA497F90117
:105B9000EB5DFC4B208131814281538164817581B1
:105BA000868197818090E9429090EA42A090EB42F2
:105BB000B090EC42F801F081C355DF4FF883CD5A25
:105BC000D040D8011196BC91C255DF4FB883CE5A50
:105BD000D040F801F281C155DF4FF883CF5AD04051
:105BE000D8011396BC91C055DF4FB883C05BD0403D
:105BF000F801F481CF54DF4FF883C15BD040D80166
:105C00001596BC91CE54DF4FB883C25BD040F801EB
:105C1000F681CD54DF4FF883C35BD040D80117968F
:105C2000BC91CC54DF4FB883C45BD040F801F08105
:105C3000CB54DF4FF883C55BD040D8011196BC919F
:105C4000CA54DF4FB883C65BD040F801F281C95413
:105C5000DF4FF883C75BD040D8011396BC91C8547E
:105C6000DF4FB883C85BD040F801F481C754DF4FE1
:105C7000F883C95BD040D8011596BC91C654DF4F5C
:105C8000B883CA5BD040F801F681C554DF4FF88372
:105C9000CB5BD040D8011796BC91C454DF4FB8837A
:105CA000CC5BD040C090E942D090EA42E090EB4219
:105CB000F090EC42E496CCAEDDAEEEAEFFAEE497F3
:105CC000C090E942D090EA42E090EB42F090EC4282
:105CD000CC57DF4FC882D982EA82FB82C458D040B9
