:10020000ECC6000014C7000012C7000010C70000B1
:100210000EC700000CC700000AC7000008C7000096
:100220000C941F1904C7000002C7000000C700009B
:10023000FEC60000FCC60000FAC60000F8C60000BA
:10024000F6C60000F4C60000F2C60000F0C60000CA
:10025000EEC600000C947A180C9475180C947F1854
:100260000C941619E4C600000C946D19E0C6000049
:10027000DEC60000DCC600000C9419190C94E818C6
:10028000D6C60000D4C60000D2C600000C941019D7
:10029000CEC60000CCC60000CAC60000C8C600001A
:1002A000C6C60000C4C60000C2C60000C0C600002A
:1002B000BEC600000C941C190C941319B8C600009B
:1002C000B6C60000B4C60000B2C60000B0C600004A
:1002D000AEC600000C946D180C9468180C9472183B
:1002E000A6C60000A4C60000A2C60000A0C600006A
:1002F0009EC6000005A84CCDB2D44EB93836A9022E
:100300000C50B9918688083CA6AAAA2ABE00000013
:10031000803F5246206F6666005246206F6E007422
:10032000656D705F656E61626C65203D2000707563
:100330006C736520706572696F64203D2000707574
:100340006C736573203D2000646174616C6F67207D
:100350003D200069364C656164203D2000693643CC
:10036000616C203D200069354C656164203D2000B2
:10037000693543616C203D200069344C656164201F
:100380003D2000693443616C203D200069334C6599
:100390006164203D2000693343616C203D20006989
:1003A000324C656164203D2000693243616C203D20
:1003B000200069314C656164203D20006931436152
:1003C0006C203D2000617373756D656456203D207F
:1003D000007643616C203D200043616C696272616C
:1003E00074696F6E3A002064426D002C20002C204E
:1003F0004E6F64652000204D487A2C2047726F753F
:1004000070200042616E64200053657474696E67E9
:10041000733A004E6F20454550524F4D20636F6E2A
:10042000666967004C6F6164656420454550524FB2
:100430004D20636F6E66696700466163746F727901
:10044000205465737400555341205663616C2061DC
:1004500063746976653A20002000204E6F64653A27
:1004600020002047726F75703A20003931354D48B1
:100470007A003836384D487A003433334D487A00A4
:1004800020467265713A200052464D363943572056
:10049000004F70656E456E657267794D6F6E697459
:1004A0006F722E6F726700656D6F6E5478205634D0
:1004B000434D20436F6E74696E756F7573204D6F79
:1004C0006E69746F72696E672056000A0020286892
:1004D000696464656E292E00206279746573002C4E
:1004E00020446174612073697A653A200020536961
:1004F000676E61747572653A20004E6F2064617496
:100500006120626C6F636B20666F756E64202D20B6
:10051000454550524F4D2061707065617273207473
:100520006F20626520666F726D61747465642074FB
:100530006F204F454D205374616E64617264206278
:10054000757420756E757365642E000A00206279DB
:100550007465732C206E6F7420666F726D61747495
:10056000656420746F204F454D205374616E646143
:1005700072640053697A653A2000446F6E652E20DC
:100580004E657720636F6E66696720736176656478
:1005900020746F20454550524F4D00536176696E6F
:1005A000672E2E2E00536B657463682077696C6C20
:1005B000206E6F7720726573746172742075736931
:1005C0006E672064656661756C7420636F6E666922
:1005D000672E00526573657474696E672E2E2E0047
:1005E0002000456E657267792076616C75657320B1
:1005F00073657420746F207A65726F00436F6E7438
:10060000696E75696E672E2E2E005246206F6666E3
:10061000005246206F6E00456D6F6E54785633342D
:10062000434D2052464D36396E20436F6E74696ECD
:10063000756F7573204D6F6E69746F72696E672088
:1006400056002064426D0070203D20004E6F6465AE
:1006500020006F666600206D730050756C736573C3
:100660003A20002000200043616C3A206B00477262
:100670006F75702000467265713A20002073006427
:100680006174616C6F6720706572696F643A2000F5
:10069000204D487A00417373756D656420563A2089
:1006A00000456E746572696E672053657474696E77
:1006B0006773206D6F64652E2E2E00005EBCE261B4
:1006C0003FDD83C29C7E20A3FD1F41009D23BE46CB
:1006D000DB65F88C11AF32CA57E9742C7066363A74
:1006E000002C7066353A002C7066343A002C706627
:1006F000333A002C7066323A002C7066313A002C86
:1007000049363A002C49353A002C49343A002C49F4
:10071000333A002C49323A002C49313A0056726D76
:10072000733A002C70756C73653A002C54333A00A0
:100730002C54323A002C54313A002C45363A002CD5
:1007400045353A002C45343A002C45333A002C45C7
:10075000323A002C45313A002C50363A002C5035B4
:100760003A002C50343A002C50333A002C50323A94
:10077000002C50313A002C56726D733A004D53479D
:100780003A002056004143206D697373696E6720FB
:100790002D204170706172656E7420506F776572A4
:1007A0002063616C6320656E61626C65642C2061FE
:1007B0007373756D696E67200041432070726573B5
:1007C000656E74202D205265616C20506F776572C4
:1007D0002063616C6320656E61626C6564002065F6
:1007E0006E61626C65642E0054656D706572617433
:1007F000757265206D6561737572656D656E7420C7
:1008000069730053656E736F72206D6179206E6F2E
:10081000742062652072656C6961626C65002000FD
:1008200030002C207769746820616464726573738A
:1008300065732E2E2E0054656D706572617475722D
:10084000652053656E736F727320666F756E6420DA
:100850003D20000A417661696C61626C6520636FBE
:100860006D6D616E64733A0A6C09092D206C6973B1
:1008700074207468652073657474696E67730A7296
:1008800009092D20726573746F726520736B65742E
:1008900063682064656661756C74730A7309092D59
:1008A00020736176652073657474696E6773207454
:1008B0006F20454550524F4D0A7609092D20736827
:1008C0006F77206669726D776172652076657273E5
:1008D000696F6E0A7A09092D207A65726F20656E3C
:1008E000657267792076616C7565730A7809092DE0
:1008F00020657869742C206C6F636B20616E6420B6
:10090000636F6E74696E75650A3F09092D207368FF
:100910006F772074686973207465787420616761EB
:10092000696E0A0A773C783E09092D207475726E4B
:100930002052464D20576972656C6573732064615F
:100940007461206F66663A2078203D2030206F72F7
:10095000206F6E3A2078203D20310A623C6E3E09BD
:10096000092D2073657420722E662E2062616E64DC
:10097000206E203D20612073696E676C65206E7566
:100980006D6572616C3A2034203D203433334D481C
:100990007A2C2038203D203836384D487A2C2039A2
:1009A000203D203931354D487A20286D61792072FB
:1009B000657175697265206861726477617265201E
:1009C0006368616E6765290A703C6E6E3E09092D89
:1009D000207365742074686520722E662E20706FF7
:1009E0007765722E206E6E202D20616E20696E74E8
:1009F000656765722030202D20333120726570725A
:100A00006573656E74696E67202D31382064426DA0
:100A100020746F202B31332064426D2E2044656694
:100A200061756C743A20323520282B372064426D72
:100A3000290A673C6E6E6E3E092D20736574204E48
:100A40006574776F726B2047726F757020206E6EC1
:100A50006E202D20616E20696E7465676572202896
:100A60004F454D2064656661756C74203D203231C0
:100A700030290A6E3C6E6E3E09092D207365742084
:100A80006E6F6465204944206E3D20616E20696E62
:100A9000746567657220287374616E646172642086
:100AA0006E6F6465206964732061726520312E2E3B
:100AB0003630290A0A643C78782E783E092D207851
:100AC000782E78203D206120666C6F6174696E67B6
:100AD00020706F696E74206E756D62657220666F2E
:100AE000722074686520646174616C6F6767696EF9
:100AF0006720706572696F640A633C6E3E09092D58
:100B0000206E203D203020666F72204F46462C20FC
:100B10006E203D203120666F72204F4E2C20656E76
:100B200061626C6520766F6C746167652C206375FB
:100B30007272656E74202620706F77657220666110
:100B400063746F722076616C75657320746F2073A7
:100B5000657269616C206F757470757420666F7250
:100B60002063616C6962726174696F6E2E200A661F
:100B70003C78783E09092D207878203D20746865FE
:100B8000206C696E65206672657175656E6379208B
:100B9000696E20487A3A206E6F726D616C6C7920B4
:100BA000656974686572203530206F722036300AAE
:100BB0006B3C783E203C79792E793E203C7A7A2E27
:100BC0007A3E0A09092D2043616C6962726174657D
:100BD00020616E20616E616C6F67756520696E7053
:100BE0007574206368616E6E656C3A0A090920208D
:100BF00078203D20612073696E676C65206E756D8D
:100C00006572616C3A2030203D20766F6C746167AC
:100C1000652063616C6962726174696F6E2C20314A
:100C2000203D206374312063616C69627261746974
:100C30006F6E2C2032203D206374322063616C691A
:100C400062726174696F6E2C206574630A090920F1
:100C50002079792E79203D206120666C6F6174695E
:100C60006E6720706F696E74206E756D626572209C
:100C7000666F722074686520766F6C746167652F8B
:100C800063757272656E742063616C6962726174FF
:100C9000696F6E20636F6E7374616E740A09092048
:100CA000207A7A2E7A203D206120666C6F6174690B
:100CB0006E6720706F696E74206E756D626572204C
:100CC000666F722074686520706861736520636167
:100CD0006C6962726174696F6E20666F72207468ED
:100CE000697320632E742E20287A206973206E6F1A
:100CF00074206E65656465642C206F722069676E70
:100D00006F72656420696620737570706C696564C4
:100D10002C207768656E2078203D2030290A09094B
:100D20002020652E672E206B30203235362E380A73
:100D30000909202020202020206B312039302E3935
:100D400020322E30300A613C78782E783E092D20F2
:100D500078782E78203D206120666C6F6174696E12
:100D60006720706F696E74206E756D6265722066A3
:100D70006F722074686520617373756D6564207689
:100D80006F6C74616765206966206E6F20612E63E9
:100D90002E2069732064657465637465640A6D3C14
:100DA000783E203C79793E092D206D65746572206E
:100DB00070756C736520636F756E74696E673A0A3F
:100DC000090920202078203D203020666F72204FB6
:100DD00046462C2078203D203120666F72204F4EF1
:100DE0002C203C79793E203D20616E20696E74652F
:100DF00067657220666F72207468652070756C7309
:100E000065206D696E696D756D20706572696F64BE
:100E100020696E206D732E202879206973206E6FF3
:100E200074206E65656465642C206F722069676E3E
:100E30006F726564207768656E2078203D203029C8
:100E40000A7430203C793E092D207475726E20742E
:100E5000656D7065726174757265206D656173751D
:100E600072656D656E74206F6E206F72206F66669E
:100E70003A2079203D203020666F72204F46462C64
:100E80002079203D203120666F72204F4E0A743C3D
:100E9000783E203C79793E203C79793E203C797936
:100EA0003E203C79793E203C79793E203C79793E60
:100EB000203C79793E203C79793E0A09092D20634E
:100EC00068616E676520612074656D70657261741C
:100ED0007572652073656E736F7227732061646429
:100EE00072657373206F7220706F736974696F6EAF
:100EF0003A0A0909202078203D20612073696E6735
:100F00006C65206E756D6572616C3A207468652041
:100F1000706F736974696F6E206F662074686520E6
:100F200073656E736F7220696E20746865206C69DA
:100F300073742028312D6261736564290A090920C0
:100F4000207979203D20382068657861646563697F
:100F50006D616C206279746573207265707265735F
:100F6000656E74696E67207468652073656E736F53
:100F700072277320616464726573730A0909202003
:100F80002020652E672E202032382038312034333F
:100F90002033312030372030302030302044390A9F
:100FA000090920204E2E422E2053656E736F7273F6
:100FB0002043414E4E4F5420626520616464656455
:100FC0002E0A000A0000080A400CFFC000C0000002
:100FD0000201040603000300CF1E11241FBECFEF41
:100FE000CDBFDFE7DEBF26E4A4E4B1E401C01D927B
:100FF000AE35B207E1F711E4A0E0B0E4E0E0F6E7D7
:1010000000E00BBF02C007900D92A434B107D9F7DE
:1010100017E0CDEED7E004C02197FE010E94DA3A36
:10102000CC3ED107C9F70E94D3200C94FE3AE8C801
:101030000000E091EB45F091EC458483838187FFCC
:10104000FDCF84810895893260F590E0FC01E35280
:10105000FF4BE081EF3F29F18C549F4BDC018C91D9
:1010600090E0DC01AA0FBB1FA05BBF4B2D913C9110
:1010700021153105B1F04E2F50E0440F551F240FBC
:10108000351FD9016D937C93E05FA5E0880F991F10
:10109000AA95E1F7E80FF0E0FC5F8081887F82602D
:1010A00080830895CF93DF93282F30E09FEF89321C
:1010B00020F5E901C557DF4B98819F3FE9F0F90121
:1010C000EC54FF4BA08140E2A49FD0011124BC5FEF
:1010D000F901E352FF4BE081E830C0F5AD01405F1C
:1010E0005F4FE40FF52FF11D4FB7F89412969C93C4
:1010F0009081977F90834FBF9881909385458932E7
:1011000040F52C543F4BF9018081F4E08F9FC001E2
:1011100011248093864590938745109290451092B4
:1011200092451092914510928F4510928E451092E3
:101130008D4510928C4510928B4510928A451092E5
:10114000894510928845DF91CF910895F0E0E0E065
:10115000CBCF8CEF93E0DDCF90918545E091864534
:10116000F0918745292F209580FF15C0F894818143
:10117000822381838081892B808380E58A95F1F7A2
:101180008181982B91837894A9E4B1E01197F1F7CC
:1011900000C000000895F8948181822381838081BA
:1011A000892B8083A5E8B1E01197F1F700C000001A
:1011B0008181982B91837894B8E2BA95F1F70895DC
:1011C00080918545E0918645F0918745F89490811E
:1011D000982B90832181382F30952323218398E108
:1011E0009A95F1F790819323908390E59A95F1F782
:1011F00092817894EDE3F1E03197F1F700C00000BF
:10120000982381E009F480E00895FF920F931F93E3
:10121000CF93DF93F82E062FC8E0D0E011E081E0F5
:101220009F2D912309F480E097DF110F2197B9F7E3
:10123000011116C0F894E0918645F09187459081A0
:1012400080918545809589238083E0918645F09142
:101250008745918180918545809589238183789404
:10126000DF91CF911F910F91FF9008958091854557
:10127000E0918645F0918745F8949081282F20953C
:101280009223908378943DE7315059F190E19A95FB
:10129000F1F792819823C1F3F8949181922391837D
:1012A0009081982B90837894AFE3BBE01197F1F78E
:1012B00000C00000F894908192239083A3EAB1E0EB
:1012C0001197F1F700C000009281982381E009F0A6
:1012D00080E07894EBE9F9E03197F1F700C0000085
:1012E000089580E00895AF92BF92CF92DF92EF927F
:1012F000FF920F931F93CF93DF936C017B018B01C0
:10130000040F151FEB015E01AE18BF08C017D1070F
:1013100059F06991D601ED91FC910190F081E02D99
:10132000C6010995892B79F7C501DF91CF911F91EE
:101330000F91FF90EF90DF90CF90BF90AF90089506
:10134000FC0155894689252F30E0842F90E0821BCF
:10135000930B541710F0CF96089501970895FC0150
:1013600093898489981761F0A489AE0FBF2FB11DAE
:1013700057968C9194899F5F9F73948B90E008950A
:101380008FEF9FEF0895FC0193898489981731F0BE
:101390008489E80FF11D878990E008958FEF9FEF12
:1013A0000895FC0193892489892F90E0805C9F4FE8
:1013B000821B91098F7399270895CF93DF93EC01D6
:1013C000E881F9810680F781E02D0995EC85FD859E
:1013D000868116828581158280E484838C898B8B3B
:1013E0001A8ADF91CF9108958F929F92AF92BF9208
:1013F000FF920F931F93CF93DF938C014A015B0100
:10140000D22FC32FDC0152968C91529780FF07C0D8
:10141000ED91FC910288F389E02DC8010995D11165
:1014200001C0D3E0FD2EE894F2F8DC2FD095D07CFB
:10143000B1E68B16B3EE9B06B6E1AB06B10428F01D
:10144000D260B694A7949794879460E078ED88EB87
:1014500095E0A50194010E949C3AC9012034310510
:1014600010F480E490E03C2F3B72D7FD30684D2FA4
:10147000487C30FD41605FB7F894D8011C96ED912F
:10148000FC911682F7828087918735FF8FC04F7756
:1014900081E084878FEF85873F7D3583D683F80190
:1014A0002189C08986859785FC0133E0239FE00D63
:1014B000F11D1124659174912C1708F059C0272F44
:1014C00046FF76C0793288F430E0F901E557FF4BEA
:1014D000A081AF3F51F02C543F4BF901308120E205
:1014E000329FF0011124FC5FA18347FF2AC021E055
:1014F000270F293230F530E0F901E557FF4BD08155
:10150000DF3FF9F0F901EC54FF4BA081F0E2AF9F0F
:10151000D0011124BC5F23523F4BF9011081F0E050
:10152000E0E0183030F49D01205F3F4FF901E10FFA
:10153000F11D3FB7F8941296DC9320812860208338
:101540003FBF40FF15C023E0270F293288F430E069
:10155000F901E557FF4B40814F3F51F02C543F4B71
:10156000D901EC91B0E2EB9FF0011124FC5F4183C3
:10157000FC0123E0C29FE00DF11D1124319625915D
:101580003491F901FF27EE51FA4F9081832F809516
:101590008923682B60835FBFDF91CF911F910F91EB
:1015A000FF90BF90AF909F908F900895148674CF56
:1015B000342F307509F499CF793208F096CF30E0A6
:1015C000F901E557FF4BD081DF3F09F48ECFF901D8
:1015D000EC54FF4BA081E0E2AE9FD0011124BC5F30
:1015E00023523F4BF9011081F0E0E0E0183030F475
:1015F0009D01205F3F4FF901E10FF11D3FB7F894C6
:101600001296DC932081286020833FBF6ECFFC01BF
:101610000FB607FE04C0809111018823A9F0A485AC
:10162000B58514968C91149785FF0EC0958986898F
:10163000981739F015968C9115978F7D15968C9388
:101640000895E8940C948A1808950F931F93CF93EC
:10165000DF93EC018A89982F91609A8B2D899E895E
:1016600029130AC0EC85FD85948195FF05C081FD95
:101670000DC080E4848312C0062F1D891F5F1F7375
:101680008E89811315C0CE01C2DFFACF85818F7795
:10169000806490E49483EC85FD858583EC85FD85ED
:1016A000628381E090E0DF91CF911F910F910895C7
:1016B000ED89EC0FFD2FF11DE95AFF4F00831D8BC3
:1016C000EC85FD858A8981FF09C085818F778066D9
:1016D00090E49483EC85FD858583E3CF85818062EA
:1016E000FBCFB3CF1F93CF93DF93C3E5D8E0FE01C9
:1016F0001491112361F01A3021F46DE087E594E430
:10170000F0DF612F87E594E4ECDF2196F0CFDF91E5
:10171000CF911F910895EF92FF920F931F93CF9354
:10172000DF938C017B01D0E0C0E0F701EC0FFD1FDF
:101730006491662331F0C80188DF892B11F021966E
:10174000F4CFCE01DF91CF911F910F91FF90EF90D9
:101750000895CF93DF93EC018A8980FF0BC0EC855D
:10176000FD85858185FD03C0848186FD03C0CE0192
:101770004EDFF5CFDF91CF91089581E008959FB7B7
:10178000F894E0912A0BF0912B0B8091260B20917D
:1017900081423091824240918342509184429FBF66
:1017A00080FF08C0EC3E8CE2F80720F42F5F3F4F2B
:1017B0004F4F5F4F0F011694079416940794169499
:1017C000079416940794F00116940794E00DF11D08
:1017D00016940794102C169401181694010C169464
:1017E00001181694010C1694011816941694010C05
:1017F0001124E019F109A8EEB3E00E945C386E0FE5
:101800007F1F811D911D08958F929F92AF92BF926D
:10181000CF92DF92EF92FF926B017C01B0DF4B0120
:101820005C01C114D104E104F104B1F0A8DF68192E
:1018300079098A099B09683E73408105910588F3FF
:1018400021E0C21AD108E108F10888EE880E83E091
:10185000981EA11CB11CE5CFFF90EF90DF90CF90B8
:10186000BF90AF909F908F9008952FB7F89460919C
:1018700081427091824280918342909184422FBF35
:1018800008958F929F92AF92BF92EF92FF920F9323
:101890001F93CF93DF937B018C01D0E0C0E0E5DFA5
:1018A00060935F447093604480936144909362447A
:1018B00087E594E454DD97FF26C0D7DF80905F442E
:1018C00090906044A0906144B09062446819790996
:1018D0008A099B0980905B4490905C44A0905D4491
:1018E000B0905E44681579058A059B0508F3CE0122
:1018F000DF91CF911F910F91FF90EF90BF90AF902C
:101900009F908F900895F80181938F012196EC1696
:10191000FD0629F6ECCF0F931F93A7DF60935F447A
:1019200070936044809361449093624487E594E4AB
:101930002ADD97FF1CC099DF00915F44109160443D
:101940002091614430916244601B710B820B930BB8
:1019500000915B4410915C4420915D4430915E4461
:10196000601771078207930708F38FEF9FEF1F91AE
:101970000F910895CF92DF92EF92FF92CF93CBDF3A
:10198000FC0197FD4BC08D32910521F0C0970A975D
:1019900008F03EC0C12CD12C7601C0E0E130F10549
:1019A000D1F0ED32F105C1F1CF01C0970A9798F45B
:1019B000AAE0B0E0A70196010E945C386F01FF0F1A
:1019C000EE08FF08C60ED71EE81EF91E80E3C81AEF
:1019D000D108E108F10887E594E4C1DC9CDFFC0153
:1019E000C0970A97D8F2E130F105C1F2CC2341F05B
:1019F000F094E094D094C094C11CD11CE11CF11C63
:101A0000C701B601CF91FF90EF90DF90CF9008957E
:101A100087E594E4A4DCB3CFC1E0DDCFC12CD12CA9
:101A20007601EECF8F929F92AF92BF92CF92DF92CC
:101A3000EF92FF92CF93DF936EDFFC0197FD85C09D
:101A40008D32910509F04AC0812C912C80E8A82E96
:101A50008FE3B82EC12CD12C7601C0E0D0E0E1306C
:101A6000F10559F1ED32F10509F444C0EE32F1050A
:101A700009F442C0CF01C0970A97F8F4AAE0B0E099
:101A8000A70196010E945C386F01FF0FEE08FF0866
:101A9000C60ED71EE81EF91E80E3C81AD108E10859
:101AA000F108CC2351F02DEC3CEC4CEC5DE3C5018E
:101AB000B4010E94A8374B015C0187E594E44FDC38
:101AC0002ADFFC01C0970A9750F2EE32F105B1F41B
:101AD000CC2329F2CD2FD11117C024C0C0970A976B
:101AE00008F4B2CFEE32F10509F4AECF87E594E405
:101AF00036DCA2CFD1E0E1CFC1E0DFCFE130F105AC
:101B000009F4ADCFDD2341F0F094E094D094C0947B
:101B1000C11CD11CE11CF11CC701B6010E94493750
:101B2000CC2341F0C701B6010E944937A5019401B9
:101B30000E94A837DF91CF91FF90EF90DF90CF9078
:101B4000BF90AF909F908F90089560E070E0CB01C0
:101B5000F1CFCF92DF92EF92FF920F931F93CF932B
:101B6000DF93082F10E096E1899FE0011124C95608
:101B7000DA4B8E819F81A885B985892B8A2B8B2B87
:101B800099F173DECA88DB88EC88FD886C197D09C1
:101B90008E099F09CE80DF80E884F984C616D706B7
:101BA000E806F90658F48E859F85A889B9890196BB
:101BB000A11DB11D8E879F87A88BB98B56DE26E1AC
:101BC000209FF001219FF00D1124E956FA4B628B02
:101BD000738B848B958BDF91CF911F910F91FF9029
:101BE000EF90DF90CF9008958E859F85A889B98961
:101BF0000196A11DB11D8E879F87A88BB98BEBCF56
:101C000080E0A7CF81E0A5CFCF92DF92EF92FF9245
:101C10000F931F93CF93DF9380911F4090E025E0B7
:101C2000959587952A95E1F78095909583709927EA
:101C3000C0EFD2E002C0D595C7958A95E2F7209112
:101C4000484030914940DE010E94E93A28E13CEFEA
:101C50004FEF5FEF0E94BE3A8091894290918A4295
:101C60000197280F391F2093A9413093AA4120E002
:101C700030E04AE754E460912C4070912D4080910F
:101C80002E4090912F400E94A8370E944A398E0121
:101C9000DD0F220B330B6B017C01C01AD10AE20A63
:101CA000F30AA7019601A8EEB3E00E945C386858D9
:101CB0007341810991092091214030912240032EE6
:101CC000000C440B550B0E949C3A2093A541309385
:101CD000A6414093A7415093A841DF91CF911F9116
:101CE0000F91FF90EF90DF90CF900895CF92DF9209
:101CF000EF92FF926B017C01C0922C40D0922D405C
:101D0000E0922E40F0922F406091484070914940FF
:101D100090E080E00E944737A70196010E94A83713
:101D20000E944A396093894270938A4220E034E2EB
:101D300044E759E4C701B6010E94A8376B017C0152
:101D40006091214070912240072E000C880B990B66
:101D50000E9449379B01AC01C701B6010E94DD38E2
:101D60000E944A396093D9427093DA428093DB42F1
:101D70009093DC42FF90EF90DF90CF9045CFEF92B1
:101D8000FF920F931F93CF93DF93E0918B42CE2F5F
:101D9000D0E07E01EE0CFF1CEE0CFF1CD701A05D15
:101DA000BF4B4D935D936D937C931397B701605038
:101DB000704CDB010D931D932D933C9313979E0163
:101DC0002F543C4B91E0D9019C93A82FB0E0A65032
:101DD000BC4BEC93EF5FE0938B42F0E0E85EFF4B8F
:101DE0008083DF91CF911F910F91FF90EF90089525
:101DF000DC01ED91FC91F170FC5E80810895CF9241
:101E0000DF92EF92FF920F931F93CF93DF9300D057
:101E1000CDB7DEB76C017C0103E010E009831A83C3
:101E2000CE010196E5DFF70181937F010F5F1F4F20
:101E30000730110599F7C6010F900F90DF91CF91F0
:101E40001F910F91FF90EF90DF90CF9008950F9327
:101E50001F93CF93DF9300D000D0CDB7DEB78C01B6
:101E600019821A82CE010196C3DF8F34F9F481E022
:101E700090E089839A83CE010196BADF8534B1F46C
:101E800082E090E089839A83CE010196B1DF8D34A0
:101E900069F481E00115110551F0CE010196AFDF23
:101EA00081E02B813C812017310709F080E02496E6
:101EB000CDBFDEBFDF91CF911F910F9108951F938A
:101EC000CF93DF93EC01162F93DF8117B1F09FB70B
:101ED00080910210282F227081FDFACFF8948DE9AD
:101EE00084BF2093001023E184BF20930010E88179
:101EF000F981F170FC5E10839FBFCE01DF91CF911D
:101F00001F910895CF92DF92EF92FF920F931F934C
:101F1000CF93DF9300D0CDB7DEB76C017C0103E037
:101F200010E009831A83F70161917F01CE010196C8
:101F3000C6DF0F5F1F4F0730110599F7C6010F90DD
:101F40000F90DF91CF911F910F91FF90EF90DF9055
:101F5000CF9008950F931F93CF93DF9300D0CDB709
:101F6000DEB70091E7451091E8458091E9459091F1
:101F7000EA45081719079CF4C801957189839A836B
:101F80006FEFCE0101969BDF1092E3451092E4457E
:101F90008091E1459091E245080F191FE6CF0F901F
:101FA0000F90DF91CF911F910F910895DC01ED917A
:101FB000FC910088F189E02D23E030E00994FB01D9
:101FC00001900020E9F73197AF01461B570B8BC9F1
:101FD0006115710509F0F3CF90E080E008958F92CC
:101FE0009F92AF92BF92EF92FF920F931F93CF9366
:101FF000DF93CDB7DEB7A197CDBFDEBF7C01FA017D
:10200000CB0119A2223008F42AE08E010F5D1F4F88
:10201000822E912CB12CA12CBF01A50194010E940C
:102020009C3AF901CA016A30CCF4605DD8016E9324
:102030008D01232B242B252B79F7BD01C701C8DF88
:10204000A196CDBFDEBFDF91CF911F910F91FF9081
:10205000EF90BF90AF909F908F900895695CE6CF0E
:1020600060E271E4ACCF0F931F93CF93DF93EC0149
:1020700052DB8C01CE01F4DF800F911FDF91CF91F5
:102080001F910F910895CF92DF92EF92FF920F93DD
:102090001F93CF93DF9377FF1BC06A017B01EC0195
:1020A0006DE21FDB8C0144275527BA014C195D09ED
:1020B0006E097F092AE0CE0192DF800F911FDF9128
:1020C000CF911F910F91FF90EF90DF90CF900895E7
:1020D0002AE0DF91CF911F910F91FF90EF90DF9059
:1020E000CF907DCFAB01770F660B770BCCCFCF9323
:1020F000DF93BC0187E594E4F5DFEC0187E594E428
:10210000AFDF8C0F9D1FDF91CF9108954F925F92AB
:102110006F927F928F929F92AF92BF92CF92DF92F7
:10212000EF92FF920F931F93CF936B017C01742E5C
:10213000AC019B010E944D3A63E271E4811126C01B
:1021400046015701E894B7F82FEF3FEF4FE75FE7FD
:10215000C501B4010E944D3A81110CC02FEF3FEF31
:102160004FE75FE7C501B4010E94433767E271E4BE
:10217000181664F02FEF3FEF4FE75FE4C701B60199
:102180000E94013A1816A4F46BE271E487E594E426
:10219000CF911F910F91FF90EF90DF90CF90BF9064
:1021A000AF909F908F907F906F905F904F9007CFF0
:1021B0002FEF3FEF4FE75FECC701B6010E944337B7
:1021C00087FDE2CF20E030E0A901C701B6010E94FF
:1021D000433710E000E087FF09C06DE287E594E433
:1021E00080DA8C01F7FAF094F7F8F094C0E060E040
:1021F00070E080E09FE37C1641F020E030E040E2B8
:1022000051E40E94DD38CF5FF6CFA70196010E940E
:1022100076382B013C010E944A394B015C012AE0CF
:10222000BC01A40187E594E4DADE7C01E00EF11E36
:10223000CC23C9F1C501B4010E9447379B01AC0111
:10224000C301B2010E9475384B015C016FE271E479
:1022500087E594E4B4DEE80EF91EC15020F120E0D9
:1022600030E040E251E4C501B4010E94A8372B01DF
:102270003C010E944A394B01B12CA12C2AE0B50146
:10228000A40187E594E4ABDEE80EF91EC501B401B4
:102290000E9447379B01AC01C301B2010E9475380F
:1022A0004B015C01DACFC701CF911F910F91FF90D5
:1022B000EF90DF90CF90BF90AF909F908F907F90E6
:1022C0006F905F904F900895CF93DF9342E01EDFB1
:1022D000EC0187E594E4C4DE8C0F9D1FDF91CF9164
:1022E000089514CFAF92BF92CF92DF92EF92FF92F8
:1022F0000F931F93CF93DF9300D0CDB7DEB76C0160
:102300005B0110E000E00A151B050CF039C07801F4
:10231000EC0CFD1C85E1F822E982FA82CE010196DF
:1023200067DD803120F460E38EEE94E4DAD90F5F4C
:102330001F4FE982FA82CE0101965ADD482F50E004
:1023400070E060E020E18EEE94E449DE69E371E440
:102350008EEE94E434DEC80187709927892B29F426
:1023600069E371E48EEE94E42ADEC8018F70992748
:10237000892B49F663EC7FE08EEE94E4CCD9C3CF91
:102380000F900F90DF91CF911F910F91FF90EF90E1
:10239000DF90CF90BF90AF900895CF92DF92EF92F1
:1023A000FF920F931F93CF93DF9366E378E08EEE57
:1023B00094E4B1D94091224450E070E060E02AE01A
:1023C0008EEE94E40CDE66E371E48EEE94E4F7DDC9
:1023D00040915E4050E070E060E02AE08EEE94E4D0
:1023E000FEDD80912244882309F453C062E278E044
:1023F0008EEE94E438DE10E000E0809122448017F5
:10240000110609F00CF445C0680183E0CC0CDD1C1A
:102410008A95E1F7F12CE12CC0912044D091214420
:10242000CC0DDD1DCE0DDF1D8881803128F460E2EA
:1024300078E08EEE94E46FD9488150E070E060E07F
:1024400020E18EEE94E4CBDD6EE178E08EEE94E454
:1024500062D98FEFE81AF80A88E0E816F104E1F68D
:10246000E0912044F0912144EC0DFD1D86818330E4
:1024700029F463E078E08EEE94E44DD98EEE94E496
:10248000EFDD65E070E080E090E0BED90F5F1F4FA8
:10249000B4CF8EEE94E4E4DD68EE77E08EEE94E463
:1024A0003AD980911F4461E371E4882311F062E21C
:1024B00071E48EEE94E48CDD6EED77E08EEE94E4C4
:1024C000D2DD8EEE94E4CCDD65E070E080E090E05B
:1024D000DF91CF911F910F91FF90EF90DF90CF9000
:1024E00093C9DF92EF92FF920F931F93CF93DF93E5
:1024F00020919245211106C0E92ED82E0E9436095E
:1025000081110FC010929045109292451092914502
:1025100080E0DF91CF911F910F91FF90EF90DF90BE
:10252000089560E080EF0E940509D1E000E0F12C01
:10253000C1E00E94E008182F0E94E0081130E1F489
:102540008130C9F5C134F0F2F0929045F11003C02A
:1025500081E08093924580918845882399F2A8E88C
:10256000B5E4ED2DFE2DCF0108962D912193E817AE
:10257000F907D9F781E0CDCFE02FF0E0181311C0B3
:1025800080919045C817A8F4DF01AB57BA4B13965A
:102590008C918D2381F410E0C93010F4C0939145E3
:1025A000FC2EEB57FA4B83819D2F909589238383D3
:1025B0000AC08C13F0CFE02FF0E0EB57FA4B838189
:1025C0008D2B838311E0812F0E94AC08CF5FDD0F3C
:1025D00011F40F5FD1E0083008F4ABCFB3CF69E05E
:1025E00074E087E594E43FDD63E074E087E594E41C
:1025F00092D88091F84561EB71E0813051F064E64A
:1026000073E0823031F070E060E0833011F463E910
:1026100073E087E594E466DD66EF73E087E594E4B4
:102620007AD84091F94550E070E060E02AE087E513
:1026300094E4D5DC6EEE73E087E594E46CD86091A9
:10264000FA456F7370E087E594E44CDD6BEE73E060
:1026500087E594E460D86091FC456251770B87E58B
:1026600094E440DD66EE73E087E594E4FCDC69ED1C
:1026700073E087E594E4F7DC61ED73E087E594E4CB
:102680004AD86091FD457091FE458091FF4590913B
:1026900000461ADE65EC73E087E594E43CD860916F
:1026A00005467091064680910746909108460CDEDB
:1026B0006CEB73E087E594E42ED860910D46709141
:1026C0000E4680910F4690911046FEDD62EB73E05E
:1026D00087E594E420D8609111467091124680916C
:1026E000134690911446F0DD69EA73E087E594E4BF
:1026F00012D86091154670911646809117469091B8
:102700001846E2DD6FE973E087E594E404D8609150
:10271000194670911A4680911B4690911C46D4DD53
:1027200066E973E087E594E40E948B0B60911D4697
:1027300070911E4680911F4690912046C5DD6CE841
:1027400073E087E594E40E948B0B609121467091C1
:1027500022468091234690912446B6DD63E873E0DB
:1027600087E594E40E948B0B609125467091264684
:102770008091274690912846A7DD69E773E087E5B9
:1027800094E40E948B0B6091294670912A468091B7
:102790002B4690912C4698DD60E773E087E594E442
:1027A0000E948B0B60912D4670912E4680912F4692
:1027B0009091304689DD66E673E087E594E40E94F7
:1027C0008B0B6091314670913246809133469091E7
:1027D00034467ADD6DE573E087E594E40E948B0B67
:1027E00060913546709136468091374690913846D3
:1027F0006BDD63E573E087E594E40E948B0B6091E9
:10280000394670913A4680913B4690913C465CDD5A
:1028100068E473E087E594E40E948B0B60913D4689
:1028200070913E4680913F46909140464DDD6EE36B
:1028300073E087E594E40E948B0B8091414690E021
:1028400056DC6EE273E087E594E40E948B0B809186
:102850004246909143464BDC8091FB4562E173E038
:10286000882311F069E173E087E594E4FCDB6FE114
:1028700073E087E594E40E948B0B8091444690E0DE
:1028800036CC0F931F93CF93DF93893208F07CC02F
:1028900090E0DC01A557BF4B2C912F3F09F474C089
:1028A0008C010C541F4BE801E881D0E2ED9FF00150
:1028B0001124FC5F611133C0268330812323AC01D6
:1028C00043525F4B211111C0EA012881309749F131
:1028D000283038F57096E20FF11D3FB7F89420814B
:1028E000611122C0277F20833FBFFA0130813F3F23
:1028F00009F44AC0E8012881363058F53091E605E0
:10290000432F4770241312C0EC91E53008F0EE0F0E
:102910008091010AE095E823E093010A35C0258300
:10292000CCCFF0E0E0E0D9CF2860DDCF387169F49A
:10293000213079F4EC91E53008F0EE0F8091410AF6
:10294000E095E823E093410A1FC0383111F42630A6
:1029500089F38E599F4BFC01808185FF13C030E1C4
:10296000839FF0011124F75F91819770973061F494
:10297000EC91853270F4803298F48830E1F2803145
:1029800021F202C08111F4CFDF91CF911F910F91FD
:102990000895803471F08038B9F71092A006F4CF12
:1029A00090E1899FF0011124F75F81818F7E8183FF
:1029B000EBCF8091920B8E2339F3C0E22C9F9001D4
:1029C00011243C5FE83030F5205F3F4FE20FF32FDA
:1029D000F11D4FB7F8949091800B9E7F9093800BE0
:1029E00090918E0B90FFFCCF2091920B90E0809500
:1029F000909530E08223932328ED24BF8093920B9F
:102A00008091800B81608093800B80818F778083A1
:102A10004FBFBACFF0E0E0E0DCCF0F931F93CF932E
:102A2000DF93CDB7DEB72897CDBFDEBF209120441E
:102A300030912144232B31F020918F4230919042EC
:102A4000232B61F410921F44109222442896CDBF8C
:102A5000DEBFDF91CF911F910F910895182F8091C4
:102A60005F400E94520810931F44112309F495C03F
:102A700020E030E040E85FE360912C4070912D4011
:102A800080912E4090912F400E94433787FF03C0D2
:102A90008FE180931F4000911F4090915E40E09134
:102AA0008F42F091904280E020E335E7981721F0C3
:102AB000219331938F5FFACF1092904510929245F7
:102AC0001092914510928F4510928E4510928D452F
:102AD00010928C4510928B4510928A451092894530
:102AE0001092884510922244CE010196FADC882388
:102AF00049F089818832C1F7809122448F5F8093A9
:102B00002244F2CF80915E4090912244891710F4C4
:102B100080932244E0912044F091214480818832C6
:102B2000A1F010E080912244181778F428E0129F59
:102B3000C00111242091204430912144820F931F21
:102B4000D0DC882311F01F5FEDCF0E94360960E0D2
:102B50008CEC0E94050960E08EE40E94050960E0AB
:102B600080E00E94050960E080E00E94050960E0C5
:102B7000802F0E9405090E94360960E08CEC0E94BB
:102B8000050961E088E40E94050964E170E080E0E5
:102B900090E00E94040C38D859CF8091274087FDDF
:102BA000FACF8932A4F4282F082E000C330BF90138
:102BB000E557FF4B90819F3F51F02C543F4BD9017B
:102BC000EC91B0E2EB9FF0011124FC5F918360E097
:102BD00058DE809127408932F0F690E0FC01E557FD
:102BE000FF4B20812F3FB9F2FC01EC54FF4BA08139
:102BF000E0E2AE9FD0011124BC5F83529F4BFC01E9
:102C00003081F0E0E0E0383028F4CD014096FC015E
:102C1000E30FF11D9FB7F89412962C938081877F64
:102C200080839FBFB8CFF894EBEEF5E4A081B1812B
:102C300011968C9111978C7F11968C93A081B18104
:102C40008C918F7B8C930190F081E02D808180832B
:102C500060E08DE016CECF93C82FE5DF8C2F0E9469
:102C6000180880E00E941808C82F61E08DE009DE96
:102C700078948C2FCF910895CF93DF93D82FC62FC0
:102C8000D2DF8D2F80680E9418088C2F0E941808B0
:102C900061E08DE0F6DD7894DF91CF9108958F9219
:102CA0009F92AF92BF92DF92EF92FF920F931F938A
:102CB000CF93DF9300D01F92CDB7DEB7082FE62E5B
:102CC000122F69ED423019F04330A1F564EE87E030
:102CD000D3DF60E088E0D0DF60E089E0CDDF0E94F4
:102CE000350C4B015C0181E0B6DF837E682F6061AB
:102CF00081E0C2DF0E94350C681979098A099B09B5
:102D00006F30710581059105D0F487E2A4DF87FF5C
:102D1000FCCF61E083E2B0DF83E29DDF81FFFCCF87
:102D200084E299DF833CC8F48DE395DF682F64600B
:102D30008DE3DFCF6CE687E09FDF60E8CBCFF12C3F
:102D400081E089DF682F637E81E096DF88E283DFA0
:102D5000807531F080E07FDFF9CFFF24F394F0CF6E
:102D6000602F80E389DF60E085E286DF1B821A82C4
:102D700020E1029FC00111240827D12C8E2D8F73D2
:102D8000E82E8B818430D8F588E265DF87FDF9CFA6
:102D90008B81813071F030F08230E9F08330F9F0CE
:102DA0006AEA04C08B818F5F8B8366E380E064DF17
:102DB000E8CF09832981898194E0299F900111241A
:102DC0008227807C89836A8189816F73682B8B81DC
:102DD0008F5F8B83EBCF6A81607C6E29F8CF81E0B7
:102DE0008D0DED2DF0E0ED5DFB4B6081D82E843331
:102DF000E9F68B818F5F8B8384E3D82ED7CF612F49
:102E00006F71606881E138DF81E025DF837E682FA4
:102E10006C6081E031DF88E21EDF83FD07C061E086
:102E200070E080E090E00E94040CF5CF81E013DFB9
:102E3000682F637E81E020DF8F2D2396CDBFDEBF1C
:102E4000DF91CF911F910F91FF90EF90DF90BF9096
:102E5000AF909F908F9008954F925F926F927F9264
:102E60008F929F92AF92BF92CF92DF92EF92FF929A
:102E7000CF93DF93C82FE0902140F09022406091E3
:102E800048407091494090E080E00E9447372B0114
:102E90003C0180914E4090914F4001968E9DB00133
:102EA0008F9D700D9E9D700D1124072E000C880BB8
:102EB000990B0E9449372BED3FE049EC50E40E940A
:102EC000A837A30192010E94A83720E034E244E72A
:102ED00059E40E94DD384B015C01D0E0CE0101963F
:102EE0008E9DB0018F9D700D9E9D700D1124072E3B
:102EF000000C880B990B0E944937A30192010E9494
:102F0000A83720E034E244E759E40E94DD386B0141
:102F10007C01CC0FDD1FCC0FDD1FFE01E050F04C1B
:102F200020E030E044EB53E4608171818281938141
:102F30000E94DD389B01AC01C701B6010E947638C2
:102F40002BED3FE049EC50E40E94A8372B013C01F7
:102F50000E94053A6B017C01C501B4010E94053A4B
:102F60009B01AC01C701B6010E94DD386B017C01F9
:102F7000FE01E755FD4BC082D182E282F382C3019C
:102F8000B2010E94DA382B013C01C501B4010E9454
:102F9000DA389B01AC01CF53DD4BC701B6010E946B
:102FA000A8379B01AC01C301B2010E947538688348
:102FB00079838A839B83DF91CF91FF90EF90DF909D
:102FC000CF90BF90AF909F908F907F906F905F90C9
:102FD0004F900895CF938093484090934940BC010F
:102FE00090E080E00E94473720912C4030912D40A6
:102FF00040912E4050912F400E94A8370E944A399C
:103000006093894270938A420E94040EC0E08091CE
:103010004E4090914F40C817190624F48C2F1CDFA6
:10302000CF5FF5CFCF9108954F925F926F927F92CD
:10303000AF92BF92CF92DF92EF92FF920F931F93C6
:10304000CF93DF93E82FCB01BA0168017901F0E05B
:10305000E650FC4B108124E0129FE0011124FE0198
:10306000E05DFF4B5F01209123403091244040916F
:103070002540509126400E94A8372B013C016091C9
:1030800095457091964590E080E00E9447379B01FE
:10309000AC01C301B2010E94DD38F5016083718388
:1030A00082839383C050D04CC882D982EA82FB824B
:1030B000812FDF91CF911F910F91FF90EF90DF90C3
:1030C000CF90BF90AF907F906F905F904F90C4CEA5
:1030D000EF93FF93E7E5F4E415C0EF93FF93E7E583
:1030E000F4E43FC0EF93E0E660C0EF93FF93EEEEB1
:1030F000F4E408C0EF93FF93EEEEF4E432C0EF93F4
:10310000E0E053C02F932FB72F938F939F93AF93EC
:10311000BF936894CF93DF9320E0C485D8E096896D
:10312000DF01A90FB21FA95ABF4F8C9120E42C8355
:103130008A839F5F9F738D812589291302C08F7DAC
:103140008D83968BDF91CF9116F00C94240BBF9159
:10315000AF919F918F912F912FBF2F91FF91EF9161
:1031600018952F932FB72F938F939F93CF93DF9320
:10317000C485D8E08981988181FD0DC0C38981E033
:103180008C0F8F732489281731F0CE0FDF2F20E0AA
:10319000D21F9F8B838BDF91CF919F918F912F9126
:1031A0002FBF2F91FF91EF911895FF938F938FB7BA
:1031B0008F93F8E08081848187FFFCCF85818F7BAE
:1031C000806885838F918FBF8F91FF91EF911895C4
:1031D0001F920F920FB60F9211248F939F93AF936C
:1031E000BF938091814290918242A0918342B0919D
:1031F00084420196A11DB11D809381429093824229
:10320000A0938342B093844281E08093260BBF91C8
:10321000AF919F918F910F900FBE0F901F901895B7
:103220000F930AE00FC00F9308E00CC00F9306E065
:1032300009C00F9304E006C00F9302E003C00F9390
:1032400000E000C00F920FB60F920BB60F921F92C4
:103250001124FF921F932F933F934F935F936F938C
:103260007F938F939F93AF93BF93CF93DF93EF930E
:10327000FF93A0E5B0E4A00FB11DCD91DC91000F4C
:103280000D5FA02FB0E0FC90109761F01F2D1695F8
:1032900018F041F02296FBCFE991F9913097B9F3FC
:1032A0000995F5CFA02FB0E0FC92FF91EF91DF914F
:1032B000CF91BF91AF919F918F917F916F915F91CE
:1032C0004F913F912F911F91FF901F900F900BBE38
:1032D0000F900FBE0F900F9118951F920F920FB67F
:1032E0000F9211240BB60F922F923F924F925F9242
:1032F0006F927F928F929F92AF92BF92CF92DF9206
:10330000EF92FF920F931F932F933F934F935F93EF
:103310006F937F938F939F93AF93BF93CF93DF93DD
:10332000EF93FF9381E080930D0680910404806801
:10333000809304044090100650901106C091804282
:10334000E2E0EC0F20914E4030914F40E21713061F
:1033500021F01CF0E1E0EC0FE21BF0E0E85EFF4B37
:10336000808180930806809104048F778093040401
:103370008091854290918642A0918742B091884287
:103380000196A11DB11D8093854290938642A09322
:103390008742B0938842C11147C480910404806879
:1033A0008093040480917E4290917F4280937C427E
:1033B00090937D42809195459091964596958795FD
:1033C000481A590A40927E4250927F4280917A4236
:1033D00090917B42AC015695479556954795841B35
:1033E000950BA20157FE04C04427552744195509DF
:1033F000840F951F80937A4290937B42E09193458E
:10340000F091944541E0E817F90708F040E0409357
:10341000B943141415040CF08EC041E050E0409301
:10342000784250937942A0917842B091794240918C
:10343000624250916342A417B50709F481C06091BC
:10344000A4416F5F6093A4416091A441633030F068
:103450001092A441A0936442B09365426091AD4143
:1034600061111092AD416090644270906542E8171E
:10347000F90708F070C281E06816710409F0C2C152
:103480004130510509F4C4C18091AB419091AC41E8
:1034900001968093AB419093AC41409120404423EE
:1034A00009F471C00A9708F46EC01092204010927F
:1034B000AB411092AC41C6E2D2E4A6EFB1E466ECB7
:1034C00071E44EEA51E490E080E082179307DCF566
:1034D000188219821A821B821C821D821E821F8200
:1034E00028961C9211961C92119712961C92129774
:1034F00013961C92139714961C92149715961C926F
:10350000159716961C92169717961C921797189651
:10351000FB0110821182128213821482158216829C
:103520001782685F7F4FFA011192119211921192E6
:10353000AF010196CACF109278421092794273CFB0
:103540001092A44181CF10926A4210926B42109265
:103550006C4210926D4210926E4210926F42109225
:10356000704210927142109266421092674210921D
:103570006842109269421092744210927542109201
:103580007642109277428091AB419091AC4140914C
:10359000A9415091AA418417950739F440912040E0
:1035A000411103C041E04093B8434091894250919A
:1035B0008A428417950708F42BC18091204081111D
:1035C00027C11092AB411092AC41C6E2D2E4A6EF03
:1035D000B1E416EC212E11E4312E6EEA71E450E0D4
:1035E00040E0421753070CF09BC088809980AA8066
:1035F000BB80CC80DD80EE80FF802896CA01E3E0AE
:10360000880F991FEA95E1F78C010F571C4BF801C1
:1036100080829182A282B382C482D582E682F782BE
:103620008C9011969C9011971296AC9012971396CD
:10363000BC9013971496CC9014971596DC90159720
:103640001696EC9016971796FC90179718968C0183
:103650000F5A1C4BF80180829182A282B382C482ED
:10366000D582E682F7828E0108501109F801108296
:1036700011821282138214821582168217828D01A2
:1036800008501109F80110821182128213821482EB
:10369000158216821782F10180809180A280B3800A
:1036A000C480D580E680F780F8E02F0E311C8C01B5
:1036B0000F5D1C4BF80180829182A282B382C4828A
:1036C000D582E682F782810108501109F801108243
:1036D0001182128213821482158216821782FB01D4
:1036E00081909190A190B190BF0175016401FF0C90
:1036F000CC08DC2C76018F509D4BFC01808291829E
:10370000A282B382C482C582C682C782CB010497DB
:10371000FC0110821182128213824F5F5F4F61CFD2
:103720008091664290916742A0916842B09169424F
:10373000AC01BD01770F440B542FBA018093DD42D9
:103740009093DE42A093DF42B093E0424093E14287
:103750004093E2424093E3424093E44270916A42D4
:1037600060916B4250916C4240916D4230916E423B
:1037700020916F4290917042809171427093E94222
:103780006093EA425093EB424093EC423093ED4217
:103790002093EE429093EF428093F04210926A425F
:1037A00010926B4210926C4210926D4210926E42D7
:1037B00010926F42109270421092714210926642C3
:1037C000109267421092684210926942809174424E
:1037D00090917542A0917642B09177428093E542F4
:1037E0009093E642A093E742B093E842109274426D
:1037F00010927542109276421092774281E0809347
:10380000B74306C0452B21F01092724210927342CA
:103810008091744290917542A0917642B091774226
:103820000196A11DB11D8093744290937542A0939F
:103830007642B093774280917242909173420196A2
:1038400080937242909373429201D2010E94E33AB4
:103850006B017C01FF0CCC08DC2C76019B01AC01D8
:103860006C2D7C2D8C2D9C2DA0906A42B0906B42CB
:10387000C0906C42D0906D42E0906E42F0906F42EA
:1038800000917042109171420E94F53A20936A4271
:1038900030936B4240936C4250936D4260936E4202
:1038A00070936F428093704290937142C201550CA5
:1038B000AA0BBB0B409166425091674260916842EF
:1038C00070916942840F951FA61FB71F80936642AF
:1038D00090936742A0936842B093694260926242BB
:1038E00070926342809104048F77809304048091E6
:1038F00080428F5F8093804220914E4030914F40B4
:103900008217130619F014F010928042FF91EF9184
:10391000DF91CF91BF91AF919F918F917F916F91E7
:103920005F914F913F912F911F910F91FF90EF90D9
:10393000DF90CF90BF90AF909F908F907F906F90CF
:103940005F904F903F902F900F900BBE0F900FBE47
:103950000F901F901895409185425091864260913A
:103960008742709188428091A5419091A641A09193
:10397000A741B091A84184179507A607B70748F457
:1039800080918E42811105C081E08093B84380937D
:103990008E4240918542509186426091874270915B
:1039A00088428091D9429091DA42A091DB42B09155
:1039B000DC4284179507A607B70708F029CF1092B5
:1039C000854210928642109287421092884281E08E
:1039D000809320401092AB411092AC41C6E2D2E4F9
:1039E00016EF212E11E4312EE6ECF1E46EEA71E4DB
:1039F00050E040E0421753070CF0C5C0CA01A3E0F5
:103A0000880F991FAA95E1F78C010F571C4BD8011D
:103A10001C9211961C92119712961C921297139653
:103A20001C92139714961C92149715961C92159736
:103A300016961C92169717961C928C010F5A1C4BC7
:103A4000D8011C9211961C92119712961C921297F3
:103A500013961C92139714961C92149715961C9209
:103A6000159716961C92169717961C921882198213
:103A70001A821B821C821D821E821F822896D101FF
:103A80001C9211961C92119712961C9212971396E3
:103A90001C92139714961C92149715961C921597C6
:103AA00016961C92169717961C92B8E02B0E311C96
:103AB00080809180A280B380C480D580E680F7802A
:103AC00038968C010F5D1C4BD8018C9211969C92FC
:103AD00011971296AC9212971396BC921397149664
:103AE000CC9214971596DC9215971696EC92169731
:103AF0001796FC927F01B8E0EB1AF108D7011C92EF
:103B000011961C92119712961C92129713961C9262
:103B1000139714961C92149715961C921597169647
:103B20001C92169717961C92DB018D909D90AD907C
:103B3000BD90BD0175016401FF0CCC08DC2C760141
:103B40008F509D4BDC018C9211969C92119712968E
:103B5000AC9212971396BC9213971496CC9214972A
:103B60001596CC9215971696CC9216971796CC92DE
:103B7000CB010497DC011D921D921D921C9213979C
:103B80004F5F5F4F37CF70916A4260916B425091A7
:103B90006C4240916D4230916E4220916F42909103
:103BA0007042809171427093E9426093EA4250936F
:103BB000EB424093EC423093ED422093EE429093DF
:103BC000EF428093F04210926A4210926B42109240
:103BD0006C4210926D4210926E4210926F4210929F
:103BE0007042109271428091664290916742A0911A
:103BF0006842B0916942AC01BD01770F440B542F6C
:103C0000BA018093DD429093DE42A093DF42B093ED
:103C1000E0424093E1424093E2424093E3424093CA
:103C2000E442CCCD1082B5C0D0E02C173D070CF497
:103C30005ECE809104048068809304042197FE0185
:103C4000EF54FC4B1E01220C331CB6E04B16510402
:103C50004CF381E0808380919545909196459695AF
:103C60008795F101EA5AFD4B60807180681A790AE4
:103C70004E0133E0880C991C3A95E1F7F401EA5DB6
:103C8000FD4BA0917C42B0917D4293010E94E33AAA
:103C90006B017C01FF0CCC08DC2C76019B01AC0194
:103CA0006C2D7C2D8C2D9C2DA080B180C280D3806A
:103CB000E480F580068117810E94F53A20833183E4
:103CC000428353836483758386839783F401EA5028
:103CD000FE4BA0917E42B0917F4293010E94E33A55
:103CE0006B017C01FF0CCC08DC2C76019B01AC0144
:103CF0006C2D7C2D8C2D9C2DA080B180C280D3801A
:103D0000E480F580068117810E94F53A2083318393
:103D1000428353836483758386839783F401EA53D4
:103D2000FE4B9301D3010E94E33A6B017C01FF0C2F
:103D3000CC08DC2C76019B01AC016C2D7C2D8C2DEC
:103D40009C2DA080B180C280D380E480F580068164
:103D500017810E94F53A2083318342835383648321
:103D6000758386839783CC0FDD1FCC0FDD1FC25573
:103D7000DE4BC301770CAA0BBB0B488159816A81CA
:103D80007B81840F951FA61FB71F88839983AA8301
:103D9000BB83F101EA5AFD4B40825182A3CDCF9201
:103DA000DF92EF92FF920F931F93CF93DF9300D098
:103DB000CDB7DEB71092594410925A4448EE53E002
:103DC00060E070E040935B4450935C4460935D44DA
:103DD00070935E442AE031E4209357443093584472
:103DE00080E698E0809363449093644485EC9FE080
:103DF000809365449093664482E080936744109278
:103E00006844109269441092F0441092F144409337
:103E1000F2445093F3446093F4447093F544209338
:103E2000EE443093EF4420E038E02093FA4430939E
:103E3000FB442EEC3FE02093FC443093FD44809300
:103E4000FE441092FF441092004510929745109244
:103E5000984533E030939B4521E020939C458EE6C6
:103E600090E0A0E0B0E080939D4590939E45A093A4
:103E70009F45B093A0451092A1451092A245109283
:103E8000A3451092A4451092A5451092A645109204
:103E9000A7451092A8451092AD451092AE453093BB
:103EA000B1452093B2458093B3459093B445A09318
:103EB000B545B093B6451092B7451092B8451092EB
:103EC000B9451092BA451092BB451092BC4510926C
:103ED000BD451092BE4521E030E00090604002C038
:103EE000220F331F0A94E2F72093954530939645AD
:103EF00045E0369527954A95E1F720939345309311
:103F0000944580915F400E9452088EEF90E080932C
:103F1000E5459093E6458DE190E08093E1459093EF
:103F2000E24581E990E08093DF459093E04582E9A6
:103F300095E08093E7459093E8458FEF95E1809376
:103F4000E9459093EA451092E3451092E44552E921
:103F5000E52E55E0F52EC701957189839A83CE0130
:103F600001960E94F80E67019DE1C90ED11C8F3F9A
:103F700019F1E092E345F092E4458FEFC81685E130
:103F8000D80664F4C601957189839A83CE0101969F
:103F90000E94F80E8F3F61F00E94AA0F40E05BE1A3
:103FA00067EB70E080E08F5F863069F487E016C0D1
:103FB0009DE1C90ED11CE1CF76018FEFC81685E1D6
:103FC000D80649F6EBCF76956795579547954130DA
:103FD00099E059079DE36907710528F794E09093EC
:103FE000F745282F2095022F017010E024E0000FE4
:103FF000111F2A95E1F721E08162802B8093F6451D
:1040000040E459E04093EB455093EC459093EE45E6
:1040100086E08093EF451092F1451092F24520938F
:10402000F84582ED8093F9458FE08093FA4520931F
:10403000FB4589E18093FC458AE999E9AAE4B4E467
:104040008093FD459093FE45A093FF45B0930046B5
:104050008093014690930246A0930346B093044692
:1040600080E090E0A0E7B3E4809305469093064695
:10407000A0930746B093084680E090E0A8E4B2E43D
:104080008093094690930A46A0930B46B0930C4642
:1040900046E656E266E972E440930D4650930E46BA
:1040A00060930F467093104680E090E0A0ECBFE371
:1040B0008093114690931246A0931346B0931446F2
:1040C00040931546509316466093174670931846D2
:1040D0008093194690931A46A0931B46B0931C46B2
:1040E00040931D4650931E4660931F467093204692
:1040F0008093214690932246A0932346B093244672
:104100004093254650932646609327467093284651
:104110008093294690932A46A0932B46B0932C4631
:1041200040932D4650932E4660932F467093304611
:104130008093314690933246A0933346B0933446F1
:1041400040933546509336466093374670933846D1
:104150008093394690933A46A0933B46B0933C46B1
:104160008AE999E9ADE1B1E480933D4690933E46FA
:10417000A0933F46B09340462093414684E690E0AA
:1041800080934246909343462093444610925D4666
:104190000F900F90DF91CF911F910F91FF90EF90B3
:1041A000DF90CF900895CF93DF93CDB7DEB7C2589D
:1041B000D109CDBFDEBF88ED94E284BF9093680043
:1041C00021E02093030A8EEF8093260A8093270A2A
:1041D0009BE09093000A32E03093E6052093430A77
:1041E0008093660A8093670A9093400A9093E7054C
:1041F000E0E0FBE027E09EEF85E0218394871586D1
:1042000080837096E0343BE0F307B9F72FEF3FE08F
:104210002093AA0B3093AB0B90E89093820B1092F3
:10422000810B2BEF33E02093AE0B3093AF0B91E774
:104230009093800B809302069EE09093050690E693
:1042400090930306809300068091B000887F85607C
:104250008093B0008091B200887F85608093B20027
:104260008FED9EE280932C0B90932D0B81E0809339
:10427000250B1092210B83E08093200B789484E02F
:104280008093210461E08AE00E9441149FB7F89472
:1042900080E1809302048091140488608093140468
:1042A0009FBF9FB7F89480E2809302048091150429
:1042B0008860809315049FBF40E052EC61E070E09D
:1042C00087E594E40E94D60F8091080484FD05C020
:1042D0008091FA458F5F8093FA4567EA74E087E53D
:1042E00094E40E948B0B6BE371E487E594E40E94F5
:1042F000E80F61E974E087E594E40E94331085E1FA
:1043000090E00E94270F882341F1CE0101960E9480
:10431000FF0E09811A8117FD20C0680143E0C40E19
:10432000D11C28EFE22E25E4F22E87E090E05C011C
:104330005FEFA51AB50A8A879B87CE010A960E946D
:10434000F80ED7018D937D01C501AC14BD0478F33F
:1043500064E274E00430110511F463E174E087E570
:1043600094E40E9433100E94EF128091FB45882351
:1043700009F450C068E874E087E594E40E948B0B70
:1043800060E874E087E594E40E948B0B8091F84527
:10439000813031F469E774E087E594E40E948B0B87
:1043A0008091F845823031F462E774E087E594E467
:1043B0000E948B0B8091F845833031F46BE674E0FA
:1043C00087E594E40E948B0B62E674E087E594E451
:1043D0000E948B0B4091F94550E070E060E02AE0CC
:1043E00087E594E40E94EF0F6AE574E087E594E4C2
:1043F0000E948B0B4091FA4550E070E060E02AE0AB
:1044000087E594E40E94EF0F68E574E087E594E4A3
:104410000E9433108091080485FD13C081E08093D1
:104420008C4266E474E087E594E40E948B0B609113
:1044300001467091024680910346909104460E9485
:1044400064118091FB45882309F42BC169E374E072
:1044500087E594E40E94331061E08DE00E944114EE
:1044600080E2809321048091F245811118C010925E
:10447000F1458EE08093EE4580E18093EF4580E644
:1044800099E08093EB459093EC451092F3451092A0
:10449000F54580E88093F44581E08093F245A09152
:1044A000EB45B091EC459091F1458091E405A03445
:1044B000E9E0BE0709F038C28C7F892B8093E405C0
:1044C0002091EF45822F90E0293280F4FC01E557DE
:1044D000FF4B20812F3F51F08C549F4BFC0190816A
:1044E00030E2939FF0011124FC5F21832091EE457F
:1044F000822F90E0293280F4FC01E557FF4B2081A8
:104500002F3F51F08C549F4BFC01908130E2939FE0
:10451000F0011124FC5F218311968C911197846026
:1045200011968C93E091EB45F091EC45808181628E
:1045300080839091F6458091F745E091EB45F091AD
:10454000EC459083E091EB45F091EC458183E0915F
:10455000EB45F091EC4580818F7B8083E091EB45CA
:10456000F091EC4581818C7F8183E091EB45F09166
:10457000EC45808180836AEA8FE20E943C168FE2DC
:104580000E942B168A3AB9F765E58FE20E943C1625
:104590008FE20E942B168535B9F764E081E00E9416
:1045A0003C1660E082E00E943C1662E083E00E94DC
:1045B0003C166AE884E00E943C1662E085E00E94B6
:1045C0003C1661EE86E00E943C1660E28BE00E94A1
:1045D0003C166AE489E10E943C1662E48AE10E948A
:1045E0003C1669E981E10E943C166CE28EE10E9472
:1045F0003C1660E885E20E943C1667E086E20E9475
:104600003C1668EC89E20E943C1665E08DE20E944F
:104610003C1668E88EE20E943C166DE28FE20E9432
:104620003C1660ED87E30E943C1662E488E30E943A
:104630003C166FE88CE30E943C1662E18DE30E9419
:104640003C1660E28FE60E943C1662E081E70E9421
:104650003C160AE010E00093294410932A4420916C
:10466000FC454091F8456091FA4581E00E944F1663
:1046700064E670E080E090E00E94040C01501109B3
:1046800050F71092294410922A446091FA4554E15F
:10469000659FB0011124072E000C880B990B0E9416
:1046A000040C60E08AE00E9441148CE090E080936A
:1046B0006040909361408DE190E080932140909321
:1046C000224080E090E1809395459093964580E864
:1046D00090E080939345909394458FE692E1A3E810
:1046E000BFE38093234090932440A0932540B09350
:1046F00026408091FD459091FE45A091FF45B091E7
:1047000000461092184080934A4090934B40A093EB
:104710004C40B0934D40F0908C42FF2081F080914E
:10472000014690910246A0910346B09104468093C1
:104730004A4090934B40A0934C40B0934D40009121
:104740001146109112462091134630911446409123
:104750000D4650910E4660910F467091104683E0D1
:104760000E94BF0E0091194610911A4620911B46D7
:1047700030911C464091154650911646609117465F
:104780007091184684E00E94BF0E0091214610915E
:104790002246209123463091244640911D46509157
:1047A0001E4660911F467091204685E00E94BF0E14
:1047B0000091294610912A4620912B4630912C4693
:1047C0004091254650912646609127467091284693
:1047D00086E00E94BF0E0091314610913246209132
:1047E00033463091344640912D4650912E4660918B
:1047F0002F467091304688E00E94BF0E00913946E6
:1048000010913A4620913B4630913C4640913546C6
:1048100050913646609137467091384689E00E9443
:10482000BF0EFF2021F08CE390E00E94EA17609118
:104830003D4670913E4680913F46909140460E9491
:10484000760E8091054690910646A0910746B0915C
:1048500008468093284090932940A0932A40B09323
:104860002B40809141468093974581E08093984505
:1048700086E080939B4580939C4580914246909131
:104880004346092E000CAA0BBB0B80939D459093C9
:104890009E45A0939F45B093A0458CE080935F40D8
:1048A0008BE08093274088E08093210461E08BE0D7
:1048B0000E9441148FE580931F4085E496E4809325
:1048C0002044909321441092454689E194E48093DA
:1048D0008F429093904283E080935E40E090E34566
:1048E000F090E445E114F10409F4A3C087010F5FDF
:1048F0001F4F93ECC92E95E4D92E8091E1459091FC
:10490000E2458E0D9F1D0817190784F4C8019571A3
:1049100089839A83CE0101960E94F80ED6018D9369
:104920006D010F5F1F4FE9CF837FC7CD0091C34556
:104930001091C4452091C5453091C6458091C74529
:104940009091C845A091C945B091CA454090CB45CA
:104950005090CC456090CD457090CE458090CF452D
:104960009090D045A090D145B090D2452090D345AD
:104970003090D445F091D545E091D645C090D745CB
:10498000D090D845E090D945F090DA45722D632D4E
:10499000AF010093C6431093C7432093C84330939D
:1049A000C9438093CA439093CB43A093CC43B09325
:1049B000CD434092CE435092CF436092D043709209
:1049C000D1438092D2439092D343A092D443B092E9
:1049D000D5432092D6433092D743F093D843E09307
:1049E000D943C092DA43D092DB43E092DC43F092A9
:1049F000DD437093A1456093A2455093A345409336
:104A0000A445809144460E940D1580918B428823D5
:104A100041F1282F30E020934E4030934F408F5F7C
:104A200090E08630F0F4FC01EF54FC4B10820196CC
:104A3000F8CF70E060E050E040E0C12CD12C76016E
:104A4000212C312CF0E0E0E0812C912C5401412C00
:104A5000512C320180E090E0DC0100E010E0980190
:104A600098CF8090234090902440A0902540B09013
:104A70002640609195457091964590E080E00E94B7
:104A800047372B013C0120914A4030914B404091E7
:104A90004C4050914D40C501B4010E94A837A3017C
:104AA00092010E94DD3860934A4070934B4080939E
:104AB0004C4090934D4001E9C02E02E4D02E80E39B
:104AC000E82E80E4F82E10E000E080914E409091B6
:104AD0004F4008171907FCF4F7012081318142810A
:104AE0005381C501B4010E94A837A30192010E941D
:104AF000DD38D7016D937D938D939D937D01802F3C
:104B00000E942C17F60111921192119211926F01CD
:104B10000F5F1F4FDACF80E09EE08093994590931E
:104B20009A4582E09EE08093AF459093B04581E046
:104B300080932040109285421092864210928742C4
:104B4000109288429EE09093050690910306909300
:104B500003061092B00096E0909302068093000640
:104B600090910006909300069091000692609093B9
:104B700000061092080690910C06916090930C0626
:104B800080930A067894C0902C40D0902D40E090FD
:104B90002E40F0902F40609148407091494090E045
:104BA00080E00E944737A70196010E94A8370E9423
:104BB0004A396093894270938A421092B74320E049
:104BC00034E244E759E4C701B6010E94A8376B01FB
:104BD0007C016091214070912240072E000C880BCF
:104BE000990B0E9449379B01AC01C701B6010E9495
:104BF000DD380E944A396093D9427093DA4280933B
:104C0000DB429093DC4280E88093010460E087E01F
:104C10000E94411407E915E4F12CD8018C918823F6
:104C2000B1F114962C91822F90E0293220F5FC01ED
:104C3000E557FF4B20812F3FF1F0FC01EC54FF4B77
:104C4000A081E0E2AE9FD0011124BC5F83529F4B54
:104C5000FC013081F0E0E0E0383028F4CD014096EE
:104C6000FC01E30FF11D9FB7F89412962C938081FD
:104C7000886080839FBF62E07EE08091B245F11042
:104C800004C060E07EE080919C450E9423080A5E9B
:104C90001F4FF1E0FF12E2C010922344109224440F
:104CA00010922544109226440E94CD111E012AE044
:104CB000220E311C87E594E40E94D109892B51F121
:104CC00080918D428111D5C065E070E0CE010196E2
:104CD0000E94410C0597F1F489818B32D9F48A81C5
:104CE0008B32C1F48C818D30A9F48D818A3091F49E
:104CF0008B818B3209F0B5C081E080938D4212E048
:104D000061EA76E087E594E40E943310123011F4F2
:104D10000E94720B8091B843882369F11092B843C6
:104D200080911F44882339F18091274087FD19C065
:104D30008932A4F4282F082E000C330BF901E55713
:104D4000FF4B90819F3F51F02C543F4BD901EC9188
:104D5000B0E2EB9FF0011124FC5F918361E00E94BF
:104D600041140E94360960E08CEC0E94050961E064
:104D700084E40E9405098091B743882311F40C94C0
:104D800037371092B743F89420914E4030914F40FE
:104D900090E080E0821793070CF0C9C4FC01EF5447
:104DA000FC4B4081411158C0FC01B3E0EE0FFF1FE6
:104DB000BA95E1F7DF01AF57BC4B1C9211961C92DC
:104DC000119712961C92129713961C921397149691
:104DD0001C92149715961C92159716961C9216976E
:104DE00017961C92DF01AF5ABC4B1C9211961C9275
:104DF000119712961C92129713961C921397149661
:104E00001C92149715961C92159716961C9216973D
:104E100017961C92DF01AF5DBC4B1C9211961C9241
:104E2000119712961C92129713961C921397149630
:104E30001C92149715961C92159716961C9216970D
:104E400017961C92EF50FD4B108211821282138232
:104E5000148215821682178201969CCFFF24F39448
:104E6000DCCE833709F056CF81E080938D4211E08C
:104E700047CF87E594E40E94AF09E1ECE80FEC33FB
:104E800008F06DC00E2E000CFF0BE75BF84D0C9484
:104E9000DA3A922BAF27AF27AF27AF27AF27AF273D
:104EA000AF27AF27AF27AF27AF27AF27AF27AF2752
:104EB000AF27AF27AF27AF27AF27AF27AF27AF2742
:104EC000AF27AF27AF27AF27AF27AF27AF27AF2732
:104ED000AF27AF27AF278527BB27E427F027AF27CA
:104EE0000D281F28AF279B29AF2738284329482999
:104EF0009B29AF27B329AF27C929002AD02AAF277A
:104F0000342B412B4D2BAF27612B0E94120D609348
:104F1000054670930646809307469093084665E9D8
:104F200076E087E594E40E948B0B609105467091D2
:104F3000064680910746909108460E946411809130
:104F4000054690910646A0910746B0910846809389
:104F5000284090932940A0932A40B0932B4087E5A6
:104F600094E40E94D109892B09F4D4CE87E594E416
:104F70000E94AF09F4CF0E94BA0C6430F9F0683097
:104F8000B9F0693079F01092F84570E060E087E59B
:104F900094E40E94721060E976E087E594E40E9450
:104FA0003310DDCF83E08093F84563E973E0EFCF02
:104FB00082E08093F84564E673E0E9CF81E0809376
:104FC000F84561EB71E0E3CF0E94BA0C61307105E6
:104FD00021F481E080935D46C2CF10925D46BFCF41
:104FE0000E94120D6B017C010E94760EC0923D461C
:104FF000D0923E46E0923F46F09240466FE776E020
:1050000087E594E40E948B0B42E050E0C701B601B3
:105010000E9471116CE776E0C0CF0E94120D0E94D1
:1050200045396B01CB010E94EA1765E776E087E519
:1050300094E40E948B0BC6010E94771090CF0E94CF
:10504000BA0C6093F9456EE676E087E594E40E9439
:105050008B0B4091F94550E070E060E02AE087E575
:1050600094E40E94EF0F87E594E40E94301077CF1C
:105070000E94BA0C2B018B010E94120D6B017C0166
:105080000E94120D4B015C010730110508F040C071
:10509000F201E35BF74D0C94DA3A5428B328CB289D
:1050A000E328FB2813292B29209123403091244009
:1050B0004091254050912640C701B6010E94A83773
:1050C0006C877D878E879F87609195457091964507
:1050D00090E080E00E9447379B01AC016C857D85A4
:1050E0008E859F850E94DD3860934A4070934B40C7
:1050F00080934C4090934D4080918C42882351F195
:10510000C0920146D0920246E0920346F0920446D5
:1051100067E676E087E594E40E948B0BB20187E5B1
:1051200094E40E94721065E676E087E594E40E94BC
:105130008B0B42E050E0C701B6010E94711163E69B
:1051400076E087E594E40E948B0BC501B4010E94D0
:10515000641105CFC092FD45D092FE45E092FF4517
:10516000F0920046D5CF9C018B01B701A60181E0EA
:105170000E941418C0920D46D0920E46E0920F463F
:10518000F09210468092114690921246A0921346D9
:10519000B0921446BDCF9C018B01B701A60182E0FD
:1051A0000E941418C0921546D0921646E0921746F7
:1051B000F09218468092194690921A46A0921B4689
:1051C000B0921C46A5CF9C018B01B701A60183E0DC
:1051D0000E941418C0921D46D0921E46E0921F46AF
:1051E000F09220468092214690922246A092234639
:1051F000B09224468DCF9C018B01B701A60184E0BB
:105200000E941418C0922546D0922646E092274666
:10521000F09228468092294690922A46A0922B46E8
:10522000B0922C4675CF9C018B01B701A60185E099
:105230000E941418C0922D46D0922E46E0922F461E
:10524000F09230468092314690923246A092334698
:10525000B09234465DCF9C018B01B701A60186E078
:105260000E941418C0923546D0923646E0923746D6
:10527000F09238468092394690923A46A0923B4648
:10528000B0923C4645CF0E94EF120E94CD1167CEEE
:105290000E94BA0C8B010E94BA0C0E9449376B0124
:1052A0007C0187E594E40E94D109892B29F087E5E8
:1052B00094E40E94AF09F5CF01151105B9F0013052
:1052C0001105E1F06AE576E087E594E40E948B0B36
:1052D00062E576E0012B09F460CE42E050E0C701C0
:1052E000B6010E94711166E576E057CE109297459F
:1052F00081E08093984510924146E4CFC701B60102
:105300000E9445394B01072E000CAA08BB08809269
:105310009D4590929E45A0929F45B092A04521E068
:1053200020939745209398452093414660934246A9
:1053300070934346C7CF0E94BA0C662389F070E091
:105340006034710514F06FE370E06093FA456CE42B
:1053500076E087E594E40E948B0B4091FA457BCE82
:1053600061E070E0F2CF0E94BA0C6F716093FC456F
:1053700067E476E087E594E40E948B0B6091FC453E
:105380006251770B87E594E40E94721062E476E044
:1053900004CE87E594E40E94D109892B29F087E5A2
:1053A00094E40E94AF09F5CF63ED75E087E594E4DE
:1053B0000E94331085E190E00E94270F882389F036
:1053C000CE0101960E94FF0E89819A8197FD09C046
:1053D00091958195910989839A83CE0101960E94C6
:1053E000820F65EA75E087E594E40E94331068EC6B
:1053F00070E080E090E00E94040C0C940000AFCDBF
:105400006BE975E087E594E40E94331085E190E054
:105410000E94270F811128C019821A826FE4CE01E1
:1054200001960E945F0F81E090E089839A8365E492
:10543000CE0101960E945F0F42E050E049835A83FB
:105440006DE4CE0101960E945F0F03E010E0098336
:105450001A836FEFCE0101960E945F0F0F5F1F4FFF
:10546000011556E1150799F76AE670E069837A83BA
:1054700085E190E08B839C83CE0101960E94820F90
:1054800008EF15E487E090E0D8016D918D017C0173
:10549000BFEFEB1AFB0A8A879B87C1010E945F0F4F
:1054A000C7018D36910581F790E080E00E94270FBB
:1054B000811122C063E775E08EEE94E40E948B0BAD
:1054C0002AE040E056E160E070E08EEE94E40E9455
:1054D000EF0F6DE475E08EEE94E40E94331060E00F
:1054E00076E190E080E00E9472116BE475E08EEE50
:1054F00094E40E948B0B0EC0CE0101960E94FF0E19
:105500008B819C81019669F46AEF74E08EEE94E4DD
:105510000E94331087E594E40E9430106AE775E03A
:105520003CCD6DEE74E08EEE94E40E948B0B4B81CB
:105530005C8170E060E02AE08EEE94E40E94EF0F60
:1055400009811A8117FF03C01195019511090450B3
:1055500011096FED74E08EEE94E40E948B0BB8019C
:105560008EEE94E40E94721068ED74E08EEE94E486
:105570000E948B0B89819A8197FF06C06DEC74E0C5
:105580008EEE94E40E948B0B8EEE94E40E94301019
:10559000B80187E090E00E9472116BEC74E0A7CF35
:1055A0000E94BA0C6B01CB01892B71F40E94BA0CDA
:1055B00021E0672B682B692B09F420E020934446F7
:1055C000822F0E940D15CBCC6430710508F0C7CC3A
:1055D00061E070E0C1010E94410C10E000E061E078
:1055E00070E0C1010E94410C892B49F1083038F567
:1055F0008A85803221F08D3011F08A3051F4E1E05B
:10560000F0E0EC0FFD1FE00FF11D10830F5F10E0C5
:10561000E6CF1295107F90ED980F9A3030F09FEB07
:10562000980F963020F499EC980F190FD8CF9FE976
:10563000980F963010F499EAF7CF90E0F6CFDE019C
:10564000119613E0CC0CDD1C1A95E1F790E080E098
:105650002D91F601E80FF91FE35CF94B20830196C9
:1056600088309105A9F77BCC67E176E087E594E483
:105670000E948B0B6BE371E487E594E40E94E80FD2
:105680006ECC0E94BA0C6093FB45662319F061E171
:1056900076E083CC6AE076E080CC6CEF75E087E55D
:1056A00094E40E94331087E594E40E94D109892B89
:1056B00029F087E594E40E94AF09F5CF10928D425E
:1056C00029CB62EE75E087E594E40E9433100E94D6
:1056D000AA0F1092C6431092C7431092C84310926B
:1056E000C9431092CA431092CB431092CC431092FC
:1056F000CD431092CE431092CF431092D0431092DC
:10570000D1431092D2431092D3431092D4431092BB
:10571000D5431092A1451092A2451092A345109234
:10572000A4451DCC0E94720B60EE75E036CC07E9F3
:1057300015E4F12CE12CCC24C394D12CA6E1BA2E93
:10574000F8018181882309F477C080818823D1F111
:105750008481893228F590E0FC01E557FF4B4081B8
:105760004F3FF1F0FC01EC54FF4B2081F0E22F9F02
:10577000900111243C5F83529F4BDC018C91F0E03F
:10578000E0E0883020F4F9017096E80FF11D9FB732
:10579000F894D90112964C938081886080839FBFD2
:1057A00060E07EE080919C45E114F10421F062E02C
:1057B0007EE08091B2450E9423083EC0EE24E3942F
:1057C000F12CBECF85818932A0F590E0FC01E35237
:1057D000FF4B20812F3F69F18C549F4BDC018C9152
:1057E000E82FE295EE0FE07EE20FF0E0E05FFB4F86
:1057F0009081917F908390E0FC0134E0EE0FFF1FD9
:105800003A95E1F7422F50E0260102C0440C551CA6
:105810002A95E2F74382880F991FFC01E05BFF4B5A
:10582000440F551F0190F081E02DE40FF51F108209
:105830001182D80111961C92BE9CF001BF9CF00D04
:105840001124E956FA4B86859785A089B189892B61
:105850008A2B8B2BC9F04685578560897189D801C1
:105860001A964D905D906D907C901D97440D551D3E
:10587000661D771D1A964D935D936D937C931D97CE
:1058800016861786108A118A0A5E1F4FEA94EF283F
:1058900009F094CF78942091E9423091EA42409106
:1058A000EB425091EC426091ED427091EE4280915A
:1058B000EF429091F0424090E5425090E642609075
:1058C000E7427090E8421091DD420091DE42C090C4
:1058D000DF42C88AD090E042D88EE090E142EA8E62
:1058E000F090E242FC8EC090E342CE8ED090E44233
:1058F000D8A2E090DD42ECA2F090DE42F8A6C09083
:10590000DF42CAA6D090E042DEA6E090E142EAAAD9
:10591000F090E242FCAAC090E342CC8AD090E442EC
:10592000D8AEC090E542D090E642E090E742F090D9
:10593000E842CC86DD86EE86FF868090E542909038
:10594000E642A090E742B090E8420E947A396B01AB
:105950007C01C301B2010E9449379B01AC01C70120
:10596000B6010E94DD386B017C01212F302F488960
:10597000588D6A8D7C8D8E8D98A10E9476392B0171
:105980003C012CA138A54AA55EA56AA97CA98C89F1
:1059900098AD0E9476399B01AC01C301B2010E940F
:1059A000A8372B013C016C857D858E859F850E94E3
:1059B00049379B01AC01C301B2010E94DD382B01C4
:1059C0003C01C501B4010E9449379B01AC01C301F0
:1059D000B2010E94DD389B01AC01C701B6010E94F3
:1059E00075380E940F3A40904A4050904B4060906A
:1059F0004C4070904D4048A259A26AA27BA2A301DC
:105A000092010E94A8376CA37DA38EA39FA36093ED
:105A1000DE437093DF438093E0439093E1436090D3
:105A20004E4070904F4068A679A68090E5429090D5
:105A3000E642A090E742B090E8426091D94270916E
:105A4000DA428091DB429091DC420E9447376B0141
:105A50007C01D3011196A50194010E94EF3A0E94A6
:105A600049379B01AC01C701B6010E94DD386AA726
:105A70007BA78CA79DA77090B9432F967FAE2F97D9
:105A8000C0902840D0902940E0902A40F0902B40D0
:105A90006396CCAEDDAEEEAEFFAE639740902C4089
:105AA00050902D4060902E4070902F404CAA5DAADF
:105AB0006EAA7FAA26EC33E42A8F3B8F4AEB53E48D
:105AC000488B598B61E074E46C877D8781EC92E4AC
:105AD0008AAB9BABA9EAB2E4AC8FBD8FE2EEF3E4F4
:105AE000E8AFF9AF20E330E42E8F3F8F41E952E475
:105AF000488F598F10E000E048A459A404151505FB
:105B00000CF09CC3B80183E0660F771F8A95E1F71C
:105B1000FB01EF57FC4B508064965FAE6497618049
:105B200065966FAE6597728066967FAE6697C38006
:105B30006796CFAE6797D4806896DFAE6897E580AA
:105B40006996EFAE6997F6806A96FFAE6A974780CE
:105B50006B964FAE6B97AAA9BBA9CD90DD90ED9047
:105B6000FD90AAABBBABCAAEDBAEECAEFDAEFB01AB
:105B7000EF5AFC4B40806C964FAE6C9751806D96FF
:105B80005FAE6D9762806E966FAE6E9773806F9604
:105B90007FAE6F97C480A096CFAEA097D580A19618
:105BA000DFAEA197E680A296EFAEA297F780A3960C
:105BB000FFAEA397AC8DBD8D4D905D906D907D90A7
:105BC000AC8FBD8F22964CAE5DAE6EAE7FAE22978F
:105BD0004090E5425090E6426090E7427090E84283
:105BE00026964CAE5DAE6EAE7FAE26975090DD42EF
:105BF000A4965FAEA4976090DE42A5966FAEA5977F
:105C00007090DF42A6967FAEA697C090E042A7961E
:105C1000CFAEA797D090E142A896DFAEA897E090CC
:105C2000E242A996EFAEA997F090E342AA96FFAEA2
:105C3000AA974090E442AB964FAEAB979B012F5092
:105C40003D4B7901D901BC91AC96BFAFAC97F9013E
:105C5000F181AD96FFAFAD97D9011296BC91AE968A
:105C6000BFAFAE97F901F381AF96FFAFAF97D90100
:105C70001496BC91E096BFAFE097F901F581E196EB
:105C8000FFAFE197D9011696BC91E296BFAFE297BC
:105C9000F901F781E396FFAFE3974090E54250901A
:105CA000E6426090E7427090E8422A964CAE5DAEC4
:105CB0006EAE7FAE2A974090E5425090E6426090EB
:105CC000E7427090E8422E964CAE5DAE6EAE7FAE6F
:105CD0002E97AE8DBF8D4D905D906D907D90AE8F67
