:100200004EC5000076C5000074C500000C943B117B
:1002100070C500006EC500006CC500006AC5000016
:100220000C947C1166C5000064C5000062C5000026
:1002300060C500005EC500005CC500005AC5000036
:1002400058C5000056C5000054C5000052C5000046
:1002500050C500004EC500004CC500004AC5000056
:1002600048C5000046C500000C94981142C5000026
:1002700040C500003EC500003CC500000C94421182
:1002800038C5000036C5000034C500000C946A1162
:1002900030C500002EC500002CC500002AC5000096
:1002A00028C5000026C5000024C5000022C50000A6
:1002B00020C500001EC500001CC500001AC50000B6
:1002C00018C5000016C5000014C5000012C50000C6
:1002D00010C500000C94CE100C94C9100C94D310CF
:1002E00008C5000006C5000004C5000002C50000E6
:1002F00000C500004E414E494E495459494E46CD25
:10030000CCCC3D0AD7233C17B7D13877CC2B3295CC
:1003100095E6241FB14F0A000020410000C84200AA
:10032000401C4620BCBE4CCA1B0E5AAEC59D744A2A
:10033000534F4E20466F726D6174204F6666004ABF
:10034000534F4E20466F726D6174206F6E0052469F
:10035000206F6666005246206F6E0070756C736584
:1003600020706572696F64203D200070756C736544
:1003700073203D2000646174616C6F67203D200034
:10038000694C656164006943616C007643616C206F
:100390003D200043616C6962726174696F6E3A005E
:1003A0002064426D002C20002C204E6F64652000DC
:1003B000204D487A2C2047726F7570200042616E84
:1003C00064200053657474696E67733A004E6F2041
:1003D000454550524F4D20636F6E666967004C6F04
:1003E0006164656420454550524F4D20636F6E66D1
:1003F0006967005265666572656E636520766F6C2D
:10040000746167652063616C6962726174696F6EA3
:100410003A20002000204E6F64653A200020477289
:100420006F75703A20003931354D487A00383638CA
:100430004D487A003433334D487A00204672657156
:100440003A200052464D3639435720004F70656EB2
:10045000456E657267794D6F6E69746F722E6F723B
:100460006700656D6F6E54782056342044422043F7
:100470006F6E74696E756F7573204D6F6E69746FF2
:1004800072696E672056000A0020286869646465F6
:100490006E292E00206279746573002C20446174EB
:1004A000612073697A653A2000205369676E617430
:1004B0007572653A20004E6F206461746120626C31
:1004C0006F636B20666F756E64202D20454550521A
:1004D0004F4D206170706561727320746F2062658A
:1004E00020666F726D617474656420746F204F456F
:1004F0004D205374616E646172642062757420755E
:100500006E757365642E000A002062797465732C21
:10051000206E6F7420666F726D61747465642074F0
:100520006F204F454D205374616E646172640053B7
:10053000697A653A2000446F6E652E204E657720FB
:10054000636F6E66696720736176656420746F20DF
:10055000454550524F4D00536176696E672E2E2EE1
:1005600000536B657463682077696C6C206E6F77DD
:100570002072657374617274207573696E6720648C
:10058000656661756C7420636F6E6669672E0052D4
:100590006573657474696E672E2E2E0020000A4103
:1005A0007661696C61626C6520636F6D6D616E640C
:1005B000733A0A6C09092D206C697374207468659C
:1005C0002073657474696E67730A7209092D20724D
:1005D0006573746F726520736B65746368206465FE
:1005E0006661756C74730A7309092D2073617665F1
:1005F0002073657474696E677320746F204545506D
:10060000524F4D0A7609092D2073686F772066696D
:10061000726D776172652076657273696F6E0A7AA2
:1006200009092D207A65726F20656E6572677920E1
:1006300076616C7565730A7809092D20657869748F
:100640002C206C6F636B20616E6420636F6E746925
:100650006E75650A3F09092D2073686F77207468ED
:100660006973207465787420616761696E0A0A771E
:100670003C783E09092D207475726E2052464D203B
:10068000576972656C6573732064617461206F666D
:10069000663A2078203D2030206F72206F6E3A201D
:1006A00078203D20310A623C6E3E09092D20736599
:1006B0007420722E662E2062616E64206E203D20B2
:1006C000612073696E676C65206E756D6572616C13
:1006D0003A2034203D203433334D487A2C203820C2
:1006E0003D203836384D487A2C2039203D2039318C
:1006F000354D487A20286D6179207265717569726F
:1007000065206861726477617265206368616E67F5
:1007100065290A703C6E6E3E09092D2073657420B0
:1007200074686520722E662E20706F7765722E2099
:100730006E6E202D20616E20696E74656765722073
:1007400030202D20333120726570726573656E74B0
:10075000696E67202D31382064426D20746F202B24
:1007600031332064426D2E2044656661756C743AA5
:1007700020323520282B372064426D290A673C6ED1
:100780006E6E3E092D20736574204E6574776F720E
:100790006B2047726F757020206E6E6E202D206169
:1007A0006E20696E746567657220284F454D206420
:1007B000656661756C74203D20323130290A6E3CCB
:1007C0006E6E3E09092D20736574206E6F6465207E
:1007D0004944206E3D20616E20696E7465676572C4
:1007E00020287374616E64617264206E6F6465208A
:1007F0006964732061726520312E2E3630290A0A11
:10080000643C78782E783E092D2078782E78203D2B
:10081000206120666C6F6174696E6720706F696E0D
:1008200074206E756D62657220666F7220746865E3
:1008300020646174616C6F6767696E6720706572B0
:10084000696F640A633C6E3E09092D206E203D20CD
:100850003020666F72204F46462C206E203D20319E
:1008600020666F72204F4E2C20656E61626C652091
:10087000766F6C746167652C2063757272656E7437
:10088000202620706F77657220666163746F722016
:1008900076616C75657320746F2073657269616C25
:1008A000206F757470757420666F722063616C6957
:1008B00062726174696F6E2E200A6A3C6E3E09098D
:1008C0002D207475726E204A534F4E205365726905
:1008D000616C20666F726D6174206F6E2028312903
:1008E000206F72206F6666202830292E0A663C78B9
:1008F000783E09092D207878203D20746865206CA9
:10090000696E65206672657175656E637920696EC2
:1009100020487A3A206E6F726D616C6C792065693F
:1009200074686572203530206F722036300A6B3C57
:10093000783E203C79792E793E203C7A7A2E7A3E98
:100940000A09092D2043616C696272617465206136
:100950006E20616E616C6F67756520696E7075746D
:10096000206368616E6E656C3A0A09092020782060
:100970003D20612073696E676C65206E756D6572D0
:10098000616C3A2030203D20766F6C746167652081
:1009900063616C6962726174696F6E2C2031203DF5
:1009A000206374312063616C6962726174696F6E77
:1009B0002C2032203D206374322063616C696272A6
:1009C0006174696F6E2C206574630A0909202079AF
:1009D000792E79203D206120666C6F6174696E67A5
:1009E00020706F696E74206E756D62657220666F1F
:1009F000722074686520766F6C746167652F63750B
:100A00007272656E742063616C6962726174696F81
:100A10006E20636F6E7374616E740A090920207A08
:100A20007A2E7A203D206120666C6F6174696E6752
:100A300020706F696E74206E756D62657220666FCE
:100A400072207468652070686173652063616C69E9
:100A500062726174696F6E20666F72207468697368
:100A600020632E742E20287A206973206E6F7420E4
:100A70006E65656465642C206F722069676E6F72A5
:100A8000656420696620737570706C6965642C20DC
:100A90007768656E2078203D2030290A09092020DA
:100AA000652E672E206B30203235362E380A090924
:100AB000202020202020206B312039302E39203278
:100AC0002E30300A613C78782E783E092D207878D7
:100AD0002E78203D206120666C6F6174696E6720FE
:100AE000706F696E74206E756D62657220666F72CC
:100AF0002074686520617373756D656420766F6C12
:100B000074616765206966206E6F20612E632E20F8
:100B100069732064657465637465640A6D3C783E2E
:100B2000203C79793E092D206D65746572207075C1
:100B30006C736520636F756E74696E673A0A090994
:100B400020202078203D203020666F72204F4646BE
:100B50002C2078203D203120666F72204F4E2C20B3
:100B60003C79793E203D20616E20696E7465676531
:100B70007220666F72207468652070756C736520D2
:100B80006D696E696D756D20706572696F6420693D
:100B90006E206D732E202879206973206E6F74206B
:100BA0006E65656465642C206F722069676E6F7274
:100BB0006564207768656E2078203D2030290A0022
:100BC000456E657267792076616C75657320736513
:100BD0007420746F207A65726F00436F6E74696E53
:100BE00075696E672E2E2E005246206F6666005283
:100BF00046206F6E00456D6F6E5478563420560057
:100C00002064426D0070203D20004E6F646520001E
:100C10006F666600206D730050756C7365733A20C3
:100C2000002000200043616C3A206B0047726F7512
:100C3000702000467265713A200020730064617470
:100C4000616C6F6720706572696F643A2000204D97
:100C5000487A002C7066002C49002C70756C736506
:100C60003A002C45002C50002C56004D53473A00BA
:100C70007D002C2270756C7365223A002C22450091
:100C80002C2250002C2256007B224D5347223A0042
:100C90000A0000080A400CFFC000C000EA15112439
:100CA0001FBECFEFCDBFDFE7DEBF11E4A0E0B0E4B1
:100CB000EEEBF5E600E00BBF02C007900D92A23309
:100CC000B107D9F72EE5A2E3B1E401C01D92AA381D
:100CD000B207E1F716E0CFE4D6E004C02197FE01A9
:100CE0000E94B132CE34D107C9F70E942C170C9460
:100CF000DD3286CACF92DF92EF92FF92CF93DF93DD
:100D00006A01815096E1899FE0011124CF52D24AB5
:100D1000888323EA33E240E051E4CB01B6010E942C
:100D2000A92F2091494030914A4040914B40509129
:100D30004C400E94A92F6B017C0160912B5870914F
:100D40002C5890E080E00E94482F9B01AC01C70125
:100D5000B6010E94223169837A838B839C831D8232
:100D60008AE097EDA3E2BEE38E839F83A887B987CD
:100D70001A861B861C861D861E86DF91CF91FF90EA
:100D8000EF90DF90CF9008958091835E8D3011F4C5
:100D90002D9A0895873009F40F98089500009091D6
:100DA000875E911109C0809344098091430987FFB0
:100DB000FCCF809144090895809364098091630970
:100DC00087FFFCCF8091640908958091835E8D3008
:100DD00011F42D980895873009F40F980895CF9352
:100DE000DF93D82FC62FF1DF8D2F8068D7DF8C2FB0
:100DF000D5DFDF91CF91C8CFCF93C82FE6DF8C2FFF
:100E0000CDDF80E0CBDFC82FBFDF8C2FCF910895DF
:100E1000CF9390919157981791F0C82F81E0ECDF14
:100E2000837E682F6C2B81E0DADF809191578111EE
:100E300004C087E2E1DF87FFF8CFC0939157CF91DD
:100E400008950F931F93CF93DF93EC0184E0E0DFCD
:100E50002097D9F088818823C1F0B7DF8EEB9EDF21
:100E60008E01005F1F4F899199DFC017D107D9F715
:100E70008BDFC1E08DE3C0DF8E7F682F6C2B8DE3AD
:100E8000DF91CF911F910F91AACFC0E0F3CF1092C5
:100E9000505710924E5710924F5710924C57109235
:100EA0004D5710924B5710924A5788E2A5DF82FFA8
:100EB00006C08DE3A1DF682F64608DE390DF80E1E1
:100EC000A7CFAF92BF92CF92DF92EF92FF920F9394
:100ED0001F93CF93DF936C017B018B01040F151FD0
:100EE000EB015E01AE18BF08C017D10759F0699138
:100EF000D601ED91FC910190F081E02DC60109959C
:100F0000892B79F7C501DF91CF911F910F91FF9048
:100F1000EF90DF90CF90BF90AF900895FC0155897E
:100F20004689252F30E0842F90E0821B930B5417C5
:100F300010F0CF96089501970895FC019389848954
:100F4000981761F0A489AE0FBF2FB11D57968C91F1
:100F500094899F5F9F73948B90E008958FEF9FEF2C
:100F60000895FC0193898489981731F08489E80FEA
:100F7000F11D878990E008958FEF9FEF0895FC01A0
:100F800093892489892F90E0805C9F4F821B91096F
:100F90008F7399270895CF93DF93EC01E881F9814E
:100FA0000680F781E02D0995EC85FD858681168206
:100FB0008581158280E484838C898B8B1A8ADF91EA
:100FC000CF9108958F929F92AF92BF92FF920F930D
:100FD0001F93CF93DF938C014A015B01D22FC32F64
:100FE000DC0152968C91529780FF07C0ED91FC91E5
:100FF0000288F389E02DC8010995D11101C0D3E021
:10100000FD2EE894F2F8DC2FD095D07CB1E68B165B
:10101000B3EE9B06B6E1AB06B10428F0D260B694FD
:10102000A7949794879460E078ED88EB95E0A5010C
:1010300094010E948C30C9012034310510F480E401
:1010400090E03C2F3B72D7FD30684D2F487C30FD3F
:1010500041605FB7F894D8011C96ED91FC9116821F
:10106000F7828087918735FF8FC04F7781E0848733
:101070008FEF85873F7D3583D683F8012189C0892D
:1010800086859785FC0133E0239FE00DF11D112437
:10109000659174912C1708F059C0272F46FF76C030
:1010A000793288F430E0F901EF5AFF4BA081AF3F6D
:1010B00051F026583F4BF901308120E2329FF00178
:1010C0001124FC5FA18347FF2AC021E0270F2932AA
:1010D00030F530E0F901EF5AFF4BD081DF3FF9F0F6
:1010E000F901E658FF4BA081F0E2AF9FD001112437
:1010F000BC5F2D553F4BF9011081F0E0E0E0183066
:1011000030F49D01205F3F4FF901E10FF11D3FB722
:10111000F8941296DC932081286020833FBF40FF23
:1011200015C023E0270F293288F430E0F901EF5A87
:10113000FF4B40814F3F51F026583F4BD901EC9176
:10114000B0E2EB9FF0011124FC5F4183FC0123E03E
:10115000C29FE00DF11D1124319625913491F901C2
:10116000FF27EE51FA4F9081832F80958923682BBA
:1011700060835FBFDF91CF911F910F91FF90BF9070
:10118000AF909F908F900895148674CF342F307550
:1011900009F499CF793208F096CF30E0F901EF5A8F
:1011A000FF4BD081DF3F09F48ECFF901E658FF4BAA
:1011B000A081E0E2AE9FD0011124BC5F2D553F4BD2
:1011C000F9011081F0E0E0E0183030F49D01205F7B
:1011D0003F4FF901E10FF11D3FB7F8941296DC93F0
:1011E0002081286020833FBF6ECFFC010FB607FE31
:1011F00004C0809111018823A1F0A485B5851496BF
:101200008C91149785FF0DC095898689981739F0C0
:1012100015968C9115978F7D15968C930895E8946B
:10122000CDC708950F931F93CF93DF93EC018A8965
:10123000982F91609A8B2D899E8929130AC0EC857D
:10124000FD85948195FF05C081FD0DC080E48483F8
:1012500012C0062F1D891F5F1F738E89811315C051
:10126000CE01C3DFFACF85818F77806490E49483C9
:10127000EC85FD858583EC85FD85628381E090E0CA
:10128000DF91CF911F910F910895ED89EC0FFD2F04
:10129000F11DE95AFF4F00831D8BEC85FD858A897E
:1012A00081FF09C085818F77806690E49483EC8507
:1012B000FD858583E3CF85818062FBCF0F931F93EC
:1012C000CF93DF938C01D0E0C0E0F801EC0FFD1F5D
:1012D0006491662339F082E997E5A4DF892B11F048
:1012E0002196F3CFCE01DF91CF911F910F910895F9
:1012F000682F82E997E596CFCF93DF93EC018A8937
:1013000080FF0BC0EC85FD85858185FD03C0848150
:1013100086FD03C0CE0169DFF5CFDF91CF9108953F
:1013200081E008950F98079A20E533EC93E0179A2F
:1013300044E1F9013197F1F74150D9F7482F179A55
:10134000F9013197F1F7179A59E0F9013197F1F75F
:101350005150D9F7415099F7915049F7E7CF9FB7CE
:10136000F894E0912A0BF0912B0B8091260B2091A1
:10137000F4563091F5564091F6565091F7569FBF6E
:1013800080FF08C0EC3E8CE2F80720F42F5F3F4F4F
:101390004F4F5F4F0F0116940794169407941694BD
:1013A000079416940794F00116940794E00DF11D2C
:1013B00016940794102C169401181694010C169488
:1013C00001181694010C1694011816941694010C29
:1013D0001124E019F109A8EEB3E00E947C306E0FF1
:1013E0007F1F811D911D08958F929F92AF92BF9292
:1013F000CF92DF92EF92FF926B017C01B0DF4B0145
:101400005C01C114D104E104F104B1F0A8DF681952
:1014100079098A099B09683E73408105910588F323
:1014200021E0C21AD108E108F10888EE880E83E0B5
:10143000981EA11CB11CE5CFFF90EF90DF90CF90DC
:10144000BF90AF909F908F9008952FB7F8946091C0
:10145000F4567091F5568091F6569091F7562FBF3D
:1014600008958150909109572FE5929FF001112422
:10147000EF59F74A45E1849F900111242B52334ADA
:1014800020833183615026E1629FB00111246F52A5
:10149000724A6283738364837583E25AFF4F21E04B
:1014A0002083E82FF0E0E45FF84A90839F5F9093F9
:1014B000095708958F929F92AF92BF92CF92DF9279
:1014C000EF92FF920F93CF936B017C0120E030E00D
:1014D00040E05FE30E94442F87FF05C0C12CD12C60
:1014E000E12C8FE3F82EC0920540D0920640E092A6
:1014F0000740F09208408090065790900757C0919F
:10150000085720E836E948E15BE4C701B6010E94CC
:10151000A92F6B017C01B12CA12CC501B4010E9443
:10152000482F9B01AC01C701B6010E9422310E94E5
:101530008F316B017C0160E876E988E990E0A501D4
:1015400094010E948C30CA01B90100914640202FBD
:1015500030E050E040E00E948C3044275527C7011E
:10156000B601621B730B840B950B2C2F30E050E0FF
:1015700040E00E948C302093F8563093F956409307
:10158000FA565093FB56CF910F91FF90EF90DF905A
:10159000CF90BF90AF909F908F900895DC01ED9118
:1015A000FC91F170FC5E80810895CF92DF92EF9202
:1015B000FF920F931F93CF93DF9300D0CDB7DEB789
:1015C0006C017C0103E010E009831A83CE010196CF
:1015D000E5DFF70181937F010F5F1F4F0730110592
:1015E00099F7C6010F900F90DF91CF911F910F9146
:1015F000FF90EF90DF90CF9008950F931F93CF93BC
:10160000DF9300D000D0CDB7DEB78C0119821A82EB
:10161000CE010196C3DF8F34F9F481E090E0898335
:101620009A83CE010196BADF8534B1F482E090E06E
:1016300089839A83CE010196B1DF8D3469F481E00C
:101640000115110551F0CE010196AFDF81E02B812C
:101650003C812017310709F080E02496CDBFDEBF22
:10166000DF91CF911F910F9108951F93CF93DF9337
:10167000EC01162F93DF8117B1F09FB78091021014
:10168000282F227081FDFACFF8948DE984BF209332
:10169000001023E184BF20930010E881F981F170EC
:1016A000FC5E10839FBFCE01DF91CF911F91089503
:1016B000CF92DF92EF92FF920F931F93CF93DF931E
:1016C00000D0CDB7DEB76C017C0103E010E00983E8
:1016D0001A83F70161917F01CE010196C6DF0F5F8A
:1016E0001F4F0730110599F7C6010F900F90DF913A
:1016F000CF911F910F91FF90EF90DF90CF900895C1
:101700000F931F93CF93DF9300D0CDB7DEB7009137
:10171000375E1091385E8091395E90913A5E08177D
:1017200019079CF4C801957189839A836FEFCE01E4
:1017300001969BDF1092335E1092345E8091315E91
:101740009091325E080F191FE6CF0F900F90DF9136
:10175000CF911F910F910895DC01ED91FC910088CC
:10176000F189E02D23E030E00994FC010190002094
:10177000E9F73197AF01481B590BBC0182E997E5A6
:10178000A0CB86EE90E4F1CFCF93DF9397DDEC0111
:10179000F8DF8C0F9D1FDF91CF910895009709F01E
:1017A000E4CF90E080E008958F929F92AF92BF9235
:1017B0000F931F93CF93DF93CDB7DEB7A197CDBF24
:1017C000DEBF19A2423008F44AE08E010F5D1F4FC0
:1017D000842E912CB12CA12CA50194010E948C3057
:1017E000E62FB901CA01EA30B4F4E05DD801EE9306
:1017F0008D01232B242B252B79F7CD01CFDFA1964B
:10180000CDBFDEBFDF91CF911F910F91BF90AF9001
:101810009F908F900895E95CE9CFC0CFCF92DF927F
:10182000EF92FF92CF93DF9397FF17C06B017C017C
:101830008DE25EDDEC0166277727CB016C197D090F
:101840008E099F094AE0B0DF8C0F9D1FDF91CF9179
:10185000FF90EF90DF90CF9008954AE0DF91CF9115
:10186000FF90EF90DF90CF909FCFBC01990F880B36
:10187000990BD4CFCF93DF93F8DFEC0182DF8C0F8D
:101880009D1FDF91CF9108954F925F926F927F924B
:101890008F929F92AF92BF92CF92DF92EF92FF9280
:1018A0000F931F93CF936B017C01742EAC019B01AE
:1018B0000E94A632882391F089EE90E4CF911F9187
:1018C0000F91FF90EF90DF90CF90BF90AF909F90DF
:1018D0008F907F906F905F904F9047CF4601570158
:1018E000E894B7F82FEF3FEF4FE75FE7C501B4018A
:1018F0000E94A63281110DC02FEF3FEF4FE75FE747
:10190000C501B4010E94442F18161CF48DEE90E41A
:10191000D5CF2FEF3FEF4FE75FE4C701B6010E943D
:10192000603218161CF481EF90E4C8CF2FEF3FEF20
:101930004FE75FECC701B6010E94442F87FDF3CF4C
:1019400020E030E0A901C701B6010E94442F10E059
:1019500000E087FF07C08DE2CBDC8C01F7FAF09442
:10196000F7F8F094C0E060E070E080E09FE37C1660
:1019700041F020E030E040E251E40E942231CF5FAC
:10198000F6CFA70196010E94BE302B013C010E94B8
:101990008F314B015C014AE007DF7C01E00EF11E54
:1019A000CC23A9F1C501B4010E94482F9B01AC01D1
:1019B000C301B2010E94BD304B015C0185EF90E490
:1019C000D4DEE80EF91EC15010F120E030E040E214
:1019D00051E4C501B4010E94A92F2B013C010E94D2
:1019E0008F314B01B12CA12C4AE0C501B401DCDEE2
:1019F000E80EF91EC501B4010E94482F9B01AC01FD
:101A0000C301B2010E94BD304B015C01DCCFC701B4
:101A1000CF911F910F91FF90EF90DF90CF90BF90EB
:101A2000AF909F908F907F906F905F904F900895B0
:101A3000CF93DF9329DFEC01A4DE8C0F9D1FDF9194
:101A4000CF910895AF92BF92CF92DF92EF92FF9223
:101A50000F931F93CF93DF9300D0CDB7DEB76C0108
:101A60005B0110E000E00A151B057CF57801EC0C29
:101A7000FD1C85E1F822E982FA82CE0101968EDD15
:101A8000803110F480E334DC0F5F1F4FE982FA826B
:101A9000CE01019683DD682F70E090E080E040E1A8
:101AA00083DE89EF90E4B9DEC80187709927892B1E
:101AB00019F489EF90E4B1DEC8018F709927892B62
:101AC00091F680E99CE0FADBCECF0F900F90DF918A
:101AD000CF911F910F91FF90EF90DF90CF90BF902B
:101AE000AF9008950F931F93CF93DF9380919157F9
:101AF000803109F062C088E27FD982FF3BC084E078
:101B000087D963D980E04AD980E048D9D82FC82F37
:101B1000833408F0C2E4C0934B5780E03FD9082FCC
:101B200080E03CD9182F80E039D9282F30E0A90176
:101B300096E0440F551F9A95E1F744275370402BC8
:101B400040934C5750934D57322F22272227337002
:101B5000212B20934E5730934F579091815E9417CD
:101B6000150611F0452B11F4D330A0F410924B5709
:101B70000BD98DD9809191578031F9F480914B57D1
:101B80008823E1F084E044D981E0DF91CF911F9177
:101B90000F910895C350C0935057807880934A574F
:101BA000D0E0DC1720F480E0F9D8DF5FFACFECD882
:101BB00080E12ED984E220D9DDCF69D980E0E5CF5C
:101BC0000F931F93CF93DF9383EC93E0DDDD8DEBD9
:101BD00093E074DB80913B5E8B3209F48FC08635D5
:101BE00009F48FC08B3509F48FC090E080E03DDEB2
:101BF00080EB93E063DB60913C5E70E090E080E01E
:101C00004AE0D2DD88EA93E059DB80913D5E8F7334
:101C100090E02BDE85EA93E051DB80913F5E8251BC
:101C2000990B23DE80EA93E0AFDD83E993E0ACDD3E
:101C30008BE893E043DB6091405E7091415E809160
:101C4000425E9091435E42E050E0F2DE08E41EE521
:101C5000C1E0D0E086E893E031DBCE0106DE87EF1D
:101C600090E4DBDDF80161917191819191918F0197
:101C700042E050E0DDDE80E893E020DBCE01F5DDE0
:101C800087EF90E4CADDF8016489758986899789B0
:101C900042E050E0CDDE2196C730D105D9F685E788
:101CA00093E00CDB6091785E7091795E80917A5E52
:101CB00090917B5E42E050E0BBDE8BE693E0FEDA83
:101CC00080917C5E90E0D6DD8BE593E0F7DA809141
:101CD0007D5E90917E5ECEDD80913E5E811117C06B
:101CE0008EE493E051DD8091805E811113C08FE21C
:101CF00093E0DF91CF911F910F9146CD81EB91E061
:101D000076CF84E693E073CF83E993E070CF85E5E7
:101D100093E0E8CF8FE393E0ECCF94E0811119C01A
:101D2000909326049091200492FD0AC09FB7F894E6
:101D3000811112C080913204877F809332049FBF4B
:101D40008091E605982F9770913051F0887171F06D
:101D5000089590932504E6CF809132048860EDCFFA
:101D60008091010A8B7F8093010A08958091410A36
:101D70008B7F8093410A08950F931F93CF93DF9336
:101D8000CDB7DEB72C97CDBFDEBF681BF1F0062FB5
:101D900010E0682F70E06F5A784AA801CE010196D2
:101DA0000E94CE32E1E0F0E0EC0FFD1FE00FF11FEA
:101DB0001082CE0101960E94AA2D2C96CDBFDEBFC7
:101DC000DF91CF911F910F91089590E080E0F5CFC2
:101DD0000F931F93CF93DF93CDB7DEB72C97CDBF73
:101DE000DEBF681BF1F0062F10E0682F70E06F5A1D
:101DF000784AA801CE0101960E94CE32E1E0F0E0DF
:101E0000EC0FFD1FE00FF11F1082CE0101960E9422
:101E1000A72D2C96CDBFDEBFDF91CF911F910F91E3
:101E2000089560E070E0CB01F4CF2F923F924F9283
:101E30005F926F927F928F929F92AF92BF92CF925A
:101E4000DF92EF92FF920F931F93CF93DF93CDB763
:101E5000DEB72A97CDBFDEBF89879A87162F7A0112
:101E6000222E312CB101032C000C880B990B0E94FF
:101E70004A2F4B015C01612F70E090E080E00E94EE
:101E80004A2F20E030E044EB53E40E94A92F2B01BD
:101E90003C01B70190E080E00E94482F9B01AC011B
:101EA000C301B2010E94A92FA50194010E94A92F8C
:101EB00020E836E948E15BE40E9422312B013C0135
:101EC000E985FA8505818081081B110B218132810A
:101ED0004381548166817781808591850E94BD30E0
:101EE000A30192010E9422316B017C01B801012EF5
:101EF000000C880B990B0E944A2FA50194010E94A7
:101F000022319B01AC01C701B6010E94BE306D8336
:101F10007E838F8398870E94FD3169837A838B83C8
:101F20009C8320E030E040E85FE30E94BE306B011C
:101F30007C0120E030E0A90169817A818B819C815C
:101F40000E94603287FDA2C0A7019601C501B401BD
:101F50000E94A92F0E948A31E985FA8562877387DA
:101F600016861786E985FA8526853785020F131FA1
:101F700006871787020D131D0487158720E030E0C0
:101F800044EB53E4C301B2010E9422312BED3FE048
:101F900049EC50E40E94A92F6B017C0129813A8110
:101FA0004B815C816D817E818F8198850E94BD30DF
:101FB000A30192010E94A92F20E030E044EB53E4FA
:101FC0000E9422312BED3FE049EC50E40E94A92F02
:101FD0004B015C01A70196010E9422312B013C01BB
:101FE000E985FA85448A558A668A778AA50194012B
:101FF000C501B4010E94A92F20E030E040E05FE37A
:102000000E94A92F9B01AC0160E070E080E89FE393
:102010000E94BD304B015C01A7019601C701B601CA
:102020000E94A92F20E030E040E05FE30E94A92F4A
:102030009B01AC0160E070E080E89FE30E94BD304E
:10204000A30192010E94A92F9B01AC01C501B4011B
:102050000E94BD30E985FA85608B718B828B938BF2
:102060002A96CDBFDEBFDF91CF911F910F91FF90D8
:10207000EF90DF90CF90BF90AF909F908F907F9028
:102080006F905F904F903F902F900895E985FA856B
:1020900012861386C701B6019058A50194010E94CB
:1020A000A92F0E948A31E985FA85668777875ACFFA
:1020B000CF92DF92FF920F931F93CF93DF930FE5A1
:1020C000089FF0011124EF01CF59D74AAA81BB81A3
:1020D0001F962C911F972A8B16964D915D916D91AD
:1020E0007C9119974B8B5C8B6D8B7E8BA881B98112
:1020F0001F962C911F972F8B16964D915D916D9188
:102100007C911997488F598F6A8F7B8F2091085740
:10211000C0900657D0900757F09046408F01A60117
:102120006F2DCF018D58974A80DEEC81FD818A8129
:102130009B818E179F0729F187858AA786819781C2
:10214000A085B1858BA79CA7ADA7BEA7E881F98123
:1021500087858FA786819781A085B18588AB99AB4C
:10216000AAABBBAB20910857A6016F2DC8018557BC
:10217000974ADF91CF911F910F91FF90DF90CF9001
:1021800054CEDF91CF911F910F91FF90DF90CF90B0
:102190000895EF93FF93E2E9F7E508C0EF93FF930B
:1021A000E2E9F7E531C0EF93E0E652C02F932FB795
:1021B0002F938F939F93AF93BF936894CF93DF93A5
:1021C00020E0C485D8E09689DF01A90FB21FA95A83
:1021D000BF4F8C9120E42C838A839F5F9F738D81F6
:1021E0002589291302C08F7D8D83968BDF91CF9136
:1021F0000EF017C8BF91AF919F918F912F912FBF74
:102200002F91FF91EF9118952F932FB72F938F93C5
:102210009F93CF93DF93C485D8E08981988181FD16
:102220000DC0C38981E08C0F8F732489281731F08A
:10223000CE0FDF2F20E0D21F9F8B838BDF91CF91BA
:102240009F918F912F912FBF2F91FF91EF91189513
:10225000FF938F938FB78F93F8E08081848187FFFE
:10226000FCCF85818F7B806885838F918FBF8F9115
:10227000FF91EF9118951F920F920FB60F921124B4
:1022800084E050D81F920F920FB60F9211248F93B3
:102290009F93AF93BF938091F4569091F556A09180
:1022A000F656B091F7560196A11DB11D8093F456D4
:1022B0009093F556A093F656B093F75681E080932D
:1022C000260BBF91AF919F918F910F900FBE0F90F2
:1022D0001F9018951F920F920FB60F9211248F9393
:1022E00088E08093A90481E0809303578F910F9039
:1022F0000FBE0F901F9018951F920F920FB60F925E
:1023000011248F939F93809109048093090486FF81
:1023100003C091E09093055787FF03C081E080934D
:1023200004579F918F910F900FBE0F901F9018959B
:102330001F920F920FB60F9211240BB60F922F928D
:102340003F924F925F926F927F928F929F92AF9245
:10235000BF92CF92DF92EF92FF920F931F932F9332
:102360003F934F935F936F937F938F939F93AF931D
:10237000BF93EF93FF93CF93DF93CDB7DEB72A9749
:10238000CDBFDEBF81E080930D0680911006909155
:1023900011068D839E838091F3568E5F909108572E
:1023A000891718F090910857891B90E0FC01EE0FF7
:1023B000FF1FE80FF91FE75EFF4B8081809308063F
:1023C0008D819E8120912B5830912C5836952795E0
:1023D000821B930B8D839E838D819E81E091F156AC
:1023E000F091F256EE0FFF1FEF50F14B8083918377
:1023F00019821A821B821C822D813E810D811E81D1
:1024000022241302B001029FA00112037209500D91
:10241000611D721D30037209500D611D721D112462
:1024200049835A836B837C8389809A80AB80BC808C
:10243000A0910140B0910240E091F35608E0E09F86
:10244000F0011124EA0FFB1FE058FF4F208031807C
:102450004280538064807580068117819401A501B4
:1024600060E070E080E090E05101620173010E9441
:10247000BA32208331834283538364837583868396
:1024800097834D815E81E091F35618E0E19FF00162
:102490001124EA0FFB1FA084B184C284D384E48496
:1024A000F58406851785952F990F990B9A01492F69
:1024B000592F692F792F892F0E94BA3220873187AF
:1024C000428753876487758786879787E091F3569D
:1024D0008E2F90E0FC01EE0FFF1FE80FF91FE75E63
:1024E000FF4B80818111CFC08091EF4E9091F04ED3
:1024F0009C013695279536952795AC01421B530BC9
:102500009A018D819E81181619060CF478C08D8170
:102510009E81919581959109820F931F8093EF4E33
:102520009093F04E21E04091295850912A58481735
:10253000590708F020E02093E65D8D819E811816F2
:1025400019060CF05FC081E090E08093ED4E90930F
:10255000EE4E2091ED4E3091EE4E8091E94E9091ED
:10256000EA4E2817390709F452C08091E64E8F5F72
:102570008093E64E8091E64E882351F01092E64E0D
:102580008091ED4E9091EE4E8093EB4E9093EC4EF9
:102590008091EB4E9091EC4E019709F016C380911B
:1025A000E94E9091EA4E019709F465C08091E74E9B
:1025B0009091E84E01968093E74E9093E84E2091DB
:1025C0000440222339F1209103402817190609F00D
:1025D00008F5109204401092E74E1092E84E1496BF
:1025E0001D921D921D921C921797CD0188529D4FEE
:1025F000FD01E817F90771F010823196FACF8D814D
:102600009E818ACF1092ED4E1092EE4EA2CF109284
:10261000E64EB0CF14964D915D916D917C911797D8
:102620004F5F5F4F6F4F7F4F14964D935D936D9348
:102630007C9317970D911D912D913C91139740918B
:10264000F8565091F9566091FA567091FB5604175E
:1026500015072607370778F080914740909148404A
:10266000A0934740B093484080930140909302402C
:1026700081E080930B578091EB4E9091EC4E8093CC
:10268000E94E9093EA4E9091F35680910A5798172D
:1026900008F445C28090F1569090F256E091F356BE
:1026A0008E2F90E0FC01EE0FFF1FE80FF91FE75E91
:1026B000FF4B0180F281E02D848D958D881A990A57
:1026C00053E09522E091F156F091F256A091F35625
:1026D0008A2F90E0DC01AA0FBB1FA80FB91FA75ECD
:1026E000BF4B11960D90BC91A02D5E968D919C9143
:1026F000E81BF90BF3702091F1563091F256A0913E
:10270000F3568A2F90E0DC01AA0FBB1FA80FB91F58
:10271000A75EBF4B11960D90BC91A02D90968D9108
:102720009C91281B390BD901B370AF83B887880CF3
:10273000991C84010F50114B4801D8016D917C9177
:10274000EE0FFF1FEF50F14B4081518122245702C1
:102750009001469F800156033209100D211D321D44
:1027600074033209100D211D321D11242801390175
:10277000E0910140F0910240A091F35618E0A19F32
:10278000D0011124AE0FBF1FA850BF4FAC901196BF
:10279000BC90119712962C90129713963C90139719
:1027A00014960C911497098715961C9115971A8702
:1027B00016960C91169717961C9117977301620144
:1027C000FF0CCC08DC2C76019201A3016C2D7C2D32
:1027D0008C2D9C2D6101E984FA840E94BA322C93DD
:1027E00011963C93119712964C93129713965C9303
:1027F000139714966C93149715967C9315971696C9
:102800008C93169717969C93D4016D917C91AF8110
:10281000B885AA0FBB1FAF50B14B4D915C912224DC
:1028200057029001469F800156033209100D211D69
:10283000321D74033209100D211D321D112448016F
:102840005901A091F35618E0A19FD0011124AE0FB9
:10285000BF1FA059BE4F2C9011963C901197129615
:10286000CC9012971396DC9013971496EC901497D3
:102870001596FC90159716960C91169717961C9125
:10288000179724013501770C4408542C3201940128
:10289000A501642D742D842D942D51010E94BA320E
:1028A0002C9311963C93119712964C931297139672
:1028B0005C93139714966C93149715967C931597C5
:1028C00016968C93169717969C93A091F356809129
:1028D000F3562A2F30E0D901AA0FBB1FA20FB31F56
:1028E000A75EBF4B11962D913C9190E0DC01AA0FA1
:1028F000BB1FA80FB91FA75EBF4B11968D919C916E
:10290000D90112962D913C91DC0114968D919C91E8
:102910002817390709F403C18090F1569090F256B8
:10292000A091F3568A2F90E0DC01AA0FBB1FA80FDD
:10293000B91FA75EBF4B11960D90BC91A02DD496E8
:102940008D919C91881A990AB3E09B222091F156AF
:102950003091F2568091F35690E0DC01AA0FBB1F34
:10296000A80FB91FA75EBF4B11960D90BC91A02D6B
:10297000D6968D919C91D901A81BB90BBD0173709E
:102980004091F1565091F2568091F356282F30E045
:10299000C901880F991F820F931F875E9F4BDC012F
:1029A00011968D919C91DC01D8968D919C91481B3C
:1029B000590BDA01B370AF83B887880C991C840176
:1029C0000F50114B4801D8018D919C91DB01AA0F4A
:1029D000BB1FAF50B14B4D915C91BC0122245702FB
:1029E0009001469F800156033209100D211D321DB2
:1029F00074033209100D211D321D112428013901E3
:102A0000A091F35678E0A79FD0011124AE0FBF1F0D
:102A1000A851BE4FAC901196BC90119712962C9075
:102A2000129713963C90139714960C91149709875C
:102A300015961C9115971A8716960C91169717964E
:102A40001C91179779016201FF0CCC08DC2C7601F0
:102A50009201A3016C2D7C2D8C2D9C2D6101E984AC
:102A6000FA840E94BA322C9311963C9311971296D5
:102A70004C93129713965C93139714966C93149738
:102A800015967C93159716968C93169717969C938C
:102A9000D4016D917C91AF81B885AA0FBB1FAF5057
:102AA000B14B4D915C91222457029001469F8001C9
:102AB00056033209100D211D321D74033209100D09
:102AC000211D321D1124280139018091F35618E08F
:102AD000819FC0011124E80FF91FE05AFD4FB0811A
:102AE000A181C280D380E480F580068117815301E3
:102AF0004201BB0C8808982C54019201A301682D57
:102B0000782D882D982DAB2EBA2E0E94BA322083B4
:102B10003183428353836483758386839783809153
:102B2000F3568F5F8093F3568091F1569091F25651
:102B300001968093F1569093F2569091F3568091BE
:102B40000857981788F01092F356E0910140F091E1
:102B5000024080819181A281B3810196A11DB11DA6
:102B600080839183A283B3838091F1569091F25632
:102B700093708093F1569093F2562A96CDBFDEBFA4
:102B8000DF91CF91FF91EF91BF91AF919F918F9185
:102B90007F916F915F914F913F912F911F910F9175
:102BA000FF90EF90DF90CF90BF90AF909F908F906D
:102BB0007F906F905F904F903F902F900F900BBE43
:102BC0000F900FBE0F901F9018958091E94E909135
:102BD000EA4E51CDEF92FF920F931F93CF93DF9365
:102BE00000D0CDB7DEB7109294571092955788EE6B
:102BF00093E0A0E0B0E08093965790939757A0930E
:102C00009857B093995780ED90E4809392579093A2
:102C1000935780E698E080939E5790939F5782E960
:102C20009CE08093A0579093A15782E08093A25795
:102C30001092A3571092A45780E090E0A8ECB2E461
:102C40008093D25D9093D35DA093D45DB093D55D16
:102C50001092E55D1092E65D8093E85D9093E95DEA
:102C6000A093EA5DB093EB5D1092FB5D1092FC5D6A
:102C70008093FE5D9093FF5DA093005EB093015E34
:102C80001092115E1092125EE5EDFCE58183928355
:102C9000A383B483148A75962DE5E13DF207B1F75D
:102CA00081E698E5FC01E25AFF4F1082815A9F4F5E
:102CB0004CE5853D9407B1F7E1E3F8E524E130E028
:102CC00092E081E020833183928313821482158203
:102CD000168217821086118682871386709648E5C1
:102CE000E136F40779F710922D5810922E58109271
:102CF0002F5880E090E180932B5890932C5880E0DF
:102D000091E08093295890932A588EEF90E0809319
:102D1000355E9093365E8DE190E08093315E9093C6
:102D2000325E8DE090E080932F5E9093305E84E879
:102D300090E08093375E9093385E8DEF91E08093C2
:102D4000395E90933A5E1092335E1092345E04E8DE
:102D500010E009831A83CE0101960E94CE0A780101
:102D60009DE1E90EF11C8F3F09F46EC00093335EC4
:102D70001093345E2DEFE21621E0F2065CF4E98256
:102D8000FA82CE0101960E94CE0A8F3F09F458C004
:102D90000E94800B8AE08093835E8BE08093845E48
:102DA0008CE08093855E8DE08093865E1092875ED6
:102DB0008BE280933B5E82ED80933C5E8BE180935F
:102DC0003D5E81E080933E5E99E190933F5E40E0FE
:102DD00050E068EC72E44093405E5093415E609333
:102DE000425E7093435E40E050E068E472E44093DA
:102DF000445E5093455E6093465E7093475E4DEC33
:102E00005CEC6CE171E44093785E5093795E609382
:102E10007A5E70937B5E80937C5E84E690E0809324
:102E20007D5E90937E5E10927F5E1092805E0F902A
:102E30000F90DF91CF911F910F91FF90EF90089528
:102E40004DE1E40EF11C96CF87018DEFE81681E08D
:102E5000F80609F07ECF9ECFCF93DF93CDB7DEB7D4
:102E6000C857D109CDBFDEBF88ED21E030E084BF77
:102E70002093620091E084BF909363009DE284BF41
:102E80009093800093E084BF9093600080E090E294
:102E90002091650020FD36C221E02093030A8EEFC9
:102EA0008093260A8093270A9BE09093000A32E0E1
:102EB0003093E6052093430A8093660A8093670A5D
:102EC0009093400A9093E705E0E0FBE027E09EEF57
:102ED00085E021839487158680837096E0340BE02B
:102EE000F007B9F72FEF3FE02093AA0B3093AB0B1D
:102EF00090E89093820B1092810B2EEF30E020939C
:102F0000AE0B3093AF0B98ED24E194BF2093680093
:102F100091E19093800B809302069EE090930506CA
:102F200090E690930306809300068091B000887F1E
:102F300085608093B0008091B200887F8560809327
:102F4000B2008FED9EE280932C0B90932D0B81E0CD
:102F50008093250B1092210B83E08093200B7894B3
:102F600084E08093210481E00E948D0E9FB7F89445
:102F700080E180930204809114048860809314049B
:102F80009FBF9FB7F89480E280930204809115045C
:102F90008860809315049FBF40E052EC61E070E0D0
:102FA00082E997E50E94AC0B8091080485FD05C07D
:102FB00080913D5E8F5F80933D5E82E694E00E944B
:102FC0005E098BEF90E40E94CE0B8CE494E00E94AB
:102FD000C40BB8E42B2EBEE53B2E80E69EE5F10146
:102FE00000E010E020EA31E44DEC5CEC6CE470E4CD
:102FF0000193119321933193448B558B668B778B7F
:103000008E179F07A9F780E290E00E94FD0A8823AF
:1030100041F1CE0101960E94D50A09811A8117FD5E
:1030200020C0580123E0A20EB11CABE3EA2EAEE5AE
:10303000FA2E87E090E04C013FEF831A930A8BABA6
:103040009CABCE01C3960E94CE0AD7018D937D0121
:10305000C4018A149B0478F38EED93E004301105CB
:1030600011F48DEC93E00E94C40B0E94E00D80915E
:103070003E5E882309F442C083E494E00E945E0926
:103080008BE394E00E945E0980913B5E8B3221F4D9
:1030900084E394E00E945E0980913B5E863521F4D2
:1030A0008DE294E00E945E0980913B5E8B3521F4B5
:1030B00086E294E00E945E098DE194E00E945E0940
:1030C00060913C5E70E090E080E04AE00E94D40BAA
:1030D00085E194E00E945E0960913D5E70E090E0C1
:1030E00080E04AE00E94D40B83E194E00E94C40B8C
:1030F00083E091E40E94B50B0E94C10B809108040B
:1031000084FD03C081E08093015780913E5E882357
:1031100009F449C18DE08093835E8EE08093845EE4
:103120008FE08093855E80E18093865E81E080936E
:10313000875E10913C5E90913D5E9093815E10920F
:10314000825E90E290932104809341049FB7F894AB
:1031500082E08093420480915104877F80935104E0
:103160009FBF2091865E822F90E0293280F4FC017F
:10317000EF5AFF4B20812F3F51F086589F4BDC01C7
:10318000EC91B0E2EB9FF0011124FC5F21830E94DF
:10319000C4068091875E8111BBC08091E4058C7F5D
:1031A0008093E40580914109846080934109809176
:1031B00040098162809340090E94250A4B015C010D
:1031C0006AEA8FE20E94EF068FE20E94FC068A3ACA
:1031D00059F00E94250A681979098A099B09623306
:1031E00071058105910560F30E94250A6819790926
:1031F0008A099B09623371058105910508F0B9C000
:103200000E94250A4B015C0165E58FE20E94EF06F2
:103210008FE20E94FC06853559F00E94250A681944
:1032200079098A099B09623371058105910560F36B
:103230000E94250A681979098A099B096233710578
:103240008105910508F095C0FE0133968BE2DF0100
:103250001D928A95E9F781E0898384E08A8322E0E0
:103260002B8393E09D832E838F8380E4888725E0E2
:1032700029879A8796E09B8793E39C8797E09D87B1
:1032800028E02F8729E0298B29E12B8B32E43C8B26
:1032900025E22D8B8E8B26E22F8B988F98E2998FCB
:1032A00020E12A8F99E29B8F9CED9C8F9EE29D8F5F
:1032B00098E89E8F9FE29F8F9DE298A390E399A349
:1032C00047E34BA340E94CA348E34DA33EA33CE3B3
:1032D0003FA33FE838A73DE339A72AA72FE62BA74E
:1032E0009CA79CE69E87888B1AA38E010F5F1F4FB9
:1032F000F80180818823E1F061810E94EF060E5F72
:103300001F4FF6CF019709F0C3CD83E00E949209C9
:103310008091E405837F8093E40580916109846056
:10332000809361098091600981628093600944CF34
:1033300090E080E00E94210769E981E10E94EF06A8
:1033400084E00E9408070E94250A4B015C0187E285
:103350000E94FC0687FD0BC00E94250A68197909A6
:103360008A099B09623371058105910580F30E94EA
:10337000250A8DE191E40E94210780913D5EF4E1F0
:103380008F9FC00111244C01092E000CAA08BB0814
:10339000892B09F43BC10E94522DA50194010E9482
:1033A00060300E94F4098EE0809305068091030648
:1033B000809303061092B00086E08093020681E0BD
:1033C00080930006809100068093000687E080933A
:1033D0000806812C912C540190E080E021E020939C
:1033E0000A0630910D0630FFFCCF8A30910544F07B
:1033F0004091100650911106840E951EA11CB11C1F
:1034000001968A3107E2900751F783EF93E00E941B
:103410005E09C501B4010E94482F20E030E44CE170
:1034200056E40E94223120E030EF4FE755E40E943D
:1034300022319B01AC0166E676E686E69FE30E94B8
:10344000223144E050E00E94180D4091405E5091BE
:10345000415E6091425E7091435E81E00E947A0617
:103460004091405E5091415E6091425E7091435E3A
:1034700082E00E947A064091405E5091415E6091E8
:10348000425E7091435E83E00E947A06C09049409C
:10349000D0904A40E0904B40F0904C4060912B58C7
:1034A00070912C5890E080E00E94482F2B013C0145
:1034B00005ED1CE520E0D10158968D909D90AD90D2
:1034C000BC905B97F10161917191819191911F0184
:1034D000F1E0F20FFFABD8012C9320E030E040E4A4
:1034E00050E40E94A92FA70196010E94A92FA301D1
:1034F00092010E942231F801618372838383948355
:10350000158286829782A086B186128613861486DB
:10351000158616860B5E1F4F2FA9263061F661E0D7
:1035200081E00E94310A61E082E00E94310A62E09B
:1035300083E00E94310A62E084E00E94310A63E085
:1035400085E00E94310A63E086E00E94310A8091A2
:10355000015781115FC082E3809346408AE08093E7
:1035600003406091785E7091795E80917A5E90916F
:103570007B5E0E945A0A8FE692E1A3E8BFE3809344
:10358000494090934A40A0934B40B0934C4081E017
:1035900080933A5899E09093160424E130E0209308
:1035A00031583093325892E09093335880933B587F
:1035B00010924A581092170410925A581092B3045D
:1035C000C090335ED090345EC114D10409F46EC152
:1035D00086010F5F1F4FF3E1EF2EFEE5FF2E809176
:1035E000315E9091325E8C0D9D1D08171907A4F471
:1035F000C801957189839A83CE0101960E94CE0AF3
:10360000D7018D937D010F5F1F4FE9CF60E070E020
:10361000CB01C7CE8CE3A0CF4090135E5090145ED8
:103620006090155E7090165E8090175E9090185EA8
:10363000A090195EB0901A5EC0901B5ED0901C5E88
:10364000E0901D5EF0901E5E00911F5E1091205E66
:103650002091215E3091225E4091235E5091245E44
:103660006091255E7091265E8091275E9091285E24
:10367000A091295EB0912A5E8FAB98AFA9AFBAAF87
:1036800080912B5E90912C5EA0912D5EB0912E5E6C
:10369000409258B7509259B760925AB770925BB740
:1036A0008092B7589092B858A092B958B092BA5830
:1036B000C0921659D0921759E0921859F0921959A0
:1036C0000093755910937659209377593093785910
:1036D0004093D4595093D5596093D6597093D75984
:1036E0002FA838AC49AC5AAC2092335A3092345A95
:1036F0004092355A5092365A8093345890933558A8
:10370000A0933658B093375885E18093005788E0EE
:1037100090E08093FE569093FF5688EE91E0809360
:103720000657909307571092FD5690910A57AFEBAA
:10373000B8E523E33DE580E011E04C91442309F432
:103740004BC0482F50E0BA01660F771F460F571F36
:10375000475E5F4BFA010081BD016C5571090F3F57
:1037600099F4FB01E080F180F701048901110CC09C
:103770008787148B0081E02FF0E0E75FFF4B00812B
:10378000FA0100838F5F9F5FFD01EA55F109E08038
:10379000F180FB0140815181E416F506E9F0482FE4
:1037A00050E0BA01660F771F460F571F475E5F4B09
:1037B000FA0160816F3F81F4F701648961110CC0E7
:1037C0008787148B6081E62FF0E0E75FFF4B608115
:1037D0008F5FFA0160839F5FA15ABF4F2A173B0793
:1037E00009F0ABCF90930A578093FD569091FC5609
:1037F00045ED5CE5A1E6B8E561E0FD01E25AFF4F69
:103800002081222319F1E82FF0E09F01220F331FBE
:10381000E20FF31F8F01075E1F4BF80120812F3F3E
:10382000A9F42D913C911197F901748971110EC081
:103830008787648B208130E0245F3F4BF901208132
:10384000F80120838F5FA183B2839F5FA15ABF4F8E
:103850004A175B0791F68093FD569093FC56909122
:103860002D589923A9F0809330582091184091E069
:10387000980F9093FD5690E0FC01EE0FFF1FE80FAC
:10388000F91FE75EFF4B208310922E5810922F589D
:103890008091FD568093085710E0809109571817C2
:1038A000E0F4812F0E9458101F5FF7CF80E090E076
:1038B000DC011FAA18AE19AE1AAE40E050E0BA0102
:1038C00000E010E09801C12CD12C7601812C912CC4
:1038D0005401412C512C3201DBCE1091085720E8C5
:1038E00036E948E15BE460910540709106408091C3
:1038F0000740909108400E94A92F20E030E044EF5B
:1039000053E40E9422310E948F316B017C0120918F
:10391000464030E050E040E06BE070E580E090E051
:103920000E948C30C701B601621B730B840B950B90
:10393000212F30E050E040E00E948C302093F85678
:103940003093F9564093FA565093FB5610920B570A
:1039500081E08093044095E19093050690910306E1
:10396000909303061092B0009091FE569093020639
:1039700080930006909100069093000690910006B7
:103980009260909300061092080690910C06916048
:1039900090930C0680930A06789410921857109210
:1039A000195710921A5710921B5760E070E080E090
:1039B00090E40E945A0A8E010D5C1F4F0DAB1EABA6
:1039C00082E997E50E94BF07892B09F496C082E936
:1039D00097E50E949D07F09002578A3009F007C5CD
:1039E000AF2DB0E0AF5AB84A1C92E0915157EF5357
:1039F000EC3308F07AC00E2E000CFF0BEE5FF24E97
:103A00000C94B132DE21751D751D751D751D751D5A
:103A1000751D751D751D751D751D751D751D751D16
:103A2000751D751D751D751D751D751D751D751D06
:103A3000751D751D751D751D751D751D751D751DF6
:103A4000751D751D751D751D751D3E1D681D311E6D
:103A5000431E4A1E601E751D8320211E751E1920DF
:103A600020208320751D9B20751DAF20DA20751D39
:103A7000751D92219E21B521751DBC2112E0F11208
:103A800034C082E597E50E94AA2D8430D9F08830B1
:103A900099F0893059F010923B5E90E080E00E94EE
:103AA000350C8EE49CE00E94C40B1FC08BE5809314
:103AB0003B5E83E993E0F3CF86E580933B5E84E64B
:103AC00093E0EDCF8BE280933B5E81EB91E0E7CF1B
:103AD00022E0F2120AC082E597E50E94AA2D019722
:103AE00009F0ACC081E080937F5E80E4A1E5B7E59A
:103AF0001D928A95E9F7109202578091055790918F
:103B00003A58992389F0882379F081E080933C58D2
:103B10000E94250A60933D5870933E5880933F5809
:103B200090934058109205578091045790914A58AD
:103B3000992389F0882379F081E080934C580E9482
:103B4000250A60934D5870934E5880934F58909328
:103B50005058109204578091035790915A589923C6
:103B600089F0882379F081E080935C580E94250ACF
:103B700060935D5870935E5880935F58909360583F
:103B80001092035721E3E22E28E5F22E8701D12C73
:103B9000C12C560194E0AA0CBB1C9A95E1F7F501E3
:103BA000EF5CF74A4F018385D80119969C919923C0
:103BB00009F43CC4882309F439C40E94250AF4019D
:103BC00024853585468557851B012C01221A330A29
:103BD000440A550AB201A101D8018D919C91B0E02F
:103BE000A0E084179507A607B70708F01FC4B1E047
:103BF000CB1609F409C4E2E0CE1609F40BC4809197
:103C0000080486FB882780F9F501EF5CF74A1386E4
:103C1000D8011A969C911A97981709F407C412961E
:103C20009C918111FDC3923009F0FDC3F8012781F9
:103C300030852F5F3F4F27833087F5C310927F5E1B
:103C400054CF32E0F31251CF82E597E50E94AA2DBE
:103C5000019721F481E08093805E47CF1092805ECF
:103C600044CF82E597E50E94A72D6B017C018DE38F
:103C70009CE00E945E0942E0C701B6010E94440C2C
:103C80008AE39CE010CF8AE08C9382E597E50E945E
:103C90000D0C2BCF43E0F41228CF82E597E50E946C
:103CA000A72D0E948A31162F072F6093464083E389
:103CB0009CE00E945E09812F902F0E943A0C15CF44
:103CC00082E597E50E94AA2D80933C5E8CE29CE001
:103CD0000E945E0960913C5E70E090E080E04AE006
:103CE0000E94D40B0E94C10B00CF60E270E081E51E
:103CF00097E50E94C332009711F40C94F12C8C01CB
:103D000001551745C801992760E270E08E5A984A1C
:103D10000E94C332EE24E394E00E009711F40C9459
:103D2000F82CDC01A155B7455D01602F81E00E94B0
:103D3000BC0E6C016A2D8E2D0E94E80E27966CAF8A
:103D40007DAF8EAF9FAF27976F2D81E08A0D0E94C8
:103D5000E80EA0966CAF7DAF8EAF9FAFA097C11459
:103D6000D10409F0A5C023EA33E240E051E42796EC
:103D70006CAD7DAD8EAD9FAD27970E94A92F4B01F5
:103D80005C0101ED1DE571E6E72E78E5F72E209147
:103D9000494030914A4040914B4050914C40C501C0
:103DA000B4010E94A92F2B013C0160912B58709106
:103DB0002C5890E080E00E94482F9B01AC01C30189
:103DC000B2010E942231D80111966D937D938D939B
:103DD0009C9314972AE037ED43E25EE316966D91CB
:103DE0007D918D919C9119970E94442F882321F1F8
:103DF000F80115828AE097EDA3E2BEE386839783FC
:103E0000A087B18712861386148615861686712CB4
:103E100080910957781680F4F70182819381801789
:103E2000910729F0848195818017910719F4872DD6
:103E30000E9458107394ECCF0A5E1F4FBFE5EB0E43
:103E4000F11CEEE7EE16E9E5FE0609F0A0CF279695
:103E50002CAC3DAC4EAC5FAC27972092405E3092CC
:103E6000415E4092425E5092435E85E29CE00E9439
:103E70005E09C6010E94350C83E29CE00E945E0947
:103E800042E027966CAD7DAD8EAD9FAD27970E9429
:103E9000440C81E29CE00E945E0942E050E0A09662
:103EA0006CAD7DAD8EAD9FADA0970E94180D1DCE5F
:103EB000EE24EA94EC0C6BE0362E3E1408F49DC020
:103EC000AE2CB12C25E1E29E800111240B52134A45
:103ED00020E030E040E450E427966CAD7DAD8EAD3F
:103EE0009FAD27970E94A92F2091494030914A40C9
:103EF00040914B4050914C400E94A92F2B013C0116
:103F000060912B5870912C5890E080E00E94482FCF
:103F10009B01AC01C301B2010E942231D80111966C
:103F20006D937D938D939C93149716962D913D914F
:103F30004D915C911997A0966CAD7DAD8EAD9FAD06
:103F4000A0970E94442F882309F457C0F8011582D6
:103F5000A0962CAC3DAC4EAC5FACA09726823782CD
:103F600040865186128613861486158616868FE53E
:103F70008A9D80018B9D100D11240F59174AD8017D
:103F8000ED91FC914681578160857185F801408FE4
:103F9000518F628F738F20910857A0900657B09071
:103FA000075790904640E89E70011124A501692DA5
:103FB000C7018D58974A0E94150FD80112962D916E
:103FC0003C91139714968D919C911597281739075A
:103FD000A1F0ED91FC9186819781A085B185F801D2
:103FE00080AB91ABA2ABB3AB20910857A501692D73
:103FF000C7018557974A0E94150FF601EE0FFF1F64
:10400000EE0FFF1FE95CF14A27962CAC3DAC4EAC9D
:104010005FAC2797258636864786508AA0968CAC5B
:104020009DACAEACBFACA09785A296A2A7A2B0A64D
:104030001CCF99249394F91058CD0E94E00D55CDD2
:1040400060E270E081E597E50E94C332009701F5D8
:104050006F2D81E00E94BC0E8C010115110599F1B4
:1040600001301105B9F188E19CE00E945E0980E110
:104070009CE0012B09F417CD42E027966CAD7DAD95
:104080008EAD9FAD27970E94440C84E19CE00BCD40
:104090008C01015517456801602F81E00E94BC0E1C
:1040A0008C016F2D81E08C0D0E94BC0EBC01990F1C
:1040B000880B990B0E944A2F27966CAF7DAF8EAF6D
:1040C0009FAF2797CACF10923A58109216041092B9
:1040D0007C5EC9CF82E08093335881E080933B5867
:1040E000009331581093325880937C5E27966CADC4
:1040F0007DAD8EAD9FAD27970E948A3160937D5E26
:1041000070937E5EB0CF82E597E50E94AA2D88234A
:1041100079F099278034910514F08FE390E0809333
:104120003D5E8AE09CE00E945E0960913D5ED4CDD8
:1041300081E090E0F4CF82E597E50E94AA2D8F718F
:1041400080933F5E85E09CE00E945E0980913F5E27
:104150008251990B0E94350C80E09CE0A4CC11E0C8
:10416000F112C3CC8FE895E00E94C40B80E290E08E
:104170000E94FD0A882389F0CE0101960E94D50A8B
:1041800089819A8197FD09C09195819591098983CB
:104190009A83CE0101960E94580B81E695E00E9419
:1041A000C40B68EC70E080E090E00E94F4090C948D
:1041B00000009BCC21E0F21298CC87E595E00E94AC
:1041C000C40B80E290E00E94FD0A811128C0198290
:1041D0001A826FE4CE0101960E94350B41E050E057
:1041E00049835A8365E4CE0101960E94350B82E033
:1041F00090E089839A836DE4CE0101960E94350B8D
:1042000003E010E009831A836FEFCE0101960E944C
:10421000350B0F5F1F4F011552E0150799F78AE420
:1042200090E089839A8380E290E08B839C83CE0127
:1042300001960E94580B0BE31EE587E090E0D80141
:104240006D918D017C01BFEFEB1AFB0A8BAB9CAB30
:10425000CE01C3960E94350BC7018D34910579F7C5
:1042600090E080E00E94FD0A81111AC08FE295E083
:104270000E945E094AE060E072E080E090E00E9407
:10428000D40B89E095E00E94C40B60E072E090E0FE
:1042900080E00E94220D87E095E00E945E090CC03C
:1042A000CE0101960E94D50A8B819C81019649F42A
:1042B00086EB94E00E94C40B0E94C10B86E395E05C
:1042C000F2CB89EA94E00E945E096B817C8190E0E8
:1042D00080E04AE00E94D40B09811A8117FF03C0D5
:1042E000119501951109045011098BE994E00E9480
:1042F0005E09C8010E94350C84E994E00E945E09C1
:1043000089819A8197FF04C089E894E00E945E0940
:104310000E94C10BB80187E090E00E94220D87E85F
:1043200094E0BBCFF1E0FF12E0CB85EF9BE00E9471
:104330005E098BEF90E40E94CE0BD7CB42E0242E97
:10434000F210D3CB10923E5E80915257813319F414
:1043500081E080933E5E80913E5E882319F08FEE6F
:104360009BE0A1CB88EE9BE09ECB332433948AED77
:104370009BE0F310BACB97CB44244394F410B5CB15
:1043800080EC9BE00E94C40B0E94800BE7EBF8E5F9
:104390001082118212821382E15AFF4F31EF832E75
:1043A0003AE5932E8E169F0699F710923458109284
:1043B0003558109236581092375897CB99249394C9
:1043C000F91093CB0EE915E0F801F490FF2061F0AD
:1043D000FAE0FF1203C08DE00E9478098F2D0E9441
:1043E00078090F5F1F4FF0CF8CE995E05CCBBFE3FE
:1043F000BF1508F482CBEF2DF0E0EF5AF84A808326
:10440000F394F092025779CB80910804881F882793
:10441000881FFACB8091A80483FB882780F9F4CB0E
:10442000933009F403CCD8011A968C93BFEFCB1AC2
:10443000DB0A005F1F4FE3E0CE16D10409F0A9CBE1
:1044400080910B57882311F40C94EC2B10920B578E
:1044500020900A572DAE822D90E006E1209EF001BB
:104460001124EF52F24A26E1833098F43489311155
:104470000DC0289FD001299FB00D1124AF52B24A20
:1044800050961D921D921D921C92539776960196FE
:10449000EBCF10910957A1961FAFA197812F90E004
:1044A0002FE5129FD0011124AD54B74A25E18C307D
:1044B000B8F51C963C911C9731112EC0289FF00135
:1044C000299FF00D1124EB52F34A108A118A128AA7
:1044D000138AFD01EC54F1091082118212821382B9
:1044E00034961082118212821382148215821682EF
:1044F00017821D921C92119712961D921C9213976F
:1045000014961D921D921D921C92179718961D923B
:104510001D921D921C921B970196A15ABF4FC7CFA7
:10452000D70117962D913C9118972115310589F0E7
:1045300013968D919D910D90BC91A02D820F931F8C
:10454000A11DB11DF70183839483A583B6831782D0
:104550001086F0E1EF0EF11C01E6E01608E5F0062A
:10456000F9F6209047403090484001ED1DE50BAF33
:104570001CAF10E000E04DAC041508F0EAC0780173
:1045800083E0EE0CFF1C8A95E1F7E20CF31CF701C7
:10459000E058FF4F208131814281538164817581D0
:1045A00086819781D1014D905D906D907C900E94A5
:1045B000BF314B015C01C301B2010E94482F9B0136
:1045C000AC01C501B4010E942231B6E1B09F900157
:1045D000B19F300D1124F901EF52F24AEFABF8AF61
:1045E000608B718B828B938BF7012085318542859F
:1045F00053856485758586859785D1014D905D903D
:104600006D907C90139780848FAE91846B969FAE53
:104610006B97A2842C96AFAE2C97B3846096BFAEF6
:104620006097C4846496CFAE6497D5846896DFAEF5
:104630006897868469968FAE699797846A969FAECD
:104640006A97CD90DD90ED90FC90AFA9B8AD5096F3
:104650008D909D90AD90BC9053972B968CAE9DAE57
:10466000AEAEBFAE2B970E94BB314B015C01C301C4
:10467000B2010E94482F9B01AC01C501B4010E9408
:1046800022314B015C012FAD6B963FAD6B972C96A1
:104690004FAD2C9760965FAD609764966FAD649751
:1046A00068967FAD689769968FAD69976A969FAD5A
:1046B0006A970E94BB319B01AC01C501B4010E9405
:1046C000A92F4B015C01C701B6010E94482F9B0135
:1046D000AC01C501B4010E9422319B01AC012B96B3
:1046E0006CAD7DAD8EAD9FAD2B970E94BD30EFA917
:1046F000F8AD608B718B828B938B60897189828915
:1047000093890E946832AFA9B8AD50966D937D939E
:104710008D939C93539750966D917D918D919C9123
:104720005397EBADFCAD21813281438154810E94CE
:10473000A92FAFA9B8AD50966D937D938D939C939F
:1047400053970F5F1F4FEBADFCAD7696EBAFFCAF11
:1047500012CFF10184819581A681B78180819181F9
:10476000A281B38180910857809106579091075795
:1047700003EB18E50DAF1EAF01E618E50FAB18AF60
:104780006B961FAE6B974C01B12CA12CE9968CAEA9
:104790009DAEAEAEBFAEE997A1969FACA1976B96CA
:1047A000AFAC6B979A1409F4A2C4AFA9B8AD0D9041
:1047B000BC91A02DABAFBCAF1F968C91B8E08B9F86
:1047C00080011124020D131DF801E058FF4F2081D4
:1047D0003181428153816481758186819781F101A4
:1047E00080809180A280B3800E94BF316B017C01E8
:1047F000C501B4010E94482F9B01AC01C701B6015D
:104800000E942231ABADBCAD50966D937D938D93DC
:104810009C935397F80120853185428553856485A3
:10482000758586859785D1014D905D906D907C90C2
:10483000139780848FAE91842C969FAE2C97A28480
:104840006096AFAE6097B3846496BFAE6497C4843D
:104850006896CFAE6897D5846996DFAE6997E6848F
:104860006A96EFAE6A97F7846C96FFAE6C97CD9020
:10487000DD90ED90FC90ABADBCAD50968D909D90D1
:10488000AD90BC9053972B968CAE9DAEAEAEBFAEA6
:104890002B970E94BB314B015C01C301B2010E9406
:1048A000482F9B01AC01C501B4010E9422314B018C
:1048B0005C012FAD2C963FAD2C9760964FAD609765
:1048C00064965FAD649768966FAD689769967FADA3
:1048D00069976A968FAD6A976C969FAD6C970E94A8
:1048E000BB319B01AC01C501B4010E94A92F4B0152
:1048F0005C01C701B6010E94482F9B01AC01C501B4
:10490000B4010E9422319B01AC012B966CAD7DADB0
:104910008EAD9FAD2B970E94BD30EBADFCAD608B93
:10492000718B828B938B60897189828993890E94B4
:104930006832ABADBCAD50966D937D938D939C93D7
:10494000539750966D917D918D919C9153971196AF
:104950008D909D90AD90BC9014972F968CAE9DAE8F
:10496000AEAEBFAE2F97A50194010E94A92FEBAD6B
:10497000FCAD608B718B828B938BF801E850FF4FFD
:104980002081318142815381648175818681978143
:10499000E858FF4F408060964FAE60975180649614
:1049A0005FAE6497828068968FAE689793806996B1
:1049B0009FAE6997A4806A96AFAE6A97B5806C96F1
:1049C000BFAE6C97C680A296CFAEA297D780A396B3
:1049D000DFAEA397D1018D909D90AD90BC90F80172
:1049E000F085A496FFAFA497D8011996BC91A5961F
:1049F000BFAFA597F801F285A696FFAFA697D8019D
:104A00001B96BC91A796BFAFA797F801F485A8960F
:104A1000FFAFA897D8011D96BC91A996BFAFA997E3
:104A2000F801F685AA96FFAFAA97D8011F96BC9108
:104A3000AB96BFAFAB97F10140805180628073802D
:104A4000AFA9B8AD12960D90BC91A02D2996AEAF2E
:104A5000BFAF29971F96EC91F0E03196B3E0EE0FCF
:104A6000FF1FBA95E1F7E20DF31DC080AC96CFAE03
:104A7000AC97D180AD96DFAEAD97E280AE96EFAE4B
:104A8000AE97F380AF96FFAEAF97C480E096CFAEFF
:104A9000E097D580E196DFAEE197E680E296EFAE53
:104AA000E297F780E396FFAEE397D101CD90DD90DA
:104AB000ED90FC902396CCAEDDAEEEAEFFAE23972C
:104AC0000E94BB31EFA9F8AD22A133A144A155A1A9
:104AD0000E94A92F6B017C0160962FAD60976496B0
:104AE0003FAD649768964FAD689769965FAD6997DB
:104AF0006A966FAD6A976C967FAD6C97A2968FADF4
:104B0000A297A3969FADA3970E94BB31AFA9B8AD62
:104B100096962D913D914D915C9199970E94A92F68
:104B20009B01AC01C701B6010E94BE306B017C0144
:104B3000C501B4010E94482F9B01AC01C701B60119
:104B40000E9422316B017C01A4962FADA497A596FB
:104B50003FADA597A6964FADA697A7965FADA79731
:104B6000A8966FADA897A9967FADA997AA968FAD85
:104B7000AA97AB969FADAB970E94BB314B015C01EE
:104B8000C301B2010E94482F9B01AC01C501B401D1
:104B90000E9422314B015C01AC962FADAC97AD96D3
:104BA0003FADAD97AE964FADAE97AF965FADAF97B9
:104BB000E0966FADE097E1967FADE197E2968FAD1D
:104BC000E297E3969FADE3970E94BB319B01AC0156
:104BD000C501B4010E94A92F4B015C0123966CAD65
:104BE0007DAD8EAD9FAD23970E94482F9B01AC01F8
:104BF000C501B4010E9422319B01AC01C701B6017D
:104C00000E94BD306B017C012996EEADFFAD299766
:104C100021813281438154812F966CAD7DAD8EAD63
:104C20009FAD2F970E94A92FA70196010E94A92F3F
:104C300063966CAF7DAF8EAF9FAF6397AFA9B8ADF2
:104C400014960D90BC91A02D2196AEAFBFAF2197C9
:104C500029964EAC5FAC299720E030E0A9014A16B6
:104C60005B0609F457C1F801E851FE4F5080689681
:104C70005FAE6897818069968FAE699792806A96D9
:104C80009FAE6A97A3806C96AFAE6C97B480A296E5
:104C9000BFAEA297C580A396CFAEA397D680A496A9
:104CA000DFAEA497E780A596EFAEA597E858FF4F33
:104CB0002081318142815381648175818681978110
:104CC000D1018D909D90AD90BC90F801F085A69695
:104CD000FFAFA697D8011996BC91A796BFAFA7972B
:104CE000F801F285A896FFAFA897D8011B96BC9152
:104CF000A996BFAFA997F801F485AA96FFAFAA9726
:104D0000D8011D96BC91AB96BFAFAB97F801F68565
:104D1000AC96FFAFAC97D8011F96BC91AD96BFAFD4
:104D2000AD97F10140805180628073802196AEADD5
:104D3000BFAD21971F96EC91F0E03196A3E0EE0F06
:104D4000FF1FAA95E1F7E20DF31DC080AE96CFAE2E
:104D5000AE97D180AF96DFAEAF97E280E096EFAE30
:104D6000E097F380E196FFAEE1970481E2960FAF02
:104D7000E2971581E3961FAFE397C680E496CFAE26
:104D8000E497D780E596DFAEE597D101ED90FD90F1
:104D90000D911C916796ECAEFDAE0EAF1FAF6797FD
:104DA0000E94BB31EFA9F8ADFE962081318142818E
:104DB00053810E94A92F6B017C0168962FAD6897E3
:104DC00069963FAD69976A964FAD6A976C965FADED
:104DD0006C97A2966FADA297A3967FADA397A4966A
:104DE0008FADA497A5969FADA5970E94BB31EFA963
:104DF000F8AD22AD33AD44AD55AD0E94A92F9B0156
:104E0000AC01C701B6010E94BE306B017C01C50137
:104E1000B4010E94482F9B01AC01C701B6010E945A
:104E200022316B017C01A6962FADA697A7963FADC8
:104E3000A797A8964FADA897A9965FADA997AA96F0
:104E40006FADAA97AB967FADAB97AC968FADAC9795
:104E5000AD969FADAD970E94BB314B015C01C30184
:104E6000B2010E94482F9B01AC01C501B4010E9410
:104E700022314B015C01AE962FADAE97AF963FADA0
:104E8000AF97E0964FADE097E1965FADE197E29680
:104E90006FADE297E3967FADE397E4968FADE4972D
:104EA000E5969FADE5970E94BB319B01AC01C50122
:104EB000B4010E94A92F4B015C0167966CAD7DADDA
:104EC0008EAD9FAD6797E4D79B01AC01C501B401DE
:104ED0000E9422319B01AC01C701B6010E94BD3086
:104EE0006B017C012196AEADBFAD219711962D913E
:104EF0003D914D915C9114972F966CAD7DAD8EAD2B
:104F00009FAD2F970E94A92FA70196010E94A92F5C
:104F10009B01AC0163966CAD7DAD8EAD9FAD63978B
:104F20000E94BD304B015C0129964EAC5FAC2997C5
:104F30002196CEACDFAC219720E030E0A9014C14E3
:104F40005D0439F4D20150962D913D914D915C91C3
:104F50005397EBADFCAD6089718982899389F9D74C
:104F60002B013C01AC019B01C501B4010E9422311F
:104F70006B017C0126E636E646E85FE30E9460327C
:104F800018160CF4ADC026E636E646E85FEBC7011E
:104F9000B6017AD787FDA4C0A7019601C701B60163
:104FA0000E94A63281119CC0ADADBEAD1896CD92C7
:104FB000DD92ED92FC921B9720E030E040E05FE351
:104FC000C501B4010E94BE300E948A31ADADBEADB4
:104FD0006D937C9320E030E040E05FE3C301B201D9
:104FE0000E94BE300E948A31EDADFEAD62837383B4
:104FF000D1016D917D918D919C911091085748D769
:10500000A5019401A6D76B017C01E9966CAD7DAD3D
:105010008EAD9FADE9973CD79B01AC01C701B601AE
:1050200098D76B017C01612F70E090E080E032D76F
:105030009B01AC01C701B6018CD720E836E948E1F5
:105040005BE40E942231EFA9F8AD268137814085CB
:1050500051850E94BE306B017C0120E030E041E6CA
:1050600055E40E9422310E948A31072E000C880BE1
:10507000990BADADBEAD14960D911D912D913C9146
:105080001797060F171F281F391FFD01048315836B
:1050900026833783FFD620E030E041E655E459D738
:1050A0009B01AC01C701B6010E94BD30AFA9B8ADEC
:1050B00016966D937D938D939C9319976B960FAD78
:1050C0006B970F5F6B960FAF6B97A15ABF4FAFAB4C
:1050D000B8AF0DAD1EAD015A1F4F0DAF1EAF5CCB6B
:1050E000EDADFEAD108611861286138665CF8091D8
:1050F0002D58882309F44FC0E0913058F0E03196E4
:1051000013E0EE0FFF1F1A95E1F7E20DF31D20816A
:105110003181428153816481758186819781D1017A
:105120008D909D90AD90BC900E94BB316B017C0135
:10513000C501B401ADD69B01AC01C701B6010E9407
:1051400022316B017C0160912B5870912C5876951F
:10515000679590E080E09CD69B01AC01C701B60149
:105160000E94BE3020E030E040E05FE30E94BE30AD
:105170000E948F3160932E5870932F58C10188522E
:105180009D4F8215930561F0F101108281010F5F3F
:105190001F4F1801F6CF10922E5810922F58EECFB5
:1051A0008091185790911957A0911A57B0911B5799
:1051B000892B8A2B8B2B69F480E00E948D0E6091E5
:1051C000785E7091795E80917A5E90917B5E0E94AC
:1051D0005A0A65E070E080E090E00E94F409809156
:1051E000185790911957A0911A57B0911B570196D3
:1051F000A11DB11D8093185790931957A0931A576A
:10520000B0931B57ACE18A2EA7E59A2E740110E0EB
:1052100000E0B6E1DB2ED09EF001D19EF00D11240E
:10522000EF52F24A608971898289938920E030E0E7
:1052300048EC52E48ED60E948A31D7016D937D935B
:105240007D010F5F1F4F0330110529F7EEE2CE2ECF
:10525000E7E5DE2EF2E2EF2EF7E5FF2E8CE097E594
:10526000A7019601A5EDBCE51FE554960C91549756
:1052700070E060E0002349F0FC016081169FF001BE
:105280001124ED54F74A60817181FA0161937193A1
:10529000AF01412C512C3201002359F0FC016081F7
:1052A000169FF0011124E954F74A40805180628032
:1052B0007380F90141925192619271929F015596CA
:1052C0000196FDE5A335BF0781F680913458909192
:1052D0003558A0913658B0913758809346579093DF
:1052E0004757A0934857B093495780913E5E882313
:1052F00009F487C082E3E8E1F7E5DE011196019049
:105300000D928A95E1F7B12CB092825E8DE30E94F6
:10531000FC06682F64608DE30E94EF060E94250A58
:105320002B013C0180919157803109F05EC2809140
:105330004B5781115AC284E20E94FC0690E091957D
:10534000819591098C349F4F0CF04FC284E00E94EC
:10535000080784E00E94080787E20E94FC0687FF96
:10536000FBCF0E94E50680E80E94CE0685E30E94FE
:10537000CE0685E00E94CE068091815E0E94CE0618
:1053800080E40E94CE068E010F5F1F4FD8018D91E1
:105390008D010E94CE062DA83EA820163106B1F739
:1053A0000E94C4068CE00E94080788E20E94FC0666
:1053B00083FFFBCF84E00E9408070E94250A2B018F
:1053C0003C010E94250A64197509860997096E3106
:1053D00071058105910508F017C20E94720D88239E
:1053E00081F380914E5790914F57059751F78091D7
:1053F0004A57882331F362E370E080E090E00E9436
:10540000F409409018575090195760901A577090AF
:105410001B578091805E882309F4FCC188E89CE0DA
:105420000E945E094AE0C301B2010E94D40B01E070
:1054300010E084E89CE00E945E09C8010E94350CDF
:105440008EE291E40E940D0CD4016D917D914D018D
:10545000072E000C880B990B1DD52AE037ED43E28F
:105460005CE377D542E00E94440C0F5F1F4F04308D
:105470001105F9F601E010E080E89CE00E945E0969
:10548000C8010E94350C8EE291E40E940D0CF701D8
:10549000819191917F010E94350C0F5F1F4F073062
:1054A000110551F701E010E08CE79CE00E945E09D5
:1054B000C8010E94350C8EE291E40E940D0CD601C9
:1054C0006D917D918D919D916D010E940E0C0F5FEC
:1054D0001F4F0730110541F782E79CE00E945E09EB
:1054E000609146577091475780914857909149571E
:1054F0004AE00E94D40B80E79CE00E94C40B6CE35E
:1055000070E080E090E00E94F40981E00E948D0E3E
:1055100062E370E080E090E00E94F40980E00E9485
:105520008D0E2090465730904757409048575090E6
:1055300049572FAA38AE49AE5AAE409042575090C4
:105540004357609044577090455780913E579091D3
:105550003F57A0914057B091415740913A575091D1
:105560003B5760913C5770913D57009136571091D1
:1055700037572091385730913957C0903257D090D3
:105580003357E0903457F090355780902E579090D5
:105590002F57A0903057B0903157E091135EF091A3
:1055A000145E14012E1A3F0AF10137FE03C0F19573
:1055B000E195F109E83CF1050CF064C0E091175E5B
:1055C000F091185E16012E1A3F0AF10137FE03C052
:1055D000F195E195F109E83CF1050CF053C0E0913B
:1055E0001B5EF0911C5E18012E1A3F0AF10137FE76
:1055F00003C0F195E195F109E83CF1050CF042C0DA
:10560000E0911F5EF091205E1A012E1A3F0AF1010F
:1056100037FE03C0F195E195F109E83CF10594F5F9
:10562000E091235EF091245E1C012E1A3F0AF101E5
:1056300037FE03C0F195E195F109E83CF10514F559
:10564000E091275EF091285E12012E1A3F0AF101C7
:1056500037FE03C0F195E195F109E83CF10594F4BA
:10566000E0912B5EF0912C5E2FA838AC2E1A3F0AE9
:10567000F10137FE03C0F195E195F109E83CF10530
:105680000CF4AAC08092135E9092145EA092155EF4
:10569000B092165EC092175ED092185EE092195ECC
:1056A000F0921A5E00931B5E10931C5E20931D5EA9
:1056B00030931E5E40931F5E5093205E6093215E88
:1056C0007093225E8093235E9093245EA093255E68
:1056D000B093265E4092275E5092285E6092295ECB
:1056E00070922A5E8FA898ACA9ACBAAC80922B5E5F
:1056F00090922C5EA0922D5EB0922E5E0091335E51
:105700001091345E0115110549F1C8019571898325
:105710009A83CE0101960E94CE0A90E08093355E76
:105720009093365E09831A836FEFCE0101960E9433
:10573000350B8091335E9091345E2091315E3091D3
:10574000325E820F931F8093335E9093345E20917C
:10575000395E30913A5E8217930744F08091375E4C
:105760009091385E8093335E9093345E8091355E85
:105770009091365E880F991F992781608F3F910520
:1057800009F42CC18093355E9093365E6091355E4E
:105790008091335E9091345E89839A83CE01019625
:1057A0000E94350B8091335E9091345E03E11EE5DB
:1057B0009C0122513E457901C701800F911F8983C9
:1057C0009A83D8016D918D01CE0101960E94350B0F
:1057D000BEE50F321B0781F7A89564E170E080E019
:1057E00090E00E94F4090C94E01C0E94250A6419C0
:1057F000750986099709683E73408105910508F08F
:10580000A8CD0E94720D8ECDB39473E0372EB310E5
:105810007BCDF1CD8BE69CE00E945E094AE0C3019E
:10582000B2010E94D40B01E010E088E69CE00E94E7
:105830005E09C8010E94350C8FE291E40E940D0CB4
:10584000F401619171914F01072E000C880B990BA7
:1058500021D32AE037ED43E25CE37BD342E00E94B0
:10586000440C0F5F1F4F04301105F9F601E010E002
:1058700085E69CE00E945E09C8010E94350C8FE21B
:1058800091E40E940D0CD7018D919D917D010E94A4
:10589000350C0F5F1F4F0730110551F701E010E085
:1058A00082E69CE00E945E09C8010E94350C8FE2EE
:1058B00091E40E940D0CF601619171918191919199
:1058C0006F010E940E0C0F5F1F4F0730110541F74B
:1058D0008AE59CE00E945E096091465770914757A7
:1058E00080914857909149574AE00E94D40B80918B
:1058F0007F5E811107C00E94C10B68E270E080E00A
:1059000090E001CE55EDE52E5CE5F52E10E000E0CF
:1059100065E1B62E87E59CE00E945E0968010F5F95
:105920001F4FC8010E94350C8FE291E40E940D0CBC
:10593000D70154968C91882309F448C0BC9CF0018F
:10594000BD9CF00D1124EB52F34A60897189828964
:10595000938943E00E94440CB5E1EB0EF11C063044
:105960001105C1F635EDE32E3CE5F32E01E010E024
:105970004FE5D42E83E59CE00E945E09C8010E9499
:10598000350C8FE291E40E940D0CF7018489882385
:1059900009F1F801E55FF84AE081DE9EF00111248B
:1059A000E554F74A608171818281938144E00E94CD
:1059B000440C0F5F1F4FF5E1EF0EF11C073011058E
:1059C000C9F660E570E080E090E09DCD60E070E0B9
:1059D000CB01BFCF60E070E0CB01E8CF8EEF90E06D
:1059E000D1CE6F2D81E00E94BC0E6C010C94AF1ED5
:1059F000602F81E00E94BC0E6C016F2D8E2D0E94E5
:105A0000E80E27966CAF7DAF8EAF9FAF27970C94B3
:105A1000AF1E8F929F92AF92BF92CF92DF92EF9282
:105A2000FF92CF93DF93EC01688179818A819B811A
:105A3000611571058105910521F464E279ED8BE52D
:105A400097E02DE133EF41E050E03AD349015A01AC
:105A50009B01AC01A7EAB1E44FD36B017C01ACEE32
:105A6000B4EFA501940154D3C60ED71EE81EF91E4B
:105A7000F7FE06C081E0C81AD108E10880E8F80AFC
:105A8000C882D982EA82FB82C701B6019F77DF9183
:105A9000CF91FF90EF90DF90CF90BF90AF909F900D
:105AA0008F9008958F929F92AF92BF92CF92DF9284
:105AB000EF92FF9260914D4070914E4080914F4027
:105AC00090915040611571058105910521F464E2C2
:105AD00079ED8BE597E02DE133EF41E050E0F0D236
:105AE00049015A019B01AC01A7EAB1E405D36B015E
:105AF0007C01ACEEB4EFA50194010AD3C60ED71E0B
:105B0000E81EF91EF7FE06C081E0C81AD108E108B8
:105B100080E8F80AC0924D40D0924E40E0924F404B
:105B2000F0925040C701B6019F77FF90EF90DF9051
:105B3000CF90BF90AF909F908F90089560934D400D
:105B400070934E4080934F40909350400895662745
:105B5000772725C0FC0188279927E89421912032D6
:105B6000E9F3293010F02E30C8F32B3239F02D3202
:105B700031F4689403C00BD0820F911D2191205302
:105B80002A30C8F31EF4909581959F4F08957AE0CE
:105B9000979F902D879F802D910D112408958F92AE
:105BA0009F92AF92BF92CF92DF92EF92FF920F93AC
:105BB0001F93CF93DF935C017B016115710519F091
:105BC000DB018D939C9385010F5F1F4FF501D08101
:105BD0008D2F90E039D16C01892BA9F5DD32A9F523
:105BE0000F5F1F4FD5011196DC91C1E05801F1E024
:105BF000AF1AB10843E050E06CEF72E0C5012CD160
:105C0000892B61F5680182E0C80ED11C45E050E0A7
:105C100067EF72E0C60120D1892B21F4680197E07B
:105C2000C90ED11CE114F10419F0D701CD92DC9218
:105C300060E070E080E89FEFC111F9C060E070E0C3
:105C400080E89FE7F4C05801BECFDB3229F485011C
:105C50000E5F1F4FF501D181C0E0C8CF43E050E097
:105C600064EF72E0C501F8D0892BE9F0F80110E08B
:105C700000E020E030E0A9015F01B0ED8B2E8D0E39
:105C800089E08815C0F19C2E689491F88C2F88705B
:105C9000C2FF16C0811102C00F5F1F4F3196D501A0
:105CA000DC91C92DE9CFE114F10429F00E5F1F4FFB
:105CB000F7010083118360E070E080EC9FE7B7C0DC
:105CC000882311F001501109A5E0B0E015D29B0125
:105CD000AC01220F331F441F551F280D311D411DDC
